:100000000C94E0020C94CC180C94A5180C94800D60
:100010000C94430D0C94060D0C94D4040C9408031A
:100020000C9408030C9408030C9408030C94080324
:100030000C9408030C9408030C9408030C94080314
:100040000C945B180C9408030C94E4160C94BE16E4
:100050000C9408030C9408030C9408030C940803F4
:100060000C94D70E0C94080300407A10F35A00A0A9
:10007000724E18090010A5D4E80000E87648170071
:1000800000E40B54020000CA9A3B000000E1F505B1
:10009000000080969800000040420F000000A086FB
:1000A00001000000102700000000E803000000002D
:1000B0006400000000000A000000000001000000D1
:1000C00000002C76D888DC674F0823DFC1DFAE59EB
:1000D000E1B1B796E5E3E453C63AE651997696E87E
:1000E000E6C28426EB898C9B62ED407C6FFCEFBC02
:1000F0009C9F40F2BAA56FA5F490055A2AF75C932D
:100100006B6CF9676DC11BFCE0E40D47FEF520E662
:10011000B500D0ED902E0300943577050080841E45
:10012000080000204E0A000000C80C333333330FA0
:10013000986E12831141EF8D2114893BE65516CF3D
:10014000FEE6DB18D1844B381BF77C1D901DA4BB49
:10015000E424203284725E228100C9F124ECA1E5FE
:100160003D27207F000000000000000000065F5FC8
:10017000060000000007070007070000147F7F1437
:100180007F7F1400242E6B6B3A12000046663018F5
:100190000C666200307A4F5D377A4800040703002E
:1001A00000000000001C3E63410000000041633E6F
:1001B0001C000000082A3E1C1C3E2A0808083E3E7F
:1001C000080800000080E06000000000080808083F
:1001D0000808000000006060000000006030180C9B
:1001E000060301003E7F71594D7F3E0040427F7FF4
:1001F00040400000627359494F660000226349493C
:100200007F360000181C16537F7F50002767454536
:100210007D3900003C7E4B49793000000303717941
:100220000F070000367F49497F360000064F4969B5
:100230003F1E0000000066660000000000407636A9
:1002400000000000081C3663410000002424242420
:1002500024240000004163361C08000002035159A9
:100260000F0600003E7F415D5D1F1E007C7E131364
:100270007E7C0000417F7F49497F36001C3E634100
:1002800041632200417F7F41633E1C00417F7F49E3
:100290005D416300417F7F491D0103001C3E6341B6
:1002A000517372007F7F08087F7F000000417F7FCD
:1002B00041000000307040417F3F0100417F7F08D6
:1002C0001C776300417F7F41406070007F7F0E1C80
:1002D0000E7F7F007F7F060C187F7F001C3E6341EE
:1002E000633E1C00417F7F49090F06001E3F2171BC
:1002F0007F5E0000417F7F09197F660022674D59AC
:100300007322000003417F7F410300007F7F404054
:100310007F7F00001F3F60603F1F00007F7F30181D
:10032000307F7F0043673C183C674300074F787875
:100330004F070000476371594D677300007F7F418D
:10034000410000000103060C183060000041417FAD
:100350007F000000080C0603060C080080808080E7
:100360008080808000000307040000002074545443
:100370003C784000417F3F4848783000387C444416
:100380006C280000307848493F7F4000387C545446
:100390005C180000487E7F490302000098BCA4A4BA
:1003A000F87C0400417F7F08047C780000447D7D58
:1003B0004000000060E08080FD7D0000417F7F10F4
:1003C000386C440000417F7F400000007C7C18387E
:1003D0001C7C78007C7C04047C780000387C4444DD
:1003E0007C38000084FCF8A4243C1800183C24A4A9
:1003F000F8FC8400447C784C041C1800485C54547D
:100400007424000000043E7F442400003C7C4040F3
:100410003C7C40001C3C60603C1C00003C7C703814
:10042000707C3C00446C3810386C44009CBCA0A02C
:10043000FC7C00004C64745C4C64000008083E774F
:100440004141000000000077770000004141773E05
:1004500008080000020301030203010070784C4603
:100460004C78700000000000240027002A000000E3
:100470000000250028002B000000000800020100F9
:10048000000304070000000000000000005EBCE262
:10049000613FDD83C29C7E20A3FD1F419DC3217F60
:1004A000FCA2401E5F01E3BD3E6082DC237D9FC154
:1004B000421CFEA0E1BF5D0380DE3C62BEE0025C48
:1004C000DF81633D7C22C09E1D43A1FF4618FAA434
:1004D00027799BC584DA3866E5BB5907DB85673920
:1004E000BAE406581947A5FB7826C49A653BD98714
:1004F000045AB8E6A7F91B45C6987A24F8A6441A08
:1005000099C7257B3A6486D85B05E7B98CD2306EF3
:10051000EDB3510F4E10F2AC2F7193CD114FADF3DF
:10052000702ECC92D38D6F31B2EC0E50AFF1134DD3
:10053000CE90722C6D33D18F0C52B0EE326C8ED0C7
:10054000530DEFB1F0AE4C1291CF2D73CA947628B3
:10055000ABF517490856B4EA6937D58B5709EBB59F
:1005600036688AD495CB2977F4AA4816E9B7550B93
:1005700088D6346A2B7597C94A14F6A8742AC89687
:10058000154BA9F7B6E80A54D7896B35000000006F
:1005900023002600290004040404040404040202C5
:1005A00002020202030303030303010204081020F2
:1005B0004080010204081020010204081020DB2BF7
:1005C00011241FBECFEFD8E0DEBFCDBF12E0A0E008
:1005D000B1E0E2E6F9E602C005900D92A23EB10755
:1005E000D9F725E0A2EEB2E001C01D92A03FB2070C
:1005F000E1F712E0C0EED2E004C02197FE010E94B4
:100600005234CF3DD107C9F70E94251F0C94AF3457
:100610000C9400000895282F883038F08E3040F078
:10062000863148F4ECE6F0E008C0EDE6F0E005C005
:10063000EBE6F0E002C0E0E0F0E03081283060F46A
:1006400081E090E0A0E0B0E004C0880F991FAA1FED
:10065000BB1F2A95D2F715C0822F90E0AC012E3037
:1006600018F44850510902C04E50510981E090E001
:10067000A0E0B0E004C0880F991FAA1FBB1F4A95D5
:10068000D2F78095832380830895CF92DF92EF92F3
:10069000FF920F931F93CF93DF936C01EB017B01CC
:1006A000E40EF51E00E010E0CE15DF0561F0699163
:1006B000D601ED91FC910190F081E02DC6010995E4
:1006C000080F191FF1CFC801DF91CF911F910F9132
:1006D000FF90EF90DF90CF900895089580E090E034
:1006E00008953F924F925F926F927F928F929F9266
:1006F000AF92BF92CF92DF92EF92FF920F931F9330
:10070000CF93DF93EC01162F5A01922E302E812CBD
:10071000CE2CD12CE12CF12C61E070E080E090E057
:100720000E94AB17E881F9810190F081E02D01E092
:10073000292DA501612FCE0109950E944F182B018B
:100740003C010E944F18DC01CB0184199509A609D0
:10075000B7098C159D05AE05BF05A0F4E881F981A8
:100760000480F581E02DCE010995882351F3909105
:10077000F403911711F01F3F21F79091F1039111AC
:1007800005C0DFCF8394381438F680E0DF91CF9135
:100790001F910F91FF90EF90DF90CF90BF90AF909F
:1007A0009F908F907F906F905F904F903F900895B3
:1007B000CF93DF93EC01603208F06FE16F8388859F
:1007C000882311F066956F8361E1CE010E942811A4
:1007D000807E9F81482F492B61E1CE01DF91CF912F
:1007E0000C94E6101F93CF93DF932091D6056217E8
:1007F00009F45DC0162FEC016230E9F168F466235C
:1008000009F440C0613009F052C061E00E94281133
:10081000837E482F44603BC06330B9F0643009F0F8
:1008200046C061E00E942811837E482F4C6061E041
:10083000CE010E94E6108885882369F1E881F9815C
:100840000688F789E02D61E013C061E00E9428115D
:10085000837E482F406161E0CE010E94E6108885CA
:100860008823C9F0E881F9810688F789E02D60E0E6
:10087000CE01099510C061E00E942811837E482FA7
:10088000486005C061E00E942811482F437E61E066
:10089000CE010E94E6108091D605811106C067E264
:1008A000CE010E94281187FFF6CF1093D605DF9165
:1008B000CF911F910895CF93DF932091D6052330D8
:1008C000C9F42091F603211115C0EC0164E20E94E5
:1008D000281190E09195819591098C349F4F54F4A3
:1008E000E881F9810488F589E02D61E0CE01099560
:1008F00081E001C080E0DF91CF9108958F929F92B7
:10090000AF92BF92CF92DF92EF92FF920F931F931D
:10091000CF93DF93EC01162F6A01F22E6DE30E9454
:100920002811482F44606DE3CE010E94E6100E941A
:100930004F184B015C01CE010E945B048823C1F07B
:10094000E881F9810088F189E02DE12C2F2DA601A5
:10095000612FCE010995DF91CF911F910F91FF90EB
:10096000EF90DF90CF90BF90AF909F908F900895C1
:100970000E944F18DC01CB0188199909AA09BB090B
:10098000883E9340A105B105D8F6E881F98104803D
:10099000F581E02DCE010995CECF8EBD00000DB4BE
:1009A00007FEFDCF8EB508951F920F920FB60F92DE
:1009B00011248F9383B78E7F83BF8F910F900FBECB
:1009C0000F901F901895CF93DF93C0E1D7E261E0BD
:1009D00085E00E943F1760E085E00E943F17219765
:1009E000B1F7DF91CF910895CF93DF93C82FD62F22
:1009F00080E00E941617892B29F081E00E941617CB
:100A0000892B11F480E07CC0DD2309F46FC060E025
:100A100080E00E943F1760E081E00E943F17D09184
:100A2000B0038091AF03D81709F469C0CCE361E04B
:100A300080E00E946F1765E070E080E090E00E9427
:100A4000AB1761E081E00E946F1764E170E080E025
:100A500090E00E94AB1760E080E00E946F1765E0B5
:100A600070E080E090E00E94AB1760E081E00E94BF
:100A70006F1764E170E080E090E00E94AB17C15016
:100A8000B1F66AE070E080E090E00E94AB17CD170D
:100A900051F161E081E00E946F1765E070E080E055
:100AA00090E00E94AB1761E080E00E946F1764E164
:100AB00070E080E090E00E94AB1760E081E00E946F
:100AC0006F1765E070E080E090E00E94AB1760E097
:100AD00080E00E946F1764E170E080E090E00E9487
:100AE000AB17CF5FD4CFC093AF0309C0C53028F098
:100AF000CC0FC950C093B00302C01092B00381E084
:100B0000DF91CF9108954F925F926F927F928F9273
:100B10009F92AF92BF92CF92DF92EF92FF920F938C
:100B20001F93CF93DF93CDB7DEB76E970FB6F894D0
:100B3000DEBF0FBECDBF2C013B01142F6DE370E073
:100B40000E94192DB82EF30101900020E9F731978A
:100B50006F01C618D708FC2C111102C004E001C0B7
:100B600006E00E944F182091AB033091AC034091F6
:100B7000AD035091AE03DC01CB01821B930BA40BA0
:100B8000B50B80319742A105B10568F00E944F185E
:100B90006093AB037093AC038093AD039093AE036B
:100BA00081E080930501460199248B0C911CA02EB5
:100BB000B12CC4018A0D9B1DCD970CF028C18091EA
:100BC0000501882309F454C02091AA03822F90E0E4
:100BD000A401480F591F4A0D5B1D4D3351052CF4DC
:100BE000F11046C0222309F443C0FC01E459FC4F34
:100BF0003DE730832F5F93E2E92E05E04CE653E0BA
:100C00006091260387ED95E00E94710381112EC04B
:100C10006091240370E080E090E00E94D63026E6E8
:100C200036E646EA5FE30E94D4310E949F300E947C
:100C3000AB172091AA032F5F4CE653E06091260387
:100C400087ED95E00E947103082F81110FC00E946B
:100C5000B8070E944F186093AB037093AC03809366
:100C6000AD039093AE0310920501EFC01092AA035A
:100C70008091AA03E82FF0E08E0E9F1EA80CB91CED
:100C80009CE3A916B1040CF0DFC0FF2009F4D8C022
:100C9000E459FC4F882331F08F5F8093AA038CE2E4
:100CA00080835BC081E08093AA038BE7808386E02A
:100CB000E5E7F2E0DE01599601900D928A95E1F7A1
:100CC0002091AA0380E0E82FE20FA9E1B0E0AC0F89
:100CD000BD1FA80FB11D9C91992331F0F0E0E4599C
:100CE000FC4F90838F5FEFCFE093AA03809168035E
:100CF00090916903A0916A03B0916B030196A11DC5
:100D0000B11D8093680390936903A0936A03B09325
:100D10006B034AE0BE016F5F7F4F0E94242D50910C
:100D2000AA0330E0232F250FE1E0F0E0EC0FFD1FD8
:100D3000E30FF11D4081822F90E0442331F0FC014C
:100D4000E459FC4F40833F5FEDCF2F5F2093AA0310
:100D5000FC01E459FC4F2CE22083E091AA0351E00E
:100D60005E0F5093AA03F0E0E459FC4F82E28083C7
:100D700090E0892F850FF201E90FF11D4081282FA6
:100D800030E0F901E459FC4F442319F040839F5FA0
:100D9000F0CF92E29083E2E0E80FE093AA03A1E0B3
:100DA000A80FB0E0A459BC4F2AE32C93112339F0CB
:100DB0008D5F8093AA03F0E0E459FC4F908350913B
:100DC000AA03262DD301452F4619842F8A0F90E0C0
:100DD0003D9184599C4FFC0130838A2F821B8F15D3
:100DE000A0F3C50EC092AA03112351F081E08C0D2F
:100DF0008093AA03EC2DF0E0E459FC4F82E280835B
:100E0000E091AA03F0E0E459FC4F108219C088E198
:100E1000EBE7F2E0DE01119601900D928A95E1F781
:100E200083E2E82E05E028E1AE014F5F5F4F60915D
:100E3000260387ED95E00E9471030E94B80704C065
:100E40000E94B80701E001C000E0802F6E960FB647
:100E5000F894DEBF0FBECDBFDF91CF911F910F91F0
:100E6000FF90EF90DF90CF90BF90AF909F908F90CA
:100E70007F906F905F904F900895CF92DF92EF92A6
:100E8000FF921F93CF93DF93CDB7DEB72A970FB6AC
:100E9000F894DEBF0FBECDBF182F8EE480937C0088
:100EA00062E070E080E090E00E94AB1790917A00E1
:100EB000906490937A0080917A0086FDFCCF209117
:100EC00078008091790030E0382B40E050E06CE30E
:100ED00074EF80E190E00E94653269017A0111238C
:100EE00079F04AE0BE016F5F7F4FC6010E94242D5A
:100EF00040E0BE016F5F7F4F83E992E00E9483056F
:100F0000C6012A960FB6F894DEBF0FBECDBFDF91A3
:100F1000CF911F91FF90EF90DF90CF9008950F93A6
:100F20001F93CF93DF9300D000D01F92CDB7DEB7D1
:100F30008C01862F4AE0BE016F5F7F4F90E00E94D8
:100F4000242D40E0BE016F5F7F4FC8010E948305E2
:100F500040E067EC72E0CB010E9483050F900F9098
:100F60000F900F900F90DF91CF911F910F910895E7
:100F70002F923F924F925F926F927F928F929F92A9
:100F8000AF92BF92CF92DF92EF92FF920F931F9397
:100F9000CF93DF93CDB7DEB7CE5ED1090FB6F8940D
:100FA000DEBF0FBECDBF87ED95E00E947B0E882E81
:100FB000882309F498C380911D0383FF04C061E076
:100FC00085E00E943F17E090F4038091EF03909139
:100FD000F003F090F5030F2D10E0A80162EB73E031
:100FE000CE018F559F4F0E946C348091F20388236D
:100FF00029F08091F3038F3F09F07AC387ED95E0E4
:101000000E947B0E60912603E61259C3E1EAF0E0EC
:10101000EC0FFD1FE00FF11F1082912C8E010F5578
:101020001F4FE4E16E2EF4E17F2E62E27FE2C80101
:101030000E947534009709F08C016FE570E0C801DB
:101040000E9475345C01292D30E0009709F48BC0B3
:101050007C01E01AF10A81E0E81AF108B8016F5F3B
:101060007F4F629E6001639ED00C1124A70181E036
:1010700090E08C0F9D1F8C0D9D1D0E94A034EC0CE8
:10108000FD1CE1E0F0E0EC0FFD1FEE0DFF1D1082F6
:10109000CC24C394C90C85010F5F1F4F62E27FE22D
:1010A000C8010E9475345C01009711F49C2CBDCFDF
:1010B0007C01E01AF10A7C9C60011124A701B801AF
:1010C00081E090E08C0F9D1F8C0D9D1D0E94A0342F
:1010D000EC0CFD1CE1E0F0E0EC0FFD1FEE0DFF1D40
:1010E000108272E0E72EE90C85010F5F1F4F62E26C
:1010F0007FE2C8010E947534009711F49E2C95CFB1
:101100008C010F5F1F4F62E27FE2C8010E947534BD
:101110005C01009799F36C01C01AD10A7E9C7001A2
:101120001124A601B80181E090E08C0F9D1F8E0D67
:101130009F1D0E94A034EC0CFD1CE1E0F0E0EC0FE0
:10114000FD1FEE0DFF1D108263E0E62EE90C850108
:101150000F5F1F4F62E27FE2C8010E947534009763
:1011600069F28C01CBCF44E1429FC001439F900DB7
:10117000112444E150E0B801E1E0F0E0EC0FFD1F84
:101180008E0F9F1F0E94A034C451DF4F1882CC5E87
:10119000D04010E004E157E7452E5FE5552E612C65
:1011A000712C2EED30E02C0F3D1F2C5F3F4FC351B3
:1011B000DF4F39832883CD5ED040A12EB12C68E962
:1011C00072E081E090E08C0F9D1F019F800D911DCA
:1011D00011240E948034892B09F065C0C501019655
:1011E000089F7001099FF00C112481E090E08C0FA2
:1011F0009D1FE80EF91EC7010E94FB2C6C019FE1A8
:10120000C916D1040CF04FC0E2E0AE0EB11C0A9D2D
:10121000C0010B9D900D112421E030E02C0F3D1FEB
:10122000820F931F0E94FB2C682FC60180509040B4
:101230000E941A30C7010E94FB2C6C018050904024
:101240000E940830F601E75FFC4F8083C252DF4FF7
:10125000488259826A827B82CE5DD040C351DF4F83
:10126000E881F981CD5ED04026E011922A95E9F718
:1012700042E050E0B701CE0182529F4F0E9490346D
:10128000C7010E94FB2C875F9C4FFC016081CE014F
:1012900082529F4F0E948F071E5F21E0C451DF4F93
:1012A0002883CC5ED040E12EF12C6CEC72E081E022
:1012B00090E08C0F9D1F019F800D911D11240E94B5
:1012C0008034892BA1F5C252DF4F488259826A824D
:1012D0007B82CE5DD040C351DF4FE881F981CD5E86
:1012E000D04026E011922A95E9F7C7010196089FA0
:1012F0007001099FF00C112481E090E08C0F9D1F7C
:10130000E80EF91E42E050E0B701CE0182529F4F35
:101310000E949034C7010E94FB2C875F9C4FFC0108
:101320006081CE0182529F4F0E948F071E5F212E47
:10133000312CAA24A394B12CAC0EBD1E019FA00C8D
:10134000B11C11246AE972E0C5010E948034892B26
:1013500049F067E172E0C5010E948034892B09F4ED
:1013600046C08AC039E0C32E33E0D32EE12CF12CE5
:10137000F6018081882381F1C252DF4F4882598271
:101380006A827B82CE5DD040CE51DF4F1882C25E32
:10139000D0404AE0BE0168517F4FC7010E94242D12
:1013A00044E050E0BE0168517F4FCE0182529F4F12
:1013B0000E949034F60180814AE0BE0168517F4F5F
:1013C00090E00E94242D41E0BE0168517F4FCE0184
:1013D00082529F4F0E948305FFEFEF1AFF0A2FEF03
:1013E000C21AD20A3FE1E316F10411F6B2CFC101ED
:1013F0000196089F7001099FF00C112481E090E094
:101400008C0F9D1FE80EF91EC7010E94FB2C875F01
:101410009C4FFC01808185FD10920303F2E02F0EAA
:10142000311C029D6001039DD00C112421E030E0AD
:101430002C0F3D1FC20ED31E6FE972E0C6010E9441
:101440008034892B39F4C7010E94FB2C8D5E9E4F9E
:1014500061E00DC060ED72E0C6010E948034892B0E
:1014600051F4C7010E94FB2C8D5E9E4F60E0FC0191
:1014700080810E943F171E5FE12EF12CCC24C39483
:10148000D12CCC0EDD1E019FC00CD11C112461EAB1
:1014900072E0C6010E948034892B11F597012E5FFE
:1014A0003F4F029FC001039F900D112465EA72E037
:1014B00021E030E02C0F3D1F820F931F0E948034EB
:1014C000892B71F461E087E00E943F1764E670E0C9
:1014D00080E090E00E94AB1760E087E00E943F1739
:1014E0006BEA72E0C6010E948034892BD1F4970127
:1014F0002E5F3F4F029FC001039F900D112441E1D9
:1015000050E061E270E0E1E0F0E0EC0FFD1F8E0FD3
:101510009F1F0E94103021E0C451DF4F2883CC5E12
:10152000D0406CE072E0C6010E948034892B09F043
:101530005EC08091190383FF2CC0C7010196089FEC
:101540006001099FD00C112481E090E08C0F9D1F59
:10155000C80ED91EC6010E94FB2C62E0680F4BEB3F
:1015600052E084E00E94211BC6010E94FB2C92E005
:10157000E90EF11C0E9DA0010F9D500D1124E1E01C
:10158000F0E0EC0FFD1F4E0F5F1F62E0680F84E07C
:101590002BC084FF2BC0C7010196089F6001099FE3
:1015A000D00C112421E030E02C0F3D1FC20ED31EC1
:1015B000C6010E94FB2C4FEA52E0682F80E00E9497
:1015C000211BC6010E94FB2C32E0E30EF11C0E9D94
:1015D000A0010F9D500D1124E1E0F0E0EC0FFD1F84
:1015E0004E0F5F1F682F80E00E94211B1E5FE12EBF
:1015F000F12CCC24C394D12CCC0EDD1E019FC00C49
:10160000D11C112464E172E0C6010E948034892B50
:10161000F9F4F2E0EF0EF11C0E9DC0010F9D900D4C
:10162000112421E030E02C0F3D1F820F931F0E94F8
:10163000FB2C60E00E94F40441E0811103C068ECDF
:1016400072E002C062ED72E08EEC92E00E948305CF
:1016500063E272E0C6010E948034892B69F40E9423
:101660004F186093040370930503809306039093CF
:101670000703109203031E5F1F5F911608F09DCDB4
:10168000C451DF4F3881CC5ED040332319F141E0A3
:1016900065ED72E08EEF91E00E94830540E067EC1B
:1016A00072E0CB010E94830598E088E10FB6F894C0
:1016B000A895809360000FBE90936000FFCF83E2F7
:1016C000E82E05E02F2DAE014F555F4F87ED95E0D9
:1016D0000E94710380911D0383FF12C060E085E0CA
:1016E0000E943F170DC087ED95E00E947B0E08C059
:1016F00040E067EC72E087ED95E00E94E0127ECC5E
:10170000882DC251DF4F0FB6F894DEBF0FBECDBF9C
:10171000DF91CF911F910F91FF90EF90DF90CF90CD
:10172000BF90AF909F908F907F906F905F904F9001
:101730003F902F90089584B7877F84BFE0E6F0E064
:1017400080818861808310820895883038F08E30DF
:1017500040F0863148F4ECE6F0E008C0EDE6F0E059
:1017600005C0EBE6F0E002C0E0E0F0E090818830F8
:1017700068F441E050E060E070E0082E04C0440FDF
:10178000551F661F771F0A94D2F714C0282F30E028
:101790008E3018F42850310902C02E50310941E032
:1017A00050E060E070E004C0440F551F661F771FD3
:1017B0002A95D2F7492B40832BB3883050F031E083
:1017C0008E3008F430E091E001C0990F3A95EAF7C5
:1017D00001C094E0922B9BBB90916800883050F040
:1017E00021E08E3008F420E081E001C0880F2A95C6
:1017F000EAF701C084E0892B8093680008952F9256
:101800003F924F925F926F927F928F929F92AF9290
:10181000BF92CF92DF92EF92FF920F931F93CF93DD
:10182000DF93CDB7DEB72E970FB6F894DEBF0FBEAD
:10183000CDBF90910801892B8093080183E191E04D
:101840009D878C8785EEA82E82E0B82E09E013E0F4
:10185000C12CD12C88248394912C20E7222E2FE5B3
:10186000322E412C512CFC2CEC85FD85E190FD871E
:10187000EC878E2DDE860E94161721E03E850197AB
:1018800009F020E0622E712C8091B103482F50E0C6
:101890000F2C02C0559547950A94E2F741705527E1
:1018A0006416750629F490910801992309F485C0FE
:1018B000F801908196FF45C029823A824B825C8272
:1018C0001D824AE0BE01675F7F4F8F2D932F2E87C9
:1018D0000E94242D42E050E0BE01675F7F4FCE01A1
:1018E00001960E9490344AE0BE016A5F7F4FC301B7
:1018F0000E94242D41E0BE016A5F7F4FCE01019618
:101900000E9483052E858823B1F03091B1032223F4
:1019100049F0A40101C0440FFA94EAF7432B409325
:10192000B10309C0C40101C0880FFA94EAF7809599
:1019300083238093B103F1E0F0930203222391F11A
:1019400015C0222349F0940101C0220FFA94EAF74E
:10195000822B8093B1030AC0940101C0220FFA9434
:10196000EAF7209582238093B1031CC0F80180819F
:1019700083FF04C08E2D0E94A50B03C08E2D0E94F4
:101980000B03F801808187FF18C0F50180819181E8
:10199000A281B3810196A11DB11D80839183A28391
:1019A000B3830BC0F801808182FF04C08E2D0E949A
:1019B000A50B03C08E2D0E940B03FFEFCF1ADF0A89
:1019C00084E0A80EB11C0F5F1F4F97E0C916D10429
:1019D00009F049CF1092080180E02E960FB6F894D6
:1019E000DEBF0FBECDBFDF91CF911F910F91FF9052
:1019F000EF90DF90CF90BF90AF909F908F907F90AF
:101A00006F905F904F903F902F9008951F920F928C
:101A10000FB60F9211242F933F934F935F936F93C1
:101A20007F938F939F93AF93BF93CF93EF93FF9346
:101A3000F89462E070E080E090E00E94AB17789448
:101A400083B78E7F83BFC09105011092050180E0AE
:101A50000E94FF0B81E080930803C09305018093EF
:101A60000103FF91EF91CF91BF91AF919F918F9122
:101A70007F916F915F914F913F912F910F900FBE8A
:101A80000F901F9018951F920F920FB60F9211246E
:101A90002F933F934F935F936F937F938F939F9376
:101AA000AF93BF93CF93EF93FF93F89462E070E00E
:101AB00080E090E00E94AB17789483B78E7F83BF5D
:101AC000C09105011092050180E00E94FF0B81E0AA
:101AD00080930803C093050180930103FF91EF9168
:101AE000CF91BF91AF919F918F917F916F915F91B6
:101AF0004F913F912F910F900FBE0F901F9018950F
:101B00001F920F920FB60F9211242F933F934F9372
:101B10005F936F937F938F939F93AF93BF93CF9375
:101B2000EF93FF93F89462E070E080E090E00E9411
:101B3000AB17789483B78E7F83BFC0910501109255
:101B4000050180E00E94FF0B81E080930803C093B1
:101B5000050180930103FF91EF91CF91BF91AF9168
:101B60009F918F917F916F915F914F913F912F91B5
:101B70000F900FBE0F901F90189585ED8093BC00BD
:101B80008091BC0084FDFCCF109290040895409198
:101B90001A04262F30E0240F311D21323105DCF4E8
:101BA000209190042430C9F4FC0180E090E0861775
:101BB00058F430911A042191DC01A850BC4FA30FB6
:101BC000B11D2C930196F3CF80911A04680F609396
:101BD0001A0480E0089581E0089582E00895089550
:101BE000E091490480914804E81730F4F0E0E65BA6
:101BF000FB4F808190E008958FEF9FEF08959091C3
:101C0000490480914804981750F4E92FF0E0E65B0E
:101C1000FB4F208130E09F5F9093490402C02FEF7B
:101C20003FEFC90108958091480490E02091490454
:101C3000821B91090895CF92DF92EF92FF920F934A
:101C40001F93CF93DF937C01262F972F8A018091DA
:101C50009104882391F0C62FD72F6E01C40ED51E94
:101C6000CC15DD0571F06991D701ED91FC910190E2
:101C7000F081E02DC7010995F3CF642F822F0E94D8
:101C8000C70DC801DF91CF911F910F91FF90EF9089
:101C9000DF90CF900895CF93DF931F92CDB7DEB73B
:101CA0006983209191042223D1F02091B404203241
:101CB00040F021E030E0FC013383228380E090E0BB
:101CC00015C080919204E82FF0E0ED56FB4F99810A
:101CD00090838F5F809392048093B40405C061E089
:101CE000CE0101960E94C70D81E090E00F90DF9138
:101CF000CF9108950895F8942091D605233021F4CA
:101D00002091F60321110FC02091D605233011F444
:101D1000789407C0DC01ED91FC910288F389E02DF5
:101D2000099580E00895DC01ED91FC910488F58926
:101D3000E02D61E0099581E0089581E08093E4025F
:101D40008091E2029091E302DC01ED91FC91048428
:101D5000F585E02D09951092E4020895CF93DF9365
:101D6000EC0161E08A810E943F1789858CBD8A85DC
:101D70008DBD8091E402811101C07894DF91CF91F3
:101D80000895FC01F8948CB581878DB582878CB558
:101D9000837F8CBD8CB58F7D8CBD8CB58C7F8CBDCD
:101DA0008DB58E7F8DBD60E082810C943F171F92B0
:101DB0000F920FB60F9211242F933F934F935F937F
:101DC0006F937F938F939F93AF93BF93EF93FF9303
:101DD0008091B900887F803609F49CC068F588320C
:101DE00009F45BC090F4803109F454C038F48823BE
:101DF00009F4F6C0883009F44DC0F6C0883109F402
:101E00004CC0803209F45DC0EFC0803409F468C072
:101E100048F4803309F455C0883309F0E5C0809355
:101E20008E04D8C0803509F44FC0883509F45DC0F0
:101E3000883409F0D9C0D6C0883909F4C7C0A8F4DD
:101E4000883709F467C038F4883609F463C08037EE
:101E500009F460C0C9C0883809F4B8C0803909F4F1
:101E60005FC0803809F0C0C05BC0803B09F486C009
:101E700038F4803A09F466C0883A09F47FC0B4C0E7
:101E8000803C09F4A7C0883C09F4A4C0883B09F44D
:101E90008AC0AAC080916B0410C090918D0480917B
:101EA0008C04981770F5E0918D0481E08E0F80937B
:101EB0008D04F0E0E459FB4F80818093BB0085ECFA
:101EC00086C080938E048EC0E0918D0481E08E0FD9
:101ED00080938D048091BB00F0E0E459FB4F808338
:101EE00090918D0480918C046EC0E0918D0481E00E
:101EF0008E0F80938D048091BB00F0E0E459FB4F7E
:101F0000808380918F0481116DC081E080936A0489
:101F100084EA61C083E08093900410923E04CFCFA6
:101F200080913E04803208F051C0E0913E0481E08F
:101F30008E0F80933E048091BB00F0E0E25EFB4F89
:101F40008083BDCF85EC8093BC001092900480917B
:101F50003E04803230F4E0913E04F0E0E25EFB4F5C
:101F6000108260913E0470E0E0911C04F0911D0429
:101F70008EE194E0099510923E0436C084E080938F
:101F8000900410921B0410921A04E0911804F0912E
:101F90001904099580911A04811105C081E080938C
:101FA0001A041092F803E0911B0481E08E0F8093D5
:101FB0001B04F0E0E850FC4F80818093BB009091BF
:101FC0001B0480911A04981708F479CF85E8809350
:101FD000BC000AC085EC8093BC001092900404C041
:101FE00010928E040E94BD0DFF91EF91BF91AF91B1
:101FF0009F918F917F916F915F914F913F912F9121
:102000000F900FBE0F901F9018951092900481E0D2
:1020100080938F0410926A0461E082E10E943F176E
:1020200061E083E10E943F17E9EBF0E080818E7F61
:10203000808380818D7F808388E48093B80085E4ED
:102040008093BC00089508958CBD9DBD0895FC014A
:1020500090810180F281E02DF8948181892B818328
:102060002281892F809528232283A7E0B0E0119751
:10207000F1F7218182238183A3E2B0E01197F1F788
:1020800080817894EFECF0E03197F1F7982381E0CC
:1020900009F480E00895FC0190810180F281E02D37
:1020A000892F809560FF12C0F89422818223828359
:1020B0008181892B8183A3E2B0E01197F1F78281BE
:1020C000982B9283789487ED90E011C0F894228148
:1020D000822382838181892B8183AFEFB0E01197C6
:1020E000F1F78281982B928378948FE090E00197AA
:1020F000F1F70895FC0190810180F281E02DF894C0
:102100008181292F20958223818378948DE743E074
:1021100050E0815021F1DA011197F1F73081392334
:10212000C1F3F8948281822382838181892B818308
:102130007894ABE7B7E01197F1F7F8948181282301
:102140002183A3E1B1E01197F1F78081982381E029
:1021500009F080E07894E3E6F6E03197F1F708952E
:10216000CF93CFB7F8948091F703811127C0E0EAAD
:10217000F5E08491E4EBF5E09491E82FF0E0EE0FC8
:10218000FF1FEC59FB4FA591B491EC91E92321F489
:1021900061E08AE00E943F1761E08AE00E946F17C9
:1021A0008CB580618CBD8CB580648CBD61E08DE0A8
:1021B0000E946F1761E08BE00E946F178091F70318
:1021C0008F5F8093F703CFBFCF9108950F931F9335
:1021D000CF93DF9300D0CDB7DEB78C01DC01ED915A
:1021E000FC91008CF18DE02D4A836983099569810A
:1021F000862F80680E94CD044A81842F0E94CD04DE
:10220000D801ED91FC91028CF38DE02DC8010F9067
:102210000F90DF91CF911F910F9109941F93CF934E
:10222000DF93EC01162F611102C045E501C04DE5B9
:102230006AE5CE010E94E610111102C040E701C01C
:102240004CE76CE5CE01DF91CF911F910C94E61025
:10225000EF92FF921F93CF93DF931F92CDB7DEB71C
:102260007C01DC01ED91FC91008CF18DE02D698306
:1022700009956981862F8F770E94CD0480E00E94A6
:10228000CD04182FD701ED91FC91028CF38DE02D38
:10229000C7010995812F0F90DF91CF911F91FF907A
:1022A000EF900895CF93DF93EC016887611102C02E
:1022B0004AE101C04FE063E1CE010E94E61088854B
:1022C000882341F061E1CE010E9428118F71482FCF
:1022D000406602C04F81406861E1CE01DF91CF913D
:1022E0000C94E610CF93DF93EC011092F50310925B
:1022F000F4031092F3031092F6031092F20310927B
:10230000F1031092F0031092EF0368E20E9428118B
:1023100082FF0AC06DE3CE010E942811482F44605D
:102320006DE3CE010E94E61040E465E2CE010E941A
:10233000E610E881F9810488F589E02D63E0CE019B
:10234000DF91CF910994EF92FF921F93CF93DF9388
:10235000EC018091D605833001F568E2CE010E9440
:10236000281182FD2EC019C08091F5038D3330F401
:10237000E091F503F0E0EE54FC4F1082E881F98122
:10238000028CF38DE02DCE010995E881F981048856
:10239000F589E02D63E0CE01099564E2CE010E944B
:1023A000281190E091958195910995958795909345
:1023B000F0038093EF03DF91CF911F91FF90EF9097
:1023C0000895E881F9810488F589E02D61E0CE0166
:1023D0000995E881F981008CF18DE02DCE010995F8
:1023E00080E00E94CD0480E00E94CD048093F6033B
:1023F0008091F6038334D0F48091F6038093F60342
:1024000080E00E94CD048093F3038E81811109C086
:102410009091F3038D81981721F08091F3038F3F02
:1024200039F48091F603833018F017C082E4E6CFC8
:102430001092F603E881F981028CF38DE02DCE0134
:102440000995E881F9810288F389E02DCE01DF91B9
:10245000CF911F91FF90EF9009948091F6038350E4
:102460008093F50380E00E94CD048093F40380E024
:102470000E94CD04982F90789093F103982F907438
:102480009093F203E881F9810684F785E02D682FA7
:10249000CE01099510E08091F503181708F064CF7C
:1024A000E12EF12C80E00E94CD04F701EE54FC4FA8
:1024B00080831F5FF0CFCF92DF92EF92FF920F9356
:1024C0001F93CF93DF93EC01F62ED42EC52E122F3F
:1024D000E881F9810488F589E02D61E0099567E2DA
:1024E000CE010E94281187FFFACF40E065E2CE01BD
:1024F0000E94E6101E3308F01DE3E11004C0002323
:1025000021F000E403C000E801C000E0E881F981A7
:10251000008CF18DE02DCE01099580E80E94CD045C
:1025200083E0810F0E94CD048F2D0E94CD048D8108
:102530000E94CD04802F0E94CD040D2DED2CFC2C8B
:102540008E2D801B811730F4F70181917F010E944D
:10255000CD04F6CFE881F981028CF38DE02DCE0118
:102560000995E881F9810488F589E02D64E0CE01C0
:1025700009950E944F186B017C018B810E941617F0
:10258000892B81F0E881F9810488F589E02D61E0EB
:10259000CE01DF91CF911F910F91FF90EF90DF90CF
:1025A000CF9009940E944F18DC01CB018C199D0932
:1025B000AE09BF09883E9340A105B105F0F2E2CF14
:1025C0004F925F926F927F92AF92BF92CF92DF92C3
:1025D000EF92FF920F931F93CF93DF93EC015B0178
:1025E000F42E1092F2031091F403C090EF03D090F8
:1025F000F0036DE30E942811482F44606DE3CE0183
:102600000E94E6100E944F182B013C01CE010E944F
:102610005B04882311F11093F403E881F9810088A9
:10262000F189E02DEE24E39400E02F2DA501612F28
:10263000CE010995D092F003C092EF03DF91CF91C4
:102640001F910F91FF90EF90DF90CF90BF90AF90D0
:102650007F906F905F904F9008950E944F18DC011B
:10266000CB0184199509A609B709883E9340A105B5
:10267000B10588F6E881F9810480F581E02DCE016D
:102680000995C4CFCF92DF92EF92FF920F931F93E1
:10269000CF93DF936C017A018B01C0E0D0E0CE15BF
:1026A000DF0589F0D8016D918D01D601ED91FC9186
:1026B0000190F081E02DC6010995892B11F47E016E
:1026C00002C02196ECCFC701DF91CF911F910F91EE
:1026D000FF90EF90DF90CF900895FC01538D448DD3
:1026E000252F30E0842F90E0821B930B541710F0BD
:1026F000CF96089501970895FC01918D828D9817CA
:1027000061F0828DDF01A80FB11D5D968C91928DD5
:102710009F5F9F73928F90E008958FEF9FEF0895D2
:10272000FC01918D828D981731F0828DE80FF11D9B
:10273000858D90E008958FEF9FEF0895FC01918DB6
:10274000228D892F90E0805C9F4F821B91098F73AF
:102750009927089585EB94E00E949E1321E0892B30
:1027600009F420E0822F0895FC01848DDF01A80F79
:10277000B11DA35ABF4F2C91848D90E001968F73A9
:102780009927848FA689B7892C93A089B1898C91C8
:1027900080648C93938D848D981306C00288F3898E
:1027A000E02D80818F7D80830895EF92FF920F93BB
:1027B0001F93CF93DF93EC0181E0888F9B8D8C8DED
:1027C000981305C0E889F989808185FD24C0F62E1B
:1027D0000B8D10E00F5F1F4F0F731127E02E8C8DB4
:1027E000E8120CC00FB607FCFACFE889F98980819E
:1027F00085FFF5CFCE010E94B413F1CF8B8DFE0182
:10280000E80FF11DE35AFF4FF0820B8FEA89FB8935
:102810008081806207C0EE89FF896083E889F98939
:1028200080818064808381E090E0DF91CF911F916F
:102830000F91FF90EF900895CF93DF93EC01888D77
:102840008823C9F0EA89FB89808185FD05C0A889B4
:10285000B9898C9186FD0FC00FB607FCF5CF80813A
:1028600085FFF2CFA889B9898C9185FFEDCFCE0184
:102870000E94B413E7CFDF91CF91089580E090E0FC
:10288000892B29F00E94AA1381110C94000008954D
:10289000833081F028F4813099F08230A1F00895DE
:1028A0008730A9F08830B9F08430D1F4809180006D
:1028B0008F7D03C0809180008F7780938000089582
:1028C00084B58F7702C084B58F7D84BD08958091D3
:1028D000B0008F7703C08091B0008F7D8093B000EF
:1028E00008953FB7F8948091440490914504A091D5
:1028F0004604B091470426B5A89B05C02F3F19F0A8
:102900000196A11DB11D3FBFBA2FA92F982F88276F
:10291000820F911DA11DB11DBC01CD0142E0660FCA
:10292000771F881F991F4A95D1F70895089580E071
:102930000895DC011A96ED91FC911B9720E030E0A0
:102940000994DC011696ED91FC91179720E030E098
:1029500040E069E10994DC011696ED91FC9117972E
:1029600020E030E040E068E109949A01DC0116962D
:10297000ED91FC911797462F67E10994EF92FF9232
:102980000F931F93CF93DF931F92CDB7DEB77C01D8
:102990008B01D8016C916731E1F078F46531A0F1D9
:1029A000F80141814983D7011696ED91FC91179763
:1029B00020E030E0C701099524C06A31A8F06E3FDD
:1029C00019F5F8014181498369E2C7010E94991410
:1029D00018C0F80181818983AE014F5F5F4F61E0CC
:1029E000C7010E94B5140DC00F5F1F4FD701169687
:1029F000ED91FC91179720E030E040E0C701099588
:102A0000C8CF0E5F1F4FC5CF0F90DF91CF911F91A1
:102A10000F91FF90EF900895462FDC011696ED91EF
:102A2000FC91179720E030E066E10994462FDC0125
:102A30001696ED91FC91179720E030E065E109943E
:102A4000EF92FF920F931F93CF93DF93EC01142F1C
:102A500079016D30A9F118F46B3039F15FC06E3037
:102A600009F441C06F3009F059C00E94AB14F7015E
:102A700083810889F8E08F9F000D112460E4CE0166
:102A80000E941615602F62956F706061CE010E94E2
:102A90001615602F6F70CE010E940C15F70164812E
:102AA000606BCE010E940C1529C0411103C065E383
:102AB00071E002C060E371E0CE010E94BE1471C0FB
:102AC000411108C069E271E00E94BE14E881F981F9
:102AD000828907C062E271E00E94BE14E881F98138
:102AE0008389888B5EC00E94AB1461E8CE010E948E
:102AF0001615612FCE010E940C150CC0F701408104
:102B000051816281660F660F660FCE010E94B51477
:102B10001150A1F7CE010E94A11443C0693031F4D5
:102B20008FE691E099838883188A3BC06A30B9F5B3
:102B3000EA85FB8520E030E040E068E2CE010995BF
:102B4000EE81FF8120E030E040E064E1CE010995B4
:102B500041E06BE4CE010E949914E881F98144813F
:102B600069E2CE010E94991440E06BE4CE010E941C
:102B70009914E881F981448169E2CE010E94991497
:102B800041E06BE4CE010E949914E881F98145810E
:102B900069E2CE010E9499146AE371E08DCF80E072
:102BA00001C081E0DF91CF911F910F91FF90EF90D5
:102BB0000895DC011896ED91FC91199720E030E022
:102BC00040E069E10994DC011896ED91FC911997B8
:102BD00020E030E040E068E10994662329F06A30A3
:102BE00019F0862F90E008958FEF9FEF08950E94CF
:102BF0006734CF93DF931F92CDB7DEB76983BE01F1
:102C00006F5F7F4F0E94761D0F90DF91CF910895E7
:102C1000EF92FF921F93CF93DF93EC01162F7A016F
:102C20000E94E31560E4CE010E94F915E885F9855C
:102C30009701412F67E1CE010995CE01DF91CF9138
:102C40001F91FF90EF900C94D915EF92FF921F9374
:102C5000CF93DF9300D0CDB7DEB77C01142F67315F
:102C600028F4653140F4643149F141C0673191F095
:102C70006A3170F03CC00E94E31560E0C7010E9419
:102C8000F915612FC7010E94F915C7010E94D915D6
:102C900081E02EC0A901193160F068E1C7012983E4
:102CA0003A830E940816185129813A81285E3F4FC5
:102CB000F1CF612FC7010E940816EACFDC015296BE
:102CC0008C9152978F3F19F488E752968C93D701D5
:102CD0001896ED91FC911997412F64E1C7010F906F
:102CE0000F90DF91CF911F91FF90EF90099480E0BA
:102CF0000F900F90DF91CF911F91FF90EF9008956B
:102D0000FC01962F6831F1F0B901993150F49431FA
:102D100069F0973189F550E082E595E00E941B0E3D
:102D20000FC0993131F1903259F026C01092490408
:102D300010924804109292041092B4040E9405105C
:102D400081E00895A081B1811D968C91843018F0A6
:102D50008CE08093B800828990E09595879591E00A
:102D6000909391048093B304109292041092B4044F
:102D7000E7CF0E94F21DE4CF80E008951F920F92EA
:102D80000FB60F9211242F933F934F935F936F933E
:102D90007F938F939F93AF93BF93EF93FF9385EBB5
:102DA00094E00E94B413FF91EF91BF91AF919F9176
:102DB0008F917F916F915F914F913F912F910F90E4
:102DC0000FBE0F901F9018951F920F920FB60F9283
:102DD00011242F938F939F93EF93FF93E091C5045A
:102DE000F091C6048081E091CB04F091CC0482FD87
:102DF00012C090818091CE048F5F8F732091CF0499
:102E0000821751F0E091CE04F0E0EB54FB4F958F28
:102E10008093CE0401C08081FF91EF919F918F91AB
:102E20002F910F900FBE0F901F901895CF93DF93A7
:102E3000282F30E0F901E858FB4F8491F901E6555D
:102E4000FA4FD491F901EA56FA4FC491CC2391F08C
:102E500081110E944814EC2FF0E0EE0FFF1FE457A1
:102E6000FA4FA591B491EC91ED2381E090E021F42B
:102E700080E002C080E090E0DF91CF9108951F9341
:102E8000CF93DF93282F30E0F901E858FB4F84916E
:102E9000F901E655FA4FD491F901EA56FA4FC49177
:102EA000CC23C9F0162F81110E944814EC2FF0E0BA
:102EB000EE0FFF1FE259FB4FA591B4918FB7F89425
:102EC000111105C09C91ED2FE095E92302C0EC9112
:102ED000ED2BEC938FBFDF91CF911F910895CF938E
:102EE000DF9390E0FC01E655FA4F2491FC01EA568D
:102EF000FA4F8491882361F190E0880F991FFC01BB
:102F0000EC59FB4FC591D491FC01E259FB4FA591BF
:102F1000B491611109C09FB7F894888120958223EC
:102F20008883EC912E230BC0623061F49FB7F89434
:102F30003881822F809583238883EC912E2B2C93CC
:102F40009FBF06C08FB7F894E8812E2B28838FBFD0
:102F5000DF91CF9108958F929F92AF92BF92CF92BF
:102F6000DF92EF92FF926B017C010E9471144B0182
:102F70005C01C114D104E104F104F1F00E94711468
:102F8000DC01CB0188199909AA09BB09883E934045
:102F9000A105B10570F321E0C21AD108E108F108DA
:102FA00088EE880E83E0981EA11CB11CC114D104C8
:102FB000E104F10419F7DDCFFF90EF90DF90CF909F
:102FC000BF90AF909F908F9008951F93CF93DF9302
:102FD000EC01962F642F9C3270F49A3208F058C09E
:102FE000983289F0993209F03EC070E080E090E0BC
:102FF0000E94AB174DC09D32B1F0A8F184EB890F50
:10300000823000F130C06B9610E089918F3F39F02B
:10301000103110F461E001C062E00E946F171F5F81
:10302000163199F735C0433018F082E090E002C0C5
:1030300085E090E0880F991F880F991F05970197E9
:10304000F1F726C09F73C90FD11D411107C061E080
:103050008B8D0E946F1760E08B8D10C062E08B8DAE
:103060000E946F1715C09034A8F09F73FE01E90FFE
:10307000F11D838D8F3F61F0903118F40E943F174E
:1030800007C00E94161721E0892B09F420E02E8B3F
:1030900081E001C080E0DF91CF911F9108952FB7AB
:1030A000F8946091400470914104809142049091A1
:1030B00043042FBF08951F920F920FB60F92112451
:1030C0002F933F938F939F93AF93BF93809140042F
:1030D00090914104A0914204B091430430913F0487
:1030E00023E0230F2D3720F40196A11DB11D05C04B
:1030F00026E8230F0296A11DB11D20933F04809363
:10310000400490934104A0934204B09343048091FF
:10311000440490914504A0914604B091470401965F
:10312000A11DB11D8093440490934504A0934604CF
:10313000B0934704BF91AF919F918F913F912F9191
:103140000F900FBE0F901F9018951F920F920FB601
:103150000F9211242F933F934F935F936F937F931D
:103160008F939F93AF93BF93EF93FF93E0910201EF
:10317000F09103010995FF91EF91BF91AF919F915C
:103180008F917F916F915F914F913F912F910F9010
:103190000FBE0F901F9018951F920F920FB60F92AF
:1031A00011242F933F934F935F936F937F938F934C
:1031B0009F93AF93BF93EF93FF93E0910001F09142
:1031C00001010995FF91EF91BF91AF919F918F916F
:1031D0007F916F915F914F913F912F910F900FBE13
:1031E0000F901F901895462FDC011496ED91FC91DD
:1031F000159720E030E06BE00994CF93DF93DC017A
:103200001C96ED91FC911D9784913196E49168177D
:1032100020F1E61710F170E0681B710983E0660F7A
:10322000771F8A95E1F7CB010296EA01665F7F4F2F
:103230001C96ED91FC911D97E80FF91FE491E9931D
:10324000019686179707A1F751968C91882399F0DC
:10325000FA019A01285F3F4F08C0FA01CA01089697
:103260001192E817F907E1F7EFCF808180958193FC
:10327000E217F307D1F7DF91CF910895AF92BF9294
:10328000CF92DF92EF92FF920F931F93CF93DF9332
:10329000CDB7DEB72D970FB6F894DEBF0FBECDBF0A
:1032A000FC01F6A86A3021F4F394F6AA15AA23C00B
:1032B0008C01E5A86C0184E0C80ED11CDE011196DA
:1032C0005D01AD01C6010E94FD18EC86FD8681E01E
:1032D0008B87BA86A986D8011896ED91FC9119972B
:1032E0009E01275F3F4F41E06FE0C6010995F8015D
:1032F00085A98F5F85AB81E090E02D960FB6F8949D
:10330000DEBF0FBECDBFDF91CF911F910F91FF9018
:10331000EF90DF90CF90BF90AF900895AF92BF92A3
:10332000CF92DF92EF92FF920F931F93CF93DF9391
:10333000CDB7DEB72D970FB6F894DEBF0FBECDBF69
:10334000E82EA62E1092B8058A01F12CCE01019626
:103350006C01BB24B394F80161918F01E091A50544
:10336000F091A60583EA95E009958F3FFFEF9F074F
:10337000F1F08E3F2FEF920771F3A601682F83EAD9
:1033800095E00E94FD18EC86AD86BB86DA86C9867C
:10339000E091A705F091A8059E01275F3F4F41E00E
:1033A0006FE083EA95E00995E394F394D4CF8F2DF1
:1033B0002D960FB6F894DEBF0FBECDBFDF91CF9133
:1033C0001F910F91FF90EF90DF90CF90BF90AF9043
:1033D0000895CF93DF93C82F809167058F3F39F50C
:1033E00080915E0591E0909391048093B3041092D4
:1033F00092041092B4046C2F82E595E00E944B0E6B
:103400000E94F21D62E080915E050E94941E82E59A
:1034100095E00E94FF0DC82F82E595E00E94FF0D08
:1034200020E030E03C2FE901C82BD92B29C0809146
:103430006A058F3F21F482E591E00E94241060E04C
:10344000809167050E943F178C2F80680E94B11DF4
:1034500080E00E94B11DC82F80E00E94B11D2C2F7A
:1034600030E0322F2227E901C82B61E08091670507
:103470000E943F1780916A058F3F11F40E9423102C
:10348000CE01DF91CF9108950E94E91998278927ED
:1034900098270895CF9386E780935E05809167050E
:1034A0008F3F59F4109249041092480410929204EC
:1034B0001092B4040E9405101CC061E00E943F17E6
:1034C00061E0809167050E946F1780916A058F3FC8
:1034D00019F40E94B0100DC061E00E946F1761E006
:1034E000809168050E946F1760E0809169050E94D5
:1034F0006F1780ED0E94DF1E883519F0803609F0C5
:103500009DC088E80E94441A90936C0580936B05D7
:103510008AE80E94441A90936E0580936D058CE8AA
:103520000E94441A9093700580936F058EE80E9464
:10353000441A909372058093710580E90E94441AA1
:10354000909374058093730582E90E94441A9093C6
:1035500076058093750584E90E94441A9093780556
:103560008093770586E90E94441A90937A058093A8
:10357000790588E90E94441A90937C0580937B0525
:103580008AE90E94441A90937E0580937D058CE918
:103590000E94441A9093800580937F058EE90E94D3
:1035A000441A909382058093810581EA0E94DF1E70
:1035B0008093830581EE0E94441A90938505809341
:1035C000840583EE0E94DF1E8093860584EE0E94B0
:1035D000DF1EC82F85EE0E94DF1E282F2F7030E1DE
:1035E000C39FC0011124822B909388058093870587
:1035F00086EE0E94DF1EC82F85EE0E94DF1E90E03F
:1036000024E0959587952A95E1F740E1C49F9001C4
:103610001124822B932B90938A058093890587EE42
:103620000E94DF1E80938B0565E082EF0E944F1E93
:1036300067EB84EF0E944F1E81E001C080E0CF91D4
:1036400008952DEE35E13093A6052093A5050C9441
:103650008E19EF92FF920F931F93CF93DF93EC019C
:1036600061E087ED95E00E94F2032097C1F087EDBD
:1036700095E00E94C10E8EEB0E94CD048E017E016A
:1036800080E1E80EF11CF80181918F010E94CD04C8
:103690000E151F05C1F787ED95E00E94AE0E6DE394
:1036A00087ED95E00E9428118E7F41E0CD2B09F433
:1036B00040E0482B6DE387ED95E0DF91CF911F91BE
:1036C0000F91FF90EF900C94E610CF92DF92EF9263
:1036D000FF92CF93C82F809167058F3F09F040C0BC
:1036E00080915E0591E0909391048093B3041092D1
:1036F00092041092B4046C2F82E595E00E944B0E68
:103700000E94F21D63E080915E050E94941E82E596
:1037100095E00E94FF0D6C01990FEE08FF08FE2C4A
:10372000ED2CDC2CCC2482E595E00E94FF0DAC0151
:10373000990F660B770BC42AD52AE62AF72AFE2CA6
:10374000ED2CDC2CCC2482E595E00E94FF0DAC0131
:10375000990F660B770BC42AD52AE62AF72A33C0BD
:1037600080916A058F3F21F482E591E00E94241048
:1037700060E0809167050E943F178C2F80680E944F
:10378000B11D80E00E94B11DC82ED12CE12CF12C7E
:10379000FE2CED2CDC2CCC2480E00E94B11DC82A2C
:1037A000FE2CED2CDC2CCC2480E00E94B11DC82A1C
:1037B00061E0809167050E943F1780916A058F3F05
:1037C00011F40E942310C701B601CF91FF90EF9032
:1037D000DF90CF9008958F929F92AF92BF92CF9239
:1037E000DF92EF92FF928AEF0E94651BEEE5F5E013
:1037F000458556854A01A12CB12CC72ED82EE92E1D
:10380000FF24E7FCFA94C818D908EA08FB08DC0191
:10381000CB0137E0B595A795979587953A95D1F760
:10382000B501A401440F551F661F771F4C015D01B0
:10383000841A950AA60AB70AA5019401A785B0893A
:103840000E948F324B015C013BE0B594A7949794A2
:1038500087943A95D1F7A7019601C701B6010E9456
:1038600041329B01AC016CE0559547953795279502
:103870006A95D1F7A189B2890E948F32DC01CB0110
:103880007EE0B595A795979587957A95D1F7A5018F
:103890009401280F391F4A1F5B1F258336834783F6
:1038A0005087A5E0B0E00E948432DC01CB01805853
:1038B0009F4FAF4FBF4F692F7A2F8B2F992787FDCF
:1038C0009A950E94D63020E030E048EC52E40E9405
:1038D0002D30FF90EF90DF90CF90BF90AF909F90F2
:1038E0008F900895EF92FF920F931F93CF93DF93E2
:1038F000EC01E62E08E010E0FF24F39461E08F2D48
:103900008E2109F460E0CE010E944B10FF0C0150A3
:103910001109A1F7F894E981FA8191818881809554
:1039200089238183E981FA81928188818095892325
:1039300082837894DF91CF911F910F91FF90EF9048
:1039400008956F927F929F92AF92BF92CF92DF9233
:10395000EF92FF920F931F93CF93DF931F92CDB7F8
:10396000DEB78C01D62EE0919105F0919205138679
:1039700015861486DF011B9633961E92AE17BF077D
:10398000E1F7C12CBB24B39460909105709092052F
:10399000F3018585811169C0C3010E947A108111EC
:1039A0000AC0D3011B961C921B971D961C921D9753
:1039B0001C961C9275C060EFC3010E94721CEE241D
:1039C000E394A12C912CFF24F394C3010E942710AF
:1039D000682FC30169830E9427106981613019F43F
:1039E0008130C9F436C02A2D30E068131DC0F301C0
:1039F0008385F81630F4E20FF31F83818E2159F48A
:103A000002C0F81641F060E0F8E0FF1560F0D30165
:103A10001C96FC9208C0F301EA0DF11D83818E29EA
:103A2000838361E009C09F2CF301E20FF31F9381B0
:103A30008E2D809589238383C3010E944B10F394BC
:103A4000EE0C19F4A394EE24E394B7E0BA1508F051
:103A5000BCCFE0E4EF1548F4D3011B969C921B9772
:103A6000911008C01D96BC9205C0F30113861586FF
:103A7000148616C0F30183818823B9F33396A80115
:103A80008BE0680E711CC8012191DC012D93CD01E2
:103A9000E615F705C9F706C0C394DC1408F074CF27
:103AA00080E015C0CD10F8CF88E0E0E0815049F00B
:103AB000DA019D91AD01E927F0E0E457FB4FE49175
:103AC000F5CFD80117968C91E813E6CF81E00F90DF
:103AD000DF91CF911F910F91FF90EF90DF90CF90EA
:103AE000BF90AF909F907F906F9008959B01DC01F5
:103AF0001896ED91FC91199741E067E109941F93A5
:103B0000CF93DF9300D000D01F92CDB7DEB71C82D9
:103B100021E02B839A838983E091A305F091A4058A
:103B200011891D82A091A305B091A405E091A7057C
:103B3000F091A8059E012F5F3F4F50964C916FE08A
:103B400083EA95E009958D818F5F8D83811750F30E
:103B50000F900F900F900F900F90DF91CF911F91CA
:103B60000895EF92FF920F931F93CF93DF9390915D
:103B70006A059F3F41F4DF91CF911F910F91FF9014
:103B8000EF900C94CD04D82F07E010E0C0E0EE24B5
:103B9000E394F12CCC0F60E080916A050E943F17FE
:103BA000B701002E01C0660F0A94EAF76D238091D9
:103BB00068050E943F1761E080916A050E943F17E7
:103BC000809169050E941617892B09F0C160015088
:103BD000110900F78C2FDF91CF911F910F91FF906A
:103BE000EF9008952091B4049091B304213208F02D
:103BF0004AC0809190048111FCCF32E03093900450
:103C000031E030938F043FEF30938E0410928D0497
:103C100020938C04A3E9B4E04CE654E0FA013E2F73
:103C2000341B321718F43D913193F9CF10926B0485
:103C300020916B04990F922B90936B0490916A04DE
:103C4000913061F410926A0490916B049093BB00E0
:103C50009091BC0093FDF8CF95EC01C095EE909348
:103C6000BC00909190049230E1F390918E049F3FBC
:103C700079F080918E04803241F080918E048033FF
:103C800031F084E005C081E003C082E001C083E040
:103C9000109292041092B404109291040895CF935C
:103CA000DF93D82FC62F809167058F3FC9F480918D
:103CB0005E0591E0909391048093B3041092920476
:103CC0001092B4046D2F82E595E00E944B0E6C2F8C
:103CD00082E595E00E944B0EDF91CF910C94F21D8E
:103CE00080916A058F3F21F482E591E00E942410C3
:103CF00060E0809167050E943F178D2F8F770E94AB
:103D0000B11D8C2F0E94B11D61E0809167050E945A
:103D10003F1780916A058F3F21F4DF91CF910C947A
:103D20002310DF91CF910895909190049111FCCFD1
:103D3000613208F060E291E09093900490938F04D8
:103D40002FEF20938E0410928D04260F20938C0465
:103D500090936B0490916B04880F892B80936B0474
:103D600080916A04813061F410926A0480916B043E
:103D70008093BB008091BC0083FDF8CF85EC01C02F
:103D800085EE8093BC00809190048130E1F38091B6
:103D90008D04861710F460918D04ACE6B4E02AE43B
:103DA00034E0F9018E2F821B861718F48D918193D0
:103DB000F9CF1092490460934804862F0895CF9359
:103DC000C82F809167058F3FE9F480915E0591E0EF
:103DD000909391048093B304109292041092B404CF
:103DE0006C2F82E595E00E944B0E0E94F21D61E06F
:103DF00080915E050E94941E82E595E00E94FF0D71
:103E0000C82F20C080916A058F3F21F482E591E0A0
:103E10000E94241060E0809167050E943F178C2F5C
:103E200080680E94B11D80E00E94B11DC82F61E032
:103E3000809167050E943F1780916A058F3F11F4BA
:103E40000E9423108C2FCF910895CF93DF93CDB78D
:103E5000DEB7CC56D1090FB6F894DEBF0FBECDBF8A
:103E6000789484B5826084BD84B5816084BD85B555
:103E7000826085BD85B5816085BD80916E00816061
:103E800080936E0010928100809181008260809307
:103E90008100809181008160809381008091800009
:103EA0008160809380008091B10084608093B10034
:103EB0008091B00081608093B00080917A0084602E
:103EC00080937A0080917A00826080937A0080915A
:103ED0007A00816080937A0080917A008068809374
:103EE0007A001092C1000E949B0B80E090E00E943B
:103EF00008308F3F31F400E010E04CE1F42EF00E7A
:103F000016C08FE190E00E9408308F3AA1F762E07E
:103F10008FE00E946F1761E070E080E090E00E9407
:103F2000AB178FE00E941617892B29F333C060E08E
:103F3000C8010E941A300F5F1F4FF012F8CF6FEFC9
:103F40008AE190E00E941A306EEF8BE190E00E94CF
:103F50001A3061E08CE190E00E941A3061E08DE15E
:103F600090E00E941A3062E08EE190E00E941A30E8
:103F70006FEA8FE190E00E941A3060E080E290E00A
:103F80000E941A3041E150E061E270E087ED91E07B
:103F90000E94103020E0C22E20E0D22E09E013E073
:103FA000F02E31E2E32EE00EC6010E940830D80167
:103FB0008D938D01BFEFCB1ADB0AE012F5CFE5EE52
:103FC000F2E0119211921192119223E0E130F20786
:103FD000C1F74091270320E137E2429FC001439F90
:103FE000900D1124092E000CAA0BBB0B80933703F4
:103FF00090933803A0933903B0933A03409121037F
:1040000028E833E1429FC001439F900D1124092EFF
:10401000000CAA0BBB0B80932F0390933003A0934B
:104020003103B093320340912003429FC001439F6C
:10403000900D1124AC01092E000C660B770B4093F8
:104040002A0350932B0360932C0370932D03892B29
:1040500019F01092030303C081E08093030361E031
:1040600085E00E946F1761E086E00E946F1761E0B3
:1040700087E00E946F1761E082E00E946F1761E0A5
:1040800087E00E943F1761E082E00E943F1765E0F1
:1040900070E080E090E00E94AB1760E082E00E9458
:1040A0003F176AE070E080E090E00E94AB1740911B
:1040B0002503009124039EE2DE0111966D01FD01AE
:1040C000292F11922A95E9F781E0898384E08A8378
:1040D00032E03B8323E02D833E838F8380E4888717
:1040E00035E039872A8726E02B8723E32C8737E0C2
:1040F0003D8728E02F8729E0298B29E12B8B22E4BB
:104100002C8B55E25D8B8E8B56E25F8B388F38E2BD
:10411000398F30E13A8F39E23B8F3CED3C8F9D8FF8
:1041200098E89E8F9FE29F8F9DE298A390E399A3CA
:1041300037E33BA330E93CA338E33DA32EA32CE3B4
:104140002FA32FE828A72DE329A722E12AA72FE6EE
:104150002BA79CA79FEF9DA79CE69E87888B4AA3D1
:1041600061E08091D9050E943F1761E08091D905F7
:104170000E946F170E94B0100E944F184B015C0103
:104180004AEA6FE287ED95E00E94E6106FE287ED64
:1041900095E00E9428118A3A61F00E944F18DC01D4
:1041A000CB0188199909AA09BB09C297A105B105D4
:1041B00038F30E944F184B015C0145E56FE287ED33
:1041C00095E00E94E6106FE287ED95E00E942811CD
:1041D000853561F00E944F18DC01CB0188199909DF
:1041E000AA09BB09C297A105B10538F310E0F60191
:1041F000E10FF11DE10FF11D60816F3F39F0418149
:1042000087ED95E00E94E6101F5FF1CF80E090E01F
:104210000E94291B6091DF0587ED95E00E945211F5
:1042200061E087ED95E00E94F2030E944F184B0178
:104230005C0167E287ED95E00E94281187FD0CC0C4
:104240000E944F18DC01CB0188199909AA09BB0902
:10425000C297A105B10568F30E944F18DC01CB019C
:1042600088199909AA09BB09C297A105B10508F0E7
:1042700054C01092E4028091DB058230C8F4E82F2C
:10428000F0E0EE0FFF1FE050FF4F2DE93EE03183DD
:104290002083813039F080916900836080936900C8
:1042A000E89A06C0809169008C6080936900E99A61
:1042B00087ED95E09093E3028093E2020093DC05A2
:1042C00067E00E942811182F67E087ED95E00E94B3
:1042D000281121E0811101C020E091E01F3F09F485
:1042E00090E09223D1F06FE187ED95E00E94D80332
:1042F00041E150E061E270E0CE018F960E94F82F1C
:10430000CE018F960E94291B87ED95E00E947B0EBF
:10431000809113038823C9F023C015E060E087E093
:104320000E943F1764E670E080E090E00E94AB17C7
:1043300061E087E00E943F1764E670E080E090E073
:104340000E94AB17115051F7CECF80911403811109
:1043500007C080911503811103C08091160381115C
:104360001092040109E013E083E1A82E81E0B82E49
:1043700037E0F30ED501ED905D01BAE0EB1691F058
:10438000F8019081692F61708E2DAD969FAFAD972A
:104390000E946F17AD969FADAD97692F62708E2DFD
:1043A0000E943F17D8018D918D0182FF03C08E2D91
:1043B0000E94A50BF012DECF80911D0380FF04C088
:1043C00061E086E00E943F178091180381FF08C0DA
:1043D00060E080E00E946F1761E081E00E946F174B
:1043E00080911903887109F46CC0E091A705F091E0
:1043F000A80520E030E040E06AE083EA95E0099516
:1044000088E0F60111928A95E9F7C6010E947F1DA6
:1044100060E083EA95E00E94F31860E083EA95E0AB
:104420000E94F318E091A705F091A80520E030E084
:10443000409123036EE083EA95E0099582E691E0DE
:104440009093B0058093AF0586E0E9E0F1E0D601F6
:1044500001900D928A95E1F71F82188619861A86B7
:10446000809124034AE0BE01605C7F4F90E00E948F
:10447000242D43E050E0BE01605C7F4FC6010E94E6
:104480009034A60162E084E00E94211B68EE71E096
:10449000C6010E948934809125034AE0BE01605C18
:1044A0007F4F90E00E94242D43E050E0BE01605C0D
:1044B0007F4FC6010E949034A60163E084E00E9411
:1044C000211B80E290E00E9408308111CAC061E0A7
:1044D00080E290E00E941A3099E288E10FB6F894E9
:1044E000A895809360000FBE90936000F89421E03F
:1044F00030E080E80FB6F89480936100209361006B
:104500000FBE00916600F0908000E0908100B090B6
:104510008200A0906F009090B0008090B1007090E9
:1045200070006090B600109280001092810010928E
:10453000820010926F001092B0001092B1001092A1
:1045400070001092B60066E287ED95E00E94281197
:10455000582E45E066E287ED95E00E94E610109245
:10456000700083B5826883BD80E48093B60080913B
:10457000B60080628093B60081E08093B100109213
:10458000B00093B59F7793BDB89BFECF87E087BB04
:1045900081E08093810080E88093660011E021E84B
:1045A00037E0112311F1B89BFCCF23BD37BB8091BD
:1045B00084009091850010FD15C0AC014D5F534003
:1045C0004730510590F08115944010F00C94062B63
:1045D000909166009F5F9093660010928500109204
:1045E000840001C013BC1F5FDCCF7894452D66E2C8
:1045F00087ED95E00E94E610F0928000E092810045
:10460000B0928200A0926F009092B0008092B100B0
:10461000709270006092B60087E286BB87E087BB2D
:1046200013BC111115C00093660081E1E6E2F2E0CF
:10463000D60101900D928A95E1F703E2E02E05E0A4
:1046400021E1A6016091260387ED95E00E947103A8
:1046500060E080E290E00E941A300E949B0B11E023
:1046600014C088E1E7E3F2E0D60101900D928A954B
:10467000E1F713E2E12E05E028E1A60160912603AF
:1046800087ED95E00E94710310E08091190381FF8E
:1046900035C0E091C504F091C60482E08083E091CA
:1046A000C104F091C2041082E091C304F091C404EB
:1046B0008FEC80831092CD04E091C904F091CA047C
:1046C00086E08083E091C704F091C8048081806116
:1046D0008083E091C704F091C80480818860808362
:1046E000E091C704F091C804808180688083E091E4
:1046F000C704F091C80480818F7D80838091180366
:1047000082FF18C00E944A1A811114C089E1EFE4A7
:10471000F2E0D60101900D928A95E1F7B3E2EB2E1B
:1047200005E029E1A6016091260387ED95E00E944E
:10473000710310E060E080E290E00E941A301123E3
:1047400099F08DE0E8E6F2E0D60101900D928A95AD
:10475000E1F7A3E2EA2E05E02DE0A6016091260331
:1047600087ED95E00E94710360E087E00E943F17AB
:104770009E012F5F3F4F29963FAF2EAF2997285FAD
:10478000AC962FAFAC9710911D0313FF04C060E0EF
:1047900087E00E943F1711FF21C00E944F1800912F
:1047A0003F03109140032091410330914203DC010B
:1047B000CB01801B910BA20BB30B893B9B40A10546
:1047C000B10564F00E944F1860933F03709340035B
:1047D00080934103909342030E94E30461E080E0F0
:1047E0000E94F4040E944F1800913B0310913C0377
:1047F00020913D0330913E03DC01CB01801B910BE6
:10480000A20BB30BC0903703D0903803E09039036C
:10481000F0903A0320910701C816D906EA06FB0674
:1048200018F0222309F403C6222351F080911803C3
:1048300080FF06C068EE73E080E090E00E94AB1756
:104840000E944F1860933B0370933C0380933D0399
:1048500090933E0380911F03882319F081E00E940A
:104860003D078091180380FFEDC0F12C6E018FE2AF
:10487000C80ED11C08E0E02EEC0C80919005F816D3
:1048800008F0D7C084E494E7A0E0B0E024968CAFB1
:104890009DAFAEAFBFAF249727961DAE1EAE1FAE25
:1048A00027976F2DC6010E94A11C811105C060E0F1
:1048B00070E08EEF92EC9DC08091910590919205F1
:1048C0000E947A10811103C060E874EE81C00091EB
:1048D00091051091920565E5C8010E94721C560170
:1048E000D5016D915D01C8010E94721CEA10F8CFDC
:1048F0006EEB80919105909192050E94721C8E0141
:104900000F5F1F4F580128963FAC2897F9E03F0EE4
:104910006090910570909205F8E08F2E912C4424C0
:104920004394512CC3010E94271081115428440C38
:1049300021E0821A9108B1F7D5015D925D013A122A
:10494000E7CF80919105909192050E947A10813075
:1049500009F0BACFE0E0AC96BFADAC97B01749F024
:10496000D8018D918D01E827F0E0E457FB4FE491E9
:10497000F2CF8985E813A8CF6981E8E06E9FB00186
:1049800011248A81282F30E0322F2227330F330F52
:10499000330F262B372B8FA58031C9F4688570E043
:1049A0008F81AB01481B5109CA019695982F882722
:1049B000979587950E94513260517109207F53E08D
:1049C000220F331F5A95E1F7620F731F01C0B9011F
:1049D000613854EE75070CF46ACF072E000C880B73
:1049E000990B0E94D63020E030E040E05CE30E946A
:1049F000D4318E010F5F1F4F21E043E00E94DB2C7A
:104A00006F2D00E010E0C8010E94A11C43E050E0BF
:104A1000B801CE01805C9F4F0E94903440E0BE01FF
:104A20006F5F7F4FCE01805C9F4F0E948305F394A0
:104A300024CF811107C040E06EEE71E08EEF91E06F
:104A40000E9483058091180381FF07C041E064E064
:104A500072E08EE092E00E9483058091180382FF4D
:104A600008C40E94EB1B8E010F5F1F4F21E043E043
:104A70000E94DB2C40E0B80183E192E00E948305B4
:104A80000E94EB1B87EF0E94651BA8966CAF7DAF61
:104A90008EAF9FAFA8978091630590916405A09118
:104AA0006505B09166056C017D01FF0CCC08DC2C1E
:104AB00076019C01AD016C2D7C2D8C2D9C2D345FDD
:104AC0004140510961097109810991092A962FAF65
:104AD0002A972B963FAF2B972C964FAF2C972D965E
:104AE0005FAF2D972E966FAF2E972F967FAF2F9794
:104AF00060968FAF609761969FAF619759016A0189
:104B00007B018C010E9497326D962FAF6D976E9648
:104B10003FAF6E976F964FAF6F97A0965FAFA0971E
:104B2000A1966FAFA197A2967FAFA297A3968FAFE2
:104B3000A397A4969FAFA49790917B05A9969FAF4A
:104B4000A997A0917C056296AFAF6297B091790565
:104B5000AA96BFAFAA97E0917A056396EFAF6397E5
:104B6000F0917705AB96FFAFAB97209178056496EF
:104B70002FAF6497B0907405A09073051B2D110F93
:104B8000110BC12ED12EE12EF12E012F2A962FAD21
:104B90002A972B963FAD2B972C964FAD2C972D96A1
:104BA0005FAD2D972E966FAD2E972F967FAD2F97D9
:104BB00060968FAD609761969FAD61970E94973226
:104BC0000CE00E94C73319012A013B014C01B0904F
:104BD0007605A09075051B2D110F110BC12ED12E3E
:104BE000E12EF12E012F6D962FAD6D976E963FAD94
:104BF0006E976F964FAD6F97A0965FADA097A196F9
:104C00006FADA197A2967FADA297A3968FADA39704
:104C1000A4969FADA4970E94973208E00E94E033CB
:104C200051016201730184010E94FE3370588F4F5D
:104C30009F4F20907105309072055101C12CD12CED
:104C4000E12CF12C00E010E00E94973201E20E947A
:104C5000E03365962FAF659766963FAF6697679688
:104C60004FAF679768965FAF689769966FAF699720
:104C70006A967FAF6A976B968FAF6B976C969FAF74
:104C80006C97A0E00E94103409F4E3C1A996AFAC80
:104C9000A99762961FAD6297110F110B6296BFAC78
:104CA0006297C12ED12EE12EF12E012F6D962FADE0
:104CB0006D976E963FAD6E976F964FAD6F97A096BE
:104CC0005FADA097A1966FADA197A2967FADA29779
:104CD000A3968FADA397A4969FADA4970E949732F9
:104CE00019012A013B014C01AA96AFACAA97639621
:104CF0001FAD6397110F110B6396BFAC6397C12E65
:104D0000D12EE12EF12E012F2A962FAD2A972B9628
:104D10003FAD2B972C964FAD2C972D965FAD2D97D1
:104D20002E966FAD2E972F967FAD2F9760968FADF5
:104D3000609761969FAD61970E94973201E10E9452
:104D4000C73359016A017B018C019101A201B301B2
:104D5000C4010E94FE3319012A013B014C01A896AF
:104D60004CAD5DAD6EAD7FADA897E4E075956795F0
:104D700057954795EA95D1F780E090E0A0E1B0E043
:104D8000841B950BA60BB70B6C017D01FF0CCC08A7
:104D9000DC2C76019C01AD016C2D7C2D8C2D9C2D85
:104DA0000FE10E94C733B22FA32FF42FE52F2A96CD
:104DB0006FAF2A972B967FAF2B972C968FAF2C97A0
:104DC0002D969FAF2D97AB962FADAB9764969FAD69
:104DD0006497990F990B64963FAD6497492F592FAB
:104DE000692F792F892F03E20E94C73359016A0185
:104DF0007B018C019101A201B301C4010E94FE3329
:104E000059016A017B018C012B2F3A2F4F2F5E2F06
:104E10002A966FAD2A972B967FAD2B972C968FAD48
:104E20002C972D969FAD2D970E940734722E832EBE
:104E3000942EB52FA62FF72FE82F592E03E00E94AE
:104E4000C733A72CB82CC92CDB2EEA2EFF2E0E2F31
:104E5000152D0E94073459016A017B01682E192F14
:104E600003E00E94C733062D0E94073403E00E942E
:104E7000C733A72CB82CC92CDB2EEA2EFF2E0E2F01
:104E8000152D0E94073402E00E94C7330E2F0E94A6
:104E9000073401E00E94C7330E2F0E940734659645
:104EA000AFAC65976696BFAC66976796CFAC6797D1
:104EB0006896DFAC68976996EFAC69976A96FFAC25
:104EC0006A976B960FAD6B976C961FAD6C970E94AF
:104ED000F2322A962FAF2A972B963FAF2B972C961C
:104EE0004FAF2C972D965FAF2D972E966FAF2E97C5
:104EF0002F967FAF2F9760968FAF609761969FAF89
:104F000061970DE00E94E033322E432E542E652E21
:104F1000762E872E982E292E30918205209181059C
:104F2000932F990F990BA32CB42CC52CD62CE72CBE
:104F3000F82C092D122D492F592F692F792F892FE0
:104F40000E9497320E94973209E10E94E033590192
:104F50006A017B018C012A962FAD2A972B963FADD3
:104F60002B972C964FAD2C972D965FAD2D972E96A7
:104F70006FAD2E972F967FAD2F9760968FAD609770
:104F800061969FAD61970E94FE3319012A013B0192
:104F90004C013091800520917F05932F990F990B3B
:104FA0002A96AFAC2A972B96BFAC2B972C96CFACFA
:104FB0002C972D96DFAC2D972E96EFAC2E972F9633
:104FC000FFAC2F9760960FAD609761961FAD61970C
:104FD000492F592F692F792F892F0E94973203E18A
:104FE0000E94E03359016A017B018C019101A20109
:104FF000B301C4010E94FE3308E00E94E03339018E
:105000004A01B62FA72FF82FE92F30917E05209166
:105010007D05932F990F990B492F592F692F792FC0
:10502000892F04E00E94C73359016A017B018C017A
:105030009301A4016B2F7A2F8F2F9E2F0E94FE3396
:105040000E94CE3020E030E040E85BE30E94D431A3
:1050500003C060E070E0CB0120E030E048EC52E4B7
:105060000E942D306B017C0120E030E0A9010E94FC
:105070002830811102C00E944A1A8E010F5F1F4F13
:1050800021E043E0C701B6010E94DB2C40E0B801FB
:1050900086E192E00E9483050E94EB1B8DEF0E9447
:1050A000E9198090630590906405A0906505B09023
:1050B00066053CE2931A31E0A30AB1086C01E12CC9
:1050C000F12CFEE0CC0CDD1CEE1CFF1CFA95D1F798
:1050D0004091870550918805052E000C660B770BD3
:1050E000A4E1440F551F661F771FAA95D1F7C41A74
:1050F000D50AE60AF70AA0918905B0918A05A501AB
:1051000094010E948F32C61AD70AE80AF90A40E4CD
:10511000D40EE11CF11CBFE0F594E794D794C7943A
:10512000BA95D1F7A0918B050A2E000CBB0BA501F7
:1051300094010E948F322B013C011AE07594679410
:10514000579447941A95D1F7A0918605B0E00E9434
:105150008432DC01CB010BE0B595A7959795879537
:105160000A95D1F7BC01CD0170588F4F9F4FA30115
:1051700092010E944132DC01CB012AE0B595A7954E
:10518000979587952A95D1F79C01AD01405E5F4FB9
:10519000A0918405B09185050E948F32DC01CB017E
:1051A000905EAF4FBF4FBC01CD013EE09595879516
:1051B000779567953A95D1F7A70196010E944132FC
:1051C0006B017C014FE095958795779567954A959A
:1051D000D1F79B01AC010E9441329B01AC0167E019
:1051E00055954795379527956A95D1F7A0918305F1
:1051F000B0E00E948432DC01CB0174E0B595A79544
:10520000979587957A95D1F7A7019601281B390BB9
:105210004A0B5B0BDA01C90157FF03C080E090E045
:10522000DC0181309105A10539E1B30724F080E06C
:1052300090E0A0E0B9E1BC01CD01ECE09595879547
:1052400077956795EA95D1F70E94D63020E030E057
:1052500040E85AE30E94D4318E010F5F1F4F21E0D6
:1052600043E00E94DB2C40E0B80189E192E00E941B
:10527000830573E1E72E73E0F72EC12CD12CD70103
:105280008C91882309F47BC021E439E640E050E0AA
:105290002FA738AB49AB5AAB1CAA1BAAF601ED5E8F
:1052A000FE4F12854AE0BE01605C7F4F812F90E087
:1052B0000E94242D42E050E0BE01605C7F4FCE0191
:1052C0008F960E9490341E3008F01E501770809107
:1052D000040130E4839FC0011124182B10937C003B
:1052E00080917A00806480937A0080917A0086FDB4
:1052F000FCCF009178008091790010E0182BD70145
:105300008C91982F9F7001F584FF1EC080E00E9451
:105310003D07BC0180E090E00E94D43020E030ECFA
:105320004FE754E40E942D304B015C01B80180E04E
:1053300090E00E94D4309B01AC01C501B4010E94F1
:10534000D4310E949F308B01F701808186FF02C01B
:10535000000F111F87FF04C0000F111F000F111F46
:105360004AE0BE016F5F7F4FC8010E94242D40E0DC
:10537000BE016F5F7F4FCE018F960E948305FFEFC6
:10538000CF1ADF0A2FEFE21AF20A34E0C316D10473
:1053900009F075CF35EEE32E32E0F32E49E0C42E4E
:1053A00043E0D42E00E010E0D6018D916D0187FF1F
:1053B0002CC023E63FE540E050E02FA738AB49ABD7
:1053C0005AAB1BAA4AE0BE01605C7F4FC8010E9435
:1053D000242D42E050E0BE01605C7F4FCE018F96ED
:1053E0000E949034D7016D917D918D919C912AE01E
:1053F000AE014F5F5F4F0E942F2D40E0BE016F5FF7
:105400007F4FCE018F960E9483050F5F1F4FB4E040
:10541000EB0EF11C0730110539F69091080381E07D
:1054200089270E94FF0B109208031092070180E069
:105430000E94FF0B0E944F1800912F031091300320
:105440002091310330913203C0903303D090340364
:10545000E0903503F0903603DC01CB018C199D09F7
:10546000AE09BF09081719072A073B0720F08091EA
:105470002E038823A9F0012B022B032B89F00E9415
:105480004F186093330370933403809335039093E4
:10549000360341E06CE172E083E292E00E94830512
:1054A00040E067EC72E0CB010E9483050E944F1838
:1054B0000091040310910503209106033091070326
:1054C000DC01CB01801B910BA20BB30B00912A03D3
:1054D00010912B0320912C0330912D0308171907ED
:1054E0002A073B0708F503E111E029E0E22E23E05B
:1054F000F22EF80127E0E20FDE2ED7018D917D011B
:1055000085FF0BC084FF04C061E0F801808103C007
:1055100060E0D8018C910E943F170F5F1F4FD0129F
:10552000ECCF81E0809303039091060180911F03EB
:1055300091110DC0882309F45EC090911E03992338
:1055400009F459C090910303992309F454C01092AF
:105550000601882309F45FC080911E03882309F4A3
:105560005AC081E1898380910501882369F093E223
:10557000E92E05E021E0AE014F5F5F4F6091260309
:1055800087ED95E00E94710300E010E00E94B807EB
:10559000882311F000E010E061E070E080E090E02E
:1055A0000E94AB170F5F1F4F033CB1E01B0770F366
:1055B00080911F03882389F180911E03882369F15C
:1055C00082E1898380910501882369F083E2E82ED6
:1055D00005E021E0AE014F5F5F4F6091260387ED4C
:1055E00095E00E94710361E080E00E94F4048091E4
:1055F0000303811114C080911D0383FF04C061E087
:1056000087E00E943F170E943E14BDC8909166003B
:1056100091500C94EB2283E1A5CF84E1D2CF40E0FE
:1056200067EC72E0CB010E94830510911D03012FEE
:10563000087013FF04C060E087E00E943F171092DB
:10564000020310920103002321F060E086E00E9433
:105650003F1712FD04C060E086E00E943F1760E043
:1056600087ED95E00E94F2038091180382FF08C045
:1056700084EF0E94DF1E682F6C7F84EF0E944F1E14
:1056800080911903887149F080911D0384FD05C044
:1056900061E083EA95E00E94F318F0907C0010929C
:1056A0007C00E0907A0010927A00D0906400109212
:1056B000640080911F038F3F21F480911E038F3F70
:1056C00059F021E688E190E00FB6F894A895809310
:1056D00060000FBE2093600000E010E080911F0387
:1056E00090911E03899FC00111240817190708F51E
:1056F00080911D038670863049F461E00E943F1757
:105700000E94E30460E086E00E943F1783B7817F38
:10571000846083BF83B7816083BF789483B78160DF
:1057200083BF889583B78E7F83BF809102038823D0
:10573000C1F00E949B0BD0926400F0927C00E0923A
:105740007A0081E0809305018091180382FF14C0E4
:1057500084EF0E94DF1E682F636084EF0E944F1E5B
:105760000BC080910103882321F0109201030150A6
:1057700011090F5F1F4FB2CF80911D0380FF04C03E
:1057800061E086E00E943F1780911903887129F03B
:1057900060E083EA95E00E94F31880911D0383FF87
:1057A00004C061E086E00E943F1781E0809307011A
:1057B00080932E0320CFCF931092B8041092B70499
:1057C00088EE93E0A0E0B0E08093B9049093BA042F
:1057D000A093BB04B093BC042BE831E03093B60433
:1057E0002093B50425EC30E03093C2042093C1042B
:1057F00024EC30E03093C4042093C30420EC30E068
:105800003093C6042093C50421EC30E03093C804E3
:105810002093C70422EC30E03093CA042093C904DB
:1058200026EC30E03093CC042093CB041092CE04CD
:105830001092CF041092D0041092D104109255050A
:10584000109254058093560590935705A0935805E0
:10585000B09359058DE991E09093530580935205DB
:105860008BEB91E09093D8058093D70588E08093E7
:10587000D90583E08093DA0581E08093DB0580938E
:10588000D6051092DD058FE18093DE051092DF05CD
:105890001092A2051092A1051092D4051092D50580
:1058A0008FEA91E09093A00580939F051092A40544
:1058B0001092A3051092B4051092B7051092B80586
:1058C0008FEF8093B5058093BA05EEEBF5E09FEF7F
:1058D00086E18E0FCFEF91938E13FCCF80E295E19E
:1058E0009093A8058093A70585E296E19093AA0579
:1058F0008093A90580E896E19093AC058093AB0571
:1059000085EE97E19093AE058093AD0520E030E001
:1059100040E069E083EA95E00E942015C093C90544
:10592000C093CA05C093CB0560E089E00E946F1761
:10593000E3EBF5E0E491E093E205EFE9F5E0E491D3
:10594000F0E0EE0FFF1FE457FA4F8591949190938A
:10595000E4058093E3051092ED051092EF05109297
:10596000EE05EDEEF5E0129285E0E53EF807D9F799
:105970008AE79EE090939E0580939D0582EE95E0D8
:1059800090939205809391051092900510928C054A
:1059900089E080938D0581E080938E0580938F054B
:1059A0008FEF8093670580936805809369058093E6
:1059B0006A05CF910895EF920F931F93CF93DF93D2
:1059C000E80147FD02C034E001C034E1E42F440F98
:1059D000FF0BF7FF03C0F195E195F109E32E022FCC
:1059E0002E2FAE010E94822DCE01DF91CF911F910B
:1059F0000F91EF900895FC0188279927E894219151
:105A00002032E9F3293010F02E30C8F32B3241F068
:105A10002D3239F4689404C00E943E2D820F911DEE
:105A2000219120532A30C0F31EF4909581959F4F09
:105A30000895FC016150704001900110D8F78095E5
:105A400090958E0F9F1F0895BB274A3031F49923FC
:105A500022F4BDE2909581959F4F0C94692DBB2750
:105A60002A3051F4992342F4BDE2909580957095C7
:105A700061957F4F8F4F9F4F0C94472D7AE0979FF2
:105A8000902D879F802D910D11240895BB27FA0139
:105A9000A62F6217710581059105330B30FB66F067
:105AA000AA27660F771F881F991FAA1FA21710F039
:105AB000A21B63953850A9F7A05DAA3308F0A95D31
:105AC000A19336F7B111B1931082CA010C94E82F5B
:105AD000BB27FB015527AA27880F991FAA1FA417C8
