:100000000C94E1020C94A3200C947C200C94F82115
:100010000C9459220C9435220C94E9210C94090378
:100020000C9409030C9409030C9409030C94090320
:100030000C9409030C9409030C9409030C94090310
:100040000C9432200C9409030C9400200C94DA1FB9
:100050000C9409030C9409030C9409030C940903F0
:100060000C94CA200C94090300407A10F35A00A0A3
:10007000724E18090010A5D4E80000E87648170071
:1000800000E40B54020000CA9A3B000000E1F505B1
:10009000000080969800000040420F000000A086FB
:1000A00001000000102700000000E803000000002D
:1000B0006400000000000A000000000001000000D1
:1000C00000002C76D888DC674F0823DFC1DFAE59EB
:1000D000E1B1B796E5E3E453C63AE651997696E87E
:1000E000E6C28426EB898C9B62ED407C6FFCEFBC02
:1000F0009C9F40F2BAA56FA5F490055A2AF75C932D
:100100006B6CF9676DC11BFCE0E40D47FEF520E662
:10011000B500D0ED902E0300943577050080841E45
:10012000080000204E0A000000C80C333333330FA0
:10013000986E12831141EF8D2114893BE65516CF3D
:10014000FEE6DB18D1844B381BF77C1D901DA4BB49
:10015000E424203284725E228100C9F124ECA1E5FE
:100160003D27005EBCE2613FDD83C29C7E20A3FD93
:100170001F419DC3217FFCA2401E5F01E3BD3E6085
:1001800082DC237D9FC1421CFEA0E1BF5D0380DEB7
:100190003C62BEE0025CDF81633D7C22C09E1D4369
:1001A000A1FF4618FAA427799BC584DA3866E5BB17
:1001B0005907DB856739BAE406581947A5FB782645
:1001C000C49A653BD987045AB8E6A7F91B45C69877
:1001D0007A24F8A6441A99C7257B3A6486D85B0529
:1001E000E7B98CD2306EEDB3510F4E10F2AC2F71D7
:1001F00093CD114FADF3702ECC92D38D6F31B2EC05
:100200000E50AFF1134DCE90722C6D33D18F0C5236
:10021000B0EE326C8ED0530DEFB1F0AE4C1291CFE8
:100220002D73CA947628ABF517490856B4EA693796
:10023000D58B5709EBB536688AD495CB2977F4AAC4
:100240004816E9B7550B88D6346A2B7597C94A14F6
:10025000F6A8742AC896154BA9F7B6E80A54D789A8
:100260006B3500000000240027002A000000000079
:10027000250028002B0000000008000201000003F8
:100280000407000000000000000000000000230040
:1002900026002900040404040404040402020202E7
:1002A0000202030303030303010204081020408039
:1002B000010204081020010204081020207F01011F
:1002C000000000000000000000065F5F0600000064
:1002D0000007070007070000147F7F147F7F1400CA
:1002E000242E6B6B3A120000466630180C666200D2
:1002F000307A4F5D377A48000407030000000000A1
:10030000001C3E63410000000041633E1C000000F1
:10031000082A3E1C1C3E2A0808083E3E0808000029
:100320000080E060000000000808080808080000DD
:1003300000006060000000006030180C060301003F
:100340003E7F71594D7F3E0040427F7F404000001C
:10035000627359494F660000226349497F360000A5
:10036000181C16537F7F5000276745457D390000D4
:100370003C7E4B4979300000030371790F07000080
:10038000367F49497F360000064F49693F1E00000D
:1003900000006666000000000040763600000000A5
:1003A000081C366341000000242424242424000077
:1003B000004163361C080000020351590F0600007B
:1003C0003E7F415D5D1F1E007C7E13137E7C00001E
:1003D000417F7F49497F36001C3E634141632200D3
:1003E000417F7F41633E1C00417F7F495D41630047
:1003F000417F7F491D0103001C3E63415173720020
:100400007F7F08087F7F000000417F7F4100000060
:10041000307040417F3F0100417F7F081C776300BF
:10042000417F7F41406070007F7F0E1C0E7F7F0008
:100430007F7F060C187F7F001C3E6341633E1C00DB
:10044000417F7F49090F06001E3F21717F5E00003A
:10045000417F7F09197F660022674D597322000092
:1004600003417F7F410300007F7F40407F7F00008A
:100470001F3F60603F1F00007F7F3018307F7F008C
:1004800043673C183C674300074F78784F070000EC
:10049000476371594D677300007F7F414100000041
:1004A0000103060C183060000041417F7F0000000E
:1004B000080C0603060C0800808080808080808005
:1004C0000000030704000000207454543C784000EE
:1004D000417F3F4848783000387C44446C28000015
:1004E000307848493F7F4000387C54545C18000005
:1004F000487E7F490302000098BCA4A4F87C040055
:10050000417F7F08047C780000447D7D400000002E
:1005100060E08080FD7D0000417F7F10386C4400EA
:1005200000417F7F400000007C7C18381C7C7800F4
:100530007C7C04047C780000387C44447C380000D7
:1005400084FCF8A4243C1800183C24A4F8FC840083
:10055000447C784C041C1800485C545474240000FB
:1005600000043E7F442400003C7C40403C7C400032
:100570001C3C60603C1C00003C7C7038707C3C0083
:10058000446C3810386C44009CBCA0A0FC7C00007B
:100590004C64745C4C64000008083E7741410000E4
:1005A00000000077770000004141773E0808000016
:1005B000020301030203010070784C464C7870007E
:1005C0007D2211241FBECFEFD8E0DEBFCDBF13E0E8
:1005D000A0E0B1E0E0EEFEE602C005900D92A03989
:1005E000B107D9F726E0A0E9B3E001C01D92A53B11
:1005F000B207E1F712E0C1EED2E004C02197FE019C
:100600000E941A37C03ED107C9F70E948C230C9470
:100610006E370C94000080E008958CBD9DBD089558
:100620002091740581E0213208F044C0809150058A
:100630008111FCCF8091730592E09093500591E079
:1006400090934F059FEF90934E0510924D05209388
:100650004C05A3E5B5E0ECE2F5E090E0291331C0EC
:1006600010922B0590912B05880F892B80932B05D9
:1006700080912A05813049F510922A0580912B0539
:100680008093BB008091BC0083FDF8CF85EC809304
:10069000BC00809150058230E1F380914E058F3F80
:1006A000B1F080914E058032A1F080914E058033EB
:1006B00091F084E010925205109274051092510549
:1006C00008953D9131939F5FC9CF85EEE0CF80E0E3
:1006D000F1CF82E0EFCF83E0EDCF089508951F932F
:1006E000CF93DF9300D000D01F92CDB7DEB71C822E
:1006F00021E02B839A838983E0917206F09173063F
:1007000011891D82A0917206B0917306E091760660
:10071000F09177069E012F5F3F4F50964C916FE00E
:1007200082E796E009958D818F5F8D83811750F365
:100730000F900F900F900F900F90DF91CF911F911E
:100740000895662329F06A3019F0862F90E0089505
:100750008FEF9FEF08959B01DC011896ED91FC91BE
:1007600041E067E1099481E080939E0480919C04BC
:1007700090919D04DC01ED91FC910484F585E02DC0
:10078000099510929E040895AF92BF92CF92DF9286
:10079000EF92FF920F931F93CF93DF936C017B0136
:1007A0008B01040F151FEB015E01AE18BF08C017C7
:1007B000D10759F06991D601ED91FC910190F0813A
:1007C000E02DC6010995892B79F7C501DF91CF91FD
:1007D0001F910F91FF90EF90DF90CF90BF90AF905F
:1007E0000895FC01538D448D252F30E0842F90E037
:1007F000821B930B541710F0CF960895019708951C
:10080000FC01918D828D981761F0A28DAE0FBF2FE4
:10081000B11D5D968C91928D9F5F9F73928F90E03A
:1008200008958FEF9FEF0895FC01918D828D9817A9
:1008300031F0828DE80FF11D858D90E008958FEFE6
:100840009FEF0895FC01918D228D892F90E0805CAF
:100850009F4F821B91098F739927089585E795E033
:100860000E94220421E0892B09F420E0822F0895C0
:1008700080E090E0892B29F00E942E0481110C94D5
:1008800000000895FC01A48DA80FB92FB11DA35A33
:10089000BF4F2C91848D90E001968F739927848FA0
:1008A000A689B7892C93A089B1898C9183708064C3
:1008B0008C93938D848D981306C00288F389E02D64
:1008C00080818F7D80830895EF92FF920F931F9315
:1008D000CF93DF93EC0181E0888F9B8D8C8D9813F3
:1008E0001AC0E889F989808185FF15C09FB7F894FF
:1008F000EE89FF896083E889F9898081837080644B
:1009000080839FBF81E090E0DF91CF911F910F9195
:10091000FF90EF900895F62E0B8D10E00F5F1F4FA4
:100920000F731127E02E8C8D8E110CC00FB607FCB3
:10093000FACFE889F989808185FFF5CFCE010E9441
:100940004204F1CFEB8DEC0FFD2FF11DE35AFF4F69
:10095000F0829FB7F8940B8FEA89FB8980818062CF
:10096000CFCFCF93DF93EC01888D8823B9F0AA898C
:10097000BB89E889F9898C9185FD03C0808186FD5A
:100980000DC00FB607FCF7CF8C9185FFF2CF8081A9
:1009900085FFEDCFCE010E944204E9CFDF91CF91D8
:1009A0000895833081F028F4813099F08230A9F0E5
:1009B00008958730A9F08830C9F08430B1F480916F
:1009C00080008F7D03C0809180008F7780938000AE
:1009D000089584B58F7784BD089584B58F7DFBCF4E
:1009E0008091B0008F778093B00008958091B0001F
:1009F0008F7DF9CFCF93DF93282F30E0F901EA58AC
:100A0000FD4F8491F901E855FD4FD491F901EC5661
:100A1000FD4FC491CC23A1F081110E94D104EC2F91
:100A2000F0E0EE0FFF1FE657FD4FA591B491EC915A
:100A3000ED2381E090E009F480E0DF91CF9108950B
:100A400080E090E0FACF1F93CF93DF93282F30E020
:100A5000F901EA58FD4F8491F901E855FD4FD49111
:100A6000F901EC56FD4FC491CC23A9F0162F81114A
:100A70000E94D104EC2FF0E0EE0FFF1FE459FD4F70
:100A8000A591B4918FB7F894EC91111108C0D0954D
:100A9000DE23DC938FBFDF91CF911F910895DE2B72
:100AA000F8CF109209051092080510925205109285
:100AB00074051092500581E080934F0510922A052D
:100AC00061E082E10E94230561E083E10E94230549
:100AD000E9EBF0E080818E7F808380818D7F808351
:100AE00088E48093B80085E48093BC008DE693E0B1
:100AF00090930705809306058EE693E09093050595
:100B0000809304050895CF93DF9390E0FC01E855AE
:100B1000FD4F24918C569D4FFC0184918823C9F090
:100B200090E0880F991FFC01EE59FD4FA591B491FB
:100B3000FC01E459FD4FC591D49161110DC09FB7DF
:100B4000F8948C91209582238C9388812823288384
:100B50009FBFDF91CF910895623051F49FB7F89411
:100B60003C91822F809583238C93E8812E2BEFCFAD
:100B70008FB7F894EC912E2B2C938FBFEACF3FB711
:100B8000F8948091980490919904A0919A04B0915E
:100B90009B0426B5A89B05C02F3F19F00196A11D07
:100BA000B11D3FBFBA2FA92F982F8827BC01CD01B7
:100BB000620F711D811D911D42E0660F771F881F16
:100BC000991F4A95D1F708958F929F92AF92BF9245
:100BD000CF92DF92EF92FF926B017C010E94BF05E2
:100BE0004B015C01C114D104E104F104B9F00E948D
:100BF000BF05681979098A099B09683E7340810518
:100C0000910580F321E0C21AD108E108F10888EECD
:100C1000880E83E0981EA11CB11CE4CFFF90EF90DA
:100C2000DF90CF90BF90AF909F908F9008952FB797
:100C3000F894609194047091950480919604909139
:100C400097042FBF08950895DC011A96ED91FC9149
:100C500030E020E00994462FDC011496ED91FC91E0
:100C600030E020E06BE00994DC011696ED91FC91F8
:100C700030E020E040E069E10994DC011696ED9156
:100C8000FC9130E020E040E068E109949A01DC0149
:100C90001696ED91FC91462F67E10994EF92FF9231
:100CA0000F931F93CF93DF931F92CDB7DEB77C01D5
:100CB0008B01D8016C91673129F150F46531A0F4B2
:100CC0000F90DF91CF911F910F91FF90EF900895BA
:100CD0006A3118F16E3FA1F7F8014181498369E259
:100CE000C7010E9424060BC0F80141814983D70146
:100CF0001696ED91FC9130E020E0C70109950E5F5A
:100D00001F4FD7CFF80181818983AE014F5F5F4FBD
:100D100061E0C7010E944606F2CF0F5F1F4FD70167
:100D20001696ED91FC9130E020E040E0C701099576
:100D3000C0CF462FDC011696ED91FC9130E020E00B
:100D400066E10994462FDC011696ED91FC9130E0A6
:100D500020E065E10994EF92FF920F931F93CF93E8
:100D6000DF93EC01042F79016D3009F446C050F493
:100D70006B30C9F1693009F49FC06A3009F465C06D
:100D800080E046C06E3009F452C06F3099F70E947F
:100D90003D06F7011381110F110F110F6C89160F0A
:100DA00060E4CE010E94A206612F62956F706061BF
:100DB000CE010E94A206612F6F70CE010E9499069B
:100DC000F7016481606BCE010E949906F7014081B2
:100DD00051816281660F660F660FCE010E94460642
:100DE0000150A1F72EC064E571E0442311F06FE4D7
:100DF00071E0CE010E944E060AC0411110C068E4A5
:100E000071E00E944E06E881F98182898C8B81E035
:100E1000DF91CF911F910F91FF90EF90089561E4C2
:100E200071E00E944E06E881F9818389EFCF0E942C
:100E30003D0661E8CE010E94A206602FCE010E940D
:100E40009906CE010E943406E2CFEA85FB8530E0A8
:100E500020E040E068E2CE010995EE81FF8130E0BC
:100E600020E040E064E1CE01099541E06BE4CE0171
:100E70000E942406E881F981448169E2CE010E9442
:100E8000240640E06BE4CE010E942406E881F9814B
:100E9000448169E2CE010E94240641E06BE4CE0168
:100EA0000E942406E881F981458169E2CE010E9411
:100EB000240669E571E09DCF8EE891E099838883EF
:100EC0001C8AA5CFDC011896ED91FC9130E020E062
:100ED00040E069E10994DC011896ED91FC9130E065
:100EE00020E040E068E10994CF93DF931F92CDB7F3
:100EF000DEB76983BE016F5F7F4F0E94AB030F9027
:100F0000DF91CF910895EF92FF921F93CF93DF93DC
:100F1000EC01162F7A010E946B0760E4CE010E945B
:100F20007407E885F9859701412F67E1CE0109959E
:100F3000CE01DF91CF911F91FF90EF900C9462074B
:100F4000EF92FF921F93CF93DF93EC01142F79015F
:100F5000663181F138F4643109F44BC0653179F0C0
:100F600080E022C06831C9F150F16931C9F7809140
:100F70009204882391F1CE010E9462072EC08091D5
:100F80009204882319F0CE010E946207CE010E94CC
:100F90006B0760E0CE010E947407612FCE010E94B2
:100FA000740781E080939204DF91CF911F91FF90AD
:100FB000EF900895642F0E94740781E0F5CF80912F
:100FC0009204882319F0CE010E946207A70119310B
:100FD00038F4612FCE010E94830710929204EDCF66
:100FE00068E1CE010E948307185188E1E80EF11CE8
:100FF000EDCF8E898F3F11F488E78E8BE885F985D8
:101000009701412F64E1CE01DF91CF911F91FF90B5
:10101000EF900994CF93DF93EC01A889B989FD0182
:10102000349131969491319684911396FD01A49157
:101030006317A8F1961798F1631B770B8A9FE02D31
:101040001124E69FC001E79F900D1124280F392F2E
:10105000311D83E0220F331F8A95E1F7C901049601
:10106000DA01245F3F4FE889F989E80FF91FE4911D
:10107000ED93019682179307B1F78D89882361F06C
:10108000FA019A01285F3F4F8191DF011197809506
:101090008C932E173F07C1F7DF91CF910895FA0186
:1010A000CA0108961192E817F907E1F7E6CF4F92C7
:1010B0005F926F927F928F929F92AF92BF92CF92E8
:1010C000DF92EF92FF920F931F93CF93DF93CDB7F1
:1010D000DEB72D970FB6F894DEBF0FBECDBF7C01F3
:1010E000C62ED42EB22EDC0150968D919C91FC011F
:1010F0003296149131960491512E560E040F81E0D0
:10110000860F581608F411E0712CFE0131964F013C
:1011100044244394672CAC2C262DA4016B2DC701CD
:101120000E940A08AC86DD864B869A868986D7019E
:101130001496ED91FC919E01275F3F4F41E06FE0D7
:10114000C70109956394A394A51430F3D394710E49
:10115000D01600F32D960FB6F894DEBF0FBECDBFAC
:10116000DF91CF911F910F91FF90EF90DF90CF9083
:10117000BF90AF909F908F907F906F905F904F90B7
:101180000895EF92FF920F931F93CF93DF93F82E62
:10119000E62EE0918206F09183063296C491109279
:1011A0008B068A01D0E0F80161918F01E09174060D
:1011B000F091750682E796E009958F3F980771F0E8
:1011C0008E3F2FEF920779F3282F4E2D6F2D82E758
:1011D00096E00E945708FC0EDF5FE5CF8D2FDF9170
:1011E000CF911F910F91FF90EF90089521EA33E086
:1011F00030937506209374060C94C1080F931F93C7
:10120000CF93DF938C01C62F642FCC32E8F4CA321F
:1012100008F041C0C83271F1C93209F442C080E01F
:10122000C034D0F1CF73F801EC0FF11D878D8F3FE3
:1012300091F1C031E0F00E94FA0421E0892B09F419
:1012400020E0F801228F27C0CD3289F140F384EBF2
:101250008C0F823020F7CF73C00FD12FD11D8F8D0F
:10126000411133C061E00E94830560E08F8D0E94D0
:10127000230511C0015E1F4FD0E0F80181918F015D
:101280008F3F31F061E0D03108F062E00E948305C9
:10129000DF5FD63191F781E0DF91CF911F910F9100
:1012A000089570E090E080E00E94E405F4CF85E0CE
:1012B00090E0433010F082E090E0880F991F880F93
:1012C000991F05970197F1F7E6CF62E00E94830529
:1012D000E2CF1F93CF93DF93EC01EC89FD894AADF8
:1012E0006A3059F43396E491E40FEAAF19AE81E025
:1012F00090E0DF91CF911F910895262F329614919F
:1013000069AD04960E945708E9ADE10FE9AFEFCF50
:1013100085ED8093BC008091BC0084FDFCCF1092D1
:101320005005089520916F04260F3327331F213273
:101330003105ECF420915005FC0190E080E0243070
:1013400069F082E00895A0916F042191AC01415BA6
:101350005B4FA40FB52FB11D2C930196861798F300
:1013600080916F04680F60936F0480E0089581E0BE
:1013700008950895E091090580910805E81730F473
:10138000F0E0E65FFA4F808190E008958FEF9FEFE5
:10139000089590910905809108052FEF3FEF981768
:1013A00048F4E92FF0E0E65FFA4F208130E09F5FDC
:1013B00090930905C9010895809108059091090548
:1013C000891B990B0895CF92DF92EF92FF920F93B2
:1013D0001F93CF93DF937C01CB018A0120915105AC
:1013E000222389F0EB016B01C40ED51ECC15DD055F
:1013F00069F06991D701ED91FC910190F081E02DA8
:10140000C7010995F3CF642F0E949209C801DF91AB
:10141000CF911F910F91FF90EF90DF90CF900895A3
:10142000CF93DF93EC01962F683189F1B90199319F
:1014300030F4943199F0973159F080E006C0993139
:1014400009F447C09032C9F781E0DF91CF91089548
:1014500050E082E196E00E94E309F6CF8C859D85FD
:10146000AE85BF85892B8A2B8B2B71F4E881F9819E
:10147000A585B0E020EA36E841E050E00E94A735BB
:101480006C877D878E879F870E945105DDCF2C85D5
:101490003D854E855F8560E074E284EF90E00E94B8
:1014A00057352051310941095109569547953795CE
:1014B00027952093B8008E8990E09595879591E0C7
:1014C0009093510580937305109252051092740504
:1014D000BBCF0E941003B8CFCF93DF931F92CDB73D
:1014E000DEB76983209151052223F9F0209174051C
:1014F000203258F021E030E0FC013383228390E079
:1015000080E00F90DF91CF91089580915205E82FF0
:10151000F0E0ED5AFA4F998190838F5F80935205E6
:101520008093740581E090E0ECCF61E0CE010196FC
:101530000E949209F7CFDC0180E0615038F0ED9114
:10154000E827F0E0EE59FE4F8491F7CF0895DC01D3
:101550002C911196ED91FC91F8948181822B8183DD
:101560009281322F30959323928387E090E0019708
:10157000F1F781818323818383E290E00197F1F782
:1015800090817894EFECF0E03197F1F7922381E0CD
:1015900009F480E00895FC0190810180F281E02D42
:1015A000292F209560FF14C0F894828182238283C2
:1015B0008181892B8183A3E2B0E01197F1F78281C9
:1015C000982B9283789487ED90E00197F1F7089536
:1015D000F8948281822382838181892B8183AFEF7A
:1015E000B0E01197F1F78281982B928378948FE085
:1015F00090E0EBCFDF92EF92FF920F931F93CF9388
:10160000DF93EC01D62EE42E08E010E0FF24F394E3
:1016100061E08D2D8F2109F460E0CE010E94CB0A9C
:10162000FF0C01501109A1F7E11010C0F894E981F5
:10163000FA8191818881809589238183E981FA816A
:10164000928188818095892382837894DF91CF91DC
:101650001F910F91FF90EF90DF900895EF92FF920E
:101660000F931F93CF93DF938C017B0140E065E5DF
:101670000E94FA0AE70188E0E80EF11C699140E057
:10168000C8010E94FA0ACE15DF05C1F7DF91CF919C
:101690001F910F91FF90EF900895FC0190810180C0
:1016A000F281E02DF8948181292F20958223818376
:1016B00078943DE743E050E0315029F1DA01119789
:1016C000F1F780818923C1F3F89482818223828398
:1016D0008181892B81837894ABE7B7E01197F1F78B
:1016E000F894818182238183A3E1B1E01197F1F71E
:1016F0008081982381E009F080E07894E3E6F6E0C9
:101700003197F1F7089580E00895AF92BF92CF929C
:10171000DF92EF92FF920F931F93CF93DF938B0192
:10172000BC0180915206909153060E942E0B40E01E
:101730006EEB80915206909153060E94FA0AE801DE
:10174000680189E0C80ED11CA0905206B0905306E3
:1017500088E0E82EF12C10E001E0C5010E94A70A04
:101760008111102B000F81E0E81AF108B1F71993ED
:10177000CC16DD0649F780915206909153060E94DF
:101780004D0B91E0813009F090E0892FDF91CF91EE
:101790001F910F91FF90EF90DF90CF90BF90AF908F
:1017A00008950F931F93CF93DF93CDB7DEB729979B
:1017B0000FB6F894DEBF0FBECDBF8C0180915206EC
:1017C000909153060E944D0B811102C080E01FC012
:1017D000BE016F5F7F4FC8010E94850B8823B1F364
:1017E00068E0CE0101960E949B0A99858913EECF8D
:1017F0008D818F33B9F020F48F3141F789E007C034
:101800008F3521F08F3711F78CE001C08BE02996DE
:101810000FB6F894DEBF0FBECDBFDF91CF911F9101
:101820000F9108958AE0F3CFCF93CFB7F8948091CA
:101830004E04811127C0EEE9F2E08491E2EBF2E080
:101840009491E82FF0E0EE0FFF1FEE59FD4FA591A8
:10185000B491EC91E92321F461E08AE00E94230530
:1018600061E08AE00E9483058CB580618CBD8CB5F7
:1018700080648CBD61E08DE00E94830561E08BE0B7
:101880000E94830580914E048F5F80934E04CFBFEA
:10189000CF910895CF93DF93EC0161E08A810E949C
:1018A000230589858CBD8A858DBD80919E0481111B
:1018B00001C07894DF91CF910895FC01F8948CB524
:1018C00081878DB582878CB5837F8CBD8CB58F7DEC
:1018D0008CBD8CB58C7F8CBD8DB58E7F8DBD60E051
:1018E00082810C942305F8942091A906233071F489
:1018F00020914D04222351F0DC01ED91FC910488EC
:10190000F589E02D61E0099581E008952091A9060F
:10191000233019F4789480E00895DC01ED91FC9176
:101920000288F389E02D0995F6CF3F924F925F929E
:101930006F927F928F929F92AF92BF92CF92DF92DF
:10194000EF92FF920F931F93CF93DF93EC01162F2B
:101950005A01922E802E312CCE2CD12CF12CE12C40
:1019600061E070E080E090E00E94E405E881F981A8
:101970000190F081E02D01E0292DA501612FCE011C
:1019800009950E9417062B013C010E941706641955
:101990007509860997096C157D058E059F0528F543
:1019A000E881F9810480F581E02DCE010995882335
:1019B00061F390914B04191711F01F3F31F790918B
:1019C0004804992311F3DF91CF911F910F91FF905C
:1019D000EF90DF90CF90BF90AF909F908F907F90CF
:1019E0006F905F904F903F9008953394831408F068
:1019F000B7CF80E0E8CFCF93DF93C0E1D7E261E0DB
:101A000085E00E94230560E085E00E942305219780
:101A1000B1F7DF91CF91089584B7877F84BFE0E667
:101A2000F0E080818861808310820895282FEDE6A0
:101A3000F0E0883050F0EBE6F0E08E3030F0ECE68D
:101A4000F0E0863110F0F0E0E0E03081422F50E02D
:101A5000283078F481E090E0A0E0B0E004C0880F86
:101A6000991FAA1FBB1F2A95D2F7809583238083D5
:101A700008952E3070F44850510981E090E0A0E0C4
:101A8000B0E004C0880F991FAA1FBB1F4A95D2F768
:101A9000ECCF4E505109F1CFEDE6F0E0883050F038
:101AA000EBE6F0E08E3030F0ECE6F0E0863110F05E
:101AB000F0E0E0E09081282F30E0883010F541E040
:101AC00050E060E070E0082E04C0440F551F661F10
:101AD000771F0A94D2F7492B40839BB3883020F1BB
:101AE00021E08E3008F420E081E001C0880F2A95C3
:101AF000EAF7982B9BBB90916800892B8093680034
:101B000008958E3070F42850310941E050E060E0D3
:101B100070E004C0440F551F661F771F2A95D2F747
:101B2000DACF2E503109F1CF84E0E3CFCF93DF93AA
:101B3000662309F4A6C0D091040480910304D81749
:101B400009F48BC080E00E94160D81E00E94160D02
:101B500060E080E00E94230560E081E00E942305B0
:101B60008091F30480FF04C060E081E00E9483055F
:101B700065E070E080E090E00E94E40580E00E9473
:101B8000FA04892B29F4C0E08C2FDF91CF910895BE
:101B900081E00E94FA04892BB1F3CCE361E080E09C
:101BA0000E94830565E070E080E090E00E94E4051B
:101BB00061E081E00E94830564E170E080E090E0F4
:101BC0000E94E40560E080E00E94830565E070E02B
:101BD00080E090E00E94E40560E081E00E948305DF
:101BE00064E170E080E090E00E94E405C150B1F64D
:101BF0006AE070E080E090E00E94E405DC1751F1BB
:101C000061E081E00E94830565E070E080E090E0A3
:101C10000E94E40561E080E00E94830564E170E0D9
:101C200080E090E00E94E40560E081E00E9483058E
:101C300065E070E080E090E00E94E40560E080E014
:101C40000E94830564E170E080E090E00E94E4057A
:101C5000CF5FD4CFD0930304C1E08091F30480FF21
:101C600004C061E081E00E9483058091BC04882368
:101C700009F48ACF80E00E944C0D81E00E944C0D57
:101C800083CF109203048530F8F0880F8950809339
:101C900004048091F30480FF04C060E081E00E94AE
:101CA000830565E070E080E090E00E94E40580E05C
:101CB0000E94FA04892B31F081E00E94FA04C1E00D
:101CC000892B59F6C0E0C9CF10920404E2CFCF921D
:101CD000DF92EF92FF920F931F93CF93DF936C01EC
:101CE000EB017B01E40EF51E10E000E0CE15DF05F0
:101CF00061F06991D601ED91FC910190F081E02DA8
:101D0000C6010995080F191FF1CFC801DF91CF91C6
:101D10001F910F91FF90EF90DF90CF90089508955D
:101D2000089590E080E0089508958EBD00000DB400
:101D300007FEFDCF8EB50895EF92FF920F931F938C
:101D4000CF93DF9390912A069F3F41F4DF91CF918B
:101D50001F910F91FF90EF900C94950ED82FC0E03B
:101D600007E010E0EE24E394F12CCC0F60E08091CA
:101D70002A060E942305B701002E01C0660F0A94AF
:101D8000EAF76D23809128060E94230561E0809187
:101D90002A060E942305809129060E94FA04892BB5
:101DA00009F0C1600150110900F78C2FDF91CF912C
:101DB0001F910F91FF90EF900895CF93DF93D82F4D
:101DC000C62F809127068F3FC9F480911E0691E0AF
:101DD00090935105809373051092520510927405EB
:101DE0006D2F82E196E00E946C0A6C2F82E196E0F2
:101DF0000E946C0ADF91CF910C94100380912A0607
:101E00008F3F21F482E591E00E940D0360E0809114
:101E100027060E9423058D2F8F770E949C0E8C2F02
:101E20000E949C0E61E080912706DF91CF910C9477
:101E300023050F931F93CF93DF93EC01062F142FED
:101E4000E881F981008CF18DE02D0995802F806863
:101E50000E94950E812F0E94950EE881F981028CD7
:101E6000F38DE02DCE01DF91CF911F910F91099459
:101E70001F93CF93DF93EC01162F45E561114DE5DC
:101E80006AE5CE010E94190F40E711114CE76CE59D
:101E9000CE01DF91CF911F910C94190F1F93CF9317
:101EA000DF93EC01162FE881F981008CF18DE02D94
:101EB0000995812F0E94950E80E00E94950E182FA3
:101EC000E881F981028CF38DE02DCE010995812FF7
:101ED000DF91CF911F910895CF93DF93EC01688735
:101EE0004AE161114FE063E1CE010E94190F88853C
:101EF000882369F061E1CE010E944E0F8F71482F57
:101F0000406661E1CE01DF91CF910C94190F4F81B2
:101F10004068F7CFCF93DF93EC0110924C041092FE
:101F20004B0410924A0410924D04109249041092EE
:101F30004804109247041092460468E20E944E0F33
:101F400082FF0AC06DE3CE010E944E0F482F44600D
:101F50006DE3CE010E94190F40E465E2CE010E94BC
:101F6000190FE881F9810488F589E02D63E0CE013D
:101F7000DF91CF910994CF93DF93EC01603208F0A9
:101F80006FE16F838885882311F066956F8361E127
:101F9000CE010E944E0F807E4F81482B61E1CE0121
:101FA000DF91CF910C94190F1F93CF93DF93209162
:101FB000A906261761F0162FEC01623009F445C01E
:101FC00050F4662309F453C0613009F449C0DF912D
:101FD000CF911F910895633021F16430C1F761E022
:101FE0000E944E0F837E482F4C6061E0CE010E941C
:101FF000190F8885882341F0E881F9810688F789DF
:10200000E02D61E0CE0109958091A906811106C0FD
:1020100067E2CE010E944E0F87FFF6CF1093A9060C
:10202000D6CF61E00E944E0F837E482F406161E071
:10203000CE010E94190F8885882331F3E881F98148
:102040000688F789E02D60E0DDCF61E00E944E0F49
:10205000837E482F486061E0CE010E94190FD4CFE3
:1020600061E00E944E0F837E482F4460F4CF61E010
:102070000E944E0F482F437EEECFEF92FF920F93B8
:102080001F93CF93DF93EC0161E08AEA96E00E9410
:10209000D40F2097C1F08AEA96E00E945D0C8EEB87
:1020A0000E94950E8E017E0180E1E80EF11CF80180
:1020B00081918F010E94950E0E151F05C1F78AEAC6
:1020C00096E00E944A0C6DE38AEA96E00E944E0F69
:1020D0008E7F41E0CD2B09F440E0482B6DE38AEA86
:1020E00096E0DF91CF911F910F91FF90EF900C94AC
:1020F000190FCF92DF92EF92FF920F931F93CF931E
:10210000DF93EC01F62ED42EC52E122FE881F98133
:102110000488F589E02D61E0099567E2CE010E940F
:102120004E0F87FFFACF40E065E2CE010E94190F03
:102130001E3308F01DE3E11027C0002339F100E44D
:10214000E881F981008CF18DE02DCE01099580E8C0
:102150000E94950E83E0810F0E94950E8F2D0E94A4
:10216000950E8D810E94950E802F0E94950E0D2D4B
:10217000ED2CFC2C8E2D801B811750F4F7018191E2
:102180007F010E94950EF6CF00E8DACF00E0D8CFAD
:10219000E881F981028CF38DE02DCE010995E8816B
:1021A000F9810488F589E02D64E0CE0109950E944B
:1021B00017066B017C018B810E94FA04892B59F46C
:1021C0000E9417066C197D098E099F09683E7340AD
:1021D0008105910580F3E881F9810488F589E02D76
:1021E00061E0CE01DF91CF911F910F91FF90EF90B1
:1021F000DF90CF900994909150059111FCCF91E020
:102200009093500590934F052FEF20934E05109219
:102210004D05260F20934C0590932B0590912B058F
:10222000880F892B80932B0580912A05813019F521
:1022300010922A0580912B058093BB008091BC00F1
:1022400083FDF8CF85EC8093BC00809150058130F0
:10225000E1F380914D05861710F460914D05ACE2D5
:10226000B5E0EAE0F5E080E0861307C010920905CA
:1022700080930805089585EEE6CF9D9191938F5F39
:10228000F3CFCF93C82F809127068F3FF9F4809129
:102290001E0691E0909351058093730510925205AC
:1022A000109274056C2F82E196E00E946C0A0E94E5
:1022B000100361E080911E060E94FB1082E196E00F
:1022C0000E94C909C82F8C2FCF91089580912A06AA
:1022D0008F3F21F482E591E00E940D0360E0809140
:1022E00027060E9423058C2F0E949C0E80E00E94EE
:1022F0009C0EC82F61E0809127060E942305E3CF42
:10230000CF93DF93C82F809127068F3F49F58091A7
:102310001E0691E09093510580937305109252052B
:10232000109274056C2F82E196E00E946C0A0E9464
:10233000100362E080911E060E94FB1082E196E08D
:102340000E94C909C82F82E196E00E94C90920E0D5
:102350003C2FE901C82BD92BCE01DF91CF910895F5
:1023600080912A068F3F21F482E591E00E940D03BF
:1023700060E0809127060E9423058C2F0E949C0E0E
:1023800080E00E949C0EC82F80E00E949C0EDC2FF3
:10239000C82F61E0809127060E942305DDCF0E94AF
:1023A00080119827892798270895CF93DF9386E790
:1023B00080931E06809127068F3F09F0A8C00E94D7
:1023C000510580ED0E944111883519F0803609F0E1
:1023D000BBC088E80E94CF1190932C0680932B06F7
:1023E0008AE80E94CF1190932E0680932D068CE8E8
:1023F0000E94CF119093300680932F068EE80E94A2
:10240000CF11909332068093310680E90E94CF115C
:10241000909334068093330682E90E94CF11909303
:1024200036068093350684E90E94CF1190933806D2
:102430008093370686E90E94CF1190933A068093E5
:10244000390688E90E94CF1190933C0680933B06A1
:102450008AE90E94CF1190933E0680933D068CE955
:102460000E94CF119093400680933F068EE90E9410
:10247000CF11909342068093410681EA0E94411158
:102480008093430681EE0E94CF119093450680937E
:10249000440683EE0E9441118093460684EE0E941A
:1024A0004111C82F85EE0E94411190E1C99F900112
:1024B00011248F70282B309348062093470686EE10
:1024C0000E944111C82F85EE0E94411190E1C99FE1
:1024D000E001112490E024E0959587952A95E1F795
:1024E0008C2B9D2B90934A068093490687EE0E9481
:1024F000411180934B0665E082EF0E94DD0E67EB91
:1025000084EF0E94DD0E81E0DF91CF91089561E0BC
:102510000E94230561E0809127060E948305809137
:102520002A068F3F19F40E94140C4BCF61E00E94E1
:10253000830561E0809128060E94830560E0809118
:1025400029060E9483053DCF80E0DECF8F929F92C7
:10255000AF92BF92CF92DF92EF92FF92F82E8091CE
:1025600027068F3F09F04CC080911E0691E09093A2
:1025700051058093730510925205109274056F2DCA
:1025800082E196E00E946C0A0E94100363E0809151
:102590001E060E94FB1082E196E00E94C9094C01D0
:1025A000990FAA08BB08BA2CA92C982C882482E180
:1025B00096E00E94C909092E000CAA0BBB0B882AC1
:1025C000992AAA2ABB2ABA2CA92C982C882482E101
:1025D00096E00E94C909092E000CAA0BBB0B6C01E6
:1025E0007D01C828D928EA28FB28C701B601FF9039
:1025F000EF90DF90CF90BF90AF909F908F90089515
:1026000080912A068F3F21F482E591E00E940D031C
:1026100060E0809127060E9423058F2D0E949C0E6A
:1026200080E00E949C0E90E0B0E0A0E0CC24D82E88
:10263000E92EFA2E80E00E949C0EC82AFE2CED2C7A
:10264000DC2CCC2480E00E949C0EC82A61E08091A2
:1026500027060E942305C9CF8F929F92AF92BF9207
:10266000CF92DF92EF92FF920F931F938AEF0E9417
:10267000A612EEE1F6E00585168530E020E0C72ED3
:10268000D82EE92EFF24E7FCFA94C01AD10AE20AF8
:10269000F30A57E095958795779567955A95D1F701
:1026A000000F111F221F331F4B015C01801A910A7A
:1026B000A20AB30AA5019401A785B0890E94B23588
:1026C0004B015C01BBE0B594A79497948794BA95AD
:1026D000D1F7A7019601C701B6010E9433359B01CE
:1026E000AC011CE055954795379527951A95D1F77C
:1026F000A189B2890E94B2359B01AC010EE05595CB
:102700004795379527950A95D1F7280D391D4A1D0C
:102710005B1D2583368347835087A5E0B0E00E9488
:10272000A73560587F4F8F4F9F4F672F782F892F86
:10273000992787FD9A950E94C83320E030E048EC45
:1027400052E40E941F331F910F91FF90EF90DF9092
:10275000CF90BF90AF909F908F900895BF92CF92EF
:10276000DF92EF92FF920F931F93CF93DF93EC01D1
:10277000B62EC72EED84E11004C00E944D0B8111CE
:102780000EC01B861D861C8680E0DF91CF911F91B5
:102790000F91FF90EF90DF90CF90BF90089540E0B1
:1027A00060EFCE010E94FA0AD12C01E011E0CE01C7
:1027B0000E94A70AF82ECE010E94A70A91E0F91202
:1027C00018C0813099F51134E0F2EB86E11002C0B7
:1027D00081E08D878B818823A1F22396EB2DFC2D40
:1027E000CF01089629912193E817F907D9F781E0DD
:1027F000CCCFED2DF0E0F8120FC08B851817A0F4A8
:10280000DE01AE0FBF1F13968C91802379F4F12C5B
:10281000193008F41C87E12EEC0FFD1F8381902FE7
:102820009095892383830AC08113F1CFFE01ED0DBA
:10283000F11D8381802B8383FF24F3946F2DCE01C0
:102840000E94CB0A1F5F000F11F4D39401E087E0D0
:102850008D1508F0ACCFB7CF0F931F93CF93DF93B5
:102860008C01D62FE0915206F091530613861586FF
:10287000148612861186108617821682158214829B
:102880001382C0E0B80180915206909153060E94D5
:10289000AE13882329F0DC1749F0CF5FDC1790F7DF
:1028A00080E0DF91CF911F910F91089567E0C801FB
:1028B0000E949B0AF80197818913EFCF81E0F1CF45
:1028C000EF92FF921F93CF93DF93EC018091A906C3
:1028D000833009F098C068E2CE010E944E0F82FF5B
:1028E00092C0E881F9810488F589E02D61E0CE018C
:1028F0000995E881F981008CF18DE02DCE010995D3
:1029000080E00E94950E80E00E94950E80934D0419
:1029100080914D04833408F046C080914D0480932B
:102920004D0480E00E94950E80934A048E818111AF
:1029300009C080914A049D81981721F080914A0432
:102940008F3F99F580914D04833078F180914D044B
:10295000835080934C0480E00E94950E80934B043A
:1029600080E00E94950E982F907890934804982FBD
:10297000907490934904E881F9810684F785E02DED
:10298000682FCE01099510E080914C04181710F5BE
:10299000E12EF12C80E00E94950EF701E75FFB4FDE
:1029A00080831F5FF1CF82E4BACF10924D04E8819B
:1029B000F981028CF38DE02DCE010995E881F98132
:1029C0000288F389E02DCE01DF91CF911F91FF9016
:1029D000EF90099480914C048D3330F4E0914C04D5
:1029E000F0E0E75FFB4F1082E881F981028CF38D04
:1029F000E02DCE010995E881F9810488F589E02D63
:102A000063E0CE01099564E2CE010E944E0F90E092
:102A10009195819591099595879590934704809319
:102A20004604DF91CF911F91FF90EF900895CF93CF
:102A3000DF932091A906233021F080E0DF91CF9130
:102A4000089520914D042111F8CFEC0164E20E9419
:102A50004E0F90E091958195910980379F4F6CF7CB
:102A6000E881F9810488F589E02D61E0CE010995BE
:102A700081E0E4CF4F925F926F927F92AF92BF92CC
:102A8000CF92DF92EF92FF920F931F93CF93DF933A
:102A9000EC015B01F42E1092490410914B04C0909C
:102AA0004604D09047046DE30E944E0F482F4460C7
:102AB0006DE3CE010E94190F0E9417062B013C0105
:102AC000CE010E941715811113C00E9417066419C8
:102AD000750986099709683E73408105910540F4A0
:102AE000E881F9810480F581E02DCE010995E8CFD8
:102AF00010934B04E881F9810088F189E02DEE24E0
:102B0000E39400E02F2DA501612FCE010995D0920D
:102B10004704C0924604DF91CF911F910F91FF901F
:102B2000EF90DF90CF90BF90AF907F906F905F90CD
:102B30004F9008958F929F92AF92BF92CF92DF9263
:102B4000EF92FF920F931F93CF93DF93EC01162F19
:102B50006A01F22E6DE30E944E0F482F44606DE330
:102B6000CE010E94190F0E9417064B015C01CE0195
:102B70000E941715811113C00E9417066819790960
:102B80008A099B09683E73408105910540F4E881FC
:102B9000F9810480F581E02DCE010995E8CFE88127
:102BA000F9810088F189E02DE12C2F2DA601612FFC
:102BB000CE010995DF91CF911F910F91FF90EF907A
:102BC000DF90CF90BF90AF909F908F9008954F92DD
:102BD0005F926F927F928F929F92AF92BF92CF92AD
:102BE000DF92EF92FF920F931F93CF93DF93CDB7B6
:102BF000DEB76E970FB6F894DEBF0FBECDBF3C01B7
:102C00004B01F42E122F6DE370E00E940330082F69
:102C1000F40101900020E9F731976F01C818D90835
:102C200011111092FA0316E0F11001C014E00E9495
:102C300017062091F6033091F7034091F803509165
:102C4000F903621B730B840B950B603D7740810584
:102C5000910568F00E9417066093F6037093F703DE
:102C60008093F8039093F90381E0809307018C2D02
:102C7000800F9927991F5C01412E512C840D951DC1
:102C8000CD970CF03FC11C2D809107012091FA03D4
:102C9000882309F49BC0822F90E0A501480F591F9B
:102CA000440D551D4D3351052CF4C11055C0222340
:102CB00009F452C088549C4F2DE7FC01208364E244
:102CC0008AEA96E00E944E0F90E0919581959109D5
:102CD00080379F4F14F000E021C0609100052091E3
:102CE000FA032F5F94E6E92E02E048EB53E08AEA0C
:102CF00096E00E94950C082F811128C00E941706AB
:102D00006093F6037093F7038093F8039093F903AD
:102D1000109207018AEA96E00E94730C802F6E964B
:102D20000FB6F894DEBF0FBECDBFDF91CF911F91DC
:102D30000F91FF90EF90DF90CF90BF90AF909F905A
:102D40008F907F906F905F904F9008951092FA034C
:102D50008AEA96E00E94730C8091FA03282F30E0F3
:102D6000A20EB31E4A0C5B1C9CE3491651040CF0E6
:102D7000B2CF112309F4BBC0882399F1E1E0E80F39
:102D8000E093FA0328543C4F8CE2F9018083909140
:102D9000FA0381E0890F8093FA03E92FF0E0E85409
:102DA000FC4F22E220839095E92FE80FE60DF72DE6
:102DB000F11D2081A1E0A80FE82FF0E0E854FC4FBE
:102DC000222309F465C020838A2FEECFC110C4CF1F
:102DD00080910701222309F4BFCF813009F07BCF16
:102DE000BBCF91E09093FA039BE79093B80396E0F2
:102DF000EBE0F2E0DE01599601900D929A95E1F731
:102E000091E0980FE9E1F0E0EC0FFD1FE80FF11DF4
:102E10008081882339F0E92FF0E0E854FC4F80836B
:102E2000892FEECF9093FA038091B4039091B5036C
:102E3000A091B603B091B7030196A11DB11D809377
:102E4000B4039093B503A093B603B093B7034AE0DD
:102E5000BE016F5F7F4F0E940E302091FA03E22F78
:102E6000AE2FA21B81E090E08C0F9D1F8A0F911D59
:102E7000DC019C9181E08E0FF0E0E854FC4F992337
:102E800019F09083E82FECCF8093FA038CE27ECF89
:102E900092E29083E2E0E80FE093FA03B0E0A854F6
:102EA000BC4F2AE32C93FF2039F08D5F8093FA0307
:102EB000F0E0E854FC4F90838091FA03F40190E035
:102EC0002191A82FA90FB0E0A854BC4F2C939F5F6D
:102ED0009117B0F3E82FEC0D8F5FF1100AC0E0936B
:102EE000FA03E091FA03F0E0E854FC4F108201E0AD
:102EF00015CFC80EC092FA03F0E0E854FC4F82E20E
:102F00008083EFCF88E1E1E1F2E0DE0111960190EC
:102F10000D928A95E1F780910701882309F4DBCEB1
:102F2000609100058AEFE82E04E028E1AE014F5FD2
:102F30005F4F8AEA96E00E94950CCDCE4F925F9249
:102F40006F927F928F929F92AF92BF92CF92DF92B9
:102F5000EF92FF920F931F93CF93DF93CDB7DEB71E
:102F60002B970FB6F894DEBF0FBECDBF9091010135
:102F7000892B809301019CEA892E91E0992EF12CF6
:102F8000E12C5524539466246394712CF4018191AF
:102F90004F010E94FA045C0144244394019709F014
:102FA000412CC7018D519B4F6C01FC01808183FF37
:102FB00007C0808182FF04C0808187FF5092070490
:102FC00083010E2C02C0000F111F0A94E2F78091BA
:102FD000050490910604A8014823592321E0452BBC
:102FE00009F420E0241105C020910101222309F4F5
:102FF00097C0F601208126FF5FC083E0E9E0F1E0A1
:10300000DE01119601900D928A95E1F71D821C82D6
:103010004AE0BE01675F7F4FC7010E940E3042E069
:1030200050E0BE01675F7F4FCE0101960E944F378F
:103030004AE0BE016A5F7F4F842D90E00E940E300F
:1030400020E041E0BE016A5F7F4FCE0101960E9401
:10305000E715882371F08091050490910604F1E052
:10306000AF16B10419F5802B912B90930604809331
:103070000504509207048091BC04882371F150929A
:10308000070480910101811102C05092BD0480911A
:10309000050490910604AA94AB2809F06FC0082B90
:1030A000192B10930604009305043AC0980120954B
:1030B000309582239323D9CF21E0A216B10439F4AD
:1030C000802B912B9093060480930504D4CF980114
:1030D0002095309582239323F5CFF4013197808199
:1030E000F601AA94AB2809F040C0908193FF3AC042
:1030F0000E944C0DF601808187FF12C0F701EE0F90
:10310000FF1FEE0FFF1FE056FB4F80819181A281D0
:10311000B3810196A11DB11D80839183A283B383E6
:103120002FEFE21AF20A87E0E816F10409F02ECF39
:103130001092010180E02B960FB6F894DEBF0FBE0F
:10314000CDBFDF91CF911F910F91FF90EF90DF9056
:10315000CF90BF90AF909F908F907F906F905F9037
:103160004F9008950E94160DC5CF908192FF03C025
:103170000E944C0DD5CF0E94160DD2CF0095109510
:10318000082319238ECFDF92EF92FF920F931F93A4
:10319000CF93DF93C82F10920804109207040E9467
:1031A0000C0D8091F70483FF04C060E086E00E946C
:1031B00023058091F70482FD04C061E081E10E9453
:1031C00023058091F20482FF08C084EF0E94411120
:1031D000682F6C7F84EF0E94DD0E8091F70485FFDD
:1031E00007C021E040E06DE572E0CB010E94E715E9
:1031F0008091F30484FD04C08091F30483FF0DC02B
:103200008091F70484FD09C08091F70487FD05C013
:1032100061E082E796E00E942B06D0907C0010923D
:103220007C00E0907A0010927A00F0906400109296
:1032300064008091F9048F3F21F48091F8048F3F5E
:1032400059F088E190E021E60FB6F894A8958093B4
:1032500060000FBE20936000CC2309F468C0C091C9
:10326000F9048091F804C89FE0011124219700918E
:10327000F9048091F804089F8001112460E08AEA33
:1032800096E00E94D40FC017D10708F053C0809178
:10329000F70481FF0EC08091F70482FF0AC060E04E
:1032A00081E10E9423050E94FB0C61E081E10E9404
:1032B000230583B7817F846083BF83B7816083BF29
:1032C000789483B7816083BF889583B78E7F83BFEF
:1032D000C430D105A9F48091F30484FD04C0809129
:1032E000F30483FF0DC08091F70487FF09C0F092BB
:1032F000640061E082E796E00E942B061092640071
:103300008091F20483FF06C062E370E080E090E009
:103310000E94E4058091070481110CC0809108048B
:10332000882319F01092080421972196ACCFD0E0A1
:10333000C0E09DCF0E940C0DF0926400D0927C0002
:10334000E0927A0081E0809307018091F20482FF8D
:1033500008C084EF0E944111682F636084EF0E94CF
:10336000DD0E8091F70480FF04C060E081E10E94DF
:1033700023058091F30484FD04C08091F30483FF4E
:1033800005C060E082E796E00E942B068091F7047A
:1033900083FF04C061E086E00E94230588E199E292
:1033A0000FB6F894A895809360000FBE90936000CC
:1033B000DF91CF911F910F91FF90EF90DF900895D3
:1033C000CF92DF92EF92FF921F93CF93DF93CDB70F
:1033D000DEB72A970FB6F894DEBF0FBECDBF182F09
:1033E0008EE480937C0062E070E080E090E00E94D8
:1033F000E40580917A00806480937A0080917A005D
:1034000086FDFCCF8091780020917900322F282F03
:1034100050E040E06CE374EF80E190E00E94793589
:103420006901112381F04AE0BE016F5F7F4FC60141
:103430000E940E3020E040E0BE016F5F7F4F89E2C6
:1034400092E00E94E715C6012A960FB6F894DEBFF7
:103450000FBECDBFDF91CF911F91FF90EF90DF9016
:10346000CF9008952F923F924F925F926F927F92EA
:103470008F929F92AF92BF92CF92DF92EF92FF9284
:103480000F931F93CF93DF93CDB7DEB762970FB63D
:10349000F894DEBF0FBECDBF382E3BEFA32E33E036
:1034A000B32E4AE0C42ED12CCE010B969A8B898B79
:1034B00052E2852E912C62E0262EF601ED51FB4F53
:1034C0007F018081882309F4BDC0808182FF07C00D
:1034D00080910001815009F4D9C08093000183E0FC
:1034E000EEE0F1E0DE01189601900D928A95E1F789
:1034F000E989FA8923E011922A95E9F7F601E45562
:10350000FE4F10814AE0BE01625F7F4F812F90E045
:103510000E940E3042E050E0BE01625F7F4FCE015C
:1035200008960E944F371E3008F01E508091060109
:10353000E0E48E9FC00111241770182B10937C00BB
:1035400080917A00806480937A0080917A0086FD71
:10355000FCCF6091780000917900102F062FF501C3
:10356000808191819C018233910510F022533109B1
:10357000C2968017910730F00217130718F0332016
:1035800009F460C0F50111830083F701808180FD9B
:1035900028C0808181FD25C0808183FD22C080817B
:1035A00084FD03C0808182FF1CC080E00E94E0197E
:1035B000BC0190E080E00E94C63320E030EC4FE791
:1035C00054E40E941F332B013C01B80190E080E0DD
:1035D0000E94C633A30192010E94C6340E94913317
:1035E0008B01F701808182FF0FC0045F114017FF3C
:1035F00002C010E000E0C801880F991F800F911FE2
:10360000B4010E9443358B01F701808186FF02C01F
:10361000000F111FF701808187FF04C0000F111FE9
:10362000000F111F4AE0BE016F5F7F4FC8010E946B
:103630000E3020E040E0BE016F5F7F4FCE01089664
:103640000E94E715FFEFCF1ADF0A22E0A20EB11C9D
:103650008EE0C816D10409F030CF62960FB6F89408
:10366000DEBF0FBECDBFDF91CF911F910F91FF90B5
:10367000EF90DF90CF90BF90AF909F908F907F9012
:103680006F905F904F903F902F900895209200018F
:1036900061E080E00E94830561E080E00E942305F4
:1036A00060E177E280E090E00E94E40560E080E085
:1036B0000E94230564EF71E080E090E00E94E40541
:1036C0000ECF2F923F924F925F926F927F928F9286
:1036D0009F92AF92BF92CF92DF92EF92FF920F93A1
:1036E0001F93CF93DF93CDB7DEB7CE5ED1090FB670
:1036F000F894DEBF0FBECDBF8AEA96E00E94730C3D
:10370000782E882309F4DFC38091F70483FF04C077
:1037100061E085E00E942305E0904B04809146041F
:1037200090914704F0904C040F2D10E0A80169E03F
:1037300074E0CE018F559F4F0E942037809149043D
:10374000882359F080914A048F3F39F040E06DE5BD
:1037500072E08AEA96E00E943A158AEA96E00E94B0
:10376000730C80910005E812A0C3E1EAF0E0EC0FD1
:10377000FD1FE00FF11F108200E09E012F553F4F0B
:10378000790114E162E27FE2C7010E9434376C01E3
:10379000892B09F467016FE570E0C6010E94343798
:1037A0007C01802E912C81E090E08C0F9D1F019F69
:1037B000800D911D1124E114F10409F481C0570119
:1037C000AC18BD0831E0A31AB108B6016F5F7F4F96
:1037D000A5010E945F37189DC001199D900D11240D
:1037E000E1E0F0E0EC0FFD1F8E0F9F1FA80EB91E49
:1037F000F5011082DD24D394D00EFFEFEF1AFF0AFB
:1038000062E27FE2C7010E9434375C01009709F44D
:1038100055C04C018E189F0821E030E02C0F3D1F51
:10382000D19E200D311D11246901A401B701C901E8
:103830000E945F37C80CD91CF601108272E0672E17
:10384000600E7501FFEFEF1AFF0A62E27FE2C70127
:103850000E943437009781F17C012FEFE21AF20ABF
:1038600062E27FE2C7010E9434376C01009721F1C8
:103870004C018E189F08AA24A394B12CAC0EBD1E37
:10388000619EA00CB11C1124A401B701C5010E94C6
:103890005F37A80CB91CF501108263E0662E600E3C
:1038A000FFEFCF1ADF0A62E27FE2C6010E943437DF
:1038B0007C01892B09F47601062D64CF0D2D62CF92
:1038C00044E150E0B6010E945F37212C10E044E152
:1038D000642E2EED30E02C0F3D1F2D5F3F4FC35166
:1038E000DF4F39832883CD5ED040169D60011124BF
:1038F0006EE272E081E090E08C0F9D1F8C0D9D1DAB
:103900000E943F37892B09F08FC0560134E1A30E86
:10391000B11C81E090E08C0F9D1FA80EB91EC5015F
:103920000E94E52F7C019FE1E916F1040CF07CC0B8
:10393000C6018896E1E0F0E0EC0FFD1F8E0F9F1F9F
:103940000E94E52F6701DD24960120503040490197
:10395000682FC9010E94D532C4010E94C332F6010A
:10396000ED51FB4F6F0180832091010530E0A0E114
:10397000B7E20E9498356093D7047093D80480937F
:10398000D9049093DA042091FB0430E0A8E8B3E175
:103990000E9498356093CE047093CF048093D00436
:1039A0009093D1042091FA0430E00E9498356093FE
:1039B000C1047093C2048093C3049093C40483E051
:1039C000E4E1F1E0DE01A252BF4F01900D928A9531
:1039D000E1F7C351DF4FE881F981CD5ED04027E0A8
:1039E00011922A95E9F742E050E0B501CE018252EA
:1039F0009F4F0E944F37F60180814AE0BE01685117
:103A00007F4F90E00E940E3020E040E0BE01685100
:103A10007F4FCE0182529F4F0E94E7151E5F8CEEB2
:103A20008E0D853008F0272C169D7001112462E65A
:103A300072E081E090E08C0F9D1F8E0D9F1D0E9413
:103A40003F37892BE9F583E0E4E1F1E0DE01A252A2
:103A5000BF4F01900D928A95E1F7C351DF4FE88186
:103A6000F981CD5ED04027E011922A95E9F734E143
:103A7000E30EF11C81E090E08C0F9D1FE80EF91E13
:103A800042E050E0B70183529F4F0E944F37C70179
:103A90000E94E52F8D519B4FFC0180814AE0BE01C1
:103AA00068517F4F90E00E940E3020E040E0BE0160
:103AB00068517F4FCE0182529F4F0E94E7151E5FD3
:103AC000169D40011124CC24C394D12CCC0EDD1EB4
:103AD000C80CD91C60E372E0C6010E943F37892BF5
:103AE00009F046C0F12CE12C97012D513B4F5901B3
:103AF000F90180818823A1F183E0E4E1F1E0DE01B6
:103B0000A252BF4F01900D928A95E1F7CF51DF4F3E
:103B100019821882C15ED0404AE0BE0168517F4FD1
:103B2000C7010E940E3044E050E0BE0168517F4F53
:103B3000CE0182529F4F0E944F37F50180814AE0AB
:103B4000BE0168517F4F90E00E940E3020E041E0BE
:103B5000BE0168517F4FCE0182529F4F0E94E715F0
:103B6000FFEFEF1AFF0A2FE1E216F10409F0BCCFD4
:103B700066ED72E0C6010E943F37892B81F5740122
:103B800034E1E30EF11C81E090E08C0F9D1FE80E04
:103B9000F91EC7010E94E52F8D519B4FFC018081CA
:103BA00085FD1092BF04F8E28F0E911C21E030E0F9
:103BB0002C0F3D1F820E931E65E372E0C4010E942C
:103BC0003F37892B09F031C1C7010E94E52F845589
:103BD0009E4F61E0FC0180810E9423051E5F169DBF
:103BE0007001112488248394912C8C0E9D1E8E0CC0
:103BF0009F1C67E372E0C4010E943F37892BC1F527
:103C00006701F8E2CF0ED11C21E030E02C0F3D1F00
:103C1000C20ED31E6BE372E0C6010E943F372C0137
:103C2000570134E1A30EB11C81E090E08C0F9D1F81
:103C3000A80EB91EC5010E94E52F825C9E4FFC01B3
:103C40003080452809F000C161E0832D0E942305E2
:103C500064E670E080E090E00E94E405C5010E9407
:103C6000E52F825C9E4F60E0FC0180810E9423056D
:103C700061E472E0C4010E943F37892B79F441E18D
:103C800050E061E270E0C701889621E030E02C0F3F
:103C90003D1F820F931F0E94CB32272C6BEC72E0EA
:103CA000C4010E943F37892B51F58091F30483FFB3
:103CB000D6C0670134E1C30ED11C81E090E08C0FC7
:103CC0009D1FC80ED91EC6010E94E52F62E0680F35
:103CD00041E552E084E00E94F608C6010E94E52F0B
:103CE000A701485D5F4FE1E0F0E0EC0FFD1F4E0FD4
:103CF0005F1F62E0680F84E00E94F6081E5F169D59
:103D000070011124CC24C394D12CCC0EDD1ECE0C1A
:103D1000DF1C63ED72E0C6010E943F37892BE1F49E
:103D200081E08093BC04C701889621E030E02C0F2D
:103D30003D1F820F931F0E94E52F60E00E94960DA9
:103D400020E041E06EE572E0882311F068E672E061
:103D500084E692E00E94E7156BE672E0C6010E94DD
:103D60003F37892B31F50E9417066093C504709385
:103D7000C6048093C7049093C8046091C5047091F1
:103D8000C6048091C7049091C8042AE0AE01425253
:103D90005F4F0E94193020E040E0BE0162527F4F29
:103DA0008EE692E00E94E7151092C0041092BF04C4
:103DB0001E5F1F5F011708F098CD222099F020E0C8
:103DC00040E063E772E088E892E00E94E715A8957A
:103DD00088E199E20FB6F894A895809360000FBE31
:103DE000909360008091F70483FF04C060E085E059
:103DF0000E942305872DC251DF4F0FB6F894DEBF16
:103E00000FBECDBFDF91CF911F910F91FF90EF902B
:103E1000DF90CF90BF90AF909F908F907F906F90EA
:103E20005F904F903F902F90089566E672E0C40136
:103E30000E943F37892B09F0D1CEC7010E94E52FA0
:103E400084559E4F60E0C6CE65E372E0C6010E94D5
:103E50003F3761E0892B09F060E0832D07CF809127
:103E6000F30484FF4BCF6701F4E1CF0ED11C21E0B6
:103E700030E02C0F3D1FC20ED31EC6010E94E52F5D
:103E800045E452E0682F80E00E94F608C6010E94D7
:103E9000E52FA701485D5F4FE1E0F0E0EC0FFD1F6B
:103EA0004E0F5F1F682F80E027CF609100058AEFDB
:103EB000E82E04E02F2DAE014F555F4F8AEA96E0C1
:103EC0000E94950C8FCF8AEA96E00E94730C92CFE5
:103ED000CF92DF92EF92FF920F931F93CF93DF93D6
:103EE0001F92CDB7DEB7C82EDD24D39410E088230F
:103EF00049F083E1898382E0D82E10E006C032E0E9
:103F0000D32E11E081E18983C12C809107018823A0
:103F100069F0609100052AEFE22E04E021E0AE0195
:103F20004F5F5F4F8AEA96E00E94950CF12CE12CDE
:103F30000E94611B882311F0F12CE12C61E070E0FC
:103F400080E090E00E94E4058FEFE81AF80A83EC25
:103F5000E81681E0F80661F7C1102AC08091F904E3
:103F6000811104C08091F804882311F182E18983D2
:103F700080910701882369F0609100059AEFE92E8E
:103F800004E021E0AE014F5F5F4F8AEA96E00E94B5
:103F9000950C1F5F1D1508F4B2CF81E00F90DF91E3
:103FA000CF911F910F91FF90EF90DF90CF900895E8
:103FB00084E1DDCF1F920F920FB60F9211242F9341
:103FC0003F934F935F936F937F938F939F93AF93A1
:103FD000BF93EF93FF9385E795E00E944204FF9122
:103FE000EF91BF91AF919F918F917F916F915F9171
:103FF0004F913F912F910F900FBE0F901F901895EA
:104000001F920F920FB60F9211242F938F939F93AD
:10401000EF93FF93E0918505F09186058081E09113
:104020008B05F0918C0582FD1BC0908180918E05DF
:104030008F5F8F7320918F05821741F0E0918E057D
:10404000F0E0EB58FA4F958F80938E05FF91EF913A
:104050009F918F912F910F900FBE0F901F901895E9
:104060008081F4CF1F920F920FB60F9211242F93DD
:104070003F938F939F93AF93BF93809194049091BC
:104080009504A0919604B09197043091930423E095
:10409000230F2D3758F50196A11DB11D20939304D0
:1040A0008093940490939504A0939604B0939704FE
:1040B0008091980490919904A0919A04B0919B04E6
:1040C0000196A11DB11D8093980490939904A0932B
:1040D0009A04B0939B04BF91AF919F918F913F91B0
:1040E0002F910F900FBE0F901F90189526E8230F69
:1040F0000296A11DB11DD2CF1F920F920FB60F9243
:1041000011242F933F934F935F936F937F938F93DC
:104110009F93AF93BF93EF93FF93E0910401F091CE
:1041200005010995FF91EF91BF91AF919F918F91FB
:104130007F916F915F914F913F912F910F900FBEA3
:104140000F901F9018951F920F920FB60F92112487
:104150002F933F934F935F936F937F938F939F938F
:10416000AF93BF93EF93FF93E0910201F0910301AE
:104170000995FF91EF91BF91AF919F918F917F91A1
:104180006F915F914F913F912F910F900FBE0F90C4
:104190001F9018951F920F920FB60F9211242F9314
:1041A0003F934F935F936F937F938F939F93AF93BF
:1041B000BF93EF93FF938091B900887F803609F415
:1041C0004AC0F0F5883209F4A7C018F5803109F427
:1041D0009BC0B8F4882309F4F9C0883009F494C06E
:1041E000FF91EF91BF91AF919F918F917F916F91CF
:1041F0005F914F913F912F910F900FBE0F901F90A5
:104200001895883109F488C0803251F780934E05A3
:1042100014C0803409F49DC040F48033B9F388336E
:10422000F9F680934E0585ECB0C0803509F485C061
:10423000883509F496C0883499F60E948809D0CF51
:10424000883909F48CC038F5883729F050F488365D
:1042500011F0803729F683E0809350051092910485
:1042600057C0883809F47BC0803919F0803809F0CC
:10427000B7CF80919104803208F071C0E091910431
:1042800081E08E0F809391048091BB00F0E0EF58A5
:10429000FB4F80833DC0803B39F0E0F4803A09F465
:1042A00079C0883A09F09CCF84E080935005109241
:1042B000700410926F04E0910605F09107050995CE
:1042C00080916F0481110FC081E080936F04109280
:1042D0004F0409C0803C09F4A6CF883C09F4A3CF61
:1042E000883B09F07DCFE091700481E08E0F8093D0
:1042F0007004F0E0E15BFB4F80818093BB00909104
:10430000700480916F0429C080912B058093BB00BD
:1043100085EC8093BC0064CF90914D0580914C0555
:10432000981758F5E0914D0581E08E0F80934D056B
:10433000F0E0E45DFA4F8081E9CFE0914D0581E046
:104340008E0F80934D058091BB00F0E0E45DFA4F45
:10435000808390914D0580914C059817C8F285E8AF
:10436000D8CFE0914D0581E08E0F80934D0580916F
:10437000BB00F0E0E45DFA4F808380914F0581112E
:104380005CCF81E080932A0584EA8093BC00109280
:10439000500526CF85EC8093BC001092500580918B
:1043A0009104803230F4E0919104F0E0EF58FB4F3B
:1043B00010826091910470E0E0910405F091050590
:1043C00081E794E00995109291040ACF10924E056E
:1043D00034CF1F920F920FB60F9211248F9383B791
:1043E0008E7F83BF8F910F900FBE0F901F901895F7
:1043F0001F920F920FB60F9211242F933F934F935A
:104400005F936F937F938F939F93AF93BF93CF935C
:10441000EF93FF93F89462E070E080E090E00E94F8
:10442000E405789483B78E7F83BFC0910701109213
:10443000070180E00E949E1781E08093D604C0931C
:10444000070180930804FF91EF91CF91BF91AF9145
:104450009F918F917F916F915F914F913F912F919C
:104460000F900FBE0F901F9018951F920F920FB6CE
:104470000F9211242F933F934F935F936F937F93EA
:104480008F939F93AF93BF93EF93FF930E94F82175
:10449000FF91EF91BF91AF919F918F917F916F911C
:1044A0005F914F913F912F910F900FBE0F901F90F2
:1044B00018951F920F920FB60F9211242F933F93CE
:1044C0004F935F936F937F938F939F93AF93BF931C
:1044D000EF93FF930E94F821FF91EF91BF91AF916D
:1044E0009F918F917F916F915F914F913F912F910C
:1044F0000F900FBE0F901F901895CF9310927805D4
:104500001092770588EE93E0A0E0B0E08093790503
:1045100090937A05A0937B05B0937C052FEB31E057
:10452000309376052093750525EC30E030938205B5
:104530002093810524EC30E030938405209383059B
:1045400020EC30E0309386052093850521EC30E0A7
:10455000309388052093870522EC30E030938A055C
:104560002093890526EC30E030938C0520938B0551
:1045700010928E0510928F05109290051092910561
:104580001092150610921406809316069093170643
:10459000A0931806B093190681ED91E0909313064D
:1045A000809312068FEE91E09093AB068093AA065B
:1045B00088E08093AC0683E08093AD0681E0809331
:1045C000AE068093A9061092B0068FE18093B106E3
:1045D0001092B20610927106109270061092A70601
:1045E0001092A80683EE91E090936F0680936E067A
:1045F00010927306109272061092870610928A0625
:1046000010928B0610927E0610927F061092800602
:10461000109281068FEF8093880680938D06E1E9E2
:10462000F6E0CFEFC19386E0E73AF807D9F78BEAD7
:1046300096E0909377068093760680EA97E09093D1
:1046400079068093780680E19AE090937B068093C8
:104650007A068EEF98E090937D0680937C0630E09A
:1046600020E040E069E082E796E00E94AB06C0935C
:104670009C06C0939D06C0939E0660E089E00E9460
:104680008305E1EBF2E0E491E0936006EDE9F2E00E
:10469000E491F0E0EE0FFF1FE657FD4F85919491F6
:1046A000909362068093610610926B0610926D06DD
:1046B00010926C0610926A061092690610926806B3
:1046C00010926706109266061092650610926406B4
:1046D0001092630680E696E090935306809352060C
:1046E000109250061092510610924C0689E0809369
:1046F0004D0681E080934E0680934F0610925F0630
:1047000010925E06C0932706C0932806C093290620
:10471000C0932A06CF910895CF93DF93CDB7DEB72C
:10472000CB57D1090FB6F894DEBF0FBECDBF78943A
:1047300084B5826084BD84B5816084BD85B58260A6
:1047400085BD85B5816085BD80916E008160809357
:104750006E001092810080918100826080938100C0
:1047600080918100816080938100809180008160D0
:10477000809380008091B10084608093B10080912B
:10478000B00081608093B00080917A008460809353
:104790007A0080917A00826080937A0080917A001A
:1047A000816080937A0080917A00806880937A009B
:1047B0001092C1000E940C0D80E090E00E94C33274
:1047C0008F3FC1F500E010E060E0C8010E94D532E3
:1047D0000F5F1F4F20E00C311207B1F76FEF8AE136
:1047E00090E00E94D5326EEF8BE190E00E94D532CE
:1047F00061E08CE190E00E94D53261E08DE190E0D3
:104800000E94D53265E18EE190E00E94D5326FEAD8
:104810008FE190E00E94D53260E080E290E00E945B
:10482000D53241E150E061E270E08EE892E00E9412
:10483000CB3216C08FE190E00E94C3328F3A11F65E
:1048400062E08FE00E94830561E070E080E090E02C
:104850000E94E4058FE00E94FA04892B09F4B2CF8C
:1048600010E000E0C801805090400E94C332F8017F
:10487000ED51FB4F80830F5F1F4F0132110591F700
:10488000E0EAF4E08CEB94E0119211921192119213
:104890008E179F07C9F72091010530E0A0E1B7E22C
:1048A0000E9498356093D7047093D8048093D904FC
:1048B0009093DA042091FB0430E0A8E8B3E10E9471
:1048C00098356093CE047093CF048093D004909376
:1048D000D1042091FA0430E00E9498356B017C01EC
:1048E000C092C104D092C204E092C304F092C40406
:1048F0000E9417066C197D098E099F096093C504F3
:104900007093C6048093C7049093C804CD28CE2822
:10491000CF2809F4E4C01092BF048091FF048130D5
:1049200031F48091FE048E3F11F41092070161E092
:1049300085E00E94830561E086E00E94830561E0D6
:1049400087E00E94830561E082E00E94830561E0C8
:1049500087E00E94230561E082E00E94230565E074
:1049600070E080E090E00E94E40560E082E00E9458
:1049700023056AE070E080E090E00E94E405309159
:10498000FF041091FE04FE0133968CE2DF011D92BC
:104990008A95E9F781E0898384E08A8322E02B838A
:1049A00093E09D832E838F8380E4888725E0298789
:1049B0009A8796E09B8793E39C8797E09D8728E002
:1049C0002F8729E0298B29E12B8B22E42C8B45E2D0
:1049D0004D8B8E8B46E24F8B988F98E2998F90E1AA
:1049E0009A8F99E29B8F9CED9C8F9EE29D8F98E819
:1049F0009E8F9FE29F8F9DE298A390E399A347E348
:104A00004BA340E94CA348E34DA32EA32CE32FA3D3
:104A10002FE828A72DE329A722E12AA72FE62BA715
:104A20009CA79FEF9DA79CE69E87888B3AA361E099
:104A30008091AC060E94230561E08091AC060E9443
:104A400083050E94140C0E9417066B017C014AEA40
:104A50006FE28AEA96E00E94190F6FE28AEA96E016
:104A60000E944E0F8A3A59F00E9417066C197D0970
:104A70008E099F09623371058105910540F30E94FB
:104A800017066B017C0145E56FE28AEA96E00E9419
:104A9000190F6FE28AEA96E00E944E0F853559F0B1
:104AA0000E9417066C197D098E099F0962337105F2
:104AB0008105910540F300E0FE0131966F01E02F82
:104AC000F0E0EE0FFF1FEC0DFD1D60816F3F59F010
:104AD00041818AEA96E00E94190F0F5FF0CF81E0D2
:104AE0008093BF041ACF90E080E00E943D10609157
:104AF000B2068AEA96E00E946C0F61E08AEA96E0CC
:104B00000E94D40F0E9417064B015C0167E28AEAFB
:104B100096E00E944E0F87FD0BC00E941706681991
:104B200079098A099B09623371058105910570F342
:104B30000E941706681979098A099B096233710571
:104B40008105910570F510929E048091AE06823029
:104B500098F4E82FF0E0EE0FFF1FEE5FFE4F23EB1F
:104B600033E031832083813009F4A5C1809169004D
:104B7000836080936900E89A8AEA96E090939D04A6
:104B800080939C041093AF0667E00E944E0F182F8D
:104B900067E08AEA96E00E944E0F1F3F11F08111F4
:104BA00017C014E160E087E00E94230564E670E02E
:104BB00080E090E00E94E40561E087E00E94230528
:104BC00064E670E080E090E00E94E405115051F747
:104BD0006FE18AEA96E00E94BB0F41E150E061E29A
:104BE00070E0CE01CD960E94B332CE01CD960E94E8
:104BF0003D108AEA96E00E94730C8091ED048111C9
:104C00000BC08091EE04811107C08091EF048111E7
:104C100003C08091F0048111109206011CEA812EDC
:104C200011E0912E10E000E0D401FD904D01F8015B
:104C3000ED51FB4F5F01FAE0FF1661F0D5016C9179
:104C400061708F2D0E948305F501608162708F2D48
:104C50000E942305D5018C9182FF03C08F2D0E94F5
:104C60004C0D0F5F1F4F07301105F1F68091F704CF
:104C700080FF08C061E081E10E94830560E081E17E
:104C80000E9423058091F20481FF08C060E080E06B
:104C90000E94830561E081E00E9483058091F30416
:104CA00084FD04C08091F30483FF6FC0E091760619
:104CB000F091770630E020E040E06AE082E796E09D
:104CC000099588E0F60111928A95E9F7C6010E94DC
:104CD0006F0360E082E796E00E942B0660E082E7C7
:104CE00096E00E942B064091FD04E0917606F0913B
:104CF000770630E020E06EE082E796E009958CEBE5
:104D000092E0909383068093820686E0EEE1F1E0E4
:104D1000D60101900D928A95E1F7FE01379684E065
:104D2000DF011D928A95E9F78091FE044AE0BE01F9
:104D3000625B7F4F90E00E940E3043E050E0BE0186
:104D4000625B7F4FC6010E944F37A60162E084E09C
:104D50000E94F6086FE972E0C6010E944837809110
:104D6000FF044AE0BE01625B7F4F90E00E940E307C
:104D700043E050E0BE01625B7F4FC6010E944F37A7
:104D8000A60163E084E00E94F6088091F60480FDAD
:104D900024C380E290E00E94C3328111D9C061E057
:104DA00080E290E00E94D53288E199E20FB6F89453
:104DB000A895809360000FBE90936000F89480E8FF
:104DC00021E030E00FB6F8948093610020936100F9
:104DD0000FBE00916600609080007090810080900E
:104DE000820090906F00A090B000B090B100E09071
:104DF0007000F090B6001092800010928100109226
:104E0000820010926F001092B0001092B1001092C8
:104E100070001092B60066E28AEA96E00E944E0F99
:104E2000582E45E066E28AEA96E00E94190F109239
:104E3000700083B5826883BD80E48093B600809162
:104E4000B60080628093B60081E08093B10010923A
:104E5000B00083B58F7783BD87B3182F117080FFA3
:104E6000FBCF87E087BB81E08093810080E880935F
:104E7000660021E837E0112359F1B89BFCCF23BD30
:104E800037BB809184009091850010FD1FC0AC015C
:104E90004D5F534047305105D8F08115944090F450
:104EA000809166008F5F809366001092850010925B
:104EB00084001F5FE0CF809169008C60809369005F
:104EC000E99A5ACE809166008150EDCF13BCF1CFA4
:104ED0007894452D66E28AEA96E00E94190F609266
:104EE0008000709281008092820090926F00A09268
:104EF000B000B092B100E0927000F092B60087E28C
:104F000086BB87E087BB13BC111119C000936600F4
:104F100080910701882399F081E1EEEEF2E0D6015D
:104F200001900D928A95E1F760910005BAEFEB2EA2
:104F300004E021E1A6018AEA96E00E94950C60E077
:104F400080E290E00E94D5320E940C0D11E018C062
:104F5000809107018823D1F388E1EFEFF2E0D601D9
:104F600001900D928A95E1F760910005AAEFEA2E73
:104F700004E028E1A6018AEA96E00E94950C10E080
:104F80008091F30481FF35C0E0918505F09186059D
:104F900082E08083E0918105F09182051082E091AA
:104FA0008305F09184058FEC808310928D05E0914C
:104FB0008905F0918A0586E08083E0918705F0916C
:104FC0008805808180618083E0918705F091880564
:104FD000808188608083E0918705F09188058081D9
:104FE00080688083E0918705F091880580818F7DBE
:104FF00080838091F20482FF1CC00E94D511811130
:1050000018C0809107018823A1F089E1E7E1F3E06E
:10501000D60101900D928A95E1F760910005EAEFC3
:10502000EE2E04E029E1A6018AEA96E00E94950CA2
:1050300010E060E080E290E00E94D53280910701AC
:10504000882349F18CE3E0E3F3E0D60101900D926F
:105050008A95E1F7609100057AEFE72E04E02CE3F2
:10506000A6018AEA96E00E94950C1123A1F08DE03A
:10507000ECE6F3E0DE01A25BBF4F01900D928A9552
:10508000E1F7609100052DE0AE01425B5F4F8AEAD7
:1050900096E00E94950C60E087E00E9423058091D5
:1050A000F70483FF04C060E087E00E94230580913D
:1050B000F70481FF1FC00E9417060091DF041091C2
:1050C000E0042091E1043091E204601B710B820B3B
:1050D000930B693B7B408105910560F00E941706A8
:1050E0006093DF047093E0048093E1049093E20402
:1050F0000E94FB0C61E080E00E94960D0E94170662
:1051000020910801C090DB04D090DC04E090DD0425
:10511000F090DE046C197D098E099F09C090D704B8
:10512000D090D804E090D904F090DA04C616D706DF
:10513000E806F90608F465C1211165C180E00E9406
:105140009E1780E00E94321A0E9417060091CE043A
:105150001091CF042091D0043091D104C090D2049A
:10516000D090D304E090D404F090D5046C197D095C
:105170008E099F09061717072807390720F0809125
:10518000CD048823B1F0012B022B032B91F00E9458
:1051900017066093D2047093D3048093D404909341
:1051A000D50420E041E06BED72E08BE692E00E94D6
:1051B000E7150E941706E091FE040091C9041091C2
:1051C000CA042091CB043091CC04AB01BC01401B3C
:1051D000510B620B730B8E2F90E088519C4F092E60
:1051E000000CAA0BBB0B84179507A607B70788F41A
:1051F0000E9417066093C9047093CA048093CB047D
:105200009093CC0420E040E06DE572E0CB010E9479
:10521000E7150E9417060091C5041091C60420915D
:10522000C7043091C804601B710B820B930B009173
:10523000C1041091C2042091C3043091C404061724
:1052400017072807390748F58091C00481110BC062
:1052500020E041E062EE72E08EE692E00E94E71507
:1052600081E08093C00410E000E0F801ED51FB4FB5
:10527000808185FF0AC09081F801E455FE4F80814E
:1052800061E091FF60E00E9423050F5F1F4F073030
:10529000110559F781E08093BF048091BE0481110C
:1052A00009C080910701882319F081E00E94681FDE
:1052B0008093BE048091F904882309F46FC0809123
:1052C000F804882309F46AC08091BF04882309F494
:1052D00065C080910701882319F080E00E94681F53
:1052E0008091F30480FF04C060E081E00E948305A8
:1052F0008091BD04882331F18091BC04882311F191
:105300006AE070E080E090E00E94E4051092BD0445
:1053100080E00E94FA04892B09F41CC681E00E94F7
:10532000FA04892B09F416C661E087E00E94230580
:105330006EE170E080E090E00E94E40560E087E0CC
:105340000E9423058091F30480FF04C061E081E0A6
:105350000E94830561E080E00E94960D8091BF0469
:105360008823E1F08091F70483FF04C060E087E0C8
:105370000E9423058091F70420E040E06DE572E093
:1053800086FFF5C5CB010E94E715182F81E0812724
:105390000E94C318109308011093CD048091F90462
:1053A000882321F08091F804811102C00E94611BC2
:1053B0008091F70483FF04C061E087E00E94230529
:1053C00080E090E0892B09F46ACE0E942E048823A5
:1053D00009F465CE0E94000062CE80910701882307
:1053E00009F4B4CD87E1E9E7F3E0D60101900D922D
:1053F0008A95E1F760910005FAEFEF2E04E027E1CE
:10540000B9CD222351F08091F20480FF06C068EEEE
:1054100073E080E090E00E94E4050E94170660932C
:10542000DB047093DC048093DD049093DE048091B0
:10543000F904882319F081E00E94E0198091F204B8
:1054400080FF5CC180919F04811191C0E091520660
:10545000F0915306138615861486128611861086DF
:1054600017821682158214821382109250061092AF
:10547000510601E0BE016F5F7F4F8091520690910F
:1054800053060E94AE13882309F468C067E0CE017A
:1054900001960E949B0A98858913ECCF80914C0657
:1054A000811128C080915206909153060E944D0BA5
:1054B000BE016F5F7F4F80915206909153060E940C
:1054C0002E0B40E064EB80915206909153060E94AF
:1054D000FA0A80915206909153060E94A70A182F4B
:1054E00080915206909153060E944D0B111102C0FB
:1054F00000934C0610914D068981803109F443C513
:10550000CE0101960E94D10B8117C0F480914D0607
:1055100080934D06809150068F5F8093500689815D
:10552000883231F0A8F4803119F0823209F0A2CF2C
:10553000809151068F5F809351069CCF8981803185
:1055400011F48CE0E5CFCE0101960E94D10BE0CFA3
:105550008B3371F3823409F08DCFEACF81E08093F1
:105560009F046CED75E080E090E00E94E40580917E
:105570005206909153060E944D0B40E06CEC8091D6
:105580005206909153060E94FA0A40914C0664E438
:1055900080915206909153060E94FA0A80914E061D
:1055A0008823A1F1E0914D06E9505EEEC52E52E050
:1055B000D52EE33038F4F0E0EE0FFF1FEA55FE4F32
:1055C000C080D18080914F06882309F455C4809112
:1055D0004C06811151C40E9417064B015C010D2C31
:1055E000000CEE08FF0880915206909153060E942D
:1055F000A70A813059F00E9417066C197D098E099F
:105600009F09681579058A059B0568F3D12C4EE042
:10561000C42E7E01F4E0EF0EF11C80915006D816E6
:1056200008F05EC083E0E8E2F1E0DE01119601904F
:105630000D928A95E1F7D701EC2D1D92EA95E9F7D5
:105640006D2DCE01825B9F4F0E942C1481111BC4D3
:1056500060E070E08EEF92EC8E01035C1F4F21E062
:1056600043E00E94C72F6D2DCE01855A9F4F0E94A7
:105670002C14CE01855A9F4F5C0110E0D5018D910D
:105680005D014AE0BE01625B7F4F90E00E940E30F8
:1056900043E050E0BE01625B7F4FCE0101960E9465
:1056A0004F37123031F065EA72E0CE0101960E9468
:1056B00029371F5F133011F720E040E0BE01635C23
:1056C0007F4FCE0101960E94E715B5E6DB123CC480
:1056D00020E040E067EA72E08EE692E00E94E71583
:1056E0008091500681110AC010929F0420E040E092
:1056F00063EB72E08EE692E00E94E7158091F2047F
:1057000081FF08C020E041E063EC72E08DEC92E0A4
:105710000E94E7158091F20482FF51C30E942C136E
:105720008E010F5F1F4F21E043E00E94C72F20E052
:1057300040E0B80182ED92E00E94E7150E942C1330
:1057400087EF0E94A612EC966CAF7DAF8EAF9FAF35
:10575000EC978091230690912406A0912506B091A4
:1057600026066C017D01FF0CCC08DC2C76019C0127
:10577000AD016C2D7C2D8C2D9C2D345F4140510949
:105780006109710981099109A4962FAFA497A59683
:105790003FAFA597A6964FAFA697A7965FAFA797DF
:1057A000A8966FAFA897A9967FAFA997AA968FAF33
:1057B000AA97AB969FAFAB9759016A017B018C0109
:1057C0000E94BA35AC962FAFAC97AD963FAFAD9770
:1057D000AE964FAFAE97E4965FAFE497E5966FAFA6
:1057E000E597E6967FAFE697E7968FAFE797E8965F
:1057F0009FAFE8973091340620913306932F990F8D
:10580000990B492F592F692F792F892F0E94BA356B
:105810000CE00E94B236722E832E942E652E562EE8
:10582000472E382E292E3091360620913506932F9B
:10583000990F990BAC96AFACAC97AD96BFACAD974A
:10584000AE96CFACAE97E496DFACE497E596EFACBE
:10585000E597E696FFACE697E7960FADE797E896F3
:105860001FADE897492F592F692F792F892F0E9453
:10587000BA3508E00E94CB36A72CB82CC92CD62C00
:10588000E52CF42C032D122D0E94E83670588F4F12
:105890009F4F20903106309032065101C12CD12CFF
:1058A000E12CF12C00E010E00E94BA3501E20E94E8
:1058B000CB36AF962FAFAF97E0963FAFE097E1962C
:1058C0004FAFE197E2965FAFE297E3966FAFE39752
:1058D000272E382E492EA0E00E94FA3609F436C34E
:1058E00030913C0620913B06932F990F990BAC9673
:1058F000AFACAC97AD96BFACAD97AE96CFACAE9714
:10590000E496DFACE497E596EFACE597E696FFAC5E
:10591000E697E7960FADE797E8961FADE897492F12
:10592000592F692F792F892F0E94BA35AC962FAF46
:10593000AC97AD963FAFAD97AE964FAFAE97552EA5
:105940003B014C0130913A0620913906932F990F73
:10595000990BA496AFACA497A596BFACA597A696B5
:10596000CFACA697A796DFACA797A896EFACA89761
:10597000A996FFACA997AA960FADAA97AB961FADB3
:10598000AB97492F592F692F792F892F0E94BA354C
:1059900001E10E94B236AC96AFACAC97AD96BFAC0D
:1059A000AD97AE96CFACAE97D52C730184010E9413
:1059B000E83659016A017B01582E192FEC964CAD3F
:1059C0005DAD6EAD7FADEC9784E0759567955795AD
:1059D00047958A95D1F780E090E0A0E1B0E0841B84
:1059E000950BA60BB70B3C014D01990C6608762C64
:1059F00043019C01AD01662D762D862D962D0FE17C
:105A00000E94B23639014A01B62FA72FF82FE92F8D
:105A10003091380620913706932F990F990B492F13
:105A2000592F692F792F892F03E20E94B236052D55
:105A30000E94E83659016A017B018C019301A4019F
:105A40006B2F7A2F8F2F9E2F0E94F136E5E3AE2E1B
:105A5000FCE0BF2EC12CD12CE12CF12C00E010E099
:105A60000E94BA35AF96AFACAF97E096BFACE09767
:105A7000E196CFACE197E296DFACE297E396EFAC2C
:105A8000E397F22C032D142D0E941436A4962FAF09
:105A9000A497A5963FAFA597A6964FAFA697A796B2
:105AA0005FAFA797A8966FAFA897A9967FAFA99762
:105AB000AA968FAFAA97AB969FAFAB970DE00E94C7
:105AC000CB36922E832E742E652E562E472E382ED0
:105AD000292E3091420620914106932F990F990B60
