:100000000C94E0020C942A200C9403200C947F2181
:100010000C94E0210C94BC210C9470210C940803E6
:100020000C9408030C9408030C9408030C94080324
:100030000C9408030C9408030C9408030C94080314
:100040000C94B91F0C9408030C94871F0C94611F27
:100050000C9408030C9408030C9408030C940803F4
:100060000C9451200C94080300407A10F35A00A01D
:10007000724E18090010A5D4E80000E87648170071
:1000800000E40B54020000CA9A3B000000E1F505B1
:10009000000080969800000040420F000000A086FB
:1000A00001000000102700000000E803000000002D
:1000B0006400000000000A000000000001000000D1
:1000C00000002C76D888DC674F0823DFC1DFAE59EB
:1000D000E1B1B796E5E3E453C63AE651997696E87E
:1000E000E6C28426EB898C9B62ED407C6FFCEFBC02
:1000F0009C9F40F2BAA56FA5F490055A2AF75C932D
:100100006B6CF9676DC11BFCE0E40D47FEF520E662
:10011000B500D0ED902E0300943577050080841E45
:10012000080000204E0A000000C80C333333330FA0
:10013000986E12831141EF8D2114893BE65516CF3D
:10014000FEE6DB18D1844B381BF77C1D901DA4BB49
:10015000E424203284725E228100C9F124ECA1E5FE
:100160003D27005EBCE2613FDD83C29C7E20A3FD93
:100170001F419DC3217FFCA2401E5F01E3BD3E6085
:1001800082DC237D9FC1421CFEA0E1BF5D0380DEB7
:100190003C62BEE0025CDF81633D7C22C09E1D4369
:1001A000A1FF4618FAA427799BC584DA3866E5BB17
:1001B0005907DB856739BAE406581947A5FB782645
:1001C000C49A653BD987045AB8E6A7F91B45C69877
:1001D0007A24F8A6441A99C7257B3A6486D85B0529
:1001E000E7B98CD2306EEDB3510F4E10F2AC2F71D7
:1001F00093CD114FADF3702ECC92D38D6F31B2EC05
:100200000E50AFF1134DCE90722C6D33D18F0C5236
:10021000B0EE326C8ED0530DEFB1F0AE4C1291CFE8
:100220002D73CA947628ABF517490856B4EA693796
:10023000D58B5709EBB536688AD495CB2977F4AAC4
:100240004816E9B7550B88D6346A2B7597C94A14F6
:10025000F6A8742AC896154BA9F7B6E80A54D789A8
:100260006B3500000000240027002A000000000079
:10027000250028002B0000000008000201000003F8
:100280000407000000000000000000000000230040
:1002900026002900040404040404040402020202E7
:1002A0000202030303030303010204081020408039
:1002B000010204081020010204081020207F000021
:1002C00000000000000000065F5F0600000000075D
:1002D000070007070000147F7F147F7F1400242E7F
:1002E0006B6B3A120000466630180C666200307A7A
:1002F0004F5D377A48000407030000000000001C2F
:100300003E63410000000041633E1C000000082ADB
:100310003E1C1C3E2A0808083E3E080800000080DB
:10032000E06000000000080808080808000000005D
:100330006060000000006030180C060301003E7F82
:1003400071594D7F3E0040427F7F40400000627304
:1003500059494F660000226349497F360000181C46
:1003600016537F7F5000276745457D3900003C7E4E
:100370004B4979300000030371790F070000367F85
:1003800049497F360000064F49693F1E00000000C2
:100390006666000000000040763600000000081C81
:1003A000366341000000242424242424000000415A
:1003B00063361C080000020351590F0600003E7FFF
:1003C000415D5D1F1E007C7E13137E7C0000417F1B
:1003D0007F49497F36001C3E634141632200417FD3
:1003E0007F41633E1C00417F7F495D416300417F47
:1003F0007F491D0103001C3E6341517372007F7FE2
:1004000008087F7F000000417F7F410000003070BE
:1004100040417F3F0100417F7F081C776300417F9F
:100420007F41406070007F7F0E1C0E7F7F007F7FCA
:10043000060C187F7F001C3E6341633E1C00417F19
:100440007F49090F06001E3F21717F5E0000417F3A
:100450007F09197F660022674D597322000003410E
:100460007F7F410300007F7F40407F7F00001F3F70
:1004700060603F1F00007F7F3018307F7F00436740
:100480003C183C674300074F78784F0700004763EC
:1004900071594D677300007F7F41410000000103E7
:1004A000060C183060000041417F7F000000080CFE
:1004B0000603060C08008080808080808080000019
:1004C000030704000000207454543C784000417F2E
:1004D0003F4848783000387C44446C28000030782D
:1004E00048493F7F4000387C54545C180000487EE7
:1004F0007F490302000098BCA4A4F87C0400417F5B
:100500007F08047C780000447D7D4000000060E0AE
:100510008080FD7D0000417F7F10386C44000041E9
:100520007F7F400000007C7C18381C7C78007C7C3D
:1005300004047C780000387C44447C38000084FC4F
:10054000F8A4243C1800183C24A4F8FC8400447C43
:10055000784C041C1800485C5454742400000004B7
:100560003E7F442400003C7C40403C7C40001C3CDE
:1005700060603C1C00003C7C7038707C3C00446C2B
:100580003810386C44009CBCA0A0FC7C00004C647B
:10059000745C4C64000008083E7741410000000094
:1005A0000077770000004141773E08080000020311
:1005B00001030203010070784C464C78700004225D
:1005C00011241FBECFEFD8E0DEBFCDBF13E0A0E007
:1005D000B1E0E6ECFCE602C005900D92A435B1074F
:1005E000D9F726E0A4E5B3E001C01D92AF36B2070B
:1005F000E1F712E0C0EED2E004C02197FE010E94B4
:100600000D36CF3DD107C9F70E940B230C946136FC
:100610000C94000080E0089508951F93CF93DF931A
:1006200000D000D01F92CDB7DEB71C8221E02B8313
:100630009A838983E0913006F091310611891D82F9
:10064000A0913006B0913106E0913406F091350664
:100650009E012F5F3F4F50964C916FE080E396E0F4
:1006600009958D818F5F8D83811750F30F900F90C7
:100670000F900F900F90DF91CF911F9108958CBD37
:100680009DBD08952091330581E0213208F044C0DA
:1006900080910F058111FCCF8091320592E09093FB
:1006A0000F0591E090930E059FEF90930D0510922A
:1006B0000C0520930B05A2E1B5E0EBEEF4E090E031
:1006C000291331C01092EA049091EA04880F892B13
:1006D0008093EA048091E904813049F51092E9049D
:1006E0008091EA048093BB008091BC0083FDF8CF29
:1006F00085EC8093BC0080910F058230E1F38091FE
:100700000D058F3FB1F080910D058032A1F08091F1
:100710000D05803391F084E010921105109233059D
:100720001092100508953D9131939F5FC9CF85EEDA
:10073000E0CF80E0F1CF82E0EFCF83E0EDCF08950E
:100740000895662329F06A3019F0862F90E0089505
:100750008FEF9FEF08959B01DC011896ED91FC91BE
:1007600041E067E1099481E08093610480915F0436
:1007700090916004DC01ED91FC910484F585E02DFD
:100780000995109261040895AF92BF92CF92DF92C3
:10079000EF92FF920F931F93CF93DF936C017B0136
:1007A0008B01040F151FEB015E01AE18BF08C017C7
:1007B000D10759F06991D601ED91FC910190F0813A
:1007C000E02DC6010995892B79F7C501DF91CF91FD
:1007D0001F910F91FF90EF90DF90CF90BF90AF905F
:1007E0000895FC01538D448D252F30E0842F90E037
:1007F000821B930B541710F0CF960895019708951C
:10080000FC01918D828D981761F0A28DAE0FBF2FE4
:10081000B11D5D968C91928D9F5F9F73928F90E03A
:1008200008958FEF9FEF0895FC01918D828D9817A9
:1008300031F0828DE80FF11D858D90E008958FEFE6
:100840009FEF0895FC01918D228D892F90E0805CAF
:100850009F4F821B91098F739927089584E395E038
:100860000E94220421E0892B09F420E0822F0895C0
:1008700080E090E0892B29F00E942E0481110C94D5
:1008800000000895FC01A48DA80FB92FB11DA35A33
:10089000BF4F2C91848D90E001968F739927848FA0
:1008A000A689B7892C93A089B1898C9183708064C3
:1008B0008C93938D848D981306C00288F389E02D64
:1008C00080818F7D80830895EF92FF920F931F9315
:1008D000CF93DF93EC0181E0888F9B8D8C8D9813F3
:1008E0001AC0E889F989808185FF15C09FB7F894FF
:1008F000EE89FF896083E889F9898081837080644B
:1009000080839FBF81E090E0DF91CF911F910F9195
:10091000FF90EF900895F62E0B8D10E00F5F1F4FA4
:100920000F731127E02E8C8D8E110CC00FB607FCB3
:10093000FACFE889F989808185FFF5CFCE010E9441
:100940004204F1CFEB8DEC0FFD2FF11DE35AFF4F69
:10095000F0829FB7F8940B8FEA89FB8980818062CF
:10096000CFCFCF93DF93EC01888D8823B9F0AA898C
:10097000BB89E889F9898C9185FD03C0808186FD5A
:100980000DC00FB607FCF7CF8C9185FFF2CF8081A9
:1009900085FFEDCFCE010E944204E9CFDF91CF91D8
:1009A0000895833081F028F4813099F08230A9F0E5
:1009B00008958730A9F08830C9F08430B1F480916F
:1009C00080008F7D03C0809180008F7780938000AE
:1009D000089584B58F7784BD089584B58F7DFBCF4E
:1009E0008091B0008F778093B00008958091B0001F
:1009F0008F7DF9CFCF93DF93282F30E0F901EA58AC
:100A0000FD4F8491F901E855FD4FD491F901EC5661
:100A1000FD4FC491CC23A1F081110E94D104EC2F91
:100A2000F0E0EE0FFF1FE657FD4FA591B491EC915A
:100A3000ED2381E090E009F480E0DF91CF9108950B
:100A400080E090E0FACF1F93CF93DF93282F30E020
:100A5000F901EA58FD4F8491F901E855FD4FD49111
:100A6000F901EC56FD4FC491CC23A9F0162F81114A
:100A70000E94D104EC2FF0E0EE0FFF1FE459FD4F70
:100A8000A591B4918FB7F894EC91111108C0D0954D
:100A9000DE23DC938FBFDF91CF911F910895DE2B72
:100AA000F8CF1092C8041092C7041092110510924A
:100AB000330510920F0581E080930E051092E90432
:100AC00061E082E10E94230561E083E10E94230549
:100AD000E9EBF0E080818E7F808380818D7F808351
:100AE00088E48093B80085E48093BC008FE993E0AC
:100AF0009093C6048093C50480EA93E09093C40465
:100B00008093C3040895CF93DF9390E0FC01E855F0
:100B1000FD4F24918C569D4FFC0184918823C9F090
:100B200090E0880F991FFC01EE59FD4FA591B491FB
:100B3000FC01E459FD4FC591D49161110DC09FB7DF
:100B4000F8948C91209582238C9388812823288384
:100B50009FBFDF91CF910895623051F49FB7F89411
:100B60003C91822F809583238C93E8812E2BEFCFAD
:100B70008FB7F894EC912E2B2C938FBFEACF3FB711
:100B8000F89480915B0490915C04A0915D04B09115
:100B90005E0426B5A89B05C02F3F19F00196A11D44
:100BA000B11D3FBFBA2FA92F982F8827BC01CD01B7
:100BB000620F711D811D911D42E0660F771F881F16
:100BC000991F4A95D1F708958F929F92AF92BF9245
:100BD000CF92DF92EF92FF926B017C010E94BF05E2
:100BE0004B015C01C114D104E104F104B9F00E948D
:100BF000BF05681979098A099B09683E7340810518
:100C0000910580F321E0C21AD108E108F10888EECD
:100C1000880E83E0981EA11CB11CE4CFFF90EF90DA
:100C2000DF90CF90BF90AF909F908F9008952FB797
:100C3000F8946091570470915804809159049091F0
:100C40005A042FBF08950895DC011A96ED91FC9186
:100C500030E020E00994462FDC011496ED91FC91E0
:100C600030E020E06BE00994DC011696ED91FC91F8
:100C700030E020E040E069E10994DC011696ED9156
:100C8000FC9130E020E040E068E109949A01DC0149
:100C90001696ED91FC91462F67E10994EF92FF9231
:100CA0000F931F93CF93DF931F92CDB7DEB77C01D5
:100CB0008B01D8016C91673129F150F46531A0F4B2
:100CC0000F90DF91CF911F910F91FF90EF900895BA
:100CD0006A3118F16E3FA1F7F8014181498369E259
:100CE000C7010E9424060BC0F80141814983D70146
:100CF0001696ED91FC9130E020E0C70109950E5F5A
:100D00001F4FD7CFF80181818983AE014F5F5F4FBD
:100D100061E0C7010E944606F2CF0F5F1F4FD70167
:100D20001696ED91FC9130E020E040E0C701099576
:100D3000C0CF462FDC011696ED91FC9130E020E00B
:100D400066E10994462FDC011696ED91FC9130E0A6
:100D500020E065E10994EF92FF920F931F93CF93E8
:100D6000DF93EC01042F79016D3009F446C050F493
:100D70006B30C9F1693009F49FC06A3009F465C06D
:100D800080E046C06E3009F452C06F3099F70E947F
:100D90003D06F7011381110F110F110F6889160F0E
:100DA00060E4CE010E94A206612F62956F706061BF
:100DB000CE010E94A206612F6F70CE010E9499069B
:100DC000F7016481606BCE010E949906F7014081B2
:100DD00051816281660F660F660FCE010E94460642
:100DE0000150A1F72EC064E571E0442311F06FE4D7
:100DF00071E0CE010E944E060AC0411110C068E4A5
:100E000071E00E944E06E881F9818289888B81E039
:100E1000DF91CF911F910F91FF90EF90089561E4C2
:100E200071E00E944E06E881F9818389EFCF0E942C
:100E30003D0661E8CE010E94A206602FCE010E940D
:100E40009906CE010E943406E2CFEA85FB8530E0A8
:100E500020E040E068E2CE010995EE81FF8130E0BC
:100E600020E040E064E1CE01099541E06BE4CE0171
:100E70000E942406E881F981448169E2CE010E9442
:100E8000240640E06BE4CE010E942406E881F9814B
:100E9000448169E2CE010E94240641E06BE4CE0168
:100EA0000E942406E881F981458169E2CE010E9411
:100EB000240669E571E09DCF8EE891E099838883EF
:100EC000188AA5CFDC011896ED91FC9130E020E066
:100ED00040E069E10994DC011896ED91FC9130E065
:100EE00020E040E068E10994CF93DF931F92CDB7F3
:100EF000DEB76983BE016F5F7F4F0E94AB030F9027
:100F0000DF91CF910895EF92FF921F93CF93DF93DC
:100F1000EC01162F7A010E946B0760E4CE010E945B
:100F20007407E885F9859701412F67E1CE0109959E
:100F3000CE01DF91CF911F91FF90EF900C9462074B
:100F4000EF92FF921F93CF93DF93EC01142F79015F
:100F5000673130F4653178F4643159F180E005C0CF
:100F60006731F9F06A31D0F781E0DF91CF911F91BD
:100F7000FF90EF9008950E946B0760E0CE010E9401
:100F80007407612FCE010E947407CE010E94620790
:100F9000EBCF68E1CE010E948307185188E1E80E8B
:100FA000F11CA7011931A8F7612FCE010E94830718
:100FB000DBCF8A898F3F11F488E78A8BE885F98532
:100FC0009701412F64E1CE01DF91CF911F91FF90F6
:100FD000EF900994CF93DF93DC011C96ED91FC9187
:100FE0001D9784913196E491681768F1E61758F1DE
:100FF000681B770B83E0660F771F8A95E1F7CB01BB
:101000000296EA01665F7F4F1C96ED91FC911D9759
:10101000E80FF91FE491E993019686179707A1F766
:1010200051968C91882361F0FA019A01285F3F4F15
:101030008191DF01119780958C932E173F07C1F79F
:10104000DF91CF910895FA01CA0108961192E8172D
:10105000F907E1F7E5CFAF92BF92CF92DF92EF921F
:10106000FF920F931F93CF93DF93CDB7DEB72D97EA
:101070000FB6F894DEBF0FBECDBFE82EA62E10929D
:1010800045068A01F12CCE0101966C01BB24B39474
:10109000F80161918F01E0913206F091330680E30F
:1010A00096E009958F3F9807F1F08E3F2FEF92075A
:1010B00079F3A601682F80E396E00E94EA07EC86A8
:1010C000AD86BB86DA86C986E0913406F091350696
:1010D0009E01275F3F4F41E06FE080E396E0099576
:1010E000E394F394D5CF8F2D2D960FB6F894DEBFF1
:1010F0000FBECDBFDF91CF911F910F91FF90EF9069
:10110000DF90CF90BF90AF90089521EA33E0309305
:101110003306209332060C942B080F931F93CF9322
:10112000DF938C01C62F642FCC32E8F4CA3208F06A
:1011300041C0C83271F1C93209F442C080E0C03404
:10114000D0F1CF73F801EC0FF11D838D8F3F91F13A
:10115000C031E0F00E94FA0421E0892B09F420E07C
:10116000F801268B27C0CD3289F140F384EB8C0F38
:10117000823020F7CF73C00FD12FD11D8B8D41113D
:1011800033C061E00E94830560E08B8D0E942305DF
:1011900011C0055E1F4FD0E0F80181918F018F3F94
:1011A00031F061E0D03108F062E00E948305DF5F3A
:1011B000D63191F781E0DF91CF911F910F91089582
:1011C00070E090E080E00E94E405F4CF85E090E0DC
:1011D000433010F082E090E0880F991F880F991F2C
:1011E00005970197F1F7E6CF62E00E948305E2CF11
:1011F000AF92BF92CF92DF92EF92FF920F931F9325
:10120000CF93DF93CDB7DEB72D970FB6F894DEBF3F
:101210000FBECDBFFC01F6A86A30B1F4F394F6AA74
:1012200015AA81E090E02D960FB6F894DEBF0FBEB0
:10123000CDBFDF91CF911F910F91FF90EF90DF9085
:10124000CF90BF90AF9008958C01E5A86C0184E029
:10125000C80ED11CDE0111965D01AD01C6010E94D0
:10126000EA07EC86FD8681E08B87BA86A986D801DD
:101270001896ED91FC919E01275F3F4F41E06FE092
:10128000C6010995F80185A98F5F85ABCACF85EDA9
:101290008093BC008091BC0084FDFCCF10920F05B0
:1012A000089520913304260F3327331F213231054F
:1012B000ECF420910F05FC0190E080E0243069F00F
:1012C00082E00895A09133042191AC014D5E5B4F03
:1012D000A40FB52FB11D2C930196861798F380911A
:1012E0003304680F6093330480E0089581E008952B
:1012F000E091C8048091C704E81730F4F0E0E753A8
:10130000FB4F808190E008958FEF9FEF08959091BB
:10131000C8048091C7042FEF3FEF981748F4E92FD6
:10132000F0E0E753FB4F208130E09F5F9093C804CB
:10133000C90108958091C7049091C804891B990B35
:101340000895CF92DF92EF92FF920F931F93CF9366
:10135000DF937C01CB018A0120911005222389F0C3
:10136000EB016B01C40ED51ECC15DD0569F069914A
:10137000D701ED91FC910190F081E02DC701099515
:10138000F3CF642F0E945109C801DF91CF911F91C3
:101390000F91FF90EF90DF90CF900895FC01962F72
:1013A0006831C1F0B901993130F4943181F097314D
:1013B00041F080E00895993121F19032D1F781E038
:1013C000089550E081ED95E00E94A109F8CF0E94B8
:1013D0005105F5CFA081B1811D968C91843018F014
:1013E0008CE08093B800828990E09595879591E094
:1013F00090931005809332051092110510923305D9
:10140000DECF0E944203DBCFCF93DF931F92CDB795
:10141000DEB76983209110052223F9F0209133056E
:10142000203258F021E030E0FC013383228390E049
:1014300080E00F90DF91CF91089580911105E82F02
:10144000F0E0EE5EFA4F998190838F5F80931105F3
:101450008093330581E090E0ECCF61E0CE0101960E
:101460000E945109F7CF0895DC0180E0615038F007
:10147000ED91E827F0E0EE59FE4F8491F7CF089503
:10148000DC012C911196ED91FC91F8948181822BD5
:1014900081839281322F30959323928387E090E06D
:1014A0000197F1F781818323818383E290E00197A3
:1014B000F1F790817894EFECF0E03197F1F7922317
:1014C00081E009F480E00895FC0190810180F281BF
:1014D000E02D292F209560FF14C0F894828182238B
:1014E00082838181892B8183A3E2B0E01197F1F798
:1014F0008281982B9283789487ED90E00197F1F7A1
:101500000895F8948281822382838181892B81834B
:10151000AFEFB0E01197F1F78281982B9283789426
:101520008FE090E0EBCFDF92EF92FF920F931F934B
:10153000CF93DF93EC01D62EE42E08E010E0FF24D9
:10154000F39461E08D2D8F2109F460E0CE010E94BB
:10155000640AFF0C01501109A1F7E11010C0F894C2
:10156000E981FA8191818881809589238183E9814C
:10157000FA81928188818095892382837894DF9192
:10158000CF911F910F91FF90EF90DF900895EF9210
:10159000FF920F931F93CF93DF938C017B0140E069
:1015A00065E50E94930AE70188E0E80EF11C699165
:1015B00040E0C8010E94930ACE15DF05C1F7DF9114
:1015C000CF911F910F91FF90EF900895FC019081B2
:1015D0000180F281E02DF8948181292F20958223CA
:1015E000818378943DE743E050E0315029F1DA01FE
:1015F0001197F1F780818923C1F3F89482818223C6
:1016000082838181892B81837894ABE7B7E011973E
:10161000F1F7F894818182238183A3E1B1E01197EE
:10162000F1F78081982381E009F080E07894E3E687
:10163000F6E03197F1F7089580E00895AF92BF92F8
:10164000CF92DF92EF92FF920F931F93CF93DF938E
:10165000EC018B0180911006909111060E94E60A20
:101660008823A1F1BE0180911006909111060E947D
:10167000C70A40E06EEB80911006909111060E941F
:10168000930AE801680189E0C80ED11CA0901006F9
:10169000B090110688E0E82EF12C10E001E0C501C1
:1016A0000E94400A8111102B000F81E0E81AF10816
:1016B000B1F71993CC15DD0549F78091100690918B
:1016C00011060E94E60A91E0813009F090E0892F2E
:1016D000DF91CF911F910F91FF90EF90DF90CF900E
:1016E000BF90AF900895CF93DF93CDB7DEB7299722
:1016F0000FB6F894DEBF0FBECDBFBE016F5F7F4F48
:101700000E941E0B811102C080E017C068E0CE016C
:1017100001960E94340A99858913F6CF8D818F3303
:10172000A9F020F48F3181F789E007C08F3521F0CF
:101730008F3751F78CE001C08BE029960FB6F894F3
:10174000DEBF0FBECDBFDF91CF9108958AE0F5CF08
:10175000CF93CFB7F89480911204811127C0EEE99E
:10176000F2E08491E2EBF2E09491E82FF0E0EE0FEA
:10177000FF1FEE59FD4FA591B491EC91E92321F49F
:1017800061E08AE00E94230561E08AE00E9483050F
:101790008CB580618CBD8CB580648CBD61E08DE0C2
:1017A0000E94830561E08BE00E9483058091120412
:1017B0008F5F80931204CFBFCF910895CF93DF93B3
:1017C000EC0161E08A810E94230589858CBD8A85B0
:1017D0008DBD80916104811101C07894DF91CF911A
:1017E0000895FC01F8948CB581878DB582878CB5FE
:1017F000837F8CBD8CB58F7D8CBD8CB58C7F8CBD73
:101800008DB58E7F8DBD60E082810C942305F894A8
:1018100020916306233071F420911104222351F0AA
:10182000DC01ED91FC910488F589E02D61E00995DA
:1018300081E0089520916306233019F4789480E0C4
:101840000895DC01ED91FC910288F389E02D099562
:10185000F6CF3F924F925F926F927F928F929F92BC
:10186000AF92BF92CF92DF92EF92FF920F931F93AE
:10187000CF93DF93EC01162F5A01922E802E312C3C
:10188000CE2CD12CF12CE12C61E070E080E090E0D6
:101890000E94E405E881F9810190F081E02D01E0EA
:1018A000292DA501612FCE0109950E9417062B0154
:1018B0003C010E94170664197509860997096C1581
:1018C0007D058E059F0528F5E881F9810480F58165
:1018D000E02DCE010995882361F390910F0419172B
:1018E00011F01F3F31F790910C04992311F3DF9110
:1018F000CF911F910F91FF90EF90DF90CF90BF900D
:10190000AF909F908F907F906F905F904F903F909F
:1019100008953394831408F0B7CF80E0E8CF8EBDEC
:1019200000000DB407FEFDCF8EB50895EF92FF9233
:101930000F931F93CF93DF939091E9059F3F41F45D
:10194000DF91CF911F910F91FF90EF900C948F0C2E
:10195000D82FC0E007E010E0EE24E394F12CCC0F88
:1019600060E08091E9050E942305B701002E01C0C7
:10197000660F0A94EAF76D238091E7050E9423051C
:1019800061E08091E9050E9423058091E8050E94AD
:10199000FA04892B09F0C1600150110900F78C2F5E
:1019A000DF91CF911F910F91FF90EF900895CF930A
:1019B000DF93D82FC62F8091E6058F3FC9F4809121
:1019C000DD0591E09093100580933205109211058A
:1019D000109233056D2F81ED95E00E94040A6C2F63
:1019E00081ED95E00E94040ADF91CF910C944203AF
:1019F0008091E9058F3F21F482E591E00E943F0349
:101A000060E08091E6050E9423058D2F8F770E946C
:101A1000960C8C2F0E94960C61E08091E605DF9178
:101A2000CF910C9423050F931F93CF93DF93EC0179
:101A3000062F142FE881F981008CF18DE02D099596
:101A4000802F80680E948F0C812F0E948F0CE8816C
:101A5000F981028CF38DE02DCE01DF91CF911F91A2
:101A60000F9109941F93CF93DF93EC01162F45E557
:101A700061114DE56AE5CE010E94130D40E7111199
:101A80004CE76CE5CE01DF91CF911F910C94130DC3
:101A90001F93CF93DF93EC01162FE881F981008C1F
:101AA000F18DE02D0995812F0E948F0C80E00E941E
:101AB0008F0C182FE881F981028CF38DE02DCE0177
:101AC0000995812FDF91CF911F910895CF93DF93D7
:101AD000EC0168874AE161114FE063E1CE010E94A9
:101AE000130D8885882369F061E1CE010E94480DBD
:101AF0008F71482F406661E1CE01DF91CF910C9448
:101B0000130D4F814068F7CFCF93DF93EC01109214
:101B1000100410920F0410920E04109211041092EF
:101B20000D0410920C0410920B0410920A0468E247
:101B30000E94480D82FF0AC06DE3CE010E94480D4D
:101B4000482F44606DE3CE010E94130D40E465E22E
:101B5000CE010E94130DE881F9810488F589E02DFA
:101B600063E0CE01DF91CF910994CF93DF93EC0135
:101B7000603208F06FE16F838885882311F06695E5
:101B80006F8361E1CE010E94480D807E4F81482B1A
:101B900061E1CE01DF91CF910C94130D1F93CF9390
:101BA000DF9320916306261761F0162FEC01623057
:101BB00009F445C050F4662309F453C0613009F4B8
:101BC00049C0DF91CF911F910895633021F16430B6
:101BD000C1F761E00E94480D837E482F4C6061E0B0
:101BE000CE010E94130D8885882341F0E881F98198
:101BF0000688F789E02D61E0CE01099580916306A2
:101C0000811106C067E2CE010E94480D87FFF6CF22
:101C100010936306D6CF61E00E94480D837E482F63
:101C2000406161E0CE010E94130D8885882331F365
:101C3000E881F9810688F789E02D60E0DDCF61E079
:101C40000E94480D837E482F486061E0CE010E94CB
:101C5000130DD4CF61E00E94480D837E482F44606D
:101C6000F4CF61E00E94480D482F437EEECFEF9203
:101C7000FF920F931F93CF93DF93EC0161E084E613
:101C800096E00E94CE0D2097C1F084E696E00E9477
:101C9000F10B8EEB0E948F0C8E017E0180E1E80E2D
:101CA000F11CF80181918F010E948F0C0E151F0508
:101CB000C1F784E696E00E94DE0B6DE384E696E0D1
:101CC0000E94480D8E7F41E0CD2B09F440E0482B67
:101CD0006DE384E696E0DF91CF911F910F91FF9025
:101CE000EF900C94130DCF92DF92EF92FF920F932F
:101CF0001F93CF93DF93EC01F62ED42EC52E122F17
:101D0000E881F9810488F589E02D61E0099567E2B1
:101D1000CE010E94480D87FFFACF40E065E2CE0178
:101D20000E94130D1E3308F01DE3E11027C00023AD
:101D300039F100E4E881F981008CF18DE02DCE01CC
:101D4000099580E80E948F0C83E0810F0E948F0C20
:101D50008F2D0E948F0C8D810E948F0C802F0E94EE
:101D60008F0C0D2DED2CFC2C8E2D801B811750F42B
:101D7000F70181917F010E948F0CF6CF00E8DACF46
:101D800000E0D8CFE881F981028CF38DE02DCE01FF
:101D90000995E881F9810488F589E02D64E0CE0198
:101DA00009950E9417066B017C018B810E94FA0441
:101DB000892B59F40E9417066C197D098E099F0919
:101DC000683E73408105910580F3E881F9810488BC
:101DD000F589E02D61E0CE01DF91CF911F910F9148
:101DE000FF90EF90DF90CF900994CF93DF93C0E105
:101DF000D7E261E085E00E94230560E085E00E9473
:101E000023052197B1F7DF91CF9108950FB6F8948C
:101E1000A8958091600088618093600010926000B6
:101E20000FBE0895282FEDE6F0E0883050F0EBE685
:101E3000F0E08E3030F0ECE6F0E0863110F0F0E0CB
:101E4000E0E03081422F50E0283078F481E090E0EB
:101E5000A0E0B0E004C0880F991FAA1FBB1F2A95FD
:101E6000D2F780958323808308952E3070F44850F4
:101E7000510981E090E0A0E0B0E004C0880F991F14
:101E8000AA1FBB1F4A95D2F7ECCF4E505109F1CF94
:101E9000EDE6F0E0883050F0EBE6F0E08E3030F028
:101EA000ECE6F0E0863110F0F0E0E0E09081282FE1
:101EB00030E0883010F541E050E060E070E0082E3E
:101EC00004C0440F551F661F771F0A94D2F7492B91
:101ED00040839BB3883020F121E08E3008F420E06D
:101EE00081E001C0880F2A95EAF7982B9BBB90915F
:101EF0006800892B8093680008958E3070F4285014
:101F0000310941E050E060E070E004C0440F551F2B
:101F1000661F771F2A95D2F7DACF2E503109F1CFFD
:101F200084E0E3CFCF93DF93662309F4A6C0D0917A
:101F3000C9038091C803D81709F48BC080E00E94C0
:101F4000120F81E00E94120F60E080E00E942305E2
:101F500060E081E00E9423058091B20480FF04C00C
:101F600060E081E00E94830565E070E080E090E041
:101F70000E94E40580E00E94FA04892B29F4C0E065
:101F80008C2FDF91CF91089581E00E94FA04892B74
:101F9000B1F3CCE361E080E00E94830565E070E08E
:101FA00080E090E00E94E40561E081E00E9483050A
:101FB00064E170E080E090E00E94E40560E080E091
:101FC0000E94830565E070E080E090E00E94E405F7
:101FD00060E081E00E94830564E170E080E090E0D1
:101FE0000E94E405C150B1F66AE070E080E090E044
:101FF0000E94E405DC1751F161E081E00E94830555
:1020000065E070E080E090E00E94E40561E080E03F
:102010000E94830564E170E080E090E00E94E405A6
:1020200060E081E00E94830565E070E080E090E080
:102030000E94E40560E080E00E94830564E170E0B6
:1020400080E090E00E94E405CF5FD4CFD093C80336
:10205000C1E08091B20480FF04C061E081E00E9491
:10206000830580917F04882309F48ACF80E00E9451
:10207000480F81E00E94480F83CF8530F8F0880F29
:1020800089508093C9038091B20480FF04C060E04E
:1020900081E00E94830565E070E080E090E00E94AE
:1020A000E40580E00E94FA04892B31F081E00E946F
:1020B000FA04C1E0892B69F6C0E0CBCF1092C903C6
:1020C000E2CFCF92DF92EF92FF920F931F93CF93C5
:1020D000DF936C01EB017B01E40EF51E10E000E0E4
:1020E000CE15DF0561F06991D601ED91FC9101906B
:1020F000F081E02DC6010995080F191FF1CFC80125
:10210000DF91CF911F910F91FF90EF90DF90CF90D3
:1021100008950895089590E080E0089590910F0546
:102120009111FCCF91E090930F0590930E052FEF46
:1021300020930D0510920C05260F20930B0590930C
:10214000EA049091EA04880F892B8093EA04809135
:10215000E904813019F51092E9048091EA04809332
:10216000BB008091BC0083FDF8CF85EC8093BC0060
:1021700080910F058130E1F380910C05861710F4F2
:1021800060910C05ABEEB4E0E9ECF4E080E086137E
:1021900007C01092C8048093C704089585EEE6CF67
:1021A0009D9191938F5FF3CFCF93C82F8091E605D8
:1021B0008F3FF9F48091DD0591E0909310058093B5
:1021C000320510921105109233056C2F81ED95E0C8
:1021D0000E94040A0E94420361E08091DD050E9492
:1021E0008E1081ED95E00E948709C82F8C2FCF912A
:1021F00008958091E9058F3F21F482E591E00E94E6
:102200003F0360E08091E6050E9423058C2F0E9429
:10221000960C80E00E94960CC82F61E08091E60544
:102220000E942305E3CFCF93DF93C82F8091E6056B
:102230008F3F49F58091DD0591E0909310058093E3
:10224000320510921105109233056C2F81ED95E047
:102250000E94040A0E94420362E08091DD050E9410
:102260008E1081ED95E00E948709C82F81ED95E0E1
:102270000E94870920E03C2FE901C82BD92BCE0111
:10228000DF91CF9108958091E9058F3F21F482E598
:1022900091E00E943F0360E08091E6050E942305E3
:1022A0008C2F0E94960C80E00E94960CC82F80E034
:1022B0000E94960CDC2FC82F61E08091E6050E94F9
:1022C0002305DDCF0E9413119827892798270895A9
:1022D000CF93DF9386E78093DD058091E6058F3FFE
:1022E00009F0A8C00E94510580ED0E94D4108835E5
:1022F00019F0803609F0BBC088E80E946211909303
:10230000EB058093EA058AE80E9462119093ED053F
:102310008093EC058CE80E9462119093EF05809306
:10232000EE058EE80E9462119093F1058093F0050E
:1023300080E90E9462119093F3058093F20582E98F
:102340000E9462119093F5058093F40584E90E9440
:1023500062119093F7058093F60586E90E94621159
:102360009093F9058093F80588E90E946211909393
:10237000FB058093FA058AE90E9462119093FD059E
:102380008093FC058CE90E9462119093FF05809375
:10239000FE058EE90E94621190930106809300066B
:1023A00081EA0E94D4108093020681EE0E9462119D
:1023B000909304068093030683EE0E94D4108093CA
:1023C000050684EE0E94D410C82F85EE0E94D4101A
:1023D00090E1C99F900111248F70282B309307063C
:1023E0002093060686EE0E94D410C82F85EE0E9428
:1023F000D41090E1C99FE001112490E024E095956C
:1024000087952A95E1F78C2B9D2B90930906809355
:10241000080687EE0E94D41080930A0665E082EFDA
:102420000E94D70C67EB84EF0E94D70C81E0DF910C
:10243000CF91089561E00E94230561E08091E60557
:102440000E9483058091E9058F3F19F40E94A80B33
:102450004BCF61E00E94830561E08091E7050E9417
:10246000830560E08091E8050E9483053DCF80E010
:10247000DECF8F929F92AF92BF92CF92DF92EF9278
:10248000FF92F82E8091E6058F3F09F04CC08091B5
:10249000DD0591E0909310058093320510921105AF
:1024A000109233056F2D81ED95E00E94040A0E9481
:1024B000420363E08091DD050E948E1081ED95E07E
:1024C0000E9487094C01990FAA08BB08BA2CA92CB5
:1024D000982C882481ED95E00E948709092E000C34
:1024E000AA0BBB0B882A992AAA2ABB2ABA2CA92C88
:1024F000982C882481ED95E00E948709092E000C14
:10250000AA0BBB0B6C017D01C828D928EA28FB283F
:10251000C701B601FF90EF90DF90CF90BF90AF90D2
:102520009F908F9008958091E9058F3F21F482E577
:1025300091E00E943F0360E08091E6050E94230540
:102540008F2D0E94960C80E00E94960C90E0B0E0E7
:10255000A0E0CC24D82EE92EFA2E80E00E94960C22
:10256000C82AFE2CED2CDC2CCC2480E00E94960C9A
:10257000C82A61E08091E6050E942305C9CF8F92A9
:102580009F92AF92BF92CF92DF92EF92FF920F9302
:102590001F938AEF0E943912EDEDF5E0058516854F
:1025A00030E020E0C72ED82EE92EFF24E7FCFA9475
:1025B000C01AD10AE20AF30A57E0959587957795F4
:1025C00067955A95D1F7000F111F221F331F4B013A
:1025D0005C01801A910AA20AB30AA5019401A78599
:1025E000B0890E9483344B015C01BBE0B594A79491
:1025F00097948794BA95D1F7A7019601C701B601C0
:102600000E9426349B01AC011CE0559547953795F7
:1026100027951A95D1F7A189B2890E9483349B012D
:10262000AC010EE055954795379527950A95D1F75A
:10263000280D391D4A1D5B1D25833683478350872E
:10264000A5E0B0E00E94783460587F4F8F4F9F4FD5
:10265000672F782F892F992787FD9A950E94BB3283
:1026600020E030E048EC52E40E9412321F910F91BA
:10267000FF90EF90DF90CF90BF90AF909F908F90A2
:102680000895BF92CF92DF92EF92FF920F931F9324
:10269000CF93DF93EC01B62EC72EED84E11004C07A
:1026A0000E94E60A81110EC01B861D861C8680E0F2
:1026B000DF91CF911F910F91FF90EF90DF90CF901E
:1026C000BF90089540E060EFCE010E94930AD12CA4
:1026D00001E011E0CE010E94400AF82ECE010E94D6
:1026E000400A91E0F91218C0813099F51134E0F2F6
:1026F000EB86E11002C081E08D878B818823A1F2F7
:102700002396EB2DFC2DCF01089629912193E817F4
:10271000F907D9F781E0CCCFED2DF0E0F8120FC02A
:102720008B851817A0F4DE01AE0FBF1F13968C9196
:10273000802379F4F12C193008F41C87E12EEC0F7A
:10274000FD1F8381902F9095892383830AC0811375
:10275000F1CFFE01ED0DF11D8381802B8383FF24DA
:10276000F3946F2DCE010E94640A1F5F000F11F4D5
:10277000D39401E087E08D1508F0ACCFB7CF0F936D
:102780001F93CF93DF938C01D62FE0911006F09129
:1027900011061386158614861286118610861782F6
:1027A0001682158214821382C0E0B801809110064F
:1027B000909111060E944113882329F0DC1749F0FB
:1027C000CF5FDC1790F780E0DF91CF911F910F91E1
:1027D000089567E0C8010E94340AF80197818913BF
:1027E000EFCF81E0F1CFCF93DF93209163062330C9
:1027F00021F080E0DF91CF91089520911104211103
:10280000F8CFEC0164E20E94480D90E0919581952B
:1028100091098C349F4F6CF7E881F9810488F58920
:10282000E02D61E0CE01099581E0E4CF4F925F9207
:102830006F927F92AF92BF92CF92DF92EF92FF9210
:102840000F931F93CF93DF93EC015B01F42E109253
:102850000D0410910F04C0900A04D0900B046DE396
:102860000E94480D482F44606DE3CE010E94130D75
:102870000E9417062B013C01CE010E94F313811127
:1028800013C00E9417066419750986099709683EE6
:1028900073408105910540F4E881F9810480F58158
:1028A000E02DCE010995E8CF10930F04E881F9815E
:1028B0000088F189E02DEE24E39400E02F2DA5019E
:1028C000612FCE010995D0920B04C0920A04DF91CA
:1028D000CF911F910F91FF90EF90DF90CF90BF901D
:1028E000AF907F906F905F904F9008958F929F92DE
:1028F000AF92BF92CF92DF92EF92FF920F931F930E
:10290000CF93DF93EC01162F6A01F22E6DE30E9444
:10291000480D482F44606DE3CE010E94130D0E94C4
:1029200017064B015C01CE010E94F313811113C005
:102930000E941706681979098A099B09683E734045
:102940008105910540F4E881F9810480F581E02D4D
:10295000CE010995E8CFE881F9810088F189E02D61
:10296000E12C2F2DA601612FCE010995DF91CF918A
:102970001F910F91FF90EF90DF90CF90BF90AF909D
:102980009F908F900895EF92FF921F93CF93DF93C4
:10299000EC0180916306833009F098C068E2CE01B3
:1029A0000E94480D82FF92C0E881F9810488F58970
:1029B000E02D61E0CE010995E881F981008CF18D6F
:1029C000E02DCE01099580E00E948F0C80E00E94EE
:1029D0008F0C8093110480911104833408F046C059
:1029E000809111048093110480E00E948F0C8093E9
:1029F0000E048E81811109C080910E049D8198176B
:102A000021F080910E048F3F99F58091110483305D
:102A100078F18091110483508093100480E00E942B
:102A20008F0C80930F0480E00E948F0C982F907879
:102A300090930C04982F907490930D04E881F98181
:102A40000684F785E02D682FCE01099510E080916E
:102A50001004181710F5E12EF12C80E00E948F0C65
:102A6000F701E353FC4F80831F5FF1CF82E4BACFBD
:102A700010921104E881F981028CF38DE02DCE01D2
:102A80000995E881F9810288F389E02DCE01DF9173
:102A9000CF911F91FF90EF900994809110048D3396
:102AA00030F4E0911004F0E0E353FC4F1082E88131
:102AB000F981028CF38DE02DCE010995E881F98131
:102AC0000488F589E02D63E0CE01099564E2CE012A
:102AD0000E94480D90E09195819591099595879573
:102AE00090930B0480930A04DF91CF911F91FF9084
:102AF000EF9008954F925F926F927F928F929F9284
:102B0000AF92BF92CF92DF92EF92FF920F931F93FB
:102B1000CF93DF93CDB7DEB76E970FB6F894DEBFD5
:102B20000FBECDBF3C014B01F42E122F6DE370E0C0
:102B30000E94F62E082FF40101900020E9F731974A
:102B40006F01C818D90811111092BF0316E0F110D7
:102B500001C014E00E9417062091BB033091BC0312
:102B60004091BD035091BE03621B730B840B950B08
:102B7000603177428105910568F00E9417066093E5
:102B8000BB037093BC038093BD039093BE0381E0AD
:102B9000809307018C2D800F9927991F5C01412E8E
:102BA000512C840D951DCD970CF044C11C2D8091A6
:102BB00007012091BF03882309F4A0C0822F90E071
:102BC000A501480F591F440D551D4D3351052CF4D7
:102BD000C1105BC0222309F458C083589C4F3DE7C5
:102BE000FC0130836091BF042F5F9AEFE92E04E06F
:102BF0004DE753E084E696E00E94290C811143C022
:102C00006091BD0470E090E080E00E94BB3226E657
:102C100036E646EA5FE30E94B9330E9484320E949E
:102C2000E4056091BF042091BF032F5F4DE753E09F
:102C300084E696E00E94290C082F811124C00E948E
:102C400017066093BB037093BC038093BD039093FE
:102C5000BE0310920701802F6E960FB6F894DEBF68
:102C60000FBECDBFDF91CF911F910F91FF90EF90DD
:102C7000DF90CF90BF90AF909F908F907F906F909C
:102C80005F904F9008951092BF038091BF03282F4B
:102C900030E0A20EB31E4A0C5B1CFCE34F1651043D
:102CA000B4F5112309F4BBC0882399F1E1E0E80FE2
:102CB000E093BF0323583C4F8CE2F901808390914D
:102CC000BF0381E0890F8093BF03E92FF0E0E35851
:102CD000FC4F22E220839095E92FE80FE60DF72DB7
:102CE000F11D2081A1E0A80FE82FF0E0E358FC4F90
:102CF000222309F465C020838A2FEECFC110C5CFEF
:102D000080910701222309F2813009F4BECF00E04F
:102D1000A2CF91E09093BF039BE790937D0396E051
:102D2000EBE0F2E0DE01599601900D929A95E1F701
:102D300091E0980FE9E1F0E0EC0FFD1FE80FF11DC5
:102D40008081882339F0E92FF0E0E358FC4F80833D
:102D5000892FEECF9093BF038091790390917A03EE
:102D6000A0917B03B0917C030196A11DB11D8093BE
:102D7000790390937A03A0937B03B0937C034AE09A
:102D8000BE016F5F7F4F0E94012F2091BF03E22F92
:102D9000AE2FA21B81E090E08C0F9D1F8A0F911D2A
:102DA000DC019C9181E08E0FF0E0E358FC4F992309
:102DB00019F09083E82FECCF8093BF038CE27ECF95
:102DC00092E29083E2E0E80FE093BF03B0E0A35803
:102DD000BC4F2AE32C93FF2039F08D5F8093BF0313
:102DE000F0E0E358FC4F90838091BF03F40190E042
:102DF0002191A82FA90FB0E0A358BC4F2C939F5F3F
:102E00009117B0F3E82FEC0D8F5FF1100AC0E0933B
:102E1000BF03E091BF03F0E0E358FC4F108201E0F4
:102E20001ACFC80EC092BF03F0E0E358FC4F82E215
:102E30008083EFCF88E1E1E1F2E0DE0111960190BD
:102E40000D928A95E1F780910701882309F45FCFFD
:102E50006091BF048AEFE82E04E028E1AE014F5FE5
:102E60005F4F84E696E00E94290C51CF6F927F92CB
:102E70008F929F92AF92BF92CF92DF92EF92FF928A
:102E80000F931F93CF93DF93CDB7DEB72B970FB67A
:102E9000F894DEBF0FBECDBF90910101892B8093C6
:102EA00001019CEAA92E91E0B92E10E000E0772400
:102EB000739488248394912CF50181915F010E9481
:102EC000FA046C0166246394019709F0612CC8012F
:102ED0008E559B4F7C01FC01808183FF07C0808160
:102EE00082FF04C0808187FF7092CB032091CA03C8
:102EF000822F90E0002E02C0959587950A94E2F704
:102F00008170861105C080910101882309F495C064
:102F1000F701808186FF5EC083E0E9E0F1E0DE0139
:102F2000119601900D928A95E1F71D821C824AE06C
:102F3000BE01675F7F4FC8010E94012F42E050E051
:102F4000BE01675F7F4FCE0101960E9442364AE084
:102F5000BE016A5F7F4F862D90E00E94012F20E026
:102F600041E0BE016A5F7F4FCE0101960E947A1553
:102F7000882379F0C401002E01C0880F0A94EAF773
:102F80002091CA03F1E0CF16D10409F5822B80937A
:102F9000CA037092CB0380917F04882361F1709201
:102FA000CB0380910101811102C070928004C401A1
:102FB000002E01C0880F0A94EAF72091CA03CA9430
:102FC000CD2809F064C0822B8093CA0336C0809557
:102FD0008223DDCFC401002E01C0880F0A94EAF7D6
:102FE00031E0C316D10421F4822B8093CA03D3CFDE
:102FF00080958223FACFF50131978081F701CA9439
:10300000CD28E1F5908193FF36C00E94480FF7016B
:10301000808187FF12C0F801EE0FFF1FEE0FFF1F28
:10302000ED59FB4F80819181A281B3810196A11D51
:10303000B11D80839183A283B3830F5F1F4F07303D
:10304000110509F039CF1092010180E02B960FB6DF
:10305000F894DEBF0FBECDBFDF91CF911F910F91CE
:10306000FF90EF90DF90CF90BF90AF909F908F90A8
:103070007F906F9008950E94120FC9CF908192FFA8
:1030800003C00E94480FD9CF0E94120FD6CF80955F
:1030900082239ACFDF92EF92FF920F931F93CF93E9
:1030A000DF93C82F1092CC031092CB030E94060F1F
:1030B0008091B60483FF04C060E086E00E9423058F
:1030C0008091B60482FD04C060E086E00E94230582
:1030D0008091B10482FF08C084EF0E94D410682F51
:1030E0006C7F84EF0E94D70C8091B60485FF07C0E7
:1030F00021E040E06DE572E0CB010E947A158091FD
:10310000B20484FD04C08091B20483FF0DC080919D
:10311000B60484FD09C08091B60487FD05C061E056
:1031200080E396E00E942B06D0907C0010927C00F9
:10313000E0907A0010927A00F0906400109264009F
:103140008091B8048F3F21F48091B7048F3F59F0EC
:1031500088E190E021E60FB6F894A895809360008E
:103160000FBE20936000CC2309F468C0C091B8045E
:103170008091B704C89FE001112421970091B80401
:103180008091B704089F8001112460E084E696E0F6
:103190000E94CE0DC017D10708F053C08091B6042D
:1031A00081FF0EC08091B60482FF0AC061E086E014
:1031B0000E9423050E94F50E60E086E00E94230530
:1031C00083B7817F846083BF83B7816083BF789436
:1031D00083B7816083BF889583B78E7F83BFC430F8
:1031E000D105A9F48091B20484FD04C08091B20499
:1031F00083FF0DC08091B60487FF09C0F092640080
:1032000061E080E396E00E942B06109264008091BA
:10321000B10483FF06C062E370E080E090E00E94AA
:10322000E4058091CB0381110CC08091CC038823ED
:1032300019F01092CC0321972196ACCFD0E0C0E0DA
:103240009DCF0E94060FF0926400D0927C00E09225
:103250007A0081E0809307018091B10482FF08C069
:1032600084EF0E94D410682F636084EF0E94D70C13
:103270008091B60480FF04C061E086E00E942305CF
:103280008091B20484FD04C08091B20483FF05C024
:1032900060E080E396E00E942B068091B60483FFF5
:1032A00004C061E086E00E94230588E199E20FB640
:1032B000F894A895809360000FBE90936000DF9112
:1032C000CF911F910F91FF90EF90DF900895CF92D3
:1032D000DF92EF92FF921F93CF93DF93CDB7DEB7CC
:1032E0002A970FB6F894DEBF0FBECDBF182F8EE41D
:1032F00080937C0062E070E080E090E00E94E40552
:1033000080917A00806480937A0080917A0086FDB3
:10331000FCCF8091780020917900322F282F50E047
:1033200040E06CE374EF80E190E00E944A34690170
:10333000112381F04AE0BE016F5F7F4FC6010E94FA
:10334000012F20E040E0BE016F5F7F4F89E292E0F5
:103350000E947A15C6012A960FB6F894DEBF0FBEFA
:10336000CDBFDF91CF911F91FF90EF90DF90CF9075
:1033700008952F923F924F925F926F927F928F9219
:103380009F92AF92BF92CF92DF92EF92FF920F93F4
:103390001F93CF93DF93CDB7DEB762970FB6F89444
:1033A000DEBF0FBECDBF382E30ECA32E33E0B32EE0
:1033B0004AE0C42ED12CCE010B969A8B898B52E217
:1033C000852E912C62E0262EF601EE55FB4F7F01F3
:1033D0008081882309F4BDC0808182FF07C080916D
:1033E0000001815009F4D9C08093000183E0EEE030
:1033F000F1E0DE01189601900D928A95E1F7E989D6
:10340000FA8923E011922A95E9F7F601E455FE4F77
:1034100010814AE0BE01625F7F4F812F90E00E94E1
:10342000012F42E050E0BE01625F7F4FCE0108965F
:103430000E9442361E3008F01E5080910601E0E4E2
:103440008E9FC00111241770182B10937C0080915F
:103450007A00806480937A0080917A0086FDFCCFA8
:103460006091780000917900102F062FF50180817E
:1034700091819C018233910510F022533109C2964B
:103480008017910730F00217130718F0332009F462
:1034900060C0F50111830083F701808180FD28C0A1
:1034A000808181FD25C0808183FD22C0808184FDD3
:1034B00003C0808182FF1CC080E00E946719BC01AC
:1034C00090E080E00E94B93220E030EC4FE754E415
:1034D0000E9412322B013C01B80190E080E00E9472
:1034E000B932A30192010E94B9330E9484328B0148
:1034F000F701808182FF0FC0045F114017FF02C0F7
:1035000010E000E0C801880F991F800F911FB401DF
:103510000E9436348B01F701808186FF02C0000FC4
:10352000111FF701808187FF04C0000F111F000FDA
:10353000111F4AE0BE016F5F7F4FC8010E94012F3B
:1035400020E040E0BE016F5F7F4FCE0108960E94F1
:103550007A15FFEFCF1ADF0A22E0A20EB11C8EE02F
:10356000C816D10409F030CF62960FB6F894DEBFCA
:103570000FBECDBFDF91CF911F910F91FF90EF90C4
:10358000DF90CF90BF90AF909F908F907F906F9083
:103590005F904F903F902F9008952092000161E03E
:1035A00080E00E94830561E080E00E94230560E1E5
:1035B00077E280E090E00E94E40560E080E00E9415
:1035C000230564EF71E080E090E00E94E4050ECFF7
:1035D0002F923F924F925F926F927F928F929F9223
:1035E000AF92BF92CF92DF92EF92FF920F931F9311
:1035F000CF93DF93CDB7DEB7CE5ED1090FB6F89487
:10360000DEBF0FBECDBF84E696E00E94070C782E89
:10361000882309F4DFC38091B60483FF04C061E00E
:1036200085E00E942305E0900F0480910A049091A8
:103630000B04F09010040F2D10E0A8016DEC73E066
:10364000CE018F559F4F0E94133680910D04882321
:1036500059F080910E048F3F39F040E06DE572E043
:1036600084E696E00E94161484E696E00E94070C19
:103670008091BF04E812A0C3E1EAF0E0EC0FFD1F67
:10368000E00FF11F108200E09E012F553F4F79019E
:1036900014E162E27FE2C7010E9427366C01892BA8
:1036A00009F467016FE570E0C6010E9427367C01CE
:1036B000802E912C81E090E08C0F9D1F019F800D4A
:1036C000911D1124E114F10409F481C05701AC18D3
:1036D000BD0831E0A31AB108B6016F5F7F4FA501A5
:1036E0000E945236189DC001199D900D1124E1E0F1
:1036F000F0E0EC0FFD1F8E0F9F1FA80EB91EF50105
:103700001082DD24D394D00EFFEFEF1AFF0A62E29D
:103710007FE2C7010E9427365C01009709F455C07B
:103720004C018E189F0821E030E02C0F3D1FD19EE8
:10373000200D311D11246901A401B701C9010E94A6
:103740005236C80CD91CF601108272E0672E600E4A
:103750007501FFEFEF1AFF0A62E27FE2C7010E94E4
:103760002736009781F17C012FEFE21AF20A62E21C
:103770007FE2C7010E9427366C01009721F14C01BE
:103780008E189F08AA24A394B12CAC0EBD1E619E76
:10379000A00CB11C1124A401B701C5010E9452362E
:1037A000A80CB91CF501108263E0662E600EFFEFD5
:1037B000CF1ADF0A62E27FE2C6010E9427367C014F
:1037C000892B09F47601062D64CF0D2D62CF44E1DB
:1037D00050E0B6010E945236212C10E044E1642EE4
:1037E0002EED30E02C0F3D1F2D5F3F4FC351DF4FBB
:1037F00039832883CD5ED040169D600111246EE28E
:1038000072E081E090E08C0F9D1F8C0D9D1D0E9449
:103810003236892B09F08FC0560134E1A30EB11C5A
:1038200081E090E08C0F9D1FA80EB91EC5010E947B
:10383000D82E7C019FE1E916F1040CF07CC0C60192
:103840008896E1E0F0E0EC0FFD1F8E0F9F1F0E94B5
:10385000D82E6701DD249601205030404901682FA1
:10386000C9010E94C831C4010E94B631F601EE556B
:10387000FB4F6F0180832091C00430E0A0E1B7E2EC
:103880000E9469346093960470939704809398041F
:10389000909399042091BA0430E0A8E8B3E10E9423
:1038A000693460938D0470938E0480938F04909399
:1038B00090042091B90430E00E946934609384043C
:1038C00070938504809386049093870483E0E4E1F9
:1038D000F1E0DE01A252BF4F01900D928A95E1F70F
:1038E000C351DF4FE881F981CD5ED04027E01192CE
:1038F0002A95E9F742E050E0B501CE0182529F4F90
:103900000E944236F60180814AE0BE0168517F4F35
:1039100090E00E94012F20E040E0BE0168517F4FFF
:10392000CE0182529F4F0E947A151E5F8CEE8E0D43
:10393000853008F0272C169D7001112462E672E094
:1039400081E090E08C0F9D1F8E0D9F1D0E943236EE
:10395000892BE9F583E0E4E1F1E0DE01A252BF4FFB
:1039600001900D928A95E1F7C351DF4FE881F9810B
:10397000CD5ED04027E011922A95E9F734E1E30EBD
:10398000F11C81E090E08C0F9D1FE80EF91E42E0D3
:1039900050E0B70183529F4F0E944236C7010E94F8
:1039A000D82E8E559B4FFC0180814AE0BE016851A4
:1039B0007F4F90E00E94012F20E040E0BE0168515F
:1039C0007F4FCE0182529F4F0E947A151E5F169D37
:1039D00040011124CC24C394D12CCC0EDD1EC80C84
:1039E000D91C60E372E0C6010E943236892B09F0CF
:1039F00046C0F12CE12C97012E553B4F5901F9019E
:103A000080818823A1F183E0E4E1F1E0DE01A252AC
:103A1000BF4F01900D928A95E1F7CF51DF4F198288
:103A20001882C15ED0404AE0BE0168517F4FC70195
:103A30000E94012F44E050E0BE0168517F4FCE014B
:103A400082529F4F0E944236F50180814AE0BE01BA
:103A500068517F4F90E00E94012F20E041E0BE01BD
:103A600068517F4FCE0182529F4F0E947A15FFEF1F
:103A7000EF1AFF0A2FE1E216F10409F0BCCF66ED60
:103A800072E0C6010E943236892B81F5740134E15F
:103A9000E30EF11C81E090E08C0F9D1FE80EF91EF3
:103AA000C7010E94D82E8E559B4FFC01808185FD59
:103AB00010928204F8E28F0E911C21E030E02C0F6E
:103AC0003D1F820E931E65E372E0C4010E943236F0
:103AD000892B09F031C1C7010E94D82E84559E4F11
:103AE00061E0FC0180810E9423051E5F169D70012C
:103AF000112488248394912C8C0E9D1E8E0C9F1C67
:103B000067E372E0C4010E943236892BC1F5670178
:103B1000F8E2CF0ED11C21E030E02C0F3D1FC20E89
:103B2000D31E6BE372E0C6010E9432362C015701AE
:103B300034E1A30EB11C81E090E08C0F9D1FA80E14
:103B4000B91EC5010E94D82E825C9E4FFC013080B8
:103B5000452809F000C161E0832D0E94230564E639
:103B600070E080E090E00E94E405C5010E94D82E3C
:103B7000825C9E4F60E0FC0180810E94230561E42D
:103B800072E0C4010E943236892B79F441E150E0A1
:103B900061E270E0C701889621E030E02C0F3D1F04
:103BA000820F931F0E94BE31272C6BEC72E0C40180
:103BB0000E943236892B51F58091B20483FFD6C022
:103BC000670134E1C30ED11C81E090E08C0F9D1F92
:103BD000C80ED91EC6010E94D82E62E0680F41E5CA
:103BE00052E084E00E948508C6010E94D82EA701F9
:103BF000485D5F4FE1E0F0E0EC0FFD1F4E0F5F1FEF
:103C000062E0680F84E00E9485081E5F169D7001C7
:103C10001124CC24C394D12CCC0EDD1ECE0CDF1C81
:103C200063ED72E0C6010E943236892BE1F481E037
:103C300080937F04C701889621E030E02C0F3D1F60
:103C4000820F931F0E94D82E60E00E94920F20E006
:103C500041E06EE572E0882311F068E672E084E6E8
:103C600092E00E947A156BE672E0C6010E9432363D
:103C7000892B31F50E94170660938804709389049C
:103C800080938A0490938B046091880470918904D6
:103C900080918A0490918B042AE0AE0142525F4FDA
:103CA0000E940C2F20E040E0BE0162527F4F8EE662
:103CB00092E00E947A1510928304109282041E5F93
:103CC0001F5F011708F098CD222099F020E040E016
:103CD00063E772E088E892E00E947A15A89588E18F
:103CE00099E20FB6F894A895809360000FBE909368
:103CF00060008091B60483FF04C060E085E00E940C
:103D00002305872DC251DF4F0FB6F894DEBF0FBEDB
:103D1000CDBFDF91CF911F910F91FF90EF90DF907A
:103D2000CF90BF90AF909F908F907F906F905F905B
:103D30004F903F902F90089566E672E0C4010E9474
:103D40003236892B09F0D1CEC7010E94D82E845576
:103D50009E4F60E0C6CE65E372E0C6010E94323637
:103D600061E0892B09F060E0832D07CF8091B204D8
:103D700084FF4BCF6701F4E1CF0ED11C21E030E08E
:103D80002C0F3D1FC20ED31EC6010E94D82E45E443
:103D900052E0682F80E00E948508C6010E94D82E5C
:103DA000A701485D5F4FE1E0F0E0EC0FFD1F4E0F13
:103DB0005F1F682F80E027CF6091BF048AEFE82E55
:103DC00004E02F2DAE014F555F4F84E696E00E9430
:103DD000290C8FCF84E696E00E94070C92CFCF92F9
:103DE000DF92EF92FF920F931F93CF93DF931F9277
:103DF000CDB7DEB7C82EDD24D39410E0882349F078
:103E000083E1898382E0D82E10E006C032E0D32E11
:103E100011E081E18983C12C80910701882369F039
:103E20006091BF042AEFE22E04E021E0AE014F5F73
:103E30005F4F84E696E00E94290CF12CE12C0E9451
:103E4000E81A882311F0F12CE12C61E070E080E0A9
:103E500090E00E94E4058FEFE81AF80A83ECE81678
:103E600081E0F80661F7C1102AC08091B804811181
:103E700004C08091B704882311F182E18983809185
:103E80000701882369F06091BF049AEFE92E04E0EE
:103E900021E0AE014F5F5F4F84E696E00E94290C5F
:103EA0001F5F1D1508F4B2CF81E00F90DF91CF9115
:103EB0001F910F91FF90EF90DF90CF90089584E1D4
:103EC000DDCF1F920F920FB60F9211242F933F93C5
:103ED0004F935F936F937F938F939F93AF93BF9312
:103EE000EF93FF9384E395E00E944204FF91EF91EA
:103EF000BF91AF919F918F917F916F915F914F9102
:103F00003F912F910F900FBE0F901F9018951F9209
:103F10000F920FB60F9211242F938F939F93EF93CD
:103F2000FF93E0914405F09145058081E0914A05B9
:103F3000F0914B0582FD1BC0908180914D058F5FF4
:103F40008F7320914E05821741F0E0914D05F0E00E
:103F5000EC5CFA4F958F80934D05FF91EF919F9107
:103F60008F912F910F900FBE0F901F901895808109
:103F7000F4CF1F920F920FB60F9211242F933F93FD
:103F80008F939F93AF93BF93809157049091580460
:103F9000A0915904B0915A043091560423E0230FA4
:103FA0002D3758F50196A11DB11D2093560480931D
:103FB000570490935804A0935904B0935A048091E5
:103FC0005B0490915C04A0915D04B0915E04019645
:103FD000A11DB11D80935B0490935C04A0935D04CC
:103FE000B0935E04BF91AF919F918F913F912F91BC
:103FF0000F900FBE0F901F90189526E8230F029682
:10400000A11DB11DD2CF1F920F920FB60F92112496
:104010002F933F934F935F936F937F938F939F93D0
:10402000AF93BF93EF93FF93E0910401F0910501EB
:104030000995FF91EF91BF91AF919F918F917F91E2
:104040006F915F914F913F912F910F900FBE0F9005
:104050001F9018951F920F920FB60F9211242F9355
:104060003F934F935F936F937F938F939F93AF9300
:10407000BF93EF93FF93E0910201F0910301099543
:10408000FF91EF91BF91AF919F918F917F916F9130
:104090005F914F913F912F910F900FBE0F901F9006
:1040A00018951F920F920FB60F9211242F933F93E2
:1040B0004F935F936F937F938F939F93AF93BF9330
:1040C000EF93FF938091B900887F803609F44AC04E
:1040D000F0F5883209F4A7C018F5803109F49BC0C7
:1040E000B8F4882309F4F9C0883009F494C0FF912A
:1040F000EF91BF91AF919F918F917F916F915F9160
:104100004F913F912F910F900FBE0F901F901895D8
:10411000883109F488C0803251F780930D0514C0AE
:10412000803409F49DC040F48033B9F38833F9F644
:1041300080930D0585ECB0C0803509F485C08835C5
:1041400009F496C0883499F60E944709D0CF88397F
:1041500009F48CC038F5883729F050F4883611F00E
:10416000803729F683E080930F051092550457C0DD
:10417000883809F47BC0803919F0803809F0B7CF4E
:1041800080915504803208F071C0E091550481E0BF
:104190008E0F809355048091BB00F0E0EB5CFB4FE9
:1041A00080833DC0803B39F0E0F4803A09F479C067
:1041B000883A09F09CCF84E080930F051092340474
:1041C00010923304E091C504F091C60409958091E2
:1041D000330481110FC081E08093330410921304E3
:1041E00009C0803C09F4A6CF883C09F4A3CF883BE2
:1041F00009F07DCFE091340481E08E0F8093340488
:10420000F0E0ED5EFB4F80818093BB009091340421
:104210008091330429C08091EA048093BB0085EC2F
:104220008093BC0064CF90910C0580910B0598178A
:1042300058F5E0910C0581E08E0F80930C05F0E0BD
:10424000E551FB4F8081E9CFE0910C0581E08E0FB5
:1042500080930C058091BB00F0E0E551FB4F80831B
:1042600090910C0580910B059817C8F285E8D8CF7E
:10427000E0910C0581E08E0F80930C058091BB00CE
:10428000F0E0E551FB4F808380910E0581115CCFFA
:1042900081E08093E90484EA8093BC0010920F05CA
:1042A00026CF85EC8093BC0010920F0580915504B9
:1042B000803230F4E0915504F0E0EB5CFB4F10826B
:1042C0006091550470E0E091C304F091C40485E36B
:1042D00094E00995109255040ACF10920D0534CF41
:1042E0001F920F920FB60F9211248F9383B78E7F78
:1042F00083BF8F910F900FBE0F901F9018951F9244
:104300000F920FB60F9211242F933F934F935F9309
:104310006F937F938F939F93AF93BF93CF93EF93BD
:10432000FF93F89462E070E080E090E00E94E40582
:10433000789483B78E7F83BFC091070110920701E5
:1043400080E00E94361781E080939504C0930701B6
:104350008093CC03FF91EF91CF91BF91AF919F914B
:104360008F917F916F915F914F913F912F910F901E
:104370000FBE0F901F9018951F920F920FB60F92BD
:1043800011242F933F934F935F936F937F938F935A
:104390009F93AF93BF93EF93FF930E947F21FF9171
:1043A000EF91BF91AF919F918F917F916F915F91AD
:1043B0004F913F912F910F900FBE0F901F90189526
:1043C0001F920F920FB60F9211242F933F934F938A
:1043D0005F936F937F938F939F93AF93BF93EF936D
:1043E000FF930E947F21FF91EF91BF91AF919F9129
:1043F0008F917F916F915F914F913F912F910F908E
:104400000FBE0F901F901895CF9310923705109202
:10441000360588EE93E0A0E0B0E0809338059093F5
:104420003905A0933A05B0933B052FEB31E030936B
:1044300035052093340525EC30E030934105209379
:10444000400524EC30E0309343052093420520ECF6
:1044500030E0309345052093440521EC30E0309363
:1044600047052093460522EC30E030934905209320
:10447000480526EC30E030934B0520934A05109216
:104480004D0510924E0510924F0510925005109256
:10449000D4051092D3058093D5059093D605A093AB
:1044A000D705B093D80581ED91E09093D205809324
:1044B000D1058FEE91E0909365068093640685E0C8
:1044C0008093660683E08093670681E080936806A8
:1044D0008093630610926A068FE180936B061092B8
:1044E0006C0610922F0610922E0610926106109202
:1044F000620683EE91E090932D0680932C06109235
:104500003106109230061092410610924406109225
:1045100045068FEF8093420680934706EBE4F6E072
:10452000CFEFC19386E0E136F807D9F78BEA96E042
:10453000909335068093340680EA97E0909337068F
:10454000809336068EEC99E0909339068093380676
:104550008DE898E090933B0680933A0630E020E0A7
:1045600040E069E080E396E00E94AB06C093560607
:10457000C0935706C093580660E089E00E94830507
:10458000E1EBF2E0E491E0931E06EDE9F2E0E49164
:10459000F0E0EE0FFF1FE657FD4F85919491909349
:1045A000200680931F061092290610922B06109267
:1045B0002A061092280610922706109226061092BC
:1045C00025061092240610922306109222061092BD
:1045D00021068CE093E090931D0680931C068EE1EB
:1045E00096E0909311068093100610920F06109299
:1045F0000B0689E080930C0681E080930D06809382
:104600000E06C093E605C093E705C093E805C09386
:10461000E905CF910895CF93DF93CDB7DEB7CA56A2
:10462000D1090FB6F894DEBF0FBECDBF789484B524
:10463000826084BD84B5816084BD85B5826085BD9E
:1046400085B5816085BD80916E00816080936E002C
:10465000109281008091810082608093810080911E
:1046600081008160809381008091800081608093CF
:1046700080008091B10084608093B1008091B0008F
:1046800081608093B00080917A00846080937A008A
:1046900080917A00826080937A0080917A008160B4
:1046A00080937A0080917A00806880937A001092DB
:1046B000C1000E94060F80E090E00E94B6318F3F5B
:1046C000C1F500E010E060E0C8010E94C8310F5F52
:1046D0001F4F20E00C311207B1F76FEF8AE190E035
:1046E0000E94C8316EEF8BE190E00E94C83161E01A
:1046F0008CE190E00E94C83161E08DE190E00E9481
:10470000C83162E08EE190E00E94C8316FEA8FE12B
:1047100090E00E94C83160E080E290E00E94C831E1
:1047200041E150E061E270E08EE892E00E94BE312B
:1047300016C08FE190E00E94B6318F3A11F662E028
:104740008FE00E94830561E070E080E090E00E94CD
:10475000E4058FE00E94FA04892B09F4B2CF10E03F
:1047600000E0C801805090400E94B631F801EE553B
:10477000FB4F80830F5F1F4F0132110591F7E3E676
:10478000F4E08FE794E011921192119211928E173A
:104790009F07C9F72091C00430E0A0E1B7E20E9472
:1047A000693460939604709397048093980490936F
:1047B00099042091BA0430E0A8E8B3E10E9469347A
:1047C00060938D0470938E0480938F049093900473
:1047D0002091B90430E00E9469346B017C01C092E1
:1047E0008404D0928504E0928604F09287040E94AB
:1047F00017066C197D098E099F09609388047093D0
:10480000890480938A0490938B04CD28CE28CF28E6
:1048100009F4E4C0109282048091BE04813031F426
:104820008091BD048E3F11F41092070161E085E094
:104830000E94830561E086E00E94830561E087E0D5
:104840000E94830561E082E00E94830561E087E0C9
:104850000E94230561E082E00E94230565E070E08C
:1048600080E090E00E94E40560E082E00E94230581
:104870006AE070E080E090E00E94E4053091BE04C0
:104880001091BD04FE0133968CE2DF011D928A95E2
:10489000E9F781E0898384E08A8322E02B8393E037
:1048A0009D832E838F8380E4888725E029879A87DC
:1048B00096E09B8793E39C8797E09D8728E02F876E
:1048C00029E0298B29E12B8B22E42C8B45E24D8BAF
:1048D0008E8B46E24F8B988F98E2998F90E19A8F5A
:1048E00099E29B8F9CED9C8F9EE29D8F98E89E8F16
:1048F0009FE29F8F9DE298A390E399A347E34BA388
:1049000040E94CA348E34DA32EA32CE32FA32FE8AB
:1049100028A72DE329A722E12AA72FE62BA79CA7EA
:104920009FEF9DA79CE69E87888B3AA361E08091CC
:1049300066060E94230561E0809166060E94830559
:104940000E94A80B0E9417066B017C014AEA6FE2E5
:1049500084E696E00E94130D6FE284E696E00E94E2
:10496000480D8A3A59F00E9417066C197D098E0984
:104970009F09623371058105910540F30E94170676
:104980006B017C0145E56FE284E696E00E94130D21
:104990006FE284E696E00E94480D853559F00E944A
:1049A00017066C197D098E099F096233710581050F
:1049B000910540F300E0FE0131966F01E02FF0E039
:1049C000EE0FFF1FEC0DFD1D60816F3F59F041811F
:1049D00084E696E00E94130D0F5FF0CF81E0809394
:1049E00082041ACF90E080E00E94370E60916C063E
:1049F00084E696E00E94660D61E084E696E00E94FF
:104A0000CE0D0E9417064B015C0167E284E696E03A
:104A10000E94480D87FD0BC00E941706681979098E
:104A20008A099B09623371058105910570F30E9423
:104A30001706681979098A099B096233710581058E
:104A4000910570F51092610480916806823098F4A7
:104A5000E82FF0E0EE0FFF1FEE5FFE4F23EB33E099
:104A600031832083813009F4A1C180916900836082
:104A700080936900E89A84E696E0909360048093BE
:104A80005F041093690667E00E94480D182F67E0E5
:104A900084E696E00E94480D1F3F11F0811117C077
:104AA00014E160E087E00E94230564E670E080E0A6
:104AB00090E00E94E40561E087E00E94230564E63F
:104AC00070E080E090E00E94E405115051F76FE142
:104AD00084E696E00E94B50D41E150E061E270E0AD
:104AE000CE018F960E94A631CE018F960E94370E7E
:104AF00084E696E00E94070C8091AC0481110BC003
:104B00008091AD04811107C08091AE04811103C072
:104B10008091AF048111109206011CEA812E11E0F0
:104B2000912E10E000E0D401FD904D01F801EE550A
:104B3000FB4F5F01FAE0FF1661F0D5016C916170E7
:104B40008F2D0E948305F501608162708F2D0E9478
:104B50002305D5018C9182FF03C08F2D0E94480F41
:104B60000F5F1F4F07301105F1F68091B60480FFEB
:104B700004C061E086E00E9423058091B10481FFBA
:104B800008C060E080E00E94830561E081E00E944F
:104B900083058091B20484FD04C08091B20483FF38
:104BA0006FC0E0913406F091350630E020E040E03F
:104BB0006AE080E396E0099588E0F60111928A9513
:104BC000E9F7C6010E940D0360E080E396E00E94D1
:104BD0002B0660E080E396E00E942B064091BC0427
:104BE000E0913406F091350630E020E06EE080E39D
:104BF00096E009958CEB92E090933D0680933C06FD
:104C000086E0EEE1F1E0D60101900D928A95E1F7A0
:104C1000FE01379684E0DF011D928A95E9F78091C5
:104C2000BD044AE0BE01605C7F4F90E00E94012F0E
:104C300043E050E0BE01605C7F4FC6010E944236F7
:104C4000A60162E084E00E9485086FE972E0C60177
:104C50000E943B368091BE044AE0BE01605C7F4FFB
:104C600090E00E94012F43E050E0BE01605C7F4F66
:104C7000C6010E944236A60163E084E00E948508D6
:104C80008091B50480FDEDC280E290E00E94B631D3
:104C90008111D9C061E080E290E00E94C83188E1D2
:104CA00099E20FB6F894A895809360000FBE909398
:104CB0006000F89480E821E030E00FB6F89480932B
:104CC0006100209361000FBE00916600609080003B
:104CD000709081008090820090906F00A090B00052
:104CE000B090B100E0907000F090B600109280009B
:104CF000109281001092820010926F001092B0000A
:104D00001092B100109270001092B60066E284E634
:104D100096E00E94480D582E45E066E284E696E053
:104D20000E94130D1092700083B5826883BD80E4E9
:104D30008093B6008091B60080628093B60081E0D7
:104D40008093B1001092B00083B58F7783BD87B395
:104D5000182F117080FFFBCF87E087BB81E0809325
:104D6000810080E88093660021E837E0112359F143
:104D7000B89BFCCF23BD37BB809184009091850008
:104D800010FD1FC0AC014D5F534047305105D8F0B6
:104D90008115944090F4809166008F5F8093660047
:104DA00010928500109284001F5FE0CF809169000F
:104DB0008C6080936900E99A5ECE80916600815094
:104DC000EDCF13BCF1CF7894452D66E284E696E0F2
:104DD0000E94130D60928000709281008092820088
:104DE00090926F00A092B000B092B100E09270007B
:104DF000F092B60087E286BB87E087BB13BC111137
:104E000019C00093660080910701882399F081E121
:104E1000EEEEF2E0D60101900D928A95E1F76091F5
:104E2000BF04BAEFEB2E04E021E1A60184E696E090
:104E30000E94290C60E080E290E00E94C8310E944C
:104E4000060F11E018C0809107018823D1F388E193
:104E5000EFEFF2E0D60101900D928A95E1F76091B3
:104E6000BF04AAEFEA2E04E028E1A60184E696E05A
:104E70000E94290C10E08091B20481FF35C0E091BE
:104E80004405F091450582E08083E0914005F09172
:104E900041051082E0914205F09143058FEC80833B
:104EA00010924C05E0914805F091490586E0808319
:104EB000E0914605F0914705808180618083E09113
:104EC0004605F0914705808188608083E091460522
:104ED000F0914705808180688083E0914605F091DC
:104EE000470580818F7D80838091B10482FF1CC043
:104EF0000E946811811118C0809107018823A1F0D8
:104F000089E1E7E1F3E0D60101900D928A95E1F79E
:104F10006091BF04EAEFEE2E04E029E1A60184E6E9
:104F200096E00E94290C10E060E080E290E00E9490
:104F3000C8311123B9F080910701882399F08DE0E1
:104F4000E0E3F3E0D60101900D928A95E1F76091DC
:104F5000BF047AEFE72E04E02DE0A60184E696E098
:104F60000E94290C60E087E00E942305FE01349630
:104F70006296FFAFEEAF62978091B60483FF04C0E4
:104F800060E087E00E9423058091B60481FF1FC086
:104F90000E94170600919E0410919F042091A00486
:104FA0003091A104601B710B820B930B693B7B401A
:104FB0008105910560F00E94170660939E0470932E
:104FC0009F048093A0049093A1040E94F50E61E0D9
:104FD00080E00E94920F0E94170620910801C09065
:104FE0009A04D0909B04E0909C04F0909D046C196E
:104FF0007D098E099F09C0909604D0909704E09097
:105000009804F0909904C616D706E806F90608F445
:105010003CC121113CC180E00E94361780E00E9413
:10502000B9190E94170600918D0410918E042091E9
:105030008F0430919004C0909104D0909204E0903D
:105040009304F09094046C197D098E099F0906174A
:1050500017072807390720F080918C048823B1F0C6
:10506000012B022B032B91F00E94170660939104F1
:1050700070939204809393049093940420E041E011
:105080006BED72E08BE692E00E947A1520E040E042
:105090006DE572E0CB010E947A150E94170600911F
:1050A00088041091890420918A0430918B04601B3C
:1050B000710B820B930B0091840410918504209155
:1050C000860430918704061717072807390748F523
:1050D0008091830481110BC020E040E062EE72E019
:1050E0008EE692E00E947A1581E08093830410E0BE
:1050F00000E0F801EE55FB4F808185FF0AC09081EA
:10510000F801E455FE4F808161E091FF60E00E946C
:1051100023050F5F1F4F0730110559F781E080937A
:10512000820480918104811109C080910701882344
:1051300019F081E00E94EF1E809381048091B804F1
:10514000882309F46FC08091B704882309F46AC0EA
:1051500080918204882309F465C080910701882327
:1051600019F080E00E94EF1E8091B20480FF04C01D
:1051700060E081E00E94830580918004882331F102
:1051800080917F04882311F16AE070E080E090E074
:105190000E94E4051092800480E00E94FA04892BAA
:1051A00009F4CBC581E00E94FA04892B09F4C5C536
:1051B00061E087E00E9423056EE170E080E090E00E
:1051C0000E94E40560E087E00E9423058091B2041C
:1051D00080FF04C061E081E00E94830561E080E01F
:1051E0000E94920F809182048823E1F08091B6049E
:1051F00083FF04C060E087E00E9423058091B6042D
:1052000020E040E06DE572E086FFA4C5CB010E947E
:105210007A15182F81E081270E944A1810930801FF
:1052200010938C048091B804882321F08091B704F6
:10523000811102C00E94E81A8091B60483FF04C065
:1052400061E087E00E94230580E090E0892B09F46B
:1052500093CE0E942E04882309F48ECE0E94000073
:105260008BCE80910701882309F4EBCD87E1EDE334
:10527000F3E0D60101900D928A95E1F76091BF04A9
:10528000FAEFEF2E04E027E1F0CD222351F08091D8
:10529000B10480FF06C068EE73E080E090E00E94F9
:1052A000E4050E94170660939A0470939B04809310
:1052B0009C0490939D048091B804882319F081E0A8
:1052C0000E9467198091B10480FF2CC18091620413
:1052D000811182C0E0911006F091110613861586A7
:1052E0001486128611861086178216821582148201
:1052F000138210920F0601E0BE01615D7F4F809125
:105300001006909111060E944113882309F45BC096
:1053100067E0CE018F960E94340A9EA98913ECCFD4
:1053200080910B06811128C0809110069091110682
:105330000E94E60ABE01615D7F4F80911006909148
:1053400011060E94C70A40E064EB8091100690911C
:1053500011060E94930A80911006909111060E94F6
:10536000400A182F80911006909111060E94E60ABB
:10537000111102C000930B06BE016F5F7F4FCE017B
:105380008F960E941E0B10910C068FA5803109F498
:10539000EDC4CE018F960E94730B811750F480915B
:1053A0000C0680930C0680910F068F5F80930F068A
:1053B000A3CF8FA5803111F48CE0F3CFCE018F966F
:1053C0000E94730BEECF81E0809362046CED75E078
:1053D00080E090E00E94E405809110069091110613
:1053E0000E94E60A40E06CEC809110069091110654
:1053F0000E94930A40910B0664E4809110069091FC
:1054000011060E94930A80910D068823A1F0E09175
:105410000C06E9506EEE72E0E33038F4F0E0EE0F87
:10542000FF1FEA55FE4F60817181072E000C880B2B
:10543000990B0E94E405F12C4EE0E42E80910F06BA
:10544000F81608F061C083E0E8E2F1E0DE011196B1
:1054500001900D928A95E1F76296AEADBFAD62976D
:10546000EE2D1D92EA95E9F76F2DCE01805C9F4FDE
:105470000E94BF13811109C460E070E08EEF92ECCE
:105480008E01015D1F4F21E043E00E94BA2E6F2D77
:10549000CE01885B9F4F0E94BF13075E1F4FD12C28
:1054A000D8018D918D014AE0BE01605C7F4F90E094
:1054B0000E94012F43E050E0BE01605C7F4FCE01AF
:1054C00001960E944236B2E0DB1631F065EA72E0E6
:1054D000CE0101960E941C36D394E3E0DE12E0CFA9
:1054E00020E040E0BE01615D7F4FCE0101960E9449
:1054F0007A15F5E6FF121BC420E040E067EA72E08F
:105500008EE692E00E947A1580910F0681110AC002
:105510001092620420E040E063EB72E08EE692E0DD
:105520000E947A158091B10481FF08C020E041E01B
:1055300063EC72E08DEC92E00E947A158091B104E8
:1055400082FF48C30E94BF128E010F5F1F4F21E0F0
:1055500043E00E94BA2E20E040E0B80182ED92E0E4
:105560000E947A150E94BF1287EF0E943912AB96F3
:105570006CAF7DAF8EAF9FAFAB978091E2059091FE
:10558000E305A091E405B091E5056C017D01FF0CF8
:10559000CC08DC2C76019C01AD016C2D7C2D8C2D72
:1055A0009C2D345F414051096109710981099109BC
:1055B00063962FAF639764963FAF649765964FAF3E
:1055C000659766965FAF669767966FAF67976896C1
:1055D0007FAF689769968FAF69976A969FAF6A9712
:1055E00059016A017B018C010E948B346B962FAFAD
:1055F0006B976C963FAF6C976D964FAF6D97A39678
:105600005FAFA397A4966FAFA497A5967FAFA5971A
:10561000A6968FAFA697A7969FAFA7973091F30551
:105620002091F205932F990F990B492F592F692F2C
:10563000792F892F0E948B340CE00E948335190149
:105640002A013B014C013091F5052091F405932F7F
:10565000990F990B6B96AFAC6B976C96BFAC6C9730
:105660006D96CFAC6D97A396DFACA397A496EFACE5
:10567000A497A596FFACA597A6960FADA697A7965B
:105680001FADA797492F592F692F792F892F0E9476
:105690008B3408E00E949C35510162017301840142
:1056A0000E94B93570588F4F9F4F2090F005309071
:1056B000F1055101C12CD12CE12CF12C00E010E0BE
:1056C0000E948B3401E20E949C356E962FAF6E973C
:1056D0006F963FAF6F97A0964FAFA097A1965FAF21
:1056E000A197A2966FAFA297272E382E492EA0E041
:1056F0000E94CB3509F41DC33091FB052091FA05BA
:10570000932F990F990B6B96AFAC6B976C96BFACC0
:105710006C976D96CFAC6D97A396DFACA397A496CC
:10572000EFACA497A596FFACA597A6960FADA6974C
:10573000A7961FADA797492F592F692F792F892F2A
:105740000E948B346B962FAF6B976C963FAF6C9724
:105750006D964FAF6D97552E3B014C013091F90579
:105760002091F805932F990F990B6396AFAC63972F
:105770006496BFAC64976596CFAC65976696DFACD0
:1057800066976796EFAC67976896FFAC68976996DF
:105790000FAD69976A961FAD6A97492F592F692FE8
:1057A000792F892F0E948B3401E10E9483356B96FB
:1057B000AFAC6B976C96BFAC6C976D96CFAC6D979A
:1057C000D52C730184010E94B93559016A017B010E
:1057D000582E192FAB968CAD9DADAEADBFADAB972E
:1057E000F4E0B595A79597958795FA95D1F720E0C0
:1057F00030E040E150E0281B390B4A0B5B0B3901CC
:105800004A01990C6608762C4301662D762D862D6B
:10581000962D0FE10E94833539014A01B62FA72F3B
:10582000F82FE92F3091F7052091F605932F990F66
:10583000990B492F592F692F792F892F03E20E9445
:105840008335052D0E94B93559016A017B018C0110
:105850009301A4016B2F7A2F8F2F9E2F0E94C235A8
:10586000E5E3AE2EFCE0BF2EC12CD12CE12CF12CB7
:1058700000E010E00E948B346E96AFAC6E976F968E
:10588000BFAC6F97A096CFACA097A196DFACA197C5
:10589000A296EFACA297F22C032D142D0E94E534B2
:1058A00063962FAF639764963FAF649765964FAF4B
:1058B000659766965FAF669767966FAF67976896CE
:1058C0007FAF689769968FAF69976A969FAF6A971F
:1058D0000DE00E949C35922E832E742E652E562E3E
:1058E000472E382E292E3091010620910006932F45
:1058F000990F990BA92CB82CC72CD62CE52CF42C7D
:10590000032D122D492F592F692F792F892F0E948E
:105910008B340E948B3409E10E949C356396AFACB6
:1059200063976496BFAC64976596CFAC65976696AF
:10593000DFAC66976796EFAC67976896FFAC6897A1
:1059400069960FAD69976A961FAD6A970E94B9353F
:1059500019012A013B014C013091FF052091FE0500
:10596000932F990F990B492F592F692F792F892F31
:105970000E948B3403E10E949C3559016A017B012E
:105980008C019101A201B301C4010E94B93508E064
:105990000E949C3559016A017B01E82F192F309133
:1059A000FD052091FC05932F990F990B492F592F35
:1059B000692F792F892F04E00E9483350E2F0E94D2
:1059C000B9350E94B33220E030E040E85BE30E944A
:1059D000B93320E030E048EC52E40E9412326B010F
:1059E0007C0120E030E0A9010E940D32811102C04B
:1059F0000E9468118E010F5F1F4F21E043E0C70135
:105A0000B6010E94BA2E20E040E0B80185ED92E098
:105A10000E947A150E94BF128DEF0E9413114090D0
:105A2000E2055090E3056090E4057090E5053CE2E6
:105A3000531A31E0630A7108B0E0A0E06C017D0107
:105A40003EE0CC0CDD1CEE1CFF1C3A95D1F74091DA
:105A5000060650910706052E000C660B770BE4E155
:105A6000440F551F661F771FEA95D1F7C41AD50A50
:105A7000E60AF70AA0910806B0910906A30192016F
:105A80000E948334C61AD70AE80AF90A40E4D40E01
:105A9000E11CF11CFFE0F594E794D794C794FA95C4
:105AA000D1F7A0910506B0E0A3010E9478344B0124
:105AB0005C01ABE0B594A79497948794AA95D1F72D
:105AC00050E8950EA11CB11CA0910A060A2E000CEC
:105AD000BB0BA3010E948334BAE095958795779517
