:100000000C94E0020C9412170C94EB160C946411EF
:100010000C9431110C94FE100C94550A0C940803A6
:100020000C9408030C9408030C9408030C94080324
:100030000C9408030C9408030C9408030C94080314
:100040000C94A1160C9408030C942A150C94041516
:100050000C9408030C9408030C9408030C940803F4
:100060000C9424040C940803207F0000000000007E
:10007000000000065F5F060000000007070007079A
:100080000000147F7F147F7F1400242E6B6B3A12C4
:100090000000466630180C666200307A4F5D377A91
:1000A00048000407030000000000001C3E634100FC
:1000B00000000041633E1C000000082A3E1C1C3E5C
:1000C0002A0808083E3E080800000080E0600000A2
:1000D0000000080808080808000000006060000030
:1000E00000006030180C060301003E7F71594D7FFF
:1000F0003E0040427F7F40400000627359494F6696
:100100000000226349497F360000181C16537F7F88
:100110005000276745457D3900003C7E4B497930CA
:100120000000030371790F070000367F49497F36CD
:100130000000064F49693F1E00000000666600008F
:1001400000000040763600000000081C36634100C5
:1001500000002424242424240000004163361C08C9
:100160000000020351590F0600003E7F415D5D1FF4
:100170001E007C7E13137E7C0000417F7F49497FF7
:1001800036001C3E634141632200417F7F41633E54
:100190001C00417F7F495D416300417F7F491D0114
:1001A00003001C3E6341517372007F7F08087F7F0C
:1001B000000000417F7F41000000307040417F3FE0
:1001C0000100417F7F081C776300417F7F414060D1
:1001D00070007F7F0E1C0E7F7F007F7F060C187FD4
:1001E0007F001C3E6341633E1C00417F7F49090F35
:1001F00006001E3F21717F5E0000417F7F09197F4D
:10020000660022674D597322000003417F7F41033E
:1002100000007F7F40407F7F00001F3F60603F1FE6
:1002200000007F7F3018307F7F0043673C183C67B9
:100230004300074F78784F070000476371594D67B7
:100240007300007F7F41410000000103060C18305D
:1002500060000041417F7F000000080C0603060C8F
:100260000800808080808080808000000307040078
:100270000000207454543C784000417F3F48487847
:100280003000387C44446C280000307848493F7F77
:100290004000387C54545C180000487E7F490302BB
:1002A000000098BCA4A4F87C0400417F7F08047C73
:1002B000780000447D7D4000000060E08080FD7D8E
:1002C0000000417F7F10386C440000417F7F400078
:1002D00000007C7C18381C7C78007C7C04047C78D2
:1002E0000000387C44447C38000084FCF8A4243CA2
:1002F0001800183C24A4F8FC8400447C784C041CAE
:100300001800485C54547424000000043E7F4424C8
:1003100000003C7C40403C7C40001C3C60603C1C3D
:1003200000003C7C7038707C3C00446C3810386CA9
:1003300044009CBCA0A0FC7C00004C64745C4C6439
:10034000000008083E774141000000000077770078
:1003500000004141773E0808000002030103020348
:10036000010070784C464C787000000000002400BA
:1003700027002A0000000000250028002B000000B4
:100380000008000201000003040700000000000054
:100390000000005EBCE2613FDD83C29C7E20A3FDC5
:1003A0001F419DC3217FFCA2401E5F01E3BD3E6053
:1003B00082DC237D9FC1421CFEA0E1BF5D0380DE85
:1003C0003C62BEE0025CDF81633D7C22C09E1D4337
:1003D000A1FF4618FAA427799BC584DA3866E5BBE5
:1003E0005907DB856739BAE406581947A5FB782613
:1003F000C49A653BD987045AB8E6A7F91B45C69845
:100400007A24F8A6441A99C7257B3A6486D85B05F6
:10041000E7B98CD2306EEDB3510F4E10F2AC2F71A4
:1004200093CD114FADF3702ECC92D38D6F31B2ECD2
:100430000E50AFF1134DCE90722C6D33D18F0C5204
:10044000B0EE326C8ED0530DEFB1F0AE4C1291CFB6
:100450002D73CA947628ABF517490856B4EA693764
:10046000D58B5709EBB536688AD495CB2977F4AA92
:100470004816E9B7550B88D6346A2B7597C94A14C4
:10048000F6A8742AC896154BA9F7B6E80A54D78976
:100490006B3500000000230026002900040404043A
:1004A000040404040202020202020303030303031E
:1004B00001020408102040800102040810200102FB
:1004C0000408102000407A10F35A00A0724E180958
:1004D0000010A5D4E80000E87648170000E40B54AB
:1004E000020000CA9A3B000000E1F505000080967A
:1004F0009800000040420F000000A08601000000AC
:10050000102700000000E803000000006400000065
:1005100000000A00000000000100000000002C762E
:10052000D888DC674F0823DFC1DFAE59E1B1B79649
:10053000E5E3E453C63AE651997696E8E6C28426A6
:10054000EB898C9B62ED407C6FFCEFBC9C9F40F282
:10055000BAA56FA5F490055A2AF75C936B6CF967FE
:100560006DC11BFCE0E40D47FEF520E6B500D0EDC3
:10057000902E0300943577050080841E080000202B
:100580004E0A000000C80C333333330F986E1283C9
:100590001141EF8D2114893BE65516CFFEE6DB189D
:1005A000D1844B381BF77C1D901DA4BBE424203262
:1005B00084725E228100C9F124ECA1E53D27C129A6
:1005C00011241FBECFEFD8E0DEBFCDBF12E0A0E008
:1005D000B1E0EAEFF4E602C005900D92A83BB10746
:1005E000D9F725E0A8EBB2E001C01D92A13CB2070B
:1005F000E1F712E0C0EED2E004C02197FE010E94B4
:10060000D22CCF3DD107C9F70E946B1D0C947B32D1
:100610000C94000085ED8093BC008091BC0084FDAB
:10062000FCCF10926104089540918003262F30E0A2
:10063000240F311D21323105DCF420916104243076
:10064000C9F4FC0180E090E0861758F430918003F3
:100650002191DC01A25ABC4FA30FB11D2C9301962E
:10066000F3CF80918003680F6093800380E008954A
:1006700081E0089582E008950895E0911A04809140
:100680001904E81730F4F0E0E55EFB4F808190E05C
:1006900008958FEF9FEF089590911A0480911904A7
:1006A000981750F4E92FF0E0E55EFB4F208130E031
:1006B0009F5F90931A0402C02FEF3FEFC901089586
:1006C0008091190490E020911A04821B91090895E9
:1006D000CF92DF92EF92FF920F931F93CF93DF930E
:1006E0007C01262F972F8A0180916204882391F044
:1006F000C62FD72F6E01C40ED51ECC15DD0571F0A7
:100700006991D701ED91FC910190F081E02DC70135
:100710000995F3CF642F822F0E941403C801DF9143
:10072000CF911F910F91FF90EF90DF90CF900895A0
:10073000CF93DF931F92CDB7DEB769832091620418
:100740002223D1F020918504203240F021E030E0D6
:10075000FC013383228380E090E015C08091630424
:10076000E82FF0E0EC59FB4F998190838F5F8093E5
:1007700063048093850405C061E0CE0101960E9468
:10078000140381E090E00F90DF91CF9108950895D8
:10079000F8942091A705233021F420915C032111C6
:1007A0000FC02091A705233011F4789407C0DC0115
:1007B000ED91FC910288F389E02D099580E0089580
:1007C000DC01ED91FC910488F589E02D61E009954B
:1007D00081E0089581E08093BA028091B8029091FF
:1007E000B902DC01ED91FC910484F585E02D0995B9
:1007F0001092BA020895CF93DF93EC0161E08A81F1
:100800000E94851589858CBD8A858DBD8091BA022F
:10081000811101C07894DF91CF910895FC01F89483
:100820008CB581878DB582878CB5837F8CBD8CB567
:100830008F7D8CBD8CB58C7F8CBD8DB58E7F8DBD35
:1008400060E082810C9485151F920F920FB60F9273
:1008500011242F933F934F935F936F937F938F93C5
:100860009F93AF93BF93EF93FF938091B900887FDD
:10087000803609F49CC068F5883209F45BC090F4B6
:10088000803109F454C038F4882309F4F6C0883064
:1008900009F44DC0F6C0883109F44CC0803209F427
:1008A0005DC0EFC0803409F468C048F4803309F4B7
:1008B00055C0883309F0E5C080935F04D8C0803507
:1008C00009F44FC0883509F45DC0883409F0D9C0F7
:1008D000D6C0883909F4C7C0A8F4883709F467C0BE
:1008E00038F4883609F463C0803709F460C0C9C0A1
:1008F000883809F4B8C0803909F45FC0803809F03D
:10090000C0C05BC0803B09F486C038F4803A09F46B
:1009100066C0883A09F47FC0B4C0803C09F4A7C01F
:10092000883C09F4A4C0883B09F48AC0AAC080911D
:100930003C0410C090915E0480915D04981770F59E
:10094000E0915E0481E08E0F80935E04F0E0E35C52
:10095000FB4F80818093BB0085EC86C080935F0451
:100960008EC0E0915E0481E08E0F80935E048091E2
:10097000BB00F0E0E35CFB4F808390915E048091CC
:100980005D046EC0E0915E0481E08E0F80935E0492
:100990008091BB00F0E0E35CFB4F808380916004BA
:1009A00081116DC081E080933B0484EA61C083E0E3
:1009B000809361041092A403CFCF8091A40380326E
:1009C00008F051C0E091A40381E08E0F8093A4034E
:1009D0008091BB00F0E0EC57FC4F8083BDCF85ECED
:1009E0008093BC00109261048091A403803230F4A3
:1009F000E091A403F0E0EC57FC4F10826091A40357
:100A000070E0E0918203F091830384E893E009951C
:100A10001092A40336C084E0809361041092810395
:100A200010928003E0917E03F0917F0309958091FD
:100A30008003811105C081E08093800310925E03E2
:100A4000E091810381E08E0F80938103F0E0E25A10
:100A5000FC4F80818093BB00909181038091800343
:100A6000981708F479CF85E88093BC000AC085EC1C
:100A70008093BC001092610404C010925F040E9435
:100A80000A03FF91EF91BF91AF919F918F917F9159
:100A90006F915F914F913F912F910F900FBE0F90EB
:100AA0001F9018951092610481E080936004109269
:100AB0003B0461E082E10E94851561E083E10E94D0
:100AC0008515E9EBF0E080818E7F808380818D7FCA
:100AD000808388E48093B80085E48093BC00089507
:100AE00008958CBD9DBD0895FC0190810180F28127
:100AF000E02DF8948181892B81832281892F809533
:100B000028232283A7E0B0E01197F1F72181822307
:100B10008183A3E2B0E01197F1F780817894EFEC44
:100B2000F0E03197F1F7982381E009F480E008952F
:100B3000FC0190810180F281E02D892F809560FF7A
:100B400012C0F8942281822382838181892B818340
:100B5000A3E2B0E01197F1F78281982B9283789409
:100B600087ED90E011C0F8942281822382838181F5
:100B7000892B8183AFEFB0E01197F1F78281982B39
:100B8000928378948FE090E00197F1F70895FC014B
:100B900090810180F281E02DF8948181292F2095A8
:100BA0008223818378948DE743E050E0815021F1E6
:100BB000DA011197F1F730813923C1F3F89482817A
:100BC000822382838181892B81837894ABE7B7E08C
:100BD0001197F1F7F894818128232183A3E1B1E0F3
:100BE0001197F1F78081982381E009F080E07894F3
:100BF000E3E6F6E03197F1F70895CF93CFB7F89495
:100C000080915D03811127C0E6EAF4E08491EAEB6C
:100C1000F4E09491E82FF0E0EE0FFF1FE659FC4F4F
:100C2000A591B491EC91E92321F461E08AE00E945E
:100C3000851561E08AE00E94B5158CB580618CBD98
:100C40008CB580648CBD61E08DE00E94B51561E0DB
:100C50008BE00E94B51580915D038F5F80935D03EB
:100C6000CFBFCF9108950F931F93CF93DF9300D001
:100C7000CDB7DEB78C01DC01ED91FC91008CF18DDC
:100C8000E02D4A83698309956981862F80680E94D7
:100C90004E0A4A81842F0E944E0AD801ED91FC91A0
:100CA000028CF38DE02DC8010F900F90DF91CF9152
:100CB0001F910F9109941F93CF93DF93EC01162F8F
:100CC000611102C045E501C04DE56AE5CE010E9413
:100CD0003306111102C040E701C04CE76CE5CE01BC
:100CE000DF91CF911F910C943306EF92FF921F93E7
:100CF000CF93DF931F92CDB7DEB77C01DC01ED917E
:100D0000FC91008CF18DE02D698309956981862F16
:100D10008F770E944E0A80E00E944E0A182FD7015A
:100D2000ED91FC91028CF38DE02DC7010995812F87
:100D30000F90DF91CF911F91FF90EF900895CF9387
:100D4000DF93EC016887611102C04AE101C04FE006
:100D500063E1CE010E9433068885882341F061E17A
:100D6000CE010E9475068F71482F406602C04F81E8
:100D7000406861E1CE01DF91CF910C943306CF93AF
:100D8000DF93EC0110925B0310925A031092590307
:100D900010925C031092580310925703109256035E
:100DA0001092550368E20E94750682FF0AC06DE347
:100DB000CE010E947506482F44606DE3CE010E946B
:100DC000330640E465E2CE010E943306E881F981F2
:100DD0000488F589E02D63E0CE01DF91CF9109947D
:100DE000EF92FF921F93CF93DF93EC018091A705C1
:100DF000833001F568E2CE010E94750682FD2EC0A7
:100E000019C080915B038D3330F4E0915B03F0E017
:100E1000E85EFC4F1082E881F981028CF38DE02DB1
:100E2000CE010995E881F9810488F589E02D63E018
:100E3000CE01099564E2CE010E94750690E091957D
:100E400081959109959587959093560380935503C5
:100E5000DF91CF911F91FF90EF900895E881F98184
:100E60000488F589E02D61E0CE010995E881F981DA
:100E7000008CF18DE02DCE01099580E00E944E0A94
:100E800080E00E944E0A80935C0380915C0383346F
:100E9000D0F480915C0380935C0380E00E944E0A52
:100EA000809359038E81811109C0909159038D81DE
:100EB000981721F0809159038F3F39F480915C039A
:100EC000833018F017C082E4E6CF10925C03E8810B
:100ED000F981028CF38DE02DCE010995E881F9812D
:100EE0000288F389E02DCE01DF91CF911F91FF9011
:100EF000EF90099480915C03835080935B0380E0C2
:100F00000E944E0A80935A0380E00E944E0A982F56
:100F1000907890935703982F907490935803E8819A
:100F2000F9810684F785E02D682FCE01099510E040
:100F300080915B03181708F064CFE12EF12C80E05C
:100F40000E944E0AF701E85EFC4F80831F5FF0CFDE
:100F5000CF92DF92EF92FF920F931F93CF93DF9385
:100F6000EC01F62ED42EC52E122FE881F9810488CB
:100F7000F589E02D61E0099567E2CE010E947506D2
:100F800087FFFACF40E065E2CE010E9433061E33B0
:100F900008F01DE3E11004C0002321F000E403C0C9
:100FA00000E801C000E0E881F981008CF18DE02DBE
:100FB000CE01099580E80E944E0A83E0810F0E94CD
:100FC0004E0A8F2D0E944E0A8D810E944E0A802F5C
:100FD0000E944E0A0D2DED2CFC2C8E2D801B8117AE
:100FE00030F4F70181917F010E944E0AF6CFE8812B
:100FF000F981028CF38DE02DCE010995E881F9810C
:101000000488F589E02D64E0CE0109950E949516CB
:101010006B017C018B810E945C15892B81F0E8813A
:10102000F9810488F589E02D61E0CE01DF91CF914F
:101030001F910F91FF90EF90DF90CF9009940E9445
:101040009516DC01CB018C199D09AE09BF09883EBC
:101050009340A105B105F0F2E2CF4F925F926F92FB
:101060007F92AF92BF92CF92DF92EF92FF920F9357
:101070001F93CF93DF93EC015B01F42E1092580382
:1010800010915A03C0905503D09056036DE30E940F
:101090007506482F44606DE3CE010E9433060E941E
:1010A00095162B013C01CE010E94DC09882311F129
:1010B00010935A03E881F9810088F189E02DEE242C
:1010C000E39400E02F2DA501612FCE010995D09268
:1010D0005603C0925503DF91CF911F910F91FF905E
:1010E000EF90DF90CF90BF90AF907F906F905F9028
:1010F0004F9008950E949516DC01CB018419950943
:10110000A609B709883E9340A105B10588F6E88194
:10111000F9810480F581E02DCE010995C4CF0895B1
:10112000282F883038F08E3040F0863148F4ECE6D5
:10113000F0E008C0EDE6F0E005C0EBE6F0E002C04C
:10114000E0E0F0E03081283060F481E090E0A0E061
:10115000B0E004C0880F991FAA1FBB1F2A95D2F7C1
:1011600015C0822F90E0AC012E3018F44850510980
:1011700002C04E50510981E090E0A0E0B0E004C010
:10118000880F991FAA1FBB1F4A95D2F7809583230A
:1011900080830895CF92DF92EF92FF920F931F9377
:1011A000CF93DF936C01EB017B01E40EF51E00E0B1
:1011B00010E0CE15DF0561F06991D601ED91FC914B
:1011C0000190F081E02DC6010995080F191FF1CF9C
:1011D000C801DF91CF911F910F91FF90EF90DF90A9
:1011E000CF9008953F924F925F926F927F928F922D
:1011F0009F92AF92BF92CF92DF92EF92FF920F93A6
:101200001F93CF93DF93EC01162F5A01922E302EAD
:10121000812CCE2CD12CE12CF12C61E070E080E00F
:1012200090E00E94F115E881F9810190F081E02DB4
:1012300001E0292DA501612FCE0109950E94951687
:101240002B013C010E949516DC01CB018419950904
:10125000A609B7098C159D05AE05BF05A0F4E88168
:10126000F9810480F581E02DCE010995882351F3A1
:1012700090915A03911711F01F3F21F79091570356
:10128000911105C0DFCF8394381438F680E0DF91E8
:10129000CF911F910F91FF90EF90DF90CF90BF9073
:1012A000AF909F908F907F906F905F904F903F9006
:1012B0000895CF93DF93EC01603208F06FE16F8304
:1012C0008885882311F066956F8361E1CE010E94C5
:1012D0007506807E9F81482F492B61E1CE01DF9109
:1012E000CF910C9433061F93CF93DF932091A705E2
:1012F000621709F45DC0162FEC016230E9F168F461
:10130000662309F440C0613009F052C061E00E94D8
:101310007506837E482F44603BC06330B9F064306B
:1013200009F046C061E00E947506837E482F4C603C
:1013300061E0CE010E9433068885882369F1E88147
:10134000F9810688F789E02D61E013C061E00E9411
:101350007506837E482F406161E0CE010E9433060E
:1013600088858823C9F0E881F9810688F789E02D0E
:1013700060E0CE01099510C061E00E947506837E91
:10138000482F486005C061E00E947506482F437EE3
:1013900061E0CE010E9433068091A705811106C04D
:1013A00067E2CE010E94750687FFF6CF1093A7056E
:1013B000DF91CF911F910895CF93DF932091A705DF
:1013C0002330C9F420915C03211115C0EC0164E2C3
:1013D0000E94750690E09195819591098C349F4FFC
:1013E00054F4E881F9810488F589E02D61E0CE01AB
:1013F000099581E001C080E0DF91CF9108958F923F
:101400009F92AF92BF92CF92DF92EF92FF920F9393
:101410001F93CF93DF93EC01162F6A01F22E6DE339
:101420000E947506482F44606DE3CE010E9433068A
:101430000E9495164B015C01CE010E94DC098823B5
:10144000C1F0E881F9810088F189E02DE12C2F2D90
:10145000A601612FCE010995DF91CF911F910F91C8
:10146000FF90EF90DF90CF90BF90AF909F908F90C4
:1014700008950E949516DC01CB0188199909AA09E3
:10148000BB09883E9340A105B105D8F6E881F981F2
:101490000480F581E02DCE010995CECF8EBD0000F0
:1014A0000DB407FEFDCF8EB508951F920F920FB6B3
:1014B0000F9211248F9383B78E7F83BF8F910F90EC
:1014C0000FBE0F901F901895CF93DF93C0E1D7E226
:1014D00061E085E00E94851560E085E00E94851549
:1014E0002197B1F7DF91CF910895CF93DF93C82F64
:1014F000D62F60E080E00E94851560E081E00E94C8
:10150000851580E00E945C15892B29F081E00E94FE
:101510005C15892B11F480E071C0DD2309F467C0EC
:10152000D0910E0480910D04D81709F466C0CCE365
:1015300061E080E00E94B51565E070E080E090E039
:101540000E94F11561E081E00E94B51564E170E050
:1015500080E090E00E94F11560E080E00E94B51507
:1015600065E070E080E090E00E94F11560E081E0CD
:101570000E94B51564E170E080E090E00E94F115F2
:10158000C150B1F66AE070E080E090E00E94F11591
:10159000CD1751F161E081E00E94B51565E070E082
:1015A00080E090E00E94F11561E080E00E94B515B6
:1015B00064E170E080E090E00E94F11560E081E07D
:1015C0000E94B51565E070E080E090E00E94F115A2
:1015D00060E080E00E94B51564E170E080E090E09A
:1015E0000E94F115CF5FD4CFC0930D0406C0C63062
:1015F00020F0CC0FC950C0930E0481E0DF91CF9151
:1016000008954F925F926F927F928F929F92AF92C6
:10161000BF92CF92DF92EF92FF920F931F93CF93DF
:10162000DF93CDB7DEB768970FB6F894DEBF0FBE75
:10163000CDBF2C013B01142F6DE370E00E94862F7B
:10164000B82EF30101900020E9F731976F01C61819
:10165000D708FC2C111102C004E001C006E00E9472
:1016600095162091090430910A0440910B04509181
:101670000C04DC01CB01821B930BA40BB50B803156
:101680009742A105B10568F00E9495166093090480
:1016900070930A0480930B0490930C0481E0809370
:1016A0000501460199248B0C911CA02EB12CC4017C
:1016B0008A0D9B1DCE970CF0C2C080910501882336
:1016C00009F449C020910804C401820F911D8A0DBC
:1016D0009B1DCE9724F4F1103EC02223E1F198EC3B
:1016E000E92E05E04AEC53E06091FB0288EA95E0C0
:1016F0000E94F20881112DC06091F90270E080E033
:1017000090E00E94952D26E636E646EA5FE30E94C9
:10171000932E0E945E2D0E94F115209108044AEC40
:1017200053E06091FB0288EA95E00E94F208082FDE
:1017300081110FC00E947E0C0E94951660930904CF
:1017400070930A0480930B0490930C04109205018B
:1017500094C01092080480910804282F30E0820E73
:10176000931EA80CB91C9DE3A916B1040CF084C00B
:10177000FF2009F47DC0882341F08F5F8093080427
:10178000F901E653FC4F8CE28083E091080451E0BC
:101790005E0F50930804F0E0E653FC4F82E2808332
:1017A00090E0892F850FF201E90FF11D4081282F6C
:1017B00030E0F901E653FC4F442319F040839F5F6A
:1017C000F0CF92E29083E2E0E80FE0930804A1E01A
:1017D000A80FB0E0A653BC4F2AE32C93112339F095
:1017E0008D5F80930804F0E0E653FC4F90835091A6
:1017F0000804262DD301452F4619842F8A0F90E027
:101800003D9186539C4FFC0130838A2F821B8F159C
:10181000A0F3C50EC0920804112351F081E08C0D95
:1018200080930804EC2DF0E0E653FC4F82E28083C5
:10183000E0910804F0E0E653FC4F108219C088E103
:10184000E9E6F2E0DE01119601900D928A95E1F74A
:1018500088ECE82E05E028E1AE014F5F5F4F609114
:10186000FB0288EA95E00E94F2080E947E0C04C008
:101870000E947E0C01E001C000E0802F68960FB648
:10188000F894DEBF0FBECDBFDF91CF911F910F91B6
:10189000FF90EF90DF90CF90BF90AF909F908F9090
:1018A0007F906F905F904F9008950F931F93CF9309
:1018B000DF9300D000D01F92CDB7DEB78C01862F0A
:1018C0004AE0BE016F5F7F4F90E00E94912F40E0A1
:1018D000BE016F5F7F4FC8010E94010B40E06DE9C0
:1018E00072E0CB010E94010B0F900F900F900F90B0
:1018F0000F90DF91CF911F910F9108954F925F92BA
:101900006F927F928F929F92AF92BF92CF92DF920F
:10191000EF92FF920F931F93CF93DF93CDB7DEB774
:10192000C75ED1090FB6F894DEBF0FBECDBF88EAFF
:1019300095E00E94C803782E882309F4CEC28091D6
:10194000F20283FF04C061E085E00E948515E0900B
:101950005A038091550390915603F0905B030F2D2D
:1019600010E0A80168E173E0CE018F559F4F0E94FF
:10197000052F80915803882329F0809159038F3FC8
:1019800009F0B0C288EA95E00E94C8036091FB02AA
:10199000E6128FC2E1EAF0E0EC0FFD1FE00FF11F4D
:1019A0001082F12C8E010F551F4F54E1652E64E11A
:1019B000E62E62E27FE2C8010E940E2F009709F036
:1019C0008C016FE570E0C8010E940E2F4C012F2D95
:1019D00030E0009709F48BC06C01C01AD10A81E095
:1019E000C81AD108B8016F5F7F4F629E5001639E95
:1019F000B00C1124A60181E090E08C0F9D1F8A0D90
:101A00009B1D0E94392FCA0CDB1CE1E0F0E0EC0FBB
:101A1000FD1FEC0DFD1D1082AA24A394AF0C8401C0
:101A20000F5F1F4F62E27FE2C8010E940E2F4C0140
:101A3000009711F4FA2CBDCF6C01C01AD10AEA9CB0
:101A400050011124A601B80181E090E08C0F9D1F88
:101A50008A0D9B1D0E94392FCA0CDB1CE1E0F0E0CF
:101A6000EC0FFD1FEC0DFD1D108242E0C42ECF0CCB
:101A700084010F5F1F4F62E27FE2C8010E940E2FB8
:101A8000009711F4FC2C95CF8C010F5F1F4F62E281
:101A90007FE2C8010E940E2F4C01009799F35C0170
:101AA000A01AB10AEC9C60011124A501B80181E0E3
:101AB00090E08C0F9D1F8C0D9D1D0E94392FCA0C2C
:101AC000DB1CE1E0F0E0EC0FFD1FEC0DFD1D1082D2
:101AD00033E0C32ECF0C84010F5F1F4F62E27FE221
:101AE000C8010E940E2F009769F28C01CBCF44E110
:101AF000429FC001439F900D112444E150E0B80182
:101B0000E1E0F0E0EC0FFD1F8E0F9F1F0E94392FC8
:101B1000E12C10E004E128E0922EA12EB12C61E826
:101B200072E081E090E08C0F9D1F019F800D911D60
:101B300011240E94192F892B09F05DC0C50101965F
:101B4000089F6001099FD00C112421E030E02C0F88
:101B50003D1FC20ED31EC6010E94682F2C01819723
:101B60000CF049C082E0A80EB11C0A9DC0010B9D7B
:101B7000900D1124E1E0F0E0EC0FFD1F8E0F9F1F90
:101B80000E94682F682FC201805090400E946D32E1
:101B9000C6010E94682F5C01805090400E9465320F
:101BA000F501E252FD4F8083E1E2F1E0DE01A25255
:101BB000BF4F892D01900D928A95E1F7CA51DF4FF1
:101BC00019821882C65ED04042E050E0B601CE01D4
:101BD00082529F4F0E94292FC6010E94682F825275
:101BE0009D4FFC016081CE0182529F4F0E94550C97
:101BF0001E5FEE24E394C12ED12C6BEF71E081E0E7
:101C000090E08C0F9D1F019F800D911D11240E945B
:101C1000192F892B91F5E1E2F1E0DE01A252BF4FCD
:101C2000892D01900D928A95E1F7CA51DF4F1982F3
:101C30001882C65ED040C6010196089F6001099FC8
:101C4000D00C112421E030E02C0F3D1FC20ED31E1A
:101C500042E050E0B601CE0182529F4F0E94292FF0
:101C6000C6010E94682F82529D4FFC016081CE0107
:101C700082529F4F0E94550C1E5FC12ED12C60E1F5
:101C800072E081E090E08C0F9D1F019F800D911DFF
:101C900011240E94192F892BE9F5C6010196089F8E
:101CA0005001099FB00C112421E030E02C0F3D1FA2
:101CB000A20EB31EC5010E94682F82529D4FFC01E7
:101CC000808185FD1092D902F2E0CF0ED11C0C9DCF
:101CD000C0010D9D900D112463E872E021E030E019
:101CE0002C0F3D1F820F931F0E94192F892B39F44F
:101CF000C5010E94682F8E5E9E4F61E006C0C5013F
:101D00000E94682F8E5E9E4F60E0FC0180810E94E1
:101D100085151E5FC12ED12C65E072E081E090E058
:101D20008C0F9D1F019F800D911D11240E94192F62
:101D3000892B09F05EC08091EE0283FF2CC0C601A2
:101D40000196089F5001099FB00C112421E030E05A
:101D50002C0F3D1FA20EB31EC5010E94682F62E02A
:101D6000680F41E952E084E00E946719C5010E94B2
:101D7000682F32E0C30ED11C0C9DA0010D9D500DAB
:101D80001124E1E0F0E0EC0FFD1F4E0F5F1F62E059
:101D9000680F84E02BC084FF2BC0C6010196089F0A
:101DA0005001099FB00C112421E030E02C0F3D1FA1
:101DB000A20EB31EC5010E94682F45E852E0682FAD
:101DC00080E00E946719C5010E94682F32E0C30EAF
:101DD000D11C0C9DA0010D9D500D1124E1E0F0E0FF
:101DE000EC0FFD1F4E0F5F1F682F80E00E946719E8
:101DF0001E5FC12ED12CAA24A394B12CAC0EBD1E03
:101E0000019FA00CB11C11246DE072E0C5010E947D
:101E1000192F892BE1F4F2E0CF0ED11C0C9DC001EB
:101E20000D9D900D112421E030E02C0F3D1F820FFD
:101E3000931F0E94682F60E00E94750A811107C0FD
:101E400041E06EE972E089EF91E00E94010B6CE1E4
:101E500072E0C5010E94192F892B69F40E94951622
:101E60006093DA027093DB028093DC029093DD02D0
:101E70001092D9021E5F1F5FF11608F04ECEEE20C1
:101E800019F141E066EA72E083EB92E00E94010BF7
:101E900040E06DE972E0CB010E94010B98E088E11F
:101EA0000FB6F894A895809360000FBE90936000E1
:101EB000FFCF88ECE82E05E02F2DAE014F555F4F88
:101EC00088EA95E00E94F2088091F20283FF12C036
:101ED00060E085E00E9485150DC088EA95E00E94CB
:101EE000C80308C040E06DE972E088EA95E00E940E
:101EF0002D0848CD872DC951DF4F0FB6F894DEBFAE
:101F00000FBECDBFDF91CF911F910F91FF90EF904A
:101F1000DF90CF90BF90AF909F908F907F906F9009
:101F20005F904F90089584B7877F84BFE0E6F0E02C
:101F300080818861808310820895883038F08E30E7
:101F400040F0863148F4ECE6F0E008C0EDE6F0E061
:101F500005C0EBE6F0E002C0E0E0F0E09081883000
:101F600068F441E050E060E070E0082E04C0440FE7
:101F7000551F661F771F0A94D2F714C0282F30E030
:101F80008E3018F42850310902C02E50310941E03A
:101F900050E060E070E004C0440F551F661F771FDB
:101FA0002A95D2F7492B40832BB3883050F031E08B
:101FB0008E3008F430E091E001C0990F3A95EAF7CD
:101FC00001C094E0922B9BBB90916800883050F048
:101FD00021E08E3008F420E081E001C0880F2A95CE
:101FE000EAF701C084E0892B8093680008952F925E
:101FF0003F924F925F926F927F928F929F92AF9299
:10200000BF92CF92DF92EF92FF920F931F93CF93E5
:10201000DF93CDB7DEB72E970FB6F894DEBF0FBEB5
:10202000CDBF90910701892B8093070182E191E058
:102030009D878C878BEBA82E82E0B82E0EED12E0E8
:10204000C12CD12C88248394912C20E7222E2FE5BB
:10205000322E412C512CFC2CEC85FD85E190FD8726
:10206000EC878E2DDE860E945C1521E03E8501976F
:1020700009F020E0622E712C80910F04482F50E06F
:102080000F2C02C0559547950A94E2F741705527E9
:102090006416750629F490910701992309F485C007
:1020A000F801908196FF45C029823A824B825C827A
:1020B0001D824AE0BE01675F7F4F8F2D932F2E87D1
:1020C0000E94912F42E050E0BE01675F7F4FCE013A
:1020D00001960E94292F4AE0BE016A5F7F4FC3012B
:1020E0000E94912F41E0BE016A5F7F4FCE010196B1
:1020F0000E94010B2E858823B1F030910F0422231A
:1021000049F0A40101C0440FFA94EAF7432B40932D
:102110000F0409C0C40101C0880FFA94EAF7809542
:10212000832380930F04F1E0F093D802222391F1EE
:1021300015C0222349F0940101C0220FFA94EAF756
:10214000822B80930F040AC0940101C0220FFA94DD
:10215000EAF72095822380930F041CC0F801808148
:1021600083FF04C08E2D0E949D0F03C08E2D0E9400
:102170009008F801808187FF18C0F5018081918166
:10218000A281B3810196A11DB11D80839183A28399
:10219000B3830BC0F801808182FF04C08E2D0E94A2
:1021A0009D0F03C08E2D0E949008FFEFCF1ADF0A0B
:1021B00084E0A80EB11C0F5F1F4F97E0C916D10431
:1021C00009F049CF1092070180E02E960FB6F894DF
:1021D000DEBF0FBECDBFDF91CF911F910F91FF905A
:1021E000EF90DF90CF90BF90AF909F908F907F90B7
:1021F0006F905F904F903F902F9008951F920F9295
:102200000FB60F9211242F933F934F935F936F93C9
:102210007F938F939F93AF93BF93CF93EF93FF934E
:1022200083B78E7F83BFC09105011092050180E0C6
:102230000E94F70FC093050181E08093D702FF91C0
:10224000EF91CF91BF91AF919F918F917F916F91BE
:102250005F914F913F912F910F900FBE0F901F9064
:1022600018951F920F920FB60F9211242F933F9340
:102270004F935F936F937F938F939F93AF93BF938E
:10228000CF93EF93FF9383B78E7F83BFC0910501F8
:102290001092050180E00E94F70FC093050181E0D4
:1022A0008093D702FF91EF91CF91BF91AF919F9112
:1022B0008F917F916F915F914F913F912F910F90EF
:1022C0000FBE0F901F9018951F920F920FB60F928E
:1022D00011242F933F934F935F936F937F938F932B
:1022E0009F93AF93BF93CF93EF93FF9383B78E7F6B
:1022F00083BFC09105011092050180E00E94F70F95
:10230000C093050181E08093D702FF91EF91CF91B7
:10231000BF91AF919F918F917F916F915F914F91FD
:102320003F912F910F900FBE0F901F901895CF9255
:10233000DF92EF92FF920F931F93CF93DF936C0185
:102340007A018B01C0E0D0E0CE15DF0589F0D8011D
:102350006D918D01D601ED91FC910190F081E02D00
:10236000C6010995892B11F47E0102C02196ECCF9C
:10237000C701DF91CF911F910F91FF90EF90DF90F8
:10238000CF900895FC01918D828D981761F0828D18
:10239000DF01A80FB11D5D968C91928D9F5F9F7399
:1023A000928F90E008958FEF9FEF0895FC01918D3B
:1023B000828D981731F0828DE80FF11D858D90E0A8
:1023C00008958FEF9FEF0895FC01918D228D892F45
:1023D00090E0805C9F4F821B91098F73992708952D
:1023E00086E894E00E94E41121E0892B09F420E0C2
:1023F000822F0895FC01848DDF01A80FB11DA35A1F
:10240000BF4F2C91848D90E001968F739927848F14
:10241000A689B7892C93A089B1898C9180648C930B
:10242000938D848D981306C00288F389E02D8081F6
:102430008F7D80830895EF92FF920F931F93CF9328
:10244000DF93EC0181E0888F9B8D8C8D981305C004
:10245000E889F989808185FD24C0F62E0B8D10E076
:102460000F5F1F4F0F731127E02E8C8DE8120CC0E9
:102470000FB607FCFACFE889F989808185FFF5CF8F
:10248000CE010E94FA11F1CF8B8DFE01E80FF11DF4
:10249000E35AFF4FF0820B8FEA89FB8980818062CB
:1024A00007C0EE89FF896083E889F98980818064AB
:1024B000808381E090E0DF91CF911F910F91FF9099
:1024C000EF900895CF93DF93EC01888D8823C9F0B6
:1024D000EA89FB89808185FD05C0A889B9898C912D
:1024E00086FD0FC00FB607FCF5CF808185FFF2CFC8
:1024F000A889B9898C9185FFEDCFCE010E94FA1190
:10250000E7CFDF91CF91089580E090E0892B29F00B
:102510000E94F01181110C9400000895833081F025
:1025200028F4813099F08230A1F008958730A9F025
:102530008830B9F08430D1F4809180008F7D03C061
:10254000809180008F7780938000089584B58F7785
:1025500002C084B58F7D84BD08958091B0008F77CF
:1025600003C08091B0008F7D8093B00008953FB785
:10257000F8948091150490911604A0911704B091DD
:10258000180426B5A89B05C02F3F19F00196A11D80
:10259000B11D3FBFBA2FA92F982F8827820F911DF9
:1025A000A11DB11DBC01CD0142E0660F771F881F40
:1025B000991F4A95D1F70895089580E00895DC01A8
:1025C0001A96ED91FC911B9720E030E00994DC0114
:1025D0001696ED91FC91179720E030E040E069E11C
:1025E0000994DC011696ED91FC91179720E030E0FC
:1025F00040E068E109949A01DC011696ED91FC91A6
:102600001797462F67E10994EF92FF920F931F935C
:10261000CF93DF931F92CDB7DEB77C018B01D8013A
:102620006C916731E1F078F46531A0F1F8014181F6
:102630004983D7011696ED91FC91179720E030E081
:10264000C701099524C06A31A8F06E3F19F5F80159
:102650004181498369E2C7010E94DF1218C0F80175
:1026600081818983AE014F5F5F4F61E0C7010E94A6
:10267000FB120DC00F5F1F4FD7011696ED91FC9115
:10268000179720E030E040E0C7010995C8CF0E5F02
:102690001F4FC5CF0F90DF91CF911F910F91FF90EA
:1026A000EF900895462FDC011696ED91FC91179757
:1026B00020E030E066E10994462FDC011696ED91AA
:1026C000FC91179720E030E065E10994EF92FF92CA
:1026D0000F931F93CF93DF93EC01142F79016D308B
:1026E000A9F118F46B3039F15FC06E3009F441C0C4
:1026F0006F3009F059C00E94F112F70183810889F7
:10270000F8E08F9F000D112460E4CE010E945C135D
:10271000602F62956F706061CE010E945C13602F24
:102720006F70CE010E945213F7016481606BCE017D
:102730000E94521329C0411103C06EE371E002C030
:1027400069E371E0CE010E94041371C0411108C019
:1027500062E371E00E940413E881F981828907C075
:102760006BE271E00E940413E881F9818389888B10
:102770005EC00E94F11261E8CE010E945C13612FDD
:10278000CE010E9452130CC0F70140815181628139
:10279000660F660F660FCE010E94FB121150A1F763
:1027A000CE010E94E71243C0693031F488E791E01E
:1027B00099838883188A3BC06A30B9F5EA85FB851E
:1027C00020E030E040E068E2CE010995EE81FF8133
:1027D00020E030E040E064E1CE01099541E06BE4A7
:1027E000CE010E94DF12E881F981448169E2CE01C5
:1027F0000E94DF1240E06BE4CE010E94DF12E8810C
:10280000F981448169E2CE010E94DF1241E06BE46C
:10281000CE010E94DF12E881F981458169E2CE0193
:102820000E94DF1263E471E08DCF80E001C081E09F
:10283000DF91CF911F910F91FF90EF900895DC01F0
:102840001896ED91FC91199720E030E040E069E1A5
:102850000994DC011896ED91FC91199720E030E085
:1028600040E068E10994662329F06A3019F0862F68
:1028700090E008958FEF9FEF08950E94002FCF936F
:10288000DF931F92CDB7DEB76983BE016F5F7F4FC5
:102890000E94BC1B0F90DF91CF910895EF92FF92A1
:1028A0001F93CF93DF93EC01162F7A010E94291416
:1028B00060E4CE010E943F14E885F9859701412F1D
:1028C00067E1CE010995CE01DF91CF911F91FF9075
:1028D000EF900C941F14EF92FF921F93CF93DF930E
:1028E00000D0CDB7DEB77C01142F673128F46531F5
:1028F00040F4643149F141C0673191F06A3170F0C0
:102900003CC00E94291460E0C7010E943F14612F5F
:10291000C7010E943F14C7010E941F1481E02EC00E
:10292000A901193160F068E1C70129833A830E9447
:102930004E14185129813A81285E3F4FF1CF612F03
:10294000C7010E944E14EACFDC0152968C91529737
:102950008F3F19F488E752968C93D7011896ED9122
:10296000FC911997412F64E1C7010F900F90DF91FF
:10297000CF911F91FF90EF90099480E00F900F90FE
:10298000DF91CF911F91FF90EF900895FC01962F5A
:102990006831F1F0B901993150F4943169F097310F
:1029A00089F550E083E295E00E9468030FC09931F9
:1029B00031F1903259F026C010921A041092190485
:1029C00010926304109285040E94520581E00895DC
:1029D000A081B1811D968C91843018F08CE0809399
:1029E000B800828990E09595879591E09093620474
:1029F000809384041092630410928504E7CF0E94B0
:102A0000381CE4CF80E008951F920F920FB60F920A
:102A100011242F933F934F935F936F937F938F93E3
:102A20009F93AF93BF93EF93FF9386E894E00E9448
:102A3000FA11FF91EF91BF91AF919F918F917F918B
:102A40006F915F914F913F912F910F900FBE0F901B
:102A50001F9018951F920F920FB60F9211242F936B
:102A60008F939F93EF93FF93E0919604F0919704D7
:102A70008081E0919C04F0919D0482FD12C09081C0
:102A800080919F048F5F8F732091A004821751F073
:102A9000E0919F04F0E0EA57FB4F958F80939F04ED
:102AA00001C08081FF91EF919F918F912F910F90A5
:102AB0000FBE0F901F901895CF93DF93282F30E013
:102AC000F901E258FC4F8491F901E055FB4FD49194
:102AD000F901E456FB4FC491CC2391F081110E947F
:102AE0008E12EC2FF0E0EE0FFF1FEE56FB4FA5917C
:102AF000B491EC91ED2381E090E021F480E002C0FC
:102B000080E090E0DF91CF9108951F93CF93DF9302
:102B1000282F30E0F901E258FC4F8491F901E0558B
:102B2000FB4FD491F901E456FB4FC491CC23C9F07B
:102B3000162F81110E948E12EC2FF0E0EE0FFF1F76
:102B4000EC58FC4FA591B4918FB7F894111105C0C2
:102B50009C91ED2FE095E92302C0EC91ED2BEC93D5
:102B60008FBFDF91CF911F910895CF93DF9390E0B6
:102B7000FC01E055FB4F2491FC01E456FB4F84918E
:102B8000882361F190E0880F991FFC01E659FC4F02
:102B9000C591D491FC01EC58FC4FA591B491611101
:102BA00009C09FB7F8948881209582238883EC918F
:102BB0002E230BC0623061F49FB7F8943881822FC6
:102BC000809583238883EC912E2B2C939FBF06C086
:102BD0008FB7F894E8812E2B28838FBFDF91CF9198
:102BE00008958F929F92AF92BF92CF92DF92EF9211
:102BF000FF926B017C010E94B7124B015C01C11472
:102C0000D104E104F104F1F00E94B712DC01CB0120
:102C100088199909AA09BB09883E9340A105B10505
:102C200070F321E0C21AD108E108F10888EE880E9D
:102C300083E0981EA11CB11CC114D104E104F1046D
:102C400019F7DDCFFF90EF90DF90CF90BF90AF905E
:102C50009F908F9008951F93CF93DF93EC01962F51
:102C6000642F9C3270F49A3208F058C0983289F080
:102C7000993209F03EC070E080E090E00E94F115CA
:102C80004DC09D32B1F0A8F184EB890F823000F184
:102C900030C06B9610E089918F3F39F0103110F4FD
:102CA00061E001C062E00E94B5151F5F163199F71F
:102CB00035C0433018F082E090E002C085E090E03B
:102CC000880F991F880F991F05970197F1F726C064
:102CD0009F73C90FD11D411107C061E08B8D0E9408
:102CE000B51560E08B8D10C062E08B8D0E94B5152C
:102CF00015C09034A8F09F73FE01E90FF11D838D7C
:102D00008F3F61F0903118F40E94851507C00E9432
:102D10005C1521E0892B09F420E02E8B81E001C0B5
:102D200080E0DF91CF911F9108952FB7F8946091C3
:102D300011047091120480911304909114042FBF18
:102D400008951F920F920FB60F9211242F933F9365
:102D50008F939F93AF93BF9380911104909112042E
:102D6000A0911304B09114043091100423E0230FB8
:102D70002D3720F40196A11DB11D05C026E8230FB3
:102D80000296A11DB11D209310048093110490930D
:102D90001204A0931304B09314048091150490912D
:102DA0001604A0911704B09118040196A11DB11D3D
:102DB0008093150490931604A0931704B0931804FD
:102DC000BF91AF919F918F913F912F910F900FBE27
:102DD0000F901F9018951F920F920FB60F9211240B
:102DE0002F933F934F935F936F937F938F939F9313
:102DF000AF93BF93EF93FF93E0910201F091030132
:102E00000995FF91EF91BF91AF919F918F917F9124
:102E10006F915F914F913F912F910F900FBE0F9047
:102E20001F9018951F920F920FB60F9211242F9397
:102E30003F934F935F936F937F938F939F93AF9342
:102E4000BF93EF93FF93E0910001F0910101099589
:102E5000FF91EF91BF91AF919F918F917F916F9172
:102E60005F914F913F912F910F900FBE0F901F9048
:102E70001895462FDC011496ED91FC91159720E0F2
:102E800030E06BE00994CF93DF93DC011C96ED9169
:102E9000FC911D9784913196E491681720F1E61713
:102EA00010F170E0681B710983E0660F771F8A9547
:102EB000E1F7CB010296EA01665F7F4F1C96ED9128
:102EC000FC911D97E80FF91FE491E993019686178D
:102ED0009707A1F751968C91882399F0FA019A01EE
:102EE000285F3F4F08C0FA01CA0108961192E817FF
:102EF000F907E1F7EFCF808180958193E217F3071F
:102F0000D1F7DF91CF910895AF92BF92CF92DF9228
:102F1000EF92FF920F931F93CF93DF93CDB7DEB75E
:102F20002D970FB6F894DEBF0FBECDBFFC01F6A8FB
:102F30006A3021F4F394F6AA15AA23C08C01E5A8FF
:102F40006C0184E0C80ED11CDE0111965D01AD015B
:102F5000C6010E944317EC86FD8681E08B87BA8606
:102F6000A986D8011896ED91FC9119979E01275FCB
:102F70003F4F41E06FE0C6010995F80185A98F5FD9
:102F800085AB81E090E02D960FB6F894DEBF0FBEC2
:102F9000CDBFDF91CF911F910F91FF90EF90DF9008
:102FA000CF90BF90AF900895AF92BF92CF92DF9233
:102FB000EF92FF920F931F93CF93DF93CDB7DEB7BE
:102FC0002D970FB6F894DEBF0FBECDBFE82EA62E0C
:102FD000109289058A01F12CCE0101966C01BB2467
:102FE000B394F80161918F01E0917605F091770536
:102FF00084E795E009958F3FFFEF9F07F1F08E3F43
:103000002FEF920771F3A601682F84E795E00E94E5
:103010004317EC86AD86BB86DA86C986E0917805D3
:10302000F09179059E01275F3F4F41E06FE084E713
:1030300095E00995E394F394D4CF8F2D2D960FB698
:10304000F894DEBF0FBECDBFDF91CF911F910F91DE
:10305000FF90EF90DF90CF90BF90AF900895CF9307
:10306000DF93C82F809138058F3F39F580912F0568
:1030700091E0909362048093840410926304109210
:1030800085046C2F83E295E00E9498030E94381C0F
:1030900062E080912F050E94DA1C83E295E00E9495
:1030A0004C03C82F83E295E00E944C0320E030E0FF
:1030B0003C2FE901C82BD92B29C080913B058F3FBC
:1030C00021F482E591E00E94710560E0809138056D
:1030D0000E9485158C2F80680E94F71B80E00E945B
:1030E000F71BC82F80E00E94F71B2C2F30E0322FF7
:1030F0002227E901C82B61E0809138050E948515DF
:1031000080913B058F3F11F40E947005CE01DF9145
:10311000CF9108950E942F189827892798270895FE
:10312000CF9386E780932F05809138058F3F59F420
:1031300010921A04109219041092630410928504DC
:103140000E9452051CC061E00E94851561E08091DB
:1031500038050E94B51580913B058F3F19F40E94F8
:10316000FD050DC061E00E94B51561E08091390553
:103170000E94B51560E080913A050E94B51580ED7A
:103180000E94251D883519F0803609F09DC088E819
:103190000E948A1890933D0580933C058AE80E941E
:1031A0008A1890933F0580933E058CE80E948A1808
:1031B00090934105809340058EE80E948A18909371
:1031C00043058093420580E90E948A189093450543
:1031D0008093440582E90E948A1890934705809362
:1031E000460584E90E948A18909349058093480512
:1031F00086E90E948A1890934B0580934A0588E9D6
:103200000E948A1890934D0580934C058AE90E948C
:103210008A1890934F0580934E058CE90E948A1876
:1032200090935105809350058EE90E948A189093DF
:1032300053058093520581EA0E94251D8093540511
:1032400081EE0E948A18909356058093550583EE6F
:103250000E94251D8093570584EE0E94251DC82FCE
:1032600085EE0E94251D282F2F7030E1C39FC001DD
:103270001124822B909359058093580586EE0E9465
:10328000251DC82F85EE0E94251D90E024E0959510
:1032900087952A95E1F740E1C49F90011124822B84
:1032A000932B90935B0580935A0587EE0E94251D12
:1032B00080935C0565E082EF0E94951C67EB84EFCC
:1032C0000E94951C81E001C080E0CF91089523E326
:1032D00034E130937705209376050C94D417EF9260
:1032E000FF920F931F93CF93DF93EC0161E088EA85
:1032F00095E00E9473092097C1F088EA95E00E944A
:103300000E048EEB0E944E0A8E017E0180E1E80ED3
:10331000F11CF80181918F010E944E0A0E151F05C4
:10332000C1F788EA95E00E94FB036DE388EA95E027
:103330000E9475068E7F41E0CD2B09F440E0482BBA
:103340006DE388EA95E0DF91CF911F910F91FF9097
:10335000EF900C943306CF92DF92EF92FF92CF93CF
:10336000C82F809138058F3F09F040C080912F050C
:1033700091E090936204809384041092630410920D
:1033800085046C2F83E295E00E9498030E94381C0C
:1033900063E080912F050E94DA1C83E295E00E9491
:1033A0004C036C01990FEE08FF08FE2CED2CDC2C71
:1033B000CC2483E295E00E944C03AC01990F660B8C
:1033C000770BC42AD52AE62AF72AFE2CED2CDC2C12
:1033D000CC2483E295E00E944C03AC01990F660B6C
:1033E000770BC42AD52AE62AF72A33C080913B05F9
:1033F0008F3F21F482E591E00E94710560E08091A9
:1034000038050E9485158C2F80680E94F71B80E08C
:103410000E94F71BC82ED12CE12CF12CFE2CED2C98
:10342000DC2CCC2480E00E94F71BC82AFE2CED2C5B
:10343000DC2CCC2480E00E94F71BC82A61E080913C
:1034400038050E94851580913B058F3F11F40E943D
:103450007005C701B601CF91FF90EF90DF90CF903C
:1034600008958F929F92AF92BF92CF92DF92EF9288
:10347000FF928AEF0E94AB19EFE2F5E04585568591
:103480004A01A12CB12CC72ED82EE92EFF24E7FC2F
:10349000FA94C818D908EA08FB08DC01CB0137E028
:1034A000B595A795979587953A95D1F7B501A4015C
:1034B000440F551F661F771F4C015D01841A950A42
:1034C000A60AB70AA5019401A785B0890E940F2B0F
:1034D0004B015C013BE0B594A794979487943A958F
:1034E000D1F7A7019601C701B6010E94C12A9B012D
:1034F000AC016CE055954795379527956A95D1F7BE
:10350000A189B2890E940F2BDC01CB017EE0B59529
:10351000A795979587957A95D1F7A5019401280FDE
:10352000391F4A1F5B1F2583368347835087A5E0D9
:10353000B0E00E94042BDC01CB0180589F4FAF4FBD
:10354000BF4F692F7A2F8B2F992787FD9A950E945D
:10355000952D20E030E048EC52E40E94EC2CFF90E6
:10356000EF90DF90CF90BF90AF909F908F90089595
:10357000EF92FF920F931F93CF93DF93EC01E62E10
:1035800008E010E0FF24F39461E08F2D8E2109F410
:1035900060E0CE010E949805FF0C01501109A1F7CF
:1035A000F894E981FA8191818881809589238183CA
:1035B000E981FA8192818881809589238283789438
:1035C000DF91CF911F910F91FF90EF9008956F922F
:1035D0007F929F92AF92BF92CF92DF92EF92FF9233
:1035E0000F931F93CF93DF931F92CDB7DEB78C015C
:1035F000D62EE0916205F091630513861586148638
:10360000DF011B9633961E92AE17BF07E1F7C12C60
:10361000BB24B3946090620570906305F3018585C7
:10362000811169C0C3010E94C70581110AC0D3017D
:103630001B961C921B971D961C921D971C961C9204
:1036400075C060EFC3010E94B81AEE24E394A12C68
:10365000912CFF24F394C3010E947405682FC301C9
:1036600069830E9474056981613019F48130C9F45D
:1036700036C02A2D30E068131DC0F3018385F8168B
:1036800030F4E20FF31F83818E2159F402C0F81643
:1036900041F060E0F8E0FF1560F0D3011C96FC9269
:1036A00008C0F301EA0DF11D83818E29838361E057
:1036B00009C09F2CF301E20FF31F93818E2D80959B
:1036C00089238383C3010E949805F394EE0C19F4B7
:1036D000A394EE24E394B7E0BA1508F0BCCFE0E47D
:1036E000EF1548F4D3011B969C921B97911008C0CC
:1036F0001D96BC9205C0F30113861586148616C06C
:10370000F30183818823B9F33396A8018BE0680E17
:10371000711CC8012191DC012D93CD01E615F7053F
:10372000C9F706C0C394DC1408F074CF80E015C05C
:10373000CD10F8CF88E0E0E0815049F0DA019D91AA
:10374000AD01E927F0E0EE56FC4FE491F5CFD8014A
:1037500017968C91E813E6CF81E00F90DF91CF911F
:103760001F910F91FF90EF90DF90CF90BF90AF909F
:103770009F907F906F9008959B01DC011896ED91CA
:10378000FC91199741E067E109941F93CF93DF9370
:1037900000D000D01F92CDB7DEB71C8221E02B8372
:1037A0009A838983E0917405F091750511891D82D2
:1037B000A0917405B0917505E0917805F0917905B7
:1037C0009E012F5F3F4F50964C916FE084E795E04C
:1037D00009958D818F5F8D83811750F30F900F9026
:1037E0000F900F900F90DF91CF911F910895EF925E
:1037F000FF920F931F93CF93DF9390913B059F3FD1
:1038000041F4DF91CF911F910F91FF90EF900C94B5
:103810004E0AD82F07E010E0C0E0EE24E394F12C2C
:10382000CC0F60E080913B050E948515B701002E0A
:1038300001C0660F0A94EAF76D23809139050E9452
:10384000851561E080913B050E94851580913A05C0
:103850000E945C15892B09F0C1600150110900F725
:103860008C2FDF91CF911F910F91FF90EF900895D2
:103870002091850490918404213208F04AC08091FF
:1038800061048111FCCF32E03093610431E0309368
:1038900060043FEF30935F0410925E0420935D0458
:1038A000A4E6B4E04DE354E0FA013E2F341B321796
:1038B00018F43D913193F9CF10923C0420913C04CF
:1038C000990F922B90933C0490913B04913061F4BA
:1038D00010923B0490913C049093BB009091BC00EB
:1038E00093FDF8CF95EC01C095EE9093BC009091BC
:1038F00061049230E1F390915F049F3F79F08091F1
:103900005F04803241F080915F04803331F084E0C5
:1039100005C081E003C082E001C083E0109263042F
:1039200010928504109262040895CF93DF93D82FEC
:10393000C62F809138058F3FC9F480912F0591E003
:10394000909362048093840410926304109285041F
:103950006D2F83E295E00E9498036C2F83E295E03F
:103960000E949803DF91CF910C94381C80913B0505
:103970008F3F21F482E591E00E94710560E0809123
:1039800038050E9485158D2F8F770E94F71B8C2F8D
:103990000E94F71B61E0809138050E948515809197
:1039A0003B058F3F21F4DF91CF910C947005DF919F
:1039B000CF910895909161049111FCCF613208F08C
:1039C00060E291E090936104909360042FEF209364
:1039D0005F0410925E04260F20935D0490933C04D4
:1039E00090913C04880F892B80933C0480913B0488
:1039F000813061F410923B0480913C048093BB00C1
:103A00008091BC0083FDF8CF85EC01C085EE8093EA
:103A1000BC00809161048130E1F380915E048617DF
:103A200010F460915E04ADE3B4E02BE134E0F90101
:103A30008E2F821B861718F48D918193F9CF1092E7
:103A40001A0460931904862F0895CF93C82F80918C
:103A500038058F3FE9F480912F0591E0909362043F
:103A60008093840410926304109285046C2F83E287
:103A700095E00E9498030E94381C61E080912F0518
:103A80000E94DA1C83E295E00E944C03C82F20C0FC
:103A900080913B058F3F21F482E591E00E94710502
:103AA00060E0809138050E9485158C2F80680E9407
:103AB000F71B80E00E94F71BC82F61E0809138055A
:103AC0000E94851580913B058F3F11F40E9470057F
:103AD0008C2FCF910895CF93DF93CDB7DEB7C35628
:103AE000D1090FB6F894DEBF0FBECDBF789484B570
:103AF000826084BD84B5816084BD85B5826085BDEA
:103B000085B5816085BD80916E00816080936E0077
:103B10001092810080918100826080938100809169
:103B2000810081608093810080918000816080931A
:103B300080008091B10084608093B1008091B000DA
:103B400081608093B00080917A00846080937A00D5
:103B500080917A00826080937A0080917A008160FF
:103B600080937A0080917A00806880937A00109226
:103B7000C1000E94930F80E090E00E9465328F3F69
:103B800031F400E010E05CE1F52EF00E16C08FE19C
:103B900090E00E9465328F3AA1F762E08FE00E94C8
:103BA000B51561E070E080E090E00E94F1158FE0D3
:103BB0000E945C15892B29F32BC060E0C8010E948C
:103BC0006D320F5F1F4FF012F8CF6FEF8AE190E078
:103BD0000E946D326EEF8BE190E00E946D3261E0E9
:103BE0008CE190E00E946D3261E08DE190E00E94F6
:103BF0006D3262E08EE190E00E946D326FEA8FE1FB
:103C000090E00E946D3260E080E290E00E946D32B0
:103C100030E0C32E30E0D32E0EED12E0F02E41E264
:103C2000E42EE00EC6010E946532D8018D938D010D
:103C3000BFEFCB1ADB0AE012F5CFEBEBF2E011920B
:103C400011921192119222E0E73DF207C1F74091E3
:103C5000FC0220E137E2429FC001439F900D1124F6
:103C6000092E000CAA0BBB0B80930C0390930D0341
:103C7000A0930E03B0930F034091F60228E833E1BE
:103C8000429FC001439F900D1124092E000CAA0BE6
:103C9000BB0B8093040390930503A0930603B0939A
:103CA00007034091F502429FC001439F900D1124EC
:103CB000AC01092E000C660B770B4093FF0250936A
:103CC00000036093010370930203892B19F0109293
:103CD000D90203C081E08093D90261E085E00E94AF
:103CE000B51561E086E00E94B51561E087E00E94AD
:103CF000B51561E082E00E94B51561E087E00E94A1
:103D0000851561E082E00E94851565E070E080E045
:103D100090E00E94F11560E082E00E9485156AE063
:103D200070E080E090E00E94F1154091FA0200916D
:103D3000F9029EE2DE0111966D01FD01292F11921B
:103D40002A95E9F781E0898384E08A8332E03B8326
:103D500023E02D833E838F8380E4888735E0398795
:103D60002A8726E02B8723E32C8737E03D8728E04E
:103D70002F8729E0298B29E12B8B22E42C8B55E21C
:103D80005D8B8E8B56E25F8B388F38E2398F30E156
:103D90003A8F39E23B8F3CED3C8F9D8F98E89E8FA8
:103DA0009FE29F8F9DE298A390E399A337E33BA303
:103DB00030E93CA338E33DA32EA32CE32FA32FE847
:103DC00028A72DE329A722E12AA72FE62BA79CA746
:103DD0009FEF9DA79CE69E87888B4AA361E0809118
:103DE000AA050E94851561E08091AA050E94B5157B
:103DF0000E94FD050E9495164B015C014AEA6FE2A4
:103E000088EA95E00E9433066FE288EA95E00E9416
:103E100075068A3A61F00E949516DC01CB0188197B
:103E20009909AA09BB09C297A105B10538F30E94F7
:103E300095164B015C0145E56FE288EA95E00E942A
:103E400033066FE288EA95E00E947506853561F0D9
:103E50000E949516DC01CB0188199909AA09BB09B2
:103E6000C297A105B10538F310E0F601E10FF11D8D
:103E7000E10FF11D60816F3F39F0418188EA95E0E3
:103E80000E9433061F5FF1CF80E090E00E946F191F
:103E90006091B00588EA95E00E949F0661E088EA9B
:103EA00095E00E9473090E9495164B015C0167E240
:103EB00088EA95E00E94750687FD0CC00E94951661
:103EC000DC01CB0188199909AA09BB09C297A10590
:103ED000B10568F30E949516DC01CB018819990998
:103EE000AA09BB09C297A105B10578F51092BA02DB
:103EF0008091AC058230C8F4E82FF0E0EE0FFF1F90
:103F0000E050FF4F2AEE33E031832083813039F0D7
:103F100080916900836080936900E89A06C080916F
:103F200069008C6080936900E99A88EA95E0909333
:103F3000B9028093B8020093AD0567E00E94750650
:103F400067E088EA95E00E9475066FE188EA95E0EF
:103F50000E94590988ED91E00E946F1988EA95E066
:103F60000E94C8038091E80281110BC08091E90290
:103F7000811107C08091EA02811103C08091EB0298
:103F80008111109204010EED12E092E1A92E91E050
:103F9000B92E37E0F30ED501ED905D01BAE0EB16D6
:103FA00091F0F8019081692F61708E2DA4969FAFDA
:103FB000A4970E94B515A4969FADA497692F62702F
:103FC0008E2D0E948515D8018D918D0182FF03C031
:103FD0008E2D0E949D0FF012DECF8091F20280FFA5
:103FE00004C061E086E00E9485158091ED0281FFAA
:103FF00008C060E080E00E94B51561E081E00E94A9
:10400000B5158091EE02887109F46CC0E0917805D5
:10401000F091790520E030E040E06AE084E795E047
:10402000099588E0F60111928A95E9F7C6010E9488
:10403000C51B60E084E795E00E94391760E084E7E3
:1040400095E00E943917E0917805F091790520E01C
:1040500030E04091F8026EE084E795E0099588E64B
:1040600090E0909381058093800586E0E8E0F1E0A0
:10407000D60101900D928A95E1F71F821886198664
:104080001A868091F9024AE0BE01615D7F4F90E09F
:104090000E94912F43E050E0BE01615D7F4FC60159
:1040A0000E94292FA60162E084E00E94671969EE50
:1040B00071E0C6010E94222F8091FA024AE0BE01FF
:1040C000615D7F4F90E00E94912F43E050E0BE0180
:1040D000615D7F4FC6010E94292FA60163E084E045
:1040E0000E94671980E290E00E9465328111C9C088
:1040F00061E080E290E00E946D3299E288E10FB6C3
:10410000F894A895809360000FBE90936000F89497
:1041100021E030E080E80FB6F894809361002093AE
:1041200061000FBE00916600F0908000E090810079
:10413000B0908200A0906F009090B0008090B1008D
:10414000709070006090B600109280001092810014
:104150001092820010926F001092B0001092B10085
:10416000109270001092B60066E288EA95E00E9414
:104170007506582E45E066E288EA95E00E9433060F
:104180001092700083B5826883BD80E48093B6008E
:104190008091B60080628093B60081E08093B10088
:1041A0001092B00093B59F7793BDB89BFECF87E088
:1041B00087BB81E08093810080E88093660011E0F6
:1041C00021E837E0112311F1B89BFCCF23BD37BBA9
:1041D000809184009091850010FD15C0AC014D5F69
:1041E00053404730510590F08115944010F00C94E5
:1041F000F828909166009F5F90936600109285006A
:104200001092840001C013BC1F5FDCCF7894452D51
:1042100066E288EA95E00E943306F0928000E09220
:104220008100B0928200A0926F009092B0008092C4
:10423000B100709270006092B60087E286BB87E0A2
:1042400087BB13BC111115C0009366008FE0EFE12E
:10425000F2E0D60101900D928A95E1F788ECE82E04
:1042600005E02FE0A6016091FB0288EA95E00E943C
:10427000F20860E080E290E00E946D320E94930FAD
:1042800013C086E1EEE2F2E0D60101900D928A952C
:10429000E1F708ECE02E05E026E1A6016091FB02C3
:1042A00088EA95E00E94F2088091EE0281FF35C015
:1042B000E0919604F091970482E08083E09192046B
:1042C000F09193041082E0919404F09195048FECA6
:1042D000808310929E04E0919A04F0919B0486E002
:1042E0008083E0919804F0919904808180618083BB
:1042F000E0919804F0919904808188608083E09136
:104300009804F0919904808180688083E0919804FA
:10431000F091990480818F7D80838091ED0282FFEE
:1043200017C00E949018811113C081E1E4E4F2E00B
:10433000D60101900D928A95E1F718ECE12E05E087
:1043400021E1A6016091FB0288EA95E00E94F20853
:104350008091F402811111C083E18983809105016C
:10436000882359F0B8ECEB2E05E021E0A60160911E
:10437000FB0288EA95E00E94F20860E080E290E0AB
:104380000E946D3284E1E5E5F2E0D60101900D92E4
:104390008A95E1F7A8ECEA2E05E024E1A6016091F8
:1043A000FB0288EA95E00E94F20860E087E00E9444
:1043B00085159E012F5F3F4F3FAF2EAF285FA3961D
:1043C0002FAFA3971091F20213FF04C060E087E0C3
:1043D0000E94851511FF21C00E94951600911403BB
:1043E000109115032091160330911703DC01CB01C6
:1043F000801B910BA20BB30B893B9B40A105B10520
:1044000064F00E94951660931403709315038093D3
:104410001603909317030E94640A61E080E00E94F3
:10442000750A0E94951600911003109111032091B6
:10443000120330911303DC01CB01801B910BA20B03
:10444000B30BC0900C03D0900D03E0900E03F090DE
:104450000F0320910601C816D906EA06FB0618F0DC
:10446000222309F4ECC5222351F08091ED0280FF54
:1044700006C068EE73E080E090E00E94F1151092B3
:1044800006010E94951660931003709311038093A8
:104490001203909313038091F402882381F18EE438
:1044A00080937C0062E070E080E090E00E94F11573
:1044B00080917A00806480937A0080917A0086FDF2
:1044C000FCCF209178008091790030E0382B40E0DB
:1044D00050E060E070E381E190E00E94E52ADA01BB
:1044E000C9014AE0BE016F5F7F4F0E94912F40E0FB
:1044F000BE016F5F7F4F8FEE91E00E94010B8091B4
:10450000ED0280FFE5C0F12C6E018FE2C80ED11CD8
:1045100008E0E02EEC0C80916105F81608F0CFC0A1
:1045200084E494E7A0E0B0E08FAB98AFA9AFBAAF56
:104530001BAE1CAE1DAE6F2DC6010E94E71A811185
:1045400005C060E070E08EEF92EC9BC08091620548
:10455000909163050E94C705811103C060E874EE65
:104560007FC0009162051091630565E5C8010E9456
:10457000B81A5601D5016D915D01C8010E94B81AA3
:10458000EA10F8CF6EEB80916205909163050E946E
:10459000B81A8E010F5F1F4F58013EACF9E03F0E75
:1045A0006090620570906305F8E08F2E912C442492
:1045B0004394512CC3010E94740581115428440C6A
:1045C00021E0821A9108B1F7D5015D925D013A129E
:1045D000E7CF80916205909163050E94C705813005
:1045E00009F0BCCFE0E0A396BFADA397B01749F0A8
:1045F000D8018D918D01E827F0E0EE56FC4FE49153
:10460000F2CF8985E813AACF6981E8E06E9FB001F7
:1046100011248A81282F30E0322F2227330F330FC5
:10462000330F262B372B8FA58031C9F4688570E0B6
:104630008F81AB01481B5109CA019695982F882795
:10464000979587950E94D12A60517109207F53E088
:10465000220F331F5A95E1F7620F731F01C0B90192
:10466000613854EE75070CF46CCF072E000C880BE4
:10467000990B0E94952D20E030E040E05CE30E9421
:10468000932E8E010F5F1F4F21E043E00E94482FC1
:104690006F2D00E010E0C8010E94E71A43E050E0EF
:1046A000B801CE01C7960E94292F40E0BE016F5F7E
:1046B0007F4FCE01C7960E94010BF3942CCF81113E
:1046C00007C040E064EF71E089EF91E00E94010BC8
:1046D0008091ED0281FF07C041E06DEF71E087E05E
:1046E00092E00E94010B8091ED0282FF08C40E94BB
:1046F000311A8E010F5F1F4F21E043E00E94482FC7
:1047000040E0B8018CE092E00E94010B0E94311A57
:1047100087EF0E94AB196F966CAF7DAF8EAF9FAFE6
:104720006F978091340590913505A0913605B09131
:1047300037056C017D01FF0CCC08DC2C76019C0157
:10474000AD016C2D7C2D8C2D9C2D345F4140510989
:10475000610971098109910921962FAF219722964C
:104760003FAF229723964FAF239724965FAF2497AE
:1047700025966FAF259726967FAF269727968FAF02
:10478000279728969FAF289759016A017B018C01D2
:104790000E94172B64962FAF649765963FAF65977D
:1047A00066964FAF669767965FAF679768966FAFED
:1047B000689769967FAF69976A968FAF6A976B968D
:1047C0009FAF6B9790914C05A0969FAFA097A0913B
:1047D0004D052996AFAF2997B0914A05A196BFAF75
:1047E000A197E0914B052A96EFAF2A97F0914805E3
:1047F000A296FFAFA297209149052B962FAF2B973A
:10480000B0904505A09044051B2D110F110BC12E32
:10481000D12EE12EF12E012F21962FAD2197229638
:104820003FAD229723964FAD239724965FAD2497F3
:1048300025966FAD259726967FAD269727968FAD47
:10484000279728969FAD28970E94172B0CE00E946F
:10485000472C19012A013B014C01B0904705A0905B
:1048600046051B2D110F110BC12ED12EE12EF12E5D
:10487000012F64962FAD649765963FAD6597669658
:104880004FAD669767965FAD679768966FAD68970F
:1048900069967FAD69976A968FAD6A976B969FAD63
:1048A0006B970E94172B08E00E94602C5101620157
:1048B000730184010E947E2C70588F4F9F4F20906F
:1048C0004205309043055101C12CD12CE12CF12C33
:1048D00000E010E00E94172B01E20E94602C2C9651
:1048E0002FAF2C972D963FAF2D972E964FAF2E972B
:1048F0002F965FAF2F9760966FAF609761967FAFEF
:10490000619762968FAF629763969FAF6397A0E0BF
:104910000E94902C09F4E3C1A096AFACA097299611
:104920001FAD2997110F110B2996BFAC2997C12EE6
:10493000D12EE12EF12E012F64962FAD649765964E
:104940003FAD659766964FAD669767965FAD679783
:1049500068966FAD689769967FAD69976A968FADD7
:104960006A976B969FAD6B970E94172B19012A01CE
:104970003B014C01A196AFACA1972A961FAD2A9797
:10498000110F110B2A96BFAC2A97C12ED12EE12E02
:10499000F12E012F21962FAD219722963FAD229720
:1049A00023964FAD239724965FAD249725966FAD40
:1049B000259726967FAD269727968FAD2797289621
:1049C0009FAD28970E94172B01E10E94472C5901A7
:1049D0006A017B018C019101A201B301C4010E9413
:1049E0007E2C19012A013B014C016F964CAD5DAD47
:1049F0006EAD7FAD6F97E4E07595679557954795D8
:104A0000EA95D1F780E090E0A0E1B0E0841B950B3F
:104A1000A60BB70B6C017D01FF0CCC08DC2C7601DA
:104A20009C01AD016C2D7C2D8C2D9C2D0FE10E94E5
:104A3000472CB22FA32FF42FE52F21966FAF21978C
:104A400022967FAF229723968FAF239724969FAF0E
:104A50002497A2962FADA2972B969FAD2B97990FD7
:104A6000990B2B963FAD2B97492F592F692F792FF3
:104A7000892F03E20E94472C59016A017B018C01B6
:104A80009101A201B301C4010E947E2C59016A0167
:104A90007B018C012B2F3A2F4F2F5E2F21966FAD6C
:104AA000219722967FAD229723968FAD2397249648
:104AB0009FAD24970E94872C722E832E942EB52FA3
:104AC000A62FF72FE82F592E03E00E94472CA72C82
:104AD000B82CC92CDB2EEA2EFF2E0E2F152D0E948E
:104AE000872C59016A017B01682E192F03E00E946F
:104AF000472C062D0E94872C03E00E94472CA72CF0
:104B0000B82CC92CDB2EEA2EFF2E0E2F152D0E945D
:104B1000872C02E00E94472C0E2F0E94872C01E078
:104B20000E94472C0E2F0E94872C2C96AFAC2C97FE
:104B30002D96BFAC2D972E96CFAC2E972F96DFAC2F
:104B40002F976096EFAC60976196FFAC6197629685
:104B50000FAD629763961FAD63970E94722B2196EB
:104B60002FAF219722963FAF229723964FAF2397DF
:104B700024965FAF249725966FAF259726967FAF33
:104B8000269727968FAF279728969FAF28970DE0F7
:104B90000E94602C322E432E542E652E762E872EA8
:104BA000982E292E3091530520915205932F990F5D
:104BB000990BA32CB42CC52CD62CE72CF82C092D42
:104BC000122D492F592F692F792F892F0E94172BCA
:104BD0000E94172B09E10E94602C59016A017B0198
:104BE0008C0121962FAD219722963FAD22972396D7
:104BF0004FAD239724965FAD249725966FAD2597EB
:104C000026967FAD269727968FAD279728969FAD3E
:104C100028970E947E2C19012A013B014C013091FA
:104C2000510520915005932F990F990B2196AFAC08
:104C300021972296BFAC22972396CFAC2397249638
:104C4000DFAC24972596EFAC25972696FFAC2697E8
:104C500027960FAD279728961FAD2897492F592FD4
:104C6000692F792F892F0E94172B03E10E94602C56
:104C700059016A017B018C019101A201B301C401B8
:104C80000E947E2C08E00E94602C39014A01B62F58
:104C9000A72FF82FE92F30914F0520914E05932F24
:104CA000990F990B492F592F692F792F892F04E0DC
:104CB0000E94472C59016A017B018C019301A401D8
:104CC0006B2F7A2F8F2F9E2F0E947E2C0E948D2D6E
:104CD00020E030E040E85BE30E94932E03C060E0F8
:104CE00070E0CB0120E030E048EC52E40E94EC2C74
:104CF0006B017C0120E030E0A9010E94E72C8111CA
:104D000002C00E9490188E010F5F1F4F21E043E008
:104D1000C701B6010E94482F40E0B8018FE092E041
:104D20000E94010B0E94311A8DEF0E942F18809073
:104D3000340590903505A0903605B09037053CE2DB
:104D4000931A31E0A30AB1086C01E12CF12C6EE05A
:104D5000CC0CDD1CEE1CFF1C6A95D1F74091580568
:104D600050915905052E000C660B770BE4E1440FBA
:104D7000551F661F771FEA95D1F7C41AD50AE60AB0
:104D8000F70AA0915A05B0915B05A50194010E9414
:104D90000F2BC61AD70AE80AF90A40E4D40EE11C20
:104DA000F11CFFE0F594E794D794C794FA95D1F7F6
:104DB000A0915C050A2E000CBB0BA50194010E947A
:104DC0000F2B2B013C01AAE07594679457944794EC
:104DD000AA95D1F7A0915705B0E00E94042BDC0101
:104DE000CB011BE0B595A795979587951A95D1F7B7
:104DF000BC01CD0170588F4F9F4FA30192010E94BB
:104E0000C12ADC01CB010AE0B595A7959795879556
:104E10000A95D1F79C01AD01405E5F4FA091550509
:104E2000B09156050E940F2BDC01CB01905EAF4F75
:104E3000BF4FBC01CD012EE095958795779567957D
:104E40002A95D1F7A70196010E94C12A6B017C0126
:104E50003FE095958795779567953A95D1F79B01B2
:104E6000AC010E94C12A9B01AC0167E055954795B2
:104E7000379527956A95D1F7A0915405B0E00E9427
:104E8000042BDC01CB0174E0B595A7959795879528
:104E90007A95D1F7A7019601281B390B4A0B5B0BBA
:104EA000DA01C90157FF03C080E090E0DC018130E6
:104EB0009105A10539E1B30724F080E090E0A0E07E
:104EC000B9E1BC01CD015CE0959587957795679533
:104ED0005A95D1F70E94952D20E030E040E85AE342
:104EE0000E94932E8E010F5F1F4F21E043E00E942E
:104EF000482F40E0B80182E192E00E94010BE12CD2
:104F0000F12CF701E252FD4F8285882309F449C054
:104F100081E499E6A0E0B0E08FA798ABA9ABBAAB6B
:104F20001CAA1BAAF701EE5EFE4F12854AE0BE01E5
:104F3000695C7F4F812F90E00E94912F42E050E00A
:104F4000BE01695C7F4FCE018F960E94292F1E30D3
:104F500008F01E50177080910401A0E48A9FC001E0
:104F60001124182B10937C0080917A008064809328
:104F70007A0080917A0086FDFCCF809178002091A4
:104F8000790090E04AE0BE016F5F7F4F922B0E9454
:104F9000912F40E0BE016F5F7F4FCE018F960E9440
:104FA000010BBFEFEB1AFB0AE4E0EE16F10409F087
:104FB000A8CF3BEBE32E32E0F32E4EEDC42E42E0C1
:104FC000D42E00E010E0D6018D916D0187FF2CC03A
:104FD00023E63FE540E050E02FA738AB49AB5AABA2
:104FE0001BAA4AE0BE01695C7F4FC8010E94912F55
:104FF00042E050E0BE01695C7F4FCE018F960E9477
:10500000292FD7016D917D918D919C912AE0AE0160
:105010004F5F5F4F0E949C2F40E0BE016F5F7F4F4C
:10502000CE018F960E94010B0F5F1F4FB4E0EB0E75
:10503000F11C0730110539F681E00E94F70F80E07E
:105040000E94F70F0E94951600910403109105032A
:105050002091060330910703C0900803D090090304
:10506000E0900A03F0900B03DC01CB018C199D0941
:10507000AE09BF09081719072A073B0720F08091DE
:1050800003038823A9F0012B022B032B89F00E9434
:105090009516609308037093090380930A03909315
:1050A0000B0341E065E172E08CE192E00E94010BAC
:1050B00040E06DE972E0CB010E94010B0E94951661
:1050C0000091DA021091DB022091DC023091DD02C6
:1050D000DC01CB01801B910BA20BB30B0091FF02F3
:1050E0001091000320910103309102030817190762
:1050F0002A073B0708F502E111E02EEDE22E22E03F
:10510000F22EF80127E0E20FDE2ED7018D917D010E
:1051100085FF0BC084FF04C061E0F801808103C0FB
:1051200060E0D8018C910E9485150F5F1F4FD0124F
:10513000ECCF81E08093D9028091F402882309F4B6
:105140004CC08091F302882309F447C08091D902B2
:10515000882309F442C081E18FA78091050188234B
:1051600069F098ECE92E05E021E0AE01415D5F4F6A
:105170006091FB0288EA95E00E94F20800E010E0EE
:105180000E947E0C882311F000E010E061E070E0E6
:1051900080E090E00E94F1150F5F1F4F033CB1E0EB
:1051A0001B0770F382E1898380910501882369F0F0
:1051B00088ECE82E05E021E0AE014F5F5F4F609183
:1051C000FB0288EA95E00E94F20861E080E00E941C
:1051D000750A8091D902811110C08091F20283FF7B
:1051E00004C061E087E00E9485150E948412EAC82D
:1051F0009091660091500C94FC2040E06DE972E0C3
:10520000CB010E94010B1091F202012F087013FFD5
:1052100004C060E087E00E9485151092D8021092C9
:10522000D702002321F060E086E00E94851512FD80
:1052300004C060E086E00E94851560E088EA95E0A1
:105240000E9473098091ED0282FF08C084EF0E94E2
:10525000251D682F6C7F84EF0E94951C8091EE02C3
:10526000887149F08091F20284FD05C061E084E715
:1052700095E00E943917F0907C0010927C00E0903D
:105280007A0010927A00D09064001092640021E6B7
:1052900088E190E00FB6F894A895809360000FBE67
:1052A0002093600000E010E08091F4029091F302FE
:1052B000899FC00111240817190708F58091F2028F
:1052C0008670863049F461E00E9485150E94640A68
:1052D00060E086E00E94851583B7817F846083BF8C
:1052E00083B7816083BF789483B7816083BF8895DB
:1052F00083B78E7F83BF8091D8028823C1F00E943C
:10530000930FD0926400F0927C00E0927A0081E0EA
:10531000809305018091ED0282FF14C084EF0E940A
:10532000251D682F636084EF0E94951C0BC080913F
:10533000D702882321F01092D702015011090F5F84
:105340001F4FB2CF8091F20280FF04C061E086E07F
:105350000E9485158091EE02887129F060E084E753
:1053600095E00E9439178091F20283FF04C061E04A
:1053700086E00E94851581E08093060180930303F7
:105380002CCFCF93109289041092880488EE93E07A
:10539000A0E0B0E080938A0490938B04A0938C04E7
:1053A000B0938D0424E931E0309387042093860480
:1053B00025EC30E0309393042093920424EC30E009
:1053C000309395042093940420EC30E030939704BC
:1053D0002093960421EC30E03093990420939804B4
:1053E00022EC30E030939B0420939A0426EC30E0CA
:1053F00030939D0420939C0410929F041092A0046B
:105400001092A1041092A204109226051092250574
:105410008093270590932805A0932905B0932A052A
:1054200084EA91E090932405809323058CEB91E02E
:105430009093A9058093A80588E08093AA0583E04E
:105440008093AB0581E08093AC058093A705109213
:10545000AE058FE18093AF051092B00510927305F1
:10546000109272051092A5051092A60584EB91E0AA
:1054700090937105809370051092750510927405D4
:105480001092850510928805109289058FEF809300
:10549000860580938B05EFE8F5E09FEF86E18E0FA0
:1054A000CFEF91938E13FCCF86E693E1909379052D
:1054B000809378058BE694E190937B0580937A0541
:1054C00086EC94E190937D0580937C058BE296E1D8
:1054D00090937F0580937E0520E030E040E069E016
:1054E00084E795E00E946613C0939A05C0939B05DC
:1054F000C0939C0560E089E00E94B515E9EBF4E0FB
:10550000E491E093B305E5EAF4E0E491F0E0EE0F16
:10551000FF1FEE56FB4F859194919093B5058093B4
:10552000B4051092BE051092C0051092BF05EEEBB7
:10553000F5E0129285E0E63BF807D9F787EC93E0B7
:1055400090936F0580936E0583EB95E090936305D0
:10555000809362051092610510925D0589E0809349
:105560005E0581E080935F05809360058FEF8093F7
:1055700038058093390580933A0580933B05CF9198
:105580000895DB018F939F930E94042BBF91AF91ED
:10559000A29F800D911DA39F900DB29F900D11248D
:1055A000089597FB072E16F4009407D077FD09D0D5
:1055B0000E949C2C07FC05D03EF4909581959F4F4E
:1055C0000895709561957F4F0895052E97FB1EF401
:1055D00000940E94FC2A57FD07D00E94B02C07FCC3
:1055E00003D04EF40C94FC2A5095409530952195AB
:1055F0003F4F4F4F5F4F08959095809570956195FF
:105600007F4F8F4F9F4F08950E94D82CA59F900DDC
:10561000B49F900DA49F800D911D11240895B7FF94
:105620000C94042B0E94042B821B930B0895DF9390
:10563000CF931F930F939A9DF02D219FF00D8B9D7B
:10564000F00D8A9DE02DF10D039FF00D029FE00DFE
:10565000F11D4E9DE00DF11D5E9DF00D4F9DF00D75
:105660007F936F93BF92AF925F934F93D5010E9448
:10567000D82C8B01AC01D7010E94D82CEB01E80F8C
:10568000F91FD6010E94672B2F913F91D6010E94EE
:10569000D82CC60FD71FE81FF91FAF91BF910E94EA
:1056A000672B2F913F910E94D82CC60FD71FE81F60
:1056B000F91FD6010E94D82CE60FF71F9801BE01F2
:1056C000CF0111240F911F91CF91DF9108950E9476
:1056D000D82C460F571FC81FD91F08F431960895BC
:1056E000689401C0E894F92FF12B12F00C94A42BCC
:1056F000A0E0B0E0EEE7FBE20C94162C092E059436
:1057000022F40E94002C112392F4F0E80F26FFEF00
:10571000E094F09400951095B094C094D094A19426
:10572000BF0ACF0ADF0AEF0AFF0A0F0B1F0B0E9406
:10573000AF2B07FC0E94002CCDB7DEB7ECE00C9439
:10574000322C689401C0E8948F929F92CF93DF939C
:105750000E94AF2BDF91CF919F908F900895882466
:105760009924F401E401B0E49F93AA279A158B04CD
:105770009C04ED05FE05CF05D007A10798F4AD2FD9
:10578000DC2FCF2FFE2FE92D982C892E982F872FD5
:10579000762F652F542F432F322F2227B85031F701
:1057A000BF9127C01B2EBF91BB27220F331F441F61
:1057B000551F661F771F881F991F881C991CEE1F95
:1057C000FF1FCC1FDD1FAA1FBB1F8A149B04EC0503
:1057D000FD05CE05DF05A007B10748F08A189B0834
:1057E000EC09FD09CE09DF09A00BB10B21601A9469
:1057F000E1F62EF49401AF01BE01CD01000C089535
:10580000609570958095909530954095509521952F
:105810003F4F4F4F5F4F6F4F7F4F8F4F9F4F0895B9
:105820002F923F924F925F926F927F928F929F92B0
:10583000AF92BF92CF92DF92EF92FF920F931F939E
:10584000CF93DF93CDB7DEB7CA1BDB0B0FB6F8944F
:10585000DEBF0FBECDBF09942A88398848885F848F
:105860006E847D848C849B84AA84B984C884DF8000
:10587000EE80FD800C811B81AA81B981CE0FD11DE4
:105880000FB6F894DEBF0FBECDBFED0108950F93A4
:10589000083090F0982F872F762F652F542F432FA5
:1058A000322F22270850F4CF220F331F441F551FD9
:1058B000661F771F881F991F0A95B2F70F910895E9
:1058C00097FB10F8169400080F93083098F00850D2
:1058D000232F342F452F562F672F782F892F902D68
:1058E000F4CF059497958795779567955795479544
:1058F000379527950A95AAF70F9108952A0D3B1D14
:105900004C1D5D1D6E1D7F1D801F911F08952A195E
:105910003B094C095D096E097F09800B910B0895C5
:105920000024A7FD00942A173005400550056005A6
:105930007005800590050895AA1BBB1B51E107C0A7
:10594000AA1FBB1FA617B70710F0A61BB70B881F0F
:10595000991F5A95A9F780959095BC01CD0108959E
:10596000A1E21A2EAA1BBB1BFD010DC0AA1FBB1F63
:10597000EE1FFF1FA217B307E407F50720F0A21BD5
:10598000B30BE40BF50B661F771F881F991F1A9442
:1059900069F760957095809590959B01AC01BD016C
:1059A000CF010895EE0FFF1F0590F491E02D0994AB
:1059B000A29FB001B39FC001A39F700D811D112450
:1059C000911DB29F700D811D1124911D08950E949B
:1059D0000E2E08F481E008950E94002D0C94592E9B
:1059E0000E94522E58F00E944B2E40F029F45F3F47
:1059F00029F00C94322E51110C948D2E0C94382ECB
:105A00000E946A2E68F39923B1F3552391F3951BF5
:105A1000550BBB27AA2762177307840738F09F5FCF
:105A20005F4F220F331F441FAA1FA9F335D00E2E3C
:105A30003AF0E0E832D091505040E695001CCAF7A9
:105A40002BD0FE2F29D0660F771F881FBB1F26176C
:105A500037074807AB07B0E809F0BB0B802DBF0143
:105A6000FF2793585F4F3AF09E3F510578F00C9412
:105A7000322E0C948D2E5F3FE4F3983ED4F386953E
:105A800077956795B795F7959F5FC9F7880F911D33
:105A90009695879597F90895E1E0660F771F881F1F
:105AA000BB1F621773078407BA0720F0621B730BD2
:105AB000840BBA0BEE1F88F7E09508950E94722EB2
:105AC00088F09F5798F0B92F9927B751B0F0E1F0BF
:105AD000660F771F881F991F1AF0BA95C9F714C06F
