:100000000C94E0020C9438200C9411200C948D2157
:100010000C94EE210C94CA210C947E210C940803BC
:100020000C9408030C9408030C9408030C94080324
:100030000C9408030C9408030C9408030C94080314
:100040000C94C71F0C9408030C94951F0C946F1FFD
:100050000C9408030C9408030C9408030C940803F4
:100060000C945F200C94080300407A10F35A00A00F
:10007000724E18090010A5D4E80000E87648170071
:1000800000E40B54020000CA9A3B000000E1F505B1
:10009000000080969800000040420F000000A086FB
:1000A00001000000102700000000E803000000002D
:1000B0006400000000000A000000000001000000D1
:1000C00000002C76D888DC674F0823DFC1DFAE59EB
:1000D000E1B1B796E5E3E453C63AE651997696E87E
:1000E000E6C28426EB898C9B62ED407C6FFCEFBC02
:1000F0009C9F40F2BAA56FA5F490055A2AF75C932D
:100100006B6CF9676DC11BFCE0E40D47FEF520E662
:10011000B500D0ED902E0300943577050080841E45
:10012000080000204E0A000000C80C333333330FA0
:10013000986E12831141EF8D2114893BE65516CF3D
:10014000FEE6DB18D1844B381BF77C1D901DA4BB49
:10015000E424203284725E228100C9F124ECA1E5FE
:100160003D27005EBCE2613FDD83C29C7E20A3FD93
:100170001F419DC3217FFCA2401E5F01E3BD3E6085
:1001800082DC237D9FC1421CFEA0E1BF5D0380DEB7
:100190003C62BEE0025CDF81633D7C22C09E1D4369
:1001A000A1FF4618FAA427799BC584DA3866E5BB17
:1001B0005907DB856739BAE406581947A5FB782645
:1001C000C49A653BD987045AB8E6A7F91B45C69877
:1001D0007A24F8A6441A99C7257B3A6486D85B0529
:1001E000E7B98CD2306EEDB3510F4E10F2AC2F71D7
:1001F00093CD114FADF3702ECC92D38D6F31B2EC05
:100200000E50AFF1134DCE90722C6D33D18F0C5236
:10021000B0EE326C8ED0530DEFB1F0AE4C1291CFE8
:100220002D73CA947628ABF517490856B4EA693796
:10023000D58B5709EBB536688AD495CB2977F4AAC4
:100240004816E9B7550B88D6346A2B7597C94A14F6
:10025000F6A8742AC896154BA9F7B6E80A54D789A8
:100260006B3500000000240027002A000000000079
:10027000250028002B0000000008000201000003F8
:100280000407000000000000000000000000230040
:1002900026002900040404040404040402020202E7
:1002A0000202030303030303010204081020408039
:1002B000010204081020010204081020207F000021
:1002C00000000000000000065F5F0600000000075D
:1002D000070007070000147F7F147F7F1400242E7F
:1002E0006B6B3A120000466630180C666200307A7A
:1002F0004F5D377A48000407030000000000001C2F
:100300003E63410000000041633E1C000000082ADB
:100310003E1C1C3E2A0808083E3E080800000080DB
:10032000E06000000000080808080808000000005D
:100330006060000000006030180C060301003E7F82
:1003400071594D7F3E0040427F7F40400000627304
:1003500059494F660000226349497F360000181C46
:1003600016537F7F5000276745457D3900003C7E4E
:100370004B4979300000030371790F070000367F85
:1003800049497F360000064F49693F1E00000000C2
:100390006666000000000040763600000000081C81
:1003A000366341000000242424242424000000415A
:1003B00063361C080000020351590F0600003E7FFF
:1003C000415D5D1F1E007C7E13137E7C0000417F1B
:1003D0007F49497F36001C3E634141632200417FD3
:1003E0007F41633E1C00417F7F495D416300417F47
:1003F0007F491D0103001C3E6341517372007F7FE2
:1004000008087F7F000000417F7F410000003070BE
:1004100040417F3F0100417F7F081C776300417F9F
:100420007F41406070007F7F0E1C0E7F7F007F7FCA
:10043000060C187F7F001C3E6341633E1C00417F19
:100440007F49090F06001E3F21717F5E0000417F3A
:100450007F09197F660022674D597322000003410E
:100460007F7F410300007F7F40407F7F00001F3F70
:1004700060603F1F00007F7F3018307F7F00436740
:100480003C183C674300074F78784F0700004763EC
:1004900071594D677300007F7F41410000000103E7
:1004A000060C183060000041417F7F000000080CFE
:1004B0000603060C08008080808080808080000019
:1004C000030704000000207454543C784000417F2E
:1004D0003F4848783000387C44446C28000030782D
:1004E00048493F7F4000387C54545C180000487EE7
:1004F0007F490302000098BCA4A4F87C0400417F5B
:100500007F08047C780000447D7D4000000060E0AE
:100510008080FD7D0000417F7F10386C44000041E9
:100520007F7F400000007C7C18381C7C78007C7C3D
:1005300004047C780000387C44447C38000084FC4F
:10054000F8A4243C1800183C24A4F8FC8400447C43
:10055000784C041C1800485C5454742400000004B7
:100560003E7F442400003C7C40403C7C40001C3CDE
:1005700060603C1C00003C7C7038707C3C00446C2B
:100580003810386C44009CBCA0A0FC7C00004C647B
:10059000745C4C64000008083E7741410000000094
:1005A0000077770000004141773E08080000020311
:1005B00001030203010070784C464C78700012224F
:1005C00011241FBECFEFD8E0DEBFCDBF13E0A0E007
:1005D000B1E0E4E3FDE602C005900D92A435B10759
:1005E000D9F726E0A4E5B3E001C01D92A337B20716
:1005F000E1F712E0C0EED2E004C02197FE010E94B4
:100600004436CF3DD107C9F70E9419230C94983680
:100610000C94000080E0089508958CBD9DBD089560
:100620002091370581E0213208F044C08091130504
:100630008111FCCF8091360592E09093130591E0F3
:10064000909312059FEF909311051092100520933F
:100650000F05A6E1B5E0EFEEF4E090E0291331C01C
:100660001092EE049091EE04880F892B8093EE0493
:100670008091ED04813049F51092ED048091EE04F3
:100680008093BB008091BC0083FDF8CF85EC809304
:10069000BC00809113058230E1F3809111058F3FFA
:1006A000B1F0809111058032A1F080911105803365
:1006B00091F084E010921505109237051092140500
:1006C00008953D9131939F5FC9CF85EEE0CF80E0E3
:1006D000F1CF82E0EFCF83E0EDCF089508951F932F
:1006E000CF93DF9300D000D01F92CDB7DEB71C822E
:1006F00021E02B839A838983E0913406F0913506BB
:1007000011891D82A0913406B0913506E09138061A
:10071000F09139069E012F5F3F4F50964C916FE04C
:1007200084E396E009958D818F5F8D83811750F367
:100730000F900F900F900F900F90DF91CF911F911E
:100740000895662329F06A3019F0862F90E0089505
:100750008FEF9FEF08959B01DC011896ED91FC91BE
:1007600041E067E1099481E08093610480915F0436
:1007700090916004DC01ED91FC910484F585E02DFD
:100780000995109261040895AF92BF92CF92DF92C3
:10079000EF92FF920F931F93CF93DF936C017B0136
:1007A0008B01040F151FEB015E01AE18BF08C017C7
:1007B000D10759F06991D601ED91FC910190F0813A
:1007C000E02DC6010995892B79F7C501DF91CF91FD
:1007D0001F910F91FF90EF90DF90CF90BF90AF905F
:1007E0000895FC01538D448D252F30E0842F90E037
:1007F000821B930B541710F0CF960895019708951C
:10080000FC01918D828D981761F0A28DAE0FBF2FE4
:10081000B11D5D968C91928D9F5F9F73928F90E03A
:1008200008958FEF9FEF0895FC01918D828D9817A9
:1008300031F0828DE80FF11D858D90E008958FEFE6
:100840009FEF0895FC01918D228D892F90E0805CAF
:100850009F4F821B91098F739927089588E395E034
:100860000E94220421E0892B09F420E0822F0895C0
:1008700080E090E0892B29F00E942E0481110C94D5
:1008800000000895FC01A48DA80FB92FB11DA35A33
:10089000BF4F2C91848D90E001968F739927848FA0
:1008A000A689B7892C93A089B1898C9183708064C3
:1008B0008C93938D848D981306C00288F389E02D64
:1008C00080818F7D80830895EF92FF920F931F9315
:1008D000CF93DF93EC0181E0888F9B8D8C8D9813F3
:1008E0001AC0E889F989808185FF15C09FB7F894FF
:1008F000EE89FF896083E889F9898081837080644B
:1009000080839FBF81E090E0DF91CF911F910F9195
:10091000FF90EF900895F62E0B8D10E00F5F1F4FA4
:100920000F731127E02E8C8D8E110CC00FB607FCB3
:10093000FACFE889F989808185FFF5CFCE010E9441
:100940004204F1CFEB8DEC0FFD2FF11DE35AFF4F69
:10095000F0829FB7F8940B8FEA89FB8980818062CF
:10096000CFCFCF93DF93EC01888D8823B9F0AA898C
:10097000BB89E889F9898C9185FD03C0808186FD5A
:100980000DC00FB607FCF7CF8C9185FFF2CF8081A9
:1009900085FFEDCFCE010E944204E9CFDF91CF91D8
:1009A0000895833081F028F4813099F08230A9F0E5
:1009B00008958730A9F08830C9F08430B1F480916F
:1009C00080008F7D03C0809180008F7780938000AE
:1009D000089584B58F7784BD089584B58F7DFBCF4E
:1009E0008091B0008F778093B00008958091B0001F
:1009F0008F7DF9CFCF93DF93282F30E0F901EA58AC
:100A0000FD4F8491F901E855FD4FD491F901EC5661
:100A1000FD4FC491CC23A1F081110E94D104EC2F91
:100A2000F0E0EE0FFF1FE657FD4FA591B491EC915A
:100A3000ED2381E090E009F480E0DF91CF9108950B
:100A400080E090E0FACF1F93CF93DF93282F30E020
:100A5000F901EA58FD4F8491F901E855FD4FD49111
:100A6000F901EC56FD4FC491CC23A9F0162F81114A
:100A70000E94D104EC2FF0E0EE0FFF1FE459FD4F70
:100A8000A591B4918FB7F894EC91111108C0D0954D
:100A9000DE23DC938FBFDF91CF911F910895DE2B72
:100AA000F8CF1092CC041092CB041092150510923E
:100AB00037051092130581E0809312051092ED0422
:100AC00061E082E10E94230561E083E10E94230549
:100AD000E9EBF0E080818E7F808380818D7F808351
:100AE00088E48093B80085E48093BC008DE693E0B1
:100AF0009093CA048093C9048EE693E09093C8044F
:100B00008093C7040895CF93DF9390E0FC01E855EC
:100B1000FD4F24918C569D4FFC0184918823C9F090
:100B200090E0880F991FFC01EE59FD4FA591B491FB
:100B3000FC01E459FD4FC591D49161110DC09FB7DF
:100B4000F8948C91209582238C9388812823288384
:100B50009FBFDF91CF910895623051F49FB7F89411
:100B60003C91822F809583238C93E8812E2BEFCFAD
:100B70008FB7F894EC912E2B2C938FBFEACF3FB711
:100B8000F89480915B0490915C04A0915D04B09115
:100B90005E0426B5A89B05C02F3F19F00196A11D44
:100BA000B11D3FBFBA2FA92F982F8827BC01CD01B7
:100BB000620F711D811D911D42E0660F771F881F16
:100BC000991F4A95D1F708958F929F92AF92BF9245
:100BD000CF92DF92EF92FF926B017C010E94BF05E2
:100BE0004B015C01C114D104E104F104B9F00E948D
:100BF000BF05681979098A099B09683E7340810518
:100C0000910580F321E0C21AD108E108F10888EECD
:100C1000880E83E0981EA11CB11CE4CFFF90EF90DA
:100C2000DF90CF90BF90AF909F908F9008952FB797
:100C3000F8946091570470915804809159049091F0
:100C40005A042FBF08950895DC011A96ED91FC9186
:100C500030E020E00994462FDC011496ED91FC91E0
:100C600030E020E06BE00994DC011696ED91FC91F8
:100C700030E020E040E069E10994DC011696ED9156
:100C8000FC9130E020E040E068E109949A01DC0149
:100C90001696ED91FC91462F67E10994EF92FF9231
:100CA0000F931F93CF93DF931F92CDB7DEB77C01D5
:100CB0008B01D8016C91673129F150F46531A0F4B2
:100CC0000F90DF91CF911F910F91FF90EF900895BA
:100CD0006A3118F16E3FA1F7F8014181498369E259
:100CE000C7010E9424060BC0F80141814983D70146
:100CF0001696ED91FC9130E020E0C70109950E5F5A
:100D00001F4FD7CFF80181818983AE014F5F5F4FBD
:100D100061E0C7010E944606F2CF0F5F1F4FD70167
:100D20001696ED91FC9130E020E040E0C701099576
:100D3000C0CF462FDC011696ED91FC9130E020E00B
:100D400066E10994462FDC011696ED91FC9130E0A6
:100D500020E065E10994EF92FF920F931F93CF93E8
:100D6000DF93EC01042F79016D3009F446C050F493
:100D70006B30C9F1693009F49FC06A3009F465C06D
:100D800080E046C06E3009F452C06F3099F70E947F
:100D90003D06F7011381110F110F110F6889160F0E
:100DA00060E4CE010E94A206612F62956F706061BF
:100DB000CE010E94A206612F6F70CE010E9499069B
:100DC000F7016481606BCE010E949906F7014081B2
:100DD00051816281660F660F660FCE010E94460642
:100DE0000150A1F72EC064E571E0442311F06FE4D7
:100DF00071E0CE010E944E060AC0411110C068E4A5
:100E000071E00E944E06E881F9818289888B81E039
:100E1000DF91CF911F910F91FF90EF90089561E4C2
:100E200071E00E944E06E881F9818389EFCF0E942C
:100E30003D0661E8CE010E94A206602FCE010E940D
:100E40009906CE010E943406E2CFEA85FB8530E0A8
:100E500020E040E068E2CE010995EE81FF8130E0BC
:100E600020E040E064E1CE01099541E06BE4CE0171
:100E70000E942406E881F981448169E2CE010E9442
:100E8000240640E06BE4CE010E942406E881F9814B
:100E9000448169E2CE010E94240641E06BE4CE0168
:100EA0000E942406E881F981458169E2CE010E9411
:100EB000240669E571E09DCF8EE891E099838883EF
:100EC000188AA5CFDC011896ED91FC9130E020E066
:100ED00040E069E10994DC011896ED91FC9130E065
:100EE00020E040E068E10994CF93DF931F92CDB7F3
:100EF000DEB76983BE016F5F7F4F0E94AB030F9027
:100F0000DF91CF910895EF92FF921F93CF93DF93DC
:100F1000EC01162F7A010E946B0760E4CE010E945B
:100F20007407E885F9859701412F67E1CE0109959E
:100F3000CE01DF91CF911F91FF90EF900C9462074B
:100F4000EF92FF921F93CF93DF93EC01142F79015F
:100F5000673130F4653178F4643159F180E005C0CF
:100F60006731F9F06A31D0F781E0DF91CF911F91BD
:100F7000FF90EF9008950E946B0760E0CE010E9401
:100F80007407612FCE010E947407CE010E94620790
:100F9000EBCF68E1CE010E948307185188E1E80E8B
:100FA000F11CA7011931A8F7612FCE010E94830718
:100FB000DBCF8A898F3F11F488E78A8BE885F98532
:100FC0009701412F64E1CE01DF91CF911F91FF90F6
:100FD000EF900994CF93DF93DC011C96ED91FC9187
:100FE0001D9784913196E491681768F1E61758F1DE
:100FF000681B770B83E0660F771F8A95E1F7CB01BB
:101000000296EA01665F7F4F1C96ED91FC911D9759
:10101000E80FF91FE491E993019686179707A1F766
:1010200051968C91882361F0FA019A01285F3F4F15
:101030008191DF01119780958C932E173F07C1F79F
:10104000DF91CF910895FA01CA0108961192E8172D
:10105000F907E1F7E5CFAF92BF92CF92DF92EF921F
:10106000FF920F931F93CF93DF93CDB7DEB72D97EA
:101070000FB6F894DEBF0FBECDBFE82EA62E10929D
:1010800049068A01F12CCE0101966C01BB24B39470
:10109000F80161918F01E0913606F091370684E303
:1010A00096E009958F3F9807F1F08E3F2FEF92075A
:1010B00079F3A601682F84E396E00E94EA07EC86A4
:1010C000AD86BB86DA86C986E0913806F09139068E
:1010D0009E01275F3F4F41E06FE084E396E0099572
:1010E000E394F394D5CF8F2D2D960FB6F894DEBFF1
:1010F0000FBECDBFDF91CF911F910F91FF90EF9069
:10110000DF90CF90BF90AF90089521EA33E0309305
:101110003706209336060C942B080F931F93CF931A
:10112000DF938C01C62F642FCC32E8F4CA3208F06A
:1011300041C0C83271F1C93209F442C080E0C03404
:10114000D0F1CF73F801EC0FF11D838D8F3F91F13A
:10115000C031E0F00E94FA0421E0892B09F420E07C
:10116000F801268B27C0CD3289F140F384EB8C0F38
:10117000823020F7CF73C00FD12FD11D8B8D41113D
:1011800033C061E00E94830560E08B8D0E942305DF
:1011900011C0055E1F4FD0E0F80181918F018F3F94
:1011A00031F061E0D03108F062E00E948305DF5F3A
:1011B000D63191F781E0DF91CF911F910F91089582
:1011C00070E090E080E00E94E405F4CF85E090E0DC
:1011D000433010F082E090E0880F991F880F991F2C
:1011E00005970197F1F7E6CF62E00E948305E2CF11
:1011F000AF92BF92CF92DF92EF92FF920F931F9325
:10120000CF93DF93CDB7DEB72D970FB6F894DEBF3F
:101210000FBECDBFFC01F6A86A30B1F4F394F6AA74
:1012200015AA81E090E02D960FB6F894DEBF0FBEB0
:10123000CDBFDF91CF911F910F91FF90EF90DF9085
:10124000CF90BF90AF9008958C01E5A86C0184E029
:10125000C80ED11CDE0111965D01AD01C6010E94D0
:10126000EA07EC86FD8681E08B87BA86A986D801DD
:101270001896ED91FC919E01275F3F4F41E06FE092
:10128000C6010995F80185A98F5F85ABCACF85EDA9
:101290008093BC008091BC0084FDFCCF10921305AC
:1012A000089520913304260F3327331F213231054F
:1012B000ECF420911305FC0190E080E0243069F00B
:1012C00082E00895A09133042191AC014D5E5B4F03
:1012D000A40FB52FB11D2C930196861798F380911A
:1012E0003304680F6093330480E0089581E008952B
:1012F000E091CC048091CB04E81730F4F0E0E353A4
:10130000FB4F808190E008958FEF9FEF08959091BB
:10131000CC048091CB042FEF3FEF981748F4E92FCE
:10132000F0E0E353FB4F208130E09F5F9093CC04CB
:10133000C90108958091CB049091CC04891B990B2D
:101340000895CF92DF92EF92FF920F931F93CF9366
:10135000DF937C01CB018A0120911405222389F0BF
:10136000EB016B01C40ED51ECC15DD0569F069914A
:10137000D701ED91FC910190F081E02DC701099515
:10138000F3CF642F0E945109C801DF91CF911F91C3
:101390000F91FF90EF90DF90CF900895FC01962F72
:1013A0006831C1F0B901993130F4943181F097314D
:1013B00041F080E00895993121F19032D1F781E038
:1013C000089550E085ED95E00E94A109F8CF0E94B4
:1013D0005105F5CFA081B1811D968C91843018F014
:1013E0008CE08093B800828990E09595879591E094
:1013F00090931405809336051092150510923705C9
:10140000DECF0E941003DBCFCF93DF931F92CDB7C7
:10141000DEB76983209114052223F9F02091370566
:10142000203258F021E030E0FC013383228390E049
:1014300080E00F90DF91CF91089580911505E82FFE
:10144000F0E0EA5EFA4F998190838F5F80931505F3
:101450008093370581E090E0ECCF61E0CE0101960A
:101460000E945109F7CFDC0180E0615038F0ED9126
:10147000E827F0E0EE59FE4F8491F7CF0895DC01A4
:101480002C911196ED91FC91F8948181822B8183AE
:101490009281322F30959323928387E090E00197D9
:1014A000F1F781818323818383E290E00197F1F753
:1014B00090817894EFECF0E03197F1F7922381E09E
:1014C00009F480E00895FC0190810180F281E02D13
:1014D000292F209560FF14C0F89482818223828393
:1014E0008181892B8183A3E2B0E01197F1F782819A
:1014F000982B9283789487ED90E00197F1F7089507
:10150000F8948281822382838181892B8183AFEF4A
:10151000B0E01197F1F78281982B928378948FE055
:1015200090E0EBCFDF92EF92FF920F931F93CF9358
:10153000DF93EC01D62EE42E08E010E0FF24F394B4
:1015400061E08D2D8F2109F460E0CE010E94630AD5
:10155000FF0C01501109A1F7E11010C0F894E981C6
:10156000FA8191818881809589238183E981FA813B
:10157000928188818095892382837894DF91CF91AD
:101580001F910F91FF90EF90DF900895EF92FF92DF
:101590000F931F93CF93DF938C017B0140E065E5B0
:1015A0000E94920AE70188E0E80EF11C699140E090
:1015B000C8010E94920ACE15DF05C1F7DF91CF91D5
:1015C0001F910F91FF90EF900895FC019081018091
:1015D000F281E02DF8948181292F20958223818347
:1015E00078943DE743E050E0315029F1DA0111975A
:1015F000F1F780818923C1F3F89482818223828369
:101600008181892B81837894ABE7B7E01197F1F75B
:10161000F894818182238183A3E1B1E01197F1F7EE
:101620008081982381E009F080E07894E3E6F6E099
:101630003197F1F7089580E00895AF92BF92CF926D
:10164000DF92EF92FF920F931F93CF93DF93EC0102
:101650008B0180911406909115060E94E50A88235B
:10166000A1F1BE0180911406909115060E94C60A50
:1016700040E06EEB80911406909115060E94920A4C
:10168000E801680189E0C80ED11CA0901406B09052
:10169000150688E0E82EF12C10E001E0C5010E945B
:1016A0003F0A8111102B000F81E0E81AF108B1F711
:1016B0001993CC15DD0549F7809114069091150614
:1016C0000E94E50A91E0813009F090E0892FDF91D6
:1016D000CF911F910F91FF90EF90DF90CF90BF902F
:1016E000AF900895CF93DF93CDB7DEB729970FB6AC
:1016F000F894DEBF0FBECDBFBE016F5F7F4F0E946B
:101700001D0B811102C080E017C068E0CE01019678
:101710000E94330A99858913F6CF8D818F33A9F002
:1017200020F48F3181F789E007C08F3521F08F37A2
:1017300051F78CE001C08BE029960FB6F894DEBF1C
:101740000FBECDBFDF91CF9108958AE0F5CFCF9343
:10175000CFB7F89480911204811127C0EEE9F2E02E
:101760008491E2EBF2E09491E82FF0E0EE0FFF1F9E
:10177000EE59FD4FA591B491EC91E92321F461E07C
:101780008AE00E94230561E08AE00E9483058CB50F
:1017900080618CBD8CB580648CBD61E08DE00E9461
:1017A000830561E08BE00E948305809112048F5FC6
:1017B00080931204CFBFCF910895CF93DF93EC01B4
:1017C00061E08A810E94230589858CBD8A858DBD53
:1017D00080916104811101C07894DF91CF910895C7
:1017E000FC01F8948CB581878DB582878CB5837F99
:1017F0008CBD8CB58F7D8CBD8CB58C7F8CBD8DB533
:101800008E7F8DBD60E082810C942305F894209139
:101810006706233071F420911104222351F0DC017A
:10182000ED91FC910488F589E02D61E0099581E056
:10183000089520916706233019F4789480E0089584
:10184000DC01ED91FC910288F389E02D0995F6CF3A
:101850003F924F925F926F927F928F929F92AF9240
:10186000BF92CF92DF92EF92FF920F931F93CF938D
:10187000DF93EC01162F5A01922E802E312CCE2CA4
:10188000D12CF12CE12C61E070E080E090E00E942E
:10189000E405E881F9810190F081E02D01E0292D36
:1018A000A501612FCE0109950E9417062B013C016D
:1018B0000E94170664197509860997096C157D053C
:1018C0008E059F0528F5E881F9810480F581E02DDA
:1018D000CE010995882361F390910F04191711F037
:1018E0001F3F31F790910C04992311F3DF91CF91B1
:1018F0001F910F91FF90EF90DF90CF90BF90AF902E
:101900009F908F907F906F905F904F903F90089541
:101910003394831408F0B7CF80E0E8CFCF93DF9300
:10192000C0E1D7E261E085E00E94230560E085E048
:101930000E9423052197B1F7DF91CF9108950FB64B
:10194000F894A8958091600088618093600010925F
:1019500060000FBE0895282FEDE6F0E0883050F0CB
:10196000EBE6F0E08E3030F0ECE6F0E0863110F09F
:10197000F0E0E0E03081422F50E0283078F481E060
:1019800090E0A0E0B0E004C0880F991FAA1FBB1F21
:101990002A95D2F780958323808308952E3070F4A2
:1019A0004850510981E090E0A0E0B0E004C0880F09
:1019B000991FAA1FBB1F4A95D2F7ECCF4E50510971
:1019C000F1CFEDE6F0E0883050F0EBE6F0E08E305D
:1019D00030F0ECE6F0E0863110F0F0E0E0E09081ED
:1019E000282F30E0883010F541E050E060E070E0F2
:1019F000082E04C0440F551F661F771F0A94D2F7A4
:101A0000492B40839BB3883020F121E08E3008F4CD
:101A100020E081E001C0880F2A95EAF7982B9BBB54
:101A200090916800892B8093680008958E3070F43F
:101A30002850310941E050E060E070E004C0440FFC
:101A4000551F661F771F2A95D2F7DACF2E5031091E
:101A5000F1CF84E0E3CFCF93DF93662309F4A6C0F0
:101A6000D091C8038091C703D81709F48BC080E0D8
:101A70000E94AB0C81E00E94AB0C60E080E00E9411
:101A8000230560E081E00E9423058091B60480FF79
:101A900004C060E081E00E94830565E070E080E0C2
:101AA00090E00E94E40580E00E94FA04892B29F46A
:101AB000C0E08C2FDF91CF91089581E00E94FA045D
:101AC000892BB1F3CCE361E080E00E94830565E0FF
:101AD00070E080E090E00E94E40561E081E00E9417
:101AE000830564E170E080E090E00E94E40560E03E
:101AF00080E00E94830565E070E080E090E00E9455
:101B0000E40560E081E00E94830564E170E080E02C
:101B100090E00E94E405C150B1F66AE070E080E018
:101B200090E00E94E405DC1751F161E081E00E9441
:101B3000830565E070E080E090E00E94E40561E0EC
:101B400080E00E94830564E170E080E090E00E9404
:101B5000E40560E081E00E94830565E070E080E0DC
:101B600090E00E94E40560E080E00E94830564E16B
:101B700070E080E090E00E94E405CF5FD4CFD09386
:101B8000C703C1E08091B60480FF04C061E081E03A
:101B90000E94830580917F04882309F48ACF80E026
:101BA0000E94E10C81E00E94E10C83CF1092C703F8
:101BB0008530F8F0880F89508093C8038091B6046F
:101BC00080FF04C060E081E00E94830565E070E072
:101BD00080E090E00E94E40580E00E94FA04892BF6
:101BE00031F081E00E94FA04C1E0892B59F6C0E08F
:101BF000C9CF1092C803E2CFCF92DF92EF92FF924B
:101C00000F931F93CF93DF936C01EB017B01E40EE5
:101C1000F51E10E000E0CE15DF0561F06991D601F8
:101C2000ED91FC910190F081E02DC6010995080F1E
:101C3000191FF1CFC801DF91CF911F910F91FF9034
:101C4000EF90DF90CF9008950895089590E080E0A0
:101C5000089508958EBD00000DB407FEFDCF8EB52A
:101C60000895EF92FF920F931F93CF93DF9390917C
:101C7000ED059F3F41F4DF91CF911F910F91FF90B0
:101C8000EF900C942A0ED82FC0E007E010E0EE246D
:101C9000E394F12CCC0F60E08091ED050E942305C8
:101CA000B701002E01C0660F0A94EAF76D238091F8
:101CB000EB050E94230561E08091ED050E9423055C
:101CC0008091EC050E94FA04892B09F0C160015053
:101CD000110900F78C2FDF91CF911F910F91FF9089
:101CE000EF900895CF93DF93D82FC62F8091EA0508
:101CF0008F3FC9F48091E10591E0909314058093A2
:101D0000360510921505109237056D2F85ED95E07B
:101D10000E94040A6C2F85ED95E00E94040ADF9171
:101D2000CF910C9410038091ED058F3F21F482E553
:101D300091E00E940D0360E08091EA050E94230576
:101D40008D2F8F770E94310E8C2F0E94310E61E013
:101D50008091EA05DF91CF910C9423050F931F9397
:101D6000CF93DF93EC01062F142FE881F981008CCB
:101D7000F18DE02D0995802F80680E942A0E812F19
:101D80000E942A0EE881F981028CF38DE02DCE01AC
:101D9000DF91CF911F910F9109941F93CF93DF9300
:101DA000EC01162F45E561114DE56AE5CE010E9473
:101DB000AE0E40E711114CE76CE5CE01DF91CF91FB
:101DC0001F910C94AE0E1F93CF93DF93EC01162F4F
:101DD000E881F981008CF18DE02D0995812F0E9419
:101DE0002A0E80E00E942A0E182FE881F981028CC9
:101DF000F38DE02DCE010995812FDF91CF911F91B9
:101E00000895CF93DF93EC0168874AE161114FE0B9
:101E100063E1CE010E94AE0E8885882369F061E1FE
:101E2000CE010E94E30E8F71482F406661E1CE0122
:101E3000DF91CF910C94AE0E4F814068F7CFCF93D6
:101E4000DF93EC011092100410920F0410920E0414
:101E50001092110410920D0410920C0410920B04B5
:101E600010920A0468E20E94E30E82FF0AC06DE34A
:101E7000CE010E94E30E482F44606DE3CE010E9424
:101E8000AE0E40E465E2CE010E94AE0EE881F9811B
:101E90000488F589E02D63E0CE01DF91CF910994AC
:101EA000CF93DF93EC01603208F06FE16F83888598
:101EB000882311F066956F8361E1CE010E94E30EE5
:101EC000807E4F81482B61E1CE01DF91CF910C9450
:101ED000AE0E1F93CF93DF9320916706261761F014
:101EE000162FEC01623009F445C050F4662309F462
:101EF00053C0613009F449C0DF91CF911F9108951B
:101F0000633021F16430C1F761E00E94E30E837E0B
:101F1000482F4C6061E0CE010E94AE0E8885882378
:101F200041F0E881F9810688F789E02D61E0CE0172
:101F3000099580916706811106C067E2CE010E9473
:101F4000E30E87FFF6CF10936706D6CF61E00E94BD
:101F5000E30E837E482F406161E0CE010E94AE0E09
:101F60008885882331F3E881F9810688F789E02D97
:101F700060E0DDCF61E00E94E30E837E482F486081
:101F800061E0CE010E94AE0ED4CF61E00E94E30E6C
:101F9000837E482F4460F4CF61E00E94E30E482F17
:101FA000437EEECFEF92FF920F931F93CF93DF9379
:101FB000EC0161E088E696E00E94690F2097C1F08D
:101FC00088E696E00E94F00B8EEB0E942A0E8E01AE
:101FD0007E0180E1E80EF11CF80181918F010E94E1
:101FE0002A0E0E151F05C1F788E696E00E94DD0B4C
:101FF0006DE388E696E00E94E30E8E7F41E0CD2BF4
:1020000009F440E0482B6DE388E696E0DF91CF913C
:102010001F910F91FF90EF900C94AE0ECF92DF9234
:10202000EF92FF920F931F93CF93DF93EC01F62E65
:10203000D42EC52E122FE881F9810488F589E02D70
:1020400061E0099567E2CE010E94E30E87FFFACFB7
:1020500040E065E2CE010E94AE0E1E3308F01DE3A3
:10206000E11027C0002339F100E4E881F981008CF8
:10207000F18DE02DCE01099580E80E942A0E83E0C3
:10208000810F0E942A0E8F2D0E942A0E8D810E94A0
:102090002A0E802F0E942A0E0D2DED2CFC2C8E2D49
:1020A000801B811750F4F70181917F010E942A0E55
:1020B000F6CF00E8DACF00E0D8CFE881F981028CD2
:1020C000F38DE02DCE010995E881F9810488F58929
:1020D000E02D64E0CE0109950E9417066B017C019A
:1020E0008B810E94FA04892B59F40E9417066C19FF
:1020F0007D098E099F09683E73408105910580F333
:10210000E881F9810488F589E02D61E0CE01DF9155
:10211000CF911F910F91FF90EF90DF90CF90099496
:10212000909113059111FCCF91E09093130590933A
:1021300012052FEF2093110510921005260F209302
:102140000F059093EE049091EE04880F892B8093F5
:10215000EE048091ED04813019F51092ED04809128
:10216000EE048093BB008091BC0083FDF8CF85EC2A
:102170008093BC00809113058130E1F380911005BC
:10218000861710F460911005AFEEB4E0EDECF4E0CA
:1021900080E0861307C01092CC048093CB0408958E
:1021A00085EEE6CF9D9191938F5FF3CFCF93C82FAC
:1021B0008091EA058F3FF9F48091E10591E09093D9
:1021C00014058093360510921505109237056C2F73
:1021D00085ED95E00E94040A0E94100361E0809161
:1021E000E1050E94901085ED95E00E948709C82FB7
:1021F0008C2FCF9108958091ED058F3F21F482E5DA
:1022000091E00E940D0360E08091EA050E942305A1
:102210008C2F0E94310E80E00E94310EC82F61E0A9
:102220008091EA050E942305E3CFCF93DF93C82F67
:102230008091EA058F3F49F58091E10591E0909307
:1022400014058093360510921505109237056C2FF2
:1022500085ED95E00E94040A0E94100362E08091DF
:10226000E1050E94901085ED95E00E948709C82F36
:1022700085ED95E00E94870920E03C2FE901C82BFD
:10228000D92BCE01DF91CF9108958091ED058F3F3D
:1022900021F482E591E00E940D0360E08091EA055F
:1022A0000E9423058C2F0E94310E80E00E94310E87
:1022B000C82F80E00E94310EDC2FC82F61E0809192
:1022C000EA050E942305DDCF0E9415119827892772
:1022D00098270895CF93DF9386E78093E105809157
:1022E000EA058F3F09F0A8C00E94510580ED0E94C9
:1022F000D610883519F0803609F0BBC088E80E94F6
:1023000064119093EF058093EE058AE80E946411B2
:102310009093F1058093F0058CE80E9464119093EE
:10232000F3058093F2058EE80E9464119093F50501
:102330008093F40580E90E9464119093F7058093DF
:10234000F60582E90E9464119093F9058093F805DF
:1023500084E90E9464119093FB058093FA0586E955
:102360000E9464119093FD058093FC0588E90E940A
:1023700064119093FF058093FE058AE90E94641121
:1023800090930106809300068CE90E94641190935B
:102390000306809302068EE90E946411909305065D
:1023A0008093040681EA0E94D6108093060681EE8F
:1023B0000E946411909308068093070683EE0E94A2
:1023C000D6108093090684EE0E94D610C82F85EEA1
:1023D0000E94D61090E1C99F900111248F70282B84
:1023E00030930B0620930A0686EE0E94D610C82F63
:1023F00085EE0E94D61090E1C99FE001112490E083
:1024000024E0959587952A95E1F78C2B9D2B909349
:102410000D0680930C0687EE0E94D61080930E0660
:1024200065E082EF0E94720E67EB84EF0E94720EED
:1024300081E0DF91CF91089561E00E94230561E082
:102440008091EA050E9483058091ED058F3F19F484
:102450000E94A70B4BCF61E00E94830561E0809151
:10246000EB050E94830560E08091EC050E948305E6
:102470003DCF80E0DECF8F929F92AF92BF92CF92FE
:10248000DF92EF92FF92F82E8091EA058F3F09F0DC
:102490004CC08091E10591E090931405809336053E
:1024A00010921505109237056F2D85ED95E00E946D
:1024B000040A0E94100363E08091E1050E949010DD
:1024C00085ED95E00E9487094C01990FAA08BB0889
:1024D000BA2CA92C982C882485ED95E00E948709B8
:1024E000092E000CAA0BBB0B882A992AAA2ABB2A00
:1024F000BA2CA92C982C882485ED95E00E94870998
:10250000092E000CAA0BBB0B6C017D01C828D92831
:10251000EA28FB28C701B601FF90EF90DF90CF902B
:10252000BF90AF909F908F9008958091ED058F3F61
:1025300021F482E591E00E940D0360E08091EA05BC
:102540000E9423058F2D0E94310E80E00E94310EE3
:1025500090E0B0E0A0E0CC24D82EE92EFA2E80E066
:102560000E94310EC82AFE2CED2CDC2CCC2480E0FD
:102570000E94310EC82A61E08091EA050E9423057D
:10258000C9CF8F929F92AF92BF92CF92DF92EF927C
:10259000FF920F931F938AEF0E943B12E1EEF5E04A
:1025A0000585168530E020E0C72ED82EE92EFF24C1
:1025B000E7FCFA94C01AD10AE20AF30A57E09595AB
:1025C0008795779567955A95D1F7000F111F221FB0
:1025D000331F4B015C01801A910AA20AB30AA501BC
:1025E0009401A785B0890E94BA344B015C01BBE01D
:1025F000B594A79497948794BA95D1F7A7019601BB
:10260000C701B6010E945D349B01AC011CE05595E9
:102610004795379527951A95D1F7A189B2890E94D8
:10262000BA349B01AC010EE0559547953795279537
:102630000A95D1F7280D391D4A1D5B1D2583368368
:1026400047835087A5E0B0E00E94AF3460587F4FC9
:102650008F4F9F4F672F782F892F992787FD9A9546
:102660000E94F23220E030E048EC52E40E9449320D
:102670001F910F91FF90EF90DF90CF90BF90AF90A0
:102680009F908F900895BF92CF92DF92EF92FF922A
:102690000F931F93CF93DF93EC01B62EC72EED84DB
:1026A000E11004C00E94E50A81110EC01B861D8640
:1026B0001C8680E0DF91CF911F910F91FF90EF90EA
:1026C000DF90CF90BF90089540E060EFCE010E9470
:1026D000920AD12C01E011E0CE010E943F0AF82EAF
:1026E000CE010E943F0A91E0F91218C0813099F59D
:1026F0001134E0F2EB86E11002C081E08D878B811E
:102700008823A1F22396EB2DFC2DCF010896299169
:102710002193E817F907D9F781E0CCCFED2DF0E050
:10272000F8120FC08B851817A0F4DE01AE0FBF1F83
:1027300013968C91802379F4F12C193008F41C87BE
:10274000E12EEC0FFD1F8381902F909589238383C9
:102750000AC08113F1CFFE01ED0DF11D8381802BA5
:102760008383FF24F3946F2DCE010E94630A1F5FC1
:10277000000F11F4D39401E087E08D1508F0ACCF81
:10278000B7CF0F931F93CF93DF938C01D62FE09198
:102790001406F09115061386158614861286118686
:1027A000108617821682158214821382C0E0B80147
:1027B00080911406909115060E944313882329F0F6
:1027C000DC1749F0CF5FDC1790F780E0DF91CF9105
:1027D0001F910F91089567E0C8010E94330AF80124
:1027E00097818913EFCF81E0F1CFEF92FF921F9392
:1027F000CF93DF93EC0180916706833009F098C096
:1028000068E2CE010E94E30E82FF92C0E881F98166
:102810000488F589E02D61E0CE010995E881F98110
:10282000008CF18DE02DCE01099580E00E942A0EEA
:1028300080E00E942A0E8093110480911104833459
:1028400008F046C0809111048093110480E00E943A
:102850002A0E80930E048E81811109C080910E048E
:102860009D81981721F080910E048F3F99F58091FA
:102870001104833078F18091110483508093100407
:1028800080E00E942A0E80930F0480E00E942A0EAE
:10289000982F907890930C04982F907490930D0437
:1028A000E881F9810684F785E02D682FCE0109952E
:1028B00010E080911004181710F5E12EF12C80E043
:1028C0000E942A0EF701E353FC4F80831F5FF1CF74
:1028D00082E4BACF10921104E881F981028CF38D61
:1028E000E02DCE010995E881F9810288F389E02D78
:1028F000CE01DF91CF911F91FF90EF9009948091CD
:1029000010048D3330F4E0911004F0E0E353FC4FF9
:102910001082E881F981028CF38DE02DCE010995BA
:10292000E881F9810488F589E02D63E0CE010995FD
:1029300064E2CE010E94E30E90E0919581959109A9
:102940009595879590930B0480930A04DF91CF911E
:102950001F91FF90EF900895CF93DF93209167062A
:10296000233021F080E0DF91CF9108952091110470
:102970002111F8CFEC0164E20E94E30E90E0919502
:102980008195910980379F4F6CF7E881F981048820
:10299000F589E02D61E0CE01099581E0E4CF4F9209
:1029A0005F926F927F92AF92BF92CF92DF92EF923F
:1029B000FF920F931F93CF93DF93EC015B01F42EF3
:1029C00010920D0410910F04C0900A04D0900B04D3
:1029D0006DE30E94E30E482F44606DE3CE010E9438
:1029E000AE0E0E9417062B013C01CE010E94AC14D2
:1029F000811113C00E941706641975098609970989
:102A0000683E73408105910540F4E881F9810480B6
:102A1000F581E02DCE010995E8CF10930F04E881F0
:102A2000F9810088F189E02DEE24E39400E02F2D58
:102A3000A501612FCE010995D0920B04C0920A0422
:102A4000DF91CF911F910F91FF90EF90DF90CF908A
:102A5000BF90AF907F906F905F904F9008958F924E
:102A60009F92AF92BF92CF92DF92EF92FF920F931D
:102A70001F93CF93DF93EC01162F6A01F22E6DE3C3
:102A80000E94E30E482F44606DE3CE010E94AE0E1B
:102A90000E9417064B015C01CE010E94AC1481110B
:102AA00013C00E941706681979098A099B09683EB4
:102AB00073408105910540F4E881F9810480F58136
:102AC000E02DCE010995E8CFE881F9810088F189F0
:102AD000E02DE12C2F2DA601612FCE010995DF916C
:102AE000CF911F910F91FF90EF90DF90CF90BF900B
:102AF000AF909F908F9008954F925F926F927F92C8
:102B00008F929F92AF92BF92CF92DF92EF92FF92FD
:102B10000F931F93CF93DF93CDB7DEB76E970FB6AA
:102B2000F894DEBF0FBECDBF3C014B01F42E122F37
:102B30006DE370E00E942D2F082FF401019000201A
:102B4000E9F731976F01C818D90811111092BE0327
:102B500016E0F11001C014E00E9417062091BA039C
:102B60003091BB034091BC035091BD03621B730BBA
:102B7000840B950B603D77408105910568F00E94BC
:102B800017066093BA037093BB038093BC039093C2
:102B9000BD0381E0809307018C2D800F9927991F39
:102BA0005C01412E512C840D951DCD970CF03FC139
:102BB0001C2D809107012091BE03882309F49BC03E
:102BC000822F90E0A501480F591F440D551D4D332C
:102BD00051052CF4C11055C0222309F452C0845869
:102BE0009C4F2DE7FC01208364E288E696E00E947A
:102BF000E30E90E091958195910980379F4F14F0F5
:102C000000E021C06091C3042091BE032F5F94E6D1
:102C1000E92E02E04CE753E088E696E00E94280C9B
:102C2000082F811128C00E9417066093BA03709381
:102C3000BB038093BC039093BD031092070188E609
:102C400096E00E94060C802F6E960FB6F894DEBFB9
:102C50000FBECDBFDF91CF911F910F91FF90EF90ED
:102C6000DF90CF90BF90AF909F908F907F906F90AC
:102C70005F904F9008951092BE0388E696E00E9400
:102C8000060C8091BE03282F30E0A20EB31E4A0C22
:102C90005B1C9CE3491651040CF0B2CF112309F4DC
:102CA000BBC0882399F1E1E0E80FE093BE0324580C
:102CB0003C4F8CE2F90180839091BE0381E0890F43
:102CC0008093BE03E92FF0E0E458FC4F22E220831A
:102CD0009095E92FE80FE60DF72DF11D2081A1E079
:102CE000A80FE82FF0E0E458FC4F222309F465C058
:102CF00020838A2FEECFC110C4CF809107012223F9
:102D000009F4BFCF813009F07BCFBBCF91E0909326
:102D1000BE039BE790937C0396E0EBE0F2E0DE01DC
:102D2000599601900D929A95E1F791E0980FE9E19B
:102D3000F0E0EC0FFD1FE80FF11D8081882339F0D2
:102D4000E92FF0E0E458FC4F8083892FEECF909379
:102D5000BE038091780390917903A0917A03B0919A
:102D60007B030196A11DB11D809378039093790395
:102D7000A0937A03B0937B034AE0BE016F5F7F4F5D
:102D80000E94382F2091BE03E22FAE2FA21B81E0BC
:102D900090E08C0F9D1F8A0F911DDC019C9181E0BA
:102DA0008E0FF0E0E458FC4F992319F09083E82F40
:102DB000ECCF8093BE038CE27ECF92E29083E2E080
:102DC000E80FE093BE03B0E0A458BC4F2AE32C9375
:102DD000FF2039F08D5F8093BE03F0E0E458FC4F94
:102DE00090838091BE03F40190E02191A82FA90F58
:102DF000B0E0A458BC4F2C939F5F9117B0F3E82F1D
:102E0000EC0D8F5FF1100AC0E093BE03E091BE03AA
:102E1000F0E0E458FC4F108201E015CFC80EC092DC
:102E2000BE03F0E0E458FC4F82E28083EFCF88E1FC
:102E3000E1E1F2E0DE01119601900D928A95E1F751
:102E400080910701882309F4DBCE6091C3048AEFE7
:102E5000E82E04E028E1AE014F5F5F4F88E696E080
:102E60000E94280CCDCE4F925F926F927F928F92EC
:102E70009F92AF92BF92CF92DF92EF92FF920F9309
:102E80001F93CF93DF93CDB7DEB72B970FB6F89490
:102E9000DEBF0FBECDBF90910101892B8093010150
:102EA0009CEA892E91E0992EF12CE12C5524539423
:102EB00066246394712CF40181914F010E94FA04FD
:102EC0005C0144244394019709F0412CC7018A55C1
:102ED0009B4F6C01FC01808183FF07C0808182FFD2
:102EE00004C0808187FF5092CB0383010E2C02C067
:102EF000000F111F0A94E2F78091C9039091CA0351
:102F0000A8014823592321E0452B09F420E024118E
:102F100005C020910101222309F497C0F601208108
:102F200026FF5FC083E0E9E0F1E0DE011196019049
:102F30000D928A95E1F71D821C824AE0BE01675F0F
:102F40007F4FC7010E94382F42E050E0BE01675F0B
:102F50007F4FCE0101960E9479364AE0BE016A5F3A
:102F60007F4F842D90E00E94382F20E041E0BE0189
:102F70006A5F7F4FCE0101960E947C15882371F015
:102F80008091C9039091CA03F1E0AF16B10419F51D
:102F9000802B912B9093CA038093C9035092CB034B
:102FA00080917F04882371F15092CB0380910101BD
:102FB000811102C0509280048091C9039091CA038C
:102FC000AA94AB2809F06FC0082B192B1093CA03E1
:102FD0000093C9033AC0980120953095822393232A
:102FE000D9CF21E0A216B10439F4802B912B909314
:102FF000CA038093C903D4CF9801209530958223CA
:103000009323F5CFF40131978081F601AA94AB2880
:1030100009F040C0908193FF3AC00E94E10CF60194
:10302000808187FF12C0F701EE0FFF1FEE0FFF1F19
:10303000ED59FB4F80819181A281B3810196A11D41
:10304000B11D80839183A283B3832FEFE21AF20A2A
:1030500087E0E816F10409F02ECF1092010180E01C
:103060002B960FB6F894DEBF0FBECDBFDF91CF9188
:103070001F910F91FF90EF90DF90CF90BF90AF9096
:103080009F908F907F906F905F904F9008950E94D7
:10309000AB0CC5CF908192FF03C00E94E10CD5CF4D
:1030A0000E94AB0CD2CF00951095082319238ECF28
:1030B000DF92EF92FF920F931F93CF93DF93C82F6E
:1030C0001092CC031092CB030E949F0C8091BA0403
:1030D00083FF04C060E086E00E9423058091BA046B
:1030E00082FD04C060E086E00E9423058091B50463
:1030F00082FF08C084EF0E94D610682F6C7F84EF97
:103100000E94720E8091BA0485FF07C021E040E062
:103110006DE572E0CB010E947C158091B60484FDC0
:1031200004C08091B60483FF0DC08091BA0484FD71
:1031300009C08091BA0487FD05C061E084E396E090
:103140000E942B06D0907C0010927C00E0907A00C8
:1031500010927A00F0906400109264008091BC0498
:103160008F3F21F48091BB048F3F59F088E190E0BC
:1031700021E60FB6F894A895809360000FBE2093C7
:103180006000CC2309F468C0C091BC048091BB04EA
:10319000C89FE001112421970091BC048091BB04D9
:1031A000089F8001112460E088E696E00E94690F84
:1031B000C017D10708F053C08091BA0481FF0EC038
:1031C0008091BA0482FF0AC061E086E00E94230574
:1031D0000E948E0C60E086E00E94230583B7817F09
:1031E000846083BF83B7816083BF789483B7816035
:1031F00083BF889583B78E7F83BFC430D105A9F480
:103200008091B60484FD04C08091B60483FF0DC094
:103210008091BA0487FF09C0F092640061E084E302
:1032200096E00E942B06109264008091B50483FF03
:1032300006C062E370E080E090E00E94E4058091C7
:10324000CB0381110CC08091CC03882319F010921C
:10325000CC0321972196ACCFD0E0C0E09DCF0E9457
:103260009F0CF0926400D0927C00E0927A0081E0A2
:10327000809307018091B50482FF08C084EF0E940B
:10328000D610682F636084EF0E94720E8091BA049A
:1032900080FF04C061E086E00E9423058091B604AF
:1032A00084FD04C08091B60483FF05C060E084E320
:1032B00096E00E942B068091BA0483FF04C061E06F
:1032C00086E00E94230588E199E20FB6F894A8955C
:1032D000809360000FBE90936000DF91CF911F91AB
:1032E0000F91FF90EF90DF900895CF92DF92EF92D1
:1032F000FF921F93CF93DF93CDB7DEB72A970FB618
:10330000F894DEBF0FBECDBF182F8EE480937C00F3
:1033100062E070E080E090E00E94E40580917A0035
:10332000806480937A0080917A0086FDFCCF809142
:10333000780020917900322F282F50E040E06CE394
:1033400074EF80E190E00E9481346901112381F0E3
:103350004AE0BE016F5F7F4FC6010E94382F20E018
:1033600040E0BE016F5F7F4F89E292E00E947C15D2
:10337000C6012A960FB6F894DEBF0FBECDBFDF910F
:10338000CF911F91FF90EF90DF90CF9008952F92F3
:103390003F924F925F926F927F928F929F92AF92E5
:1033A000BF92CF92DF92EF92FF920F931F93CF9332
:1033B000DF93CDB7DEB762970FB6F894DEBF0FBECE
:1033C000CDBF382E3FEBA32E33E0B32E4AE0C42E00
:1033D000D12CCE010B969A8B898B52E2852E912CA3
:1033E00062E0262EF601EA55FB4F7F01808188239B
:1033F00009F4BDC0808182FF07C080910001815027
:1034000009F4D9C08093000183E0EEE0F1E0DE0131
:10341000189601900D928A95E1F7E989FA8923E0DF
:1034200011922A95E9F7F601E455FE4F10814AE022
:10343000BE01625F7F4F812F90E00E94382F42E0F3
:1034400050E0BE01625F7F4FCE0108960E94793640
:103450001E3008F01E5080910601E0E48E9FC001EE
:1034600011241770182B10937C0080917A008064CF
:1034700080937A0080917A0086FDFCCF609178007D
:1034800000917900102F062FF501808191819C0118
:103490008233910510F022533109C29680179107AB
:1034A00030F00217130718F0332009F460C0F5015B
:1034B00011830083F701808180FD28C0808181FD18
:1034C00025C0808183FD22C0808184FD03C080816E
:1034D00082FF1CC080E00E947519BC0190E080E072
:1034E0000E94F03220E030EC4FE754E40E94493271
:1034F0002B013C01B80190E080E00E94F032A30172
:1035000092010E94F0330E94BB328B01F70180814F
:1035100082FF0FC0045F114017FF02C010E000E0FF
:10352000C801880F991F800F911FB4010E946D344C
:103530008B01F701808186FF02C0000F111FF70188
:10354000808187FF04C0000F111F000F111F4AE088
:10355000BE016F5F7F4FC8010E94382F20E040E01E
:10356000BE016F5F7F4FCE0108960E947C15FFEF72
:10357000CF1ADF0A22E0A20EB11C8EE0C816D104D9
:1035800009F030CF62960FB6F894DEBF0FBECDBF04
:10359000DF91CF911F910F91FF90EF90DF90CF902F
:1035A000BF90AF909F908F907F906F905F904F9063
:1035B0003F902F9008952092000161E080E00E94EA
:1035C000830561E080E00E94230560E177E280E00E
:1035D00090E00E94E40560E080E00E94230564EF33
:1035E00071E080E090E00E94E4050ECF2F923F92C0
:1035F0004F925F926F927F928F929F92AF92BF9203
:10360000CF92DF92EF92FF920F931F93CF93DF93AE
:10361000CDB7DEB7CE5ED1090FB6F894DEBF0FBED0
:10362000CDBF88E696E00E94060C782E882309F428
:10363000DFC38091BA0483FF04C061E085E00E948B
:103640002305E0900F0480910A0490910B04F09000
:1036500010040F2D10E0A8016DEC73E0CE018F5522
:103660009F4F0E944A3680910D04882359F0809123
:103670000E048F3F39F040E06DE572E088E696E099
:103680000E94CF1488E696E00E94060C8091C30445
:10369000E812A0C3E1EAF0E0EC0FFD1FE00FF11F1C
:1036A000108200E09E012F553F4F790114E162E244
:1036B0007FE2C7010E945E366C01892B09F4670125
:1036C0006FE570E0C6010E945E367C01802E912C71
:1036D00081E090E08C0F9D1F019F800D911D1124B2
:1036E000E114F10409F481C05701AC18BD0831E0C0
:1036F000A31AB108B6016F5F7F4FA5010E948936FA
:10370000189DC001199D900D1124E1E0F0E0EC0F2F
:10371000FD1F8E0F9F1FA80EB91EF5011082DD241C
:10372000D394D00EFFEFEF1AFF0A62E27FE2C701E7
:103730000E945E365C01009709F455C04C018E185A
:103740009F0821E030E02C0F3D1FD19E200D311D40
:1037500011246901A401B701C9010E948936C80C6E
:10376000D91CF601108272E0672E600E7501FFEF22
:10377000EF1AFF0A62E27FE2C7010E945E360097FD
:1037800081F17C012FEFE21AF20A62E27FE2C701C7
:103790000E945E366C01009721F14C018E189F0843
:1037A000AA24A394B12CAC0EBD1E619EA00CB11C2A
:1037B0001124A401B701C5010E948936A80CB91CC7
:1037C000F501108263E0662E600EFFEFCF1ADF0A6C
:1037D00062E27FE2C6010E945E367C01892B09F419
:1037E0007601062D64CF0D2D62CF44E150E0B60185
:1037F0000E948936212C10E044E1642E2EED30E049
:103800002C0F3D1F2D5F3F4FC351DF4F398328835E
:10381000CD5ED040169D600111246EE272E081E021
:1038200090E08C0F9D1F8C0D9D1D0E946936892B89
:1038300009F08FC0560134E1A30EB11C81E090E085
:103840008C0F9D1FA80EB91EC5010E940F2F7C0171
:103850009FE1E916F1040CF07CC0C6018896E1E016
:10386000F0E0EC0FFD1F8E0F9F1F0E940F2F6701CE
:10387000DD249601205030404901682FC9010E9483
:10388000FF31C4010E94ED31F601EA55FB4F6F0193
:1038900080832091C40430E0A0E1B7E20E94A0340C
:1038A00060939A0470939B0480939C0490939D046E
:1038B0002091BE0430E0A8E8B3E10E94A0346093F8
:1038C00091047093920480939304909394042091B4
:1038D000BD0430E00E94A03460938404709385049A
:1038E000809386049093870483E0E4E1F1E0DE01B5
:1038F000A252BF4F01900D928A95E1F7C351DF4F5D
:10390000E881F981CD5ED04027E011922A95E9F750
:1039100042E050E0B501CE0182529F4F0E947936BD
:10392000F60180814AE0BE0168517F4F90E00E941D
:10393000382F20E040E0BE0168517F4FCE01825217
:103940009F4F0E947C151E5F8CEE8E0D853008F017
:10395000272C169D7001112462E672E081E090E050
:103960008C0F9D1F8E0D9F1D0E946936892BE9F5D6
:1039700083E0E4E1F1E0DE01A252BF4F01900D923D
:103980008A95E1F7C351DF4FE881F981CD5ED040E0
:1039900027E011922A95E9F734E1E30EF11C81E06A
:1039A00090E08C0F9D1FE80EF91E42E050E0B70139
:1039B00083529F4F0E947936C7010E940F2F8A556C
:1039C0009B4FFC0180814AE0BE0168517F4F90E02F
:1039D0000E94382F20E040E0BE0168517F4FCE01A9
:1039E00082529F4F0E947C151E5F169D400111243C
:1039F000CC24C394D12CCC0EDD1EC80CD91C60E3A2
:103A000072E0C6010E946936892B09F046C0F12C8C
:103A1000E12C97012A553B4F5901F90180818823F8
:103A2000A1F183E0E4E1F1E0DE01A252BF4F019099
:103A30000D928A95E1F7CF51DF4F19821882C15E4E
:103A4000D0404AE0BE0168517F4FC7010E94382F25
:103A500044E050E0BE0168517F4FCE0182529F4F3B
:103A60000E947936F50180814AE0BE0168517F4F9E
:103A700090E00E94382F20E041E0BE0168517F4F66
:103A8000CE0182529F4F0E947C15FFEFEF1AFF0A72
:103A90002FE1E216F10409F0BCCF66ED72E0C60139
:103AA0000E946936892B81F5740134E1E30EF11C23
:103AB00081E090E08C0F9D1FE80EF91EC7010E9467
:103AC0000F2F8A559B4FFC01808185FD1092820447
:103AD000F8E28F0E911C21E030E02C0F3D1F820E8A
:103AE000931E65E372E0C4010E946936892B09F0D8
:103AF00031C1C7010E940F2F84559E4F61E0FC0128
:103B000080810E9423051E5F169D70011124882468
:103B10008394912C8C0E9D1E8E0C9F1C67E372E08B
:103B2000C4010E946936892BC1F56701F8E2CF0E06
:103B3000D11C21E030E02C0F3D1FC20ED31E6BE3E1
:103B400072E0C6010E9469362C01570134E1A30ED0
:103B5000B11C81E090E08C0F9D1FA80EB91EC5011D
:103B60000E940F2F825C9E4FFC013080452809F097
:103B700000C161E0832D0E94230564E670E080E0CF
:103B800090E00E94E405C5010E940F2F825C9E4FC9
:103B900060E0FC0180810E94230561E472E0C401C1
:103BA0000E946936892B79F441E150E061E270E0CE
:103BB000C701889621E030E02C0F3D1F820F931F34
:103BC0000E94F531272C6BEC72E0C4010E9469362B
:103BD000892B51F58091B60483FFD6C0670134E18B
:103BE000C30ED11C81E090E08C0F9D1FC80ED91E22
:103BF000C6010E940F2F62E0680F41E552E084E0A9
:103C00000E948508C6010E940F2FA701485D5F4FE3
:103C1000E1E0F0E0EC0FFD1F4E0F5F1F62E0680F68
:103C200084E00E9485081E5F169D70011124CC243B
:103C3000C394D12CCC0EDD1ECE0CDF1C63ED72E0E4
:103C4000C6010E946936892BE1F481E080937F04EC
:103C5000C701889621E030E02C0F3D1F820F931F93
:103C60000E940F2F60E00E942B0D20E041E06EE5E6
:103C700072E0882311F068E672E084E692E00E9428
:103C80007C156BE672E0C6010E946936892B31F51E
:103C90000E941706609388047093890480938A04B5
:103CA00090938B04609188047091890480918A04B8
:103CB00090918B042AE0AE0142525F4F0E94432F45
:103CC00020E040E0BE0162527F4F8EE692E00E940B
:103CD0007C1510928304109282041E5F1F5F0117EF
:103CE00008F098CD222099F020E040E063E772E0F0
:103CF00088E892E00E947C15A89588E199E20FB6C9
:103D0000F894A895809360000FBE90936000809116
:103D1000BA0483FF04C060E085E00E942305872D7C
:103D2000C251DF4F0FB6F894DEBF0FBECDBFDF919B
:103D3000CF911F910F91FF90EF90DF90CF90BF90A8
:103D4000AF909F908F907F906F905F904F903F903B
:103D50002F90089566E672E0C4010E946936892BAF
:103D600009F0D1CEC7010E940F2F84559E4F60E00D
:103D7000C6CE65E372E0C6010E94693661E0892B18
:103D800009F060E0832D07CF8091B60484FF4BCF0C
:103D90006701F4E1CF0ED11C21E030E02C0F3D1F74
:103DA000C20ED31EC6010E940F2F45E452E0682FB9
:103DB00080E00E948508C6010E940F2FA701485D80
:103DC0005F4FE1E0F0E0EC0FFD1F4E0F5F1F682F2B
:103DD00080E027CF6091C3048AEFE82E04E02F2D06
:103DE000AE014F555F4F88E696E00E94280C8FCFBA
:103DF00088E696E00E94060C92CFCF92DF92EF9277
:103E0000FF920F931F93CF93DF931F92CDB7DEB72F
:103E1000C82EDD24D39410E0882349F083E1898300
:103E200082E0D82E10E006C032E0D32E11E081E10E
:103E30008983C12C80910701882369F06091C304B4
:103E40002AEFE22E04E021E0AE014F5F5F4F88E6EB
:103E500096E00E94280CF12CE12C0E94F61A88238F
:103E600011F0F12CE12C61E070E080E090E00E9424
:103E7000E4058FEFE81AF80A83ECE81681E0F8060B
:103E800061F7C1102AC08091BC04811104C08091E7
:103E9000BB04882311F182E1898380910701882383
:103EA00069F06091C3049AEFE92E04E021E0AE01CD
:103EB0004F5F5F4F88E696E00E94280C1F5F1D153C
:103EC00008F4B2CF81E00F90DF91CF911F910F9155
:103ED000FF90EF90DF90CF90089584E1DDCF1F92A7
:103EE0000F920FB60F9211242F933F934F935F932E
:103EF0006F937F938F939F93AF93BF93EF93FF93B2
:103F000088E395E00E944204FF91EF91BF91AF9149
:103F10009F918F917F916F915F914F913F912F91E1
:103F20000F900FBE0F901F9018951F920F920FB613
:103F30000F9211242F938F939F93EF93FF93E09110
:103F40004805F09149058081E0914E05F0914F05BB
:103F500082FD1BC09081809151058F5F8F732091EE
:103F60005205821741F0E0915105F0E0E85CFA4F0C
:103F7000958F80935105FF91EF919F918F912F9194
:103F80000F900FBE0F901F9018958081F4CF1F9255
:103F90000F920FB60F9211242F933F938F939F93FD
:103FA000AF93BF938091570490915804A091590406
:103FB000B0915A043091560423E0230F2D3758F561
:103FC0000196A11DB11D2093560480935704909330
:103FD0005804A0935904B0935A0480915B049091C3
:103FE0005C04A0915D04B0915E040196A11DB11D19
:103FF00080935B0490935C04A0935D04B0935E0493
:10400000BF91AF919F918F913F912F910F900FBED4
:104010000F901F90189526E8230F0296A11DB11D41
:10402000D2CF1F920F920FB60F9211242F933F936E
:104030004F935F936F937F938F939F93AF93BF93B0
:10404000EF93FF93E0910401F09105010995FF9131
:10405000EF91BF91AF919F918F917F916F915F9100
:104060004F913F912F910F900FBE0F901F90189579
:104070001F920F920FB60F9211242F933F934F93DD
:104080005F936F937F938F939F93AF93BF93EF93C0
:10409000FF93E0910201F09103010995FF91EF91E7
:1040A000BF91AF919F918F917F916F915F914F9150
:1040B0003F912F910F900FBE0F901F9018951F9258
:1040C0000F920FB60F9211242F933F934F935F934C
:1040D0006F937F938F939F93AF93BF93EF93FF93D0
:1040E0008091B900887F803609F44AC0F0F58832A3
:1040F00009F4A7C018F5803109F49BC0B8F48823EF
:1041000009F4F9C0883009F494C0FF91EF91BF9190
:10411000AF919F918F917F916F915F914F913F915F
:104120002F910F900FBE0F901F901895883109F4B2
:1041300088C0803251F78093110514C0803409F48F
:104140009DC040F48033B9F38833F9F680931105AC
:1041500085ECB0C0803509F485C0883509F496C077
:10416000883499F60E944709D0CF883909F48CC069
:1041700038F5883729F050F4883611F0803729F661
:1041800083E0809313051092550457C0883809F4D2
:104190007BC0803919F0803809F0B7CF8091550481
:1041A000803208F071C0E091550481E08E0F809359
:1041B00055048091BB00F0E0EB5CFB4F80833DC079
:1041C000803B39F0E0F4803A09F479C0883A09F08C
:1041D0009CCF84E080931305109234041092330432
:1041E000E091C904F091CA040995809133048111CA
:1041F0000FC081E0809333041092130409C0803C07
:1042000009F4A6CF883C09F4A3CF883B09F07DCF01
:10421000E091340481E08E0F80933404F0E0ED5E91
:10422000FB4F80818093BB009091340480913304D4
:1042300029C08091EE048093BB0085EC8093BC0084
:1042400064CF9091100580910F05981758F5E09173
:10425000100581E08E0F80931005F0E0E151FB4FD7
:104260008081E9CFE091100581E08E0F80931005E9
:104270008091BB00F0E0E151FB4F808390911005ED
:1042800080910F059817C8F285E8D8CFE091100506
:1042900081E08E0F809310058091BB00F0E0E1512A
:1042A000FB4F80838091120581115CCF81E0809368
:1042B000ED0484EA8093BC001092130526CF85ECB0
:1042C0008093BC001092130580915504803230F425
:1042D000E0915504F0E0EB5CFB4F108260915504D7
:1042E00070E0E091C704F091C80485E394E009957B
:1042F000109255040ACF1092110534CF1F920F92DD
:104300000FB60F9211248F9383B78E7F83BF8F9147
:104310000F900FBE0F901F9018951F920F920FB61F
:104320000F9211242F933F934F935F936F937F933B
:104330008F939F93AF93BF93CF93EF93FF93F89493
:1043400062E070E080E090E00E94E405789483B73A
:104350008E7F83BFC09107011092070180E00E9409
:10436000331781E080939904C09307018093CC03B5
:10437000FF91EF91CF91BF91AF919F918F917F91DD
:104380006F915F914F913F912F910F900FBE0F90C2
:104390001F9018951F920F920FB60F9211242F9312
:1043A0003F934F935F936F937F938F939F93AF93BD
:1043B000BF93EF93FF930E948D21FF91EF91BF91E7
:1043C000AF919F918F917F916F915F914F913F91AD
:1043D0002F910F900FBE0F901F9018951F920F9264
:1043E0000FB60F9211242F933F934F935F936F93C8
:1043F0007F938F939F93AF93BF93EF93FF930E940D
:104400008D21FF91EF91BF91AF919F918F917F91FE
:104410006F915F914F913F912F910F900FBE0F9031
:104420001F901895CF9310923B0510923A0588EE95
:1044300093E0A0E0B0E080933C0590933D05A0930D
:104440003E05B0933F052FEB31E0309339052093C3
:10445000380525EC30E0309345052093440524ECE5
:1044600030E0309347052093460520EC30E0309350
:1044700049052093480521EC30E030934B0520930B
:104480004A0522EC30E030934D0520934C0526EC94
:1044900030E030934F0520934E0510925105109255
:1044A000520510925305109254051092D80510929F
:1044B000D7058093D9059093DA05A093DB05B093D7
:1044C000DC0581ED91E09093D6058093D5058FEEC4
:1044D00091E0909369068093680688E080936A066D
:1044E00083E080936B0681E080936C06809367067F
:1044F00010926E068FE180936F06109270061092F4
:10450000330610923206109265061092660683EE0C
:1045100091E0909331068093300610923506109208
:1045200034061092450610924806109249068FEF05
:104530008093460680934B06EFE4F6E0CFEFC193FD
:1045400086E0E536F807D9F78BEA96E090933906CE
:104550008093380680EA97E090933B0680933A0672
:104560008EEC99E090933D0680933C068DE898E0B0
:1045700090933F0680933E0630E020E040E069E003
:1045800084E396E00E94AB06C0935A06C0935B0694
:10459000C0935C0660E089E00E948305E1EBF2E0F5
:1045A000E491E0932206EDE9F2E0E491F0E0EE0F11
:1045B000FF1FE657FD4F85919491909324068093B9
:1045C000230610922D0610922F0610922E0610929E
:1045D0002C0610922B0610922A0610922906109291
:1045E00028061092270610922606109225068CE0C7
:1045F00093E0909321068093200682E296E09093C8
:104600001506809314061092130610920F0689E087
:104610008093100681E08093110680931206C09368
:10462000EA05C093EB05C093EC05C093ED05CF916F
:104630000895CF93DF93CDB7DEB7CA56D1090FB631
:10464000F894DEBF0FBECDBF789484B5826084BD80
:1046500084B5816084BD85B5826085BD85B5816086
:1046600085BD80916E00816080936E001092810004
:1046700080918100826080938100809181008160BF
:104680008093810080918000816080938000809180
:10469000B10084608093B1008091B000816080930C
:1046A000B00080917A00846080937A0080917A00D3
:1046B000826080937A0080917A00816080937A0092
:1046C00080917A00806880937A001092C1000E94E5
:1046D0009F0C80E090E00E94ED318F3FC1F500E03B
:1046E00010E060E0C8010E94FF310F5F1F4F20E023
:1046F0000C311207B1F76FEF8AE190E00E94FF31B1
:104700006EEF8BE190E00E94FF3161E08CE190E080
:104710000E94FF3161E08DE190E00E94FF3162E094
:104720008EE190E00E94FF316FEA8FE190E00E94FD
:10473000FF3160E080E290E00E94FF3141E150E013
:1047400061E270E08EE892E00E94F53116C08FE1E0
:1047500090E00E94ED318F3A11F662E08FE00E9406
:10476000830561E070E080E090E00E94E4058FE066
:104770000E94FA04892B09F4B2CF10E000E0C801CE
:10478000805090400E94ED31F801EA55FB4F808344
:104790000F5F1F4F0132110591F7E3E6F4E08FE759
:1047A00094E011921192119211928E179F07C9F7FE
:1047B0002091C40430E0A0E1B7E20E94A0346093ED
:1047C0009A0470939B0480939C0490939D04209181
:1047D000BE0430E0A8E8B3E10E94A03460939104E5
:1047E0007093920480939304909394042091BD0459
:1047F00030E00E94A0346B017C01C0928404D0920E
:104800008504E0928604F09287040E9417066C19D2
:104810007D098E099F0960938804709389048093B1
:104820008A0490938B04CD28CE28CF2809F4E4C0C5
:10483000109282048091C204813031F48091C104CD
:104840008E3F11F41092070161E085E00E9483051C
:1048500061E086E00E94830561E087E00E948305B5
:1048600061E082E00E94830561E087E00E94230509
:1048700061E082E00E94230565E070E080E090E066
:104880000E94E40560E082E00E9423056AE070E097
:1048900080E090E00E94E4053091C2041091C104D0
:1048A000FE0133968CE2DF011D928A95E9F781E0E3
:1048B000898384E08A8322E02B8393E09D832E8387
:1048C0008F8380E4888725E029879A8796E09B87F5
:1048D00093E39C8797E09D8728E02F8729E0298B29
:1048E00029E12B8B22E42C8B45E24D8B8E8B46E20B
:1048F0004F8B988F98E2998F90E19A8F99E29B8FD6
:104900009CED9C8F9EE29D8F98E89E8F9FE29F8FEB
:104910009DE298A390E399A347E34BA340E94CA3FE
:1049200048E34DA32EA32CE32FA32FE828A72DE3C4
:1049300029A722E12AA72FE62BA79CA79FEF9DA7D7
:104940009CE69E87888B3AA361E080916A060E946C
:10495000230561E080916A060E9483050E94A70BEF
:104960000E9417066B017C014AEA6FE288E696E036
:104970000E94AE0E6FE288E696E00E94E30E8A3A4D
:1049800059F00E9417066C197D098E099F09623340
:1049900071058105910540F30E9417066B017C01AA
:1049A00045E56FE288E696E00E94AE0E6FE288E68B
:1049B00096E00E94E30E853559F00E9417066C19A7
:1049C0007D098E099F09623371058105910540F3C8
:1049D00000E0FE0131966F01E02FF0E0EE0FFF1FC7
:1049E000EC0DFD1D60816F3F59F0418188E696E036
:1049F0000E94AE0E0F5FF0CF81E0809382041ACF49
:104A000090E080E00E94D20F6091700688E696E008
:104A10000E94010F61E088E696E00E94690F0E9403
:104A200017064B015C0167E288E696E00E94E30E00
:104A300087FD0BC00E941706681979098A099B092E
:104A4000623371058105910570F30E94170668199C
:104A500079098A099B09623371058105910570F511
:104A60001092610480916C06823098F4E82FF0E097
:104A7000EE0FFF1FEE5FFE4F23EB33E03183208309
:104A8000813009F4A1C1809169008360809369003D
:104A9000E89A88E696E09093600480935F04109310
:104AA0006D0667E00E94E30E182F67E088E696E047
:104AB0000E94E30E1F3F11F0811117C014E160E066
:104AC00087E00E94230564E670E080E090E00E94A9
:104AD000E40561E087E00E94230564E670E080E081
:104AE00090E00E94E405115051F76FE188E696E0EE
:104AF0000E94500F41E150E061E270E0CE018F96DC
:104B00000E94DD31CE018F960E94D20F88E696E09A
:104B10000E94060C8091B00481110BC08091B104F9
:104B2000811107C08091B204811103C08091B30448
:104B30008111109206011CEA812E11E0912E10E0E5
:104B400000E0D401FD904D01F801EA55FB4F5F01F3
:104B5000FAE0FF1661F0D5016C9161708F2D0E9413
:104B60008305F501608162708F2D0E942305D501B8
:104B70008C9182FF03C08F2D0E94E10C0F5F1F4FAD
:104B800007301105F1F68091BA0480FF04C061E09E
:104B900086E00E9423058091B50481FF08C060E093
:104BA00080E00E94830561E081E00E94830580919E
:104BB000B60484FD04C08091B60483FF6FC0E09109
:104BC0003806F091390630E020E040E06AE084E306
:104BD00096E0099588E0F60111928A95E9F7C601F9
:104BE0000E946F0360E084E396E00E942B0660E081
:104BF00084E396E00E942B064091C004E0913806C1
:104C0000F091390630E020E06EE084E396E009950B
:104C10008CEB92E0909341068093400686E0EEE1B3
:104C2000F1E0D60101900D928A95E1F7FE013796E9
:104C300084E0DF011D928A95E9F78091C1044AE082
:104C4000BE01605C7F4F90E00E94382F43E050E04F
:104C5000BE01605C7F4FC6010E947936A60162E00A
:104C600084E00E9485086FE972E0C6010E947236F6
:104C70008091C2044AE0BE01605C7F4F90E00E94D8
:104C8000382F43E050E0BE01605C7F4FC6010E94B8
:104C90007936A60163E084E00E9485088091B9041A
:104CA00080FD16C380E290E00E94ED318111D9C0F1
:104CB00061E080E290E00E94FF3188E199E20FB666
:104CC000F894A895809360000FBE90936000F894CC
:104CD00080E821E030E00FB6F894809361002093E3
:104CE00061000FBE009166006090800070908100AE
:104CF0008090820090906F00A090B000B090B100C2
:104D0000E0907000F090B600109280001092810048
:104D10001092820010926F001092B0001092B100B9
:104D2000109270001092B60066E288E696E00E944B
:104D3000E30E582E45E066E288E696E00E94AE0E4D
:104D40001092700083B5826883BD80E48093B600C2
:104D50008091B60080628093B60081E08093B100BC
:104D60001092B00083B58F7783BD87B3182F117071
:104D700080FFFBCF87E087BB81E08093810080E8E4
:104D80008093660021E837E0112359F1B89BFCCFEE
:104D900023BD37BB809184009091850010FD1FC01A
:104DA000AC014D5F534047305105D8F08115944018
:104DB00090F4809166008F5F80936600109285006A
:104DC000109284001F5FE0CF809169008C60809317
:104DD0006900E99A5ECE809166008150EDCF13BCE8
:104DE000F1CF7894452D66E288E696E00E94AE0EFB
:104DF00060928000709281008092820090926F0099
:104E0000A092B000B092B100E0927000F092B600B3
:104E100087E286BB87E087BB13BC111119C00093E2
:104E2000660080910701882399F081E1EEEEF2E0BF
:104E3000D60101900D928A95E1F76091C304BAEF13
:104E4000EB2E04E021E1A60188E696E00E94280C02
:104E500060E080E290E00E94FF310E949F0C11E030
:104E600018C0809107018823D1F388E1EFEFF2E0C9
:104E7000D60101900D928A95E1F76091C304AAEFE3
:104E8000EA2E04E028E1A60188E696E00E94280CBC
:104E900010E08091B60481FF35C0E0914805F091A3
:104EA000490582E08083E0914405F0914505108238
:104EB000E0914605F09147058FEC808310925005F4
:104EC000E0914C05F0914D0586E08083E0914A0524
:104ED000F0914B05808180618083E0914A05F091DB
:104EE0004B05808188608083E0914A05F0914B05F5
:104EF000808180688083E0914A05F0914B05808134
:104F00008F7D80838091B50482FF1CC00E946A114E
:104F1000811118C0809107018823A1F089E1E7E1A0
:104F2000F3E0D60101900D928A95E1F76091C304F8
:104F3000EAEFEE2E04E029E1A60188E696E00E9461
:104F4000280C10E060E080E290E00E94FF31112325
:104F5000B9F080910701882399F08DE0E0E3F3E058
:104F6000D60101900D928A95E1F76091C3047AEF22
:104F7000E72E04E02DE0A60188E696E00E94280CCA
:104F800060E087E00E942305FE0134966296FFAF41
:104F9000EEAF62978091BA0483FF04C060E087E0BF
:104FA0000E9423058091BA0481FF1FC00E9417064A
:104FB0000091A2041091A3042091A4043091A504AF
:104FC000601B710B820B930B693B7B408105910544
:104FD00060F00E9417066093A2047093A30480936C
:104FE000A4049093A5040E948E0C61E080E00E94CE
:104FF0002B0D0E94170620910801C0909E04D090AE
:105000009F04E090A004F090A1046C197D098E0922
:105010009F09C0909A04D0909B04E0909C04F0906B
:105020009D04C616D706E806F90608F465C12111E5
:1050300065C180E00E94331780E00E94C7190E947A
:1050400017060091910410919204209193043091DD
:105050009404C0909504D0909604E0909704F0904A
:1050600098046C197D098E099F09061717072807F0
:10507000390720F0809190048823B1F0012B022B96
:10508000032B91F00E941706609395047093960489
:10509000809397049093980420E041E06BED72E0D8
:1050A0008BE692E00E947C150E941706E091C104F5
:1050B00000918C0410918D0420918E0430918F0406
:1050C000AB01BC01401B510B620B730B8E2F90E0A8
:1050D00088519C4F092E000CAA0BBB0B8417950717
:1050E000A607B70788F40E94170660938C04709394
:1050F0008D0480938E0490938F0420E040E06DE552
:1051000072E0CB010E947C150E9417060091880472
:105110001091890420918A0430918B04601B710BDB
:10512000820B930B009184041091850420918604D6
:1051300030918704061717072807390748F580912B
:10514000830481110BC020E041E062EE72E08EE644
:1051500092E00E947C1581E08093830410E000E0DF
:10516000F801EA55FB4F808185FF0AC09081F80164
:10517000E455FE4F808161E091FF60E00E942305CD
:105180000F5F1F4F0730110559F781E080938204AC
:1051900080918104811109C080910701882319F051
:1051A00081E00E94FD1E809381048091BC048823CD
:1051B00009F46FC08091BB04882309F46AC0809110
:1051C0008204882309F465C080910701882319F0BF
:1051D00080E00E94FD1E8091B60480FF04C060E064
:1051E00081E00E94830580918004882331F18091C1
:1051F0007F04882311F16AE070E080E090E00E9473
:10520000E4051092800480E00E94FA04892B09F4DE
:10521000CBC581E00E94FA04892B09F4C5C561E081
:1052200087E00E9423056EE170E080E090E00E943C
:10523000E40560E087E00E9423058091B60480FFCA
:1052400004C061E081E00E94830561E080E00E948B
:105250002B0D809182048823E1F08091BA0483FFB2
:1052600004C060E087E00E9423058091BA0420E03A
:1052700040E06DE572E086FFA4C5CB010E947C157D
:10528000182F81E081270E9458181093080110936D
:1052900090048091BC04882321F08091BB0481118B
:1052A00002C00E94F61A8091BA0483FF04C061E034
:1052B00087E00E94230580E090E0892B09F46ACE04
:1052C0000E942E04882309F465CE0E94000062CE5D
:1052D00080910701882309F4C2CD87E1EDE3F3E073
:1052E000D60101900D928A95E1F76091C304FAEF1F
:1052F000EF2E04E027E1C7CD222351F08091B504C1
:1053000080FF06C068EE73E080E090E00E94E40554
:105310000E94170660939E0470939F048093A004DC
:105320009093A1048091BC04882319F081E00E942D
:1053300075198091B50480FF2CC1809162048111A0
:1053400082C0E0911406F091150613861586148626
:105350001286118610861782168215821482138295
:105360001092130601E0BE01615D7F4F809114062B
:10537000909115060E944313882309F45BC067E0EF
:10538000CE018F960E94330A9EA98913ECCF80919B
:105390000F06811128C080911406909115060E9475
:1053A000E50ABE01615D7F4F80911406909115065C
:1053B0000E94C60A40E064EB8091140690911506A5
:1053C0000E94920A80911406909115060E943F0A4D
:1053D000182F80911406909115060E94E50A11116C
:1053E00002C000930F06BE016F5F7F4FCE018F9604
:1053F0000E941D0B109110068FA5803109F4EDC499
:10540000CE018F960E94720B811750F48091100686
:1054100080931006809113068F5F80931306A3CFAD
:105420008FA5803111F48CE0F3CFCE018F960E94CE
:10543000720BEECF81E0809362046CED75E080E04A
:1054400090E00E94E40580911406909115060E9458
:10545000E50A40E06CEC80911406909115060E94DC
:10546000920A40910F0664E480911406909115060B
:105470000E94920A809111068823A1F0E091100603
:10548000E9506EEE72E0E33038F4F0E0EE0FFF1F0B
:10549000EA55FE4F60817181072E000C880B990B35
:1054A0000E94E405F12C4EE0E42E80911306F816DC
:1054B00008F061C083E0E8E2F1E0DE0111960190BE
:1054C0000D928A95E1F76296AEADBFAD6297EE2D73
:1054D0001D92EA95E9F76F2DCE01805C9F4F0E94E7
:1054E000C113811109C460E070E08EEF92EC8E016F
:1054F000015D1F4F21E043E00E94F12E6F2DCE0190
:10550000885B9F4F0E94C113075E1F4FD12CD801AB
:105510008D918D014AE0BE01605C7F4F90E00E945A
:10552000382F43E050E0BE01605C7F4FCE01019612
:105530000E947936B2E0DB1631F065EA72E0CE0106
:1055400001960E945336D394E3E0DE12E0CF20E0D0
:1055500040E0BE01615D7F4FCE0101960E947C1547
:10556000F5E6FF121BC420E040E067EA72E08EE639
:1055700092E00E947C158091130681110AC010925E
:10558000620420E040E063EB72E08EE692E00E946D
:105590007C158091B50481FF08C020E041E063ECF8
:1055A00072E08DEC92E00E947C158091B50482FF40
:1055B00048C30E94C1128E010F5F1F4F21E043E0DC
:1055C0000E94F12E20E040E0B80182ED92E00E94BE
:1055D0007C150E94C11287EF0E943B12AB966CAF04
:1055E0007DAF8EAF9FAFAB978091E6059091E705B9
:1055F000A091E805B091E9056C017D01FF0CCC0894
:10560000DC2C76019C01AD016C2D7C2D8C2D9C2D0C
:10561000345F41405109610971098109910963961B
:105620002FAF639764963FAF649765964FAF6597CA
:1056300066965FAF669767966FAF679768967FAF1E
:10564000689769968FAF69976A969FAF6A97590175
:105650006A017B018C010E94C2346B962FAF6B975D
:105660006C963FAF6C976D964FAF6D97A3965FAFFB
:10567000A397A4966FAFA497A5967FAFA597A6967C
:105680008FAFA697A7969FAFA7973091F705209168
:10569000F605932F990F990B492F592F692F792FC1
:1056A000892F0E94C2340CE00E94BA3519012A01E8
:1056B0003B014C013091F9052091F805932F990F8A
:1056C000990B6B96AFAC6B976C96BFAC6C976D9665
:1056D000CFAC6D97A396DFACA397A496EFACA4973D
:1056E000A596FFACA597A6960FADA697A7961FAD5A
:1056F000A797492F592F692F792F892F0E94C234DC
:1057000008E00E94D33551016201730184010E94B7
:10571000F03570588F4F9F4F2090F4053090F5056D
:105720005101C12CD12CE12CF12C00E010E00E94A1
:10573000C23401E20E94D3356E962FAF6E976F96FA
:105740003FAF6F97A0964FAFA097A1965FAFA1977D
:10575000A2966FAFA297272E382E492EA0E00E9466
:10576000023609F41DC33091FF052091FE05932FE9
:10577000990F990B6B96AFAC6B976C96BFAC6C970F
:105780006D96CFAC6D97A396DFACA397A496EFACC4
:10579000A497A596FFACA597A6960FADA697A7963A
:1057A0001FADA797492F592F692F792F892F0E9455
:1057B000C2346B962FAF6B976C963FAF6C976D961C
:1057C0004FAF6D97552E3B014C013091FD05209157
:1057D000FC05932F990F990B6396AFAC6397649672
:1057E000BFAC64976596CFAC65976696DFAC66975D
:1057F0006796EFAC67976896FFAC689769960FADB0
:1058000069976A961FAD6A97492F592F692F792F8B
:10581000892F0E94C23401E10E94BA356B96AFAC69
:105820006B976C96BFAC6C976D96CFAC6D97D52C83
:10583000730184010E94F03559016A017B01582EE1
:10584000192FAB968CAD9DADAEADBFADAB97F4E06F
:10585000B595A79597958795FA95D1F720E030E013
:1058600040E150E0281B390B4A0B5B0B39014A0120
:10587000990C6608762C4301662D762D862D962D83
:105880000FE10E94BA3539014A01B62FA72FF82F30
:10589000E92F3091FB052091FA05932F990F990B71
:1058A000492F592F692F792F892F03E20E94BA358A
:1058B000052D0E94F03559016A017B018C0193018D
:1058C000A4016B2F7A2F8F2F9E2F0E94F935E5E3CD
:1058D000AE2EFCE0BF2EC12CD12CE12CF12C00E02F
:1058E00010E00E94C2346E96AFAC6E976F96BFAC5C
:1058F0006F97A096CFACA097A196DFACA197A29688
:10590000EFACA297F22C032D142D0E941C35639648
:105910002FAF639764963FAF649765964FAF6597D7
:1059200066965FAF669767966FAF679768967FAF2B
:10593000689769968FAF69976A969FAF6A970DE0EF
:105940000E94D335922E832E742E652E562E472E0E
:10595000382E292E3091050620910406932F990F99
:10596000990BA92CB82CC72CD62CE52CF42C032D84
:10597000122D492F592F692F792F892F0E94C23458
:105980000E94C23409E10E94D3356396AFAC63979D
:105990006496BFAC64976596CFAC65976696DFACAE
:1059A00066976796EFAC67976896FFAC68976996BD
:1059B0000FAD69976A961FAD6A970E94F03519017D
:1059C0002A013B014C013091030620910206932FDE
:1059D000990F990B492F592F692F792F892F0E94E1
:1059E000C23403E10E94D33559016A017B018C0165
:1059F0009101A201B301C4010E94F03508E00E94A8
:105A0000D33559016A017B01E82F192F3091010626
:105A100020910006932F990F990B492F592F692F29
:105A2000792F892F04E00E94BA350E2F0E94F0359D
:105A30000E94EA3220E030E040E85BE30E94F0336D
:105A400020E030E048EC52E40E9449326B017C01D6
:105A500020E030E0A9010E944432811102C00E947E
:105A60006A118E010F5F1F4F21E043E0C701B601AD
:105A70000E94F12E20E040E0B80185ED92E00E9406
:105A80007C150E94C1128DEF0E9415114090E60511
:105A90005090E7056090E8057090E9053CE2531AE4
:105AA00031E0630A7108B0E0A0E06C017D013EE0E6
:105AB000CC0CDD1CEE1CFF1C3A95D1F740910A0678
:105AC00050910B06052E000C660B770BE4E1440F9A
:105AD000551F661F771FEA95D1F7C41AD50AE60A43
