:100000000C94E0020C94E21A0C94BB1A0C94100AA3
:100010000C94D3090C9496090C94D4040C94080302
:100020000C9408030C9408030C9408030C94080324
:100030000C9408030C9408030C9408030C94080314
:100040000C94711A0C9408030C94FA180C94D4189C
:100050000C9408030C9408030C9408030C940803F4
:100060000C94ED100C94080300407A10F35A00A091
:10007000724E18090010A5D4E80000E87648170071
:1000800000E40B54020000CA9A3B000000E1F505B1
:10009000000080969800000040420F000000A086FB
:1000A00001000000102700000000E803000000002D
:1000B0006400000000000A000000000001000000D1
:1000C00000002C76D888DC674F0823DFC1DFAE59EB
:1000D000E1B1B796E5E3E453C63AE651997696E87E
:1000E000E6C28426EB898C9B62ED407C6FFCEFBC02
:1000F0009C9F40F2BAA56FA5F490055A2AF75C932D
:100100006B6CF9676DC11BFCE0E40D47FEF520E662
:10011000B500D0ED902E0300943577050080841E45
:10012000080000204E0A000000C80C333333330FA0
:10013000986E12831141EF8D2114893BE65516CF3D
:10014000FEE6DB18D1844B381BF77C1D901DA4BB49
:10015000E424203284725E228100C9F124ECA1E5FE
:100160003D27207F000000000000000000065F5FC8
:10017000060000000007070007070000147F7F1437
:100180007F7F1400242E6B6B3A12000046663018F5
:100190000C666200307A4F5D377A4800040703002E
:1001A00000000000001C3E63410000000041633E6F
:1001B0001C000000082A3E1C1C3E2A0808083E3E7F
:1001C000080800000080E06000000000080808083F
:1001D0000808000000006060000000006030180C9B
:1001E000060301003E7F71594D7F3E0040427F7FF4
:1001F00040400000627359494F660000226349493C
:100200007F360000181C16537F7F50002767454536
:100210007D3900003C7E4B49793000000303717941
:100220000F070000367F49497F360000064F4969B5
:100230003F1E0000000066660000000000407636A9
:1002400000000000081C3663410000002424242420
:1002500024240000004163361C08000002035159A9
:100260000F0600003E7F415D5D1F1E007C7E131364
:100270007E7C0000417F7F49497F36001C3E634100
:1002800041632200417F7F41633E1C00417F7F49E3
:100290005D416300417F7F491D0103001C3E6341B6
:1002A000517372007F7F08087F7F000000417F7FCD
:1002B00041000000307040417F3F0100417F7F08D6
:1002C0001C776300417F7F41406070007F7F0E1C80
:1002D0000E7F7F007F7F060C187F7F001C3E6341EE
:1002E000633E1C00417F7F49090F06001E3F2171BC
:1002F0007F5E0000417F7F09197F660022674D59AC
:100300007322000003417F7F410300007F7F404054
:100310007F7F00001F3F60603F1F00007F7F30181D
:10032000307F7F0043673C183C674300074F787875
:100330004F070000476371594D677300007F7F418D
:10034000410000000103060C183060000041417FAD
:100350007F000000080C0603060C080080808080E7
:100360008080808000000307040000002074545443
:100370003C784000417F3F4848783000387C444416
:100380006C280000307848493F7F4000387C545446
:100390005C180000487E7F490302000098BCA4A4BA
:1003A000F87C0400417F7F08047C780000447D7D58
:1003B0004000000060E08080FD7D0000417F7F10F4
:1003C000386C440000417F7F400000007C7C18387E
:1003D0001C7C78007C7C04047C780000387C4444DD
:1003E0007C38000084FCF8A4243C1800183C24A4A9
:1003F000F8FC8400447C784C041C1800485C54547D
:100400007424000000043E7F442400003C7C4040F3
:100410003C7C40001C3C60603C1C00003C7C703814
:10042000707C3C00446C3810386C44009CBCA0A02C
:10043000FC7C00004C64745C4C64000008083E774F
:100440004141000000000077770000004141773E05
:1004500008080000020301030203010070784C4603
:100460004C78700000000000240027002A000000E3
:100470000000250028002B000000000800020100F9
:10048000000304070000000000000000000000005E
:1004900023002600290004040404040404040202C6
:1004A00002020202030303030303010204081020F3
:1004B0004080010204081020010204081020005EA0
:1004C000BCE2613FDD83C29C7E20A3FD1F419DC332
:1004D000217FFCA2401E5F01E3BD3E6082DC237DE4
:1004E0009FC1421CFEA0E1BF5D0380DE3C62BEE016
:1004F000025CDF81633D7C22C09E1D43A1FF461844
:10050000FAA427799BC584DA3866E5BB5907DB85F1
:100510006739BAE406581947A5FB7826C49A653BA3
:10052000D987045AB8E6A7F91B45C6987A24F8A6D5
:10053000441A99C7257B3A6486D85B05E7B98CD203
:10054000306EEDB3510F4E10F2AC2F7193CD114FB1
:10055000ADF3702ECC92D38D6F31B2EC0E50AFF163
:10056000134DCE90722C6D33D18F0C52B0EE326C95
:100570008ED0530DEFB1F0AE4C1291CF2D73CA94C3
:100580007628ABF517490856B4EA6937D58B570971
:10059000EBB536688AD495CB2977F4AA4816E9B723
:1005A000550B88D6346A2B7597C94A14F6A8742A55
:1005B000C896154BA9F7B6E80A54D7896B35C72DED
:1005C00011241FBECFEFD8E0DEBFCDBF12E0A0E008
:1005D000B1E0EAE3FDE602C005900D92A43EB1074A
:1005E000D9F725E0A4EEB2E001C01D92A53FB20705
:1005F000E1F712E0C0EED2E004C02197FE010E94B4
:100600003E36CF3DD107C9F70E9466210C949B3638
:100610000C9400000895282F883038F08E3040F078
:10062000863148F4ECE6F0E008C0EDE6F0E005C005
:10063000EBE6F0E002C0E0E0F0E03081283060F46A
:1006400081E090E0A0E0B0E004C0880F991FAA1FED
:10065000BB1F2A95D2F715C0822F90E0AC012E3037
:1006600018F44850510902C04E50510981E090E001
:10067000A0E0B0E004C0880F991FAA1FBB1F4A95D5
:10068000D2F78095832380830895CF92DF92EF92F3
:10069000FF920F931F93CF93DF936C01EB017B01CC
:1006A000E40EF51E00E010E0CE15DF0561F0699163
:1006B000D601ED91FC910190F081E02DC6010995E4
:1006C000080F191FF1CFC801DF91CF911F910F9132
:1006D000FF90EF90DF90CF900895089580E090E034
:1006E00008953F924F925F926F927F928F929F9266
:1006F000AF92BF92CF92DF92EF92FF920F931F9330
:10070000CF93DF93EC01162F5A01922E302E812CBD
:10071000CE2CD12CE12CF12C61E070E080E090E057
:100720000E94C119E881F9810190F081E02D01E07A
:10073000292DA501612FCE0109950E94651A2B0173
:100740003C010E94651ADC01CB0184199509A609B8
:10075000B7098C159D05AE05BF05A0F4E881F981A8
:100760000480F581E02DCE010995882351F3909105
:10077000F903911711F01F3F21F79091F6039111A2
:1007800005C0DFCF8394381438F680E0DF91CF9135
:100790001F910F91FF90EF90DF90CF90BF90AF909F
:1007A0009F908F907F906F905F904F903F900895B3
:1007B000CF93DF93EC01603208F06FE16F8388859F
:1007C000882311F066956F8361E1CE010E943E138C
:1007D000807E9F81482F492B61E1CE01DF91CF912F
:1007E0000C94FC121F93CF93DF932091DB056217CB
:1007F00009F45DC0162FEC016230E9F168F466235C
:1008000009F440C0613009F052C061E00E943E131B
:10081000837E482F44603BC06330B9F0643009F0F8
:1008200046C061E00E943E13837E482F4C6061E029
:10083000CE010E94FC128885882369F1E881F98144
:100840000688F789E02D61E013C061E00E943E1345
:10085000837E482F406161E0CE010E94FC128885B2
:100860008823C9F0E881F9810688F789E02D60E0E6
:10087000CE01099510C061E00E943E13837E482F8F
:10088000486005C061E00E943E13482F437E61E04E
:10089000CE010E94FC128091DB05811106C067E247
:1008A000CE010E943E1387FFF6CF1093DB05DF9148
:1008B000CF911F910895CF93DF932091DB052330D3
:1008C000C9F42091FB03211115C0EC0164E20E94E0
:1008D0003E1390E09195819591098C349F4F54F48B
:1008E000E881F9810488F589E02D61E0CE01099560
:1008F00081E001C080E0DF91CF9108958F929F92B7
:10090000AF92BF92CF92DF92EF92FF920F931F931D
:10091000CF93DF93EC01162F6A01F22E6DE30E9454
:100920003E13482F44606DE3CE010E94FC120E94EA
:10093000651A4B015C01CE010E945B048823C1F063
:10094000E881F9810088F189E02DE12C2F2DA601A5
:10095000612FCE010995DF91CF911F910F91FF90EB
:10096000EF90DF90CF90BF90AF909F908F900895C1
:100970000E94651ADC01CB0188199909AA09BB09F3
:10098000883E9340A105B105D8F6E881F98104803D
:10099000F581E02DCE010995CECF8EBD00000DB4BE
:1009A00007FEFDCF8EB508951F920F920FB60F92DE
:1009B00011248F9383B78E7F83BF8F910F900FBECB
:1009C0000F901F901895CF93DF93C0E1D7E261E0BD
:1009D00085E00E94551960E085E00E945519219735
:1009E000B1F7DF91CF9108953F924F925F926F924E
:1009F0007F928F929F92AF92BF92CF92DF92EF92AF
:100A0000FF920F931F93CF93DF93CDB7DEB76F970E
:100A10000FB6F894DEBF0FBECDBF2C013B01342EC4
:100A20006DE370E02F8F0E94052FF82EF3010190E7
:100A30000020E9F731976F01C618D7082F8D2111D3
:100A400010924F03311002C014E001C016E00E9462
:100A5000651A80904B0390904C03A0904D03B0908A
:100A60004E03DC01CB0188199909AA09BB09803121
:100A70009742A105B10568F00E94651A60934B0387
:100A800070934C0380934D0390934E0381E08093C9
:100A90000601460199248F0C911CA12EB12CC40192
:100AA0008A0D9B1DCD970CF031C1FC2C8091060165
:100AB00020914F03882309F451C0822F90E0A401B4
:100AC000480F591F4A0D5B1D4D3351052CF4C110C1
:100AD0004EC0222309F44BC0FC01E35FFC4F3DE70D
:100AE0003083609199032F5F93E2E92E05E04DE09A
:100AF00053E08CED95E00E94710381112CC0609150
:100B0000970370E080E090E00E94C23226E636E66D
:100B100046EA5FE30E94C0330E948B320E94C119F3
:100B20006091990320914F032F5F4DE053E08CEDCE
:100B300095E00E947103182F81110DC00E94651A63
:100B400060934B0370934C0380934D0390934E033B
:100B500010920601F8C010924F0309C0C11007C0DF
:100B600080910601222319F0813008F4E9C08091B8
:100B70004F03E82FF0E08E0E9F1EA80CB91C9CE3DB
:100B8000A916B1040CF0DCC0FF2009F4DBC0E35F60
:100B9000FC4F882331F08F5F80934F038CE280837A
:100BA0005BC081E080934F038BE7808386E0E9EDB3
:100BB000F1E0DE01599601900D928A95E1F72091BE
:100BC0004F0380E0E82FE20FA9E1B0E0AC0FBD1FBA
:100BD000A80FB11D9C91992331F0F0E0E35FFC4F29
:100BE00090838F5FEFCFE0934F0380910903909143
:100BF0000A03A0910B03B0910C030196A11DB11D36
:100C00008093090390930A03A0930B03B0930C0302
:100C10004AE0BE016F5F7F4F0E94102F50914F033B
:100C200030E0232F250FE1E0F0E0EC0FFD1FE30F94
:100C3000F11D4081822F90E0442331F0FC01E35FFD
:100C4000FC4F40833F5FEDCF2F5F20934F03FC01AC
:100C5000E35FFC4F2CE22083E0914F0351E05E0FF5
:100C600050934F03F0E0E35FFC4F82E2808390E01B
:100C7000892F850FF201E90FF11D4081282F30E007
:100C8000F901E35FFC4F442319F040839F5FF0CFED
:100C900092E29083E2E0E80FE0934F03A1E0A80F17
:100CA000B0E0A35FBC4F2AE32C93332039F08D5F73
:100CB00080934F03F0E0E35FFC4F908350914F032C
:100CC000262DD301452F4619842F8A0F90E03D91A0
:100CD000835F9C4FFC0130838A2F821B8F15A0F30A
:100CE000C50EC0924F03332051F081E08C0D8093EC
:100CF0004F03EC2DF0E0E35FFC4F82E28083E09154
:100D00004F03F0E0E35FFC4F10821CC088E1EFED81
:100D1000F1E0DE01119601900D928A95E1F7809144
:100D20000601882369F06091990383E2E82E05E0CB
:100D300028E1AE014F5F5F4F8CED95E00E9471039B
:100D400010E001C011E0812F6F960FB6F894DEBF5E
:100D50000FBECDBFDF91CF911F910F91FF90EF900C
:100D6000DF90CF90BF90AF909F908F907F906F90CB
:100D70005F904F903F900895CF92DF92EF92FF9255
:100D80001F93CF93DF93CDB7DEB72A970FB6F894B2
:100D9000DEBF0FBECDBF182F8EE480937C0062E0D3
:100DA00070E080E090E00E94C11990917A00906418
:100DB00090937A0080917A0086FDFCCF2091780094
:100DC0008091790030E0382B40E050E06CE374EF24
:100DD00080E190E00E94513469017A01112381F091
:100DE0004AE0BE016F5F7F4FC6010E94102F20E0D6
:100DF00040E0BE016F5F7F4F87EF91E00E94F404F7
:100E0000C6012A960FB6F894DEBF0FBECDBFDF91A4
:100E1000CF911F91FF90EF90DF90CF90089584B70E
:100E2000877F84BFE0E6F0E0808188618083108264
:100E30000895FF920F931F93CF93DF93C82F1092C3
:100E400054038091900383FF04C060E086E00E9419
:100E500055198091900382FD04C060E086E00E94F5
:100E6000551960E08CED95E00E94F20380918B03B0
:100E700082FF08C084EF0E945F1D682F6C7F84EFA3
:100E80000E94CF1C8091900385FF07C021E040E0C5
:100E90006BE272E0CB010E94F40480918C0384FD2C
:100EA00004C080918C0383FF09C08091900384FD6E
:100EB00005C061E088EA95E00E94091B10917C0062
:100EC00010927C0000917A0010927A00F0906400F9
:100ED00010926400809192038F3F09F076C0809158
:100EE00091038F3F09F071C0CC2349F080919203A8
:100EF000C09191038C9FE0011124219722C0C0E092
:100F0000D0E01FC08091900381FD26C083B7817F10
:100F1000846083BF83B7816083BF789483B7816027
:100F200083BF889583B78E7F83BF809153038111E0
:100F300018C080915403882319F01092540321970C
:100F400021968091920390919103899FC001112471
:100F5000C817D907B8F205C08091900382FD41C03F
:100F6000D5CF0E940F07F092640010937C0000938D
:100F70007A0081E08093060180918B0382FF08C094
:100F800084EF0E945F1D682F636084EF0E94CF1C76
:100F90008091900380FF04C061E086E00E945519B3
:100FA00080918C0384FD28C080918C0383FD24C034
:100FB0008091900383FF26C061E086E0DF91CF91AE
:100FC0001F910F91FF900C94551991E628E130E0A4
:100FD0000FB6F894A895209360000FBE9093600020
:100FE00083CF61E086E00E9455190E94E30460E02F
:100FF00086E00E9455198ACF60E088EA95E00E9459
:10100000091BD6CFDF91CF911F910F91FF900895CB
:10101000883038F08E3040F0863148F4ECE6F0E06D
:1010200008C0EDE6F0E005C0EBE6F0E002C0E0E06D
:10103000F0E09081883068F441E050E060E070E0DA
:10104000082E04C0440F551F661F771F0A94D2F75D
:1010500014C0282F30E08E3018F42850310902C017
:101060002E50310941E050E060E070E004C0440FD0
:10107000551F661F771F2A95D2F7492B40832BB344
:10108000883050F031E08E3008F430E091E001C05B
:10109000990F3A95EAF701C094E0922B9BBB90918F
:1010A0006800883050F021E08E3008F420E081E0C4
:1010B00001C0880F2A95EAF701C084E0892B80934C
:1010C000680008952F923F924F925F926F927F92A5
:1010D0008F929F92AF92BF92CF92DF92EF92FF9248
:1010E0000F931F93CF93DF93CDB7DEB72C970FB637
:1010F000F894DEBF0FBECDBF90910001892B809385
:10110000000185E1E82E81E0F82E98E5892E93E034
:10111000992E00E010E0AA24A394B12C30E7232EEE
:101120003FE5332E412C512CF70180810E942C1970
:1011300031E0019709F030E0C80184589C4F6C0100
:10114000FC01808183FF06C0808182FF03C0808113
:1011500087FFB4C0632E712C80915203482F50E05A
:10116000002E02C0559547950A94E2F74170552725
:101170006416750629F490910001992309F476C04C
:10118000F601908196FF45C029823A824B825C82AB
:101190001D824AE0BE01675F7F4FC8013C870E9405
:1011A000102F42E050E0BE01675F7F4FCE010196F5
:1011B0000E947C364AE0BE016A5F7F4FC3010E94F5
:1011C000102F20E041E0BE016A5F7F4FCE01019603
:1011D0000E94F4043C858823C1F0209152033323FC
:1011E00051F0A501002E01C0440F0A94EAF7422BEA
:1011F000409352030AC0C501002E01C0880F0A9413
:10120000EAF78095822380935203F1E0F093530331
:101210000EC0A501002E01C0440F0A94EAF7332343
:1012200011F0842B02C04095842380935203809157
:101230007403811158C0332309F448C0F60180813A
:10124000F70183FF3FC080810E940808F60180817A
:1012500087FF0CC0F40180819181A281B381019646
:10126000A11DB11D80839183A283B3830F5F1F4FA4
:101270008FEFE81AF80A94E0890E911C07301105E7
:1012800009F052CF1092000180E02C960FB6F8942E
:10129000DEBF0FBECDBFDF91CF911F910F91FF90A9
:1012A000EF90DF90CF90BF90AF909F908F907F9006
:1012B0006F905F904F903F902F900895E1E0E09302
:1012C000530348CF80810E940B03C0CFF601808179
:1012D000F70182FF04C080810E940808C7CF808187
:1012E0000E940B03C3CFF1E0F09353038091000100
:1012F000811103C0F1E0F093750340915203332351
:1013000051F09501002E01C0220F0A94EAF7242B18
:1013100020935203ABCFC501002E01C0880F0A9461
:10132000EAF78095842380935203A0CF1F920F92F7
:101330000FB60F9211242F933F934F935F936F93A8
:101340007F938F939F93AF93BF93CF93EF93FF932D
:10135000F89462E070E080E090E00E94C119789417
:1013600083B78E7F83BFC09106011092060180E093
:101370000E94620881E080937B03C0930601809302
:101380005403FF91EF91CF91BF91AF919F918F91B6
:101390007F916F915F914F913F912F910F900FBE71
:1013A0000F901F9018951F920F920FB60F92112455
:1013B0002F933F934F935F936F937F938F939F935D
:1013C000AF93BF93CF93EF93FF93F89462E070E0F5
:1013D00080E090E00E94C119789483B78E7F83BF2C
:1013E000C09106011092060180E00E94620881E02F
:1013F00080937B03C093060180935403FF91EF9188
:10140000CF91BF91AF919F918F917F916F915F919C
:101410004F913F912F910F900FBE0F901F901895F5
:101420001F920F920FB60F9211242F933F934F9359
:101430005F936F937F938F939F93AF93BF93CF935C
:10144000EF93FF93F89462E070E080E090E00E94F8
:10145000C119789483B78E7F83BFC0910601109223
:10146000060180E00E94620881E080937B03C093C4
:10147000060180935403FF91EF91CF91BF91AF91FB
:101480009F918F917F916F915F914F913F912F919C
:101490000F900FBE0F901F901895CF93DF93662388
:1014A00009F48FC0D091510380915003D81709F4EB
:1014B000AAC080E00E940B0381E00E940B0360E061
:1014C00080E00E94551960E081E00E9455198091EA
:1014D0008C0380FF04C060E081E00E94851965E014
:1014E00070E080E090E00E94C11980E00E942C1919
:1014F000892B09F49CC081E00E942C19892B09F4E6
:1015000096C0CCE361E080E00E94851965E070E060
:1015100080E090E00E94C11961E081E00E9485199D
:1015200064E170E080E090E00E94C11960E080E03A
:101530000E94851965E070E080E090E00E94C1198A
:1015400060E081E00E94851964E170E080E090E055
:101550000E94C119C150B1F66AE070E080E090E0ED
:101560000E94C119CD1751F161E081E00E948519F7
:1015700065E070E080E090E00E94C11961E080E0E9
:101580000E94851964E170E080E090E00E94C1193A
:1015900060E081E00E94851965E070E080E090E005
:1015A0000E94C11960E080E00E94851964E170E04A
:1015B00080E090E00E94C119CF5FD4CFC093500368
:1015C00021C0853028F0880F89508093510302C0D4
:1015D0001092510380918C0380FF04C060E081E091
:1015E0000E94851965E070E080E090E00E94C119DA
:1015F00080E00E942C19892BE1F081E00E942C19D7
:10160000892BB9F0C1E080918C0380FF04C061E0B8
:1016100081E00E94851980917403882331F080E075
:101620000E94080881E00E9408088C2F04C080E016
:1016300002C0C0E0E8CFDF91CF9108952F923F9292
:101640004F925F926F927F928F929F92AF92BF92D2
:10165000CF92DF92EF92FF920F931F93CF93DF937E
:10166000CDB7DEB7CE5ED1090FB6F894DEBF0FBEA0
:10167000CDBF8CED95E00E949110282E882309F4AF
:10168000F8C38091900383FF04C061E085E00E946D
:101690005519E090F9038091F4039091F503F090CF
:1016A000FA030F2D10E0A80167EB73E0CE018F5510
:1016B0009F4F0E9458368091F703882329F080912C
:1016C000F8038F3F09F0DAC38CED95E00E9491108A
:1016D00080919903E812B7C3E1EAF0E0EC0FFD1F37
:1016E000E00FF11F1082312C8E010F551F4FE4E1E6
:1016F0008E2EF4E19F2E62E27FE2C8010E946136E5
:10170000009709F08C016FE570E0C8010E94613616
:101710005C01232D30E0009709F48BC07C01E01AB6
:10172000F10A81E0E81AF108B8016F5F7F4F829EED
:101730006001839ED00C1124A70181E090E08C0F02
:101740009D1F8C0D9D1D0E948C36EC0CFD1CE1E054
:10175000F0E0EC0FFD1FEE0DFF1D1082CC24C394B2
:10176000C30C85010F5F1F4F62E27FE2C8010E9438
:1017700061365C01009711F43C2CBDCF7C01E01A6E
:10178000F10A9C9C60011124A701B80181E090E05E
:101790008C0F9D1F8C0D9D1D0E948C36EC0CFD1C2A
:1017A000E1E0F0E0EC0FFD1FEE0DFF1D108272E096
:1017B000E72EE30C85010F5F1F4F62E27FE2C80155
:1017C0000E946136009711F43E2C95CF8C010F5F7B
:1017D0001F4F62E27FE2C8010E9461365C01009700
:1017E00099F36C01C01AD10A9E9C70011124A601C4
:1017F000B80181E090E08C0F9D1F8E0D9F1D0E940F
:101800008C36EC0CFD1CE1E0F0E0EC0FFD1FEE0D62
:10181000FF1D108263E0E62EE30C85010F5F1F4F72
:1018200062E27FE2C8010E946136009769F28C0192
:10183000CBCF44E1429FC001439F900D112444E16E
:1018400050E0B801E1E0F0E0EC0FFD1F8E0F9F1FAC
:101850000E948C36C451DF4F1882CC5ED04010E01D
:1018600004E157E7452E5FE5552E612C712C2EEDD6
:1018700030E02C0F3D1F2C5F3F4FC351DF4F3983AA
:101880002883CD5ED040C12ED12C6CEF71E081E079
:1018900090E08C0F9D1F019F800D911D11240E94CF
:1018A0006C36892B09F065C0C6010196089F50016E
:1018B000099FB00C112481E090E08C0F9D1FA80EB1
:1018C000B91EC5010E94E72E7C019FE1E916F104D3
:1018D0000CF04FC0E2E0CE0ED11C0C9DC0010D9D5E
:1018E000900D112421E030E02C0F3D1F820F931F3B
:1018F0000E94E72E47019924F401E050F0406F0167
:10190000682FCF010E940632C6010E94F431940173
:1019100024583C4F6901F9018083C252DF4F48824D
:1019200059826A827B82CE5DD040C351DF4FE8810D
:10193000F981CD5ED04026E011922A95E9F742E088
:1019400050E0B501CE0182529F4F0E947C36F601D5
:101950006081CE0182529F4F0E94211F1E5F8CEE3C
:101960008E0D853030F031E0C451DF4F3883CC5ECE
:10197000D040E12EF12C60E372E081E090E08C0F2A
:101980009D1F019F800D911D11240E946C36892B93
:10199000A1F5C252DF4F488259826A827B82CE5DB6
:1019A000D040C351DF4FE881F981CD5ED04026E0C1
:1019B00011922A95E9F7C7010196089F7001099FC6
:1019C000F00C112481E090E08C0F9D1FE80EF91EB1
:1019D00042E050E0B701CE0182529F4F0E947C3618
:1019E000C7010E94E72E84589C4FFC016081CE0104
:1019F00082529F4F0E94211F1E5F812E912CAA248C
:101A0000A394B12CAC0EBD1E019FA00CB11C1124DF
:101A10006EEF71E0C5010E946C36892B49F063E8D6
:101A200072E0C5010E946C36892B09F445C089C05B
:101A3000E12CF12C970124583C4F6901F901808178
:101A4000882389F1C252DF4F488259826A827B82A1
:101A5000CE5DD040CE51DF4F1882C25ED0404AE00A
:101A6000BE0168517F4FC7010E94102F44E050E033
:101A7000BE0168517F4FCE0182529F4F0E947C363B
:101A8000F60180814AE0BE0168517F4F90E00E94DC
:101A9000102F20E041E0BE0168517F4FCE018252FD
:101AA0009F4F0E94F404FFEFEF1AFF0A2FE1E216A6
:101AB000F10409F0BFCFB3CFC4010196089F7001B4
:101AC000099FF00C112481E090E08C0F9D1FE80E1F
:101AD000F91EC7010E94E72E84589C4FFC018081AB
:101AE00085FD10927603F2E08F0E911C089D600137
:101AF000099DD00C112421E030E02C0F3D1FC20EB7
:101B0000D31E63E072E0C6010E946C36892B39F463
:101B1000C7010E94E72E8B5E9E4F61E00DC064E31B
:101B200072E0C6010E946C36892B51F4C7010E94F5
:101B3000E72E8B5E9E4F60E0FC0180810E9455196C
:101B40001E5FE12EF12CAA24A394B12CAC0EBD1E75
:101B5000019FA00CB11C112465E072E0C5010E9438
:101B60006C36892B09F060C0C7010296089F60019E
:101B7000099FD00C112421E030E02C0F3D1FC20E34
:101B8000D31E69E072E0C6010E946C36F7013196FF
:101B90004F01892BE9F40E9F60010F9FD00C112497
:101BA00021E030E02C0F3D1FC20ED31EC6010E9463
:101BB000E72E885F9E4F61E0FC0180810E945519ED
:101BC00064E670E080E090E00E94C119C60123C085
:101BD00063E072E0C6010E946C36892B89F4089D8F
:101BE000C001099D900D112421E030E02C0F3D1F14
:101BF000820F931F0E94E72E885F9E4F61E010C006
:101C0000089DC001099D900D112421E030E02C0FAA
:101C10003D1F820F931F0E94E72E885F9E4F60E05A
:101C2000FC0180810E9455196FE072E0C5010E949D
:101C30006C36892BD1F497012E5F3F4F029FC00174
:101C4000039F900D112441E150E061E270E021E03A
:101C500030E02C0F3D1F820F931F0E94FC3131E0BA
:101C6000C451DF4F3883CC5ED04068E772E0C501D5
:101C70000E946C36892B09F060C080918C0383FF31
:101C80002CC0C7010196089F6001099FD00C112448
:101C900081E090E08C0F9D1FC80ED91EC6010E94E6
:101CA000E72E62E0680F4FE152E084E00E94DD1E03
:101CB000C6010E94E72E92E0E90EF11C0E9DA001E4
:101CC0000F9D500D1124E1E0F0E0EC0FFD1F4E0FD1
:101CD0005F1F62E0680F84E02DC080918C0384FF59
:101CE0002BC0C7010196089F6001099FD00C1124E9
:101CF00021E030E02C0F3D1FC20ED31EC6010E9412
:101D0000E72E43E152E0682F80E00E94DD1EC6010D
:101D10000E94E72E32E0E30EF11C0E9DA0010F9D04
:101D2000500D1124E1E0F0E0EC0FFD1F4E0F5F1F9E
:101D3000682F80E00E94DD1E1E5FE12EF12CCC2476
:101D4000C394D12CCC0EDD1E019FC00CD11C1124DC
:101D500060E872E0C6010E946C36892B19F5F1E04B
:101D6000F093740322E0E20EF11C0E9DC0010F9D62
:101D7000900D1124E1E0F0E0EC0FFD1F8E0F9F1F8E
:101D80000E94E72E60E00E944D0A20E041E08111B0
:101D900003C06CE272E002C066E372E082E392E0AC
:101DA0000E94F40469E372E0C6010E946C36892B3C
:101DB00069F40E94651A60937703709378038093A7
:101DC000790390937A03109276031E5F1F5F31169A
:101DD00008F059CDC451DF4F3881CC5ED040332359
:101DE00009F43EC082E1C252DF4F8883CE5DD0400D
:101DF00080910601882369F06091990393E2E92EAE
:101E000005E021E0AE0142525F4F8CED95E00E946B
:101E1000710320E041E06CE372E089E492E00E940B
:101E2000F40420E040E06BE272E0CB010E94F40495
:101E300098E088E10FB6F894A895809360000FBEF3
:101E400090936000FFCF6091990383E2E82E05E054
:101E50002F2DAE014F555F4F8CED95E00E94710321
:101E60008091900383FF12C060E085E00E945519C5
:101E70000DC08CED95E00E94911008C040E06BE22F
:101E800072E08CED95E00E94F6141ECC822DC251BA
:101E9000DF4F0FB6F894DEBF0FBECDBFDF91CF91FD
:101EA0001F910F91FF90EF90DF90CF90BF90AF9078
:101EB0009F908F907F906F905F904F903F902F906A
:101EC00008959F92AF92BF92CF92DF92EF92FF92CE
:101ED0000F931F93CF93DF931F92CDB7DEB7182FC9
:101EE000882319F052E0C52E02C0CC24C394D12C13
:101EF00021E1B22E32E1A32E44E1942E112319F0F8
:101F000083E1898301C0B98280910601882369F049
:101F10006091990393E2E92E05E021E0AE014F5F65
:101F20005F4F8CED95E00E947103E12CF12C0E9433
:101F30001E0B882311F0E12CF12C61E070E080E0B1
:101F400090E00E94C1198FEFE81AF80A83ECE816B6
:101F500081E0F80660F3112311F0998201C0A98293
:101F600080910601882369F06091990383E2E82E4D
:101F700005E021E0AE014F5F5F4F8CED95E00E94E0
:101F80007103D39410E0DC10BECF81E00F90DF919D
:101F9000CF911F910F91FF90EF90DF90CF90BF9066
:101FA000AF909F90089585ED8093BC008091BC0018
:101FB00084FDFCCF10929504089540911F04262FB4
:101FC00030E0240F311D21323105DCF420919504DD
:101FD0002430C9F4FC0180E090E0861758F4309179
:101FE0001F042191DC01A350BC4FA30FB11D2C9302
:101FF0000196F3CF80911F04680F60931F0480E067
:10200000089581E0089582E008950895E0914E04D6
:1020100080914D04E81730F4F0E0E15BFB4F8081E4
:1020200090E008958FEF9FEF089590914E04809176
:102030004D04981750F4E92FF0E0E15BFB4F20814D
:1020400030E09F5F90934E0402C02FEF3FEFC90135
:10205000089580914D0490E020914E04821B9109D7
:102060000895CF92DF92EF92FF920F931F93CF9339
:10207000DF937C01262F972F8A0180919604882375
:1020800091F0C62FD72F6E01C40ED51ECC15DD05DD
:1020900071F06991D701ED91FC910190F081E02DF3
:1020A000C7010995F3CF642F822F0E94DD0FC8016D
:1020B000DF91CF911F910F91FF90EF90DF90CF9024
:1020C0000895CF93DF931F92CDB7DEB76983209138
:1020D00096042223D1F02091B904203240F021E06F
:1020E00030E0FC013383228380E090E015C08091D2
:1020F0009704E82FF0E0E856FB4F998190838F5FBB
:10210000809397048093B90405C061E0CE010196E5
:102110000E94DD0F81E090E00F90DF91CF91089554
:102120000895F8942091DB05233021F42091FB03DE
:1021300021110FC02091DB05233011F4789407C0E2
:10214000DC01ED91FC910288F389E02D099580E096
:102150000895DC01ED91FC910488F589E02D61E0A2
:10216000099581E0089581E080935703809155039C
:1021700090915603DC01ED91FC910484F585E02DEE
:102180000995109257030895CF93DF93EC0161E016
:102190008A810E94551989858CBD8A858DBD809163
:1021A0005703811101C07894DF91CF910895FC010C
:1021B000F8948CB581878DB582878CB5837F8CBD73
:1021C0008CB58F7D8CBD8CB58C7F8CBD8DB58E7F95
:1021D0008DBD60E082810C9455191F920F920FB64D
:1021E0000F9211242F933F934F935F936F937F939D
:1021F0008F939F93AF93BF93EF93FF938091B90019
:10220000887F803609F49CC068F5883209F45BC089
:1022100090F4803109F454C038F4882309F4F6C0EE
:10222000883009F44DC0F6C0883109F44CC08032C2
:1022300009F45DC0EFC0803409F468C048F480330D
:1022400009F455C0883309F0E5C080939304D8C0E1
:10225000803509F44FC0883509F45DC0883409F031
:10226000D9C0D6C0883909F4C7C0A8F4883709F4A2
:1022700067C038F4883609F463C0803709F460C059
:10228000C9C0883809F4B8C0803909F45FC0803803
:1022900009F0C0C05BC0803B09F486C038F4803AC6
:1022A00009F466C0883A09F47FC0B4C0803C09F4E0
:1022B000A7C0883C09F4A4C0883B09F48AC0AAC01E
:1022C0008091700410C090919204809191049817AD
:1022D00070F5E091920481E08E0F80939204F0E01B
:1022E000EF58FB4F80818093BB0085EC86C08093C4
:1022F00093048EC0E091920481E08E0F809392044B
:102300008091BB00F0E0EF58FB4F808390919204E6
:10231000809191046EC0E091920481E08E0F8093D1
:1023200092048091BB00F0E0EF58FB4F80838091D6
:10233000940481116DC081E080936F0484EA61C0D0
:1023400083E08093950410924304CFCF809143049F
:10235000803208F051C0E091430481E08E0F8093F9
:1023600043048091BB00F0E0ED5DFB4F8083BDCF67
:1023700085EC8093BC0010929504809143048032D8
:1023800030F4E0914304F0E0ED5DFB4F108260918A
:10239000430470E0E0912104F091220483E294E090
:1023A00009951092430436C084E0809395041092FE
:1023B000200410921F04E0911D04F0911E04099561
:1023C00080911F04811105C081E080931F04109249
:1023D000FD03E091200481E08E0F80932004F0E063
:1023E000E350FC4F80818093BB009091200480914A
:1023F0001F04981708F479CF85E88093BC000AC0C1
:1024000085EC8093BC001092950404C01092930454
:102410000E94D30FFF91EF91BF91AF919F918F9148
:102420007F916F915F914F913F912F910F900FBED0
:102430000F901F9018951092950481E0809394045A
:1024400010926F0461E082E10E94551961E083E11E
:102450000E945519E9EBF0E080818E7F80838081B6
:102460008D7F808388E48093B80085E48093BC00EE
:10247000089508958CBD9DBD0895FC019081018053
:10248000F281E02DF8948181892B81832281892F2B
:10249000809528232283A7E0B0E01197F1F72181EE
:1024A00082238183A3E2B0E01197F1F780817894D1
:1024B000EFECF0E03197F1F7982381E009F480E048
:1024C0000895FC0190810180F281E02D892F809593
:1024D00060FF12C0F8942281822382838181892B3C
:1024E0008183A3E2B0E01197F1F78281982B928368
:1024F000789487ED90E011C0F89422818223828342
:102500008181892B8183AFEFB0E01197F1F7828150
:10251000982B928378948FE090E00197F1F70895DB
:10252000FC0190810180F281E02DF8948181292FB6
:1025300020958223818378948DE743E050E0815099
:1025400021F1DA011197F1F730813923C1F3F894C1
:102550008281822382838181892B81837894ABE776
:10256000B7E01197F1F7F894818128232183A3E143
:10257000B1E01197F1F78081982381E009F080E0C4
:102580007894E3E6F6E03197F1F70895CF93CFB76B
:10259000F8948091FC03811127C0E0EAF4E0849173
:1025A000E4EBF4E09491E82FF0E0EE0FFF1FEC591C
:1025B000FB4FA591B491EC91E92321F461E08AE00D
:1025C0000E94551961E08AE00E9485198CB58061EE
:1025D0008CBD8CB580648CBD61E08DE00E94851956
:1025E00061E08BE00E9485198091FC038F5F8093EE
:1025F000FC03CFBFCF9108950F931F93CF93DF9329
:1026000000D0CDB7DEB78C01DC01ED91FC91008CE0
:10261000F18DE02D4A83698309956981862F806851
:102620000E94CD044A81842F0E94CD04D801ED91EF
:10263000FC91028CF38DE02DC8010F900F90DF917B
:10264000CF911F910F9109941F93CF93DF93EC01CA
:10265000162F611102C045E501C04DE56AE5CE01C6
:102660000E94FC12111102C040E701C04CE76CE56A
:10267000CE01DF91CF911F910C94FC12EF92FF924B
:102680001F93CF93DF931F92CDB7DEB77C01DC01A0
:10269000ED91FC91008CF18DE02D698309956981A4
:1026A000862F8F770E94CD0480E00E94CD04182FE2
:1026B000D701ED91FC91028CF38DE02DC7010995B6
:1026C000812F0F90DF91CF911F91FF90EF90089590
:1026D000CF93DF93EC016887611102C04AE101C02A
:1026E0004FE063E1CE010E94FC128885882341F00F
:1026F00061E1CE010E943E138F71482F406602C0F7
:102700004F81406861E1CE01DF91CF910C94FC12C2
:10271000CF93DF93EC011092FA031092F903109219
:10272000F8031092FB031092F7031092F603109235
:10273000F5031092F40368E20E943E1382FF0AC080
:102740006DE3CE010E943E13482F44606DE3CE013D
:102750000E94FC1240E465E2CE010E94FC12E88176
:10276000F9810488F589E02D63E0CE01DF91CF91F6
:102770000994EF92FF921F93CF93DF93EC01809126
:10278000DB05833001F568E2CE010E943E1382FD35
:102790002EC019C08091FA038D3330F4E091FA0312
:1027A000F0E0E954FC4F1082E881F981028CF38D4E
:1027B000E02DCE010995E881F9810488F589E02DA5
:1027C00063E0CE01099564E2CE010E943E1390E0E1
:1027D000919581959109959587959093F5038093AF
:1027E000F403DF91CF911F91FF90EF900895E8815E
:1027F000F9810488F589E02D61E0CE010995E88131
:10280000F981008CF18DE02DCE01099580E00E94C8
:10281000CD0480E00E94CD048093FB038091FB03F4
:102820008334D0F48091FB038093FB0380E00E940B
:10283000CD048093F8038E81811109C09091F80333
:102840008D81981721F08091F8038F3F39F48091A2
:10285000FB03833018F017C082E4E6CF1092FB032D
:10286000E881F981028CF38DE02DCE010995E88194
:10287000F9810288F389E02DCE01DF91CF911F917C
:10288000FF90EF9009948091FB0383508093FA03AB
:1028900080E00E94CD048093F90380E00E94CD0483
:1028A000982F90789093F603982F90749093F70355
:1028B000E881F9810684F785E02D682FCE0109951E
:1028C00010E08091FA03181708F064CFE12EF12C84
:1028D00080E00E94CD04F701E954FC4F80831F5F24
:1028E000F0CFCF92DF92EF92FF920F931F93CF938F
:1028F000DF93EC01F62ED42EC52E122FE881F9813C
:102900000488F589E02D61E0099567E2CE010E9417
:102910003E1387FFFACF40E065E2CE010E94FC1231
:102920001E3308F01DE3E11004C0002321F000E491
:1029300003C000E801C000E0E881F981008CF18D5E
:10294000E02DCE01099580E80E94CD0483E0810F3F
:102950000E94CD048F2D0E94CD048D810E94CD0454
:10296000802F0E94CD040D2DED2CFC2C8E2D801B74
:10297000811730F4F70181917F010E94CD04F6CFD9
:10298000E881F981028CF38DE02DCE010995E88173
:10299000F9810488F589E02D64E0CE0109950E9453
:1029A000651A6B017C018B810E942C19892B81F0A7
:1029B000E881F9810488F589E02D61E0CE01DF919D
:1029C000CF911F910F91FF90EF90DF90CF900994DE
:1029D0000E94651ADC01CB018C199D09AE09BF0963
:1029E000883E9340A105B105F0F2E2CF4F925F928D
:1029F0006F927F92AF92BF92CF92DF92EF92FF924F
:102A00000F931F93CF93DF93EC015B01F42E109291
:102A1000F7031091F903C090F403D090F5036DE330
:102A20000E943E13482F44606DE3CE010E94FC12C9
:102A30000E94651A2B013C01CE010E945B04882391
:102A400011F11093F903E881F9810088F189E02DF3
:102A5000EE24E39400E02F2DA501612FCE0109950E
:102A6000D092F503C092F403DF91CF911F910F91A3
:102A7000FF90EF90DF90CF90BF90AF907F906F90DE
:102A80005F904F9008950E94651ADC01CB01841974
:102A90009509A609B709883E9340A105B10588F6B6
:102AA000E881F9810480F581E02DCE010995C4CF3C
:102AB000CF92DF92EF92FF920F931F93CF93DF930A
:102AC0006C017A018B01C0E0D0E0CE15DF0589F002
:102AD000D8016D918D01D601ED91FC910190F081AD
:102AE000E02DC6010995892B11F47E0102C02196C3
:102AF000ECCFC701DF91CF911F910F91FF90EF9025
:102B0000DF90CF900895FC01538D448D252F30E048
:102B1000842F90E0821B930B541710F0CF960895EA
:102B200001970895FC01918D828D981761F0828D37
:102B3000DF01A80FB11D5D968C91928D9F5F9F73F1
:102B4000928F90E008958FEF9FEF0895FC01918D93
:102B5000828D981731F0828DE80FF11D858D90E000
:102B600008958FEF9FEF0895FC01918D228D892F9D
:102B700090E0805C9F4F821B91098F739927089585
:102B80008AEB94E00E94B41521E0892B09F420E03F
:102B9000822F0895FC01848DDF01A80FB11DA35A77
:102BA000BF4F2C91848D90E001968F739927848F6D
:102BB000A689B7892C93A089B1898C9180648C9364
:102BC000938D848D981306C00288F389E02D80814F
:102BD0008F7D80830895EF92FF920F931F93CF9381
:102BE000DF93EC0181E0888F9B8D8C8D981305C05D
:102BF000E889F989808185FD24C0F62E0B8D10E0CF
:102C00000F5F1F4F0F731127E02E8C8DE8120CC041
:102C10000FB607FCFACFE889F989808185FFF5CFE7
:102C2000CE010E94CA15F1CF8B8DFE01E80FF11D78
:102C3000E35AFF4FF0820B8FEA89FB898081806223
:102C400007C0EE89FF896083E889F9898081806403
:102C5000808381E090E0DF91CF911F910F91FF90F1
:102C6000EF900895CF93DF93EC01888D8823C9F00E
:102C7000EA89FB89808185FD05C0A889B9898C9185
:102C800086FD0FC00FB607FCF5CF808185FFF2CF20
:102C9000A889B9898C9185FFEDCFCE010E94CA1514
:102CA000E7CFDF91CF91089580E090E0892B29F064
:102CB0000E94C01581110C9400000895833081F0AA
:102CC00028F4813099F08230A1F008958730A9F07E
:102CD0008830B9F08430D1F4809180008F7D03C0BA
:102CE000809180008F7780938000089584B58F77DE
:102CF00002C084B58F7D84BD08958091B0008F7728
:102D000003C08091B0008F7D8093B00008953FB7DD
:102D1000F8948091490490914A04A0914B04B09199
:102D20004C0426B5A89B05C02F3F19F00196A11DA4
:102D3000B11D3FBFBA2FA92F982F8827820F911D51
:102D4000A11DB11DBC01CD0142E0660F771F881F98
:102D5000991F4A95D1F70895089580E00895DC0100
:102D60001A96ED91FC911B9720E030E00994DC016C
:102D70001696ED91FC91179720E030E040E069E174
:102D80000994DC011696ED91FC91179720E030E054
:102D900040E068E109949A01DC011696ED91FC91FE
:102DA0001797462F67E10994EF92FF920F931F93B5
:102DB000CF93DF931F92CDB7DEB77C018B01D80193
:102DC0006C916731E1F078F46531A0F1F80141814F
:102DD0004983D7011696ED91FC91179720E030E0DA
:102DE000C701099524C06A31A8F06E3F19F5F801B2
:102DF0004181498369E2C7010E94AF1618C0F801FA
:102E000081818983AE014F5F5F4F61E0C7010E94FE
:102E1000CB160DC00F5F1F4FD7011696ED91FC9199
:102E2000179720E030E040E0C7010995C8CF0E5F5A
:102E30001F4FC5CF0F90DF91CF911F910F91FF9042
:102E4000EF900895462FDC011696ED91FC911797AF
:102E500020E030E066E10994462FDC011696ED9102
:102E6000FC91179720E030E065E10994EF92FF9222
:102E70000F931F93CF93DF93EC01142F79016D30E3
:102E8000A9F118F46B3039F15FC06E3009F441C01C
:102E90006F3009F059C00E94C116F701838108897B
:102EA000F8E08F9F000D112460E4CE010E942C17E2
:102EB000602F62956F706061CE010E942C17602FA9
:102EC0006F70CE010E942217F7016481606BCE0102
:102ED0000E94221729C0411103C067E371E002C0BC
:102EE00062E371E0CE010E94D41671C0411108C0A6
:102EF0006BE271E00E94D416E881F981828907C0F3
:102F000064E271E00E94D416E881F9818389888B9C
:102F10005EC00E94C11661E8CE010E942C17612F8D
:102F2000CE010E9422170CC0F701408151816281BD
:102F3000660F660F660FCE010E94CB161150A1F7E7
:102F4000CE010E94B71643C0693031F481E791E0A9
:102F500099838883188A3BC06A30B9F5EA85FB8576
:102F600020E030E040E068E2CE010995EE81FF818B
:102F700020E030E040E064E1CE01099541E06BE4FF
:102F8000CE010E94AF16E881F981448169E2CE0149
:102F90000E94AF1640E06BE4CE010E94AF16E881BC
:102FA000F981448169E2CE010E94AF1641E06BE4F1
:102FB000CE010E94AF16E881F981458169E2CE0118
:102FC0000E94AF166CE371E08DCF80E001C081E01C
:102FD000DF91CF911F910F91FF90EF900895DC0149
:102FE0001896ED91FC91199720E030E040E069E1FE
:102FF0000994DC011896ED91FC91199720E030E0DE
:1030000040E068E10994662329F06A3019F0862FC0
:1030100090E008958FEF9FEF08950E945336CF936D
:10302000DF931F92CDB7DEB76983BE016F5F7F4F1D
:103030000E945D210F90DF91CF910895EF92FF9252
:103040001F93CF93DF93EC01162F7A010E94F9179B
:1030500060E4CE010E940F18E885F9859701412FA1
:1030600067E1CE010995CE01DF91CF911F91FF90CD
:10307000EF900C94EF17EF92FF921F93CF93DF9393
:1030800000D0CDB7DEB77C01142F673128F465314D
:1030900040F4643149F141C0673191F06A3170F018
:1030A0003CC00E94F91760E0C7010E940F18612F11
:1030B000C7010E940F18C7010E94EF1781E02EC0C0
:1030C000A901193160F068E1C70129833A830E94A0
:1030D0001E18185129813A81285E3F4FF1CF612F88
:1030E000C7010E941E18EACFDC0152968C915297BC
:1030F0008F3F19F488E752968C93D7011896ED917B
:10310000FC911997412F64E1C7010F900F90DF9157
:10311000CF911F91FF90EF90099480E00F900F9056
:10312000DF91CF911F91FF90EF900895FC01962FB2
:103130006831F1F0B901993150F4943169F0973167
:1031400089F550E087E595E00E9431100FC0993174
:1031500031F1903259F026C010924E0410924D0475
:10316000109297041092B9040E941B1281E00895F6
:10317000A081B1811D968C91843018F08CE08093F1
:10318000B800828990E09595879591E09093960498
:103190008093B804109297041092B904E7CF0E946C
:1031A000721CE4CF80E008951F920F920FB60F9229
:1031B00011242F933F934F935F936F937F938F933C
:1031C0009F93AF93BF93EF93FF938AEB94E00E949A
:1031D000CA15FF91EF91BF91AF919F918F917F9110
:1031E0006F915F914F913F912F910F900FBE0F9074
:1031F0001F9018951F920F920FB60F9211242F93C4
:103200008F939F93EF93FF93E091CA04F091CB04C7
:103210008081E091D004F091D10482FD12C09081B0
:103220008091D3048F5F8F732091D404821751F063
:10323000E091D304F0E0E654FB4F958F8093D304E4
:1032400001C08081FF91EF919F918F912F910F90FD
:103250000FBE0F901F901895CF93DF93282F30E06B
:10326000F901E858FB4F8491F901E655FB4FD491E1
:10327000F901EA56FB4FC491CC2391F081110E94D1
:103280005E16EC2FF0E0EE0FFF1FE457FB4FA59109
:10329000B491EC91ED2381E090E021F480E002C054
:1032A00080E090E0DF91CF9108951F93CF93DF935B
:1032B000282F30E0F901E858FB4F8491F901E655D9
:1032C000FB4FD491F901EA56FB4FC491CC23C9F0CE
:1032D000162F81110E945E16EC2FF0E0EE0FFF1FFB
:1032E000E259FB4FA591B4918FB7F894111105C025
:1032F0009C91ED2FE095E92302C0EC91ED2BEC932E
:103300008FBFDF91CF911F910895CF93DF9390E00E
:10331000FC01E655FB4F2491FC01EA56FB4F8491DA
:10332000882361F190E0880F991FFC01EC59FB4F55
:10333000C591D491FC01E259FB4FA591B491611163
:1033400009C09FB7F8948881209582238883EC91E7
:103350002E230BC0623061F49FB7F8943881822F1E
:10336000809583238883EC912E2B2C939FBF06C0DE
:103370008FB7F894E8812E2B28838FBFDF91CF91F0
:1033800008958F929F92AF92BF92CF92DF92EF9269
:10339000FF926B017C010E9487164B015C01C114F6
:1033A000D104E104F104F1F00E948716DC01CB01A5
:1033B00088199909AA09BB09883E9340A105B1055E
:1033C00070F321E0C21AD108E108F10888EE880EF6
:1033D00083E0981EA11CB11CC114D104E104F104C6
:1033E00019F7DDCFFF90EF90DF90CF90BF90AF90B7
:1033F0009F908F9008951F93CF93DF93EC01962FAA
:10340000642F9C3270F49A3208F058C0983289F0D8
:10341000993209F03EC070E080E090E00E94C1194E
:103420004DC09D32B1F0A8F184EB890F823000F1DC
:1034300030C06B9610E089918F3F39F0103110F455
:1034400061E001C062E00E9485191F5F163199F7A3
:1034500035C0433018F082E090E002C085E090E093
:10346000880F991F880F991F05970197F1F726C0BC
:103470009F73C90FD11D411107C061E08B8D0E9460
:10348000851960E08B8D10C062E08B8D0E948519DC
:1034900015C09034A8F09F73FE01E90FF11D838DD4
:1034A0008F3F61F0903118F40E94551907C00E94B7
:1034B0002C1921E0892B09F420E02E8B81E001C03A
:1034C00080E0DF91CF911F9108952FB7F89460911C
:1034D00045047091460480914704909148042FBFA1
:1034E00008951F920F920FB60F9211242F933F93BE
:1034F0008F939F93AF93BF9380914504909146041F
:10350000A0914704B09148043091440423E0230F74
:103510002D3720F40196A11DB11D05C026E8230F0B
:103520000296A11DB11D20934404809345049093FD
:103530004604A0934704B0934804809149049091B5
:103540004A04A0914B04B0914C040196A11DB11DF9
:103550008093490490934A04A0934B04B0934C0485
:10356000BF91AF919F918F913F912F910F900FBE7F
:103570000F901F9018951F920F920FB60F92112463
:103580002F933F934F935F936F937F938F939F936B
:10359000AF93BF93EF93FF93E0910301F091040188
:1035A0000995FF91EF91BF91AF919F918F917F917D
:1035B0006F915F914F913F912F910F900FBE0F90A0
:1035C0001F9018951F920F920FB60F9211242F93F0
:1035D0003F934F935F936F937F938F939F93AF939B
:1035E000BF93EF93FF93E0910101F09102010995E0
:1035F000FF91EF91BF91AF919F918F917F916F91CB
:103600005F914F913F912F910F900FBE0F901F90A0
:103610001895462FDC011496ED91FC91159720E04A
:1036200030E06BE00994CF93DF93DC011C96ED91C1
:10363000FC911D9784913196E491681720F1E6176B
:1036400010F170E0681B710983E0660F771F8A959F
:10365000E1F7CB010296EA01665F7F4F1C96ED9180
:10366000FC911D97E80FF91FE491E99301968617E5
:103670009707A1F751968C91882399F0FA019A0146
:10368000285F3F4F08C0FA01CA0108961192E81757
:10369000F907E1F7EFCF808180958193E217F30777
:1036A000D1F7DF91CF910895AF92BF92CF92DF9281
:1036B000EF92FF920F931F93CF93DF93CDB7DEB7B7
:1036C0002D970FB6F894DEBF0FBECDBFFC01F6A854
:1036D0006A3021F4F394F6AA15AA23C08C01E5A858
:1036E0006C0184E0C80ED11CDE0111965D01AD01B4
:1036F000C6010E94131BEC86FD8681E08B87BA868B
:10370000A986D8011896ED91FC9119979E01275F23
:103710003F4F41E06FE0C6010995F80185A98F5F31
:1037200085AB81E090E02D960FB6F894DEBF0FBE1A
:10373000CDBFDF91CF911F910F91FF90EF90DF9060
:10374000CF90BF90AF900895AF92BF92CF92DF928B
:10375000EF92FF920F931F93CF93DF93CDB7DEB716
:103760002D970FB6F894DEBF0FBECDBFE82EA62E64
:103770001092BD058A01F12CCE0101966C01BB248B
:10378000B394F80161918F01E091AA05F091AB0526
:1037900088EA95E009958F3FFFEF9F07F1F08E3F94
:1037A0002FEF920771F3A601682F88EA95E00E9437
:1037B000131BEC86AD86BB86DA86C986E091AC0524
:1037C000F091AD059E01275F3F4F41E06FE088EA31
:1037D00095E00995E394F394D4CF8F2D2D960FB6F1
:1037E000F894DEBF0FBECDBFDF91CF911F910F9137
:1037F000FF90EF90DF90CF90BF90AF9008951F9310
:10380000CF93DF9300D000D01F92CDB7DEB71C82DC
:1038100021E02B839A838983E091A805F091A90583
:1038200011891D82A091A805B091A905E091AC0570
:10383000F091AD059E012F5F3F4F50964C916FE088
:1038400088EA95E009958D818F5F8D83811750F30C
:103850000F900F900F900F900F90DF91CF911F91CD
:103860000895EF92FF920F931F93CF93DF93909160
:103870006F059F3F41F4DF91CF911F910F91FF9012
:10388000EF900C94CD04D82F07E010E0C0E0EE24B8
:10389000E394F12CCC0F60E080916F050E945519E4
:1038A000B701002E01C0660F0A94EAF76D238091DC
:1038B0006D050E94551961E080916F050E945519B0
:1038C00080916E050E942C19892B09F0C16001506E
:1038D000110900F78C2FDF91CF911F910F91FF906D
:1038E000EF9008952091B9049091B804213208F026
:1038F0004AC0809195048111FCCF32E03093950449
:1039000031E0309394043FEF30939304109292048B
:1039100020939104A8E9B4E041E754E0FA013E2F76
:10392000341B321718F43D913193F9CF1092700483
:1039300020917004990F922B9093700490916F04D2
:10394000913061F410926F04909170049093BB00D9
:103950009091BC0093FDF8CF95EC01C095EE90934B
:10396000BC00909195049230E1F3909193049F3FB5
:1039700079F080919304803241F0809193048033F8
:1039800031F084E005C081E003C082E001C083E043
:10399000109297041092B904109296040895CF9350
:1039A000DF93D82FC62F80916C058F3FC9F480918B
:1039B000630591E0909396048093B8041092970465
:1039C0001092B9046D2F87E595E00E9461106C2F6D
:1039D00087E595E00E946110DF91CF910C94721CF5
:1039E00080916F058F3F21F482E591E00E943A12A9
:1039F00060E080916C050E9455198D2F8F770E9491
:103A0000311C8C2F0E94311C61E080916C050E945A
:103A1000551980916F058F3F21F4DF91CF910C9460
:103A20003912DF91CF910895909195049111FCCFB7
:103A3000613208F060E291E09093950490939404D1
:103A40002FEF2093930410929204260F2093910459
:103A50009093700490917004880F892B8093700468
:103A600080916F04813061F410926F048091700432
:103A70008093BB008091BC0083FDF8CF85EC01C032
:103A800085EE8093BC00809195048130E1F38091B4
:103A90009204861710F460919204A1E7B4E02FE439
:103AA00034E0F9018E2F821B861718F48D918193D3
:103AB000F9CF10924E0460934D04862F0895CF9352
:103AC000C82F80916C058F3FE9F48091630591E0E8
:103AD000909396048093B804109297041092B904BE
:103AE0006C2F87E595E00E9461100E94721C61E0D6
:103AF000809163050E94141D87E595E00E941510D2
:103B0000C82F20C080916F058F3F21F482E591E09E
:103B10000E943A1260E080916C050E9455198C2F2A
:103B200080680E94311C80E00E94311CC82F61E037
:103B300080916C050E94551980916F058F3F11F49B
:103B40000E9439128C2FCF910895CF93DF93C82F05
:103B500080916C058F3F39F58091630591E09093DA
:103B600096048093B804109297041092B9046C2FB5
:103B700087E595E00E9461100E94721C62E08091CE
:103B800063050E94141D87E595E00E941510C82F5B
:103B900087E595E00E94151020E030E03C2FE90118
:103BA000C82BD92B29C080916F058F3F21F482E566
:103BB00091E00E943A1260E080916C050E945519D4
:103BC0008C2F80680E94311C80E00E94311CC82F1D
:103BD00080E00E94311C2C2F30E0322F2227E90197
:103BE000C82B61E080916C050E94551980916F058A
:103BF0008F3F11F40E943912CE01DF91CF910895C9
:103C00000E94A51D9827892798270895CF9386E7B6
:103C10008093630580916C058F3F59F410924E0498
:103C200010924D04109297041092B9040E941B1236
:103C30001CC061E00E94551961E080916C050E94F2
:103C4000851980916F058F3F19F40E94C6120DC02F
:103C500061E00E94851961E080916D050E948519DF
:103C600060E080916E050E94851980ED0E945F1DC5
:103C7000883519F0803609F09DC088E80E94001E42
:103C800090937105809370058AE80E94001E9093BE
:103C90007305809372058CE80E94001E9093750551
:103CA000809374058EE80E94001E909377058093A0
:103CB000760580E90E94001E90937905809378052F
:103CC00082E90E94001E90937B0580937A0584E927
:103CD0000E94001E90937D0580937C0586E90E94DA
:103CE000001E90937F0580937E0588E90E94001E48
:103CF00090938105809380058AE90E94001E90932D
:103D00008305809382058CE90E94001E90938505AF
:103D1000809384058EE90E94001E9093870580930E
:103D2000860581EA0E945F1D8093880581EE0E94CE
:103D3000001E90938A058093890583EE0E945F1D83
:103D400080938B0584EE0E945F1DC82F85EE0E9434
:103D50005F1D282F2F7030E1C39FC0011124822BDB
:103D600090938D0580938C0586EE0E945F1DC82F71
:103D700085EE0E945F1D90E024E0959587952A9539
:103D8000E1F740E1C49F90011124822B932B909383
:103D90008F0580938E0587EE0E945F1D80939005AE
:103DA00065E082EF0E94CF1C67EB84EF0E94CF1C7E
:103DB00081E001C080E0CF91089523E038E13093A5
:103DC000AB052093AA050C94A41BEF92FF920F93CE
:103DD0001F93CF93DF93EC0161E08CED95E00E949F
:103DE000F2032097C1F08CED95E00E94D7108EEB86
:103DF0000E94CD048E017E0180E1E80EF11CF801E5
:103E000081918F010E94CD040E151F05C1F78CED25
:103E100095E00E94C4106DE38CED95E00E943E1386
:103E20008E7F41E0CD2B09F440E0482B6DE38CED13
:103E300095E0DF91CF911F910F91FF90EF900C943F
:103E4000FC120F931F93CF93DF9300D000D01F92EB
:103E5000CDB7DEB78C01862F4AE0BE016F5F7F4F82
:103E600090E00E94102F20E040E0BE016F5F7F4F86
:103E7000C8010E94F40420E040E06BE272E0CB0154
:103E80000E94F4040F900F900F900F900F90DF910D
:103E9000CF911F910F910895EF92FF920F931F936F
:103EA000CF93DF93EC01E62E08E010E0FF24F394BB
:103EB00061E08F2D8E2109F460E0CE010E94611235
:103EC000FF0C01501109A1F7F894E981FA81918161
:103ED0008881809589238183E981FA819281888113
:103EE0008095892382837894DF91CF911F910F91E0
:103EF000FF90EF9008956F927F929F92AF92BF9242
:103F0000CF92DF92EF92FF920F931F93CF93DF93A5
:103F10001F92CDB7DEB78C01D62EE0919605F091B9
:103F20009705138615861486DF011B9633961E921D
:103F3000AE17BF07E1F7C12CBB24B3946090960580
:103F400070909705F3018585811169C0C3010E94B6
:103F5000901281110AC0D3011B961C921B971D96CB
:103F60001C921D971C961C9275C060EFC3010E94A5
:103F70004C1FEE24E394A12C912CFF24F394C30155
:103F80000E943D12682FC30169830E943D1269811E
:103F9000613019F48130C9F436C02A2D30E068133D
:103FA0001DC0F3018385F81630F4E20FF31F8381FF
:103FB0008E2159F402C0F81641F060E0F8E0FF15D8
:103FC00060F0D3011C96FC9208C0F301EA0DF11DCC
:103FD00083818E29838361E009C09F2CF301E20F66
:103FE000F31F93818E2D809589238383C3010E94C3
:103FF0006112F394EE0C19F4A394EE24E394B7E069
:10400000BA1508F0BCCFE0E4EF1548F4D3011B96D5
:104010009C921B97911008C01D96BC9205C0F3019D
:1040200013861586148616C0F30183818823B9F39D
:104030003396A8018BE0680E711CC8012191DC0148
:104040002D93CD01E615F705C9F706C0C394DC141E
:1040500008F074CF80E015C0CD10F8CF88E0E0E024
:10406000815049F0DA019D91AD01E927F0E0E25479
:10407000FB4FE491F5CFD80117968C91E813E6CF6A
:1040800081E00F90DF91CF911F910F91FF90EF9002
:10409000DF90CF90BF90AF909F907F906F900895EA
:1040A000CF92DF92EF92FF92CF93C82F80916C0551
:1040B0008F3F09F040C08091630591E09093960492
:1040C0008093B804109297041092B9046C2F87E57E
:1040D00095E00E9461100E94721C63E0809163056C
:1040E0000E94141D87E595E00E9415106C01990F40
:1040F000EE08FF08FE2CED2CDC2CCC2487E595E0A7
:104100000E941510AC01990F660B770BC42AD52AB3
:10411000E62AF72AFE2CED2CDC2CCC2487E595E052
:104120000E941510AC01990F660B770BC42AD52A93
:10413000E62AF72A33C080916F058F3F21F482E58C
:1041400091E00E943A1260E080916C050E9455193E
:104150008C2F80680E94311C80E00E94311CC82E88
:10416000D12CE12CF12CFE2CED2CDC2CCC2480E08D
:104170000E94311CC82AFE2CED2CDC2CCC2480E0C3
:104180000E94311CC82A61E080916C050E9455197B
:1041900080916F058F3F11F40E943912C701B6015B
:1041A000CF91FF90EF90DF90CF9008958F929F92E4
:1041B000AF92BF92CF92DF92EF92FF928AEF0E946E
:1041C0005020E3E6F5E0458556854A01A12CB12C47
:1041D000C72ED82EE92EFF24E7FCFA94C818D90878
:1041E000EA08FB08DC01CB0137E0B595A795979568
:1041F00087953A95D1F7B501A401440F551F661F65
:10420000771F4C015D01841A950AA60AB70AA50119
:104210009401A785B0890E947B344B015C013BE08F
:10422000B594A794979487943A95D1F7A7019601EE
:10423000C701B6010E942D349B01AC016CE055957D
:104240004795379527956A95D1F7A189B2890E943C
:104250007B34DC01CB017EE0B595A79597958795DA
:104260007A95D1F7A5019401280F391F4A1F5B1FCA
:104270002583368347835087A5E0B0E00E947034E1
:10428000DC01CB0180589F4FAF4FBF4F692F7A2F72
:104290008B2F992787FD9A950E94C23220E030E04B
:1042A00048EC52E40E941932FF90EF90DF90CF90DB
:1042B000BF90AF909F908F9008959B01DC0118965E
:1042C000ED91FC91199741E067E10994CF93DF9359
:1042D000CDB7DEB7CB56D1090FB6F894DEBF0FBE0F
:1042E000CDBF789484B5826084BD84B5816084BD7F
:1042F00085B5826085BD85B5816085BD80916E0084
:10430000816080936E0010928100809181008260B4
:1043100080938100809181008160809381008091F1
:1043200080008160809380008091B10084608093E0
:10433000B1008091B00081608093B00080917A00DC
:10434000846080937A0080917A00826080937A0002
:1043500080917A00816080937A0080917A008068F1
:1043600080937A001092C1000E940F0780E090E0D5
:104370000E94F4318F3F31F400E010E02CE1F22E86
:10438000F00E16C08FE190E00E94F4318F3AA1F751
:1043900062E08FE00E94851961E070E080E090E0CB
:1043A0000E94C1198FE00E942C19892B29F333C078
:1043B00060E0C8010E9406320F5F1F4FF012F8CF75
:1043C0006FEF8AE190E00E9406326EEF8BE190E0A1
:1043D0000E94063261E08CE190E00E94063261E0CA
:1043E0008DE190E00E94063262E08EE190E00E9452
:1043F00006326FEA8FE190E00E94063260E080E2D0
:1044000090E00E94063241E150E061E270E08FE40A
:1044100092E00E94FC3100E010E0C8018050904022
:104420000E94F431F801E458FC4F80830F5F1F4F66
:104430000132110591F7E8E5F3E011921192119222
:10444000119223E0E437F207C1F740919A0320E18B
:1044500037E2429FC001439F900D1124092E000CAA
:10446000AA0BBB0B8093AB039093AC03A093AD035B
:10447000B093AE034091940328E833E1429FC0011A
:10448000439F900D1124092E000CAA0BBB0B8093A7
:10449000A3039093A403A093A503B093A603409114
:1044A0009303429FC001439F900D1124AC01092E3C
:1044B000000C660B770B40939E0350939F03609311
:1044C000A0037093A103892B19F01092760303C007
:1044D00081E08093760380919803813029F4809164
:1044E00097038E3F09F4ABC061E085E00E94851917
:1044F00061E086E00E94851961E087E00E948519ED
:1045000061E082E00E94851961E087E00E94551910
:1045100061E082E00E94551965E070E080E090E083
:104520000E94C11960E082E00E9455196AE070E0C3
:1045300080E090E00E94C119409198030091970398
:104540009EE2DE0111966D01FD01292F11922A953F
:10455000E9F781E0898384E08A8332E03B8323E0CA
:104560002D833E838F8380E4888735E039872A87CF
:1045700026E02B8723E32C8737E03D8728E02F8731
:1045800029E0298B29E12B8B22E42C8B55E25D8BD2
:104590008E8B56E25F8B388F38E2398F30E13A8F5D
:1045A00039E23B8F3CED3C8F9D8F98E89E8F9FE2D8
:1045B0009F8F9DE298A390E399A337E33BA330E953
:1045C0003CA338E33DA32EA32CE32FA32FE828A779
:1045D0002DE329A722E12AA72FE62BA79CA79FEF6F
:1045E0009DA79CE69E87888B4AA361E08091DE05AB
:1045F0000E94551961E08091DE050E9485190E9494
:10460000C6120E94651A4B015C014AEA6FE28CED0A
:1046100095E00E94FC126FE28CED95E00E943E1343
:104620008A3A81F00E94651ADC01CB018819990948
:10463000AA09BB09C297A105B10538F303C01092BE
:10464000060152CF0E94651A4B015C0145E56FE2FD
:104650008CED95E00E94FC126FE28CED95E00E94DB
:104660003E13853561F00E94651ADC01CB01881983
:104670009909AA09BB09C297A105B10538F310E051
:10468000F601E10FF11DE10FF11D60816F3F39F07F
:1046900041818CED95E00E94FC121F5FF1CF80E01C
:1046A00090E00E94E51E6091E4058CED95E00E948B
:1046B000681361E08CED95E00E94F2030E94651A98
:1046C0004B015C0167E28CED95E00E943E1387FD93
:1046D0000CC00E94651ADC01CB0188199909AA094E
:1046E000BB09C297A105B10568F30E94651ADC01F8
:1046F000CB0188199909AA09BB09C297A105B1057F
:1047000008F055C0109257038091E0058230C8F43C
:10471000E82FF0E0EE0FFF1FEF5FFE4F23EB30E1DD
:1047200031832083813039F08091690083608093E8
:104730006900E89A06C0809169008C6080936900E6
:10474000E99A8CED95E0909356038093550300937E
:10475000E10567E00E943E13182F67E08CED95E0BD
:104760000E943E1321E0811101C020E091E01F3F33
:1047700009F490E09223D9F06FE18CED95E00E946E
:10478000D80341E150E061E270E0CE018F960E94D3
:10479000E431CE018F960E94E51E8CED95E00E94DB
:1047A00091108091860381110C94C12C18C015E0E2
:1047B00060E087E00E94551964E670E080E090E0D8
:1047C0000E94C11961E087E00E94551964E670E01B
:1047D00080E090E00E94C119115051F7CDCF809137
:1047E000870381110C94C12C8091880381110C9452
:1047F000C12C8091890381110C94C12C15E1812E6B
:1048000011E0912E00E010E0D401FD904D01F8017F
:10481000E458FC4F5F01FAE0FF1661F0D5016C919E
:1048200061708F2D0E948519F501608162708F2D56
:104830000E945519D5018C9182FF03C08F2D0E94D3
:1048400008080F5F1F4F07301105F1F680919003A4
:1048500080FF04C061E086E00E94551980918B03BF
:1048600081FF08C060E080E00E94851961E081E07E
:104870000E94851980918C0384FF02C00C94C52C82
:1048800080918C0383FF02C00C94C52C80E290E0E1
:104890000E94F4318111CDC061E080E290E00E947D
:1048A000063299E288E10FB6F894A89580936000EB
:1048B0000FBE90936000F89421E030E080E80FB6DE
:1048C000F89480936100209361000FBE0091660010
:1048D000F0908000E0908100B0908200A0906F0086
:1048E0009090B0008090B100709070006090B60021
:1048F00010928000109281001092820010926F003E
:104900001092B0001092B100109270001092B60098
:1049100066E28CED95E00E943E13582E45E066E27B
:104920008CED95E00E94FC121092700083B58268B5
:1049300083BD80E48093B6009091B600906290931E
:10494000B60081E08093B1001092B00093B59F77DC
:1049500093BDB89BFECF87E087BB81E08093810049
:1049600080E88093660011E021E837E0112311F11F
:10497000B89BFCCF23BD37BB80918400909185000C
:1049800010FD15C0AC014D5F53404730510590F00C
:104990008115944010F00C94332D909166009F5F28
:1049A00090936600109285001092840001C013BCA1
:1049B0001F5FDCCF7894452D66E28CED95E00E9478
:1049C000FC12F0928000E0928100B0928200A092EE
:1049D0006F009092B0008092B1007092700060926F
:1049E000B60087E286BB87E087BB13BC111119C0F4
:1049F0000093660080910601882399F081E1E5E942
:104A0000F2E0D60101900D928A95E1F76091990349
:104A1000B3E2EB2E05E021E1A6018CED95E00E94CA
:104A2000710360E080E290E00E9406320E940F076E
:104A300019C0809106018823A9F088E1E6EAF2E036
:104A4000D60101900D928A95E1F760919903A3E256
:104A5000EA2E05E028E1A6018CED95E00E947103A5
:104A600010E001C011E080918C0381FF35C0E0911E
:104A7000CA04F091CB0482E08083E091C604F091F7
:104A8000C7041082E091C804F091C9048FEC8083C0
:104A90001092D204E091CE04F091CF0486E080839E
:104AA000E091CC04F091CD04808180618083E0911D
:104AB000CC04F091CD04808188608083E091CC04A7
:104AC000F091CD04808180688083E091CC04F091E6
:104AD000CD0480818F7D808380918B0382FF08C00D
:104AE0000E94061E811104C0809106018111C0C779
:104AF00060E080E290E00E940632112321F0809174
:104B000006018111CAC760E087E00E945519FE01C5
:104B100031962996FFAFEEAF2997E85FAC96EFAFDD
:104B2000AC978091900383FF04C060E087E00E940F
:104B300055198091900381FF21C00E94651A009150
:104B4000B3031091B4032091B5033091B603DC0197
:104B5000CB01801B910BA20BB30B893B9B40A105A2
:104B6000B10564F00E94651A6093B3037093B403B7
:104B70008093B5039093B6030E94E30461E080E064
:104B80000E944D0A0E94651A0091AF031091B00374
:104B90002091B1033091B203DC01CB01801B910B5A
:104BA000A20BB30BC090AB03D090AC03E090AD036D
:104BB000F090AE0320910701C816D906EA06FB065D
:104BC00018F0222309F40BC6222321F080918B03D5
:104BD00080FD77C70E94651A6093AF037093B0039E
:104BE0008093B1039093B20380919203882319F0CC
:104BF00081E00E94BC0680918B0380FFEFC0F12C06
:104C00006E018FE2C80ED11C08E0E02EEC0C809102
:104C10009505F81608F0D8C024E434E740E050E0E9
:104C200024962CAF3DAF4EAF5FAF249727961DAEB5
:104C30001EAE1FAE27976F2DC6010E947B1F8111EC
:104C400005C060E070E08EEF92EC9DC0809196050B
:104C5000909197050E949012811103C060E874EE54
:104C600081C0009196051091970565E5C8010E94E5
:104C70004C1F5601D5016D915D01C8010E944C1F6A
:104C8000EA10F8CF6EEB80919605909197050E94FF
:104C90004C1F8E010F5F1F4F580128963FAC28977D
:104CA000F9E03F0E6090960570909705F8E08F2E22
:104CB000912C44244394512CC3010E943D12811134
:104CC0005428440C21E0821A9108B1F7D5015D9275
:104CD0005D013A12E7CF80919605909197050E9469
:104CE0009012813009F0BACFE0E0AC96BFADAC973E
:104CF000B01749F0D8018D918D01E827F0E0E2541A
:104D0000FB4FE491F2CF8985E813A8CF6981E8E0F1
:104D10006E9FB00111248A81282F30E0322F222784
:104D2000330F330F330F262B372B8FA58031C9F468
:104D3000688570E08F81AB01481B5109CA019695C7
:104D4000982F8827979587950E943D346051710967
:104D5000207F53E0220F331F5A95E1F7620F731F34
:104D600001C0B901613854EE75070CF46ACF072E03
:104D7000000C880B990B0E94C23220E030E040E02A
:104D80005CE30E94C0338E010F5F1F4F21E043E0C0
:104D90000E94C72E6F2D00E010E0C8010E947B1F0B
:104DA00043E050E0B801CE01805C9F4F0E947C360A
:104DB00020E040E0BE016F5F7F4FCE01805C9F4FDF
:104DC0000E94F404F39423CF811108C020E040E056
:104DD00060E672E089E492E00E94F40480918B0323
:104DE00081FF08C020E041E060E772E08AE792E0DE
:104DF0000E94F40480918B0382FF0BC40E94D62092
:104E00008E010F5F1F4F21E043E00E94C72E20E07C
:104E100040E0B8018FE792E00E94F4040E94D6209F
:104E200087EF0E945020A8966CAF7DAF8EAF9FAFEA
:104E3000A8978091680590916905A0916A05B09145
:104E40006B056C017D01FF0CCC08DC2C76019C010C
:104E5000AD016C2D7C2D8C2D9C2D345F4140510972
:104E600061097109810991092A962FAF2A972B961A
:104E70003FAF2B972C964FAF2C972D965FAF2D976A
:104E80002E966FAF2E972F967FAF2F9760968FAF8E
:104E9000609761969FAF619759016A017B018C0110
:104EA0000E9483346D962FAF6D976E963FAF6E97CD
:104EB0006F964FAF6F97A0965FAFA097A1966FAF19
:104EC000A197A2967FAFA297A3968FAFA397A49620
:104ED0009FAFA49790918005A9969FAFA997A091A5
:104EE00081056296AFAF6297B0917E05AA96BFAF7B
:104EF000AA97E0917F056396EFAF6397F0917C05E9
:104F0000AB96FFAFAB9720917D0564962FAF64976A
:104F1000B0907905A09078051B2D110F110BC12EB3
:104F2000D12EE12EF12E012F2A962FAD2A972B9606
:104F30003FAD2B972C964FAD2C972D965FAD2D97AF
:104F40002E966FAD2E972F967FAD2F9760968FADD3
:104F5000609761969FAD61970E9483340CE00E9438
:104F6000B33519012A013B014C01B0907B05A0909B
:104F70007A051B2D110F110BC12ED12EE12EF12E12
:104F8000012F6D962FAD6D976E963FAD6E976F9614
:104F90004FAD6F97A0965FADA097A1966FADA1970B
:104FA000A2967FADA297A3968FADA397A4969FAD2F
:104FB000A4970E94833408E00E94CC35510162011D
:104FC000730184010E94EA3570588F4F9F4F2090E3
:104FD0007605309077055101C12CD12CE12CF12CB4
:104FE00000E010E00E94833401E20E94CC35659617
:104FF0002FAF659766963FAF669767964FAF6797F7
:1050000068965FAF689769966FAF69976A967FAF4A
:105010006A976B968FAF6B976C969FAF6C97A0E07B
:105020000E94FC3509F4E3C1A996AFACA99762963A
:105030001FAD6297110F110B6296BFAC6297C12E24
:10504000D12EE12EF12E012F6D962FAD6D976E961C
:105050003FAD6E976F964FAD6F97A0965FADA097DF
:10506000A1966FADA197A2967FADA297A3968FADA3
:10507000A397A4969FADA4970E94833419012A0197
:105080003B014C01AA96AFACAA9763961FAD6397FC
:10509000110F110B6396BFAC6397C12ED12EE12E79
:1050A000F12E012F2A962FAD2A972B963FAD2B97E5
:1050B0002C964FAD2C972D965FAD2D972E966FADFC
:1050C0002E972F967FAD2F9760968FAD6097619644
:1050D0009FAD61970E94833401E10E94B33559016D
:1050E0006A017B018C019101A201B301C4010E94FC
:1050F000EA3519012A013B014C01A8964CAD5DAD82
:105100006EAD7FADA897E4E0759567955795479587
:10511000EA95D1F780E090E0A0E1B0E0841B950B28
:10512000A60BB70B6C017D01FF0CCC08DC2C7601C3
:105130009C01AD016C2D7C2D8C2D9C2D0FE10E94CE
:10514000B335B22FA32FF42FE52F2A966FAF2A97EE
:105150002B967FAF2B972C968FAF2C972D969FAFCA
:105160002D97AB962FADAB9764969FAD6497990F33
:10517000990B64963FAD6497492F592F692F792F6A
:10518000892F03E20E94B33559016A017B018C012A
:105190009101A201B301C4010E94EA3559016A01DB
:1051A0007B018C012B2F3A2F4F2F5E2F2A966FAD4C
:1051B0002A972B967FAD2B972C968FAD2C972D96FB
:1051C0009FAD2D970E94F335722E832E942EB52F0E
:1051D000A62FF72FE82F592E03E00E94B335A72CF6
:1051E000B82CC92CDB2EEA2EFF2E0E2F152D0E9477
:1051F000F33559016A017B01682E192F03E00E94E3
:10520000B335062D0E94F33503E00E94B335A72C79
:10521000B82CC92CDB2EEA2EFF2E0E2F152D0E9446
:10522000F33502E00E94B3350E2F0E94F33501E002
:105230000E94B3350E2F0E94F3356596AFAC65978B
:105240006696BFAC66976796CFAC67976896DFACFB
:1052500068976996EFAC69976A96FFAC6A976B9608
:105260000FAD6B976C961FAD6C970E94DE342A963B
:105270002FAF2A972B963FAF2B972C964FAF2C979B
:105280002D965FAF2D972E966FAF2E972F967FAFEF
:105290002F9760968FAF609761969FAF61970DE0F3
:1052A0000E94CC35322E432E542E652E762E872E1C
:1052B000982E292E3091870520918605932F990FDE
:1052C000990BA32CB42CC52CD62CE72CF82C092D2B
:1052D000122D492F592F692F792F892F0E9483343E
:1052E0000E94833409E10E94CC3559016A017B0197
:1052F0008C012A962FAD2A972B963FAD2B972C9693
:105300004FAD2C972D965FAD2D972E966FAD2E97A6
:105310002F967FAD2F9760968FAD609761969FAD6A
:1053200061970E94EA3519012A013B014C01309135
:10533000850520918405932F990F990B2A96AFAC80
:105340002A972B96BFAC2B972C96CFAC2C972D96EB
:10535000DFAC2D972E96EFAC2E972F96FFAC2F97A4
:1053600060960FAD609761961FAD6197492F592FD9
:10537000692F792F892F0E94833403E10E94CC3555
:1053800059016A017B018C019101A201B301C401A1
:105390000E94EA3508E00E94CC3539014A01B62F57
:1053A000A72FF82FE92F3091830520918205932FA5
:1053B000990F990B492F592F692F792F892F04E0C5
:1053C0000E94B33559016A017B018C019301A4014C
:1053D0006B2F7A2F8F2F9E2F0E94EA350E94BA32B0
:1053E00020E030E040E85BE30E94C03303C060E0AF
:1053F00070E0CB0120E030E048EC52E40E9419322A
:105400006B017C0120E030E0A9010E94143281117F
:1054100002C00E94061E8E010F5F1F4F21E043E075
:10542000C701B6010E94C72E20E040E0B80182E823
:1054300092E00E94F4040E94D6208DEF0E94A51DE8
:105440008090680590906905A0906A05B0906B0502
:105450003CE2931A31E0A30AB1086C01E12CF12C73
:10546000FEE0CC0CDD1CEE1CFF1CFA95D1F7409140
:105470008C0550918D05052E000C660B770BA4E171
:10548000440F551F661F771FAA95D1F7C41AD50A76
:10549000E60AF70AA0918E05B0918F05A501940147
:1054A0000E947B34C61AD70AE80AF90A40E4D40EEF
:1054B000E11CF11CBFE0F594E794D794C794BA952A
:1054C000D1F7A09190050A2E000CBB0BA501940109
:1054D0000E947B342B013C011AE075946794579429
:1054E00047941A95D1F7A0918B05B0E00E947034D3
:1054F000DC01CB010BE0B595A795979587950A95AB
:10550000D1F7BC01CD0170588F4F9F4FA30192017D
:105510000E942D34DC01CB012AE0B595A795979523
:1055200087952A95D1F79C01AD01405E5F4FA09110
:105530008905B0918A050E947B34DC01CB01905E25
:10554000AF4FBF4FBC01CD013EE095958795779554
:1055500067953A95D1F7A70196010E942D346B010A
:105560007C014FE095958795779567954A95D1F79A
:105570009B01AC010E942D349B01AC0167E0559565
:105580004795379527956A95D1F7A0918805B0E0A2
:105590000E947034DC01CB0174E0B595A795979516
:1055A00087957A95D1F7A7019601281B390B4A0BED
:1055B0005B0BDA01C90157FF03C080E090E0DC011A
:1055C00081309105A10539E1B30724F080E090E036
:1055D000A0E0B9E1BC01CD01ECE095958795779508
:1055E0006795EA95D1F70E94C23220E030E040E8AA
:1055F0005AE30E94C0338E010F5F1F4F21E043E04A
:105600000E94C72E20E040E0B80185E892E00E94A9
:10561000F4046AE0C62ED12CA60144585C4F7A01EE
:10562000DA018C91882309F487C021E439E640E04F
:1056300050E02FA738AB49AB5AAB1CAA1BAAF60106
:10564000EB5EFE4F10814AE0BE01605C7F4F812F10
:1056500090E00E94102F42E050E0BE01605C7F4F5E
:10566000CE018F960E947C361E3008F01E501770B7
:105670008091050130E4839FC0011124182B109301
:105680007C0080917A00806480937A0080917A0017
:1056900086FDFCCF009178008091790010E0182BF6
:1056A000D7018C9180FD2AC08C9182FD27C08C91FE
:1056B00081FD24C08C9183FD21C08C9184FF1EC08C
:1056C00080E00E94BC06BC0180E090E00E94C032F5
:1056D00020E030EC4FE754E40E9419324B015C01AA
:1056E000B80180E090E00E94C0329B01AC01C5018E
:1056F000B4010E94C0330E948B328B01F70180817C
:1057000086FF02C0000F111FD7018C9187FF04C0D4
:10571000000F111F000F111F4AE0BE016F5F7F4F86
:10572000C8010E94102F20E040E0BE016F5F7F4F54
:10573000CE018F960E94F404BFEFCB1ADB0AEEE095
:10574000CE16D10409F068CF38E5E32E33E0F32E0E
:1057500000E010E0F801E458FC4F808187FF2DC085
:1057600023E63FE540E050E02FA738AB49AB5AAB0A
:105770001BAA4AE0BE01605C7F4FC8010E94102F47
:1057800042E050E0BE01605C7F4FCE018F960E94E8
:105790007C36D7016D917D918D919C912AE0AE016F
:1057A0004F5F5F4F0E941B2F20E040E0BE016F5F04
:1057B0007F4FCE018F960E94F4040F5F1F4FB4E01D
:1057C000EB0EF11C0730110529F690917B0381E067
:1057D00089270E94620810927B031092070180E0E3
:1057E0000E9462080E94651A0091A3031091A4030D
:1057F0002091A5033091A603C090A703D090A803E1
:10580000E090A903F090AA03DC01CB018C199D095B
:10581000AE09BF09081719072A073B0720F0809136
:10582000A2038823B1F0012B022B032B91F00E94DD
:10583000651A6093A7037093A8038093A9039093BC
:10584000AA0320E041E068E872E089E392E00E9468
:10585000F40420E040E06BE272E0CB010E94F4042B
:105860000E94651A009177031091780320917903C3
:1058700030917A03DC01CB01801B910BA20BB30B9F
:1058800000919E0310919F032091A0033091A103EA
:10589000081719072A073B0718F525E1E22E21E032
:1058A000F22E00E010E0F801E458FC4F808185FF03
:1058B0000CC0808184FF04C061E0F701808103C0D7
:1058C00060E0D7018C910E9455190F5F1F4FBFEF09
:1058D000EB1AFB0A0730110531F781E0809376035C
:1058E00080919D03811109C080910601882319F0E0
:1058F00081E00E94610F80939D0380919203882331
:1059000059F180919103882339F18091760388239E
:1059100019F180910601882319F080E00E94610F3F
:1059200080918C0380FF04C060E081E00E948519B3
:10593000809175038111CCC080918C0380FF04C0DD
:1059400061E081E00E94851961E080E00E944D0ADB
:10595000809176038111C1C080919203882309F45C
:1059600013C180919103882309F40EC180919003A3
:1059700083FF04C061E087E00E9455190E9454161D
:10598000D0C8109205010C94FE23E091AC05F09173
:10599000AD0520E030E040E06AE088EA95E0099556
:1059A00088E0F60111928A95E9F7C6010E94FF1B73
:1059B00060E088EA95E00E94091B60E088EA95E0D3
:1059C0000E94091B40919603E091AC05F091AD0552
:1059D00020E030E06EE088EA95E0099582E691E00B
:1059E0009093B5058093B40586E0EBE0F1E0D60135
:1059F00001900D928A95E1F71F82188619861A8602
:105A0000809197034AE0BE01605C7F4F90E00E9466
:105A1000102F43E050E0BE01605C7F4FC6010E9442
:105A20007C36A60162E084E00E94DD1E6FE872E031
:105A3000C6010E947536809198034AE0BE01605C01
:105A40007F4F90E00E94102F43E050E0BE01605C69
:105A50007F4FC6010E947C36A60163E084E00E946D
:105A6000DD1E0C9446249091660091500C94D02435
:105A700089E1EEEBF2E0D60101900D928A95E1F713
:105A80006091990393E2E92E05E029E1A6018CEDEE
:105A900095E00E94710310E02BC88DE0E7EDF2E085
:105AA000D60101900D928A95E1F76091990383E206
:105AB000E82E05E02DE0A6018CED95E00E94710333
:105AC00022C868EE73E080E090E00E94C11982C8AD
:105AD0008091740381112AC02FCF8091900383FF9E
