:100000000C94E0020C9432180C940B180C94FF0C16
:100010000C94CC0C0C94990C0C94D0040C94080304
:100020000C9408030C9408030C9408030C94080324
:100030000C9408030C9408030C9408030C94080314
:100040000C94C1170C9408030C944A160C942416B3
:100050000C9408030C9408030C9408030C940803F4
:100060000C944C0E0C940803207F0000000000004C
:10007000000000065F5F060000000007070007079A
:100080000000147F7F147F7F1400242E6B6B3A12C4
:100090000000466630180C666200307A4F5D377A91
:1000A00048000407030000000000001C3E634100FC
:1000B00000000041633E1C000000082A3E1C1C3E5C
:1000C0002A0808083E3E080800000080E0600000A2
:1000D0000000080808080808000000006060000030
:1000E00000006030180C060301003E7F71594D7FFF
:1000F0003E0040427F7F40400000627359494F6696
:100100000000226349497F360000181C16537F7F88
:100110005000276745457D3900003C7E4B497930CA
:100120000000030371790F070000367F49497F36CD
:100130000000064F49693F1E00000000666600008F
:1001400000000040763600000000081C36634100C5
:1001500000002424242424240000004163361C08C9
:100160000000020351590F0600003E7F415D5D1FF4
:100170001E007C7E13137E7C0000417F7F49497FF7
:1001800036001C3E634141632200417F7F41633E54
:100190001C00417F7F495D416300417F7F491D0114
:1001A00003001C3E6341517372007F7F08087F7F0C
:1001B000000000417F7F41000000307040417F3FE0
:1001C0000100417F7F081C776300417F7F414060D1
:1001D00070007F7F0E1C0E7F7F007F7F060C187FD4
:1001E0007F001C3E6341633E1C00417F7F49090F35
:1001F00006001E3F21717F5E0000417F7F09197F4D
:10020000660022674D597322000003417F7F41033E
:1002100000007F7F40407F7F00001F3F60603F1FE6
:1002200000007F7F3018307F7F0043673C183C67B9
:100230004300074F78784F070000476371594D67B7
:100240007300007F7F41410000000103060C18305D
:1002500060000041417F7F000000080C0603060C8F
:100260000800808080808080808000000307040078
:100270000000207454543C784000417F3F48487847
:100280003000387C44446C280000307848493F7F77
:100290004000387C54545C180000487E7F490302BB
:1002A000000098BCA4A4F87C0400417F7F08047C73
:1002B000780000447D7D4000000060E08080FD7D8E
:1002C0000000417F7F10386C440000417F7F400078
:1002D00000007C7C18381C7C78007C7C04047C78D2
:1002E0000000387C44447C38000084FCF8A4243CA2
:1002F0001800183C24A4F8FC8400447C784C041CAE
:100300001800485C54547424000000043E7F4424C8
:1003100000003C7C40403C7C40001C3C60603C1C3D
:1003200000003C7C7038707C3C00446C3810386CA9
:1003300044009CBCA0A0FC7C00004C64745C4C6439
:10034000000008083E774141000000000077770078
:1003500000004141773E0808000002030103020348
:10036000010070784C464C787000000000002400BA
:1003700027002A0000000000250028002B000000B4
:100380000008000201000003040700000000000054
:100390000000005EBCE2613FDD83C29C7E20A3FDC5
:1003A0001F419DC3217FFCA2401E5F01E3BD3E6053
:1003B00082DC237D9FC1421CFEA0E1BF5D0380DE85
:1003C0003C62BEE0025CDF81633D7C22C09E1D4337
:1003D000A1FF4618FAA427799BC584DA3866E5BBE5
:1003E0005907DB856739BAE406581947A5FB782613
:1003F000C49A653BD987045AB8E6A7F91B45C69845
:100400007A24F8A6441A99C7257B3A6486D85B05F6
:10041000E7B98CD2306EEDB3510F4E10F2AC2F71A4
:1004200093CD114FADF3702ECC92D38D6F31B2ECD2
:100430000E50AFF1134DCE90722C6D33D18F0C5204
:10044000B0EE326C8ED0530DEFB1F0AE4C1291CFB6
:100450002D73CA947628ABF517490856B4EA693764
:10046000D58B5709EBB536688AD495CB2977F4AA92
:100470004816E9B7550B88D6346A2B7597C94A14C4
:10048000F6A8742AC896154BA9F7B6E80A54D78976
:100490006B3500000000230026002900040404043A
:1004A000040404040202020202020303030303031E
:1004B00001020408102040800102040810200102FB
:1004C0000408102000407A10F35A00A0724E180958
:1004D0000010A5D4E80000E87648170000E40B54AB
:1004E000020000CA9A3B000000E1F505000080967A
:1004F0009800000040420F000000A08601000000AC
:10050000102700000000E803000000006400000065
:1005100000000A00000000000100000000002C762E
:10052000D888DC674F0823DFC1DFAE59E1B1B79649
:10053000E5E3E453C63AE651997696E8E6C28426A6
:10054000EB898C9B62ED407C6FFCEFBC9C9F40F282
:10055000BAA56FA5F490055A2AF75C936B6CF967FE
:100560006DC11BFCE0E40D47FEF520E6B500D0EDC3
:10057000902E0300943577050080841E080000202B
:100580004E0A000000C80C333333330F986E1283C9
:100590001141EF8D2114893BE65516CFFEE6DB189D
:1005A000D1844B381BF77C1D901DA4BBE424203262
:1005B00084725E228100C9F124ECA1E53D27052B60
:1005C00011241FBECFEFD8E0DEBFCDBF12E0A0E008
:1005D000B1E0E6EBF7E602C005900D92A43CB1074E
:1005E000D9F725E0A4ECB2E001C01D92AD3CB20702
:1005F000E1F712E0C0EED2E004C02197FE010E94B4
:10060000162ECF3DD107C9F70E948B1E0C94D9330B
:100610000C9400000895282F883038F08E3040F078
:10062000863148F4ECE6F0E008C0EDE6F0E005C005
:10063000EBE6F0E002C0E0E0F0E03081283060F46A
:1006400081E090E0A0E0B0E004C0880F991FAA1FED
:10065000BB1F2A95D2F715C0822F90E0AC012E3037
:1006600018F44850510902C04E50510981E090E001
:10067000A0E0B0E004C0880F991FAA1FBB1F4A95D5
:10068000D2F78095832380830895CF92DF92EF92F3
:10069000FF920F931F93CF93DF936C01EB017B01CC
:1006A000E40EF51E00E010E0CE15DF0561F0699163
:1006B000D601ED91FC910190F081E02DC6010995E4
:1006C000080F191FF1CFC801DF91CF911F910F9132
:1006D000FF90EF90DF90CF9008953F924F925F92FE
:1006E0006F927F928F929F92AF92BF92CF92DF9242
:1006F000EF92FF920F931F93CF93DF93EC01162F8E
:100700005A01922E302E812CCE2CD12CE12CF12CA2
:1007100061E070E080E090E00E941117E881F981CB
:100720000190F081E02D01E0292DA501612FCE017E
:1007300009950E94B5172B013C010E94B517DC01F9
:10074000CB0184199509A609B7098C159D05AE053D
:10075000BF05A0F4E881F9810480F581E02DCE0188
:100760000995882351F39091D103911711F01F3F00
:1007700021F79091CE03911105C0DFCF83943814F7
:1007800038F680E0DF91CF911F910F91FF90EF90AD
:10079000DF90CF90BF90AF909F908F907F906F90A1
:1007A0005F904F903F900895CF93DF93EC016032BC
:1007B00008F06FE16F838885882311F066956F8359
:1007C00061E1CE010E949D10807E9F81482F492BC0
:1007D00061E1CE01DF91CF910C945B101F93CF9319
:1007E000DF932091B305621709F45DC0162FEC0169
:1007F0006230E9F168F4662309F440C0613009F021
:1008000052C061E00E949D10837E482F44603BC02F
:100810006330B9F0643009F046C061E00E949D1079
:10082000837E482F4C6061E0CE010E945B1088857A
:10083000882369F1E881F9810688F789E02D61E074
:1008400013C061E00E949D10837E482F406161E0EB
:10085000CE010E945B1088858823C9F0E881F98168
:100860000688F789E02D60E0CE01099510C061E0AF
:100870000E949D10837E482F486005C061E00E9461
:100880009D10482F437E61E0CE010E945B10809155
:10089000B305811106C067E2CE010E949D1087FF5B
:1008A000F6CF1093B305DF91CF911F910895CF93A9
:1008B000DF932091B3052330C9F42091D303211194
:1008C00015C0EC0164E20E949D1090E09195819525
:1008D00091098C349F4F54F4E881F9810488F5899B
:1008E000E02D61E0CE01099581E001C080E0DF915B
:1008F000CF9108958F929F92AF92BF92CF92DF9245
:10090000EF92FF920F931F93CF93DF93EC01162F7B
:100910006A01F22E6DE30E949D10482F44606DE342
:10092000CE010E945B100E94B5174B015C01CE0105
:100930000E9457048823C1F0E881F9810088F18979
:10094000E02DE12C2F2DA601612FCE010995DF911D
:10095000CF911F910F91FF90EF90DF90CF90BF90BC
:10096000AF909F908F9008950E94B517DC01CB0146
:1009700088199909AA09BB09883E9340A105B105C8
:10098000D8F6E881F9810480F581E02DCE01099542
:10099000CECF8EBD00000DB407FEFDCF8EB50895FD
:1009A0001F920F920FB60F9211248F9383B78E7FF1
:1009B00083BF8F910F900FBE0F901F901895CF930C
:1009C000DF93C0E1D7E261E085E00E94A51660E018
:1009D00085E00E94A5162197B1F7DF91CF91089588
:1009E000CF93DF93C82FD62F60E080E00E94A5163A
:1009F00060E081E00E94A51680E00E947C16892BB1
:100A000029F081E00E947C16892B11F480E074C0EB
:100A1000DD2309F467C0D0918D0380918C03D81732
:100A200009F469C0CCE361E080E00E94D51665E07E
:100A300070E080E090E00E94111761E081E00E9488
:100A4000D51664E170E080E090E00E94111760E04C
:100A500080E00E94D51665E070E080E090E00E94A2
:100A6000111760E081E00E94D51664E170E080E03B
:100A700090E00E941117C150B1F66AE070E080E08A
:100A800090E00E941117CD1751F161E081E00E94C2
:100A9000D51665E070E080E090E00E94111761E0FB
:100AA00080E00E94D51664E170E080E090E00E9452
:100AB000111760E081E00E94D51665E070E080E0EB
:100AC00090E00E94111760E080E00E94D51664E17A
:100AD00070E080E090E00E941117CF5FD4CFC09308
:100AE0008C0309C0C53028F0CC0FC950C0938D03CA
:100AF00002C010928D0381E0DF91CF9108954F9253
:100B00005F926F927F928F929F92AF92BF92CF929D
:100B1000DF92EF92FF920F931F93CF93DF93CDB7A6
:100B2000DEB768970FB6F894DEBF0FBECDBF2C01BD
:100B30003B01142F6DE370E00E94CA30B82EF30120
:100B400001900020E9F731976F01C618D708FC2CF7
:100B5000111102C004E001C006E00E94B517209107
:100B600088033091890340918A0350918B03DC0103
:100B7000CB01821B930BA40BB50B80319742A105CF
:100B8000B10568F00E94B5176093880370938903DC
:100B900080938A0390938B0381E080930501460143
:100BA00099248B0C911CA02EB12CC4018A0D9B1D85
:100BB000CE970CF0C2C080910501882309F449C08A
:100BC00020918703C401820F911D8A0D9B1DCE9732
:100BD00024F4F1103EC02223E1F198ECE92E05E067
:100BE00049E453E06091070384EB95E00E946D03B4
:100BF00081112DC06091050370E080E090E00E94BB
:100C0000D92E26E636E646EA5FE30E94D72F0E94F9
:100C1000A22E0E9411172091870349E453E06091AE
:100C2000070384EB95E00E946D03082F81110FC02C
:100C30000E944E070E94B517609388037093890342
:100C400080938A0390938B031092050194C01092B5
:100C5000870380918703282F30E0820E931EA80C13
:100C6000B91C9DE3A916B1040CF084C0FF2009F45F
:100C70007DC0882341F08F5F80938703F901E75B94
:100C8000FC4F8CE28083E091870351E05E0F50932C
:100C90008703F0E0E75BFC4F82E2808390E0892FDE
:100CA000850FF201E90FF11D4081282F30E0F90195
:100CB000E75BFC4F442319F040839F5FF0CF92E243
:100CC0009083E2E0E80FE0938703A1E0A80FB0E093
:100CD000A75BBC4F2AE32C93112339F08D5F8093DF
:100CE0008703F0E0E75BFC4F908350918703262D4C
:100CF000D301452F4619842F8A0F90E03D91875BE1
:100D00009C4FFC0130838A2F821B8F15A0F3C50EE8
:100D1000C0928703112351F081E08C0D80938703EB
:100D2000EC2DF0E0E75BFC4F82E28083E0918703EB
:100D3000F0E0E75BFC4F108219C088E1EAE5F2E0E1
:100D4000DE01119601900D928A95E1F788ECE82E6C
:100D500005E028E1AE014F5F5F4F6091070384EB30
:100D600095E00E946D030E944E0704C00E944E074A
:100D700001E001C000E0802F68960FB6F894DEBF56
:100D80000FBECDBFDF91CF911F910F91FF90EF90DC
:100D9000DF90CF90BF90AF909F908F907F906F909B
:100DA0005F904F900895CF92DF92EF92FF921F9342
:100DB000CF93DF93CDB7DEB72A970FB6F894DEBF97
:100DC0000FBECDBF182F8EE480937C0062E070E0F0
:100DD00080E090E00E94111790917A0090649093C7
:100DE0007A0080917A0086FDFCCF20917800809176
:100DF000790030E0382B40E050E06CE374EF80E1A4
:100E000090E00E94292C69017A01112379F04AE0CF
:100E1000BE016F5F7F4FC6010E94D53040E0BE012A
:100E20006F5F7F4F82E792E00E947F05C6012A969E
:100E30000FB6F894DEBF0FBECDBFDF91CF911F91EB
:100E4000FF90EF90DF90CF9008950F931F93CF9373
:100E5000DF9300D000D01F92CDB7DEB78C01862F74
:100E60004AE0BE016F5F7F4F90E00E94D53040E0C6
:100E7000BE016F5F7F4FC8010E947F0540E068EAB6
:100E800072E0CB010E947F050F900F900F900F90A2
:100E90000F90DF91CF911F910F9108952F923F9264
:100EA0004F925F926F927F928F929F92AF92BF927A
:100EB000CF92DF92EF92FF920F931F93CF93DF9326
:100EC000CDB7DEB7CE5ED1090FB6F894DEBF0FBE48
:100ED000CDBF84EB95E00E94F00D882E882309F4A5
:100EE00095C38091FE0283FF04C061E085E00E940B
:100EF000A516E090D1038091CC039091CD03F090A2
:100F0000D2030F2D10E0A8016FE873E0CE018F55DA
:100F10009F4F0E9449308091CF03882329F0809110
:100F2000D0038F3F09F077C384EB95E00E94F00D6A
:100F300060910703E61256C3E1EAF0E0EC0FFD1FF3
:100F4000E00FF11F1082912C8E010F551F4FE4E12D
:100F50006E2EF4E17F2E62E27FE2C8010E945230E1
:100F6000009709F08C016FE570E0C8010E945230D3
:100F70005C01292D30E0009709F48BC07C01E01A58
:100F8000F10A81E0E81AF108B8016F5F7F4F629EB5
:100F90006001639ED00C1124A70181E090E08C0FCA
:100FA0009D1F8C0D9D1D0E947D30EC0CFD1CE1E011
:100FB000F0E0EC0FFD1FEE0DFF1D1082CC24C3945A
:100FC000C90C85010F5F1F4F62E27FE2C8010E94DA
:100FD00052305C01009711F49C2CBDCF7C01E01ACB
:100FE000F10A7C9C60011124A701B80181E090E026
:100FF0008C0F9D1F8C0D9D1D0E947D30EC0CFD1CE7
:10100000E1E0F0E0EC0FFD1FEE0DFF1D108272E03D
:10101000E72EE90C85010F5F1F4F62E27FE2C801F6
:101020000E945230009711F49E2C95CF8C010F5FD7
:101030001F4F62E27FE2C8010E9452305C010097BC
:1010400099F36C01C01AD10A7E9C70011124A6018B
:10105000B80181E090E08C0F9D1F8E0D9F1D0E94B6
:101060007D30EC0CFD1CE1E0F0E0EC0FFD1FEE0D1F
:10107000FF1D108263E0E62EE90C85010F5F1F4F14
:1010800062E27FE2C8010E945230009769F28C014F
:10109000CBCF44E1429FC001439F900D112444E116
:1010A00050E0B801E1E0F0E0EC0FFD1F8E0F9F1F54
:1010B0000E947D30C451DF4F1882CC5ED04010E0DA
:1010C00004E157E7452E5FE5552E612C712C2EED7E
:1010D00030E02C0F3D1F2C5F3F4FC351DF4F398352
:1010E0002883CD5ED040A12EB12C67E772E081E06D
:1010F00090E08C0F9D1F019F800D911D11240E9477
:101100005D30892B09F065C0C5010196089F70010B
:10111000099FF00C112481E090E08C0F9D1FE80ED8
:10112000F91EC7010E94AC306C019FE1C916D104C1
:101130000CF04FC0E2E0AE0EB11C0A9DC0010B9D49
:10114000900D112421E030E02C0F3D1F820F931FE2
:101150000E94AC30682FC601805090400E94CB3373
:10116000C7010E94AC306C01805090400E94B9339E
:10117000F601E651FD4F8083C252DF4F488259820B
:101180006A827B82CE5DD040C351DF4FE881F98116
:10119000CD5ED04026E011922A95E9F742E050E07A
:1011A000B701CE0182529F4F0E946D30C7010E944D
:1011B000AC3086519D4FFC016081CE0182529F4F21
:1011C0000E9425071E5F21E0C451DF4F2883CC5EBB
:1011D000D040E12EF12C6CEE71E081E090E08C0FBC
:1011E0009D1F019F800D911D11240E945D30892B50
:1011F000A1F5C252DF4F488259826A827B82CE5D5E
:10120000D040C351DF4FE881F981CD5ED04026E068
:1012100011922A95E9F7C7010196089F7001099F6D
:10122000F00C112481E090E08C0F9D1FE80EF91E58
:1012300042E050E0B701CE0182529F4F0E946D30D4
:10124000C7010E94AC3086519D4FFC016081CE01E8
:1012500082529F4F0E9425071E5F212E312CAA2407
:10126000A394B12CAC0EBD1E019FA00CB11C112487
:1012700069E772E0C5010E945D30892B49F061E0A9
:1012800072E0C5010E945D30892B09F446C08AC016
:101290003AEEC32E32E0D32EE12CF12CF601808100
:1012A000882381F1C252DF4F488259826A827B8251
:1012B000CE5DD040CE51DF4F1882C25ED0404AE0B2
:1012C000BE0168517F4FC7010E94D53044E050E015
:1012D000BE0168517F4FCE0182529F4F0E946D30F8
:1012E000F60180814AE0BE0168517F4F90E00E9484
:1012F000D53041E0BE0168517F4FCE0182529F4FF1
:101300000E947F05FFEFEF1AFF0A2FEFC21AD20AE1
:101310003FE1E316F10411F6B2CFC1010196089F37
:101320007001099FF00C112481E090E08C0F9D1F4B
:10133000E80EF91EC7010E94AC3086519D4FFC019A
:10134000808185FD1092E502F2E02F0E311C029D96
:101350006001039DD00C112421E030E02C0F3D1FD3
:10136000C20ED31E6EE772E0C6010E945D30892B6B
:1013700039F4C7010E94AC308E5E9E4F61E00DC013
:1013800060E872E0C6010E945D30892B51F4C7010C
:101390000E94AC308E5E9E4F60E0FC0180810E9416
:1013A000A5161E5FE12EF12CCC24C394D12CCC0EBB
:1013B000DD1E019FC00CD11C112462E872E0C60141
:1013C0000E945D30892B11F597012E5F3F4F029FE0
:1013D000C001039F900D112466E872E021E030E027
:1013E0002C0F3D1F820F931F0E945D30892B71F4DB
:1013F00061E087E00E94A51664E670E080E090E07E
:101400000E94111760E087E00E94A5166CE872E068
:10141000C6010E945D30892BD1F497012E5F3F4FAA
:10142000029FC001039F900D112441E150E061E251
:1014300070E0E1E0F0E0EC0FFD1F8E0F9F1F0E94B7
:10144000C13321E0C451DF4F2883CC5ED04066EF2A
:1014500071E0C6010E945D30892B09F05EC0809169
:10146000FA0283FF2CC0C7010196089F6001099F03
:10147000D00C112481E090E08C0F9D1FC80ED91E66
:10148000C6010E94AC3062E0680F4CE952E084E093
:101490000E94871AC6010E94AC3092E0E90EF11C4E
:1014A0000E9DA0010F9D500D1124E1E0F0E0EC0F26
:1014B000FD1F4E0F5F1F62E0680F84E02BC084FFAA
:1014C0002BC0C7010196089F6001099FD00C112411
:1014D00021E030E02C0F3D1FC20ED31EC6010E943A
:1014E000AC3040E952E0682F80E00E94871AC601C4
:1014F0000E94AC3032E0E30EF11C0E9DA0010F9D66
:10150000500D1124E1E0F0E0EC0FFD1F4E0F5F1FC6
:10151000682F80E00E94871A1E5FE12EF12CCC24F8
:10152000C394D12CCC0EDD1E019FC00CD11C112404
:101530006EEF71E0C6010E945D30892BE1F4F2E0AC
:10154000EF0EF11C0E9DC0010F9D900D112421E0A6
:1015500030E02C0F3D1F820F931F0E94AC3060E0E3
:101560000E94F004811107C041E069EA72E08AEE4E
:1015700091E00E947F056DE072E0C6010E945D303F
:10158000892B69F40E94B5176093E6027093E70215
:101590008093E8029093E9021092E5021E5F1F5FBC
:1015A000911608F0A0CDC451DF4F3881CC5ED040F9
:1015B000332319F141E061EB72E08EEB92E00E947F
:1015C0007F0540E068EA72E0CB010E947F0598E069
:1015D00088E10FB6F894A895809360000FBE9093B1
:1015E0006000FFCF88ECE82E05E02F2DAE014F55AF
:1015F0005F4F84EB95E00E946D038091FE0283FFB4
:1016000012C060E085E00E94A5160DC084EB95E055
:101610000E94F00D08C040E068EA72E084EB95E0BB
:101620000E94551281CC882DC251DF4F0FB6F8941D
:10163000DEBF0FBECDBFDF91CF911F910F91FF9005
:10164000EF90DF90CF90BF90AF909F908F907F9062
:101650006F905F904F903F902F90089584B7877F51
:1016600084BFE0E6F0E08081886180831082089585
:10167000883038F08E3040F0863148F4ECE6F0E007
:1016800008C0EDE6F0E005C0EBE6F0E002C0E0E007
:10169000F0E09081883068F441E050E060E070E074
:1016A000082E04C0440F551F661F771F0A94D2F7F7
:1016B00014C0282F30E08E3018F42850310902C0B1
:1016C0002E50310941E050E060E070E004C0440F6A
:1016D000551F661F771F2A95D2F7492B40832BB3DE
:1016E000883050F031E08E3008F430E091E001C0F5
:1016F000990F3A95EAF701C094E0922B9BBB909129
:101700006800883050F021E08E3008F420E081E05D
:1017100001C0880F2A95EAF701C084E0892B8093E5
:10172000680008952F923F924F925F926F927F923E
:101730008F929F92AF92BF92CF92DF92EF92FF92E1
:101740000F931F93CF93DF93CDB7DEB72E970FB6CE
:10175000F894DEBF0FBECDBF90910701892B809317
:10176000070182E191E09D878C8787ECA82E82E0BB
:10177000B82E0AEE12E0C12CD12C88248394912C2F
:1017800020E7222E2FE5322E412C512CFC2CEC850B
:10179000FD85E190FD87EC878E2DDE860E947C160C
:1017A00021E03E85019709F020E0622E712C8091A6
:1017B0008E03482F50E00F2C02C0559547950A9490
:1017C000E2F7417055276416750629F490910701D8
:1017D000992309F485C0F801908196FF45C02982BC
:1017E0003A824B825C821D824AE0BE01675F7F4F76
:1017F0008F2D932F2E870E94D53042E050E0BE01FE
:10180000675F7F4FCE0101960E946D304AE0BE01B6
:101810006A5F7F4FC3010E94D53041E0BE016A5F1D
:101820007F4FCE0101960E947F052E858823B1F05F
:1018300030918E03222349F0A40101C0440FFA9491
:10184000EAF7432B40938E0309C0C40101C0880FFF
:10185000FA94EAF78095832380938E03F1E0F09366
:10186000E402222391F115C0222349F0940101C022
:10187000220FFA94EAF7822B80938E030AC0940118
:1018800001C0220FFA94EAF72095822380938E03F9
:101890001CC0F801808183FF04C08E2D0E94380B8C
:1018A00003C08E2D0E940B03F801808187FF18C0B2
:1018B000F50180819181A281B3810196A11DB11DA5
:1018C00080839183A283B3830BC0F801808182FF60
:1018D00004C08E2D0E94380B03C08E2D0E940B0376
:1018E000FFEFCF1ADF0A84E0A80EB11C0F5F1F4F75
:1018F00097E0C916D10409F049CF1092070180E0A2
:101900002E960FB6F894DEBF0FBECDBFDF91CF91FC
:101910001F910F91FF90EF90DF90CF90BF90AF900D
:101920009F908F907F906F905F904F903F902F90FF
:1019300008951F920F920FB60F9211242F933F9389
:101940004F935F936F937F938F939F93AF93BF93C7
:10195000CF93EF93FF9383B78E7F83BFC091050131
:101960001092050180E00E94920BC093050181E076
:101970008093E302FF91EF91CF91BF91AF919F913F
:101980008F917F916F915F914F913F912F910F9028
:101990000FBE0F901F9018951F920F920FB60F92C7
:1019A00011242F933F934F935F936F937F938F9364
:1019B0009F93AF93BF93CF93EF93FF9383B78E7FA4
:1019C00083BFC09105011092050180E00E94920B37
:1019D000C093050181E08093E302FF91EF91CF91E5
:1019E000BF91AF919F918F917F916F915F914F9137
:1019F0003F912F910F900FBE0F901F9018951F923F
:101A00000F920FB60F9211242F933F934F935F9332
:101A10006F937F938F939F93AF93BF93CF93EF93E6
:101A2000FF9383B78E7F83BFC0910501109205019C
:101A300080E00E94920BC093050181E08093E30255
:101A4000FF91EF91CF91BF91AF919F918F917F9136
:101A50006F915F914F913F912F910F900FBE0F901B
:101A60001F90189585ED8093BC008091BC0084FD8B
:101A7000FCCF10926D0408954091F703262F30E0BB
:101A8000240F311D21323105DCF420916D04243006
:101A9000C9F4FC0180E090E0861758F43091F70318
:101AA0002191DC01AB52BC4FA30FB11D2C930196C9
:101AB000F3CF8091F703680F6093F70380E00895F8
:101AC00081E0089582E008950895E09126048091D0
:101AD0002504E81730F4F0E0E95DFB4F808190E0E9
:101AE00008958FEF9FEF089590912604809125042B
:101AF000981750F4E92FF0E0E95DFB4F208130E0CA
:101B00009F5F9093260402C02FEF3FEFC901089515
:101B10008091250490E020912604821B910908956C
:101B2000CF92DF92EF92FF920F931F93CF93DF93A9
:101B30007C01262F972F8A0180916E04882391F0D3
:101B4000C62FD72F6E01C40ED51ECC15DD0571F042
:101B50006991D701ED91FC910190F081E02DC701D1
:101B60000995F3CF642F822F0E943C0DC801DF91AD
:101B7000CF911F910F91FF90EF90DF90CF9008953C
:101B8000CF93DF931F92CDB7DEB7698320916E04A8
:101B90002223D1F020919104203240F021E030E066
:101BA000FC013383228380E090E015C080916F04B4
:101BB000E82FF0E0E059FB4F998190838F5F80938D
:101BC0006F048093910405C061E0CE0101960E94EC
:101BD0003C0D81E090E00F90DF91CF910895089542
:101BE000F8942091B305233021F42091D3032111DF
:101BF0000FC02091B305233011F4789407C0DC01A5
:101C0000ED91FC910288F389E02D099580E008951B
:101C1000DC01ED91FC910488F589E02D61E00995E6
:101C200081E0089581E08093C6028091C402909182
:101C3000C502DC01ED91FC910484F585E02D099548
:101C40001092C6020895CF93DF93EC0161E08A8180
:101C50000E94A51689858CBD8A858DBD8091C6029E
:101C6000811101C07894DF91CF910895FC01F8941F
:101C70008CB581878DB582878CB5837F8CBD8CB503
:101C80008F7D8CBD8CB58C7F8CBD8DB58E7F8DBDD1
:101C900060E082810C94A5161F920F920FB60F92EE
:101CA00011242F933F934F935F936F937F938F9361
:101CB0009F93AF93BF93EF93FF938091B900887F79
:101CC000803609F49CC068F5883209F45BC090F452
:101CD000803109F454C038F4882309F4F6C0883000
:101CE00009F44DC0F6C0883109F44CC0803209F4C3
:101CF0005DC0EFC0803409F468C048F4803309F453
:101D000055C0883309F0E5C080936B04D8C0803596
:101D100009F44FC0883509F45DC0883409F0D9C092
:101D2000D6C0883909F4C7C0A8F4883709F467C059
:101D300038F4883609F463C0803709F460C0C9C03C
:101D4000883809F4B8C0803909F45FC0803809F0D8
:101D5000C0C05BC0803B09F486C038F4803A09F407
:101D600066C0883A09F47FC0B4C0803C09F4A7C0BB
:101D7000883C09F4A4C0883B09F48AC0AAC08091B9
:101D8000480410C090916A0480916904981770F516
:101D9000E0916A0481E08E0F80936A04F0E0E75BD3
:101DA000FB4F80818093BB0085EC86C080936B04E1
:101DB0008EC0E0916A0481E08E0F80936A04809166
:101DC000BB00F0E0E75BFB4F808390916A04809159
:101DD00069046EC0E0916A0481E08E0F80936A040A
:101DE0008091BB00F0E0E75BFB4F808380916C0447
:101DF00081116DC081E08093470484EA61C083E073
:101E000080936D0410921B04CFCF80911B0480320D
:101E100008F051C0E0911B0481E08E0F80931B04F9
:101E20008091BB00F0E0E550FC4F8083BDCF85EC96
:101E30008093BC0010926D0480911B04803230F4BA
:101E4000E0911B04F0E0E550FC4F108260911B0410
:101E500070E0E091F903F091FA038BEF93E00995BC
:101E600010921B0436C084E080936D041092F80336
:101E70001092F703E091F503F091F6030995809134
:101E8000F703811105C081E08093F7031092D50319
:101E9000E091F80381E08E0F8093F803F0E0EB52BD
:101EA000FC4F80818093BB009091F8038091F703F1
:101EB000981708F479CF85E88093BC000AC085ECB8
:101EC0008093BC0010926D0404C010926B040E94B9
:101ED000320DFF91EF91BF91AF919F918F917F91C3
:101EE0006F915F914F913F912F910F900FBE0F9087
:101EF0001F90189510926D0481E080936C041092ED
:101F0000470461E082E10E94A51661E083E10E943E
:101F1000A516E9EBF0E080818E7F808380818D7F44
:101F2000808388E48093B80085E48093BC000895A2
:101F300008958CBD9DBD0895FC0190810180F281C2
:101F4000E02DF8948181892B81832281892F8095CE
:101F500028232283A7E0B0E01197F1F721818223A3
:101F60008183A3E2B0E01197F1F780817894EFECE0
:101F7000F0E03197F1F7982381E009F480E00895CB
:101F8000FC0190810180F281E02D892F809560FF16
:101F900012C0F8942281822382838181892B8183DC
:101FA000A3E2B0E01197F1F78281982B92837894A5
:101FB00087ED90E011C0F894228182238283818191
:101FC000892B8183AFEFB0E01197F1F78281982BD5
:101FD000928378948FE090E00197F1F70895FC01E7
:101FE00090810180F281E02DF8948181292F209544
:101FF0008223818378948DE743E050E0815021F182
:10200000DA011197F1F730813923C1F3F894828115
:10201000822382838181892B81837894ABE7B7E027
:102020001197F1F7F894818128232183A3E1B1E08E
:102030001197F1F78081982381E009F080E078948E
:10204000E3E6F6E03197F1F70895CF93CFB7F89430
:102050008091D403811127C0E6EAF4E08491EAEB91
:10206000F4E09491E82FF0E0EE0FFF1FE659FC4FEB
:10207000A591B491EC91E92321F461E08AE00E94FA
:10208000A51661E08AE00E94D5168CB580618CBDF2
:102090008CB580648CBD61E08DE00E94D51661E056
:1020A0008BE00E94D5168091D4038F5F8093D40378
:1020B000CFBFCF9108950F931F93CF93DF9300D09D
:1020C000CDB7DEB78C01DC01ED91FC91008CF18D78
:1020D000E02D4A83698309956981862F80680E9473
:1020E000C9044A81842F0E94C904D801ED91FC9152
:1020F000028CF38DE02DC8010F900F90DF91CF91EE
:102100001F910F9109941F93CF93DF93EC01162F2A
:10211000611102C045E501C04DE56AE5CE010E94AE
:102120005B10111102C040E701C04CE76CE5CE0125
:10213000DF91CF911F910C945B10EF92FF921F9350
:10214000CF93DF931F92CDB7DEB77C01DC01ED9119
:10215000FC91008CF18DE02D698309956981862FB2
:102160008F770E94C90480E00E94C904182FD7010C
:10217000ED91FC91028CF38DE02DC7010995812F23
:102180000F90DF91CF911F91FF90EF900895CF9323
:10219000DF93EC016887611102C04AE101C04FE0A2
:1021A00063E1CE010E945B108885882341F061E1E4
:1021B000CE010E949D108F71482F406602C04F8152
:1021C000406861E1CE01DF91CF910C945B10CF9319
:1021D000DF93EC011092D2031092D1031092D0033E
:1021E0001092D3031092CF031092CE031092CD031E
:1021F0001092CC0368E20E949D1082FF0AC06DE33A
:10220000CE010E949D10482F44606DE3CE010E94D4
:102210005B1040E465E2CE010E945B10E881F98129
:102220000488F589E02D63E0CE01DF91CF91099418
:10223000EF92FF921F93CF93DF93EC018091B30550
:10224000833001F568E2CE010E949D1082FD2EC010
:1022500019C08091D2038D3330F4E091D203F0E0C5
:10226000E157FC4F1082E881F981028CF38DE02D5B
:10227000CE010995E881F9810488F589E02D63E0B4
:10228000CE01099564E2CE010E949D1090E09195E7
:1022900081959109959587959093CD038093CC0373
:1022A000DF91CF911F91FF90EF900895E881F98120
:1022B0000488F589E02D61E0CE010995E881F98176
:1022C000008CF18DE02DCE01099580E00E94C904BB
:1022D00080E00E94C9048093D3038091D3038334A8
:1022E000D0F48091D3038093D30380E00E94C9048B
:1022F0008093D0038E81811109C09091D0038D818C
:10230000981721F08091D0038F3F39F48091D30347
:10231000833018F017C082E4E6CF1092D303E8812F
:10232000F981028CF38DE02DCE010995E881F981C8
:102330000288F389E02DCE01DF91CF911F91FF90AC
:10234000EF9009948091D30383508093D20380E06F
:102350000E94C9048093D10380E00E94C904982F91
:1023600090789093CE03982F90749093CF03E88148
:10237000F9810684F785E02D682FCE01099510E0DC
:102380008091D203181708F064CFE12EF12C80E081
:102390000E94C904F701E157FC4F80831F5FF0CF13
:1023A000CF92DF92EF92FF920F931F93CF93DF9321
:1023B000EC01F62ED42EC52E122FE881F981048867
:1023C000F589E02D61E0099567E2CE010E949D103C
:1023D00087FFFACF40E065E2CE010E945B101E331A
:1023E00008F01DE3E11004C0002321F000E403C065
:1023F00000E801C000E0E881F981008CF18DE02D5A
:10240000CE01099580E80E94C90483E0810F0E94F3
:10241000C9048F2D0E94C9048D810E94C904802F98
:102420000E94C9040D2DED2CFC2C8E2D801B8117D4
:1024300030F4F70181917F010E94C904F6CFE88151
:10244000F981028CF38DE02DCE010995E881F981A7
:102450000488F589E02D64E0CE0109950E94B51746
:102460006B017C018B810E947C16892B81F0E881B5
:10247000F9810488F589E02D61E0CE01DF91CF91EB
:102480001F910F91FF90EF90DF90CF9009940E94E1
:10249000B517DC01CB018C199D09AE09BF09883E37
:1024A0009340A105B105F0F2E2CF4F925F926F9297
:1024B0007F92AF92BF92CF92DF92EF92FF920F93F3
:1024C0001F93CF93DF93EC015B01F42E1092CF03A7
:1024D0001091D103C090CC03D090CD036DE30E9446
:1024E0009D10482F44606DE3CE010E945B100E9456
:1024F000B5172B013C01CE010E945704882311F12E
:102500001093D103E881F9810088F189E02DEE2450
:10251000E39400E02F2DA501612FCE010995D09203
:10252000CD03C092CC03DF91CF911F910F91FF900B
:10253000EF90DF90CF90BF90AF907F906F905F90C3
:102540004F9008950E94B517DC01CB0184199509BD
:10255000A609B709883E9340A105B10588F6E88130
:10256000F9810480F581E02DCE010995C4CFCF9289
:10257000DF92EF92FF920F931F93CF93DF936C0143
:102580007A018B01C0E0D0E0CE15DF0589F0D801DB
:102590006D918D01D601ED91FC910190F081E02DBE
:1025A000C6010995892B11F47E0102C02196ECCF5A
:1025B000C701DF91CF911F910F91FF90EF90DF90B6
:1025C000CF900895FC01918D828D981761F0828DD6
:1025D000DF01A80FB11D5D968C91928D9F5F9F7357
:1025E000928F90E008958FEF9FEF0895FC01918DF9
:1025F000828D981731F0828DE80FF11D858D90E066
:1026000008958FEF9FEF0895FC01918D228D892F02
:1026100090E0805C9F4F821B91098F7399270895EA
:1026200082E994E00E94041321E0892B09F420E060
:10263000822F0895FC01848DDF01A80FB11DA35ADC
:10264000BF4F2C91848D90E001968F739927848FD2
:10265000A689B7892C93A089B1898C9180648C93C9
:10266000938D848D981306C00288F389E02D8081B4
:102670008F7D80830895EF92FF920F931F93CF93E6
:10268000DF93EC0181E0888F9B8D8C8D981305C0C2
:10269000E889F989808185FD24C0F62E0B8D10E034
:1026A0000F5F1F4F0F731127E02E8C8DE8120CC0A7
:1026B0000FB607FCFACFE889F989808185FFF5CF4D
:1026C000CE010E941A13F1CF8B8DFE01E80FF11D90
:1026D000E35AFF4FF0820B8FEA89FB898081806289
:1026E00007C0EE89FF896083E889F9898081806469
:1026F000808381E090E0DF91CF911F910F91FF9057
:10270000EF900895CF93DF93EC01888D8823C9F073
:10271000EA89FB89808185FD05C0A889B9898C91EA
:1027200086FD0FC00FB607FCF5CF808185FFF2CF85
:10273000A889B9898C9185FFEDCFCE010E941A132B
:10274000E7CFDF91CF91089580E090E0892B29F0C9
:102750000E94101381110C9400000895833081F0C1
:1027600028F4813099F08230A1F008958730A9F0E3
:102770008830B9F08430D1F4809180008F7D03C01F
:10278000809180008F7780938000089584B58F7743
:1027900002C084B58F7D84BD08958091B0008F778D
:1027A00003C08091B0008F7D8093B00008953FB743
:1027B000F8948091210490912204A0912304B09177
:1027C000240426B5A89B05C02F3F19F00196A11D32
:1027D000B11D3FBFBA2FA92F982F8827820F911DB7
:1027E000A11DB11DBC01CD0142E0660F771F881FFE
:1027F000991F4A95D1F70895089580E00895DC0166
:102800001A96ED91FC911B9720E030E00994DC01D1
:102810001696ED91FC91179720E030E040E069E1D9
:102820000994DC011696ED91FC91179720E030E0B9
:1028300040E068E109949A01DC011696ED91FC9163
:102840001797462F67E10994EF92FF920F931F931A
:10285000CF93DF931F92CDB7DEB77C018B01D801F8
:102860006C916731E1F078F46531A0F1F8014181B4
:102870004983D7011696ED91FC91179720E030E03F
:10288000C701099524C06A31A8F06E3F19F5F80117
:102890004181498369E2C7010E94FF1318C0F80112
:1028A00081818983AE014F5F5F4F61E0C7010E9464
:1028B0001B140DC00F5F1F4FD7011696ED91FC91B1
:1028C000179720E030E040E0C7010995C8CF0E5FC0
:1028D0001F4FC5CF0F90DF91CF911F910F91FF90A8
:1028E000EF900895462FDC011696ED91FC91179715
:1028F00020E030E066E10994462FDC011696ED9168
:10290000FC91179720E030E065E10994EF92FF9287
:102910000F931F93CF93DF93EC01142F79016D3048
:10292000A9F118F46B3039F15FC06E3009F441C081
:102930006F3009F059C00E941114F7018381088992
:10294000F8E08F9F000D112460E4CE010E947C14FA
:10295000602F62956F706061CE010E947C14602FC1
:102960006F70CE010E947214F7016481606BCE011A
:102970000E94721429C0411103C064E371E002C0D7
:102980006FE271E0CE010E94241471C0411108C0B1
:1029900068E271E00E942414E881F981828907C00D
:1029A00061E271E00E942414E881F9818389888BB7
:1029B0005EC00E94111461E8CE010E947C14612F58
:1029C000CE010E9472140CC0F701408151816281D6
:1029D000660F660F660FCE010E941B141150A1F7FF
:1029E000CE010E94071443C0693031F48EE691E0B5
:1029F00099838883188A3BC06A30B9F5EA85FB85DC
:102A000020E030E040E068E2CE010995EE81FF81F0
:102A100020E030E040E064E1CE01099541E06BE464
:102A2000CE010E94FF13E881F981448169E2CE0161
:102A30000E94FF1340E06BE4CE010E94FF13E88187
:102A4000F981448169E2CE010E94FF1341E06BE409
:102A5000CE010E94FF13E881F981458169E2CE0130
:102A60000E94FF1369E371E08DCF80E001C081E037
:102A7000DF91CF911F910F91FF90EF900895DC01AE
:102A80001896ED91FC91199720E030E040E069E163
:102A90000994DC011896ED91FC91199720E030E043
:102AA00040E068E10994662329F06A3019F0862F26
:102AB00090E008958FEF9FEF08950E944430CF93E8
:102AC000DF931F92CDB7DEB76983BE016F5F7F4F83
:102AD0000E94DC1C0F90DF91CF910895EF92FF923E
:102AE0001F93CF93DF93EC01162F7A010E944915B3
:102AF00060E4CE010E945F15E885F9859701412FBA
:102B000067E1CE010995CE01DF91CF911F91FF9032
:102B1000EF900C943F15EF92FF921F93CF93DF93AA
:102B200000D0CDB7DEB77C01142F673128F46531B2
:102B300040F4643149F141C0673191F06A3170F07D
:102B40003CC00E94491560E0C7010E945F15612FDB
:102B5000C7010E945F15C7010E943F1581E02EC08A
:102B6000A901193160F068E1C70129833A830E9405
:102B70006E15185129813A81285E3F4FF1CF612FA0
:102B8000C7010E946E15EACFDC0152968C915297D4
:102B90008F3F19F488E752968C93D7011896ED91E0
:102BA000FC911997412F64E1C7010F900F90DF91BD
:102BB000CF911F91FF90EF90099480E00F900F90BC
:102BC000DF91CF911F91FF90EF900895FC01962F18
:102BD0006831F1F0B901993150F4943169F09731CD
:102BE00089F550E08FE295E00E94900D0FC0993179
:102BF00031F1903259F026C010922604109225042B
:102C000010926F04109291040E947A0F81E008954F
:102C1000A081B1811D968C91843018F08CE0809356
:102C2000B800828990E09595879591E090936E0425
:102C30008093900410926F0410929104E7CF0E9449
:102C4000581DE4CF80E008951F920F920FB60F92A7
:102C500011242F933F934F935F936F937F938F93A1
:102C60009F93AF93BF93EF93FF9382E994E00E9409
:102C70001A13FF91EF91BF91AF919F918F917F9127
:102C80006F915F914F913F912F910F900FBE0F90D9
:102C90001F9018951F920F920FB60F9211242F9329
:102CA0008F939F93EF93FF93E091A204F091A3047D
:102CB0008081E091A804F091A90482FD12C0908166
:102CC0008091AB048F5F8F732091AC04821751F019
:102CD000E091AB04F0E0EE56FB4F958F8093AB0490
:102CE00001C08081FF91EF919F918F912F910F9063
:102CF0000FBE0F901F901895CF93DF93282F30E0D1
:102D0000F901E258FC4F8491F901E055FB4FD49151
:102D1000F901E456FB4FC491CC2391F081110E943C
:102D2000AE13EC2FF0E0EE0FFF1FEE56FB4FA59118
:102D3000B491EC91ED2381E090E021F480E002C0B9
:102D400080E090E0DF91CF9108951F93CF93DF93C0
:102D5000282F30E0F901E258FC4F8491F901E05549
:102D6000FB4FD491F901E456FB4FC491CC23C9F039
:102D7000162F81110E94AE13EC2FF0E0EE0FFF1F13
:102D8000EC58FC4FA591B4918FB7F894111105C080
:102D90009C91ED2FE095E92302C0EC91ED2BEC9393
:102DA0008FBFDF91CF911F910895CF93DF9390E074
:102DB000FC01E055FB4F2491FC01E456FB4F84914C
:102DC000882361F190E0880F991FFC01E659FC4FC0
:102DD000C591D491FC01EC58FC4FA591B4916111BF
:102DE00009C09FB7F8948881209582238883EC914D
:102DF0002E230BC0623061F49FB7F8943881822F84
:102E0000809583238883EC912E2B2C939FBF06C043
:102E10008FB7F894E8812E2B28838FBFDF91CF9155
:102E200008958F929F92AF92BF92CF92DF92EF92CE
:102E3000FF926B017C010E94D7134B015C01C1140E
:102E4000D104E104F104F1F00E94D713DC01CB01BD
:102E500088199909AA09BB09883E9340A105B105C3
:102E600070F321E0C21AD108E108F10888EE880E5B
:102E700083E0981EA11CB11CC114D104E104F1042B
:102E800019F7DDCFFF90EF90DF90CF90BF90AF901C
:102E90009F908F9008951F93CF93DF93EC01962F0F
:102EA000642F9C3270F49A3208F058C0983289F03E
:102EB000993209F03EC070E080E090E00E94111766
:102EC0004DC09D32B1F0A8F184EB890F823000F142
:102ED00030C06B9610E089918F3F39F0103110F4BB
:102EE00061E001C062E00E94D5161F5F163199F7BC
:102EF00035C0433018F082E090E002C085E090E0F9
:102F0000880F991F880F991F05970197F1F726C021
:102F10009F73C90FD11D411107C061E08B8D0E94C5
:102F2000D51660E08B8D10C062E08B8D0E94D516A7
:102F300015C09034A8F09F73FE01E90FF11D838D39
:102F40008F3F61F0903118F40E94A51607C00E94CF
:102F50007C1621E0892B09F420E02E8B81E001C052
:102F600080E0DF91CF911F9108952FB7F894609181
:102F70001D0470911E0480911F04909120042FBFA6
:102F800008951F920F920FB60F9211242F933F9323
:102F90008F939F93AF93BF9380911D0490911E04D4
:102FA000A0911F04B091200430911C0423E0230F52
:102FB0002D3720F40196A11DB11D05C026E8230F71
:102FC0000296A11DB11D20931C0480931D049093B3
:102FD0001E04A0931F04B0932004809121049091BB
:102FE0002204A0912304B09124040196A11DB11DD7
:102FF0008093210490932204A0932304B09324048B
:10300000BF91AF919F918F913F912F910F900FBEE4
:103010000F901F9018951F920F920FB60F921124C8
:103020002F933F934F935F936F937F938F939F93D0
:10303000AF93BF93EF93FF93E0910201F0910301EF
:103040000995FF91EF91BF91AF919F918F917F91E2
:103050006F915F914F913F912F910F900FBE0F9005
:103060001F9018951F920F920FB60F9211242F9355
:103070003F934F935F936F937F938F939F93AF9300
:10308000BF93EF93FF93E0910001F0910101099547
:10309000FF91EF91BF91AF919F918F917F916F9130
:1030A0005F914F913F912F910F900FBE0F901F9006
:1030B0001895462FDC011496ED91FC91159720E0B0
:1030C00030E06BE00994CF93DF93DC011C96ED9127
:1030D000FC911D9784913196E491681720F1E617D1
:1030E00010F170E0681B710983E0660F771F8A9505
:1030F000E1F7CB010296EA01665F7F4F1C96ED91E6
:10310000FC911D97E80FF91FE491E993019686174A
:103110009707A1F751968C91882399F0FA019A01AB
:10312000285F3F4F08C0FA01CA0108961192E817BC
:10313000F907E1F7EFCF808180958193E217F307DC
:10314000D1F7DF91CF910895AF92BF92CF92DF92E6
:10315000EF92FF920F931F93CF93DF93CDB7DEB71C
:103160002D970FB6F894DEBF0FBECDBFFC01F6A8B9
:103170006A3021F4F394F6AA15AA23C08C01E5A8BD
:103180006C0184E0C80ED11CDE0111965D01AD0119
:10319000C6010E946318EC86FD8681E08B87BA86A3
:1031A000A986D8011896ED91FC9119979E01275F89
:1031B0003F4F41E06FE0C6010995F80185A98F5F97
:1031C00085AB81E090E02D960FB6F894DEBF0FBE80
:1031D000CDBFDF91CF911F910F91FF90EF90DF90C6
:1031E000CF90BF90AF900895AF92BF92CF92DF92F1
:1031F000EF92FF920F931F93CF93DF93CDB7DEB77C
:103200002D970FB6F894DEBF0FBECDBFE82EA62EC9
:10321000109295058A01F12CCE0101966C01BB2418
:10322000B394F80161918F01E0918205F0918305DB
:1032300080E895E009958F3FFFEF9F07F1F08E3F03
:103240002FEF920771F3A601682F80E895E00E94A6
:103250006318EC86AD86BB86DA86C986E091840564
:10326000F09185059E01275F3F4F41E06FE080E8C8
:1032700095E00995E394F394D4CF8F2D2D960FB656
:10328000F894DEBF0FBECDBFDF91CF911F910F919C
:10329000FF90EF90DF90CF90BF90AF900895CF93C5
:1032A000DF93C82F809144058F3F39F580913B050E
:1032B00091E090936E048093900410926F041092AA
:1032C00091046C2F8FE295E00E94C00D0E94581D62
:1032D00062E080913B050E94FA1D8FE295E00E941A
:1032E000740DC82F8FE295E00E94740D20E030E04D
:1032F0003C2FE901C82BD92B29C0809147058F3F6E
:1033000021F482E591E00E94990F60E080914405EC
:103310000E94A5168C2F80680E94171D80E00E94D5
:10332000171DC82F80E00E94171D2C2F30E0322F70
:103330002227E901C82B61E0809144050E94A5166F
:10334000809147058F3F11F40E94980FCE01DF91C5
:10335000CF9108950E944F1998278927982708959B
:10336000CF9386E780933B05809144058F3F59F4C6
:10337000109226041092250410926F04109291046A
:103380000E947A0F1CC061E00E94A51661E0809146
:1033900044050E94D516809147058F3F19F40E947D
:1033A00025100DC061E00E94D51661E080914505B1
:1033B0000E94D51660E0809146050E94D51680EDEA
:1033C0000E94451E883519F0803609F09DC088E8B6
:1033D0000E94AA1990934905809348058AE80E94A3
:1033E000AA1990934B0580934A058CE80E94AA196C
:1033F00090934D0580934C058EE80E94AA199093F6
:103400004F0580934E0580E90E94AA1990935105BB
:103410008093500582E90E94AA19909353058093E6
:10342000520584E90E94AA1990935505809354058A
:1034300086E90E94AA19909357058093560588E95A
:103440000E94AA1990935905809358058AE90E9411
:10345000AA1990935B0580935A058CE90E94AA19DA
:1034600090935D0580935C058EE90E94AA19909364
:103470005F0580935E0581EA0E94451E809360058A
:1034800081EE0E94AA19909362058093610583EEF4
:103490000E94451E8093630584EE0E94451EC82F3E
:1034A00085EE0E94451E282F2F7030E1C39FC0017A
:1034B0001124822B909365058093640586EE0E940B
:1034C000451EC82F85EE0E94451E90E024E095958C
:1034D00087952A95E1F740E1C49F90011124822B42
:1034E000932B909367058093660587EE0E94451E97
:1034F0008093680565E082EF0E94B51D67EB84EF5D
:103500000E94B51D81E001C080E0CF91089523E5C0
:1035100035E130938305209382050C94F418EF92E3
:10352000FF920F931F93CF93DF93EC0161E084EB45
:1035300095E00E94EE032097C1F084EB95E00E9495
:10354000360E8EEB0E94C9048E017E0180E1E80EEA
:10355000F11CF80181918F010E94C9040E151F050D
:10356000C1F784EB95E00E94230E6DE384EB95E0B8
:103570000E949D108E7F41E0CD2B09F440E0482B46
:103580006DE384EB95E0DF91CF911F910F91FF9058
:10359000EF900C945B10CF92DF92EF92FF92CF935B
:1035A000C82F809144058F3F09F040C080913B05B2
:1035B00091E090936E048093900410926F041092A7
:1035C00091046C2F8FE295E00E94C00D0E94581D5F
:1035D00063E080913B050E94FA1D8FE295E00E9416
:1035E000740D6C01990FEE08FF08FE2CED2CDC2CFD
:1035F000CC248FE295E00E94740DAC01990F660B0C
:10360000770BC42AD52AE62AF72AFE2CED2CDC2CCF
:10361000CC248FE295E00E94740DAC01990F660BEB
:10362000770BC42AD52AE62AF72A33C080914705AA
:103630008F3F21F482E591E00E94990F60E0809134
:1036400044050E94A5168C2F80680E94171D80E0FB
:103650000E94171DC82ED12CE12CF12CFE2CED2C34
:10366000DC2CCC2480E00E94171DC82AFE2CED2CF7
:10367000DC2CCC2480E00E94171DC82A61E08091D8
:1036800044050E94A516809147058F3F11F40E94C2
:10369000980FC701B601CF91FF90EF90DF90CF90C8
:1036A00008958F929F92AF92BF92CF92DF92EF9246
:1036B000FF928AEF0E94CB1AEBE3F5E04585568531
:1036C0004A01A12CB12CC72ED82EE92EFF24E7FCED
:1036D000FA94C818D908EA08FB08DC01CB0137E0E6
:1036E000B595A795979587953A95D1F7B501A4011A
:1036F000440F551F661F771F4C015D01841A950A00
:10370000A60AB70AA5019401A785B0890E94532C87
:103710004B015C013BE0B594A794979487943A954C
:10372000D1F7A7019601C701B6010E94052C9B01A4
:10373000AC016CE055954795379527956A95D1F77B
:10374000A189B2890E94532CDC01CB017EE0B595A2
:10375000A795979587957A95D1F7A5019401280F9C
:10376000391F4A1F5B1F2583368347835087A5E097
:10377000B0E00E94482CDC01CB0180589F4FAF4F36
:10378000BF4F692F7A2F8B2F992787FD9A950E941B
:10379000D92E20E030E048EC52E40E94302EFF9019
:1037A000EF90DF90CF90BF90AF909F908F90089553
:1037B000EF92FF920F931F93CF93DF93EC01E62ECE
:1037C00008E010E0FF24F39461E08F2D8E2109F4CE
:1037D00060E0CE010E94C00FFF0C01501109A1F75B
:1037E000F894E981FA819181888180958923818388
:1037F000E981FA81928188818095892382837894F6
:10380000DF91CF911F910F91FF90EF9008956F92EC
:103810007F929F92AF92BF92CF92DF92EF92FF92F0
:103820000F931F93CF93DF931F92CDB7DEB78C0119
:10383000D62EE0916E05F0916F05138615861486DD
:10384000DF011B9633961E92AE17BF07E1F7C12C1E
:10385000BB24B39460906E0570906F05F30185856D
:10386000811169C0C3010E94EF0F81110AC0D30109
:103870001B961C921B971D961C921D971C961C92C2
:1038800075C060EFC3010E94D81BEE24E394A12C05
:10389000912CFF24F394C3010E949C0F682FC30155
:1038A00069830E949C0F6981613019F48130C9F4E9
:1038B00036C02A2D30E068131DC0F3018385F81649
:1038C00030F4E20FF31F83818E2159F402C0F81601
:1038D00041F060E0F8E0FF1560F0D3011C96FC9227
:1038E00008C0F301EA0DF11D83818E29838361E015
:1038F00009C09F2CF301E20FF31F93818E2D809559
:1039000089238383C3010E94C00FF394EE0C19F442
:10391000A394EE24E394B7E0BA1508F0BCCFE0E43A
:10392000EF1548F4D3011B969C921B97911008C089
:103930001D96BC9205C0F30113861586148616C029
:10394000F30183818823B9F33396A8018BE0680ED5
:10395000711CC8012191DC012D93CD01E615F705FD
:10396000C9F706C0C394DC1408F074CF80E015C01A
:10397000CD10F8CF88E0E0E0815049F0DA019D9168
:10398000AD01E927F0E0EE56FC4FE491F5CFD80108
:1039900017968C91E813E6CF81E00F90DF91CF91DD
:1039A0001F910F91FF90EF90DF90CF90BF90AF905D
:1039B0009F907F906F9008959B01DC011896ED9188
:1039C000FC91199741E067E109941F93CF93DF932E
:1039D00000D000D01F92CDB7DEB71C8221E02B8330
:1039E0009A838983E0918005F091810511891D8278
:1039F000A0918005B0918105E0918405F091850545
:103A00009E012F5F3F4F50964C916FE080E895E00C
:103A100009958D818F5F8D83811750F30F900F90E3
:103A20000F900F900F90DF91CF911F910895EF921B
:103A3000FF920F931F93CF93DF93909147059F3F82
:103A400041F4DF91CF911F910F91FF90EF900C9473
:103A5000C904D82F07E010E0C0E0EE24E394F12C75
:103A6000CC0F60E0809147050E94A516B701002E9B
:103A700001C0660F0A94EAF76D23809145050E9404
:103A8000A51661E0809147050E94A5168091460524
:103A90000E947C16892B09F0C1600150110900F7C2
:103AA0008C2FDF91CF911F910F91FF90EF90089590
:103AB0002091910490919004213208F04AC08091A5
:103AC0006D048111FCCF32E030936D0431E030930E
:103AD0006C043FEF30936B0410926A0420936904E6
:103AE000A0E7B4E049E454E0FA013E2F341B32175A
:103AF00018F43D913193F9CF109248042091480475
:103B0000990F922B9093480490914704913061F45F
:103B100010924704909148049093BB009091BC0090
:103B200093FDF8CF95EC01C095EE9093BC00909179
:103B30006D049230E1F390916B049F3F79F0809196
:103B40006B04803241F080916B04803331F084E06B
:103B500005C081E003C082E001C083E010926F04E1
:103B60001092910410926E040895CF93DF93D82F92
:103B7000C62F809144058F3FC9F480913B0591E0A9
:103B800090936E048093900410926F0410929104AD
:103B90006D2F8FE295E00E94C00D6C2F8FE295E0B3
:103BA0000E94C00DDF91CF910C94581D8091470564
:103BB0008F3F21F482E591E00E94990F60E08091AF
:103BC00044050E94A5168D2F8F770E94171D8C2FFC
:103BD0000E94171D61E0809144050E94A516809106
:103BE00047058F3F21F4DF91CF910C94980FDF911F
:103BF000CF91089590916D049111FCCF613208F03E
:103C000060E291E090936D0490936C042FEF209309
:103C10006B0410926A04260F209369049093480461
:103C200090914804880F892B809348048091470421
:103C3000813061F410924704809148048093BB0066
:103C40008091BC0083FDF8CF85EC01C085EE8093A8
:103C5000BC0080916D048130E1F380916A04861785
:103C600010F460916A04A9E4B4E027E234E0F901B9
:103C70008E2F821B861718F48D918193F9CF1092A5
:103C8000260460932504862F0895CF93C82F809132
:103C900044058F3FE9F480913B0591E090936E04D9
:103CA0008093900410926F04109291046C2F8FE215
:103CB00095E00E94C00D0E94581D61E080913B0577
:103CC0000E94FA1D8FE295E00E94740DC82F20C05B
:103CD000809147058F3F21F482E591E00E94990F82
:103CE00060E0809144050E94A5168C2F80680E9498
:103CF000171D80E00E94171DC82F61E080914405C8
:103D00000E94A516809147058F3F11F40E94980FDD
:103D10008C2FCF910895CF93DF93CDB7DEB7CC56DC
:103D2000D1090FB6F894DEBF0FBECDBF789484B52D
:103D3000826084BD84B5816084BD85B5826085BDA7
:103D400085B5816085BD80916E00816080936E0035
:103D50001092810080918100826080938100809127
:103D600081008160809381008091800081608093D8
:103D700080008091B10084608093B1008091B00098
:103D800081608093B00080917A00846080937A0093
:103D900080917A00826080937A0080917A008160BD
:103DA00080937A0080917A00806880937A001092E4
:103DB000C1000E942E0B80E090E00E94B9338F3F3B
:103DC00031F400E010E05CE1F52EF00E16C08FE15A
:103DD00090E00E94B9338F3AA1F762E08FE00E9431
:103DE000D51661E070E080E090E00E9411178FE04E
:103DF0000E947C16892B29F333C060E0C8010E9421
:103E0000CB330F5F1F4FF012F8CF6FEF8AE190E0D6
:103E10000E94CB336EEF8BE190E00E94CB3361E0E8
:103E20008CE190E00E94CB3361E08DE190E00E9454
:103E3000CB3362E08EE190E00E94CB336FEA8FE1FA
:103E400090E00E94CB3360E080E290E00E94CB33B0
:103E500041E150E061E270E08EEC91E00E94C133FC
:103E600030E0C32E30E0D32E0AEE12E0F02E41E215
:103E7000E42EE00EC6010E94B933D8018D938D0166
:103E8000BFEFCB1ADB0AE012F5CFE7ECF2E01192BC
:103E900011921192119222E0E33EF207C1F7409194
:103EA000080320E137E2429FC001439F900D112497
:103EB000092E000CAA0BBB0B8093180390931903D7
:103EC000A0931A03B0931B034091020328E833E147
:103ED000429FC001439F900D1124092E000CAA0B94
:103EE000BB0B8093100390931103A0931203B09324
:103EF000130340910103429FC001439F900D112481
:103F0000AC01092E000C660B770B40930B0350930A
:103F10000C0360930D0370930E03892B19F010921C
:103F2000E50203C081E08093E50261E085E00E9444
:103F3000D51661E086E00E94D51661E087E00E9418
:103F4000D51661E082E00E94D51661E087E00E940C
:103F5000A51661E082E00E94A51665E070E080E0B1
:103F600090E00E94111760E082E00E94A5166AE0CE
:103F700070E080E090E00E941117409106030091EC
:103F800005039EE2DE0111966D01FD01292F1192BC
:103F90002A95E9F781E0898384E08A8332E03B83D4
:103FA00023E02D833E838F8380E4888735E0398743
:103FB0002A8726E02B8723E32C8737E03D8728E0FC
:103FC0002F8729E0298B29E12B8B22E42C8B55E2CA
:103FD0005D8B8E8B56E25F8B388F38E2398F30E104
:103FE0003A8F39E23B8F3CED3C8F9D8F98E89E8F56
:103FF0009FE29F8F9DE298A390E399A337E33BA3B1
:1040000030E93CA338E33DA32EA32CE32FA32FE8F4
:1040100028A72DE329A722E12AA72FE62BA79CA7F3
:104020009FEF9DA79CE69E87888B4AA361E08091C5
:10403000B6050E94A51661E08091B6050E94D516CE
:104040000E9425100E94B5174B015C014AEA6FE2FD
:1040500084EB95E00E945B106FE284EB95E00E9498
:104060009D108A3A61F00E94B517DC01CB018819D6
:104070009909AA09BB09C297A105B10538F30E94A5
:10408000B5174B015C0145E56FE284EB95E00E94BA
:104090005B106FE284EB95E00E949D10853561F026
:1040A0000E94B517DC01CB0188199909AA09BB093F
:1040B000C297A105B10538F310E0F601E10FF11D3B
:1040C000E10FF11D60816F3F39F0418184EB95E094
:1040D0000E945B101F5FF1CF80E090E00E948F1A7A
:1040E0006091BC0584EB95E00E94C71061E084EB11
:1040F00095E00E94EE030E94B5174B015C0167E258
:1041000084EB95E00E949D1087FD0CC00E94B517BE
:10411000DC01CB0188199909AA09BB09C297A1053D
:10412000B10568F30E94B517DC01CB018819990924
:10413000AA09BB09C297A105B10578F51092C6027C
:104140008091B8058230C8F4E82FF0E0EE0FFF1F31
:10415000E050FF4F22E13EE031832083813039F08F
:1041600080916900836080936900E89A06C080911D
:1041700069008C6080936900E99A84EB95E09093E4
:10418000C5028093C4020093B90567E00E949D10A8
:1041900067E084EB95E00E949D106FE184EB95E071
:1041A0000E94D40341E150E061E270E0CE018F96BD
:1041B0000E94A933CE018F960E948F1A84EB95E05E
:1041C0000E94F00D8091F40281110BC08091F502E4
:1041D000811107C08091F602811103C08091F7021E
:1041E0008111109204010AEE12E092E1A92E91E0F1
:1041F000B92E37E0F30ED501ED905D01BAE0EB1674
:1042000091F0F8019081692F61708E2DAD969FAF6E
:10421000AD970E94D516AD969FADAD97692F627090
:104220008E2D0E94A516D8018D918D0182FF03C0AD
:104230008E2D0E94380BF012DECF8091FE0280FF9F
:1042400004C061E086E00E94A5168091F90281FF1A
:1042500008C060E080E00E94D51661E081E00E9425
:10426000D5168091FA02887109F46CC0E09184053A
:10427000F091850520E030E040E06AE080E895E0DC
:10428000099588E0F60111928A95E9F7C6010E9426
:10429000E51C60E080E895E00E94591860E080E845
:1042A00095E00E945918E0918405F091850520E081
:1042B00030E0409104036EE080E895E0099588E6DF
:1042C00090E090938D0580938C0586E0E8E0F1E026
:1042D000D60101900D928A95E1F71F821886198602
:1042E0001A86809105034AE0BE01605C7F4F90E032
:1042F0000E94D53043E050E0BE01605C7F4FC601B4
:104300000E946D30A60162E084E00E94871A6FED82
:1043100071E0C6010E946630809106034AE0BE014A
:10432000605C7F4F90E00E94D53043E050E0BE01DA
:10433000605C7F4FC6010E946D30A60163E084E09F
:104340000E94871A80E290E00E94B9338111C9C0AF
:1043500061E080E290E00E94CB3399E288E10FB601
:10436000F894A895809360000FBE90936000F89435
:1043700021E030E080E80FB6F8948093610020934C
:1043800061000FBE00916600F0908000E090810017
:10439000B0908200A0906F009090B0008090B1002B
:1043A000709070006090B6001092800010928100B2
:1043B0001092820010926F001092B0001092B10023
:1043C000109270001092B60066E284EB95E00E94B5
:1043D0009D10582E45E066E284EB95E00E945B104C
:1043E0001092700083B5826883BD80E48093B6002C
:1043F0008091B60080628093B60081E08093B10026
:104400001092B00093B59F7793BDB89BFECF87E025
:1044100087BB81E08093810080E88093660011E093
:1044200021E837E0112311F1B89BFCCF23BD37BB46
:10443000809184009091850010FD15C0AC014D5F06
:1044400053404730510590F08115944010F00C9482
:104450003C2A909166009F5F9093660010928500C1
:104460001092840001C013BC1F5FDCCF7894452DEF
:1044700066E284EB95E00E945B10F0928000E0928F
:104480008100B0928200A0926F009092B000809262
:10449000B100709270006092B60087E286BB87E040
:1044A00087BB13BC111115C0009366008FE0E0E1DB
:1044B000F2E0D60101900D928A95E1F788ECE82EA2
:1044C00005E02FE0A6016091070384EB95E00E94D0
:1044D0006D0360E080E290E00E94CB330E942E0BDF
:1044E00013C086E1EFE1F2E0D60101900D928A95CA
:1044F000E1F708ECE02E05E026E1A6016091070354
:1045000084EB95E00E946D038091FA0281FF35C033
:10451000E091A204F091A30482E08083E0919E04E4
:10452000F0919F041082E091A004F091A1048FEC1F
:1045300080831092AA04E091A604F091A70486E07B
:104540008083E091A404F091A50480818061808340
:10455000E091A404F091A504808188608083E091BB
:10456000A404F091A504808180688083E091A40474
:10457000F091A50480818F7D80838091F90282FF74
:1045800017C00E94B019811113C081E1E5E3F2E088
:10459000D60101900D928A95E1F718ECE12E05E025
:1045A00021E1A6016091070384EB95E00E946D0371
:1045B00080910003811111C083E1898380910501FD
:1045C000882359F0B8ECEB2E05E021E0A6016091BC
:1045D000070384EB95E00E946D0360E080E290E0C9
:1045E0000E94CB3384E1E6E4F2E0D60101900D9223
:1045F0008A95E1F7A8ECEA2E05E024E1A601609196
:10460000070384EB95E00E946D0360E087E00E9461
:10461000A5169E012F5F3F4F29963FAF2EAF2997DA
:10462000285FAC962FAFAC971091FE0213FF04C029
:1046300060E087E00E94A51611FF21C00E94B51717
:104640000091200310912103209122033091230334
:10465000DC01CB01801B910BA20BB30B893B9B4070
:10466000A105B10564F00E94B51760932003709313
:10467000210380932203909323030E94DF0461E0CF
:1046800080E00E94F0040E94B51700911C03109175
:104690001D0320911E0330911F03DC01CB01801B01
:1046A000910BA20BB30BC0901803D0901903E090AC
:1046B0001A03F0901B0320910601C816D906EA06DA
:1046C000FB0618F0222309F4FEC5222351F0809145
:1046D000F90280FF06C068EE73E080E090E00E947F
:1046E0001117109206010E94B51760931C03709376
:1046F0001D0380931E0390931F0380910003882362
:1047000019F081E00E94D3068091F90280FFEDC08C
:10471000F12C6E018FE2C80ED11C08E0E02EEC0CEB
:1047200080916D05F81608F0D7C084E494E7A0E006
:10473000B0E024968CAF9DAFAEAFBFAF2497279665
:104740001DAE1EAE1FAE27976F2DC6010E94071C1F
:10475000811105C060E070E08EEF92EC9DC0809109
:104760006E0590916F050E94EF0F811103C060E804
:1047700074EE81C000916E0510916F0565E5C8016A
:104780000E94D81B5601D5016D915D01C8010E94A0
:10479000D81BEA10F8CF6EEB80916E0590916F05F3
:1047A0000E94D81B8E010F5F1F4F580128963FAC07
:1047B0002897F9E03F0E60906E0570906F05F8E065
:1047C0008F2E912C44244394512CC3010E949C0FA2
:1047D00081115428440C21E0821A9108B1F7D501C7
:1047E0005D925D013A12E7CF80916E0590916F0561
:1047F0000E94EF0F813009F0BACFE0E0AC96BFAD78
:10480000AC97B01749F0D8018D918D01E827F0E001
:10481000EE56FC4FE491F2CF8985E813A8CF698169
:10482000E8E06E9FB00111248A81282F30E0322FFA
:104830002227330F330F330F262B372B8FA58031D1
:10484000C9F4688570E08F81AB01481B5109CA012A
:104850009695982F8827979587950E94152C6051DB
:104860007109207F53E0220F331F5A95E1F7620F41
:10487000731F01C0B901613854EE75070CF46ACF9B
:10488000072E000C880B990B0E94D92E20E030E0F7
:1048900040E05CE30E94D72F8E010F5F1F4F21E0A5
:1048A00043E00E948C306F2D00E010E0C8010E94B0
:1048B000071C43E050E0B801CE01805C9F4F0E948E
:1048C0006D3040E0BE016F5F7F4FCE01805C9F4F37
:1048D0000E947F05F39424CF811107C040E065EE6C
:1048E00071E08AEE91E00E947F058091F90281FFDC
:1048F00007C041E06EEE71E088EF91E00E947F0515
:104900008091F90282FF08C40E94511B8E010F5F43
:104910001F4F21E043E00E948C3040E0B8018DEF52
:1049200091E00E947F050E94511B87EF0E94CB1AE5
:10493000A8966CAF7DAF8EAF9FAFA89780914005D2
:1049400090914105A0914205B09143056C017D0114
:10495000FF0CCC08DC2C76019C01AD016C2D7C2D6C
:104960008C2D9C2D345F41405109610971098109E9
:1049700091092A962FAF2A972B963FAF2B972C960B
:104980004FAF2C972D965FAF2D972E966FAF2E972A
:104990002F967FAF2F9760968FAF609761969FAFEE
:1049A000619759016A017B018C010E945B2C6D9615
:1049B0002FAF6D976E963FAF6E976F964FAF6F9715
:1049C000A0965FAFA097A1966FAFA197A2967FAF79
:1049D000A297A3968FAFA397A4969FAFA497909109
:1049E0005805A9969FAFA997A09159056296AFAFB8
:1049F0006297B0915605AA96BFAFAA97E091570566
:104A00006396EFAF6397F0915405AB96FFAFAB970A
:104A10002091550564962FAF6497B0905105A090F2
:104A200050051B2D110F110BC12ED12EE12EF12E91
:104A3000012F2A962FAD2A972B963FAD2B972C96B8
:104A40004FAD2C972D965FAD2D972E966FAD2E976F
:104A50002F967FAD2F9760968FAD609761969FAD33
:104A600061970E945B2C0CE00E948B2D19012A019A
:104A70003B014C01B0905305A09052051B2D110F26
:104A8000110BC12ED12EE12EF12E012F6D962FADDF
:104A90006D976E963FAD6E976F964FAD6F97A096E0
:104AA0005FADA097A1966FADA197A2967FADA2979B
:104AB000A3968FADA397A4969FADA4970E945B2C5D
:104AC00008E00E94A42D51016201730184010E943B
:104AD000C22D70588F4F9F4F20904E0530904F053C
:104AE0005101C12CD12CE12CF12C00E010E00E94EE
:104AF0005B2C01E20E94A42D65962FAF6597669608
:104B00003FAF669767964FAF679768965FAF6897B6
:104B100069966FAF69976A967FAF6A976B968FAF0A
:104B20006B976C969FAF6C97A0E00E94D42D09F410
:104B3000E3C1A996AFACA99762961FAD6297110F1A
:104B4000110B6296BFAC6297C12ED12EE12EF12ED1
:104B5000012F6D962FAD6D976E963FAD6E976F9648
:104B60004FAD6F97A0965FADA097A1966FADA1973F
:104B7000A2967FADA297A3968FADA397A4969FAD63
:104B8000A4970E945B2C19012A013B014C01AA96B3
:104B9000AFACAA9763961FAD6397110F110B639685
:104BA000BFAC6397C12ED12EE12EF12E012F2A9694
:104BB0002FAD2A972B963FAD2B972C964FAD2C9768
:104BC0002D965FAD2D972E966FAD2E972F967FADBC
:104BD0002F9760968FAD609761969FAD61970E9409
:104BE0005B2C01E10E948B2D59016A017B018C0134
:104BF0009101A201B301C4010E94C22D19012A0131
:104C00003B014C01A8964CAD5DAD6EAD7FADA89754
:104C1000E4E07595679557954795EA95D1F780E05B
:104C200090E0A0E1B0E0841B950BA60BB70B6C01E4
:104C30007D01FF0CCC08DC2C76019C01AD016C2DB4
:104C40007C2D8C2D9C2D0FE10E948B2DB22FA32F3C
:104C5000F42FE52F2A966FAF2A972B967FAF2B97CD
:104C60002C968FAF2C972D969FAF2D97AB962FAD8F
:104C7000AB9764969FAD6497990F990B64963FAD7F
:104C80006497492F592F692F792F892F03E20E94AA
:104C90008B2D59016A017B018C019101A201B301A5
:104CA000C4010E94C22D59016A017B018C012B2F86
:104CB0003A2F4F2F5E2F2A966FAD2A972B967FADF6
:104CC0002B972C968FAD2C972D969FAD2D970E94EC
:104CD000CB2D722E832E942EB52FA62FF72FE82FD3
:104CE000592E03E00E948B2DA72CB82CC92CDB2E4B
:104CF000EA2EFF2E0E2F152D0E94CB2D59016A0191
:104D00007B01682E192F03E00E948B2D062D0E9437
:104D1000CB2D03E00E948B2DA72CB82CC92CDB2EA9
:104D2000EA2EFF2E0E2F152D0E94CB2D02E00E94A1
:104D30008B2D0E2F0E94CB2D01E00E948B2D0E2F6C
:104D40000E94CB2D6596AFAC65976696BFAC669713
:104D50006796CFAC67976896DFAC68976996EFACBB
:104D600069976A96FFAC6A976B960FAD6B976C96D6
:104D70001FAD6C970E94B62C2A962FAF2A972B96C0
:104D80003FAF2B972C964FAF2C972D965FAF2D975B
:104D90002E966FAF2E972F967FAF2F9760968FAF7F
:104DA000609761969FAF61970DE00E94A42D322E0F
:104DB000432E542E652E762E872E982E292E309136
:104DC0005F0520915E05932F990F990BA32CB42CAE
:104DD000C52CD62CE72CF82C092D122D492F592F34
:104DE000692F792F892F0E945B2C0E945B2C09E18F
:104DF0000E94A42D59016A017B018C012A962FADD6
:104E00002A972B963FAD2B972C964FAD2C972D962E
:104E10005FAD2D972E966FAD2E972F967FAD2F9766
:104E200060968FAD609761969FAD61970E94C22D8D
:104E300019012A013B014C0130915D0520915C056F
:104E4000932F990F990B2A96AFAC2A972B96BFAC4C
:104E50002B972C96CFAC2C972D96DFAC2D972E96BA
:104E6000EFAC2E972F96FFAC2F9760960FAD609703
:104E700061961FAD6197492F592F692F792F892F7F
:104E80000E945B2C03E10E94A42D59016A017B0161
:104E90008C019101A201B301C4010E94C22D08E05E
:104EA0000E94A42D39014A01B62FA72FF82FE92F10
:104EB00030915B0520915A05932F990F990B492F3B
:104EC000592F692F792F892F04E00E948B2D5901CA
:104ED0006A017B018C019301A4016B2F7A2F8F2F24
:104EE0009E2F0E94C22D0E94D12E20E030E040E88B
:104EF0005BE30E94D72F03C060E070E0CB0120E0AD
:104F000030E048EC52E40E94302E6B017C0120E03E
:104F100030E0A9010E942B2E811102C00E94B0191D
:104F20008E010F5F1F4F21E043E0C701B6010E94D1
:104F30008C3040E0B80180E092E00E947F050E9442
:104F4000511B8DEF0E944F198090400590904105B4
:104F5000A0904205B09043053CE2931A31E0A30AC9
:104F6000B1086C01E12CF12CFEE0CC0CDD1CEE1C38
:104F7000FF1CFA95D1F74091640550916505052E07
:104F8000000C660B770BA4E1440F551F661F771FBB
:104F9000AA95D1F7C41AD50AE60AF70AA0916605C0
:104FA000B0916705A50194010E94532CC61AD70A37
:104FB000E80AF90A40E4D40EE11CF11CBFE0F594C4
:104FC000E794D794C794BA95D1F7A09168050A2EB3
:104FD000000CBB0BA50194010E94532C2B013C013A
:104FE0001AE075946794579447941A95D1F7A09155
:104FF0006305B0E00E94482CDC01CB010BE0B595C5
:10500000A795979587950A95D1F7BC01CD01705862
:105010008F4F9F4FA30192010E94052CDC01CB0111
:105020002AE0B595A795979587952A95D1F79C0184
:10503000AD01405E5F4FA0916105B09162050E9495
:10504000532CDC01CB01905EAF4FBF4FBC01CD01B3
:105050003EE095958795779567953A95D1F7A701A5
:1050600096010E94052C6B017C014FE09595879578
:10507000779567954A95D1F79B01AC010E94052C65
:105080009B01AC0167E055954795379527956A9543
:10509000D1F7A0916005B0E00E94482CDC01CB0163
:1050A00074E0B595A795979587957A95D1F7A7015F
:1050B0009601281B390B4A0B5B0BDA01C90157FF1C
:1050C00003C080E090E0DC0181309105A10539E169
:1050D000B30724F080E090E0A0E0B9E1BC01CD018D
:1050E000ECE09595879577956795EA95D1F70E94BD
:1050F000D92E20E030E040E85AE30E94D72F8E01FD
:105100000F5F1F4F21E043E00E948C3040E0B80168
:1051100083E092E00E947F0574EFE72E72E0F72EA5
:10512000C12CD12CD7018C91882309F47BC021E4B8
:1051300039E640E050E02FA738AB49AB5AAB1CAA88
:105140001BAAF601EE5EFE4F12854AE0BE01605CCE
:105150007F4F812F90E00E94D53042E050E0BE01A9
:10516000605C7F4FCE018F960E946D301E3008F03C
:105170001E5017708091040130E4839FC0011124F8
:10518000182B10937C0080917A00806480937A00C1
:1051900080917A0086FDFCCF0091780080917900A3
:1051A00010E0182BD7018C91982F9F7001F584FF88
:1051B0001EC080E00E94D306BC0180E090E00E9407
:1051C000D72E20E030EC4FE754E40E94302E4B0104
:1051D0005C01B80180E090E00E94D72E9B01AC01F9
:1051E000C501B4010E94D72F0E94A22E8B01F701A6
:1051F000808186FF02C0000F111F87FF04C0000FCF
:10520000111F000F111F4AE0BE016F5F7F4FC801E1
:105210000E94D53040E0BE016F5F7F4FCE018F9678
:105220000E947F05FFEFCF1ADF0A2FEFE21AF20A82
:1052300034E0C316D10409F075CF37ECE32E32E029
:10524000F32E4AEEC42E42E0D42E00E010E0D60148
:105250008D916D0187FF2CC023E63FE540E050E0D3
:105260002FA738AB49AB5AAB1BAA4AE0BE01605C22
:105270007F4FC8010E94D53042E050E0BE01605C23
:105280007F4FCE018F960E946D30D7016D917D9139
:105290008D919C912AE0AE014F5F5F4F0E94E030FC
:1052A00040E0BE016F5F7F4FCE018F960E947F0569
:1052B0000F5F1F4FB4E0EB0EF11C0730110539F6FC
:1052C00081E00E94920B80E00E94920B0E94B51731
:1052D00000911003109111032091120330911303D8
:1052E000C0901403D0901503E0901603F0901703BC
:1052F000DC01CB018C199D09AE09BF0908171907FC
:105300002A073B0720F080910F038823A9F0012B87
:10531000022B032B89F00E94B5176093140370933E
:105320001503809316039093170341E066E072E043
:105330008DE092E00E947F0540E068EA72E0CB01D8
:105340000E947F050E94B5170091E6021091E702C6
:105350002091E8023091E902DC01CB01801B910B26
:10536000A20BB30B00910B0310910C0320910D03C2
:1053700030910E03081719072A073B0708F502E1C9
:1053800011E02AEEE22E22E0F22EF80127E0E20FF1
:10539000DE2ED7018D917D0185FF0BC084FF04C0F7
:1053A00061E0F801808103C060E0D8018C910E9427
:1053B000A5160F5F1F4FD012ECCF81E08093E5025E
:1053C00080910003882309F44CC08091FF02882358
:1053D00009F447C08091E502882309F442C081E1C5
:1053E0008FA780910501882369F098ECE92E05E0EC
:1053F00021E0AE01415D5F4F6091070384EB95E0D2
:105400000E946D0300E010E00E944E07882311F017
:1054100000E010E061E070E080E090E00E94111791
:105420000F5F1F4F033CB1E01B0770F382E18983DC
:1054300080910501882369F088ECE82E05E021E0E1
:10544000AE014F5F5F4F6091070384EB95E00E94D0
:105450006D0361E080E00E94F0048091E50281111B
:1054600010C08091FE0283FF04C061E087E00E94CB
:10547000A5160E94A413D8C89091660091500C9470
:105480002C2240E068EA72E0CB010E947F05109177
:10549000FE02012F087013FF04C060E087E00E9445
:1054A000A5161092E4021092E302002321F060E0BE
:1054B00086E00E94A51612FD04C060E086E00E940E
:1054C000A51660E084EB95E00E94EE038091F9025E
:1054D00082FF08C084EF0E94451E682F6C7F84EF16
:1054E0000E94B51D8091FA02887149F08091FE02F8
:1054F00084FD05C061E080E895E00E945918F090B5
:105500007C0010927C00E0907A0010927A00D0909B
:1055100064001092640021E688E190E00FB6F894F0
:10552000A895809360000FBE2093600000E010E01B
:10553000809100039091FF02899FC00111240817F8
:10554000190708F58091FE028670863049F461E003
:105550000E94A5160E94DF0460E086E00E94A51666
:1055600083B7817F846083BF83B7816083BF789472
:1055700083B7816083BF889583B78E7F83BF809117
:10558000E4028823C1F00E942E0BD0926400F092B6
:105590007C00E0927A0081E0809305018091F9021D
:1055A00082FF14C084EF0E94451E682F636084EF61
:1055B0000E94B51D0BC08091E302882321F0109258
:1055C000E302015011090F5F1F4FB2CF8091FE021D
:1055D00080FF04C061E086E00E94A5168091FA0277
:1055E000887129F060E080E895E00E945918809168
:1055F000FE0283FF04C061E086E00E94A51681E000
:105600008093060180930F032CCFCF9310929504C3
:105610001092940488EE93E0A0E0B0E080939604AA
:1056200090939704A0939804B09399042AE831E0EA
:10563000309393042093920425EC30E030939F0440
:1056400020939E0424EC30E03093A1042093A00426
:1056500020EC30E03093A3042093A20421EC30E04E
:105660003093A5042093A40422EC30E03093A704E7
:105670002093A60426EC30E03093A9042093A804DC
:105680001092AB041092AC041092AD041092AE04D0
:1056900010923205109231058093330590933405B2
:1056A000A0933505B09336058AE991E090933005D3
:1056B00080932F0582EB91E09093B5058093B4051C
:1056C00088E08093B60583E08093B70581E08093FE
:1056D000B8058093B3051092BA058FE18093BB059E
:1056E0001092BC0510927F0510927E051092B105B4
:1056F0001092B2058AEA91E090937D0580937C0533
:1057000010928105109280051092910510929405D7
:10571000109295058FEF8093920580939705EBE9A2
:10572000F5E09FEF86E18E0FCFEF91938E13FCCFC4
:1057300086E894E190938505809384058BE895E154
:10574000909387058093860586EE95E19093890571
:10575000809388058BE497E190938B0580938A056D
:1057600020E030E040E069E080E895E00E948614A7
:10577000C093A605C093A705C093A80560E089E083
:105780000E94D516E9EBF4E0E491E093BF05E5EA69
:10579000F4E0E491F0E0EE0FFF1FEE56FB4F859131
:1057A00094919093C1058093C0051092CA05109200
:1057B000CC051092CB05EAECF5E0129285E0E23CD4
:1057C000F807D9F78FEE9DE090937B0580937A05DB
:1057D0008FEB95E090936F0580936E0510926D05A9
:1057E0001092690589E080936A0581E080936B05DA
:1057F00080936C058FEF80934405809345058093DB
:10580000460580934705CF910895DB018F939F93C1
:105810000E94482CBF91AF91A29F800D911DA39F24
:10582000900DB29F900D1124089597FB072E16F44A
:10583000009407D077FD09D00E94E02D07FC05D029
:105840003EF4909581959F4F0895709561957F4F97
:105850000895052E97FB1EF400940E94402C57FDDE
:1058600007D00E94F42D07FC03D04EF40C94402C7A
:1058700050954095309521953F4F4F4F5F4F08957C
:1058800090958095709561957F4F8F4F9F4F0895AC
:105890000E941C2EA59F900DB49F900DA49F800D7B
:1058A000911D11240895B7FF0C94482C0E94482C98
:1058B000821B930B0895DF93CF931F930F939A9DB1
:1058C000F02D219FF00D8B9DF00D8A9DE02DF10DA7
:1058D000039FF00D029FE00DF11D4E9DE00DF11DA7
:1058E0005E9DF00D4F9DF00D7F936F93BF92AF9231
:1058F0005F934F93D5010E941C2E8B01AC01D70101
:105900000E941C2EEB01E80FF91FD6010E94AB2C60
:105910002F913F91D6010E941C2EC60FD71FE81F62
:10592000F91FAF91BF910E94AB2C2F913F910E9424
:105930001C2EC60FD71FE81FF91FD6010E941C2E70
:10594000E60FF71F9801BE01CF0111240F911F919F
:10595000CF91DF9108950E941C2E460F571FC81F3C
:10596000D91F08F431960895689401C0E894F92F7E
:10597000F12B12F00C94E82CA0E0B0E0E2ECFCE299
:105980000C945A2D092E059422F40E94442D1123C3
:1059900092F4F0E80F26FFEFE094F0940095109554
:1059A000B094C094D094A194BF0ACF0ADF0AEF0A42
:1059B000FF0A0F0B1F0B0E94F32C07FC0E94442DC3
:1059C000CDB7DEB7ECE00C94762D689401C0E89476
:1059D0008F929F92CF93DF930E94F32CDF91CF9110
:1059E0009F908F90089588249924F401E401B0E4F5
:1059F0009F93AA279A158B049C04ED05FE05CF05FD
:105A0000D007A10798F4AD2FDC2FCF2FFE2FE92D63
:105A1000982C892E982F872F762F652F542F432F60
:105A2000322F2227B85031F7BF9127C01B2EBF91CC
:105A3000BB27220F331F441F551F661F771F881F68
:105A4000991F881C991CEE1FFF1FCC1FDD1FAA1F6A
:105A5000BB1F8A149B04EC05FD05CE05DF05A007DE
:105A6000B10748F08A189B08EC09FD09CE09DF0947
:105A7000A00BB10B21601A94E1F62EF49401AF0152
:105A8000BE01CD01000C08956095709580959095AC
:105A900030954095509521953F4F4F4F5F4F6F4F39
:105AA0007F4F8F4F9F4F08952F923F924F925F925B
:105AB0006F927F928F929F92AF92BF92CF92DF921E
:105AC000EF92FF920F931F93CF93DF93CDB7DEB783
:105AD000CA1BDB0B0FB6F894DEBF0FBECDBF099417
