:100000000C94E0020C943A170C9413170C944B08C0
:100010000C94131C0C94D61B0C94C71B0C94080353
:100020000C9408030C9408030C9408030C94080324
:100030000C9408030C9408030C9408030C94080314
:100040000C94C9160C9408030C94BC150C949615CA
:100050000C9408030C9408030C9408030C940803F4
:100060000C94EC0F0C94080300407A10F35A00A093
:10007000724E18090010A5D4E80000E87648170071
:1000800000E40B54020000CA9A3B000000E1F505B1
:10009000000080969800000040420F000000A086FB
:1000A00001000000102700000000E803000000002D
:1000B0006400000000000A000000000001000000D1
:1000C00000002C76D888DC674F0823DFC1DFAE59EB
:1000D000E1B1B796E5E3E453C63AE651997696E87E
:1000E000E6C28426EB898C9B62ED407C6FFCEFBC02
:1000F0009C9F40F2BAA56FA5F490055A2AF75C932D
:100100006B6CF9676DC11BFCE0E40D47FEF520E662
:10011000B500D0ED902E0300943577050080841E45
:10012000080000204E0A000000C80C333333330FA0
:10013000986E12831141EF8D2114893BE65516CF3D
:10014000FEE6DB18D1844B381BF77C1D901DA4BB49
:10015000E424203284725E228100C9F124ECA1E5FE
:100160003D27207F000000000000000000065F5FC8
:10017000060000000007070007070000147F7F1437
:100180007F7F1400242E6B6B3A12000046663018F5
:100190000C666200307A4F5D377A4800040703002E
:1001A00000000000001C3E63410000000041633E6F
:1001B0001C000000082A3E1C1C3E2A0808083E3E7F
:1001C000080800000080E06000000000080808083F
:1001D0000808000000006060000000006030180C9B
:1001E000060301003E7F71594D7F3E0040427F7FF4
:1001F00040400000627359494F660000226349493C
:100200007F360000181C16537F7F50002767454536
:100210007D3900003C7E4B49793000000303717941
:100220000F070000367F49497F360000064F4969B5
:100230003F1E0000000066660000000000407636A9
:1002400000000000081C3663410000002424242420
:1002500024240000004163361C08000002035159A9
:100260000F0600003E7F415D5D1F1E007C7E131364
:100270007E7C0000417F7F49497F36001C3E634100
:1002800041632200417F7F41633E1C00417F7F49E3
:100290005D416300417F7F491D0103001C3E6341B6
:1002A000517372007F7F08087F7F000000417F7FCD
:1002B00041000000307040417F3F0100417F7F08D6
:1002C0001C776300417F7F41406070007F7F0E1C80
:1002D0000E7F7F007F7F060C187F7F001C3E6341EE
:1002E000633E1C00417F7F49090F06001E3F2171BC
:1002F0007F5E0000417F7F09197F660022674D59AC
:100300007322000003417F7F410300007F7F404054
:100310007F7F00001F3F60603F1F00007F7F30181D
:10032000307F7F0043673C183C674300074F787875
:100330004F070000476371594D677300007F7F418D
:10034000410000000103060C183060000041417FAD
:100350007F000000080C0603060C080080808080E7
:100360008080808000000307040000002074545443
:100370003C784000417F3F4848783000387C444416
:100380006C280000307848493F7F4000387C545446
:100390005C180000487E7F490302000098BCA4A4BA
:1003A000F87C0400417F7F08047C780000447D7D58
:1003B0004000000060E08080FD7D0000417F7F10F4
:1003C000386C440000417F7F400000007C7C18387E
:1003D0001C7C78007C7C04047C780000387C4444DD
:1003E0007C38000084FCF8A4243C1800183C24A4A9
:1003F000F8FC8400447C784C041C1800485C54547D
:100400007424000000043E7F442400003C7C4040F3
:100410003C7C40001C3C60603C1C00003C7C703814
:10042000707C3C00446C3810386C44009CBCA0A02C
:10043000FC7C00004C64745C4C64000008083E774F
:100440004141000000000077770000004141773E05
:1004500008080000020301030203010070784C4603
:100460004C787000005EBCE2613FDD83C29C7E2060
:10047000A3FD1F419DC3217FFCA2401E5F01E3BD80
:100480003E6082DC237D9FC1421CFEA0E1BF5D0374
:1004900080DE3C62BEE0025CDF81633D7C22C09E68
:1004A0001D43A1FF4618FAA427799BC584DA386654
:1004B000E5BB5907DB856739BAE406581947A5FB40
:1004C0007826C49A653BD987045AB8E6A7F91B4534
:1004D000C6987A24F8A6441A99C7257B3A6486D828
:1004E0005B05E7B98CD2306EEDB3510F4E10F2AC14
:1004F0002F7193CD114FADF3702ECC92D38D6F3100
:10050000B2EC0E50AFF1134DCE90722C6D33D18FF3
:100510000C52B0EE326C8ED0530DEFB1F0AE4C12E7
:1005200091CF2D73CA947628ABF517490856B4EAD3
:100530006937D58B5709EBB536688AD495CB2977BF
:10054000F4AA4816E9B7550B88D6346A2B7597C9B3
:100550004A14F6A8742AC896154BA9F7B6E80A54A7
:10056000D7896B3500000000240027002A00000016
:100570000000250028002B000000000800020100F8
:10058000000304070000000000000000000000005D
:1005900023002600290004040404040404040202C5
:1005A00002020202030303030303010204081020F2
:1005B0004080010204081020010204081020212FAD
:1005C00011241FBECFEFD8E0DEBFCDBF12E0A0E008
:1005D000B1E0EEEEFFE602C005900D92A63FB10736
:1005E000D9F726E0A6EFB2E001C01D92A930B2070C
:1005F000E1F712E0C0EED2E004C02197FE010E94B4
:10060000A737CF3DD107C9F70E9490220C94F53748
:100610000C940000282F883038F08E3040F086315E
:1006200048F4ECE6F0E008C0EDE6F0E005C0EBE6EB
:10063000F0E002C0E0E0F0E03081283060F481E0DA
:1006400090E0A0E0B0E004C0880F991FAA1FBB1F74
:100650002A95D2F715C0822F90E0AC012E3018F405
:100660004850510902C04E50510981E090E0A0E08D
:10067000B0E004C0880F991FAA1FBB1F4A95D2F78C
:100680008095832380830895CF92DF92EF92FF922B
:100690000F931F93CF93DF936C01EB017B01E40E6B
:1006A000F51E00E010E0CE15DF0561F06991D6017E
:1006B000ED91FC910190F081E02DC6010995080FA4
:1006C000191FF1CFC801DF91CF911F910F91FF90BA
:1006D000EF90DF90CF900895089580E090E0089526
:1006E000CF93DF93C0E1D7E261E085E00E94171667
:1006F00060E085E00E9417162197B1F7DF91CF9156
:1007000008953F924F925F926F927F928F929F9245
:10071000AF92BF92CF92DF92EF92FF920F931F930F
:10072000CF93DF93CDB7DEB76F970FB6F894DEBFE8
:100730000FBECDBF2C013B01342E6DE370E02F8F37
:100740000E945F30F82EF30101900020E9F7319705
:100750006F01C618D7082F8D21111092C5033110D3
:1007600002C014E001C016E00E94BD168090C103D3
:100770009090C203A090C303B090C403DC01CB01EE
:1007800088199909AA09BB0980319742A105B105C9
:1007900068F00E94BD166093C1037093C2038093FA
:1007A000C3039093C40381E080930501460199241B
:1007B0008F0C911CA12EB12CC4018A0D9B1DCD97CD
:1007C0000CF031C1FC2C809105012091C5038823D8
:1007D00009F451C0822F90E0A401480F591F4A0D1F
:1007E0005B1D4D3351052CF4C1104EC0222309F47A
:1007F0004BC0FC01ED57FC4F3DE730836091470350
:100800002F5F93E2E92E05E043E853E080EF95E0A7
:100810000E94C81781112CC06091450370E080E0F0
:1008200090E00E941C3426E636E646EA5FE30E942A
:100830001A350E94E5330E94831660914703209188
:10084000C5032F5F43E853E080EF95E00E94C8178F
:10085000182F81110DC00E94BD166093C1037093C3
:10086000C2038093C3039093C40310920501F8C0A0
:100870001092C50309C0C11007C080910501222351
:1008800019F0813008F4E9C08091C503E82FF0E049
:100890008E0E9F1EA80CB91C9CE3A916B1040CF087
:1008A000DCC0FF2009F4DBC0ED57FC4F882331F09A
:1008B0008F5F8093C5038CE280835BC081E080936F
:1008C000C5038BE7808386E0E8E8F2E0DE01599615
:1008D00001900D928A95E1F72091C50380E0E82F01
:1008E000E20FA9E1B0E0AC0FBD1FA80FB11D9C91B4
:1008F000992331F0F0E0ED57FC4F90838F5FEFCFFD
:10090000E093C50380917F0390918003A0918103C0
:10091000B09182030196A11DB11D80937F03909336
:100920008003A0938103B09382034AE0BE016F5F0E
:100930007F4F0E946A305091C50330E0232F250F6E
:10094000E1E0F0E0EC0FFD1FE30FF11D4081822F8D
:1009500090E0442331F0FC01ED57FC4F40833F5FB2
:10096000EDCF2F5F2093C503FC01ED57FC4F2CE228
:100970002083E091C50351E05E0F5093C503F0E082
:10098000ED57FC4F82E2808390E0892F850FF201C2
:10099000E90FF11D4081282F30E0F901ED57FC4FA0
:1009A000442319F040839F5FF0CF92E29083E2E00E
:1009B000E80FE093C503A1E0A80FB0E0AD57BC4F2E
:1009C0002AE32C93332039F08D5F8093C503F0E048
:1009D000ED57FC4F90835091C503262DD301452F31
:1009E0004619842F8A0F90E03D918D579C4FFC0152
:1009F00030838A2F821B8F15A0F3C50EC092C503CA
:100A0000332051F081E08C0D8093C503EC2DF0E094
:100A1000ED57FC4F82E28083E091C503F0E0ED5793
:100A2000FC4F10821CC088E1EEE8F2E0DE01119676
:100A300001900D928A95E1F780910501882369F074
:100A40006091470383E2E82E05E028E1AE014F5FA5
:100A50005F4F80EF95E00E94C81710E001C011E0E1
:100A6000812F6F960FB6F894DEBF0FBECDBFDF911A
:100A7000CF911F910F91FF90EF90DF90CF90BF909B
:100A8000AF909F908F907F906F905F904F903F902E
:100A90000895CF92DF92EF92FF921F93CF93DF934F
:100AA000CDB7DEB72A970FB6F894DEBF0FBECDBF25
:100AB000182F8EE480937C0062E070E080E090E08C
:100AC0000E94831690917A00906490937A008091AE
:100AD0007A0086FDFCCF209178008091790030E08B
:100AE000382B40E050E06CE374EF80E190E00E942E
:100AF000AB3569017A01112381F04AE0BE016F5FD5
:100B00007F4FC6010E946A3020E040E0BE016F5F67
:100B10007F4F86EA92E00E948103C6012A960FB6B3
:100B2000F894DEBF0FBECDBFDF91CF911F91FF9034
:100B3000EF90DF90CF90089584B7877F84BFE0E681
:100B4000F0E0808188618083108208950F931F9365
:100B5000CF93DF93082F10921B0480913E0383FFF5
:100B600004C060E086E00E94171680913E0382FD7B
:100B700004C060E086E00E94171660E080EF95E018
:100B80000E94A7198091390382FF08C084EF0E9458
:100B90004A22682F6C7F84EF0E94BA2180913E0325
:100BA00085FF07C021E040E06AED72E0CB010E94C2
:100BB000810380913A0384FD04C080913A0383FF4E
:100BC00004C080913E0384FF9EC0D0917C001092AF
:100BD0007C0010917A0010927A00C091640010920B
:100BE0006400809140038F3F09F097C080913F03DC
:100BF0008F3F09F092C0002349F08091400390910B
:100C00003F03899FC0011124019735C080E090E027
:100C100032C080913E0381FD3AC083B7817F8460FA
:100C200083BF83B7816083BF789483B7816083BFBC
:100C3000889583B78E7F83BF80913A0384FD84C0FB
:100C400080913A0383FD80C08091390383FF06C001
:100C500064E670E080E090E00E9483168091C90312
:100C600081111AC080911B04882371F110921B041A
:100C700083E090E001962091400330913F03239F51
:100C8000900111248217930708F4C3CF05C0809107
:100C90003E0382FD4EC0C1CF0E949C05C0936400FC
:100CA000D0937C0010937A0081E0809305018091BD
:100CB000390382FF0CC084EF0E944A22682F6360D0
:100CC00084EF0E94BA2103C084E090E0D3CF8091EA
:100CD0003E0380FF04C061E086E00E941716809109
:100CE0003A0384FD3FC080913A0383FD3BC080916D
:100CF0003E0383FF3DC061E086E0DF91CF911F910D
:100D00000F910C94171680913E0387FD5ECF61E032
:100D10008CEB95E00E94611758CF91E628E130E016
:100D20000FB6F894A895209360000FBE90936000D2
:100D300062CF61E086E00E9417160E94700360E0B7
:100D400086E00E94171669CF80913E0387FF7CCF13
:100D5000C093640061E08CEB95E00E9461171092F3
:100D6000640072CF60E08CEB95E00E946117BFCF0A
:100D7000DF91CF911F910F910895883038F08E3018
:100D800040F0863148F4ECE6F0E008C0EDE6F0E033
:100D900005C0EBE6F0E002C0E0E0F0E090818830D2
:100DA00068F441E050E060E070E0082E04C0440FB9
:100DB000551F661F771F0A94D2F714C0282F30E002
:100DC0008E3018F42850310902C02E50310941E00C
:100DD00050E060E070E004C0440F551F661F771FAD
:100DE0002A95D2F7492B40832BB3883050F031E05D
:100DF0008E3008F430E091E001C0990F3A95EAF79F
:100E000001C094E0922B9BBB90916800883050F019
:100E100021E08E3008F420E081E001C0880F2A959F
:100E2000EAF701C084E0892B8093680008952F922F
:100E30003F924F925F926F927F928F929F92AF926A
:100E4000BF92CF92DF92EF92FF920F931F93CF93B7
:100E5000DF93CDB7DEB72C970FB6F894DEBF0FBE89
:100E6000CDBF90910701892B8093070182E1E82E85
:100E700081E0F82E99EF892E92E0992E00E010E0A3
:100E8000AA24A394B12C30E7232E3FE5332E412C26
:100E9000512CF70180810E94EE1531E0019709F095
:100EA00030E0C801865D9C4F6C01FC01808183FFAE
:100EB00006C0808182FF03C0808187FFB4C0632E9B
:100EC000712C8091C803482F50E0002E02C0559528
:100ED00047950A94E2F7417055276416750629F480
:100EE00090910701992309F476C0F601908196FF4D
:100EF00045C029823A824B825C821D824AE0BE0153
:100F0000675F7F4FC8013C870E946A3042E050E033
:100F1000BE01675F7F4FCE0101960E94D6374AE03F
:100F2000BE016A5F7F4FC3010E946A3020E041E04A
:100F3000BE016A5F7F4FCE0101960E9481033C850E
:100F40008823C1F02091C803332351F0A501002E5E
:100F500001C0440F0A94EAF7422B4093C8030AC029
:100F6000C501002E01C0880F0A94EAF780958223FC
:100F70008093C803F1E0F093C9030EC0A501002ED1
:100F800001C0440F0A94EAF7332311F0842B02C006
:100F9000409584238093C80380911503811158C024
:100FA000332309F448C0F6018081F70183FF3FC075
:100FB00080810E94BD06F601808187FF0CC0F4018C
:100FC00080819181A281B3810196A11DB11D808391
:100FD0009183A283B3830F5F1F4F8FEFE81AF80A44
:100FE00094E0890E911C0730110509F052CF109240
:100FF000070180E02C960FB6F894DEBF0FBECDBF80
:10100000DF91CF911F910F91FF90EF90DF90CF90E4
:10101000BF90AF909F908F907F906F905F904F9018
:101020003F902F900895E1E0E093C90348CF80817D
:101030000E940A03C0CFF6018081F70182FF04C03D
:1010400080810E94BD06C7CF80810E940A03C3CF62
:10105000F1E0F093C90380910701811103C0F1E031
:10106000F09316034091C803332351F09501002EED
:1010700001C0220F0A94EAF7242B2093C803ABCFB8
:10108000C501002E01C0880F0A94EAF780958423D9
:101090008093C803A0CF1F920F920FB60F92112416
:1010A0002F933F934F935F936F937F938F939F9370
:1010B000AF93BF93CF93EF93FF93F89462E070E008
:1010C00080E090E00E948316789483B78E7F83BF80
:1010D000C09105011092050180E00E94170781E090
:1010E00080932503C093050180931B04FF91EF912A
:1010F000CF91BF91AF919F918F917F916F915F91B0
:101100004F913F912F910F900FBE0F901F90189508
:10111000CF93DF93662309F48FC0D091C7038091EA
:10112000C603D81709F4AAC080E00E940A0381E030
:101130000E940A0360E080E00E94171660E081E0F0
:101140000E94171680913A0380FF04C060E081E09E
:101150000E94471665E070E080E090E00E948316F0
:1011600080E00E94EE15892B09F49CC081E00E946A
:10117000EE15892B09F496C0CCE361E080E00E9473
:10118000471665E070E080E090E00E94831661E021
:1011900081E00E94471664E170E080E090E00E94E8
:1011A000831660E080E00E94471665E070E080E012
:1011B00090E00E94831660E081E00E94471664E19F
:1011C00070E080E090E00E948316C150B1F66AE0C2
:1011D00070E080E090E00E948316CD1751F161E04D
:1011E00081E00E94471665E070E080E090E00E9498
:1011F000831661E080E00E94471664E170E080E0C1
:1012000090E00E94831660E081E00E94471665E04E
:1012100070E080E090E00E94831660E080E00E9431
:10122000471664E170E080E090E00E948316CF5F93
:10123000D4CFC093C60321C0853028F0880F8950D1
:101240008093C70302C01092C70380913A0380FFC6
:1012500004C060E081E00E94471665E070E080E035
:1012600090E00E94831680E00E94EE15892BE1F049
:1012700081E00E94EE15892BB9F0C1E080913A031C
:1012800080FF04C061E081E00E9447168091150351
:10129000882331F080E00E94BD0681E00E94BD06F7
:1012A0008C2F04C080E002C0C0E0E8CFDF91CF9176
:1012B00008952F923F924F925F926F927F928F92FA
:1012C0009F92AF92BF92CF92DF92EF92FF920F93D5
:1012D0001F93CF93DF93CDB7DEB7CE5ED1090FB6A4
:1012E000F894DEBF0FBECDBF80EF95E00E946B1774
:1012F000282E882309F43CC480913E0383FF04C058
:1013000061E085E00E941716E0905D048091590429
:1013100090915A04F0905E040F2D10E0A8016CE14A
:1013200074E0CE018F559F4F0E94B23780915B04CD
:10133000882329F080915C048F3F09F01EC480EF60
:1013400095E00E946B1780914703E812FBC3E1EA26
:10135000F0E0EC0FFD1FE00FF11F1082312C8E0129
:101360000F551F4FE4E18E2EF4E19F2E62E27FE2E3
:10137000C8010E94BB37009709F08C016FE570E04F
:10138000C8010E94BB375C01232D30E0009709F4AF
:101390008BC07C01E01AF10A81E0E81AF108B8017B
:1013A0006F5F7F4F829E6001839ED00C1124A70146
:1013B00081E090E08C0F9D1F8C0D9D1D0E94E637F3
:1013C000EC0CFD1CE1E0F0E0EC0FFD1FEE0DFF1D4D
:1013D0001082CC24C394C30C85010F5F1F4F62E2BF
:1013E0007FE2C8010E94BB375C01009711F43C2CDE
:1013F000BDCF7C01E01AF10A9C9C60011124A70179
:10140000B80181E090E08C0F9D1F8C0D9D1D0E9406
:10141000E637EC0CFD1CE1E0F0E0EC0FFD1FEE0DFB
:10142000FF1D108272E0E72EE30C85010F5F1F4F56
:1014300062E27FE2C8010E94BB37009711F43E2CA4
:1014400095CF8C010F5F1F4F62E27FE2C8010E94BF
:10145000BB375C01009799F36C01C01AD10A9E9CBE
:1014600070011124A601B80181E090E08C0F9D1F4E
:101470008E0D9F1D0E94E637EC0CFD1CE1E0F0E0B4
:10148000EC0FFD1FEE0DFF1D108263E0E62EE30C56
:1014900085010F5F1F4F62E27FE2C8010E94BB37E8
:1014A000009769F28C01CBCF44E1429FC001439F7A
:1014B000900D112444E150E0B801E1E0F0E0EC0FC0
:1014C000FD1F8E0F9F1F0E94E637C451DF4F188209
:1014D000CC5ED04010E004E157E7452E5FE5552E85
:1014E000612C712C2EED30E02C0F3D1F2C5F3F4FF7
:1014F000C351DF4F39832883CD5ED040A12EB12C5C
:101500006BEA72E081E090E08C0F9D1F019F800DDF
:10151000911D11240E94C637892B09F090C0C50186
:101520000196089F6001099FD00C112481E090E092
:101530008C0F9D1FC80ED91EC6010E9441307C0130
:101540009FE1E916F1040CF07AC0E2E0AE0EB11CA6
:101550000A9DC0010B9D900D112421E030E02C0F5D
:101560003D1F820F931F0E9441305701BB24F5019C
:10157000E050F0404F01682FCF010E946033C4015A
:101580000E944E339501265D3C4F5901F90180833D
:101590002091480330E0A0E1B7E20E94CA35609391
:1015A00026037093270380932803909329032091A7
:1015B000420330E0A8E8B3E10E94CA3560932103FA
:1015C000709322038093230390932403209141037B
:1015D00030E00E94CA356093190370931A03809318
:1015E0001B0390931C03C252DF4F488259826A82C8
:1015F0007B82CE5DD040C351DF4FE881F981CD5E63
:10160000D04026E011922A95E9F742E050E0B60179
:10161000CE0182529F4F0E94D637F5016081CE01E4
:1016200082529F4F0E94271E1E5F8CEE8E0D8530CA
:1016300030F0F1E0C451DF4FF883CC5ED040E12EB2
:10164000F12C6FED72E081E090E08C0F9D1F019F07
:10165000800D911D11240E94C637892BA1F5C2521D
:10166000DF4F488259826A827B82CE5DD040C3516F
:10167000DF4FE881F981CD5ED04026E011922A95B6
:10168000E9F7C7010196089F7001099FF00C11242A
:1016900081E090E08C0F9D1FE80EF91E42E050E0C3
:1016A000B701CE0182529F4F0E94D637C7010E94D8
:1016B0004130865D9C4FFC016081CE0182529F4F7C
:1016C0000E94271E1E5F812E912CAA24A394B12C68
:1016D000AC0EBD1E019FA00CB11C11246DEA72E07E
:1016E000C5010E94C637892B49F063E172E0C5014C
:1016F0000E94C637892B09F445C089C0E12CF12C22
:101700009701265D3C4F6901F9018081882389F1A9
:10171000C252DF4F488259826A827B82CE5DD040BE
:10172000CE51DF4F1882C25ED0404AE0BE01685100
:101730007F4FC7010E946A3044E050E0BE0168510B
:101740007F4FCE0182529F4F0E94D637F601808193
:101750004AE0BE0168517F4F90E00E946A3020E06D
:1017600041E0BE0168517F4FCE0182529F4F0E94DF
:101770008103FFEFEF1AFF0A2FE1E216F10409F0EF
:10178000BFCFB3CFC4010196089F7001099FF00C31
:10179000112481E090E08C0F9D1FE80EF91EC70117
:1017A0000E944130865D9C4FFC01808185FD109236
:1017B0001703F2E08F0E911C089D6001099DD00C6B
:1017C000112421E030E02C0F3D1FC20ED31E62EB2E
:1017D00072E0C6010E94C637892B39F4C7010E9406
:1017E00041308E5E9E4F61E00DC063EE72E0C60137
:1017F0000E94C637892B51F4C7010E9441308E5E8A
:101800009E4F60E0FC0180810E9417161E5FE12E52
:10181000F12CAA24A394B12CAC0EBD1E019FA00CE8
:10182000B11C112464EB72E0C5010E94C637892BFC
:1018300009F060C0C7010296089F6001099FD00CA3
:10184000112421E030E02C0F3D1FC20ED31E68EBA7
:1018500072E0C6010E94C637F70131964F01892B0D
:10186000E9F40E9F60010F9FD00C112421E030E0BD
:101870002C0F3D1FC20ED31EC6010E9441308F5D4A
:101880009E4F61E0FC0180810E94171664E670E0C3
:1018900080E090E00E948316C60123C062EB72E0F4
:1018A000C6010E94C637892B89F4089DC001099D95
:1018B000900D112421E030E02C0F3D1F820F931F6B
:1018C0000E9441308F5D9E4F61E010C0089DC001B5
:1018D000099D900D112421E030E02C0F3D1F820F57
:1018E000931F0E9441308F5D9E4F60E0FC0180811C
:1018F0000E9417166EEB72E0C5010E94C637892B55
:10190000D1F497012E5F3F4F029FC001039F900DBE
:10191000112441E150E061E270E021E030E02C0F61
:101920003D1F820F931F0E94563331E0C451DF4F99
:101930003883CC5ED04068E072E0C5010E94C637B3
:10194000892B09F060C080913A0383FF2CC0C70146
:101950000196089F6001099FD00C112481E090E05E
:101960008C0F9D1FC80ED91EC6010E94413062E037
:10197000680F4EEC52E084E00E94E31DC6010E9415
:10198000413092E0E90EF11C0E9DA0010F9D500D1B
:101990001124E1E0F0E0EC0FFD1F4E0F5F1F62E04D
:1019A000680F84E02DC080913A0384FF2BC0C701EB
:1019B0000196089F6001099FD00C112421E030E0BE
:1019C0002C0F3D1FC20ED31EC6010E94413042ECB7
:1019D00052E0682F80E00E94E31DC6010E94413062
:1019E00032E0E30EF11C0E9DA0010F9D500D11245D
:1019F000E1E0F0E0EC0FFD1F4E0F5F1F682F80E06D
:101A00000E94E31D1E5FE12EF12CCC24C394D12C47
:101A1000CC0EDD1E019FC00CD11C112460E172E0D0
:101A2000C6010E94C637892B19F5F1E0F093150322
:101A300022E0E20EF11C0E9DC0010F9D900D1124BD
:101A4000E1E0F0E0EC0FFD1F8E0F9F1F0E94413080
:101A500060E00E94880820E041E0811103C06BED46
:101A600072E002C065EE72E081EE92E00E948103B6
:101A70006FE172E0C6010E94C637892B31F50E94E2
:101A8000BD1660931D0370931E0380931F039093F4
:101A9000200360911D0370911E0380911F0390919C
:101AA00020032AE0AE0142525F4F0E94753020E0D1
:101AB00040E0BE0162527F4F8EE292E00E948103BD
:101AC00010921803109217031E5F1F5F311608F063
:101AD00015CDC451DF4FF881CC5ED040FF2309F40F
:101AE0003EC082E1C252DF4F8883CE5DD0408091FC
:101AF0000501882369F06091470393E2E92E05E030
:101B000021E0AE0142525F4F80EF95E00E94C8177E
:101B100020E041E068EE72E08AEF91E00E948103EC
:101B200020E040E06AED72E0CB010E94810398E082
:101B300088E10FB6F894A895809360000FBE90934B
:101B40006000FFCF6091470383E2E82E05E02F2D70
:101B5000AE014F555F4F80EF95E00E94C81780910E
:101B60003E0383FF12C060E085E00E9417160DC09F
:101B700080EF95E00E946B1708C040E06AED72E0CC
:101B800080EF95E00E94DC18DACB822DC251DF4F46
:101B90000FB6F894DEBF0FBECDBFDF91CF911F917E
:101BA0000F91FF90EF90DF90CF90BF90AF909F90FC
:101BB0008F907F906F905F904F903F902F900895FF
:101BC000662329F06A3019F0862F90E008958FEF90
:101BD0009FEF089585ED8093BC008091BC0084FD4B
:101BE000FCCF1092A90408954091ED03262F30E018
:101BF000240F311D21323105DCF42091A904243059
:101C0000C9F4FC0180E090E0861758F43091ED03B0
:101C10002191DC01A553BC4FA30FB11D2C9301965C
:101C2000F3CF8091ED03680F6093ED0380E008959A
:101C300081E0089582E008950895E0916204809122
:101C40006104E81730F4F0E0ED59FB4F808190E03B
:101C500008958FEF9FEF0895909162048091610441
:101C6000981750F4E92FF0E0ED59FB4F208130E058
:101C70009F5F9093620402C02FEF3FEFC901089568
:101C80008091610490E020916204821B9109089583
:101C9000CF92DF92EF92FF920F931F93CF93DF9338
:101CA0007C01262F972F8A018091AA04882391F026
:101CB000C62FD72F6E01C40ED51ECC15DD0571F0D1
:101CC0006991D701ED91FC910190F081E02DC70160
:101CD0000995F3CF642F822F0E94F40DC801DF9184
:101CE000CF911F910F91FF90EF90DF90CF900895CB
:101CF000CF93DF931F92CDB7DEB769832091AA04FB
:101D00002223D1F02091CD04203240F021E030E0B8
:101D1000FC013383228380E090E015C08091AB0406
:101D2000E82FF0E0E455FB4F998190838F5F80931B
:101D3000AB048093CD0405C061E0CE0101960E9402
:101D4000F40D81E090E00F90DF91CF910895089518
:101D50001F93CF93DF93EC01962F642F9C3270F486
:101D60009A3208F058C0983289F0993209F03EC092
:101D700070E080E090E00E9483164DC09D32B1F08B
:101D8000A8F184EB890F823000F130C06B9610E02F
:101D900089918F3F39F0103110F461E001C062E0A9
:101DA0000E9447161F5F163199F735C0433018F06F
:101DB00082E090E002C085E090E0880F991F880FD4
:101DC000991F05970197F1F726C09F73C90FD11D81
:101DD000411107C061E08B8D0E94471660E08B8D3A
:101DE00010C062E08B8D0E94471615C09034A8F099
:101DF0009F73FE01E90FF11D838D8F3F61F09031DC
:101E000018F40E94171607C00E94EE1521E0892BD6
:101E100009F420E02E8B81E001C080E0DF91CF91BA
:101E20001F9108951F93CF93DF93EC01162F61113B
:101E300002C045E501C04DE56AE5CE010E943618B5
:101E4000111102C040E701C04CE76CE5CE01DF9103
:101E5000CF911F910C943618CF93DF93EC016887D4
:101E6000611102C04AE101C04FE063E1CE010E946E
:101E700036188885882341F061E1CE010E945E1802
:101E80008F71482F406602C04F81406861E1CE01EA
:101E9000DF91CF910C943618CF93DF931F92CDB77B
:101EA000DEB76983BE016F5F7F4F0E94E1200F9014
:101EB000DF91CF910895CF93DF93DC011C96ED91D4
:101EC000FC911D9784913196E491681720F1E617F3
:101ED00010F170E0681B710983E0660F771F8A9527
:101EE000E1F7CB010296EA01665F7F4F1C96ED9108
:101EF000FC911D97E80FF91FE491E993019686176D
:101F00009707A1F751968C91882399F0FA019A01CD
:101F1000285F3F4F08C0FA01CA0108961192E817DE
:101F2000F907E1F7EFCF808180958193E217F307FE
:101F3000D1F7DF91CF910895AF92BF92CF92DF9208
:101F4000EF92FF920F931F93CF93DF93CDB7DEB73E
:101F50002D970FB6F894DEBF0FBECDBFFC01F6A8DB
:101F60006A3021F4F394F6AA15AA23C08C01E5A8DF
:101F70006C0184E0C80ED11CDE0111965D01AD013B
:101F8000C6010E945B0FEC86FD8681E08B87BA86D6
:101F9000A986D8011896ED91FC9119979E01275FAB
:101FA0003F4F41E06FE0C6010995F80185A98F5FB9
:101FB00085AB81E090E02D960FB6F894DEBF0FBEA2
:101FC000CDBFDF91CF911F910F91FF90EF90DF90E8
:101FD000CF90BF90AF9008951F920F920FB60F92BF
:101FE00011242F933F934F935F936F937F938F931E
:101FF0009F93AF93BF93EF93FF938091B900887F36
:10200000803609F49CC068F5883209F45BC090F40E
:10201000803109F454C038F4882309F4F6C08830BC
:1020200009F44DC0F6C0883109F44CC0803209F47F
:102030005DC0EFC0803409F468C048F4803309F40F
:1020400055C0883309F0E5C08093A704D8C0803517
:1020500009F44FC0883509F45DC0883409F0D9C04F
:10206000D6C0883909F4C7C0A8F4883709F467C016
:1020700038F4883609F463C0803709F460C0C9C0F9
:10208000883809F4B8C0803909F45FC0803809F095
:10209000C0C05BC0803B09F486C038F4803A09F4C4
:1020A00066C0883A09F47FC0B4C0803C09F4A7C078
:1020B000883C09F4A4C0883B09F48AC0AAC0809176
:1020C000840410C09091A6048091A504981770F51F
:1020D000E091A60481E08E0F8093A604F0E0EB5718
:1020E000FB4F80818093BB0085EC86C08093A70462
:1020F0008EC0E091A60481E08E0F8093A6048091AB
:10210000BB00F0E0EB57FB4F80839091A6048091D9
:10211000A5046EC0E091A60481E08E0F8093A60412
:102120008091BB00F0E0EB57FB4F80838091A804C7
:1021300081116DC081E08093830484EA61C083E0F3
:102140008093A90410921104CFCF809111048032A2
:1021500008F051C0E091110481E08E0F80931104CA
:102160008091BB00F0E0EF50FC4F8083BDCF85EC49
:102170008093BC001092A90480911104803230F445
:10218000E0911104F0E0EF50FC4F108260911104D7
:1021900070E0E091EF03F091F00381EF93E0099597
:1021A0001092110436C084E08093A9041092EE03CB
:1021B0001092ED03E091EB03F091EC03099580910F
:1021C000ED03811105C081E08093ED031092CB03F4
:1021D000E091EE0381E08E0F8093EE03F0E0E55393
:1021E000FC4F80818093BB009091EE038091ED03C2
:1021F000981708F479CF85E88093BC000AC085EC75
:102200008093BC001092A90404C01092A7040E94FD
:10221000EA0DFF91EF91BF91AF919F918F917F91C7
:102220006F915F914F913F912F910F900FBE0F9043
:102230001F9018951092A90481E08093A804109231
:10224000830461E082E10E94171661E083E10E944D
:102250001716E9EBF0E080818E7F808380818D7F8F
:10226000808388E48093B80085E48093BC0008955F
:10227000FC01962F6831F1F0B901993150F4943195
:1022800069F0973189F550E08BE695E00E94480EA1
:102290000FC0993131F1903259F026C0109262048A
:1022A000109261041092AB041092CD040E941A1196
:1022B00081E00895A081B1811D968C91843018F041
:1022C0008CE08093B800828990E09595879591E0A5
:1022D0009093AA048093CC041092AB041092CD0486
:1022E000E7CF0E945D21E4CF80E0089508958CBD82
:1022F0009DBD0895DC01E0E0615038F08D91E82744
:10230000F0E0EC59FB4FE491F7CF8E2F0895CF9278
:10231000DF92EF92FF920F931F93CF93DF931F9261
:10232000CDB7DEB78C01F62E65E579830E945F1F7D
:10233000CF2C7981D72E760188E0E80EF11CF601CA
:1023400061916F01C8010E945F1FCE14DF04B9F7CD
:102350000F90DF91CF911F910F91FF90EF90DF9041
:10236000CF900895FC0190810180F281E02DF894D6
:102370008181892B81832281892F80952823228343
:10238000A7E0B0E01197F1F7218182238183A3E2D6
:10239000B0E01197F1F780817894EFECF0E031979D
:1023A000F1F7982381E009F480E00895FC01908121
:1023B0000180F281E02D892F809560FF12C0F89492
:1023C0002281822382838181892B8183A3E2B0E0F1
:1023D0001197F1F78281982B9283789487ED90E0A2
:1023E00011C0F8942281822382838181892B818389
:1023F000AFEFB0E01197F1F78281982B9283789438
:102400008FE090E00197F1F70895FC019081018041
:10241000F281E02DF8948181292F209582238183F8
:1024200078948DE743E050E0815021F1DA01119773
:10243000F1F730813923C1F3F894828182238283BA
:102440008181892B81837894ABE7B7E01197F1F70D
:10245000F894818128232183A3E1B1E01197F1F75A
:102460008081982381E009F080E07894E3E6F6E04B
:102470003197F1F70895CF93CFB7F8948091CA03BD
:10248000811127C0E0EAF5E08491E4EBF5E0949156
:10249000E82FF0E0EE0FFF1FEC59FA4FA591B49131
:1024A000EC91E92321F461E08AE00E94171661E0D3
:1024B0008AE00E9447168CB580618CBD8CB5806423
:1024C0008CBD61E08DE00E94471661E08BE00E94C8
:1024D00047168091CA038F5F8093CA03CFBFCF9105
:1024E0000895CF92DF92EF92FF920F931F93CF93B5
:1024F000DF936C017A018B01C0E0D0E0CE15DF05DF
:1025000089F0D8016D918D01D601ED91FC9101907A
:10251000F081E02DC6010995892B11F47E0102C0DE
:102520002196ECCFC701DF91CF911F910F91FF90C2
:10253000EF90DF90CF900895FC01538D448D252FAF
:1025400030E0842F90E0821B930B541710F0CF964D
:10255000089501970895FC01918D828D981761F07F
:10256000828DDF01A80FB11D5D968C91928D9F5FCA
:102570009F73928F90E008958FEF9FEF0895FC0175
:10258000918D828D981731F0828DE80FF11D858D28
:1025900090E008958FEF9FEF0895FC01918D228DBB
:1025A000892F90E0805C9F4F821B91098F73992740
:1025B00008958EEC94E00E94CD1221E0892B09F45D
:1025C00020E0822F0895FC01848DDF01A80FB11D4A
:1025D000A35ABF4F2C91848D90E001968F73992759
:1025E000848FA689B7892C93A089B1898C91806446
:1025F0008C93938D848D981306C00288F389E02D07
:1026000080818F7D80830895EF92FF920F931F93B7
:10261000CF93DF93EC0181E0888F9B8D8C8D981395
:1026200005C0E889F989808185FD24C0F62E0B8DCF
:1026300010E00F5F1F4F0F731127E02E8C8DE812F3
:102640000CC00FB607FCFACFE889F989808185FFB5
:10265000F5CFCE010E94E312F1CF8B8DFE01E80F82
:10266000F11DE35AFF4FF0820B8FEA89FB898081CD
:10267000806207C0EE89FF896083E889F9898081DB
:102680008064808381E090E0DF91CF911F910F9172
:10269000FF90EF900895CF93DF93EC01888D88230E
:1026A000C9F0EA89FB89808185FD05C0A889B989BF
:1026B0008C9186FD0FC00FB607FCF5CF808185FF9A
:1026C000F2CFA889B9898C9185FFEDCFCE010E9408
:1026D000E312E7CFDF91CF91089580E090E0892B5E
:1026E00029F00E94D91281110C94000008958330C2
:1026F00081F028F4813099F08230A1F0089587307C
:10270000A9F08830B9F08430D1F4809180008F7DB9
:1027100003C0809180008F7780938000089584B5F6
:102720008F7702C084B58F7D84BD08958091B000FD
:102730008F7703C08091B0008F7D8093B0000895A3
:102740003FB7F8948091170490911804A091190450
:10275000B0911A0426B5A89B05C02F3F19F0019629
:10276000A11DB11D3FBFBA2FA92F982F8827820F17
:10277000911DA11DB11DBC01CD0142E0660F771F67
:10278000881F991F4A95D1F70895089580E008950C
:10279000DC011A96ED91FC911B9720E030E0099442
:1027A000DC011696ED91FC91179720E030E040E0B7
:1027B00069E10994DC011696ED91FC91179720E0F0
:1027C00030E040E068E109949A01DC011696ED9151
:1027D000FC911797462F67E10994EF92FF920F93B0
:1027E0001F93CF93DF931F92CDB7DEB77C018B0190
:1027F000D8016C916731E1F078F46531A0F1F8010E
:1028000041814983D7011696ED91FC91179720E0FD
:1028100030E0C701099524C06A31A8F06E3F19F570
:10282000F8014181498369E2C7010E94C81318C0B9
:10283000F80181818983AE014F5F5F4F61E0C7017D
:102840000E94E4130DC00F5F1F4FD7011696ED9144
:10285000FC91179720E030E040E0C7010995C8CF10
:102860000E5F1F4FC5CF0F90DF91CF911F910F913A
:10287000FF90EF900895462FDC011696ED91FC91A4
:10288000179720E030E066E10994462FDC011696A8
:10289000ED91FC91179720E030E065E10994EF920B
:1028A000FF920F931F93CF93DF93EC01142F7901C5
:1028B0006D30A9F118F46B3039F15FC06E3009F456
:1028C00041C06F3009F059C00E94DA13F7018381CB
:1028D0000889F8E08F9F000D112460E4CE010E946A
:1028E0004514602F62956F706061CE010E9445149F
:1028F000602F6F70CE010E943B14F7016481606B02
:10290000CE010E943B1429C0411103C067E371E06E
:1029100002C062E371E0CE010E94ED1371C041116B
:1029200008C06BE271E00E94ED13E881F9818289B1
:1029300007C064E271E00E94ED13E881F9818389A8
:10294000888B5EC00E94DA1361E8CE010E944514B4
:10295000612FCE010E943B140CC0F70140815181D0
:102960006281660F660F660FCE010E94E41311505C
:10297000A1F7CE010E94D01343C0693031F481E742
:1029800091E099838883188A3BC06A30B9F5EA855B
:10299000FB8520E030E040E068E2CE010995EE8161
:1029A000FF8120E030E040E064E1CE01099541E0A4
:1029B0006BE4CE010E94C813E881F981448169E289
:1029C000CE010E94C81340E06BE4CE010E94C81300
:1029D000E881F981448169E2CE010E94C81341E097
:1029E0006BE4CE010E94C813E881F981458169E258
:1029F000CE010E94C8136CE371E08DCF80E001C06E
:102A000081E0DF91CF911F910F91FF90EF9008959A
:102A1000DC011896ED91FC91199720E030E040E040
:102A200069E10994DC011896ED91FC91199720E079
:102A300030E040E068E109940E94AD37EF92FF92E8
:102A40001F93CF93DF93EC01162F7A010E9412158A
:102A500060E4CE010E944C0FE885F9859701412F73
:102A600067E1CE010995CE01DF91CF911F91FF90D3
:102A7000EF900C940815EF92FF921F93CF93DF9382
:102A800000D0CDB7DEB77C01142F673128F4653153
:102A900040F4643149F141C0673191F06A3170F01E
:102AA0003CC00E94121560E0C7010E944C0F612FCC
:102AB000C7010E944C0FC7010E94081581E02EC07B
:102AC000A901193160F068E1C70129833A830E94A6
:102AD0001E15185129813A81285E3F4FF1CF612F91
:102AE000C7010E941E15EACFDC0152968C915297C5
:102AF0008F3F19F488E752968C93D7011896ED9181
:102B0000FC911997412F64E1C7010F900F90DF915D
:102B1000CF911F91FF90EF90099480E00F900F905C
:102B2000DF91CF911F91FF90EF9008951F920F9228
:102B30000FB60F9211242F933F934F935F936F9390
:102B40007F938F939F93AF93BF93EF93FF938EECFD
:102B500094E00E94E312FF91EF91BF91AF919F919A
:102B60008F917F916F915F914F913F912F910F9036
:102B70000FBE0F901F9018951F920F920FB60F92D5
:102B800011242F938F939F93EF93FF93E091DE0493
:102B9000F091DF048081E091E404F091E50482FD8E
:102BA00012C090818091E7048F5F8F732091E804B9
:102BB000821751F0E091E704F0E0E253FB4F958F6C
:102BC0008093E70401C08081FF91EF919F918F91E5
:102BD0002F910F900FBE0F901F901895CF93DF93FA
:102BE000282F30E0F901E858FA4F8491F901E655B1
:102BF000FA4FD491F901EA56FA4FC491CC2391F0DF
:102C000081110E947713EC2FF0E0EE0FFF1FE457C5
:102C1000FA4FA591B491EC91ED2381E090E021F47D
:102C200080E002C080E090E0DF91CF9108951F9393
:102C3000CF93DF93282F30E0F901E858FA4F8491C1
:102C4000F901E655FA4FD491F901EA56FA4FC491C9
:102C5000CC23C9F0162F81110E947713EC2FF0E0DE
:102C6000EE0FFF1FE259FA4FA591B4918FB7F89478
:102C7000111105C09C91ED2FE095E92302C0EC9164
:102C8000ED2BEC938FBFDF91CF911F910895CF93E0
:102C9000DF9390E0FC01E655FA4F2491FC01EA56DF
:102CA000FA4F8491882361F190E0880F991FFC010D
:102CB000EC59FA4FC591D491FC01E259FA4FA59114
:102CC000B491611109C09FB7F8948881209582233F
:102CD0008883EC912E230BC0623061F49FB7F89487
:102CE0003881822F809583238883EC912E2B2C931F
:102CF0009FBF06C08FB7F894E8812E2B28838FBF23
:102D0000DF91CF9108958F929F92AF92BF92CF9211
:102D1000DF92EF92FF926B017C010E94A0134B01A6
:102D20005C01C114D104E104F104F1F00E94A0138C
:102D3000DC01CB0188199909AA09BB09883E934097
:102D4000A105B10570F321E0C21AD108E108F1082C
:102D500088EE880E83E0981EA11CB11CC114D1041A
:102D6000E104F10419F7DDCFFF90EF90DF90CF90F1
:102D7000BF90AF909F908F9008952FB7F894609177
:102D800013047091140480911504909116042FBFC0
:102D900008951F920F920FB60F9211242F933F9315
:102DA0008F939F93AF93BF938091130490911404DA
:102DB000A0911504B09116043091120423E0230F62
:102DC0002D3720F40196A11DB11D05C026E8230F63
:102DD0000296A11DB11D20931204809313049093B9
:102DE0001404A0931504B0931604809117049091D5
:102DF0001804A0911904B0911A040196A11DB11DE7
:102E00008093170490931804A0931904B0931A04A4
:102E1000BF91AF919F918F913F912F910F900FBED6
:102E20000F901F9018951F920F920FB60F921124BA
:102E30002F933F934F935F936F937F938F939F93C2
:102E4000AF93BF93EF93FF93E0910201F0910301E1
:102E50000995FF91EF91BF91AF919F918F917F91D4
:102E60006F915F914F913F912F910F900FBE0F90F7
:102E70001F9018951F920F920FB60F9211242F9347
:102E80003F934F935F936F937F938F939F93AF93F2
:102E9000BF93EF93FF93E0910001F0910101099539
:102EA000FF91EF91BF91AF919F918F917F916F9122
:102EB0005F914F913F912F910F900FBE0F901F90F8
:102EC0001895462FDC011496ED91FC91159720E0A2
:102ED00030E06BE00994F8942091EF05233021F461
:102EE0002091600421110FC02091EF05233011F4CF
:102EF000789407C0DC01ED91FC910288F389E02D04
:102F0000099580E00895DC01ED91FC910488F58934
:102F1000E02D61E0099581E0089581E08093F80259
:102F20008091F6029091F702DC01ED91FC9104840E
:102F3000F585E02D09951092F80208950895CF9334
:102F4000DF93EC0161E08A810E94171689858CBDB0
:102F50008A858DBD8091F802811101C07894DF913E
:102F6000CF910895FC01F8948CB581878DB5828747
:102F70008CB5837F8CBD8CB58F7D8CBD8CB58C7FE3
:102F80008CBD8DB58E7F8DBD60E082810C9417164F
:102F90003F924F925F926F927F928F929F92AF92E9
:102FA000BF92CF92DF92EF92FF920F931F93CF9336
:102FB000DF93EC01162F5A01922E302E812CCE2C4D
:102FC000D12CE12CF12C61E070E080E090E00E94D7
:102FD0008316E881F9810190F081E02D01E0292D2F
:102FE000A501612FCE0109950E94BD162B013C0160
:102FF0000E94BD16DC01CB0184199509A609B70909
:103000008C159D05AE05BF05A0F4E881F98104800B
:10301000F581E02DCE010995882351F390915D044F
:10302000911711F01F3F21F790915F04911105C096
:10303000DFCF8394381438F680E0DF91CF911F9171
:103040000F91FF90EF90DF90CF90BF90AF909F9047
:103050008F907F906F905F904F903F9008958EBDBE
:1030600000000DB407FEFDCF8EB508950F931F939A
:10307000CF93DF9300D0CDB7DEB78C01DC01ED91AB
:10308000FC91008CF18DE02D4A836983099569815B
:10309000862F80680E942F184A81842F0E942F1843
:1030A000D801ED91FC91028CF38DE02DC8010F90B9
:1030B0000F90DF91CF911F910F910994EF92FF92A2
:1030C0001F93CF93DF931F92CDB7DEB77C01DC0156
:1030D000ED91FC91008CF18DE02D6983099569815A
:1030E000862F8F770E942F1880E00E942F18182FAC
:1030F000D701ED91FC91028CF38DE02DC70109956C
:10310000812F0F90DF91CF911F91FF90EF90089545
:10311000CF93DF93EC0110925E0410925D04109245
:103120005C041092600410925B0410925F04109291
:103130005A041092590468E20E945E1882FF0AC085
:103140006DE3CE010E945E18482F44606DE3CE010E
:103150000E94361840E465E2CE010E943618E881EC
:10316000F9810488F589E02D63E0CE01DF91CF91EC
:103170000994CF93DF932091EF052330C9F4209178
:103180006004211115C0EC0164E20E945E1890E019
:103190009195819591098C349F4F54F4E881F98180
:1031A0000488F589E02D61E0CE01099581E001C038
:1031B00080E0DF91CF9108954F925F926F927F925E
:1031C000AF92BF92CF92DF92EF92FF920F931F9335
:1031D000CF93DF93EC015B01F42E10925B0410910E
:1031E0005D04C0905904D0905A046DE30E945E18AB
:1031F000482F44606DE3CE010E9436180E94BD1630
:103200002B013C01CE010E94B918882311F11093C3
:103210005D04E881F9810088F189E02DEE24E394D2
:1032200000E02F2DA501612FCE010995D0925A04FF
:10323000C0925904DF91CF911F910F91FF90EF90B1
:10324000DF90CF90BF90AF907F906F905F904F9046
:1032500008950E94BD16DC01CB0184199509A609C9
:10326000B709883E9340A105B10588F6E881F98148
:103270000480F581E02DCE010995C4CF8F929F92F5
:10328000AF92BF92CF92DF92EF92FF920F931F9374
:10329000CF93DF93EC01162F6A01F22E6DE30E94AB
:1032A0005E18482F44606DE3CE010E9436180E94DC
:1032B000BD164B015C01CE010E94B9188823C1F0F4
:1032C000E881F9810088F189E02DE12C2F2DA601FC
:1032D000612FCE010995DF91CF911F910F91FF9042
:1032E000EF90DF90CF90BF90AF909F908F90089518
:1032F0000E94BD16DC01CB0188199909AA09BB09F6
:10330000883E9340A105B105D8F6E881F981048093
:10331000F581E02DCE010995CECFCF93DF93EC015F
:10332000603208F06FE16F838885882311F066951D
:103330006F8361E1CE010E945E18807E9F81482FDD
:10334000492B61E1CE01DF91CF910C9436181F9388
:10335000CF93DF932091EF05621709F45DC0162F1C
:10336000EC016230E9F168F4662309F440C0613091
:1033700009F052C061E00E945E18837E482F4460CD
:103380003BC06330B9F0643009F046C061E00E9490
:103390005E18837E482F4C6061E0CE010E94361893
:1033A0008885882369F1E881F9810688F789E02D0D
:1033B00061E013C061E00E945E18837E482F406187
:1033C00061E0CE010E94361888858823C9F0E88123
:1033D000F9810688F789E02D60E0CE01099510C0DB
:1033E00061E00E945E18837E482F486005C061E05E
:1033F0000E945E18482F437E61E0CE010E9436187D
:103400008091EF05811106C067E2CE010E945E182F
:1034100087FFF6CF1093EF05DF91CF911F910895AD
:10342000EF92FF921F93CF93DF93EC018091EF0512
:10343000833001F568E2CE010E945E1882FD2EC045
:1034400019C080915E048D3330F4E0915E04F0E0A9
:10345000E45EFB4F1082E881F981028CF38DE02D50
:10346000CE010995E881F9810488F589E02D63E0B2
:10347000CE01099564E2CE010E945E1890E091951C
:10348000819591099595879590935A048093590455
:10349000DF91CF911F91FF90EF900895E881F9811E
:1034A0000488F589E02D61E0CE010995E881F98174
:1034B000008CF18DE02DCE01099580E00E942F183F
:1034C00080E00E942F188093600480916004833410
:1034D000D0F4809160048093600480E00E942F18F3
:1034E00080935C048E81811109C090915C048D8170
:1034F000981721F080915C048F3F39F4809160042B
:10350000833018F017C082E4E6CF10926004E8819F
:10351000F981028CF38DE02DCE010995E881F981C6
:103520000288F389E02DCE01DF91CF911F91FF90AA
:10353000EF90099480916004835080935E0480E052
:103540000E942F1880935D0480E00E942F18982F0E
:10355000907890935F04982F907490935B04E88127
:10356000F9810684F785E02D682FCE01099510E0DA
:1035700080915E04181708F064CFE12EF12C80E0F2
:103580000E942F18F701E45EFB4F80831F5FF0CF8E
:10359000CF92DF92EF92FF920F931F93CF93DF931F
:1035A000EC01F62ED42EC52E122FE881F981048865
:1035B000F589E02D61E0099567E2CE010E945E1871
:1035C00087FFFACF40E065E2CE010E9436181E3335
:1035D00008F01DE3E11004C0002321F000E403C063
:1035E00000E801C000E0E881F981008CF18DE02D58
:1035F000CE01099580E80E942F1883E0810F0E9478
:103600002F188F2D0E942F188D810E942F18802F28
:103610000E942F180D2DED2CFC2C8E2D801B811758
:1036200030F4F70181917F010E942F18F6CFE881D5
:10363000F981028CF38DE02DCE010995E881F981A5
:103640000488F589E02D64E0CE0109950E94BD163D
:103650006B017C018B810E94EE15892B81F0E88142
:10366000F9810488F589E02D61E0CE01DF91CF91E9
:103670001F910F91FF90EF90DF90CF9009940E94DF
:10368000BD16DC01CB018C199D09AE09BF09883E2E
:103690009340A105B105F0F2E2CF9F92AF92BF92A5
:1036A000CF92DF92EF92FF920F931F93CF93DF930E
:1036B0001F92CDB7DEB7182F882319F052E0C52E20
:1036C00002C0CC24C394D12C21E1A22E34E1B32E2C
:1036D00042E1942E112319F083E1898301C0A9826C
:1036E00080910501882369F06091470393E2E92EF8
:1036F00005E021E0AE014F5F5F4F80EF95E00E9453
:10370000C817E12CF12C0E945909882311F0E12CF3
:10371000F12C61E070E080E090E00E9483168FEF72
:10372000E81AF80A83ECE81681E0F80660F3111154
:103730002CC080914003811104C080913F038823F5
:1037400021F1998280910501882369F060914703F6
:1037500083E2E82E05E021E0AE014F5F5F4F80EF8E
:1037600095E00E94C817D39410E0DC10B8CF81E038
:103770000F90DF91CF911F910F91FF90EF90DF900D
:10378000CF90BF90AF909F900895B982DBCF1F92EA
:103790000F920FB60F9211248F9383B78E7F83BF42
:1037A0008F910F900FBE0F901F9018951F920F9240
:1037B0000FB60F9211242F933F934F935F936F9304
:1037C0007F938F939F93AF93BF93CF93EF93FF9389
:1037D000F89462E070E080E090E00E9483167894B4
:1037E00083B78E7F83BFC09105011092050180E0F1
:1037F0000E94170781E080932503C0930501809301
:103800001B04FF91EF91CF91BF91AF919F918F9149
:103810007F916F915F914F913F912F910F900FBECC
:103820000F901F9018951F920F920FB60F921124B0
:103830002F933F934F935F936F937F938F939F93B8
:10384000AF93BF93CF93EF93FF93F89462E070E050
:1038500080E090E00E948316789483B78E7F83BFC8
:10386000C09105011092050180E00E94170781E0D8
:1038700080932503C093050180931B04FF91EF9172
:10388000CF91BF91AF919F918F917F916F915F91F8
:103890004F913F912F910F900FBE0F901F90189551
:1038A000AF92BF92CF92DF92EF92FF920F931F934E
:1038B000CF93DF93CDB7DEB72D970FB6F894DEBF69
:1038C0000FBECDBFE82EA62E1092D1058A01F12C95
:1038D000CE0101966C01BB24B394F80161918F0174
:1038E000E091BE05F091BF058CEB95E009958F3F07
:1038F000FFEF9F07F1F08E3F2FEF920771F3A601C4
:10390000682F8CEB95E00E945B0FEC86AD86BB8642
:10391000DA86C986E091C005F091C1059E01275F56
:103920003F4F41E06FE08CEB95E00995E394F39411
:10393000D4CF8F2D2D960FB6F894DEBF0FBECDBF1E
:10394000DF91CF911F910F91FF90EF90DF90CF907B
:10395000BF90AF900895CF93DF93C82F80918005DB
:103960008F3F39F58091770591E09093AA04809379
:10397000CC041092AB041092CD046C2F8BE695E032
:103980000E94780E0E945D2162E0809177050E947E
:10399000FF218BE695E00E942C0EC82F8BE695E068
:1039A0000E942C0E20E030E03C2FE901C82BD92BDF
:1039B00029C0809183058F3F21F482E591E00E9428
:1039C000771160E0809180050E9417168C2F806827
:1039D0000E941C2180E00E941C21C82F80E00E94D0
:1039E0001C212C2F30E0322F2227E901C82B61E067
:1039F000809180050E941716809183058F3F11F4F6
:103A00000E947611CE01DF91CF9108950E94AB1CE8
:103A10009827892798270895CF9386E7809377057D
:103A2000809180058F3F59F41092620410926104D6
:103A30001092AB041092CD040E941A111CC061E0D8
:103A40000E94171661E0809180050E9447168091C0
:103A500083058F3F19F40E943B120DC061E00E9464
:103A6000471661E0809181050E94471660E08091D1
:103A700082050E94471680ED0E944A22883519F07F
:103A8000803609F09DC088E80E94061D9093850548
:103A9000809384058AE80E94061D90938705809391
:103AA00086058CE80E94061D909389058093880501
:103AB0008EE80E94061D90938B0580938A0580E90D
:103AC0000E94061D90938D0580938C0582E90E94CB
:103AD000061D90938F0580938E0584E90E94061D34
:103AE000909391058093900586E90E94061D90931E
:103AF00093058093920588E90E94061D9093950591
:103B0000809394058AE90E94061D909397058093FF
:103B100096058CE90E94061D90939905809398055F
:103B20008EE90E94061D90939B0580939A0581EA79
:103B30000E944A2280939C0581EE0E94061D90936C
:103B40009E0580939D0583EE0E944A2280939F05E7
:103B500084EE0E944A22C82F85EE0E944A22282F16
:103B60002F7030E1C39FC0011124822B9093A105D7
:103B70008093A00586EE0E944A22C82F85EE0E94FF
:103B80004A2290E024E0959587952A95E1F740E157
:103B9000C49F90011124822B932B9093A3058093B3
:103BA000A20587EE0E944A228093A40565E082EF79
:103BB0000E94BA2167EB84EF0E94BA2181E001C024
:103BC00080E0CF91089520EE3DE03093BF05209333
:103BD000BE050C94501CEF92FF920F931F93CF934E
:103BE000DF93EC0161E080EF95E00E94A719209738
:103BF000C1F080EF95E00E94B2178EEB0E942F1863
:103C00008E017E0180E1E80EF11CF80181918F01A7
:103C10000E942F180E151F05C1F780EF95E00E9436
:103C20009F176DE380EF95E00E945E188E7F41E064
:103C3000CD2B09F440E0482B6DE380EF95E0DF9158
:103C4000CF911F910F91FF90EF900C9436180F9326
:103C50001F93CF93DF9300D000D01F92CDB7DEB774
:103C60008C01862F4AE0BE016F5F7F4F90E00E947B
:103C70006A3020E040E0BE016F5F7F4FC8010E94C4
:103C8000810320E040E06AED72E0CB010E948103F5
:103C90000F900F900F900F900F90DF91CF911F9189
:103CA0000F910895CF92DF92EF92FF92CF93C82F9A
:103CB000809180058F3F09F040C08091770591E0A9
:103CC0009093AA048093CC041092AB041092CD047C
:103CD0006C2F8BE695E00E94780E0E945D2163E0D8
:103CE000809177050E94FF218BE695E00E942C0EC3
:103CF0006C01990FEE08FF08FE2CED2CDC2CCC2477
:103D00008BE695E00E942C0EAC01990F660B770BA9
:103D1000C42AD52AE62AF72AFE2CED2CDC2CCC244A
:103D20008BE695E00E942C0EAC01990F660B770B89
:103D3000C42AD52AE62AF72A33C0809183058F3F0B
:103D400021F482E591E00E94771160E08091800586
:103D50000E9417168C2F80680E941C2180E00E9410
:103D60001C21C82ED12CE12CF12CFE2CED2CDC2CAE
:103D7000CC2480E00E941C21C82AFE2CED2CDC2CD7
:103D8000CC2480E00E941C21C82A61E0809180053B
:103D90000E941716809183058F3F11F40E947611BF
:103DA000C701B601CF91FF90EF90DF90CF900895BB
:103DB0008F929F92AF92BF92CF92DF92EF92FF923B
:103DC0008AEF0E94521EE7E7F5E0458556854A01D5
:103DD000A12CB12CC72ED82EE92EFF24E7FCFA9493
:103DE000C818D908EA08FB08DC01CB0137E0B59513
:103DF000A795979587953A95D1F7B501A401440FFA
:103E0000551F661F771F4C015D01841A950AA60A8B
:103E1000B70AA5019401A785B0890E94E4354B013A
:103E20005C013BE0B594A794979487943A95D1F7B9
:103E3000A7019601C701B6010E9487359B01AC011D
:103E40006CE055954795379527956A95D1F7A189E7
:103E5000B2890E94E435DC01CB017EE0B595A795DF
:103E6000979587957A95D1F7A5019401280F391F69
:103E70004A1F5B1F2583368347835087A5E0B0E048
:103E80000E94D935DC01CB0180589F4FAF4FBF4F07
:103E9000692F7A2F8B2F992787FD9A950E941C34C2
:103EA00020E030E048EC52E40E947333FF90EF9042
:103EB000DF90CF90BF90AF909F908F900895EF923A
:103EC000FF920F931F93CF93DF93EC01E62E08E050
:103ED00010E0FF24F39461E08F2D8E2109F460E05F
:103EE000CE010E94D611FF0C01501109A1F7F894E0
:103EF000E981FA8191818881809589238183E98193
:103F0000FA81928188818095892382837894DF91D8
:103F1000CF911F910F91FF90EF900895AF92BF92B4
:103F2000CF92DF92EF92FF920F931F93CF93DF9385
:103F30001F92CDB7DEB75C01D62EE72EFC0185853A
:103F4000811105C0C5010E940512811106C0F5014D
:103F500013861586148680E064C060EFC5010E9458
:103F60005F1F01E0F12CC12C11E0C5010E94B211CC
:103F7000682FC50169830E94B2116981613019F40B
:103F80008130B9F433C04F2D50E068131BC0F501E8
:103F90008385181730F4E40FF51F8381802349F4DB
:103FA00002C0181731F060E0193058F4F501148799
:103FB00008C0F501EF0DF11D8381802B838361E043
:103FC00009C0C12EF501E40FF51F9381802F809564
:103FD00089238383C5010E94D6111F5F000F11F44E
:103FE000F39401E0F7E0FF1508F0BFCF113408F4B7
:103FF000AECFF501C386C11002C081E08587F5010F
:104000008381882309F4A3CFD5011396ED2DFE2DCE
:104010009501255F3F4F8D918193A217B307D9F783
:1040200081E00F90DF91CF911F910F91FF90EF9062
:10403000DF90CF90BF90AF9008950F931F93CF93D1
:10404000DF938C01D62FE091AA05F091AB05138682
:1040500015861486DF011B9633961E92AE17BF0796
:10406000E1F7C0E0B8018091AA059091AB050E94EC
:104070008E1F811102C080E010C0CD130AC067E01E
:10408000C8010E947A11F8019781891302C081E06A
:1040900004C0CF5FDC1778F3E5CFDF91CF911F919C
:1040A0000F910895AF92BF92CF92DF92EF92FF925D
:1040B0000F931F93CF93DF93EC018B018091AA059F
:1040C0009091AB050E940512882399F1BE01809161
:1040D000AA059091AB050E9487116EEB8091AA050D
:1040E0009091AB050E945F1FE801680189E0C80E4E
:1040F000D11CA090AA05B090AB0588E0E82EF12C69
:1041000001E010E0C5010E94B2118111102B000FD7
:1041100081E0E81AF108B1F71993CC15DD0549F7EC
:104120008091AA059091AB050E94051291E0813023
:1041300009F090E0892FDF91CF911F910F91FF90AF
:10414000EF90DF90CF90BF90AF900895CF93DF9323
:10415000CDB7DEB729970FB6F894DEBF0FBECDBF3F
:10416000FC012081203119F1BE016F5F7F4F0E9459
:104170005220882379F068E0CE0101960E947A11DE
:104180009985891307C008C0803458F08F3569F0CD
:104190008F3769F080E00CC08D818F33A9F78AE0FA
:1041A00007C08F31B9F789E003C08BE001C08CE014
:1041B00029960FB6F894DEBF0FBECDBFDF91CF9129
:1041C00008959B01DC011896ED91FC91199741E04F
:1041D00067E109941F93CF93DF9300D000D01F9223
:1041E000CDB7DEB71C8221E02B839A838983E091CF
:1041F000BC05F091BD0511891D82A091BC05B0914F
:10420000BD05E091C005F091C1059E012F5F3F4FB4
:1042100050964C916FE08CEB95E009958D818F5F06
:104220008D83811750F30F900F900F900F900F9088
:10423000DF91CF911F910895EF92FF920F931F93FB
:10424000CF93DF93909183059F3F41F4DF91CF910E
:104250001F910F91FF90EF900C942F18D82F07E02B
:1042600010E0C0E0EE24E394F12CCC0F60E08091EC
:1042700083050E941716B701002E01C0660F0A942D
:10428000EAF76D23809181050E94171661E0809105
:1042900083050E941716809182050E94EE15892BD6
:1042A00009F0C1600150110900F78C2FDF91CF9107
:1042B0001F910F91FF90EF9008952091CD04909160
:1042C000CC04213208F04AC08091A9048111FCCFAE
:1042D00032E03093A90431E03093A8043FEF3093EB
:1042E000A7041092A6042093A504ACEAB4E045E824
:1042F00054E0FA013E2F341B321718F43D913193EC
:10430000F9CF1092840420918404990F922B9093FA
:10431000840490918304913061F41092830490910D
:1043200084049093BB009091BC0093FDF8CF95EC72
:1043300001C095EE9093BC009091A9049230E1F3F6
:104340009091A7049F3F79F08091A704803241F0BB
:104350008091A704803331F084E005C081E003C080
:1043600082E001C083E01092AB041092CD04109261
:10437000AA040895CF93DF93D82FC62F809180058C
:104380008F3FC9F48091770591E09093AA048093C0
:10439000CC041092AB041092CD046D2F8BE695E007
:1043A0000E94780E6C2F8BE695E00E94780EDF91CC
:1043B000CF910C945D21809183058F3F21F482E59C
:1043C00091E00E94771160E0809180050E941716AD
:1043D0008D2F8F770E941C218C2F0E941C2161E061
:1043E000809180050E941716809183058F3F21F4EC
:1043F000DF91CF910C947611DF91CF910895909138
:10440000A9049111FCCF613208F060E291E0909331
:10441000A9049093A8042FEF2093A7041092A60458
:10442000260F2093A5049093840490918404880F10
:10443000892B8093840480918304813061F41092ED
:104440008304809184048093BB008091BC0083FD31
:10445000F8CF85EC01C085EE8093BC008091A90463
:104460008130E1F38091A604861710F46091A604D0
:10447000A5E8B4E023E634E0F9018E2F821B86170D
:1044800018F48D918193F9CF1092620460936104C6
:10449000862F0895CF93C82F809180058F3FE9F430
:1044A0008091770591E09093AA048093CC041092B8
:1044B000AB041092CD046C2F8BE695E00E94780E31
:1044C0000E945D2161E0809177050E94FF218BE6CB
:1044D00095E00E942C0EC82F20C0809183058F3F4D
:1044E00021F482E591E00E94771160E080918005DF
:1044F0000E9417168C2F80680E941C2180E00E9469
:104500001C21C82F61E0809180050E9417168091C0
:1045100083058F3F11F40E9476118C2FCF9108955F
:10452000CF93DF93CDB7DEB7C856D1090FB6F89455
:10453000DEBF0FBECDBF789484B5826084BD84B5E4
:10454000816084BD85B5826085BD85B5816085BD8E
:1045500080916E00816080936E0010928100809146
:1045600081008260809381008091810081608093CE
:104570008100809180008160809380008091B100F3
:1045800084608093B1008091B00081608093B0001E
:1045900080917A00846080937A0080917A008260B2
:1045A00080937A0080917A00816080937A00809174
:1045B0007A00806880937A001092C1000E949C0566
:1045C00080E090E00E944E338F3F31F400E010E035
:1045D0005CE1F52EF00E16C08FE190E00E944E33A4
:1045E0008F3AA1F762E08FE00E94471661E070E029
:1045F00080E090E00E9483168FE00E94EE15892BE8
:1046000029F333C060E0C8010E9460330F5F1F4F81
:10461000F012F8CF6FEF8AE190E00E9460336EEF06
:104620008BE190E00E94603361E08CE190E00E94B9
:10463000603361E08DE190E00E94603362E08EE1E2
:1046400090E00E9460336FEA8FE190E00E94603357
:1046500060E080E290E00E94603341E150E061E27E
:1046600070E089ED91E00E94563300E010E0C8014F
:10467000805090400E944E33F801E65DFC4F8083ED
:104680000F5F1F4F0132110591F7E9EFF2E0119230
:1046900011921192119223E0E531F207C1F72091B6
:1046A000480330E0A0E1B7E20E94CA3560932603D8
:1046B000709327038093280390932903209142034A
:1046C00030E0A8E8B3E10E94CA35609321037093FB
:1046D000220380932303909324032091410330E02D
:1046E0000E94CA356B017C016093190370931A0311
:1046F00080931B0390931C030E94BD16DC01CB0129
:104700008C199D09AE09BF0980931D0390931E0368
:10471000A0931F03B0932003CD28CE28CF2819F0F3
:104720001092170303C081E0809317038091460322
:10473000813029F4809145038E3F09F4ABC061E0DC
:1047400085E00E94471661E086E00E94471661E01E
:1047500087E00E94471661E082E00E94471661E010
:1047600087E00E94171661E082E00E94171665E05C
:1047700070E080E090E00E94831660E082E00E949A
:1047800017166AE070E080E090E00E948316409186
:104790004603009145039EE2DE0111966D01FD0185
:1047A000292F11922A95E9F781E0898384E08A8391
:1047B00032E03B8323E02D833E838F8380E4888730
:1047C00035E039872A8726E02B8723E32C8737E0DB
:1047D0003D8728E02F8729E0298B29E12B8B22E4D4
:1047E0002C8B55E25D8B8E8B56E25F8B388F38E2D7
:1047F000398F30E13A8F39E23B8F3CED3C8F9D8F12
:1048000098E89E8F9FE29F8F9DE298A390E399A3E3
:1048100037E33BA330E93CA338E33DA32EA32CE3CD
:104820002FA32FE828A72DE329A722E12AA72FE607
:104830002BA79CA79FEF9DA79CE69E87888B4AA3EA
:1048400061E08091F2050E94171661E08091F20507
:104850000E9447160E943B120E94BD164B015C014C
:104860004AEA6FE280EF95E00E9436186FE280EF2F
:1048700095E00E945E188A3A81F00E94BD16DC0124
:10488000CB0188199909AA09BB09C297A105B105ED
:1048900038F303C01092050152CF0E94BD164B01A0
:1048A0005C0145E56FE280EF95E00E9436186FE20B
:1048B00080EF95E00E945E18853561F00E94BD167C
:1048C000DC01CB0188199909AA09BB09C297A10586
:1048D000B10538F310E0F601E10FF11DE10FF11D14
:1048E00060816F3F39F0418180EF95E00E9436187A
:1048F0001F5FF1CF80E090E00E94EB1D6091F80512
:1049000080EF95E00E942C0F61E080EF95E00E941F
:10491000A7190E94BD164B015C0167E280EF95E08C
:104920000E945E1887FD0CC00E94BD16DC01CB0101
:1049300088199909AA09BB09C297A105B10568F3AD
:104940000E94BD16DC01CB0188199909AA09BB098F
:10495000C297A105B10508F055C01092F8028091E8
:10496000F4058230C8F4E82FF0E0EE0FFF1FE050AE
:10497000FF4F2DE837E131832083813039F080917A
:104980006900836080936900E89A06C0809169009D
:104990008C6080936900E99A80EF95E09093F7022C
:1049A0008093F6020093F50567E00E945E18182FC9
:1049B00067E080EF95E00E945E1821E0811101C060
:1049C00020E091E01F3F09F490E09223D9F06FE1DD
:1049D00080EF95E00E948D1941E150E061E270E0C6
:1049E000CE018F960E943E33CE018F960E94EB1D22
:1049F00080EF95E00E946B178091340381110C9435
:104A0000122E18C015E060E087E00E94171664E6D9
:104A100070E080E090E00E94831661E087E00E94F1
:104A2000171664E670E080E090E00E948316115053
:104A300051F7CDCF8091350381110C94122E8091C6
:104A4000360381110C94122E8091370381110C943E
:104A5000122E32E1832E31E0932E00E010E0D401DB
:104A6000FD904D01F801E65DFC4F5F01FAE0FF1695
:104A700061F0D5016C9161708F2D0E944716F50190
:104A8000608162708F2D0E941716D5018C9182FF74
:104A900003C08F2D0E94BD060F5F1F4F0730110509
:104AA000F1F680913E0380FF04C061E086E00E9441
:104AB00017168091390381FF08C060E080E00E94F2
:104AC000471661E081E00E94471680913A0384FF17
:104AD00002C00C94162E80913A0383FF02C00C94FE
:104AE000162E80E290E00E944E338111CDC061E02D
:104AF00080E290E00E94603399E288E10FB6F8947A
:104B0000A895809360000FBE90936000F89421E018
:104B100030E080E80FB6F894809361002093610044
:104B20000FBE00916600F0908000E0908100B09090
:104B30008200A0906F009090B0008090B1007090C3
:104B400070006090B6001092800010928100109268
:104B5000820010926F001092B0001092B10010927B
:104B600070001092B60066E280EF95E00E945E1839
:104B7000582E45E066E280EF95E00E9436181092CC
:104B8000700083B5826883BD80E48093B600909105
:104B9000B60090629093B60081E08093B1001092CD
:104BA000B00093B59F7793BDB89BFECF87E087BBDE
:104BB00081E08093810080E88093660011E021E825
:104BC00037E0112311F1B89BFCCF23BD37BB809197
:104BD00084009091850010FD15C0AC014D5F5340DD
:104BE0004730510590F08115944010F00C94842EBC
:104BF000909166009F5F90936600109285001092DE
:104C0000840001C013BC1F5FDCCF7894452D66E2A1
:104C100080EF95E00E943618F0928000E0928100CB
:104C2000B0928200A0926F009092B0008092B1008A
:104C3000709270006092B60087E286BB87E087BB07
:104C400013BC111119C000936600809105018823DF
:104C500099F081E1E9E3F2E0D60101900D928A95A5
:104C6000E1F76091470323E2E22E05E021E1A6018E
:104C700080EF95E00E94C81760E080E290E00E941B
:104C800060330E949C0519C0809105018823A9F01A
:104C900088E1EAE4F2E0D60101900D928A95E1F70D
:104CA0006091470393E2E92E05E028E1A60180EF39
:104CB00095E00E94C81710E001C011E080913A030E
:104CC00081FF35C0E091DE04F091DF0482E0808353
:104CD000E091DA04F091DB041082E091DC04F091C1
:104CE000DD048FEC80831092E604E091E204F09101
:104CF000E30486E08083E091E004F091E1048081A8
:104D000080618083E091E004F091E104808188601B
:104D10008083E091E004F091E104808180688083E9
:104D2000E091E004F091E10480818F7D80838091A7
:104D3000390382FF08C00E940C1D811104C08091BC
:104D400005018111E6C760E080E290E00E946033D7
:104D5000112321F0809105018111F0C760E087E007
:104D60000E94171680913E0383FF04C060E087E035
:104D70000E94171680913E0381FF21C00E94BD163C
:104D80000091560310915703209158033091590315
:104D9000DC01CB01801B910BA20BB30B893B9B4029
:104DA000A105B10560F00E94BD1660935603709393
:104DB000570380935803909359030E94700361E056
:104DC00080E00E9488080E94BD1600915203109155
:104DD00053032091540330915503DC01CB01801B18
:104DE000910BA20BB30BC0902603D0902703E09049
:104DF0002803F090290320910601C816D906EA0677
:104E0000FB0618F0222309F42CC6222321F08091FE
:104E1000390380FDA8C70E94BD16609352037093AA
:104E20005303809354039093550380914003882348
:104E300019F081E00E9449058091390380FF10C17B
:104E400080914B03811170C0E091AA05F091AB05F0
:104E5000138615861486DF011B9633961E92AE17B5
:104E6000BF07E1F71092A90511E0BE01615D7F4F18
:104E70008091AA059091AB050E948E1F882309F4AA
:104E800050C067E0CE018F960E947A119EA98913C7
:104E9000ECCF8091A505811126C08091AA05909143
:104EA000AB050E940512BE01615D7F4F8091AA058E
:104EB0009091AB050E94871164EB8091AA059091B7
:104EC000AB050E945F1F8091AA059091AB050E94DF
:104ED000B211082F8091AA059091AB050E9405128E
:104EE000002309F447C7BE016F5F7F4FCE018F9645
:104EF0000E9452200091A605CE018F960E94A62006
:104F0000801718F48091A60504C0CE018F960E94E8
:104F1000A6208093A6058091A9058F5F8093A9059F
:104F2000A4CF81E080934B03F12C8091A905F81662
:104F300008F08AC024E434E740E050E024962CAF27
:104F40003DAF4EAF5FAF249727961DAE1EAE1FAE8E
:104F500027976F2DCE018F960E941D20811105C0CD
:104F600060E070E08EEF92EC4EC0BE016F5F7F4F4D
:104F7000CE018F960E945220882309F400C768E072
:104F8000CE0101960E947A1199858913F8C669812C
:104F9000F8E06F9FB00111248A81282F30E0322F72
:104FA0002227330F330F330F262B372B8FA580315A
:104FB00009F0E3C6688570E08F81AB01481B510999
:104FC000CA019695982F8827979587950E949735BF
:104FD00060517109207F83E0220F331F8A95E1F72A
:104FE000620F731F613854EE75070CF4B9CF072EAA
:104FF000000C880B990B0E941C3420E030E040E04C
:105000005CE30E941A358E010F5F1F4F21E043E0E1
:105010000E9421306F2D00E010E0C8010E941D2089
:1050200043E050E0B801CE01805C9F4F0E94D6372C
:1050300020E040E0BE016F5F7F4FCE01805C9F4F5C
:105040000E948103F39471CF81110AC010924B0327
:1050500020E040E06AEE71E08AEF91E00E94810377
:105060008091390381FF08C020E041E060E072E0F8
:105070008AE092E00E9481038091390382FF0BC491
:105080000E94D81E8E010F5F1F4F21E043E00E9457
:10509000213020E040E0B8018FE092E00E948103DF
:1050A0000E94D81E87EF0E94521EA6966CAF7DAF5D
:1050B0008EAF9FAFA69780917C0590917D05A091C2
:1050C0007E05B0917F056C017D01FF0CCC08DC2CC6
:1050D00076019C01AD016C2D7C2D8C2D9C2D345FB7
:1050E00041405109610971098109910928962FAF41
:1050F000289729963FAF29972A964FAF2A972B9644
:105100005FAF2B972C966FAF2C972D967FAF2D9777
:105110002E968FAF2E972F969FAF2F9759016A012A
:105120007B018C010E94EC356B962FAF6B976C96D0
:105130003FAF6C976D964FAF6D976E965FAF6E9762
:105140006F966FAF6F97A0967FAFA097A1968FAF26
:10515000A197A2969FAFA29780919405A7968FAF33
:10516000A7979091950560969FAF6097A091920543
:10517000A896AFAFA897B09193056196BFAF61971E
:10518000E0919005A996EFAFA997F09191056296ED
:10519000FFAF6297B0908D05A0908C051B2D110F6D
:1051A000110BC12ED12EE12EF12E012F28962FADFD
:1051B000289729963FAD29972A964FAD2A972B9687
:1051C0005FAD2B972C966FAD2C972D967FAD2D97BD
:1051D0002E968FAD2E972F969FAD2F970E94EC3570
:1051E0000CE00E941C3719012A013B014C01B090D0
:1051F0008F05A0908E051B2D110F110BC12ED12EE6
:10520000E12EF12E012F6B962FAD6B976C963FAD73
:105210006C976D964FAD6D976E965FAD6E976F966E
:105220006FAD6F97A0967FADA097A1968FADA19718
:10523000A2969FADA2970E94EC3508E00E943537F8
:1052400051016201730184010E94533770588F4FDE
:105250009F4F20908A0530908B055101C12CD12C95
:10526000E12CF12C00E010E00E94EC3501E20E94FC
:10527000353763962FAF639764963FAF6497659613
:105280004FAF659766965FAF669767966FAF679704
:1052900068967FAF689769968FAF69976A969FAF58
:1052A0006A97A0E00E94653709F4E3C1A796AFAC06
:1052B000A79760961FAD6097110F110B6096BFAC5A
:1052C0006097C12ED12EE12EF12E012F6B962FADBE
:1052D0006B976C963FAD6C976D964FAD6D976E96D4
:1052E0005FAD6E976F966FAD6F97A0967FADA097ED
:1052F000A1968FADA197A2969FADA2970E94EC3583
:1053000019012A013B014C01A896AFACA897619600
:105310001FAD6197110F110B6196BFAC6197C12E44
:10532000D12EE12EF12E012F28962FAD2897299608
:105330003FAD29972A964FAD2A972B965FAD2B97B5
:105340002C966FAD2C972D967FAD2D972E968FAD09
:105350002E972F969FAD2F970E94EC3501E10E946A
:105360001C3759016A017B018C019101A201B30133
:10537000C4010E94533719012A013B014C01A69632
:105380004CAD5DAD6EAD7FADA697E4E075956795CC
:1053900057954795EA95D1F780E090E0A0E1B0E01D
:1053A000841B950BA60BB70B6C017D01FF0CCC0881
:1053B000DC2C76019C01AD016C2D7C2D8C2D9C2D5F
:1053C0000FE10E941C37B22FA32FF42FE52F289650
:1053D0006FAF289729967FAF29972A968FAF2A9784
:1053E0002B969FAF2B97A9962FADA99762969FAD4D
:1053F0006297990F990B62963FAD6297492F592F8B
:10540000692F792F892F03E20E941C3759016A0105
:105410007B018C019101A201B301C4010E945337A9
:1054200059016A017B018C012B2F3A2F4F2F5E2FE0
:1054300028966FAD289729967FAD29972A968FAD2C
:105440002A972B969FAD2B970E945C37722E832E46
:10545000942EB52FA62FF72FE82F592E03E00E9488
:105460001C37A72CB82CC92CDB2EEA2EFF2E0E2FB2
:10547000152D0E945C3759016A017B01682E192F96
:1054800003E00E941C37062D0E945C3703E00E9457
:105490001C37A72CB82CC92CDB2EEA2EFF2E0E2F82
:1054A000152D0E945C3702E00E941C370E2F0E94CF
:1054B0005C3701E00E941C370E2F0E945C37639618
:1054C000AFAC63976496BFAC64976596CFAC6597B5
:1054D0006696DFAC66976796EFAC67976896FFAC09
:1054E000689769960FAD69976A961FAD6A970E9493
:1054F000473628962FAF289729963FAF29972A96A7
:105500004FAF2A972B965FAF2B972C966FAF2C97A8
:105510002D967FAF2D972E968FAF2E972F969FAFFC
:105520002F970DE00E943537322E432E542E652ED4
:10553000762E872E982E292E30919B0520919A0544
:10554000932F990F990BA32CB42CC52CD62CE72C98
:10555000F82C092D122D492F592F692F792F892FBA
:105560000E94EC350E94EC3509E10E943537590163
:105570006A017B018C0128962FAD289729963FADB3
:1055800029972A964FAD2A972B965FAD2B972C968D
:105590006FAD2C972D967FAD2D972E968FAD2E97B4
:1055A0002F969FAD2F970E94533719012A013B0177
:1055B0004C013091990520919805932F990F990BE3
:1055C0002896AFAC28972996BFAC29972A96CFACDE
:1055D0002A972B96DFAC2B972C96EFAC2C972D9619
:1055E000FFAC2D972E960FAD2E972F961FAD2F97B0
:1055F000492F592F692F792F892F0E94EC3503E10C
:105600000E94353759016A017B018C019101A20189
:10561000B301C4010E94533708E00E9435373901B5
:105620004A01B62FA72FF82FE92F30919705209127
:105630009605932F990F990B492F592F692F792F81
:10564000892F04E00E941C3759016A017B018C01FB
:105650009301A4016B2F7A2F8F2F9E2F0E94533717
:105660000E94143420E030E040E85BE30E941A35E9
:1056700003C060E070E0CB0120E030E048EC52E491
:105680000E9473336B017C0120E030E0A9010E948D
:105690006E33811102C00E940C1D8E010F5F1F4FDF
:1056A00021E043E0C701B6010E94213020E040E044
:1056B000B80182E192E00E9481030E94D81E8DEF22
:1056C0000E94AB1C80907C0590907D05A0907E058B
:1056D000B0907F052CE2921A21E0A20AB1086C0179
:1056E000E12CF12CFEE0CC0CDD1CEE1CFF1CFA952D
:1056F000D1F74091A0055091A105052E000C660B35
:10570000770BA4E1440F551F661F771FAA95D1F7A9
:10571000C41AD50AE60AF70AA091A205B091A3051A
:10572000A50194010E94E435C61AD70AE80AF90ACD
:1057300030E4D30EE11CF11CBFE0F594E794D7945C
:10574000C794BA95D1F7A091A4050A2E000CBB0B03
:10575000A50194010E94E4352B013C011AE07594E7
:105760006794579447941A95D1F7A0919F05B0E09C
:105770000E94D935DC01CB010BE0B595A795979533
:1057800087950A95D1F7BC01CD0170588F4F9F4F77
:10579000A30192010E948735DC01CB012AE0B59577
:1057A000A795979587952A95D1F79C01AD01405E05
:1057B0005F4FA0919D05B0919E050E94E435DC01EC
:1057C000CB01905EAF4FBF4FBC01CD013EE0959540
:1057D0008795779567953A95D1F7A70196010E942D
:1057E00087356B017C014FE0959587957795679597
:1057F0004A95D1F79B01AC010E9487359B01AC0112
:1058000067E055954795379527956A95D1F7A0910B
:105810009C05B0E00E94D935DC01CB0174E0B59560
:10582000A795979587957A95D1F7A7019601281B9B
:10583000390B4A0B5B0BDA01C90157FF03C080E04B
:1058400090E0DC0181309105A10539E1B30724F036
:1058500080E090E0A0E0B9E1BC01CD01ECE09595DD
:10586000879577956795EA95D1F70E941C3420E0DB
:1058700030E040E85AE30E941A358E010F5F1F4F57
:1058800021E043E00E94213020E040E0B80185E1C2
:1058900092E00E9481037AE0C72ED12CA601465DDA
:1058A0005C4F7A01DA018C91882309F487C021E4E6
:1058B00039E640E050E02FA738AB49AB5AAB1CAA01
:1058C0001BAAF601EE5EFE4F10814AE0BE01605C4D
:1058D0007F4F812F90E00E946A3042E050E0BE018D
:1058E000605C7F4FCE018F960E94D6371E3008F045
:1058F0001E5017708091040130E4839FC001112471
:10590000182B10937C0080917A00806480937A0039
:1059100080917A0086FDFCCF00917800809179001B
:1059200010E0182BD7018C9180FD2AC08C9182FD4C
:1059300027C08C9181FD24C08C9183FD21C08C9166
:1059400084FF1EC080E00E944905BC0180E090E019
:105950000E941A3420E030EC4FE754E40E94733385
:105960004B015C01B80180E090E00E941A349B0179
:10597000AC01C501B4010E941A350E94E5338B01C8
:10598000F701808186FF02C0000F111FD7018C91A3
:1059900087FF04C0000F111F000F111F4AE0BE0156
:1059A0006F5F7F4FC8010E946A3020E040E0BE0177
:1059B0006F5F7F4FCE018F960E948103BFEFCB1A9E
:1059C000DB0AEEE0CE16D10409F068CF49EFE42EF1
:1059D00042E0F42E00E010E0F801E65DFC4F80812B
:1059E00087FF2DC023E63FE540E050E02FA738AB0E
:1059F00049AB5AAB1BAA4AE0BE01605C7F4FC801AD
:105A00000E946A3042E050E0BE01605C7F4FCE01F0
:105A10008F960E94D637D7016D917D918D919C9183
:105A20002AE0AE014F5F5F4F0E94753020E040E0FA
:105A3000BE016F5F7F4FCE018F960E9481030F5F83
:105A40001F4FB4E0EB0EF11C0730110529F69091C1
:105A5000250381E089270E941707109225031092E1
:105A6000060180E00E9417070E94BD1600912103E5
:105A7000109122032091230330912403C0904E0300
:105A8000D0904F03E0905003F0905103DC01CB0124
:105A90008C199D09AE09BF09081719072A073B078A
:105AA00020F080914D038823B1F0012B022B032BB2
:105AB00091F00E94BD1660934E0370934F03809344
:105AC00050039093510320E041E068E172E08FE1E0
:105AD00092E00E94810320E040E06AED72E0CB0199
