:100000000C94E1020C94CC200C94A5200C94212299
:100010000C9482220C945E220C9412220C940903FC
:100020000C9409030C9409030C9409030C94090320
:100030000C9409030C9409030C9409030C94090310
:100040000C945B200C9409030C9429200C9403203D
:100050000C9409030C9409030C9409030C940903F0
:100060000C94F3200C94090300407A10F35A00A07A
:10007000724E18090010A5D4E80000E87648170071
:1000800000E40B54020000CA9A3B000000E1F505B1
:10009000000080969800000040420F000000A086FB
:1000A00001000000102700000000E803000000002D
:1000B0006400000000000A000000000001000000D1
:1000C00000002C76D888DC674F0823DFC1DFAE59EB
:1000D000E1B1B796E5E3E453C63AE651997696E87E
:1000E000E6C28426EB898C9B62ED407C6FFCEFBC02
:1000F0009C9F40F2BAA56FA5F490055A2AF75C932D
:100100006B6CF9676DC11BFCE0E40D47FEF520E662
:10011000B500D0ED902E0300943577050080841E45
:10012000080000204E0A000000C80C333333330FA0
:10013000986E12831141EF8D2114893BE65516CF3D
:10014000FEE6DB18D1844B381BF77C1D901DA4BB49
:10015000E424203284725E228100C9F124ECA1E5FE
:100160003D27005EBCE2613FDD83C29C7E20A3FD93
:100170001F419DC3217FFCA2401E5F01E3BD3E6085
:1001800082DC237D9FC1421CFEA0E1BF5D0380DEB7
:100190003C62BEE0025CDF81633D7C22C09E1D4369
:1001A000A1FF4618FAA427799BC584DA3866E5BB17
:1001B0005907DB856739BAE406581947A5FB782645
:1001C000C49A653BD987045AB8E6A7F91B45C69877
:1001D0007A24F8A6441A99C7257B3A6486D85B0529
:1001E000E7B98CD2306EEDB3510F4E10F2AC2F71D7
:1001F00093CD114FADF3702ECC92D38D6F31B2EC05
:100200000E50AFF1134DCE90722C6D33D18F0C5236
:10021000B0EE326C8ED0530DEFB1F0AE4C1291CFE8
:100220002D73CA947628ABF517490856B4EA693796
:10023000D58B5709EBB536688AD495CB2977F4AAC4
:100240004816E9B7550B88D6346A2B7597C94A14F6
:10025000F6A8742AC896154BA9F7B6E80A54D789A8
:100260006B3500000000240027002A000000000079
:10027000250028002B0000000008000201000003F8
:100280000407000000000000000000000000230040
:1002900026002900040404040404040402020202E7
:1002A0000202030303030303010204081020408039
:1002B000010204081020010204081020207F01011F
:1002C000000000000000000000065F5F0600000064
:1002D0000007070007070000147F7F147F7F1400CA
:1002E000242E6B6B3A120000466630180C666200D2
:1002F000307A4F5D377A48000407030000000000A1
:10030000001C3E63410000000041633E1C000000F1
:10031000082A3E1C1C3E2A0808083E3E0808000029
:100320000080E060000000000808080808080000DD
:1003300000006060000000006030180C060301003F
:100340003E7F71594D7F3E0040427F7F404000001C
:10035000627359494F660000226349497F360000A5
:10036000181C16537F7F5000276745457D390000D4
:100370003C7E4B4979300000030371790F07000080
:10038000367F49497F360000064F49693F1E00000D
:1003900000006666000000000040763600000000A5
:1003A000081C366341000000242424242424000077
:1003B000004163361C080000020351590F0600007B
:1003C0003E7F415D5D1F1E007C7E13137E7C00001E
:1003D000417F7F49497F36001C3E634141632200D3
:1003E000417F7F41633E1C00417F7F495D41630047
:1003F000417F7F491D0103001C3E63415173720020
:100400007F7F08087F7F000000417F7F4100000060
:10041000307040417F3F0100417F7F081C776300BF
:10042000417F7F41406070007F7F0E1C0E7F7F0008
:100430007F7F060C187F7F001C3E6341633E1C00DB
:10044000417F7F49090F06001E3F21717F5E00003A
:10045000417F7F09197F660022674D597322000092
:1004600003417F7F410300007F7F40407F7F00008A
:100470001F3F60603F1F00007F7F3018307F7F008C
:1004800043673C183C674300074F78784F070000EC
:10049000476371594D677300007F7F414100000041
:1004A0000103060C183060000041417F7F0000000E
:1004B000080C0603060C0800808080808080808005
:1004C0000000030704000000207454543C784000EE
:1004D000417F3F4848783000387C44446C28000015
:1004E000307848493F7F4000387C54545C18000005
:1004F000487E7F490302000098BCA4A4F87C040055
:10050000417F7F08047C780000447D7D400000002E
:1005100060E08080FD7D0000417F7F10386C4400EA
:1005200000417F7F400000007C7C18381C7C7800F4
:100530007C7C04047C780000387C44447C380000D7
:1005400084FCF8A4243C1800183C24A4F8FC840083
:10055000447C784C041C1800485C545474240000FB
:1005600000043E7F442400003C7C40403C7C400032
:100570001C3C60603C1C00003C7C7038707C3C0083
:10058000446C3810386C44009CBCA0A0FC7C00007B
:100590004C64745C4C64000008083E7741410000E4
:1005A00000000077770000004141773E0808000016
:1005B000020301030203010070784C464C7870007E
:1005C000A62211241FBECFEFD8E0DEBFCDBF13E0BF
:1005D000A0E0B1E0EAECFCE602C005900D92A03389
:1005E000B107D9F726E0A0E3B3E001C01D92A5361C
:1005F000B207E1F712E0C1EED2E004C02197FE019C
:100600000E940F36C03ED107C9F70E94B5230C9453
:1006100063360C94000080E008958CBD9DBD089564
:100620002091240581E0213208F044C0809100052A
:100630008111FCCF8091230592E09093000591E019
:100640009093FF049FEF9093FE041092FD0420937B
:10065000FC04A3E0B5E0ECEDF4E090E0291331C038
:100660001092DB049091DB04880F892B8093DB04CC
:100670008091DA04813049F51092DA048091DB042C
:100680008093BB008091BC0083FDF8CF85EC809304
:10069000BC00809100058230E1F38091FE048F3F21
:1006A000B1F08091FE048032A1F08091FE0480338D
:1006B00091F084E010920205109224051092010539
:1006C00008953D9131939F5FC9CF85EEE0CF80E0E3
:1006D000F1CF82E0EFCF83E0EDCF089508951F932F
:1006E000CF93DF9300D000D01F92CDB7DEB71C822E
:1006F00021E02B839A838983E0912206F0912306DF
:1007000011891D82A0912206B0912306E091260650
:10071000F09127069E012F5F3F4F50964C916FE05E
:1007200082E296E009958D818F5F8D83811750F36A
:100730000F900F900F900F900F90DF91CF911F911E
:100740000895662329F06A3019F0862F90E0089505
:100750008FEF9FEF08959B01DC011896ED91FC91BE
:1007600041E067E1099481E0809342048091400474
:1007700090914104DC01ED91FC910484F585E02D1C
:100780000995109242040895AF92BF92CF92DF92E2
:10079000EF92FF920F931F93CF93DF936C017B0136
:1007A0008B01040F151FEB015E01AE18BF08C017C7
:1007B000D10759F06991D601ED91FC910190F0813A
:1007C000E02DC6010995892B79F7C501DF91CF91FD
:1007D0001F910F91FF90EF90DF90CF90BF90AF905F
:1007E0000895FC01538D448D252F30E0842F90E037
:1007F000821B930B541710F0CF960895019708951C
:10080000FC01918D828D981761F0A28DAE0FBF2FE4
:10081000B11D5D968C91928D9F5F9F73928F90E03A
:1008200008958FEF9FEF0895FC01918D828D9817A9
:1008300031F0828DE80FF11D858D90E008958FEFE6
:100840009FEF0895FC01918D228D892F90E0805CAF
:100850009F4F821B91098F739927089585E295E038
:100860000E94220421E0892B09F420E0822F0895C0
:1008700080E090E0892B29F00E942E0481110C94D5
:1008800000000895FC01A48DA80FB92FB11DA35A33
:10089000BF4F2C91848D90E001968F739927848FA0
:1008A000A689B7892C93A089B1898C9183708064C3
:1008B0008C93938D848D981306C00288F389E02D64
:1008C00080818F7D80830895EF92FF920F931F9315
:1008D000CF93DF93EC0181E0888F9B8D8C8D9813F3
:1008E0001AC0E889F989808185FF15C09FB7F894FF
:1008F000EE89FF896083E889F9898081837080644B
:1009000080839FBF81E090E0DF91CF911F910F9195
:10091000FF90EF900895F62E0B8D10E00F5F1F4FA4
:100920000F731127E02E8C8D8E110CC00FB607FCB3
:10093000FACFE889F989808185FFF5CFCE010E9441
:100940004204F1CFEB8DEC0FFD2FF11DE35AFF4F69
:10095000F0829FB7F8940B8FEA89FB8980818062CF
:10096000CFCFCF93DF93EC01888D8823B9F0AA898C
:10097000BB89E889F9898C9185FD03C0808186FD5A
:100980000DC00FB607FCF7CF8C9185FFF2CF8081A9
:1009900085FFEDCFCE010E944204E9CFDF91CF91D8
:1009A0000895833081F028F4813099F08230A9F0E5
:1009B00008958730A9F08830C9F08430B1F480916F
:1009C00080008F7D03C0809180008F7780938000AE
:1009D000089584B58F7784BD089584B58F7DFBCF4E
:1009E0008091B0008F778093B00008958091B0001F
:1009F0008F7DF9CFCF93DF93282F30E0F901EA58AC
:100A0000FD4F8491F901E855FD4FD491F901EC5661
:100A1000FD4FC491CC23A1F081110E94D104EC2F91
:100A2000F0E0EE0FFF1FE657FD4FA591B491EC915A
:100A3000ED2381E090E009F480E0DF91CF9108950B
:100A400080E090E0FACF1F93CF93DF93282F30E020
:100A5000F901EA58FD4F8491F901E855FD4FD49111
:100A6000F901EC56FD4FC491CC23A9F0162F81114A
:100A70000E94D104EC2FF0E0EE0FFF1FE459FD4F70
:100A8000A591B4918FB7F894EC91111108C0D0954D
:100A9000DE23DC938FBFDF91CF911F910895DE2B72
:100AA000F8CF1092B9041092B80410920205109277
:100AB00024051092000581E08093FF041092DA046F
:100AC00061E082E10E94230561E083E10E94230549
:100AD000E9EBF0E080818E7F808380818D7F808351
:100AE00088E48093B80085E48093BC008DE693E0B1
:100AF0009093B7048093B6048EE693E09093B50488
:100B00008093B4040895CF93DF9390E0FC01E855FF
:100B1000FD4F24918C569D4FFC0184918823C9F090
:100B200090E0880F991FFC01EE59FD4FA591B491FB
:100B3000FC01E459FD4FC591D49161110DC09FB7DF
:100B4000F8948C91209582238C9388812823288384
:100B50009FBFDF91CF910895623051F49FB7F89411
:100B60003C91822F809583238C93E8812E2BEFCFAD
:100B70008FB7F894EC912E2B2C938FBFEACF3FB711
:100B8000F89480913C0490913D04A0913E04B09172
:100B90003F0426B5A89B05C02F3F19F00196A11D63
:100BA000B11D3FBFBA2FA92F982F8827BC01CD01B7
:100BB000620F711D811D911D42E0660F771F881F16
:100BC000991F4A95D1F708958F929F92AF92BF9245
:100BD000CF92DF92EF92FF926B017C010E94BF05E2
:100BE0004B015C01C114D104E104F104B9F00E948D
:100BF000BF05681979098A099B09683E7340810518
:100C0000910580F321E0C21AD108E108F10888EECD
:100C1000880E83E0981EA11CB11CE4CFFF90EF90DA
:100C2000DF90CF90BF90AF909F908F9008952FB797
:100C3000F894609138047091390480913A0490914D
:100C40003B042FBF08950895DC011A96ED91FC91A5
:100C500030E020E00994462FDC011496ED91FC91E0
:100C600030E020E06BE00994DC011696ED91FC91F8
:100C700030E020E040E069E10994DC011696ED9156
:100C8000FC9130E020E040E068E109949A01DC0149
:100C90001696ED91FC91462F67E10994EF92FF9231
:100CA0000F931F93CF93DF931F92CDB7DEB77C01D5
:100CB0008B01D8016C91673129F150F46531A0F4B2
:100CC0000F90DF91CF911F910F91FF90EF900895BA
:100CD0006A3118F16E3FA1F7F8014181498369E259
:100CE000C7010E9424060BC0F80141814983D70146
:100CF0001696ED91FC9130E020E0C70109950E5F5A
:100D00001F4FD7CFF80181818983AE014F5F5F4FBD
:100D100061E0C7010E944606F2CF0F5F1F4FD70167
:100D20001696ED91FC9130E020E040E0C701099576
:100D3000C0CF462FDC011696ED91FC9130E020E00B
:100D400066E10994462FDC011696ED91FC9130E0A6
:100D500020E065E10994EF92FF920F931F93CF93E8
:100D6000DF93EC01042F79016D3009F446C050F493
:100D70006B30C9F1693009F49FC06A3009F465C06D
:100D800080E046C06E3009F452C06F3099F70E947F
:100D90003D06F7011381110F110F110F6C89160F0A
:100DA00060E4CE010E94A206612F62956F706061BF
:100DB000CE010E94A206612F6F70CE010E9499069B
:100DC000F7016481606BCE010E949906F7014081B2
:100DD00051816281660F660F660FCE010E94460642
:100DE0000150A1F72EC064E571E0442311F06FE4D7
:100DF00071E0CE010E944E060AC0411110C068E4A5
:100E000071E00E944E06E881F98182898C8B81E035
:100E1000DF91CF911F910F91FF90EF90089561E4C2
:100E200071E00E944E06E881F9818389EFCF0E942C
:100E30003D0661E8CE010E94A206602FCE010E940D
:100E40009906CE010E943406E2CFEA85FB8530E0A8
:100E500020E040E068E2CE010995EE81FF8130E0BC
:100E600020E040E064E1CE01099541E06BE4CE0171
:100E70000E942406E881F981448169E2CE010E9442
:100E8000240640E06BE4CE010E942406E881F9814B
:100E9000448169E2CE010E94240641E06BE4CE0168
:100EA0000E942406E881F981458169E2CE010E9411
:100EB000240669E571E09DCF8EE891E099838883EF
:100EC0001C8AA5CFDC011896ED91FC9130E020E062
:100ED00040E069E10994DC011896ED91FC9130E065
:100EE00020E040E068E10994CF93DF931F92CDB7F3
:100EF000DEB76983BE016F5F7F4F0E94AB030F9027
:100F0000DF91CF910895EF92FF921F93CF93DF93DC
:100F1000EC01162F7A010E946B0760E4CE010E945B
:100F20007407E885F9859701412F67E1CE0109959E
:100F3000CE01DF91CF911F91FF90EF900C9462074B
:100F4000EF92FF921F93CF93DF93EC01142F79015F
:100F5000663181F138F4643109F44BC0653179F0C0
:100F600080E022C06831C9F150F16931C9F7809140
:100F70003604882391F1CE010E9462072EC0809131
:100F80003604882319F0CE010E946207CE010E9428
:100F90006B0760E0CE010E947407612FCE010E94B2
:100FA000740781E080933604DF91CF911F91FF9009
:100FB000EF900895642F0E94740781E0F5CF80912F
:100FC0003604882319F0CE010E946207A701193167
:100FD00038F4612FCE010E94830710923604EDCFC2
:100FE00068E1CE010E948307185188E1E80EF11CE8
:100FF000EDCF8E898F3F11F488E78E8BE885F985D8
:101000009701412F64E1CE01DF91CF911F91FF90B5
:10101000EF900994CF93DF93EC01A889B989FD0182
:10102000349131969491319684911396FD01A49157
:101030006317A8F1961798F1631B770B8A9FE02D31
:101040001124E69FC001E79F900D1124280F392F2E
:10105000311D83E0220F331F8A95E1F7C901049601
:10106000DA01245F3F4FE889F989E80FF91FE4911D
:10107000ED93019682179307B1F78D89882361F06C
:10108000FA019A01285F3F4F8191DF011197809506
:101090008C932E173F07C1F7DF91CF910895FA0186
:1010A000CA0108961192E817F907E1F7E6CF4F92C7
:1010B0005F926F927F928F929F92AF92BF92CF92E8
:1010C000DF92EF92FF920F931F93CF93DF93CDB7F1
:1010D000DEB72D970FB6F894DEBF0FBECDBF7C01F3
:1010E000C62ED42EB22EDC0150968D919C91FC011F
:1010F0003296149131960491512E560E040F81E0D0
:10110000860F581608F411E0712CFE0131964F013C
:1011100044244394672CAC2C262DA4016B2DC701CD
:101120000E940A08AC86DD864B869A868986D7019E
:101130001496ED91FC919E01275F3F4F41E06FE0D7
:10114000C70109956394A394A51430F3D394710E49
:10115000D01600F32D960FB6F894DEBF0FBECDBFAC
:10116000DF91CF911F910F91FF90EF90DF90CF9083
:10117000BF90AF909F908F907F906F905F904F90B7
:101180000895EF92FF920F931F93CF93DF93F82E62
:10119000E62EE0913206F09133063296C491109219
:1011A0003B068A01D0E0F80161918F01E0912406AD
:1011B000F091250682E296E009958F3F980771F03D
:1011C0008E3F2FEF920779F3282F4E2D6F2D82E25D
:1011D00096E00E945708FC0EDF5FE5CF8D2FDF9170
:1011E000CF911F910F91FF90EF90089521EA33E086
:1011F00030932506209324060C94C1080F931F9367
:10120000CF93DF938C01C62F642FCC32E8F4CA321F
:1012100008F041C0C83271F1C93209F442C080E01F
:10122000C034D0F1CF73F801EC0FF11D878D8F3FE3
:1012300091F1C031E0F00E94FA0421E0892B09F419
:1012400020E0F801228F27C0CD3289F140F384EBF2
:101250008C0F823020F7CF73C00FD12FD11D8F8D0F
:10126000411133C061E00E94830560E08F8D0E94D0
:10127000230511C0015E1F4FD0E0F80181918F015D
:101280008F3F31F061E0D03108F062E00E948305C9
:10129000DF5FD63191F781E0DF91CF911F910F9100
:1012A000089570E090E080E00E94E405F4CF85E0CE
:1012B00090E0433010F082E090E0880F991F880F93
:1012C000991F05970197F1F7E6CF62E00E94830529
:1012D000E2CF1F93CF93DF93EC01EC89FD894AADF8
:1012E0006A3059F43396E491E40FEAAF19AE81E025
:1012F00090E0DF91CF911F910895262F329614919F
:1013000069AD04960E945708E9ADE10FE9AFEFCF50
:1013100085ED8093BC008091BC0084FDFCCF1092D1
:101320000005089520911304260F3327331F21321F
:101330003105ECF420910005FC0190E080E02430C0
:1013400069F082E00895A09113042191AC014D5001
:101350005C4FA40FB52FB11D2C930196861798F3FF
:1013600080911304680F6093130480E0089581E076
:1013700008950895E091B9048091B804E81730F415
:10138000F0E0E654FB4F808190E008958FEF9FEFEF
:1013900008959091B9048091B8042FEF3FEF98170A
:1013A00048F4E92FF0E0E654FB4F208130E09F5FE6
:1013B0009093B904C90108958091B8049091B9043B
:1013C000891B990B0895CF92DF92EF92FF920F93B2
:1013D0001F93CF93DF937C01CB018A0120910105FC
:1013E000222389F0EB016B01C40ED51ECC15DD055F
:1013F00069F06991D701ED91FC910190F081E02DA8
:10140000C7010995F3CF642F0E949209C801DF91AB
:10141000CF911F910F91FF90EF90DF90CF900895A3
:10142000CF93DF93EC01962F683189F1B90199319F
:1014300030F4943199F0973159F080E006C0993139
:1014400009F447C09032C9F781E0DF91CF91089548
:1014500050E082EC95E00E94E309F6CF8C859D85F3
:10146000AE85BF85892B8A2B8B2B71F4E881F9819E
:10147000A585B0E020EA36E841E050E00E949C34C7
:101480006C877D878E879F870E945105DDCF2C85D5
:101490003D854E855F8560E074E284EF90E00E94B8
:1014A0004C342051310941095109569547953795DA
:1014B00027952093B8008E8990E09595879591E0C7
:1014C0009093010580932305109202051092240544
:1014D000BBCF0E941003B8CFCF93DF931F92CDB73D
:1014E000DEB76983209101052223F9F020912405BC
:1014F000203258F021E030E0FC013383228390E079
:1015000080E00F90DF91CF91089580910205E82F40
:10151000F0E0ED5FFA4F998190838F5F8093020531
:101520008093240581E090E0ECCF61E0CE0101964C
:101530000E949209F7CFDC0180E0615038F0ED9114
:10154000E827F0E0EE59FE4F8491F7CF0895DC01D3
:101550002C911196ED91FC91F8948181822B8183DD
:101560009281322F30959323928387E090E0019708
:10157000F1F781818323818383E290E00197F1F782
:1015800090817894EFECF0E03197F1F7922381E0CD
:1015900009F480E00895FC0190810180F281E02D42
:1015A000292F209560FF14C0F894828182238283C2
:1015B0008181892B8183A3E2B0E01197F1F78281C9
:1015C000982B9283789487ED90E00197F1F7089536
:1015D000F8948281822382838181892B8183AFEF7A
:1015E000B0E01197F1F78281982B928378948FE085
:1015F00090E0EBCFDF92EF92FF920F931F93CF9388
:10160000DF93EC01D62EE42E08E010E0FF24F394E3
:1016100061E08D2D8F2109F460E0CE010E94CB0A9C
:10162000FF0C01501109A1F7E11010C0F894E981F5
:10163000FA8191818881809589238183E981FA816A
:10164000928188818095892382837894DF91CF91DC
:101650001F910F91FF90EF90DF900895EF92FF920E
:101660000F931F93CF93DF938C017B0140E065E5DF
:101670000E94FA0AE70188E0E80EF11C699140E057
:10168000C8010E94FA0ACE15DF05C1F7DF91CF919C
:101690001F910F91FF90EF900895FC0190810180C0
:1016A000F281E02DF8948181292F20958223818376
:1016B00078943DE743E050E0315029F1DA01119789
:1016C000F1F780818923C1F3F89482818223828398
:1016D0008181892B81837894ABE7B7E01197F1F78B
:1016E000F894818182238183A3E1B1E01197F1F71E
:1016F0008081982381E009F080E07894E3E6F6E0C9
:101700003197F1F7089580E00895AF92BF92CF929C
:10171000DF92EF92FF920F931F93CF93DF938B0192
:10172000BC0180910206909103060E942E0B40E0BE
:101730006EEB80910206909103060E94FA0AE8017E
:10174000680189E0C80ED11CA0900206B090030683
:1017500088E0E82EF12C10E001E0C5010E94A70A04
:101760008111102B000F81E0E81AF108B1F71993ED
:10177000CC16DD0649F780910206909103060E947F
:101780004D0B91E0813009F090E0892FDF91CF91EE
:101790001F910F91FF90EF90DF90CF90BF90AF908F
:1017A00008950F931F93CF93DF93CDB7DEB729979B
:1017B0000FB6F894DEBF0FBECDBF8C01809102063C
:1017C000909103060E944D0B811102C080E01FC062
:1017D000BE016F5F7F4FC8010E94850B8823B1F364
:1017E00068E0CE0101960E949B0A99858913EECF8D
:1017F0008D818F33B9F020F48F3141F789E007C034
:101800008F3521F08F3711F78CE001C08BE02996DE
:101810000FB6F894DEBF0FBECDBFDF91CF911F9101
:101820000F9108958AE0F3CFCF93CFB7F8948091CA
:10183000F203811127C0EEE9F2E08491E2EBF2E0DD
:101840009491E82FF0E0EE0FFF1FEE59FD4FA591A8
:10185000B491EC91E92321F461E08AE00E94230530
:1018600061E08AE00E9483058CB580618CBD8CB5F7
:1018700080648CBD61E08DE00E94830561E08BE0B7
:101880000E9483058091F2038F5F8093F203CFBFA4
:10189000CF910895CF93DF93EC0161E08A810E949C
:1018A000230589858CBD8A858DBD80914204811177
:1018B00001C07894DF91CF910895FC01F8948CB524
:1018C00081878DB582878CB5837F8CBD8CB58F7DEC
:1018D0008CBD8CB58C7F8CBD8DB58E7F8DBD60E051
:1018E00082810C942305F89420915906233071F4D9
:1018F0002091F103222351F0DC01ED91FC91048849
:10190000F589E02D61E0099581E00895209159065F
:10191000233019F4789480E00895DC01ED91FC9176
:101920000288F389E02D0995F6CF3F924F925F929E
:101930006F927F928F929F92AF92BF92CF92DF92DF
:10194000EF92FF920F931F93CF93DF93EC01162F2B
:101950005A01922E802E312CCE2CD12CF12CE12C40
:1019600061E070E080E090E00E94E405E881F981A8
:101970000190F081E02D01E0292DA501612FCE011C
:1019800009950E9417062B013C010E941706641955
:101990007509860997096C157D058E059F0528F543
:1019A000E881F9810480F581E02DCE010995882335
:1019B00061F39091EF03191711F01F3F31F79091E8
:1019C000EC03992311F3DF91CF911F910F91FF90B9
:1019D000EF90DF90CF90BF90AF909F908F907F90CF
:1019E0006F905F904F903F9008953394831408F068
:1019F000B7CF80E0E8CFCF93DF93C0E1D7E261E0DB
:101A000085E00E94230560E085E00E942305219780
:101A1000B1F7DF91CF910895CF93DF93D82FC0E036
:101A200060E080E00E94230564E670E080E090E0E2
:101A30000E94E40561E080E00E94230564E670E016
:101A400080E090E00E94E405CF5FDC13E9CF60E026
:101A500080E00E94230568EE73E080E090E0DF9173
:101A6000CF910C94E40584B7877F84BFE0E6F0E073
:101A700080818861808310820895282FEDE6F0E050
:101A8000883050F0EBE6F0E08E3030F0ECE6F0E03D
:101A9000863110F0F0E0E0E03081422F50E0283055
:101AA00078F481E090E0A0E0B0E004C0880F991FD6
:101AB000AA1FBB1F2A95D2F78095832380830895A0
:101AC0002E3070F44850510981E090E0A0E0B0E081
:101AD00004C0880F991FAA1FBB1F4A95D2F7ECCFED
:101AE0004E505109F1CFEDE6F0E0883050F0EBE6D2
:101AF000F0E08E3030F0ECE6F0E0863110F0F0E00F
:101B0000E0E09081282F30E0883010F541E050E08F
:101B100060E070E0082E04C0440F551F661F771F59
:101B20000A94D2F7492B40839BB3883020F121E0FF
:101B30008E3008F420E081E001C0880F2A95EAF792
:101B4000982B9BBB90916800892B80936800089527
:101B50008E3070F42850310941E050E060E070E0D0
:101B600004C0440F551F661F771F2A95D2F7DACF9E
:101B70002E503109F1CF84E0E3CFCF93DF9366237A
:101B800009F4A6C0D091A8038091A703D81709F43F
:101B90008BC080E00E943D0D81E00E943D0D60E021
:101BA00080E00E94230560E081E00E94230580918F
:101BB000A30480FF04C060E081E00E94830565E02B
:101BC00070E080E090E00E94E40580E00E94FA046A
:101BD000892B29F4C0E08C2FDF91CF91089581E00B
:101BE0000E94FA04892BB1F3CCE361E080E00E940B
:101BF000830565E070E080E090E00E94E40561E02C
:101C000081E00E94830564E170E080E090E00E9442
:101C1000E40560E080E00E94830565E070E080E01C
:101C200090E00E94E40560E081E00E94830564E1A9
:101C300070E080E090E00E94E405C150B1F66AE0F7
:101C400070E080E090E00E94E405DC1751F161E073
:101C500081E00E94830565E070E080E090E00E94F2
:101C6000E40561E080E00E94830564E170E080E0CB
:101C700090E00E94E40560E081E00E94830565E059
:101C800070E080E090E00E94E40560E080E00E9467
:101C9000830564E170E080E090E00E94E405CF5F9E
:101CA000D4CFD093A703C1E08091A30480FF04C0E8
:101CB00061E081E00E94830580916C04882309F42F
:101CC0008ACF80E00E94730D81E00E94730D83CF64
:101CD0001092A7038530F8F0880F89508093A803ED
:101CE0008091A30480FF04C060E081E00E9483052E
:101CF00065E070E080E090E00E94E40580E00E94F2
:101D0000FA04892B31F081E00E94FA04C1E0892BAA
:101D100059F6C0E0C9CF1092A803E2CFCF92DF926C
:101D2000EF92FF920F931F93CF93DF936C01EB0120
:101D30007B01E40EF51E10E000E0CE15DF0561F03A
:101D40006991D601ED91FC910190F081E02DC601E1
:101D50000995080F191FF1CFC801DF91CF911F918D
:101D60000F91FF90EF90DF90CF9008950895089520
:101D700090E080E0089508958EBD00000DB407FE48
:101D8000FDCF8EB50895EF92FF920F931F93CF93DF
:101D9000DF939091DA059F3F41F4DF91CF911F913E
:101DA0000F91FF90EF900C94BC0ED82FC0E007E08D
:101DB00010E0EE24E394F12CCC0F60E08091DA0582
:101DC0000E942305B701002E01C0660F0A94EAF7AE
:101DD0006D238091D8050E94230561E08091DA058A
:101DE0000E9423058091D9050E94FA04892B09F0ED
:101DF000C1600150110900F78C2FDF91CF911F9125
:101E00000F91FF90EF900895CF93DF93D82FC62FB7
:101E10008091D7058F3FC9F48091CE0591E09093D2
:101E200001058093230510920205109224056D2F61
:101E300082EC95E00E946C0A6C2F82EC95E00E9487
:101E40006C0ADF91CF910C9410038091DA058F3FDB
:101E500021F482E591E00E940D0360E08091D705B6
:101E60000E9423058D2F8F770E94C30E8C2F0E9416
:101E7000C30E61E08091D705DF91CF910C942305CB
:101E80000F931F93CF93DF93EC01062F142FE8815C
:101E9000F981008CF18DE02D0995802F80680E94DA
:101EA000BC0E812F0E94BC0EE881F981028CF38D5B
:101EB000E02DCE01DF91CF911F910F9109941F93D7
:101EC000CF93DF93EC01162F45E561114DE56AE5EF
:101ED000CE010E94400F40E711114CE76CE5CE01A6
:101EE000DF91CF911F910C94400F1F93CF93DF93FD
:101EF000EC01162FE881F981008CF18DE02D099518
:101F0000812F0E94BC0E80E00E94BC0E182FE88139
:101F1000F981028CF38DE02DCE010995812FDF919F
:101F2000CF911F910895CF93DF93EC0168874AE129
:101F300061114FE063E1CE010E94400F8885882344
:101F400069F061E1CE010E94750F8F71482F4066E4
:101F500061E1CE01DF91CF910C94400F4F81406839
:101F6000F7CFCF93DF93EC011092F0031092EF03C1
:101F70001092EE031092F1031092ED031092EC0315
:101F80001092EB031092EA0368E20E94750F82FF41
:101F90000AC06DE3CE010E94750F482F44606DE3C7
:101FA000CE010E94400F40E465E2CE010E94400F46
:101FB000E881F9810488F589E02D63E0CE01DF91A5
:101FC000CF910994CF93DF93EC01603208F06FE179
:101FD0006F838885882311F066956F8361E1CE0158
:101FE0000E94750F807E4F81482B61E1CE01DF9109
:101FF000CF910C94400F1F93CF93DF9320915906FC
:10200000261761F0162FEC01623009F445C050F438
:10201000662309F453C0613009F449C0DF91CF91C0
:102020001F910895633021F16430C1F761E00E948F
:10203000750F837E482F4C6061E0CE010E94400FF7
:102040008885882341F0E881F9810688F789E02DA9
:1020500061E0CE01099580915906811106C067E2C1
:10206000CE010E94750F87FFF6CF10935906D6CF89
:1020700061E00E94750F837E482F406161E0CE01D0
:102080000E94400F8885882331F3E881F981068812
:10209000F789E02D60E0DDCF61E00E94750F837E5F
:1020A000482F486061E0CE010E94400FD4CF61E02C
:1020B0000E94750F837E482F4460F4CF61E00E9438
:1020C000750F482F437EEECFEF92FF920F931F9331
:1020D000CF93DF93EC0161E08AE596E00E94FB0F6D
:1020E0002097C1F08AE596E00E945D0C8EEB0E947D
:1020F000BC0E8E017E0180E1E80EF11CF801819199
:102100008F010E94BC0E0E151F05C1F78AE596E0EF
:102110000E944A0C6DE38AE596E00E94750F8E7F5F
:1021200041E0CD2B09F440E0482B6DE38AE596E0D1
:10213000DF91CF911F910F91FF90EF900C94400F82
:10214000CF92DF92EF92FF920F931F93CF93DF9383
:10215000EC01F62ED42EC52E122FE881F9810488C9
:10216000F589E02D61E0099567E2CE010E94750FC7
:1021700087FFFACF40E065E2CE010E94400F1E3398
:1021800008F01DE3E11027C0002339F100E4E881E5
:10219000F981008CF18DE02DCE01099580E80E9437
:1021A000BC0E83E0810F0E94BC0E8F2D0E94BC0EDE
:1021B0008D810E94BC0E802F0E94BC0E0D2DED2C37
:1021C000FC2C8E2D801B811750F4F70181917F012B
:1021D0000E94BC0EF6CF00E8DACF00E0D8CFE8814D
:1021E000F981028CF38DE02DCE010995E881F9810A
:1021F0000488F589E02D64E0CE0109950E94170658
:102200006B017C018B810E94FA04892B59F40E9496
:1022100017066C197D098E099F09683E7340810578
:10222000910580F3E881F9810488F589E02D61E06A
:10223000CE01DF91CF911F910F91FF90EF90DF9032
:10224000CF900994909100059111FCCF91E090936B
:1022500000059093FF042FEF2093FE041092FD04DD
:10226000260F2093FC049093DB049091DB04880FED
:10227000892B8093DB048091DA04813019F5109268
:10228000DA048091DB048093BB008091BC0083FD65
:10229000F8CF85EC8093BC00809100058130E1F39C
:1022A0008091FD04861710F46091FD04ACEDB4E05C
:1022B000EAEBF4E080E0861307C01092B904809343
:1022C000B804089585EEE6CF9D9191938F5FF3CF8B
:1022D000CF93C82F8091D7058F3FF9F48091CE0519
:1022E00091E09093010580932305109202051092CE
:1022F00024056C2F82EC95E00E946C0A0E9410036A
:1023000061E08091CE050E94221182EC95E00E944E
:10231000C909C82F8C2FCF9108958091DA058F3F7E
:1023200021F482E591E00E940D0360E08091D705E1
:102330000E9423058C2F0E94C30E80E00E94C30ED2
:10234000C82F61E08091D7050E942305E3CFCF938A
:10235000DF93C82F8091D7058F3F49F58091CE0537
:1023600091E090930105809323051092020510924D
:1023700024056C2F82EC95E00E946C0A0E941003E9
:1023800062E08091CE050E94221182EC95E00E94CD
:10239000C909C82F82EC95E00E94C90920E03C2FB2
:1023A000E901C82BD92BCE01DF91CF9108958091FF
:1023B000DA058F3F21F482E591E00E940D0360E091
:1023C0008091D7050E9423058C2F0E94C30E80E0C8
:1023D0000E94C30EC82F80E00E94C30EDC2FC82FBE
:1023E00061E08091D7050E942305DDCF0E94A711EF
:1023F0009827892798270895CF93DF9386E78093BE
:10240000CE058091D7058F3F09F0A8C00E945105E5
:1024100080ED0E946811883519F0803609F0BBC044
:1024200088E80E94F6119093DC058093DB058AE82A
:102430000E94F6119093DE058093DD058CE80E94E2
:10244000F6119093E0058093DF058EE80E94F61167
:102450009093E2058093E10580E90E94F611909344
:10246000E4058093E30582E90E94F6119093E60566
:102470008093E50584E90E94F6119093E805809326
:10248000E70586E90E94F6119093EA058093E90535
:1024900088E90E94F6119093EC058093EB058AE998
:1024A0000E94F6119093EE058093ED058CE90E9451
:1024B000F6119093F0058093EF058EE90E94F611D6
:1024C0009093F2058093F10581EA0E946811809350
:1024D000F30581EE0E94F6119093F5058093F405C3
:1024E00083EE0E9468118093F60584EE0E946811C5
:1024F000C82F85EE0E94681190E1C99F90011124B8
:102500008F70282B3093F8052093F70586EE0E94F4
:102510006811C82F85EE0E94681190E1C99FE00103
:10252000112490E024E0959587952A95E1F78C2B6E
:102530009D2B9093FA058093F90587EE0E94681110
:102540008093FB0565E082EF0E94040F67EB84EF48
:102550000E94040F81E0DF91CF91089561E00E9415
:10256000230561E08091D7050E9483058091DA05FB
:102570008F3F19F40E94140C4BCF61E00E94830539
:1025800061E08091D8050E94830560E08091D905C3
:102590000E9483053DCF80E0DECF8F929F92AF9265
:1025A000BF92CF92DF92EF92FF92F82E8091D705E3
:1025B0008F3F09F04CC08091CE0591E090930105CA
:1025C0008093230510920205109224056F2D82EC52
:1025D00095E00E946C0A0E94100363E08091CE0592
:1025E0000E94221182EC95E00E94C9094C01990FCA
:1025F000AA08BB08BA2CA92C982C882482EC95E058
:102600000E94C909092E000CAA0BBB0B882A992A23
:10261000AA2ABB2ABA2CA92C982C882482EC95E0F3
:102620000E94C909092E000CAA0BBB0B6C017D018D
:10263000C828D928EA28FB28C701B601FF90EF90E7
:10264000DF90CF90BF90AF909F908F900895809132
:10265000DA058F3F21F482E591E00E940D0360E0EE
:102660008091D7050E9423058F2D0E94C30E80E024
:102670000E94C30E90E0B0E0A0E0CC24D82EE92E5A
:10268000FA2E80E00E94C30EC82AFE2CED2CDC2C12
:10269000CC2480E00E94C30EC82A61E08091D70557
:1026A0000E942305C9CF8F929F92AF92BF92CF9283
:1026B000DF92EF92FF920F931F938AEF0E94CD1249
:1026C000EEECF5E00585168530E020E0C72ED82E2B
:1026D000E92EFF24E7FCFA94C01AD10AE20AF30AB1
:1026E00057E095958795779567955A95D1F7000F9F
:1026F000111F221F331F4B015C01801A910AA20A8D
:10270000B30AA5019401A785B0890E94A7344B01A3
:102710005C01BBE0B594A79497948794BA95D1F7E0
:10272000A7019601C701B6010E9428349B01AC01A4
:102730001CE055954795379527951A95D1F7A189AE
:10274000B2890E94A7349B01AC010EE055954795D4
:10275000379527950A95D1F7280D391D4A1D5B1D20
:102760002583368347835087A5E0B0E00E949C34E0
:1027700060587F4F8F4F9F4F672F782F892F992752
:1027800087FD9A950E94BD3220E030E048EC52E48B
:102790000E9414321F910F91FF90EF90DF90CF9025
:1027A000BF90AF909F908F900895BF92CF92DF928D
:1027B000EF92FF920F931F93CF93DF93EC01B62E0E
:1027C000C72EED84E11004C00E944D0B81110EC094
:1027D0001B861D861C8680E0DF91CF911F910F9193
:1027E000FF90EF90DF90CF90BF90089540E060EFB2
:1027F000CE010E94FA0AD12C01E011E0CE010E9424
:10280000A70AF82ECE010E94A70A91E0F91218C07B
:10281000813099F51134E0F2EB86E11002C081E0DD
:102820008D878B818823A1F22396EB2DFC2DCF0180
:10283000089629912193E817F907D9F781E0CCCFC1
:10284000ED2DF0E0F8120FC08B851817A0F4DE0113
:10285000AE0FBF1F13968C91802379F4F12C1930A1
:1028600008F41C87E12EEC0FFD1F8381902F9095BB
:10287000892383830AC08113F1CFFE01ED0DF11D81
:102880008381802B8383FF24F3946F2DCE010E94DC
:10289000CB0A1F5F000F11F4D39401E087E08D1580
:1028A00008F0ACCFB7CF0F931F93CF93DF938C017A
:1028B000D62FE0910206F091030613861586148642
:1028C0001286118610861782168215821482138250
:1028D000C0E0B80180910206909103060E94D513D2
:1028E000882329F0DC1749F0CF5FDC1790F780E0F0
:1028F000DF91CF911F910F91089567E0C8010E9469
:102900009B0AF80197818913EFCF81E0F1CFEF9215
:10291000FF921F93CF93DF93EC0180915906833090
:1029200009F098C068E2CE010E94750F82FF92C044
:10293000E881F9810488F589E02D61E0CE010995EF
:10294000E881F981008CF18DE02DCE01099580E0C0
:102950000E94BC0E80E00E94BC0E8093F103809127
:10296000F103833408F046C08091F1038093F103B2
:1029700080E00E94BC0E8093EE038E81811109C01D
:102980008091EE039D81981721F08091EE038F3F97
:1029900099F58091F103833078F18091F1038350B0
:1029A0008093F00380E00E94BC0E8093EF0380E0F0
:1029B0000E94BC0E982F90789093EC03982F9074FF
:1029C0009093ED03E881F9810684F785E02D682F67
:1029D000CE01099510E08091F003181710F5E12E53
:1029E000F12C80E00E94BC0EF701E355FC4F808380
:1029F0001F5FF1CF82E4BACF1092F103E881F98131
:102A0000028CF38DE02DCE010995E881F9810288D1
:102A1000F389E02DCE01DF91CF911F91FF90EF90D0
:102A200009948091F0038D3330F4E091F003F0E0ED
:102A3000E355FC4F1082E881F981028CF38DE02D83
:102A4000CE010995E881F9810488F589E02D63E0DC
:102A5000CE01099564E2CE010E94750F90E0919538
:102A600081959109959587959093EB038093EA035F
:102A7000DF91CF911F91FF90EF900895CF93DF9357
:102A800020915906233021F080E0DF91CF91089505
:102A90002091F1032111F8CFEC0164E20E94750F3F
:102AA00090E091958195910980379F4F6CF7E8816F
:102AB000F9810488F589E02D61E0CE01099581E076
:102AC000E4CF4F925F926F927F92AF92BF92CF927C
:102AD000DF92EF92FF920F931F93CF93DF93EC015E
:102AE0005B01F42E1092ED031091EF03C090EA0306
:102AF000D090EB036DE30E94750F482F44606DE3A7
:102B0000CE010E94400F0E9417062B013C01CE010E
:102B10000E943E15811113C00E94170664197509A1
:102B200086099709683E73408105910540F4E88164
:102B3000F9810480F581E02DCE010995E8CF10934D
:102B4000EF03E881F9810088F189E02DEE24E39418
:102B500000E02F2DA501612FCE010995D092EB0346
:102B6000C092EA03DF91CF911F910F91FF90EF90F8
:102B7000DF90CF90BF90AF907F906F905F904F901D
:102B800008958F929F92AF92BF92CF92DF92EF9271
:102B9000FF920F931F93CF93DF93EC01162F6A01DF
:102BA000F22E6DE30E94750F482F44606DE3CE0155
:102BB0000E94400F0E9417064B015C01CE010E944B
:102BC0003E15811113C00E941706681979098A09F8
:102BD0009B09683E73408105910540F4E881F981C5
:102BE0000480F581E02DCE010995E8CFE881F981D7
:102BF0000088F189E02DE12C2F2DA601612FCE0157
:102C00000995DF91CF911F910F91FF90EF90DF9089
:102C1000CF90BF90AF909F908F9008954F925F920A
:102C20006F927F928F929F92AF92BF92CF92DF92DC
:102C3000EF92FF920F931F93CF93DF93CDB7DEB741
:102C40006E970FB6F894DEBF0FBECDBF3C014B01AF
:102C5000F42E122F6DE370E00E94F82E082FF4017D
:102C600001900020E9F731976F01C818D9081111B8
:102C700010929A0316E0F11001C014E00E941706AA
:102C800020919603309197034091980350919903B6
:102C9000621B730B840B950B60327E44810591059A
:102CA00068F00E94170660939603709397038093D1
:102CB00098039093990381E0809307018C2D800FF6
:102CC0009927991F5C01412E512C840D951DCD979C
:102CD0000CF03FC11C2D8091070120919A0388239D
:102CE00009F49BC0822F90E0A501480F591F440DA5
:102CF000551D4D3351052CF4C11055C0222309F444
:102D000052C0885A9C4F2DE7FC01208364E28AE57B
:102D100096E00E94750F90E091958195910980371A
:102D20009F4F14F000E021C06091B00420919A03FD
:102D30002F5F94E6E92E02E048E553E08AE596E04D
:102D40000E94950C082F811128C00E9417066093DD
:102D5000960370939703809398039093990310922E
:102D600007018AE596E00E94730C802F6E960FB6DD
:102D7000F894DEBF0FBECDBFDF91CF911F910F91B1
:102D8000FF90EF90DF90CF90BF90AF909F908F908B
:102D90007F906F905F904F90089510929A038AE50C
:102DA00096E00E94730C80919A03282F30E0A20EC7
:102DB000B31E4A0C5B1C9CE3491651040CF0B2CFC5
:102DC000112309F4BBC0882399F1E1E0E80FE093F7
:102DD0009A03285A3C4F8CE2F901808390919A0320
:102DE00081E0890F80939A03E92FF0E0E85AFC4FC5
:102DF00022E220839095E92FE80FE60DF72DF11DD3
:102E00002081A1E0A80FE82FF0E0E85AFC4F222330
:102E100009F465C020838A2FEECFC110C4CF809102
:102E20000701222309F4BFCF813009F07BCFBBCF4C
:102E300091E090939A039BE79093580396E0EBE020
:102E4000F2E0DE01599601900D929A95E1F791E03A
:102E5000980FE9E1F0E0EC0FFD1FE80FF11D808114
:102E6000882339F0E92FF0E0E85AFC4F8083892F5E
:102E7000EECF90939A038091540390915503A091C3
:102E80005603B09157030196A11DB11D80935403C1
:102E900090935503A0935603B09357034AE0BE01A5
:102EA0006F5F7F4F0E94032F20919A03E22FAE2F76
:102EB000A21B81E090E08C0F9D1F8A0F911DDC0109
:102EC0009C9181E08E0FF0E0E85AFC4F992319F0B5
:102ED0009083E82FECCF80939A038CE27ECF92E22E
:102EE0009083E2E0E80FE0939A03B0E0A85ABC4F69
:102EF0002AE32C93FF2039F08D5F80939A03F0E052
:102F0000E85AFC4F908380919A03F40190E021915C
:102F1000A82FA90FB0E0A85ABC4F2C939F5F911720
:102F2000B0F3E82FEC0D8F5FF1100AC0E0939A0325
:102F3000E0919A03F0E0E85AFC4F108201E015CFCF
:102F4000C80EC0929A03F0E0E85AFC4F82E28083F8
:102F5000EFCF88E1E1E1F2E0DE01119601900D9200
:102F60008A95E1F780910701882309F4DBCE60910F
:102F7000B0048AEFE82E04E028E1AE014F5F5F4F16
:102F80008AE596E00E94950CCDCE4F925F926F92AB
:102F90007F928F929F92AF92BF92CF92DF92EF92E9
:102FA000FF920F931F93CF93DF93CDB7DEB72B978D
:102FB0000FB6F894DEBF0FBECDBF90910101892BF3
:102FC000809301019CEA892E91E0992EF12CE12C4D
:102FD0005524539466246394712CF40181914F011C
:102FE0000E94FA045C0144244394019709F0412CA7
:102FF000C7018D569B4F6C01FC01808183FF07C088
:10300000808182FF04C0808187FF5092AB038301DF
:103010000E2C02C0000F111F0A94E2F78091A90341
:103020009091AA03A8014823592321E0452B09F4D4
:1030300020E0241105C020910101222309F497C04A
:10304000F601208126FF5FC083E0E9E0F1E0DE01C8
:10305000119601900D928A95E1F71D821C824AE03B
:10306000BE01675F7F4FC7010E94032F42E050E01F
:10307000BE01675F7F4FCE0101960E9444364AE051
:10308000BE016A5F7F4F842D90E00E94032F20E0F5
:1030900041E0BE016A5F7F4FCE0101960E940E168D
:1030A000882371F08091A9039091AA03F1E0AF16F3
:1030B000B10419F5802B912B9093AA038093A90357
:1030C0005092AB0380916C04882371F15092AB0352
:1030D00080910101811102C050926D048091A90379
:1030E0009091AA03AA94AB2809F06FC0082B192B62
:1030F0001093AA030093A9033AC098012095309534
:1031000082239323D9CF21E0A216B10439F4802B76
:10311000912B9093AA038093A903D4CF9801209573
:10312000309582239323F5CFF40131978081F60106
:10313000AA94AB2809F040C0908193FF3AC00E9446
:10314000730DF601808187FF12C0F701EE0FFF1F9C
:10315000EE0FFF1FEC5BFB4F80819181A281B38159
:103160000196A11DB11D80839183A283B3832FEFAC
:10317000E21AF20A8AE0E816F10409F02ECF109262
:10318000010180E02B960FB6F894DEBF0FBECDBFD5
:10319000DF91CF911F910F91FF90EF90DF90CF9033
:1031A000BF90AF909F908F907F906F905F904F9067
:1031B00008950E943D0DC5CF908192FF03C00E94EB
:1031C000730DD5CF0E943D0DD2CF009510950823E9
:1031D00019238ECFDF92EF92FF920F931F93CF931D
:1031E000DF93C82F1092AC031092AB030E94330DF3
:1031F0008091A70483FF04C060E080E00E94230563
:103200008091A70482FD04C060E081E10E94230553
:103210008091A20482FF08C084EF0E946811682F89
:103220006C7F84EF0E94040F8091A70485FF07C084
:1032300021E040E06DE572E0CB010E940E16809126
:10324000A30484FD04C08091A30483FF0DC080917A
:10325000A70484FD09C08091A70487FD05C061E033
:1032600082E296E00E942B06D0907C0010927C00B7
:10327000E0907A0010927A00F0906400109264005E
:103280008091A9048F3F21F48091A8048F3F59F0C9
:1032900088E190E021E60FB6F894A895809360004D
:1032A0000FBE20936000CC2309F468C0C091A9042C
:1032B0008091A804C89FE001112421970091A904DE
:1032C0008091A804089F8001112460E08AE596E0BF
:1032D0000E94FB0FC017D10708F053C08091A704CC
:1032E00081FF0EC08091A70482FF0AC061E081E1E6
:1032F0000E9423050E94FB0C60E081E10E942305EF
:1033000083B7817F846083BF83B7816083BF7894F4
:1033100083B7816083BF889583B78E7F83BFC430B6
:10332000D105A9F48091A30484FD04C08091A30475
:1033300083FF0DC08091A70487FF09C0F09264004D
:1033400061E082E296E00E942B0610926400809178
:10335000A20483FF06C06EE170E080E090E00E946E
:10336000E4058091AB0381110CC08091AC038823EC
:1033700019F01092AC0321972196ACCFD0E0C0E0B9
:103380009DCF0E94330DF0926400D0927C00E092B9
:103390007A0081E0809307018091A20482FF08C037
:1033A00084EF0E946811682F636084EF0E94040F0D
:1033B0008091A70480FF04C061E081E10E942305A1
:1033C0008091A30484FD04C08091A30483FF05C001
:1033D00060E082E296E00E942B068091A70483FFC2
:1033E00004C061E080E00E94230588E199E20FB605
:1033F000F894A895809360000FBE90936000DF91D1
:10340000CF911F910F91FF90EF90DF900895CF9291
:10341000DF92EF92FF921F93CF93DF93CDB7DEB78A
:103420002A970FB6F894DEBF0FBECDBF182F8EE4DB
:1034300080937C0062E070E080E090E00E94E40510
:1034400080917A00806480937A0080917A0086FD72
:10345000FCCF8091780020917900322F282F50E006
:1034600040E06CE374EF80E190E00E946E3469010B
:10347000112381F04AE0BE016F5F7F4FC6010E94B9
:10348000032F20E040E0BE016F5F7F4F89E292E0B2
:103490000E940E16C6012A960FB6F894DEBF0FBE24
:1034A000CDBFDF91CF911F91FF90EF90DF90CF9034
:1034B00008952F923F924F925F926F927F928F92D8
:1034C0009F92AF92BF92CF92DF92EF92FF920F93B3
:1034D0001F93CF93DF93CDB7DEB762970FB6F89403
:1034E000DEBF0FBECDBF382E3BE9A32E33E0B32E97
:1034F00049E0C42ED12CCE010B969A8B898B52E2D7
:10350000852E912C62E0262EF601ED56FB4F7F01B1
:103510008081882309F4DAC0808182FF24C03320AF
:1035200029F0809100018150809300018091000179
:10353000811119C02092000161E00E94830561E0C1
:1035400080E00E94230560E177E280E090E00E9445
:10355000E40560E080E00E94230564EF71E080E014
:1035600090E00E94E40583E0EEE0F1E0DE011896D1
:1035700001900D928A95E1F7E989FA8923E0119289
:103580002A95E9F7F601E455FE4F10814AE0BE01A5
:10359000625F7F4F812F90E00E94032F42E050E056
:1035A000BE01625F7F4FCE0108960E9444361E30F6
:1035B00008F01E5080910601E0E48E9FC0011124A6
:1035C0001770182B10937C0080917A008064809390
:1035D0007A0080917A0086FDFCCF6091780000919E
:1035E0007900102F062FF501808191819C01823393
:1035F000910510F022533109C2968017910730F0DF
:103600000217130718F0332009F460C0F501118385
:103610000083F701808180FD28C0808181FD25C065
:10362000808183FD22C0808184FD03C0808182FF70
:103630001CC080E00E94071ABC0190E080E00E945C
:10364000BB3220E030EC4FE754E40E9414322B01EF
:103650003C01B80190E080E00E94BB32A3019201DE
:103660000E94BB330E9486328B01F701808182FF6A
:103670000FC0045F114017FF02C010E000E0C80156
:10368000880F991F800F911FB4010E9438348B015D
:10369000F701808185FF02C0000F111FF7018081B3
:1036A00086FF04C0000F111F000F111F4AE0BE016A
:1036B0006F5F7F4FC8010E94032F20E040E0BE01F2
:1036C0006F5F7F4FCE0108960E940E16FFEFCF1A54
:1036D000DF0A22E0A20EB11C8FE0C816D10409F067
:1036E00013CF62960FB6F894DEBF0FBECDBFDF9149
:1036F000CF911F910F91FF90EF90DF90CF90BF90EF
:10370000AF909F908F907F906F905F904F903F9081
:103710002F9008952F923F924F925F926F927F92D7
:103720008F929F92AF92BF92CF92DF92EF92FF92D1
:103730000F931F93CF93DF93CDB7DEB7CE5ED10942
:103740000FB6F894DEBF0FBECDBF8AE596E00E94AB
:10375000730C782E882309F4DFC38091A70483FFBC
:1037600004C061E080E00E942305E090EF038091B7
:10377000EA039091EB03F090F0030F2D10E0A80105
:103780006DEA73E0CE018F559F4F0E9415368091F0
:10379000ED03882359F08091EE038F3F39F040E02C
:1037A0006DE572E08AE596E00E9461158AE596E093
:1037B0000E94730C8091B004E812A0C3E1EAF0E02B
:1037C000EC0FFD1FE00FF11F108200E09E012F554E
:1037D0003F4F790114E162E27FE2C7010E9429367E
:1037E0006C01892B09F467016FE570E0C6010E9446
:1037F00029367C01802E912C81E090E08C0F9D1F5A
:10380000019F800D911D1124E114F10409F481C080
:103810005701AC18BD0831E0A31AB108B6016F5FBB
:103820007F4FA5010E945436189DC001199D900D2F
:103830001124E1E0F0E0EC0FFD1F8E0F9F1FA80E9A
:10384000B91EF5011082DD24D394D00EFFEFEF1ADC
:10385000FF0A62E27FE2C7010E9429365C010097FD
:1038600009F455C04C018E189F0821E030E02C0F60
:103870003D1FD19E200D311D11246901A401B70106
:10388000C9010E945436C80CD91CF601108272E09E
:10389000672E600E7501FFEFEF1AFF0A62E27FE20A
:1038A000C7010E942936009781F17C012FEFE21AAF
:1038B000F20A62E27FE2C7010E9429366C0100979A
:1038C00021F14C018E189F08AA24A394B12CAC0EB0
:1038D000BD1E619EA00CB11C1124A401B701C5013D
:1038E0000E945436A80CB91CF501108263E0662EC4
:1038F000600EFFEFCF1ADF0A62E27FE2C6010E948C
:1039000029367C01892B09F47601062D64CF0D2D13
:1039100062CF44E150E0B6010E945436212C10E001
:1039200044E1642E2EED30E02C0F3D1F2D5F3F4F04
:10393000C351DF4F39832883CD5ED040169D60018F
:1039400011246EE272E081E090E08C0F9D1F8C0DDF
:103950009D1D0E943436892B09F08FC0560134E139
:10396000A30EB11C81E090E08C0F9D1FA80EB91E24
:10397000C5010E94DA2E7C019FE1E916F1040CF0EA
:103980007CC0C6018896E1E0F0E0EC0FFD1F8E0FD1
:103990009F1F0E94DA2E6701DD24960120503040DF
:1039A0004901682FC9010E94CA31C4010E94B8317F
:1039B000F601ED56FB4F6F0180832091B10430E09A
:1039C000A0E1B7E20E948D3460938704709388046D
:1039D0008093890490938A042091AB0430E0A8E896
:1039E000B3E10E948D3460937E0470937F048093D2
:1039F0008004909381042091AA0430E00E948D34C9
:103A000060937104709372048093730490937404B0
:103A100083E0E4E1F1E0DE01A252BF4F01900D929C
:103A20008A95E1F7C351DF4FE881F981CD5ED0403F
:103A300027E011922A95E9F742E050E0B501CE0166
:103A400082529F4F0E944436F60180814AE0BE01B7
:103A500068517F4F90E00E94032F20E040E0BE01BC
:103A600068517F4FCE0182529F4F0E940E161E5FFB
:103A70008CEE8E0D853008F0272C169D70011124D8
:103A800062E672E081E090E08C0F9D1F8E0D9F1D1D
:103A90000E943436892BE9F583E0E4E1F1E0DE01B0
:103AA000A252BF4F01900D928A95E1F7C351DF4FAB
:103AB000E881F981CD5ED04027E011922A95E9F79F
:103AC00034E1E30EF11C81E090E08C0F9D1FE80EC5
:103AD000F91E42E050E0B70183529F4F0E944436E6
:103AE000C7010E94DA2E8D569B4FFC0180814AE06F
:103AF000BE0168517F4F90E00E94032F20E040E01C
:103B0000BE0168517F4FCE0182529F4F0E940E1618
:103B10001E5F169D40011124CC24C394D12CCC0EE1
:103B2000DD1EC80CD91C60E372E0C6010E94343669
:103B3000892B09F046C0F12CE12C97012D563B4F03
:103B40005901F90180818823A1F183E0E4E1F1E0EA
:103B5000DE01A252BF4F01900D928A95E1F7CF513D
:103B6000DF4F19821882C15ED0404AE0BE01685121
:103B70007F4FC7010E94032F44E050E0BE0168510F
:103B80007F4FCE0182529F4F0E944436F5018081C3
:103B90004AE0BE0168517F4F90E00E94032F20E071
:103BA00041E0BE0168517F4FCE0182529F4F0E947B
:103BB0000E16FFEFEF1AFF0A2FE1E216F10409F0EB
:103BC000BCCF66ED72E0C6010E943436892B81F5C8
:103BD000740134E1E30EF11C81E090E08C0F9D1F35
:103BE000E80EF91EC7010E94DA2E8D569B4FFC018C
:103BF000808185FD10926F04F8E28F0E911C21E008
:103C000030E02C0F3D1F820E931E65E372E0C4016D
:103C10000E943436892B09F031C1C7010E94DA2E87
:103C200084559E4F61E0FC0180810E9423051E5F48
:103C3000169D7001112488248394912C8C0E9D1E56
:103C40008E0C9F1C67E372E0C4010E943436892BFE
:103C5000C1F56701F8E2CF0ED11C21E030E02C0F56
:103C60003D1FC20ED31E6BE372E0C6010E943436C4
:103C70002C01570134E1A30EB11C81E090E08C0FC0
:103C80009D1FA80EB91EC5010E94DA2E825C9E4FB0
:103C9000FC013080452809F000C160E0832D0E94BE
:103CA000230564E670E080E090E00E94E405C50131
:103CB0000E94DA2E825C9E4F61E0FC0180810E94AE
:103CC000230561E472E0C4010E943436892B79F443
:103CD00041E150E061E270E0C701889621E030E008
:103CE0002C0F3D1F820F931F0E94C031272C6BECBD
:103CF00072E0C4010E943436892B51F58091A304EF
:103D000083FFD6C0670134E1C30ED11C81E090E08F
:103D10008C0F9D1FC80ED91EC6010E94DA2E62E0CC
:103D2000680F41E552E084E00E94F608C6010E9457
:103D3000DA2EA701485D5F4FE1E0F0E0EC0FFD1FD8
:103D40004E0F5F1F62E0680F84E00E94F6081E5F5E
:103D5000169D70011124CC24C394D12CCC0EDD1EF1
:103D6000CE0CDF1C63ED72E0C6010E943436892B55
:103D7000E1F481E080936C04C701889621E030E093
:103D80002C0F3D1F820F931F0E94DA2E60E00E94CD
:103D9000BD0D20E041E06EE572E0882311F068E699
:103DA00072E084E692E00E940E166BE672E0C601B5
:103DB0000E943436892B31F50E94170660937504F2
:103DC00070937604809377049093780460917504DF
:103DD0007091760480917704909178042AE0AE0186
:103DE00042525F4F0E940E2F20E040E0BE0162521F
:103DF0007F4F8EE692E00E940E1610927004109291
:103E00006F041E5F1F5F011708F098CD222099F004
:103E100020E040E063E772E088E892E00E940E163E
:103E2000A89588E199E20FB6F894A8958093600070
:103E30000FBE909360008091A70483FF04C060E0F0
:103E400080E00E942305872DC251DF4F0FB6F89402
:103E5000DEBF0FBECDBFDF91CF911F910F91FF90BD
:103E6000EF90DF90CF90BF90AF909F908F907F901A
:103E70006F905F904F903F902F90089566E672E0AC
:103E8000C4010E943436892B09F0D1CEC7010E94AB
:103E9000DA2E84559E4F60E0C6CE65E372E0C6011F
:103EA0000E94343660E0892B09F061E0832D07CF52
:103EB0008091A30484FF4BCF6701F4E1CF0ED11CA6
:103EC00021E030E02C0F3D1FC20ED31EC6010E9420
:103ED000DA2E45E452E0682F80E00E94F608C60121
:103EE0000E94DA2EA701485D5F4FE1E0F0E0EC0FA1
:103EF000FD1F4E0F5F1F682F80E027CF6091B00439
:103F00008AEFE82E04E02F2DAE014F555F4F8AE572
:103F100096E00E94950C8FCF8AE596E00E94730C84
:103F200092CFCF92DF92EF92FF920F931F93CF9396
:103F3000DF931F92CDB7DEB7C82EDD24D39410E0F7
:103F4000882349F083E1898382E0D82E10E006C0FF
:103F500032E0D32E11E081E18983C12C80910701E9
:103F6000882369F06091B0042AEFE22E04E021E09A
:103F7000AE014F5F5F4F8AE596E00E94950CF12CF1
:103F8000E12C0E948A1B882311F0F12CE12C61E0C6
:103F900070E080E090E00E94E4058FEFE81AF80AF4
:103FA00083ECE81681E0F80661F7C1102AC0809121
:103FB000A904811104C08091A804882311F182E131
:103FC000898380910701882369F06091B0049AEF9A
:103FD000E92E04E021E0AE014F5F5F4F8AE596E0F5
:103FE0000E94950C1F5F1D1508F4B2CF81E00F9061
:103FF000DF91CF911F910F91FF90EF90DF90CF90C5
:10400000089584E1DDCF1F920F920FB60F92112415
:104010002F933F934F935F936F937F938F939F93D0
:10402000AF93BF93EF93FF9385E295E00E94420424
:10403000FF91EF91BF91AF919F918F917F916F9180
:104040005F914F913F912F910F900FBE0F901F9056
:1040500018951F920F920FB60F9211242F938F93E2
:104060009F93EF93FF93E0913505F09136058081A2
:10407000E0913B05F0913C0582FD1BC09081809151
:104080003E058F5F8F7320913F05821741F0E091CD
:104090003E05F0E0EB5DFA4F958F80933E05FF9172
:1040A000EF919F918F912F910F900FBE0F901F90C6
:1040B00018958081F4CF1F920F920FB60F921124A2
:1040C0002F933F938F939F93AF93BF938091380427
:1040D00090913904A0913A04B0913B043091370497
:1040E00023E0230F2D3758F50196A11DB11D209314
:1040F00037048093380490933904A0933A04B09322
:104100003B0480913C0490913D04A0913E04B09109
:104110003F040196A11DB11D80933C0490933D0482
:10412000A0933E04B0933F04BF91AF919F918F91B4
:104130003F912F910F900FBE0F901F90189526E87A
:10414000230F0296A11DB11DD2CF1F920F920FB661
:104150000F9211242F933F934F935F936F937F930D
:104160008F939F93AF93BF93EF93FF93E0910401DD
:10417000F09105010995FF91EF91BF91AF919F914A
:104180008F917F916F915F914F913F912F910F9000
:104190000FBE0F901F9018951F920F920FB60F929F
:1041A00011242F933F934F935F936F937F938F933C
:1041B0009F93AF93BF93EF93FF93E0910201F09130
:1041C00003010995FF91EF91BF91AF919F918F915D
:1041D0007F916F915F914F913F912F910F900FBE03
:1041E0000F901F9018951F920F920FB60F921124E7
:1041F0002F933F934F935F936F937F938F939F93EF
:10420000AF93BF93EF93FF938091B900887F80367F
:1042100009F44AC0F0F5883209F4A7C018F58031D6
:1042200009F49BC0B8F4882309F4F9C0883009F474
:1042300094C0FF91EF91BF91AF919F918F917F912A
:104240006F915F914F913F912F910F900FBE0F9003
:104250001F901895883109F488C0803251F78093F7
:10426000FE0414C0803409F49DC040F48033B9F3D7
:104270008833F9F68093FE0485ECB0C0803509F4EC
:1042800085C0883509F496C0883499F60E9488095B
:10429000D0CF883909F48CC038F5883729F050F42C
:1042A000883611F0803729F683E08093000510925C
:1042B000350457C0883809F47BC0803919F080383C
:1042C00009F0B7CF80913504803208F071C0E091D9
:1042D000350481E08E0F809335048091BB00F0E0BF
:1042E000EB5EFB4F80833DC0803B39F0E0F4803AC9
:1042F00009F479C0883A09F09CCF84E080930005E6
:104300001092140410921304E091B604F091B704D3
:1043100009958091130481110FC081E080931304EB
:104320001092F30309C0803C09F4A6CF883C09F43D
:10433000A3CF883B09F07DCFE091140481E08E0F7C
:1043400080931404F0E0ED50FC4F80818093BB001B
:10435000909114048091130429C08091DB04809310
:10436000BB0085EC8093BC0064CF9091FD048091EC
:10437000FC04981758F5E091FD0481E08E0F8093BE
:10438000FD04F0E0E452FB4F8081E9CFE091FD04B1
:1043900081E08E0F8093FD048091BB00F0E0E45239
:1043A000FB4F80839091FD048091FC049817C8F224
:1043B00085E8D8CFE091FD0481E08E0F8093FD0465
:1043C0008091BB00F0E0E452FB4F80838091FF04BA
:1043D00081115CCF81E08093DA0484EA8093BC0091
:1043E0001092000526CF85EC8093BC00109200054A
:1043F00080913504803230F4E0913504F0E0EB5EDA
:10440000FB4F10826091350470E0E091B404F091AC
:10441000B50485E194E00995109235040ACF109215
:10442000FE0434CF1F920F920FB60F9211248F9378
:1044300083B78E7F83BF8F910F900FBE0F901F9019
:1044400018951F920F920FB60F9211242F933F933E
:104450004F935F936F937F938F939F93AF93BF938C
:10446000CF93EF93FF93F89462E070E080E090E0E8
:104470000E94E405789483B78E7F83BFC0910701C3
:104480001092070180E00E94C51781E080938604A6
:10449000C09307018093AC03FF91EF91CF91BF913F
:1044A000AF919F918F917F916F915F914F913F91CC
:1044B0002F910F900FBE0F901F9018951F920F9283
:1044C0000FB60F9211242F933F934F935F936F93E7
:1044D0007F938F939F93AF93BF93EF93FF930E942C
:1044E0002122FF91EF91BF91AF919F918F917F9189
:1044F0006F915F914F913F912F910F900FBE0F9051
:104500001F9018951F920F920FB60F9211242F93A0
:104510003F934F935F936F937F938F939F93AF934B
:10452000BF93EF93FF930E942122FF91EF91BF91E0
:10453000AF919F918F917F916F915F914F913F913B
:104540002F910F900FBE0F901F901895CF93109240
:1045500028051092270588EE93E0A0E0B0E0809354
:10456000290590932A05A0932B05B0932C052FEBDA
:1045700031E0309326052093250525EC30E030937B
:1045800032052093310524EC30E03093340520933C
:10459000330520EC30E0309336052093350521ECCF
:1045A00030E0309338052093370522EC30E030932B
:1045B0003A052093390526EC30E030933C052093F2
:1045C0003B0510923E0510923F0510924005109257
:1045D00041051092C5051092C4058093C6059093BD
:1045E000C705A093C805B093C90581ED91E09093EC
:1045F000C3058093C2058FEE91E090935B06809394
:104600005A0685E080935C0683E080935D0681E036
:1046100080935E0680935906109260068FE1809326
:1046200061061092620610922106109220061092E6
:1046300057061092580683EE91E090931F068093E0
:104640001E06109223061092220610923706109230
:104650003A0610923B0610922E0610922F061092E8
:104660003006109231068FEF8093380680933D0616
:10467000E1E4F6E0CFEFC19386E0E735F807D9F73C
:104680008BEA96E0909327068093260680EA97E0CF
:10469000909329068093280680E19AE090932B0658
:1046A00080932A068EEF98E090932D0680932C0637
:1046B00030E020E040E069E082E296E00E94AB0654
:1046C000C0934C06C0934D06C0934E0660E089E04F
:1046D0000E948305E1EBF2E0E491E0931006EDE93E
:1046E000F2E0E491F0E0EE0FFF1FE657FD4F8591F9
:1046F0009491909312068093110610921B061092CB
:104700001D0610921C0610921A061092190610929D
:10471000180610921706109216061092150610929F
:1047200014061092130680E196E09093030680939E
:10473000020610920006109201061092FC0589E014
:104740008093FD0581E08093FE058093FF05109224
:104750000F0610920E06C093D705C093D805C093DC
:10476000D905C093DA05CF910895CF93DF93CDB7E4
:10477000DEB7CF56D1090FB6F894DEBF0FBECDBF5E
:10478000789484B5826084BD84B5816084BD85B52C
:10479000826085BD85B5816085BD80916E00816038
:1047A00080936E00109281008091810082608093DE
:1047B00081008091810081608093810080918000E0
:1047C0008160809380008091B10084608093B1000B
:1047D0008091B00081608093B00080917A00846005
:1047E00080937A0080917A00826080937A00809131
:1047F0007A00816080937A0080917A00806880934B
:104800007A001092C1000E94330D81E00E940C0DCD
:1048100080E090E00E94B8318F3F31F08FE190E06E
:104820000E94B8318F3AB9F100E010E060E0C801B1
:104830000E94CA310F5F1F4F20E00C311207B1F701
:104840006FEF8AE190E00E94CA316EEF8BE190E059
:104850000E94CA3161E08CE190E00E94CA3161E0BF
:104860008DE190E00E94CA3165E18EE190E00E9406
:10487000CA316FEA8FE190E00E94CA3160E080E2C5
:1048800090E00E94CA3141E150E061E270E08EE8C0
:1048900092E00E94C03110E000E0C80180509040DA
:1048A0000E94B831F801ED56FB4F80830F5F1F4F18
:1048B0000132110591F7E4E4F4E0119211921192A2
:1048C000119234E0EC36F307C1F72091B10430E0E7
:1048D000A0E1B7E20E948D3460938704709388044E
:1048E0008093890490938A042091AB0430E0A8E877
:1048F000B3E10E948D3460937E0470937F048093B3
:104900008004909381042091AA0430E00E948D34A9
:104910006B017C01C0927104D0927204E092730426
:10492000F09274040E9417066C197D098E099F0984
:104930006093750470937604809377049093780461
:10494000CD28CE28CF2809F4E6C010926F048091BC
:10495000AF04813029F48091AE048E3F09F4DFC0AA
:1049600081E08093070161E080E00E94830561E0BF
:1049700080E00E94830561E080E00E94830561E0A1
:1049800082E00E94830560E080E00E94230561E0F0
:1049900082E00E94230565E070E080E090E00E94E4
:1049A000E40560E082E00E9423056AE070E080E0B8
:1049B00090E00E94E4053091AF041091AE04FE0136
:1049C00033968CE2DF011D928A95E9F781E08983B5
:1049D00084E08A8322E02B8393E09D832E838F8360
:1049E00080E4888725E029879A8796E09B8793E370
:1049F0009C8797E09D8728E02F8729E0298B29E174
:104A00002B8B22E42C8B45E24D8B8E8B46E24F8B19
:104A1000988F98E2998F90E19A8F99E29B8F9CED05
:104A20009C8F9EE29D8F98E89E8F9FE29F8F9DE2D4
:104A300098A390E399A347E34BA340E94CA348E331
:104A40004DA32EA32CE32FA32FE828A72DE329A7FE
:104A500022E12AA72FE62BA79CA79FEF9DA79CE604
:104A60009E87888B3AA361E080915C060E942305B3
:104A700061E080915C060E9483050E94140C0E94F4
:104A800017066B017C014AEA6FE28AE596E00E9414
:104A9000400F6FE28AE596E00E94750F8A3A59F05E
:104AA0000E9417066C197D098E099F0962337105F2
:104AB0008105910540F30E9417066B017C0145E5D5
:104AC0006FE28AE596E00E94400F6FE28AE596E089
:104AD0000E94750F853559F00E9417066C197D09E3
:104AE0008E099F09623371058105910540F300E04D
:104AF000FE0131966F01E02FF0E0EE0FFF1FEC0D8D
:104B0000FD1D60816F3F71F041818AE596E00E9452
:104B1000400F0F5FF0CF81E080936F0418CF1092A9
:104B2000070121CF90E080E00E946410609162064E
:104B30008AE596E00E94930F61E08AE596E00E9484
:104B4000FB0F0E9417064B015C0167E28AE596E0C5
:104B50000E94750F87FD0BC00E941706681979091E
:104B60008A099B09623371058105910570F30E94E2
:104B70001706681979098A099B096233710581054D
:104B8000910570F51092420480915E06823098F48F
:104B9000E82FF0E0EE0FFF1FEE5FFE4F23EB33E058
:104BA00031832083813009F419C3809169008360C7
:104BB00080936900E89A8AE596E090934104809397
:104BC000400410935F0667E00E94750F182F67E09E
:104BD0008AE596E00E94750F1F3F11F0811103C016
:104BE0008EE10E940C0D6FE18AE596E00E94E20FD3
:104BF00041E150E061E270E0CE018F960E94A83161
:104C0000CE018F960E9464108AE596E00E94730C94
:104C100080919D0481110BC080919E04811107C079
:104C200080919F04811103C08091A0048111109292
:104C30000601ACEA8A2EA1E09A2E10E000E0D40131
:104C4000FD904D01F801ED56FB4F5F01FAE0FF16B4
:104C500061F0D5016C9161708F2D0E948305F50183
:104C6000608162708F2D0E942305D5018C9182FF97
:104C700003C08F2D0E94730D0F5F1F4F0A30110567
:104C8000F1F68091A70480FF08C061E081E10E94F5
:104C9000830561E081E10E9423058091A20481FFE8
:104CA00008C060E080E00E94830561E081E00E942E
:104CB00083058091A30484FD04C08091A30483FF35
:104CC0006FC0E0912606F091270630E020E040E03A
:104CD0006AE082E296E0099588E0F60111928A95F1
:104CE000E9F7C6010E946F0360E082E296E00E944D
:104CF0002B0660E082E296E00E942B064091AD0414
:104D0000E0912606F091270630E020E06EE082E296
:104D100096E009958CEB92E09093330680933206EF
:104D200086E0EEE1F1E0D60101900D928A95E1F77F
:104D3000FE01379684E0DF011D928A95E9F78091A4
:104D4000AE044AE0BE01605C7F4F90E00E94032FFA
:104D500043E050E0BE01605C7F4FC6010E944436D4
:104D6000A60162E084E00E94F6086FE972E0C601E5
:104D70000E943D368091AF044AE0BE01605C7F4FE7
:104D800090E00E94032F43E050E0BE01605C7F4F43
:104D9000C6010E944436A60163E084E00E94F60842
:104DA0008091A30481FF35C0E0913505F09136056F
:104DB00082E08083E0913105F09132051082E0912C
:104DC0003305F09134058FEC808310923D05E0911E
:104DD0003905F0913A0586E08083E0913705F0913E
:104DE0003805808180618083E0913705F091380536
:104DF000808188608083E0913705F091380580815B
:104E000080688083E0913705F091380580818F7D3F
:104E100080838091A20482FDE8C111E080910701A6
:104E2000882391F18BE1EEEEF2E0D60101900D9234
:104E30008A95E1F76091B004EAEFEE2E04E02BE1F1
:104E4000A6018AE596E00E94950C882309F4EBC13F
:104E500081E00E940C0D1123B9F08DE0E9E0F3E050
:104E6000DE01A05CBF4F01900D928A95E1F7609141
:104E7000B0047AEFE72E04E02DE0AE01405C5F4F16
:104E80008AE596E00E94950C8091A30481FD04C000
:104E900061E080E00E942305FE0134966796FFAF33
:104EA000EEAF67978091A70483FF04C060E080E0C5
:104EB0000E9423058091A70481FF1FC00E9417064E
:104EC00000918F04109190042091910430919204EC
:104ED000601B710B820B930B693B7B408105910535
:104EE00060F00E94170660938F0470939004809383
:104EF0009104909392040E94FB0C61E080E00E9478
:104F0000BD0D0E94170620910801C0908B04D0901F
:104F10008C04E0908D04F0908E046C197D098E094C
:104F20009F09C0908704D0908804E0908904F09095
:104F30008A04C616D706E806F90608F476C12111D8
:104F400076C180E00E94C51780E00E94591A0E9435
:104F5000170600917E0410917F0420918004309107
:104F60008104C0908204D0908304E0908404F09087
:104F700085046C197D098E099F09061717072807F4
:104F8000390720F080917D048823B1F0012B022B9A
:104F9000032B91F00E9417066093820470938304A0
:104FA000809384049093850420E041E06BED72E0EF
:104FB0008BE692E00E940E160E941706E091AE0466
:104FC0000091790410917A0420917B0430917C0443
:104FD000AB01BC01401B510B620B730BB5E0EB9FA7
:104FE000C001112480579E4F092E000CAA0BBB0B49
:104FF00084179507A607B70788F40E9417066093E1
:10500000790470937A0480937B0490937C0420E06D
:1050100040E06DE572E0CB010E940E160E9417067B
:1050200000917504109176042091770430917804F2
:10503000601B710B820B930B009171041091720431
:105040002091730430917404061717072807390755
:1050500048F58091700481110BC020E041E062EEC0
:1050600072E08EE692E00E940E1681E0809370045A
:1050700010E000E0F801ED56FB4F808185FF0AC08B
:105080009081F801E455FE4F808161E091FF60E07E
:105090000E9423050F5F1F4F0A30110559F781E069
:1050A00080936F0480916E04811109C08091070183
:1050B000882319F081E00E94911F80936E048091F3
:1050C000A904882309F46BC08091A804882309F4FB
:1050D00066C080916F04882309F461C08091070144
:1050E000882319F080E00E94911F8091A30480FF23
:1050F00004C060E081E00E94830580916D048823F4
:1051000011F180916C048823F1F06AE070E080E096
:1051100090E00E94E40510926D0480E00E94FA0481
:10512000892B19F081E00E94FA0461E080E00E947E
:1051300023056EE170E080E090E00E94E40560E00D
:1051400080E00E9423058091A30480FF04C061E0F9
:1051500081E00E94830561E080E00E94BD0D8091A6
:105160006F048823E1F08091A70483FF04C060E00E
:1051700080E00E9423058091A70420E040E06DE5D7
:1051800072E086FFE9C5CB010E940E16182F81E060
:1051900081270E94EA181093080110937D048091E2
:1051A000A904882321F08091A804811102C00E94E3
:1051B0008A1B8091A70483FF04C061E080E00E9405
:1051C000230580E090E0892B09F46CCE0E942E0428
:1051D000882309F467CE0E94000064CE80916900A4
:1051E0008C6080936900E99AE6CC0E94FC118111E1
:1051F00014CE80910701882309F40FCE89E1E6E1FE
:10520000F3E0D60101900D928A95E1F76091B00428
:10521000FAEFEF2E04E029E1A6018AE596E00E946C
:10522000950C10E0FBCD8AE014CE222351F0809142
:10523000A20480FF06C068EE73E080E090E00E9468
:10524000E4050E94170660938B0470938C0480938E
:105250008D0490938E048091A904882319F081E035
:105260000E94071A8091A20480FF5BC180914304D1
:10527000811191C0E0910206F09103061386158614
:105280001486128611861086178216821582148261
:105290001382109200061092010601E0BE016F5FBA
:1052A0007F4F80910206909103060E94D5138823B8
:1052B00009F468C067E0CE0101960E949B0A9885B8
:1052C0008913ECCF8091FC05811128C080910206E2
:1052D000909103060E944D0BBE016F5F7F4F80913E
:1052E0000206909103060E942E0B40E064EB809131
:1052F0000206909103060E94FA0A8091020690919C
:1053000003060E94A70A182F8091020690910306B7
:105310000E944D0B111102C00093FC051091FD0578
:105320008981803109F424C5CE0101960E94D10BF8
:105330008117C0F48091FD058093FD0580910006E2
:105340008F5F809300068981883231F0A8F4803124
:1053500019F0823209F0A2CF809101068F5F80930D
:1053600001069CCF8981803111F48CE0E5CFCE011C
:1053700001960E94D10BE0CF8B3371F3823409F098
:105380008DCFEACF81E0809343046CED75E080E03F
:1053900090E00E94E40580910206909103060E942D
:1053A0004D0B40E06CEC80910206909103060E9448
:1053B000FA0A4091FC0564E480910206909103068C
:1053C0000E94FA0A8091FE058823A1F1E091FD0573
:1053D000E9505EEEC52E52E0D52EE33038F4F0E011
:1053E000EE0FFF1FEA55FE4FC080D1808091FF0570
:1053F000882309F449C48091FC05811145C40E94A9
:1054000017064B015C010D2C000CEE08FF08809183
:105410000206909103060E94A70A813059F00E946B
:1054200017066C197D098E099F09681579058A058B
:105430009B0568F3F12C4EE0E42E80910006F816EF
:1054400008F061C083E0E8E2F1E0DE01119601902E
:105450000D928A95E1F76796AEADBFAD6797EE2DD9
:105460001D92EA95E9F76F2DCE01805C9F4F0E9457
:105470005314811110C460E070E08EEF92EC8E0145
:10548000015D1F4F21E043E00E94BC2E6F2DCE0135
:10549000835B9F4F0E945314025E1F4FD12CD80193
:1054A0008D918D014AE0BE01605C7F4F90E00E94CB
:1054B000032F43E050E0BE01605C7F4FCE010196B8
:1054C0000E944436B2E0DB1631F065EA72E0CE01AC
:1054D00001960E941E36D394E3E0DE12E0CF20E076
:1054E00040E0BE01615D7F4FCE0101960E940E1625
:1054F000F5E6FF122BC420E040E067EA72E08EE69A
:1055000092E00E940E168091000681110AC010924E
:10551000430420E040E063EB72E08EE692E00E94FC
:105520000E168091A20481FF08C020E041E063ECE8
:1055300072E08DEC92E00E940E168091A20482FF30
:1055400048C30E9453138E010F5F1F4F21E043E0B9
:105550000E94BC2E20E040E0B80182ED92E00E9463
:105560000E160E94531387EF0E94CD12E0966CAF87
:105570007DAF8EAF9FAFE0978091D3059091D4051A
:10558000A091D505B091D6056C017D01FF0CCC082A
:10559000DC2C76019C01AD016C2D7C2D8C2D9C2D7D
:1055A000345F414051096109710981099109689687
:1055B0002FAF689769963FAF69976A964FAF6A9722
:1055C0006B965FAF6B976C966FAF6C976D967FAF76
:1055D0006D976E968FAF6E976F969FAF6F975901CD
:1055E0006A017B018C010E94AF34A0962FAFA09777
:1055F000A1963FAFA197A2964FAFA297A8965FAF93
:10560000A897A9966FAFA997AA967FAFAA97AB96CE
:105610008FAFAB97AC969FAFAC973091E4052091DC
:10562000E305932F990F990B492F592F692F792F44
:10563000892F0E94AF340CE00E94A73519012A017E
:105640003B014C013091E6052091E505932F990F20
:10565000990BA096AFACA097A196BFACA197A296CC
:10566000CFACA297A896DFACA897A996EFACA99764
:10567000AA96FFACAA97AB960FADAB97AC961FADB1
:10568000AC97492F592F692F792F892F0E94AF345A
:1056900008E00E94C03551016201730184010E943B
:1056A000DD3570588F4F9F4F2090E1053090E20517
:1056B0005101C12CD12CE12CF12C00E010E00E9412
:1056C000AF3401E20E94C035A3962FAFA397A496F2
:1056D0003FAFA497A5964FAFA597A6965FAFA697A5
:1056E000A7966FAFA797272E382E492EA0E00E94CD
:1056F000EF3509F42DC33091EC052091EB05932F84
:10570000990F990BA096AFACA097A196BFACA197AB
:10571000A296CFACA297A896DFACA897A996EFACBB
:10572000A997AA96FFACAA97AB960FADAB97AC968C
:105730001FADAC97492F592F692F792F892F0E94C0
:10574000AF34A0962FAFA097A1963FAFA197A29696
:105750004FAFA297552E3B014C013091EA052091A5
:10576000E905932F990F990B6896AFAC68976996E6
:10577000BFAC69976A96CFAC6A976B96DFAC6B97B4
:105780006C96EFAC6C976D96FFAC6D976E960FAD07
:105790006E976F961FAD6F97492F592F692F792FED
:1057A000892F0E94AF3401E10E94A735A096AFACCB
:1057B000A097A196BFACA197A296CFACA297D52CEB
:1057C000730184010E94DD3559016A017B01582E65
:1057D000192FE0968CAD9DADAEADBFADE097F4E076
:1057E000B595A79597958795FA95D1F720E030E084
:1057F00040E150E0281B390B4A0B5B0B39014A0191
:10580000990C6608762C4301662D762D862D962DF3
:105810000FE10E94A73539014A01B62FA72FF82FB3
:10582000E92F3091E8052091E705932F990F990B07
:10583000492F592F692F792F892F03E20E94A7350D
:10584000052D0E94DD3559016A017B018C01930110
:10585000A4016B2F7A2F8F2F9E2F0E94E635E5E350
:10586000AE2EFCE0BF2EC12CD12CE12CF12C00E09F
:1058700010E00E94AF34A396AFACA397A496BFAC40
:10588000A497A596CFACA597A696DFACA697A796AA
:10589000EFACA797F22C032D142D0E9409356896C2
:1058A0002FAF689769963FAF69976A964FAF6A972F
:1058B0006B965FAF6B976C966FAF6C976D967FAF83
:1058C0006D976E968FAF6E976F969FAF6F970DE047
:1058D0000E94C035922E832E742E652E562E472E92
:1058E000382E292E3091F2052091F105932F990F32
:1058F000990BA92CB82CC72CD62CE52CF42C032DF5
:10590000122D492F592F692F792F892F0E94AF34DB
:105910000E94AF3409E10E94C0356896AFAC689729
:105920006996BFAC69976A96CFAC6A976B96DFAC05
:105930006B976C96EFAC6C976D96FFAC6D976E960F
:105940000FAD6E976F961FAD6F970E94DD351901F1
:105950002A013B014C013091F0052091EF05932F76
:10596000990F990B492F592F692F792F892F0E9451
:10597000AF3403E10E94C03559016A017B018C01FB
:105980009101A201B301C4010E94DD3508E00E942B
:10599000C03559016A017B01E82F192F3091EE05BE
:1059A0002091ED05932F990F990B492F592F692FAE
:1059B000792F892F04E00E94A7350E2F0E94DD3534
:1059C0000E94B53220E030E040E85BE30E94BB3348
:1059D00020E030E048EC52E40E9414326B017C017C
:1059E00020E030E0A9010E940F32811102C00E9424
:1059F000FC118E010F5F1F4F21E043E0C701B6018C
:105A00000E94BC2E20E040E0B80185ED92E00E94AB
:105A10000E160E9453138DEF0E94A7114090D305DC
:105A20005090D4056090D5057090D6053CE2531A8D
:105A300031E0630A7108B0E0A0E06C017D013EE056
:105A4000CC0CDD1CEE1CFF1C3A95D1F74091F705FC
:105A50005091F805052E000C660B770BE4E1440F1E
:105A6000551F661F771FEA95D1F7C41AD50AE60AB3
:105A7000F70AA091F905B091FA05A30192010E94DD
:105A8000A734C61AD70AE80AF90A40E4D40EE11C82
:105A9000F11CFFE0F594E794D794C794FA95D1F7F9
:105AA000A091F605B0E0A3010E949C344B015C017B
:105AB000ABE0B594A79497948794AA95D1F750E852
:105AC000950EA11CB11CA091FB050A2E000CBB0B6E
:105AD000A3010E94A734BAE09595879577956795BD
