:100000000C94E0020C9436200C940F200C948B215D
:100010000C94EC210C94C8210C947C210C940803C2
:100020000C9408030C9408030C9408030C94080324
:100030000C9408030C9408030C9408030C94080314
:100040000C94C51F0C9408030C94931F0C946D1F03
:100050000C9408030C9408030C9408030C940803F4
:100060000C945D200C94080300407A10F35A00A011
:10007000724E18090010A5D4E80000E87648170071
:1000800000E40B54020000CA9A3B000000E1F505B1
:10009000000080969800000040420F000000A086FB
:1000A00001000000102700000000E803000000002D
:1000B0006400000000000A000000000001000000D1
:1000C00000002C76D888DC674F0823DFC1DFAE59EB
:1000D000E1B1B796E5E3E453C63AE651997696E87E
:1000E000E6C28426EB898C9B62ED407C6FFCEFBC02
:1000F0009C9F40F2BAA56FA5F490055A2AF75C932D
:100100006B6CF9676DC11BFCE0E40D47FEF520E662
:10011000B500D0ED902E0300943577050080841E45
:10012000080000204E0A000000C80C333333330FA0
:10013000986E12831141EF8D2114893BE65516CF3D
:10014000FEE6DB18D1844B381BF77C1D901DA4BB49
:10015000E424203284725E228100C9F124ECA1E5FE
:100160003D27005EBCE2613FDD83C29C7E20A3FD93
:100170001F419DC3217FFCA2401E5F01E3BD3E6085
:1001800082DC237D9FC1421CFEA0E1BF5D0380DEB7
:100190003C62BEE0025CDF81633D7C22C09E1D4369
:1001A000A1FF4618FAA427799BC584DA3866E5BB17
:1001B0005907DB856739BAE406581947A5FB782645
:1001C000C49A653BD987045AB8E6A7F91B45C69877
:1001D0007A24F8A6441A99C7257B3A6486D85B0529
:1001E000E7B98CD2306EEDB3510F4E10F2AC2F71D7
:1001F00093CD114FADF3702ECC92D38D6F31B2EC05
:100200000E50AFF1134DCE90722C6D33D18F0C5236
:10021000B0EE326C8ED0530DEFB1F0AE4C1291CFE8
:100220002D73CA947628ABF517490856B4EA693796
:10023000D58B5709EBB536688AD495CB2977F4AAC4
:100240004816E9B7550B88D6346A2B7597C94A14F6
:10025000F6A8742AC896154BA9F7B6E80A54D789A8
:100260006B3500000000240027002A000000000079
:10027000250028002B0000000008000201000003F8
:100280000407000000000000000000000000230040
:1002900026002900040404040404040402020202E7
:1002A0000202030303030303010204081020408039
:1002B000010204081020010204081020207F000021
:1002C00000000000000000065F5F0600000000075D
:1002D000070007070000147F7F147F7F1400242E7F
:1002E0006B6B3A120000466630180C666200307A7A
:1002F0004F5D377A48000407030000000000001C2F
:100300003E63410000000041633E1C000000082ADB
:100310003E1C1C3E2A0808083E3E080800000080DB
:10032000E06000000000080808080808000000005D
:100330006060000000006030180C060301003E7F82
:1003400071594D7F3E0040427F7F40400000627304
:1003500059494F660000226349497F360000181C46
:1003600016537F7F5000276745457D3900003C7E4E
:100370004B4979300000030371790F070000367F85
:1003800049497F360000064F49693F1E00000000C2
:100390006666000000000040763600000000081C81
:1003A000366341000000242424242424000000415A
:1003B00063361C080000020351590F0600003E7FFF
:1003C000415D5D1F1E007C7E13137E7C0000417F1B
:1003D0007F49497F36001C3E634141632200417FD3
:1003E0007F41633E1C00417F7F495D416300417F47
:1003F0007F491D0103001C3E6341517372007F7FE2
:1004000008087F7F000000417F7F410000003070BE
:1004100040417F3F0100417F7F081C776300417F9F
:100420007F41406070007F7F0E1C0E7F7F007F7FCA
:10043000060C187F7F001C3E6341633E1C00417F19
:100440007F49090F06001E3F21717F5E0000417F3A
:100450007F09197F660022674D597322000003410E
:100460007F7F410300007F7F40407F7F00001F3F70
:1004700060603F1F00007F7F3018307F7F00436740
:100480003C183C674300074F78784F0700004763EC
:1004900071594D677300007F7F41410000000103E7
:1004A000060C183060000041417F7F000000080CFE
:1004B0000603060C08008080808080808080000019
:1004C000030704000000207454543C784000417F2E
:1004D0003F4848783000387C44446C28000030782D
:1004E00048493F7F4000387C54545C180000487EE7
:1004F0007F490302000098BCA4A4F87C0400417F5B
:100500007F08047C780000447D7D4000000060E0AE
:100510008080FD7D0000417F7F10386C44000041E9
:100520007F7F400000007C7C18381C7C78007C7C3D
:1005300004047C780000387C44447C38000084FC4F
:10054000F8A4243C1800183C24A4F8FC8400447C43
:10055000784C041C1800485C5454742400000004B7
:100560003E7F442400003C7C40403C7C40001C3CDE
:1005700060603C1C00003C7C7038707C3C00446C2B
:100580003810386C44009CBCA0A0FC7C00004C647B
:10059000745C4C64000008083E7741410000000094
:1005A0000077770000004141773E08080000020311
:1005B00001030203010070784C464C787000102251
:1005C00011241FBECFEFD8E0DEBFCDBF13E0A0E007
:1005D000B1E0E0E3FDE602C005900D92A435B1075D
:1005E000D9F726E0A4E5B3E001C01D92A437B20715
:1005F000E1F712E0C0EED2E004C02197FE010E94B4
:100600004236CF3DD107C9F70E9417230C94963686
:100610000C94000080E0089508951F93CF93DF931A
:1006200000D000D01F92CDB7DEB71C8221E02B8313
:100630009A838983E0913506F091360611891D82EF
:10064000A0913506B0913606E0913906F0913A0650
:100650009E012F5F3F4F50964C916FE085E396E0EF
:1006600009958D818F5F8D83811750F30F900F90C7
:100670000F900F900F90DF91CF911F9108958CBD37
:100680009DBD08952091380581E0213208F044C0D5
:10069000809114058111FCCF8091370592E09093F1
:1006A000140591E0909313059FEF9093120510921B
:1006B000110520931005A7E1B5E0E0EFF4E090E02C
:1006C000291331C01092EF049091EF04880F892B09
:1006D0008093EF048091EE04813049F51092EE048E
:1006E0008091EF048093BB008091BC0083FDF8CF24
:1006F00085EC8093BC00809114058230E1F38091F9
:1007000012058F3FB1F0809112058032A1F08091E7
:100710001205803391F084E010921605109238058E
:100720001092150508953D9131939F5FC9CF85EED5
:10073000E0CF80E0F1CF82E0EFCF83E0EDCF08950E
:100740000895662329F06A3019F0862F90E0089505
:100750008FEF9FEF08959B01DC011896ED91FC91BE
:1007600041E067E1099481E0809362048091600434
:1007700090916104DC01ED91FC910484F585E02DFC
:100780000995109262040895AF92BF92CF92DF92C2
:10079000EF92FF920F931F93CF93DF936C017B0136
:1007A0008B01040F151FEB015E01AE18BF08C017C7
:1007B000D10759F06991D601ED91FC910190F0813A
:1007C000E02DC6010995892B79F7C501DF91CF91FD
:1007D0001F910F91FF90EF90DF90CF90BF90AF905F
:1007E0000895FC01538D448D252F30E0842F90E037
:1007F000821B930B541710F0CF960895019708951C
:10080000FC01918D828D981761F0A28DAE0FBF2FE4
:10081000B11D5D968C91928D9F5F9F73928F90E03A
:1008200008958FEF9FEF0895FC01918D828D9817A9
:1008300031F0828DE80FF11D858D90E008958FEFE6
:100840009FEF0895FC01918D228D892F90E0805CAF
:100850009F4F821B91098F739927089589E395E033
:100860000E94220421E0892B09F420E0822F0895C0
:1008700080E090E0892B29F00E942E0481110C94D5
:1008800000000895FC01A48DA80FB92FB11DA35A33
:10089000BF4F2C91848D90E001968F739927848FA0
:1008A000A689B7892C93A089B1898C9183708064C3
:1008B0008C93938D848D981306C00288F389E02D64
:1008C00080818F7D80830895EF92FF920F931F9315
:1008D000CF93DF93EC0181E0888F9B8D8C8D9813F3
:1008E0001AC0E889F989808185FF15C09FB7F894FF
:1008F000EE89FF896083E889F9898081837080644B
:1009000080839FBF81E090E0DF91CF911F910F9195
:10091000FF90EF900895F62E0B8D10E00F5F1F4FA4
:100920000F731127E02E8C8D8E110CC00FB607FCB3
:10093000FACFE889F989808185FFF5CFCE010E9441
:100940004204F1CFEB8DEC0FFD2FF11DE35AFF4F69
:10095000F0829FB7F8940B8FEA89FB8980818062CF
:10096000CFCFCF93DF93EC01888D8823B9F0AA898C
:10097000BB89E889F9898C9185FD03C0808186FD5A
:100980000DC00FB607FCF7CF8C9185FFF2CF8081A9
:1009900085FFEDCFCE010E944204E9CFDF91CF91D8
:1009A0000895833081F028F4813099F08230A9F0E5
:1009B00008958730A9F08830C9F08430B1F480916F
:1009C00080008F7D03C0809180008F7780938000AE
:1009D000089584B58F7784BD089584B58F7DFBCF4E
:1009E0008091B0008F778093B00008958091B0001F
:1009F0008F7DF9CFCF93DF93282F30E0F901EA58AC
:100A0000FD4F8491F901E855FD4FD491F901EC5661
:100A1000FD4FC491CC23A1F081110E94D104EC2F91
:100A2000F0E0EE0FFF1FE657FD4FA591B491EC915A
:100A3000ED2381E090E009F480E0DF91CF9108950B
:100A400080E090E0FACF1F93CF93DF93282F30E020
:100A5000F901EA58FD4F8491F901E855FD4FD49111
:100A6000F901EC56FD4FC491CC23A9F0162F81114A
:100A70000E94D104EC2FF0E0EE0FFF1FE459FD4F70
:100A8000A591B4918FB7F894EC91111108C0D0954D
:100A9000DE23DC938FBFDF91CF911F910895DE2B72
:100AA000F8CF1092CD041092CC041092160510923B
:100AB00038051092140581E0809313051092EE041E
:100AC00061E082E10E94230561E083E10E94230549
:100AD000E9EBF0E080818E7F808380818D7F808351
:100AE00088E48093B80085E48093BC008FE993E0AC
:100AF0009093CB048093CA0480EA93E09093C90456
:100B00008093C8040895CF93DF9390E0FC01E855EB
:100B1000FD4F24918C569D4FFC0184918823C9F090
:100B200090E0880F991FFC01EE59FD4FA591B491FB
:100B3000FC01E459FD4FC591D49161110DC09FB7DF
:100B4000F8948C91209582238C9388812823288384
:100B50009FBFDF91CF910895623051F49FB7F89411
:100B60003C91822F809583238C93E8812E2BEFCFAD
:100B70008FB7F894EC912E2B2C938FBFEACF3FB711
:100B8000F89480915C0490915D04A0915E04B09112
:100B90005F0426B5A89B05C02F3F19F00196A11D43
:100BA000B11D3FBFBA2FA92F982F8827BC01CD01B7
:100BB000620F711D811D911D42E0660F771F881F16
:100BC000991F4A95D1F708958F929F92AF92BF9245
:100BD000CF92DF92EF92FF926B017C010E94BF05E2
:100BE0004B015C01C114D104E104F104B9F00E948D
:100BF000BF05681979098A099B09683E7340810518
:100C0000910580F321E0C21AD108E108F10888EECD
:100C1000880E83E0981EA11CB11CE4CFFF90EF90DA
:100C2000DF90CF90BF90AF909F908F9008952FB797
:100C3000F894609158047091590480915A049091ED
:100C40005B042FBF08950895DC011A96ED91FC9185
:100C500030E020E00994462FDC011496ED91FC91E0
:100C600030E020E06BE00994DC011696ED91FC91F8
:100C700030E020E040E069E10994DC011696ED9156
:100C8000FC9130E020E040E068E109949A01DC0149
:100C90001696ED91FC91462F67E10994EF92FF9231
:100CA0000F931F93CF93DF931F92CDB7DEB77C01D5
:100CB0008B01D8016C91673129F150F46531A0F4B2
:100CC0000F90DF91CF911F910F91FF90EF900895BA
:100CD0006A3118F16E3FA1F7F8014181498369E259
:100CE000C7010E9424060BC0F80141814983D70146
:100CF0001696ED91FC9130E020E0C70109950E5F5A
:100D00001F4FD7CFF80181818983AE014F5F5F4FBD
:100D100061E0C7010E944606F2CF0F5F1F4FD70167
:100D20001696ED91FC9130E020E040E0C701099576
:100D3000C0CF462FDC011696ED91FC9130E020E00B
:100D400066E10994462FDC011696ED91FC9130E0A6
:100D500020E065E10994EF92FF920F931F93CF93E8
:100D6000DF93EC01042F79016D3009F446C050F493
:100D70006B30C9F1693009F49FC06A3009F465C06D
:100D800080E046C06E3009F452C06F3099F70E947F
:100D90003D06F7011381110F110F110F6889160F0E
:100DA00060E4CE010E94A206612F62956F706061BF
:100DB000CE010E94A206612F6F70CE010E9499069B
:100DC000F7016481606BCE010E949906F7014081B2
:100DD00051816281660F660F660FCE010E94460642
:100DE0000150A1F72EC064E571E0442311F06FE4D7
:100DF00071E0CE010E944E060AC0411110C068E4A5
:100E000071E00E944E06E881F9818289888B81E039
:100E1000DF91CF911F910F91FF90EF90089561E4C2
:100E200071E00E944E06E881F9818389EFCF0E942C
:100E30003D0661E8CE010E94A206602FCE010E940D
:100E40009906CE010E943406E2CFEA85FB8530E0A8
:100E500020E040E068E2CE010995EE81FF8130E0BC
:100E600020E040E064E1CE01099541E06BE4CE0171
:100E70000E942406E881F981448169E2CE010E9442
:100E8000240640E06BE4CE010E942406E881F9814B
:100E9000448169E2CE010E94240641E06BE4CE0168
:100EA0000E942406E881F981458169E2CE010E9411
:100EB000240669E571E09DCF8EE891E099838883EF
:100EC000188AA5CFDC011896ED91FC9130E020E066
:100ED00040E069E10994DC011896ED91FC9130E065
:100EE00020E040E068E10994CF93DF931F92CDB7F3
:100EF000DEB76983BE016F5F7F4F0E94AB030F9027
:100F0000DF91CF910895EF92FF921F93CF93DF93DC
:100F1000EC01162F7A010E946B0760E4CE010E945B
:100F20007407E885F9859701412F67E1CE0109959E
:100F3000CE01DF91CF911F91FF90EF900C9462074B
:100F4000EF92FF921F93CF93DF93EC01142F79015F
:100F5000673130F4653178F4643159F180E005C0CF
:100F60006731F9F06A31D0F781E0DF91CF911F91BD
:100F7000FF90EF9008950E946B0760E0CE010E9401
:100F80007407612FCE010E947407CE010E94620790
:100F9000EBCF68E1CE010E948307185188E1E80E8B
:100FA000F11CA7011931A8F7612FCE010E94830718
:100FB000DBCF8A898F3F11F488E78A8BE885F98532
:100FC0009701412F64E1CE01DF91CF911F91FF90F6
:100FD000EF900994CF93DF93DC011C96ED91FC9187
:100FE0001D9784913196E491681768F1E61758F1DE
:100FF000681B770B83E0660F771F8A95E1F7CB01BB
:101000000296EA01665F7F4F1C96ED91FC911D9759
:10101000E80FF91FE491E993019686179707A1F766
:1010200051968C91882361F0FA019A01285F3F4F15
:101030008191DF01119780958C932E173F07C1F79F
:10104000DF91CF910895FA01CA0108961192E8172D
:10105000F907E1F7E5CFAF92BF92CF92DF92EF921F
:10106000FF920F931F93CF93DF93CDB7DEB72D97EA
:101070000FB6F894DEBF0FBECDBFE82EA62E10929D
:101080004A068A01F12CCE0101966C01BB24B3946F
:10109000F80161918F01E0913706F091380685E300
:1010A00096E009958F3F9807F1F08E3F2FEF92075A
:1010B00079F3A601682F85E396E00E94EA07EC86A3
:1010C000AD86BB86DA86C986E0913906F0913A068C
:1010D0009E01275F3F4F41E06FE085E396E0099571
:1010E000E394F394D5CF8F2D2D960FB6F894DEBFF1
:1010F0000FBECDBFDF91CF911F910F91FF90EF9069
:10110000DF90CF90BF90AF90089521EA33E0309305
:101110003806209337060C942B080F931F93CF9318
:10112000DF938C01C62F642FCC32E8F4CA3208F06A
:1011300041C0C83271F1C93209F442C080E0C03404
:10114000D0F1CF73F801EC0FF11D838D8F3F91F13A
:10115000C031E0F00E94FA0421E0892B09F420E07C
:10116000F801268B27C0CD3289F140F384EB8C0F38
:10117000823020F7CF73C00FD12FD11D8B8D41113D
:1011800033C061E00E94830560E08B8D0E942305DF
:1011900011C0055E1F4FD0E0F80181918F018F3F94
:1011A00031F061E0D03108F062E00E948305DF5F3A
:1011B000D63191F781E0DF91CF911F910F91089582
:1011C00070E090E080E00E94E405F4CF85E090E0DC
:1011D000433010F082E090E0880F991F880F991F2C
:1011E00005970197F1F7E6CF62E00E948305E2CF11
:1011F000AF92BF92CF92DF92EF92FF920F931F9325
:10120000CF93DF93CDB7DEB72D970FB6F894DEBF3F
:101210000FBECDBFFC01F6A86A30B1F4F394F6AA74
:1012200015AA81E090E02D960FB6F894DEBF0FBEB0
:10123000CDBFDF91CF911F910F91FF90EF90DF9085
:10124000CF90BF90AF9008958C01E5A86C0184E029
:10125000C80ED11CDE0111965D01AD01C6010E94D0
:10126000EA07EC86FD8681E08B87BA86A986D801DD
:101270001896ED91FC919E01275F3F4F41E06FE092
:10128000C6010995F80185A98F5F85ABCACF85EDA9
:101290008093BC008091BC0084FDFCCF10921405AB
:1012A000089520913404260F3327331F213231054E
:1012B000ECF420911405FC0190E080E0243069F00A
:1012C00082E00895A09134042191AC014C5E5B4F03
:1012D000A40FB52FB11D2C930196861798F380911A
:1012E0003404680F6093340480E0089581E0089529
:1012F000E091CD048091CC04E81730F4F0E0E253A3
:10130000FB4F808190E008958FEF9FEF08959091BB
:10131000CD048091CC042FEF3FEF981748F4E92FCC
:10132000F0E0E253FB4F208130E09F5F9093CD04CB
:10133000C90108958091CC049091CD04891B990B2B
:101340000895CF92DF92EF92FF920F931F93CF9366
:10135000DF937C01CB018A0120911505222389F0BE
:10136000EB016B01C40ED51ECC15DD0569F069914A
:10137000D701ED91FC910190F081E02DC701099515
:10138000F3CF642F0E945109C801DF91CF911F91C3
:101390000F91FF90EF90DF90CF900895FC01962F72
:1013A0006831C1F0B901993130F4943181F097314D
:1013B00041F080E00895993121F19032D1F781E038
:1013C000089550E086ED95E00E94A109F8CF0E94B3
:1013D0005105F5CFA081B1811D968C91843018F014
:1013E0008CE08093B800828990E09595879591E094
:1013F00090931505809337051092160510923805C5
:10140000DECF0E944203DBCFCF93DF931F92CDB795
:10141000DEB76983209115052223F9F02091380564
:10142000203258F021E030E0FC013383228390E049
:1014300080E00F90DF91CF91089580911605E82FFD
:10144000F0E0E95EFA4F998190838F5F80931605F3
:101450008093380581E090E0ECCF61E0CE01019609
:101460000E945109F7CF0895DC0180E0615038F007
:10147000ED91E827F0E0EE59FE4F8491F7CF089503
:10148000DC012C911196ED91FC91F8948181822BD5
:1014900081839281322F30959323928387E090E06D
:1014A0000197F1F781818323818383E290E00197A3
:1014B000F1F790817894EFECF0E03197F1F7922317
:1014C00081E009F480E00895FC0190810180F281BF
:1014D000E02D292F209560FF14C0F894828182238B
:1014E00082838181892B8183A3E2B0E01197F1F798
:1014F0008281982B9283789487ED90E00197F1F7A1
:101500000895F8948281822382838181892B81834B
:10151000AFEFB0E01197F1F78281982B9283789426
:101520008FE090E0EBCFDF92EF92FF920F931F934B
:10153000CF93DF93EC01D62EE42E08E010E0FF24D9
:10154000F39461E08D2D8F2109F460E0CE010E94BB
:10155000640AFF0C01501109A1F7E11010C0F894C2
:10156000E981FA8191818881809589238183E9814C
:10157000FA81928188818095892382837894DF9192
:10158000CF911F910F91FF90EF90DF900895EF9210
:10159000FF920F931F93CF93DF938C017B0140E069
:1015A00065E50E94930AE70188E0E80EF11C699165
:1015B00040E0C8010E94930ACE15DF05C1F7DF9114
:1015C000CF911F910F91FF90EF900895FC019081B2
:1015D0000180F281E02DF8948181292F20958223CA
:1015E000818378943DE743E050E0315029F1DA01FE
:1015F0001197F1F780818923C1F3F89482818223C6
:1016000082838181892B81837894ABE7B7E011973E
:10161000F1F7F894818182238183A3E1B1E01197EE
:10162000F1F78081982381E009F080E07894E3E687
:10163000F6E03197F1F7089580E00895AF92BF92F8
:10164000CF92DF92EF92FF920F931F93CF93DF938E
:10165000EC018B0180911506909116060E94E60A16
:101660008823A1F1BE0180911506909116060E9473
:10167000C70A40E06EEB80911506909116060E9415
:10168000930AE801680189E0C80ED11CA0901506F4
:10169000B090160688E0E82EF12C10E001E0C501BC
:1016A0000E94400A8111102B000F81E0E81AF10816
:1016B000B1F71993CC15DD0549F780911506909186
:1016C00016060E94E60A91E0813009F090E0892F29
:1016D000DF91CF911F910F91FF90EF90DF90CF900E
:1016E000BF90AF900895CF93DF93CDB7DEB7299722
:1016F0000FB6F894DEBF0FBECDBFBE016F5F7F4F48
:101700000E941E0B811102C080E017C068E0CE016C
:1017100001960E94340A99858913F6CF8D818F3303
:10172000A9F020F48F3181F789E007C08F3521F0CF
:101730008F3751F78CE001C08BE029960FB6F894F3
:10174000DEBF0FBECDBFDF91CF9108958AE0F5CF08
:10175000CF93CFB7F89480911304811127C0EEE99D
:10176000F2E08491E2EBF2E09491E82FF0E0EE0FEA
:10177000FF1FEE59FD4FA591B491EC91E92321F49F
:1017800061E08AE00E94230561E08AE00E9483050F
:101790008CB580618CBD8CB580648CBD61E08DE0C2
:1017A0000E94830561E08BE00E9483058091130411
:1017B0008F5F80931304CFBFCF910895CF93DF93B2
:1017C000EC0161E08A810E94230589858CBD8A85B0
:1017D0008DBD80916204811101C07894DF91CF9119
:1017E0000895FC01F8948CB581878DB582878CB5FE
:1017F000837F8CBD8CB58F7D8CBD8CB58C7F8CBD73
:101800008DB58E7F8DBD60E082810C942305F894A8
:1018100020916806233071F420911204222351F0A4
:10182000DC01ED91FC910488F589E02D61E00995DA
:1018300081E0089520916806233019F4789480E0BF
:101840000895DC01ED91FC910288F389E02D099562
:10185000F6CF3F924F925F926F927F928F929F92BC
:10186000AF92BF92CF92DF92EF92FF920F931F93AE
:10187000CF93DF93EC01162F5A01922E802E312C3C
:10188000CE2CD12CF12CE12C61E070E080E090E0D6
:101890000E94E405E881F9810190F081E02D01E0EA
:1018A000292DA501612FCE0109950E9417062B0154
:1018B0003C010E94170664197509860997096C1581
:1018C0007D058E059F0528F5E881F9810480F58165
:1018D000E02DCE010995882361F39091100419172A
:1018E00011F01F3F31F790910D04992311F3DF910F
:1018F000CF911F910F91FF90EF90DF90CF90BF900D
:10190000AF909F908F907F906F905F904F903F909F
:1019100008953394831408F0B7CF80E0E8CF8EBDEC
:1019200000000DB407FEFDCF8EB50895EF92FF9233
:101930000F931F93CF93DF939091EE059F3F41F458
:10194000DF91CF911F910F91FF90EF900C948F0C2E
:10195000D82FC0E007E010E0EE24E394F12CCC0F88
:1019600060E08091EE050E942305B701002E01C0C2
:10197000660F0A94EAF76D238091EC050E94230517
:1019800061E08091EE050E9423058091ED050E94A3
:10199000FA04892B09F0C1600150110900F78C2F5E
:1019A000DF91CF911F910F91FF90EF900895CF930A
:1019B000DF93D82FC62F8091EB058F3FC9F480911C
:1019C000E20591E090931505809337051092160576
:1019D000109238056D2F86ED95E00E94040A6C2F59
:1019E00086ED95E00E94040ADF91CF910C944203AA
:1019F0008091EE058F3F21F482E591E00E943F0344
:101A000060E08091EB050E9423058D2F8F770E9467
:101A1000960C8C2F0E94960C61E08091EB05DF9173
:101A2000CF910C9423050F931F93CF93DF93EC0179
:101A3000062F142FE881F981008CF18DE02D099596
:101A4000802F80680E948F0C812F0E948F0CE8816C
:101A5000F981028CF38DE02DCE01DF91CF911F91A2
:101A60000F9109941F93CF93DF93EC01162F45E557
:101A700061114DE56AE5CE010E94130D40E7111199
:101A80004CE76CE5CE01DF91CF911F910C94130DC3
:101A90001F93CF93DF93EC01162FE881F981008C1F
:101AA000F18DE02D0995812F0E948F0C80E00E941E
:101AB0008F0C182FE881F981028CF38DE02DCE0177
:101AC0000995812FDF91CF911F910895CF93DF93D7
:101AD000EC0168874AE161114FE063E1CE010E94A9
:101AE000130D8885882369F061E1CE010E94480DBD
:101AF0008F71482F406661E1CE01DF91CF910C9448
:101B0000130D4F814068F7CFCF93DF93EC01109214
:101B100011041092100410920F04109212041092EB
:101B20000E0410920D0410920C0410920B0468E243
:101B30000E94480D82FF0AC06DE3CE010E94480D4D
:101B4000482F44606DE3CE010E94130D40E465E22E
:101B5000CE010E94130DE881F9810488F589E02DFA
:101B600063E0CE01DF91CF910994CF93DF93EC0135
:101B7000603208F06FE16F838885882311F06695E5
:101B80006F8361E1CE010E94480D807E4F81482B1A
:101B900061E1CE01DF91CF910C94130D1F93CF9390
:101BA000DF9320916806261761F0162FEC01623052
:101BB00009F445C050F4662309F453C0613009F4B8
:101BC00049C0DF91CF911F910895633021F16430B6
:101BD000C1F761E00E94480D837E482F4C6061E0B0
:101BE000CE010E94130D8885882341F0E881F98198
:101BF0000688F789E02D61E0CE010995809168069D
:101C0000811106C067E2CE010E94480D87FFF6CF22
:101C100010936806D6CF61E00E94480D837E482F5E
:101C2000406161E0CE010E94130D8885882331F365
:101C3000E881F9810688F789E02D60E0DDCF61E079
:101C40000E94480D837E482F486061E0CE010E94CB
:101C5000130DD4CF61E00E94480D837E482F44606D
:101C6000F4CF61E00E94480D482F437EEECFEF9203
:101C7000FF920F931F93CF93DF93EC0161E089E60E
:101C800096E00E94CE0D2097C1F089E696E00E9472
:101C9000F10B8EEB0E948F0C8E017E0180E1E80E2D
:101CA000F11CF80181918F010E948F0C0E151F0508
:101CB000C1F789E696E00E94DE0B6DE389E696E0C7
:101CC0000E94480D8E7F41E0CD2B09F440E0482B67
:101CD0006DE389E696E0DF91CF911F910F91FF9020
:101CE000EF900C94130DCF92DF92EF92FF920F932F
:101CF0001F93CF93DF93EC01F62ED42EC52E122F17
:101D0000E881F9810488F589E02D61E0099567E2B1
:101D1000CE010E94480D87FFFACF40E065E2CE0178
:101D20000E94130D1E3308F01DE3E11027C00023AD
:101D300039F100E4E881F981008CF18DE02DCE01CC
:101D4000099580E80E948F0C83E0810F0E948F0C20
:101D50008F2D0E948F0C8D810E948F0C802F0E94EE
:101D60008F0C0D2DED2CFC2C8E2D801B811750F42B
:101D7000F70181917F010E948F0CF6CF00E8DACF46
:101D800000E0D8CFE881F981028CF38DE02DCE01FF
:101D90000995E881F9810488F589E02D64E0CE0198
:101DA00009950E9417066B017C018B810E94FA0441
:101DB000892B59F40E9417066C197D098E099F0919
:101DC000683E73408105910580F3E881F9810488BC
:101DD000F589E02D61E0CE01DF91CF911F910F9148
:101DE000FF90EF90DF90CF900994CF93DF93C0E105
:101DF000D7E261E085E00E94230560E085E00E9473
:101E000023052197B1F7DF91CF9108950FB6F8948C
:101E1000A8958091600088618093600010926000B6
:101E20000FBE0895282FEDE6F0E0883050F0EBE685
:101E3000F0E08E3030F0ECE6F0E0863110F0F0E0CB
:101E4000E0E03081422F50E0283078F481E090E0EB
:101E5000A0E0B0E004C0880F991FAA1FBB1F2A95FD
:101E6000D2F780958323808308952E3070F44850F4
:101E7000510981E090E0A0E0B0E004C0880F991F14
:101E8000AA1FBB1F4A95D2F7ECCF4E505109F1CF94
:101E9000EDE6F0E0883050F0EBE6F0E08E3030F028
:101EA000ECE6F0E0863110F0F0E0E0E09081282FE1
:101EB00030E0883010F541E050E060E070E0082E3E
:101EC00004C0440F551F661F771F0A94D2F7492B91
:101ED00040839BB3883020F121E08E3008F420E06D
:101EE00081E001C0880F2A95EAF7982B9BBB90915F
:101EF0006800892B8093680008958E3070F4285014
:101F0000310941E050E060E070E004C0440F551F2B
:101F1000661F771F2A95D2F7DACF2E503109F1CFFD
:101F200084E0E3CFCF93DF93662309F4A6C0D0917A
:101F3000C9038091C803D81709F48BC080E00E94C0
:101F4000120F81E00E94120F60E080E00E942305E2
:101F500060E081E00E9423058091B70480FF04C007
:101F600060E081E00E94830565E070E080E090E041
:101F70000E94E40580E00E94FA04892B29F4C0E065
:101F80008C2FDF91CF91089581E00E94FA04892B74
:101F9000B1F3CCE361E080E00E94830565E070E08E
:101FA00080E090E00E94E40561E081E00E9483050A
:101FB00064E170E080E090E00E94E40560E080E091
:101FC0000E94830565E070E080E090E00E94E405F7
:101FD00060E081E00E94830564E170E080E090E0D1
:101FE0000E94E405C150B1F66AE070E080E090E044
:101FF0000E94E405DC1751F161E081E00E94830555
:1020000065E070E080E090E00E94E40561E080E03F
:102010000E94830564E170E080E090E00E94E405A6
:1020200060E081E00E94830565E070E080E090E080
:102030000E94E40560E080E00E94830564E170E0B6
:1020400080E090E00E94E405CF5FD4CFD093C80336
:10205000C1E08091B70480FF04C061E081E00E948C
:10206000830580918004882309F48ACF80E00E9450
:10207000480F81E00E94480F83CF8530F8F0880F29
:1020800089508093C9038091B70480FF04C060E049
:1020900081E00E94830565E070E080E090E00E94AE
:1020A000E40580E00E94FA04892B31F081E00E946F
:1020B000FA04C1E0892B69F6C0E0CBCF1092C903C6
:1020C000E2CFCF92DF92EF92FF920F931F93CF93C5
:1020D000DF936C01EB017B01E40EF51E10E000E0E4
:1020E000CE15DF0561F06991D601ED91FC9101906B
:1020F000F081E02DC6010995080F191FF1CFC80125
:10210000DF91CF911F910F91FF90EF90DF90CF90D3
:1021100008950895089590E080E008959091140541
:102120009111FCCF91E090931405909313052FEF3C
:102130002093120510921105260F209310059093FD
:10214000EF049091EF04880F892B8093EF04809126
:10215000EE04813019F51092EE048091EF04809323
:10216000BB008091BC0083FDF8CF85EC8093BC0060
:10217000809114058130E1F380911105861710F4E8
:1021800060911105A0EFB4E0EEECF4E080E086137E
:1021900007C01092CD048093CC04089585EEE6CF5D
:1021A0009D9191938F5FF3CFCF93C82F8091EB05D3
:1021B0008F3FF9F48091E20591E0909315058093AB
:1021C000370510921605109238056C2F86ED95E0B4
:1021D0000E94040A0E94420361E08091E2050E948D
:1021E0008E1086ED95E00E948709C82F8C2FCF9125
:1021F00008958091EE058F3F21F482E591E00E94E1
:102200003F0360E08091EB050E9423058C2F0E9424
:10221000960C80E00E94960CC82F61E08091EB053F
:102220000E942305E3CFCF93DF93C82F8091EB0566
:102230008F3F49F58091E20591E0909315058093D9
:10224000370510921605109238056C2F86ED95E033
:102250000E94040A0E94420362E08091E2050E940B
:102260008E1086ED95E00E948709C82F86ED95E0D7
:102270000E94870920E03C2FE901C82BD92BCE0111
:10228000DF91CF9108958091EE058F3F21F482E593
:1022900091E00E943F0360E08091EB050E942305DE
:1022A0008C2F0E94960C80E00E94960CC82F80E034
:1022B0000E94960CDC2FC82F61E08091EB050E94F4
:1022C0002305DDCF0E9413119827892798270895A9
:1022D000CF93DF9386E78093E2058091EB058F3FF4
:1022E00009F0A8C00E94510580ED0E94D4108835E5
:1022F00019F0803609F0BBC088E80E946211909303
:10230000F0058093EF058AE80E9462119093F20530
:102310008093F1058CE80E9462119093F4058093FC
:10232000F3058EE80E9462119093F6058093F505FF
:1023300080E90E9462119093F8058093F70582E985
:102340000E9462119093FA058093F90584E90E9436
:1023500062119093FC058093FB0586E90E9462114F
:102360009093FE058093FD0588E90E946211909389
:1023700000068093FF058AE90E946211909302068D
:10238000809301068CE90E94621190930406809369
:1023900003068EE90E94621190930606809305065B
:1023A00081EA0E94D4108093070681EE0E94621198
:1023B000909309068093080683EE0E94D4108093C0
:1023C0000A0684EE0E94D410C82F85EE0E94D41015
:1023D00090E1C99F900111248F70282B30930C0637
:1023E00020930B0686EE0E94D410C82F85EE0E9423
:1023F000D41090E1C99FE001112490E024E095956C
:1024000087952A95E1F78C2B9D2B90930E06809350
:102410000D0687EE0E94D41080930F0665E082EFD0
:102420000E94D70C67EB84EF0E94D70C81E0DF910C
:10243000CF91089561E00E94230561E08091EB0552
:102440000E9483058091EE058F3F19F40E94A80B2E
:102450004BCF61E00E94830561E08091EC050E9412
:10246000830560E08091ED050E9483053DCF80E00B
:10247000DECF8F929F92AF92BF92CF92DF92EF9278
:10248000FF92F82E8091EB058F3F09F04CC08091B0
:10249000E20591E09093150580933705109216059B
:1024A000109238056F2D86ED95E00E94040A0E9477
:1024B000420363E08091E2050E948E1086ED95E074
:1024C0000E9487094C01990FAA08BB08BA2CA92CB5
:1024D000982C882486ED95E00E948709092E000C2F
:1024E000AA0BBB0B882A992AAA2ABB2ABA2CA92C88
:1024F000982C882486ED95E00E948709092E000C0F
:10250000AA0BBB0B6C017D01C828D928EA28FB283F
:10251000C701B601FF90EF90DF90CF90BF90AF90D2
:102520009F908F9008958091EE058F3F21F482E572
:1025300091E00E943F0360E08091EB050E9423053B
:102540008F2D0E94960C80E00E94960C90E0B0E0E7
:10255000A0E0CC24D82EE92EFA2E80E00E94960C22
:10256000C82AFE2CED2CDC2CCC2480E00E94960C9A
:10257000C82A61E08091EB050E942305C9CF8F92A4
:102580009F92AF92BF92CF92DF92EF92FF920F9302
:102590001F938AEF0E943912E2EEF5E00585168559
:1025A00030E020E0C72ED82EE92EFF24E7FCFA9475
:1025B000C01AD10AE20AF30A57E0959587957795F4
:1025C00067955A95D1F7000F111F221F331F4B013A
:1025D0005C01801A910AA20AB30AA5019401A78599
:1025E000B0890E94B8344B015C01BBE0B594A7945C
:1025F00097948794BA95D1F7A7019601C701B601C0
:102600000E945B349B01AC011CE0559547953795C2
:1026100027951A95D1F7A189B2890E94B8349B01F8
:10262000AC010EE055954795379527950A95D1F75A
:10263000280D391D4A1D5B1D25833683478350872E
:10264000A5E0B0E00E94AD3460587F4F8F4F9F4FA0
:10265000672F782F892F992787FD9A950E94F0324E
:1026600020E030E048EC52E40E9447321F910F9185
:10267000FF90EF90DF90CF90BF90AF909F908F90A2
:102680000895BF92CF92DF92EF92FF920F931F9324
:10269000CF93DF93EC01B62EC72EED84E11004C07A
:1026A0000E94E60A81110EC01B861D861C8680E0F2
:1026B000DF91CF911F910F91FF90EF90DF90CF901E
:1026C000BF90089540E060EFCE010E94930AD12CA4
:1026D00001E011E0CE010E94400AF82ECE010E94D6
:1026E000400A91E0F91218C0813099F51134E0F2F6
:1026F000EB86E11002C081E08D878B818823A1F2F7
:102700002396EB2DFC2DCF01089629912193E817F4
:10271000F907D9F781E0CCCFED2DF0E0F8120FC02A
:102720008B851817A0F4DE01AE0FBF1F13968C9196
:10273000802379F4F12C193008F41C87E12EEC0F7A
:10274000FD1F8381902F9095892383830AC0811375
:10275000F1CFFE01ED0DF11D8381802B8383FF24DA
:10276000F3946F2DCE010E94640A1F5F000F11F4D5
:10277000D39401E087E08D1508F0ACCFB7CF0F936D
:102780001F93CF93DF938C01D62FE0911506F09124
:1027900016061386158614861286118610861782F1
:1027A0001682158214821382C0E0B801809115064A
:1027B000909116060E944113882329F0DC1749F0F6
:1027C000CF5FDC1790F780E0DF91CF911F910F91E1
:1027D000089567E0C8010E94340AF80197818913BF
:1027E000EFCF81E0F1CFEF92FF921F93CF93DF9372
:1027F000EC0180916806833009F098C068E2CE0150
:102800000E94480D82FF92C0E881F9810488F58911
:10281000E02D61E0CE010995E881F981008CF18D10
:10282000E02DCE01099580E00E948F0C80E00E948F
:102830008F0C8093120480911204833408F046C0F8
:10284000809112048093120480E00E948F0C809388
:102850000F048E81811109C080910F049D8198170A
:1028600021F080910F048F3F99F5809112048330FD
:1028700078F18091120483508093110480E00E94CB
:102880008F0C8093100480E00E948F0C982F90781A
:1028900090930D04982F907490930E04E881F98121
:1028A0000684F785E02D682FCE01099510E0809110
:1028B0001104181710F5E12EF12C80E00E948F0C06
:1028C000F701E253FC4F80831F5FF1CF82E4BACF60
:1028D00010921204E881F981028CF38DE02DCE0173
:1028E0000995E881F9810288F389E02DCE01DF9115
:1028F000CF911F91FF90EF900994809111048D3337
:1029000030F4E0911104F0E0E253FC4F1082E881D2
:10291000F981028CF38DE02DCE010995E881F981D2
:102920000488F589E02D63E0CE01099564E2CE01CB
:102930000E94480D90E09195819591099595879514
:1029400090930C0480930B04DF91CF911F91FF9023
:10295000EF900895CF93DF9320916806233021F004
:1029600080E0DF91CF910895209112042111F8CFDA
:10297000EC0164E20E94480D90E0919581959109E7
:1029800080379F4F6CF7E881F9810488F589E02D45
:1029900061E0CE01099581E0E4CF4F925F926F92A2
:1029A0007F92AF92BF92CF92DF92EF92FF920F93FE
:1029B0001F93CF93DF93EC015B01F42E10920E0472
:1029C00010911004C0900B04D0900C046DE30E9491
:1029D000480D482F44606DE3CE010E94130D0E9404
:1029E00017062B013C01CE010E94AA14811113C0CD
:1029F0000E9417066419750986099709683E734095
:102A00008105910540F4E881F9810480F581E02D8C
:102A1000CE010995E8CF10931004E881F981008870
:102A2000F189E02DEE24E39400E02F2DA501612F24
:102A3000CE010995D0920C04C0920B04DF91CF9186
:102A40001F910F91FF90EF90DF90CF90BF90AF90CC
:102A50007F906F905F904F9008958F929F92AF926A
:102A6000BF92CF92DF92EF92FF920F931F93CF937B
:102A7000DF93EC01162F6A01F22E6DE30E94480DE0
:102A8000482F44606DE3CE010E94130D0E9417068B
:102A90004B015C01CE010E94AA14811113C00E9457
:102AA0001706681979098A099B09683E73408105F0
:102AB000910540F4E881F9810480F581E02DCE0193
:102AC0000995E8CFE881F9810088F189E02DE12CB2
:102AD0002F2DA601612FCE010995DF91CF911F9176
:102AE0000F91FF90EF90DF90CF90BF90AF909F90AD
:102AF0008F9008954F925F926F927F928F929F92E4
:102B0000AF92BF92CF92DF92EF92FF920F931F93FB
:102B1000CF93DF93CDB7DEB76E970FB6F894DEBFD5
:102B20000FBECDBF3C014B01F42E122F6DE370E0C0
:102B30000E942B2F082FF40101900020E9F7319714
:102B40006F01C818D90811111092BF0316E0F110D7
:102B500001C014E00E9417062091BB033091BC0312
:102B60004091BD035091BE03621B730B840B950B08
:102B7000603D77408105910568F00E9417066093DB
:102B8000BB037093BC038093BD039093BE0381E0AD
:102B9000809307018C2D800F9927991F5C01412E8E
:102BA000512C840D951DCD970CF03FC11C2D8091AB
:102BB00007012091BF03882309F49BC0822F90E076
:102BC000A501480F591F440D551D4D3351052CF4D7
:102BD000C11055C0222309F452C083589C4F2DE7E1
:102BE000FC01208364E289E696E00E94480D90E0B3
:102BF00091958195910980379F4F14F000E021C095
:102C00006091C4042091BF032F5F94E6E92E02E097
:102C10004DE753E089E696E00E94290C082F8111C8
:102C200028C00E9417066093BB037093BC03809377
:102C3000BD039093BE031092070189E696E00E94BF
:102C4000070C802F6E960FB6F894DEBF0FBECDBF77
:102C5000DF91CF911F910F91FF90EF90DF90CF9078
:102C6000BF90AF909F908F907F906F905F904F90AC
:102C700008951092BF0389E696E00E94070C8091A8
:102C8000BF03282F30E0A20EB31E4A0C5B1C9CE34E
:102C9000491651040CF0B2CF112309F4BBC08823AC
:102CA00099F1E1E0E80FE093BF0323583C4F8CE239
:102CB000F90180839091BF0381E0890F8093BF0366
:102CC000E92FF0E0E358FC4F22E220839095E92FB2
:102CD000E80FE60DF72DF11D2081A1E0A80FE82FE8
:102CE000F0E0E358FC4F222309F465C020838A2FCB
:102CF000EECFC110C4CF80910701222309F4BFCFCA
:102D0000813009F07BCFBBCF91E09093BF039BE76D
:102D100090937D0396E0EBE0F2E0DE01599601909E
:102D20000D929A95E1F791E0980FE9E1F0E0EC0F50
:102D3000FD1FE80FF11D8081882339F0E92FF0E0B5
:102D4000E358FC4F8083892FEECF9093BF0380918F
:102D5000790390917A03A0917B03B0917C03019653
:102D6000A11DB11D8093790390937A03A0937B03F7
:102D7000B0937C034AE0BE016F5F7F4F0E94362F05
:102D80002091BF03E22FAE2FA21B81E090E08C0FB9
:102D90009D1F8A0F911DDC019C9181E08E0FF0E058
:102DA000E358FC4F992319F09083E82FECCF8093E0
:102DB000BF038CE27ECF92E29083E2E0E80FE093E3
:102DC000BF03B0E0A358BC4F2AE32C93FF2039F097
:102DD0008D5F8093BF03F0E0E358FC4F90838091B8
:102DE000BF03F40190E02191A82FA90FB0E0A358F0
:102DF000BC4F2C939F5F9117B0F3E82FEC0D8F5FC2
:102E0000F1100AC0E093BF03E091BF03F0E0E35884
:102E1000FC4F108201E015CFC80EC092BF03F0E056
:102E2000E358FC4F82E28083EFCF88E1E1E1F2E0FA
:102E3000DE01119601900D928A95E1F780910701CC
:102E4000882309F4DBCE6091C4048AEFE82E04E005
:102E500028E1AE014F5F5F4F89E696E00E94290CA2
:102E6000CDCE4F925F926F927F928F929F92AF9250
:102E7000BF92CF92DF92EF92FF920F931F93CF9367
:102E8000DF93CDB7DEB72B970FB6F894DEBF0FBE3A
:102E9000CDBF90910101892B809301019CEA892E7D
:102EA00091E0992EF12CE12C5524539466246394DF
:102EB000712CF40181914F010E94FA045C014424B9
:102EC0004394019709F0412CC70189559B4F6C0130
:102ED000FC01808183FF07C0808182FF04C0808164
:102EE00087FF5092CC0383010E2C02C0000F111FEC
:102EF0000A94E2F78091CA039091CB03A80148237A
:102F0000592321E0452B09F420E0241105C020912C
:102F10000101222309F497C0F601208126FF5FC03A
:102F200083E0E9E0F1E0DE01119601900D928A95CF
:102F3000E1F71D821C824AE0BE01675F7F4FC70137
:102F40000E94362F42E050E0BE01675F7F4FCE0106
:102F500001960E9477364AE0BE016A5F7F4F842D5A
:102F600090E00E94362F20E041E0BE016A5F7F4F73
:102F7000CE0101960E947A15882371F08091CA03D0
:102F80009091CB03F1E0AF16B10419F5802B912B92
:102F90009093CB038093CA035092CC03809180041A
:102FA000882371F15092CC0380910101811102C0FC
:102FB000509281048091CA039091CB03AA94AB28CC
:102FC00009F06FC0082B192B1093CB030093CA0391
:102FD0003AC098012095309582239323D9CF21E0E0
:102FE000A216B10439F4802B912B9093CB038093DC
:102FF000CA03D4CF98012095309582239323F5CF2F
:10300000F40131978081F601AA94AB2809F040C001
:10301000908193FF3AC00E94480FF601808187FF9C
:1030200012C0F701EE0FFF1FEE0FFF1FEC59FB4F11
:1030300080819181A281B3810196A11DB11D808300
:103040009183A283B3832FEFE21AF20A87E0E81696
:10305000F10409F02ECF1092010180E02B960FB6FB
:10306000F894DEBF0FBECDBFDF91CF911F910F91BE
:10307000FF90EF90DF90CF90BF90AF909F908F9098
:103080007F906F905F904F9008950E94120FC5CF70
:10309000908192FF03C00E94480FD5CF0E94120F6B
:1030A000D2CF00951095082319238ECFDF92EF928F
:1030B000FF920F931F93CF93DF93C82F1092CD03EE
:1030C0001092CC030E94060F8091BB0483FF04C0C2
:1030D00060E086E00E9423058091BB0482FD04C06D
:1030E00060E086E00E9423058091B60482FF08C05C
:1030F00084EF0E94D410682F6C7F84EF0E94D70C5D
:103100008091BB0485FF07C021E040E06DE572E0DF
:10311000CB010E947A158091B70484FD04C0809190
:10312000B70483FF0DC08091BB0484FD09C080916A
:10313000BB0487FD05C061E085E396E00E942B0695
:10314000D0907C0010927C00E0907A0010927A007F
:10315000F0906400109264008091BD048F3F21F4D0
:103160008091BC048F3F59F088E190E021E60FB6D2
:10317000F894A895809360000FBE20936000CC2344
:1031800009F468C0C091BD048091BC04C89FE001EF
:10319000112421970091BD048091BC04089F8001F7
:1031A000112460E089E696E00E94CE0DC017D10799
:1031B00008F053C08091BB0481FF0EC08091BB0416
:1031C00082FF0AC061E086E00E9423050E94F50E9E
:1031D00060E086E00E94230583B7817F846083BF1F
:1031E00083B7816083BF789483B7816083BF8895FC
:1031F00083B78E7F83BFC430D105A9F48091B70413
:1032000084FD04C08091B70483FF0DC08091BB048E
:1032100087FF09C0F092640061E085E396E00E94B8
:103220002B06109264008091B60483FF06C062E30F
:1032300070E080E090E00E94E4058091CC03811171
:103240000CC08091CD03882319F01092CD032197F3
:103250002196ACCFD0E0C0E09DCF0E94060FF09247
:103260006400D0927C00E0927A0081E080930701B4
:103270008091B60482FF08C084EF0E94D410682FAA
:10328000636084EF0E94D70C8091BB0480FF04C070
:1032900061E086E00E9423058091B70484FD04C0AC
:1032A0008091B70483FF05C060E085E396E00E944B
:1032B0002B068091BB0483FF04C061E086E00E947E
:1032C000230588E199E20FB6F894A89580936000F1
:1032D0000FBE90936000DF91CF911F910F91FF90EF
:1032E000EF90DF900895CF92DF92EF92FF921F93BD
:1032F000CF93DF93CDB7DEB72A970FB6F894DEBF32
:103300000FBECDBF182F8EE480937C0062E070E08A
:1033100080E090E00E94E40580917A0080648093D0
:103320007A0080917A0086FDFCCF80917800209110
:103330007900322F282F50E040E06CE374EF80E1F9
:1033400090E00E947F346901112381F04AE0BE01C0
:103350006F5F7F4FC6010E94362F20E040E0BE0124
:103360006F5F7F4F89E292E00E947A15C6012A962C
:103370000FB6F894DEBF0FBECDBFDF91CF911F9186
:10338000FF90EF90DF90CF9008952F923F924F9251
:103390005F926F927F928F929F92AF92BF92CF92E5
:1033A000DF92EF92FF920F931F93CF93DF93CDB7EE
:1033B000DEB762970FB6F894DEBF0FBECDBF382ED2
:1033C00030ECA32E33E0B32E4AE0C42ED12CCE0134
:1033D0000B969A8B898B52E2852E912C62E0262ED9
:1033E000F601E955FB4F7F018081882309F4BDC0B8
:1033F000808182FF07C080910001815009F4D9C00B
:103400008093000183E0EEE0F1E0DE011896019088
:103410000D928A95E1F7E989FA8923E011922A95BC
:10342000E9F7F601E455FE4F10814AE0BE01625F04
:103430007F4F812F90E00E94362F42E050E0BE0186
:10344000625F7F4FCE0108960E9477361E3008F0EB
:103450001E5080910601E0E48E9FC0011124177078
:10346000182B10937C0080917A00806480937A00FE
:1034700080917A0086FDFCCF609178000091790000
:10348000102F062FF501808191819C0182339105D7
:1034900010F022533109C2968017910730F00217BD
:1034A000130718F0332009F460C0F501118300837D
:1034B000F701808180FD28C0808181FD25C0808149
:1034C00083FD22C0808184FD03C0808182FF1CC0F7
:1034D00080E00E947319BC0190E080E00E94EE320F
:1034E00020E030EC4FE754E40E9447322B013C01CE
:1034F000B80190E080E00E94EE32A30192010E94A8
:10350000EE330E94B9328B01F701808182FF0FC038
:10351000045F114017FF02C010E000E0C801880FEF
:10352000991F800F911FB4010E946B348B01F7012A
:10353000808186FF02C0000F111FF701808187FF85
:1035400004C0000F111F000F111F4AE0BE016F5F82
:103550007F4FC8010E94362F20E040E0BE016F5F20
:103560007F4FCE0108960E947A15FFEFCF1ADF0A2F
:1035700022E0A20EB11C8EE0C816D10409F030CFB3
:1035800062960FB6F894DEBF0FBECDBFDF91CF912C
:103590001F910F91FF90EF90DF90CF90BF90AF9071
:1035A0009F908F907F906F905F904F903F902F9063
:1035B00008952092000161E080E00E94830561E0AF
:1035C00080E00E94230560E177E280E090E00E94C5
:1035D000E40560E080E00E94230564EF71E080E094
:1035E00090E00E94E4050ECF2F923F924F925F929F
:1035F0006F927F928F929F92AF92BF92CF92DF9203
:10360000EF92FF920F931F93CF93DF93CDB7DEB767
:10361000CE5ED1090FB6F894DEBF0FBECDBF89E6EE
:1036200096E00E94070C782E882309F4DFC380916E
:10363000BB0483FF04C061E085E00E942305E090A5
:10364000100480910B0490910C04F09011040F2D44
:1036500010E0A8016EEC73E0CE018F559F4F0E94E1
:10366000483680910E04882359F080910F048F3FD3
:1036700039F040E06DE572E089E696E00E94CD14F5
:1036800089E696E00E94070C8091C404E812A0C36A
:10369000E1EAF0E0EC0FFD1FE00FF11F108200E007
:1036A0009E012F553F4F790114E162E27FE2C7018D
:1036B0000E945C366C01892B09F467016FE570E0AC
:1036C000C6010E945C367C01802E912C81E090E046
:1036D0008C0F9D1F019F800D911D1124E114F10499
:1036E00009F481C05701AC18BD0831E0A31AB10834
:1036F000B6016F5F7F4FA5010E948736189DC001FC
:10370000199D900D1124E1E0F0E0EC0FFD1F8E0FEC
:103710009F1FA80EB91EF5011082DD24D394D00E90
:10372000FFEFEF1AFF0A62E27FE2C7010E945C36F8
:103730005C01009709F455C04C018E189F0821E0E8
:1037400030E02C0F3D1FD19E200D311D1124690149
:10375000A401B701C9010E948736C80CD91CF60123
:10376000108272E0672E600E7501FFEFEF1AFF0AFC
:1037700062E27FE2C7010E945C36009781F17C0122
:103780002FEFE21AF20A62E27FE2C7010E945C3682
:103790006C01009721F14C018E189F08AA24A39474
:1037A000B12CAC0EBD1E619EA00CB11C1124A40155
:1037B000B701C5010E948736A80CB91CF50110821B
:1037C00063E0662E600EFFEFCF1ADF0A62E27FE24F
:1037D000C6010E945C367C01892B09F47601062D16
:1037E00064CF0D2D62CF44E150E0B6010E948736D0
:1037F000212C10E044E1642E2EED30E02C0F3D1F13
:103800002D5F3F4FC351DF4F39832883CD5ED040BA
:10381000169D600111246EE272E081E090E08C0F51
:103820009D1F8C0D9D1D0E946736892B09F08FC04E
:10383000560134E1A30EB11C81E090E08C0F9D1F76
:10384000A80EB91EC5010E940D2F7C019FE1E9164B
:10385000F1040CF07CC0C6018896E1E0F0E0EC0FCA
:10386000FD1F8E0F9F1F0E940D2F6701DD24960103
:10387000205030404901682FC9010E94FD31C40128
:103880000E94EB31F601E955FB4F6F0180832091D7
:10389000C50430E0A0E1B7E20E949E3460939B042F
:1038A00070939C0480939D0490939E042091BF0488
:1038B00030E0A8E8B3E10E949E34609392047093D4
:1038C000930480939404909395042091BE0430E077
:1038D0000E949E34609385047093860480938704CD
:1038E0009093880483E0E4E1F1E0DE01A252BF4F4F
:1038F00001900D928A95E1F7C351DF4FE881F9817C
:10390000CD5ED04027E011922A95E9F742E050E0E1
:10391000B501CE0182529F4F0E947736F601808119
:103920004AE0BE0168517F4F90E00E94362F20E0B0
:1039300040E0BE0168517F4FCE0182529F4F0E94EE
:103940007A151E5F8CEE8E0D853008F0272C169DA3
:103950007001112462E672E081E090E08C0F9D1FFF
:103960008E0D9F1D0E946736892BE9F583E0E4E107
:10397000F1E0DE01A252BF4F01900D928A95E1F76E
:10398000C351DF4FE881F981CD5ED04027E011922D
:103990002A95E9F734E1E30EF11C81E090E08C0F09
:1039A0009D1FE80EF91E42E050E0B70183529F4F81
:1039B0000E947736C7010E940D2F89559B4FFC014D
:1039C00080814AE0BE0168517F4F90E00E94362F0F
:1039D00020E040E0BE0168517F4FCE0182529F4FF0
:1039E0000E947A151E5F169D40011124CC24C394B9
:1039F000D12CCC0EDD1EC80CD91C60E372E0C601D0
:103A00000E946736892B09F046C0F12CE12C970102
:103A100029553B4F5901F90180818823A1F183E0A9
:103A2000E4E1F1E0DE01A252BF4F01900D928A95D0
:103A3000E1F7CF51DF4F19821882C15ED0404AE0D2
:103A4000BE0168517F4FC7010E94362F44E050E00D
:103A5000BE0168517F4FCE0182529F4F0E94773640
:103A6000F50180814AE0BE0168517F4F90E00E94DD
:103A7000362F20E041E0BE0168517F4FCE018252D7
:103A80009F4F0E947A15FFEFEF1AFF0A2FE1E2160F
:103A9000F10409F0BCCF66ED72E0C6010E94673602
:103AA000892B81F5740134E1E30EF11C81E090E093
:103AB0008C0F9D1FE80EF91EC7010E940D2F89551E
:103AC0009B4FFC01808185FD10928304F8E28F0EEC
:103AD000911C21E030E02C0F3D1F820E931E65E308
:103AE00072E0C4010E946736892B09F031C1C70119
:103AF0000E940D2F84559E4F61E0FC0180810E9441
:103B000023051E5F169D7001112488248394912C37
:103B10008C0E9D1E8E0C9F1C67E372E0C4010E94F8
:103B20006736892BC1F56701F8E2CF0ED11C21E081
:103B300030E02C0F3D1FC20ED31E6BE372E0C601B6
:103B40000E9467362C01570134E1A30EB11C81E0BD
:103B500090E08C0F9D1FA80EB91EC5010E940D2F6D
:103B6000825C9E4FFC013080452809F000C161E075
:103B7000832D0E94230564E670E080E090E00E94BF
:103B8000E405C5010E940D2F825C9E4F60E0FC01A0
:103B900080810E94230561E472E0C4010E946736BF
:103BA000892B79F441E150E061E270E0C701889629
:103BB00021E030E02C0F3D1F820F931F0E94F33154
:103BC000272C6BEC72E0C4010E946736892B51F5FB
:103BD0008091B70483FFD6C0670134E1C30ED11CC6
:103BE00081E090E08C0F9D1FC80ED91EC6010E9477
:103BF0000D2F62E0680F41E552E084E00E948508E5
:103C0000C6010E940D2FA701485D5F4FE1E0F0E083
:103C1000EC0FFD1F4E0F5F1F62E0680F84E00E94F3
:103C200085081E5F169D70011124CC24C394D12CED
:103C3000CC0EDD1ECE0CDF1C63ED72E0C6010E94CF
:103C40006736892BE1F481E080938004C701889670
:103C500021E030E02C0F3D1F820F931F0E940D2F9B
:103C600060E00E94920F20E041E06EE572E0882360
:103C700011F068E672E084E692E00E947A156BE645
:103C800072E0C6010E946736892B31F50E94170643
:103C90006093890470938A0480938B0490938C04BE
:103CA0006091890470918A0480918B0490918C04B6
:103CB0002AE0AE0142525F4F0E94412F20E040E0D7
:103CC000BE0162527F4F8EE692E00E947A151092FA
:103CD0008404109283041E5F1F5F011708F098CDC3
:103CE000222099F020E040E063E772E088E892E06B
:103CF0000E947A15A89588E199E20FB6F894A895E4
:103D0000809360000FBE909360008091BB0483FF9E
:103D100004C060E085E00E942305872DC251DF4F7B
:103D20000FB6F894DEBF0FBECDBFDF91CF911F91CC
:103D30000F91FF90EF90DF90CF90BF90AF909F904A
:103D40008F907F906F905F904F903F902F9008954D
:103D500066E672E0C4010E946736892B09F0D1CE75
:103D6000C7010E940D2F84559E4F60E0C6CE65E3CB
:103D700072E0C6010E94673661E0892B09F060E0BD
:103D8000832D07CF8091B70484FF4BCF6701F4E107
:103D9000CF0ED11C21E030E02C0F3D1FC20ED31EF0
:103DA000C6010E940D2F45E452E0682F80E00E947A
:103DB0008508C6010E940D2FA701485D5F4FE1E015
:103DC000F0E0EC0FFD1F4E0F5F1F682F80E027CF44
:103DD0006091C4048AEFE82E04E02F2DAE014F5508
:103DE0005F4F89E696E00E94290C8FCF89E696E026
:103DF0000E94070C92CFCF92DF92EF92FF920F9327
:103E00001F93CF93DF931F92CDB7DEB7C82EDD246B
:103E1000D39410E0882349F083E1898382E0D82E8F
:103E200010E006C032E0D32E11E081E18983C12C7D
:103E300080910701882369F06091C4042AEFE22E83
:103E400004E021E0AE014F5F5F4F89E696E00E94FB
:103E5000290CF12CE12C0E94F41A882311F0F12C8A
:103E6000E12C61E070E080E090E00E94E4058FEFDB
:103E7000E81AF80A83ECE81681E0F80661F7C11049
:103E80002AC08091BD04811104C08091BC048823A4
:103E900011F182E1898380910701882369F06091A3
:103EA000C4049AEFE92E04E021E0AE014F5F5F4FBA
:103EB00089E696E00E94290C1F5F1D1508F4B2CF19
:103EC00081E00F90DF91CF911F910F91FF90EF90C4
:103ED000DF90CF90089584E1DDCF1F920F920FB64F
:103EE0000F9211242F933F934F935F936F937F9380
:103EF0008F939F93AF93BF93EF93FF9389E395E0E5
:103F00000E944204FF91EF91BF91AF919F918F91D9
:103F10007F916F915F914F913F912F910F900FBEC5
:103F20000F901F9018951F920F920FB60F921124A9
:103F30002F938F939F93EF93FF93E0914905F09117
:103F40004A058081E0914F05F091500582FD1BC02C
:103F50009081809152058F5F8F7320915305821756
:103F600041F0E0915205F0E0E75CFA4F958F8093C5
:103F70005205FF91EF919F918F912F910F900FBE5E
:103F80000F901F9018958081F4CF1F920F920FB65B
:103F90000F9211242F933F938F939F93AF93BF93CF
:103FA0008091580490915904A0915A04B0915B04F7
:103FB0003091570423E0230F2D3758F50196A11DAA
:103FC000B11D209357048093580490935904A093F3
:103FD0005A04B0935B0480915C0490915D04A091BD
:103FE0005E04B0915F040196A11DB11D80935C0435
:103FF00090935D04A0935E04B0935F04BF91AF9172
:104000009F918F913F912F910F900FBE0F901F9016
:10401000189526E8230F0296A11DB11DD2CF1F923D
:104020000F920FB60F9211242F933F934F935F93EC
:104030006F937F938F939F93AF93BF93EF93FF9370
:10404000E0910401F09105010995FF91EF91BF9175
:10405000AF919F918F917F916F915F914F913F9120
:104060002F910F900FBE0F901F9018951F920F92D7
:104070000FB60F9211242F933F934F935F936F933B
:104080007F938F939F93AF93BF93EF93FF93E091B1
:104090000201F09103010995FF91EF91BF91AF915A
:1040A0009F918F917F916F915F914F913F912F9150
:1040B0000F900FBE0F901F9018951F920F920FB682
:1040C0000F9211242F933F934F935F936F937F939E
:1040D0008F939F93AF93BF93EF93FF938091B9001A
:1040E000887F803609F44AC0F0F5883209F4A7C009
:1040F00018F5803109F49BC0B8F4882309F4F9C09D
:10410000883009F494C0FF91EF91BF91AF919F91D6
:104110008F917F916F915F914F913F912F910F9070
:104120000FBE0F901F901895883109F488C0803217
:1041300051F78093120514C0803409F49DC040F4F7
:104140008033B9F38833F9F68093120585ECB0C05B
:10415000803509F485C0883509F496C0883499F60D
:104160000E944709D0CF883909F48CC038F58837C8
:1041700029F050F4883611F0803729F683E08093D7
:1041800014051092560457C0883809F47BC0803952
:1041900019F0803809F0B7CF80915604803208F0CA
:1041A00071C0E091560481E08E0F80935604809197
:1041B000BB00F0E0EA5CFB4F80833DC0803B39F000
:1041C000E0F4803A09F479C0883A09F09CCF84E0A1
:1041D000809314051092350410923404E091CA04BF
:1041E000F091CB0409958091340481110FC081E0D6
:1041F000809334041092140409C0803C09F4A6CFC3
:10420000883C09F4A3CF883B09F07DCFE0913504C9
:1042100081E08E0F80933504F0E0EC5EFB4F8081EF
:104220008093BB00909135048091340429C0809123
:10423000EF048093BB0085EC8093BC0064CF909129
:10424000110580911005981758F5E091110581E04E
:104250008E0F80931105F0E0E051FB4F8081E9CF94
:10426000E091110581E08E0F809311058091BB00D4
:10427000F0E0E051FB4F8083909111058091100593
:104280009817C8F285E8D8CFE091110581E08E0F2C
:10429000809311058091BB00F0E0E051FB4F8083DB
:1042A0008091130581115CCF81E08093EE0484EA54
:1042B0008093BC001092140526CF85EC8093BC003F
:1042C0001092140580915604803230F4E091560427
:1042D000F0E0EA5CFB4F10826091560470E0E091E0
:1042E000C804F091C90486E394E00995109256043D
:1042F0000ACF1092120534CF1F920F920FB60F9271
:1043000011248F9383B78E7F83BF8F910F900FBE41
:104310000F901F9018951F920F920FB60F921124B5
:104320002F933F934F935F936F937F938F939F93BD
:10433000AF93BF93CF93EF93FF93F89462E070E055
:1043400080E090E00E94E405789483B78E7F83BF7D
:10435000C09107011092070180E00E94311781E0AF
:1043600080939A04C09307018093CD03FF91EF914E
:10437000CF91BF91AF919F918F917F916F915F91FD
:104380004F913F912F910F900FBE0F901F90189556
:104390001F920F920FB60F9211242F933F934F93BA
:1043A0005F936F937F938F939F93AF93BF93EF939D
:1043B000FF930E948B21FF91EF91BF91AF919F914D
:1043C0008F917F916F915F914F913F912F910F90BE
:1043D0000FBE0F901F9018951F920F920FB60F925D
:1043E00011242F933F934F935F936F937F938F93FA
:1043F0009F93AF93BF93EF93FF930E948B21FF9105
:10440000EF91BF91AF919F918F917F916F915F914C
:104410004F913F912F910F900FBE0F901F901895C5
:10442000CF9310923C0510923B0588EE93E0A0E0FC
:10443000B0E080933D0590933E05A0933F05B09377
:1044400040052FEB31E030933A052093390525ECF8
:1044500030E0309346052093450524EC30E030935E
:1044600048052093470520EC30E030934A0520931F
:10447000490521EC30E030934C0520934B0522ECAC
:1044800030E030934E0520934D0526EC30E030931C
:10449000500520934F05109252051092530510922B
:1044A0005405109255051092D9051092D8058093A5
:1044B000DA059093DB05A093DC05B093DD0581ED73
:1044C00091E09093D7058093D6058FEE91E090937D
:1044D0006A068093690688E080936B0683E0809388
:1044E0006C0681E080936D068093680610926F06DB
:1044F0008FE180937006109271061092340610922C
:104500003306109266061092670683EE91E0909350
:1045100032068093310610923606109235061092BC
:1045200046061092490610924A068FEF809347067E
:1045300080934C06E0E5F6E0CFEFC19386E0E636E7
:10454000F807D9F78BEA96E090933A0680933906FC
:1045500080EA97E090933C0680933B068EEC99E0CE
:1045600090933E0680933D068DE898E09093400638
:1045700080933F0630E020E040E069E085E396E08C
:104580000E94AB06C0935B06C0935C06C0935D06B9
:1045900060E089E00E948305E1EBF2E0E491E093C2
:1045A0002306EDE9F2E0E491F0E0EE0FFF1FE6579D
:1045B000FD4F859194919093250680932406109247
:1045C0002E061092300610922F0610922D06109291
:1045D0002C0610922B0610922A0610922906109291
:1045E000280610922706109226068CE093E09093FE
:1045F00022068093210683E296E09093160680932C
:104600001506109214061092100689E08093110688
:1046100081E08093120680931306C093EB05C0934C
:10462000EC05C093ED05C093EE05CF910895CF93AF
:10463000DF93CDB7DEB7CA56D1090FB6F894DEBF07
:104640000FBECDBF789484B5826084BD84B581608F
:1046500084BD85B5826085BD85B5816085BD80914D
:104660006E00816080936E001092810080918100C5
:1046700082608093810080918100816080938100BD
:10468000809180008160809380008091B10084607F
:104690008093B1008091B00081608093B0008091E0
:1046A0007A00846080937A0080917A00826080939F
:1046B0007A0080917A00816080937A0080917A00FC
:1046C000806880937A001092C1000E94060F80E0FB
:1046D00090E00E94EB318F3FC1F500E010E060E018
:1046E000C8010E94FD310F5F1F4F20E00C311207FF
:1046F000B1F76FEF8AE190E00E94FD316EEF8BE140
:1047000090E00E94FD3161E08CE190E00E94FD317B
:1047100061E08DE190E00E94FD3162E08EE190E089
:104720000E94FD316FEA8FE190E00E94FD3160E070
:1047300080E290E00E94FD3141E150E061E270E0F2
:104740008EE892E00E94F33116C08FE190E00E9463
:10475000EB318F3A11F662E08FE00E94830561E051
:1047600070E080E090E00E94E4058FE00E94FA048F
:10477000892B09F4B2CF10E000E0C80180509040CE
:104780000E94EB31F801E955FB4F80830F5F1F4F0B
:104790000132110591F7E4E6F4E080E894E011922B
:1047A0001192119211928E179F07C9F72091C5049B
:1047B00030E0A0E1B7E20E949E3460939B047093C6
:1047C0009C0480939D0490939E042091BF0430E04C
:1047D000A8E8B3E10E949E3460939204709393041E
:1047E00080939404909395042091BE0430E00E943D
:1047F0009E346B017C01C0928504D0928604E092C5
:104800008704F09288040E9417066C197D098E09AE
:104810009F096093890470938A0480938B0490931A
:104820008C04CD28CE28CF2809F4E4C0109283044C
:104830008091C304813031F48091C2048E3F11F421
:104840001092070161E085E00E94830561E086E047
:104850000E94830561E087E00E94830561E082E0B9
:104860000E94830561E087E00E94230561E082E009
:104870000E94230565E070E080E090E00E94E4057E
:1048800060E082E00E9423056AE070E080E090E052
:104890000E94E4053091C3041091C204FE013396D6
:1048A0008CE2DF011D928A95E9F781E0898384E03B
:1048B0008A8322E02B8393E09D832E838F8380E481
:1048C000888725E029879A8796E09B8793E39C87D2
:1048D00097E09D8728E02F8729E0298B29E12B8B02
:1048E00022E42C8B45E24D8B8E8B46E24F8B988FCA
:1048F00098E2998F90E19A8F99E29B8F9CED9C8F23
:104900009EE29D8F98E89E8F9FE29F8F9DE298A3E5
:1049100090E399A347E34BA340E94CA348E34DA39D
:104920002EA32CE32FA32FE828A72DE329A722E10C
:104930002AA72FE62BA79CA79FEF9DA79CE69E8703
:10494000888B3AA361E080916B060E94230561E0A9
:1049500080916B060E9483050E94A80B0E94170697
:104960006B017C014AEA6FE289E696E00E94130D32
:104970006FE289E696E00E94480D8A3A59F00E945B
:1049800017066C197D098E099F096233710581052F
:10499000910540F30E9417066B017C0145E56FE22B
:1049A00089E696E00E94130D6FE289E696E00E9488
:1049B000480D853559F00E9417066C197D098E093E
:1049C0009F09623371058105910540F300E0FE0106
:1049D00031966F01E02FF0E0EE0FFF1FEC0DFD1D93
:1049E00060816F3F59F0418189E696E00E94130D86
:1049F0000F5FF0CF81E0809383041ACF90E080E0D6
:104A00000E94370E6091710689E696E00E94660D5D
:104A100061E089E696E00E94CE0D0E9417064B01E8
:104A20005C0167E289E696E00E94480D87FD0BC0B5
:104A30000E941706681979098A099B096233710572
:104A40008105910570F30E941706681979098A0992
:104A50009B09623371058105910570F5109262041E
:104A600080916D06823098F4E82FF0E0EE0FFF1F82
:104A7000EE5FFE4F23EB33E031832083813009F476
:104A8000A1C180916900836080936900E89A89E6FA
:104A900096E0909361048093600410936E0667E043
:104AA0000E94480D182F67E089E696E00E94480DA5
:104AB0001F3F11F0811117C014E160E087E00E94F0
:104AC000230564E670E080E090E00E94E40561E088
:104AD00087E00E94230564E670E080E090E00E9499
:104AE000E405115051F76FE189E696E00E94B50D9B
:104AF00041E150E061E270E0CE018F960E94DB312F
:104B0000CE018F960E94370E89E696E00E94070C30
:104B10008091B10481110BC08091B204811107C052
:104B20008091B304811103C08091B404811110926B
:104B300006011CEA812E11E0912E10E000E0D40164
:104B4000FD904D01F801E955FB4F5F01FAE0FF16BA
:104B500061F0D5016C9161708F2D0E948305F50184
:104B6000608162708F2D0E942305D5018C9182FF98
:104B700003C08F2D0E94480F0F5F1F4F0730110594
:104B8000F1F68091BB0480FF04C061E086E00E94E2
:104B900023058091B60481FF08C060E080E00E9498
:104BA000830561E081E00E9483058091B70484FD64
:104BB00004C08091B70483FF6FC0E0913906F09183
:104BC0003A0630E020E040E06AE085E396E00995AF
:104BD00088E0F60111928A95E9F7C6010E940D035B
:104BE00060E085E396E00E942B0660E085E396E0B6
:104BF0000E942B064091C104E0913906F0913A06DB
:104C000030E020E06EE085E396E009958CEB92E0E1
:104C1000909342068093410686E0EEE1F1E0D601F2
:104C200001900D928A95E1F7FE01379684E0DF014D
:104C30001D928A95E9F78091C2044AE0BE01605C4A
:104C40007F4F90E00E94362F43E050E0BE01605C51
:104C50007F4FC6010E947736A60162E084E00E9481
:104C600085086FE972E0C6010E9470368091C30426
:104C70004AE0BE01605C7F4F90E00E94362F43E027
:104C800050E0BE01605C7F4FC6010E947736A601EE
:104C900063E084E00E9485088091BA0480FD16C319
:104CA00080E290E00E94EB318111D9C061E080E2A6
:104CB00090E00E94FD3188E199E20FB6F894A89542
:104CC000809360000FBE90936000F89480E821E02C
:104CD00030E00FB6F89480936100209361000FBE1E
:104CE000009166006090800070908100809082004A
:104CF00090906F00A090B000B090B100E090700074
:104D0000F090B60010928000109281001092820004
:104D100010926F001092B0001092B10010927000CB
:104D20001092B60066E289E696E00E94480D582E81
:104D300045E066E289E696E00E94130D109270004D
:104D400083B5826883BD80E48093B6008091B6000D
:104D500080628093B60081E08093B1001092B00031
:104D600083B58F7783BD87B3182F117080FFFBCF7A
:104D700087E087BB81E08093810080E880936600B4
:104D800021E837E0112359F1B89BFCCF23BD37BB95
:104D9000809184009091850010FD1FC0AC014D5F93
:104DA000534047305105D8F08115944090F48091DC
:104DB00066008F5F809366001092850010928400D9
:104DC0001F5FE0CF809169008C6080936900E99A51
:104DD0005ECE809166008150EDCF13BCF1CF789408
:104DE000452D66E289E696E00E94130D60928000F0
:104DF000709281008092820090926F00A092B00029
:104E0000B092B100E0927000F092B60087E286BBEB
:104E100087E087BB13BC111119C000936600809115
:104E20000701882399F081E1EEEEF2E0D6010190CE
:104E30000D928A95E1F76091C404BAEFEB2E04E07D
:104E400021E1A60189E696E00E94290C60E080E25B
:104E500090E00E94FD310E94060F11E018C0809181
:104E600007018823D1F388E1EFEFF2E0D60101904A
:104E70000D928A95E1F76091C404AAEFEA2E04E04E
:104E800028E1A60189E696E00E94290C10E08091B5
:104E9000B70481FF35C0E0914905F0914A0582E0F1
:104EA0008083E0914505F09146051082E091470529
:104EB000F09148058FEC808310925105E0914D05EB
:104EC000F0914E0586E08083E0914B05F0914C0512
:104ED000808180618083E0914B05F0914C05808159
:104EE00088608083E0914B05F0914C05808180685B
:104EF0008083E0914B05F0914C0580818F7D80830C
:104F00008091B60482FF1CC00E946811811118C0F4
:104F1000809107018823A1F089E1E7E1F3E0D60160
:104F200001900D928A95E1F76091C404EAEFEE2EAC
:104F300004E029E1A60189E696E00E94290C10E030
:104F400060E080E290E00E94FD311123B9F0809191
:104F50000701882399F08DE0E0E3F3E0D6010190AA
:104F60000D928A95E1F76091C4047AEFE72E04E090
:104F70002DE0A60189E696E00E94290C60E087E01A
:104F80000E942305FE0134966296FFAFEEAF629752
:104F90008091BB0483FF04C060E087E00E9423058A
:104FA0008091BB0481FF1FC00E9417060091A304DB
:104FB0001091A4042091A5043091A604601B710BEC
:104FC000820B930B693B7B408105910560F00E9449
:104FD00017066093A3047093A4048093A504909390
:104FE000A6040E94F50E61E080E00E94920F0E94EC
:104FF000170620910801C0909F04D090A004E09073
:10500000A104F090A2046C197D098E099F09C0903B
:105010009B04D0909C04E0909D04F0909E04C616E2
:10502000D706E806F90608F465C1211165C180E0DC
:105030000E94311780E00E94C5190E941706009156
:105040009204109193042091940430919504C0909F
:105050009604D0909704E0909804F09099046C190D
:105060007D098E099F09061717072807390720F0C1
:10507000809191048823B1F0012B022B032B91F036
:105080000E94170660939604709397048093980487
:105090009093990420E041E06BED72E08BE692E0A2
:1050A0000E947A150E941706E091C20400918D04B7
:1050B00010918E0420918F0430919004AB01BC01BB
:1050C000401B510B620B730B8E2F90E088519C4F4D
:1050D000092E000CAA0BBB0B84179507A607B70770
:1050E00088F40E94170660938D0470938E04809359
:1050F0008F049093900420E040E06DE572E0CB01D6
:105100000E947A150E9417060091890410918A0462
:1051100020918B0430918C04601B710B820B930BDC
:1051200000918504109186042091870430918804B1
:10513000061717072807390748F58091840481115D
:105140000BC020E041E062EE72E08EE692E00E9449
:105150007A1581E08093840410E000E0F801E955BD
:10516000FB4F808185FF0AC09081F801E455FE4F16
:10517000808161E091FF60E00E9423050F5F1F4F77
:105180000730110559F781E08093830480918204F0
:10519000811109C080910701882319F081E00E94E4
:1051A000FB1E809382048091BD04882309F46FC0A4
:1051B0008091BC04882309F46AC080918304882309
:1051C00009F465C080910701882319F080E00E94EE
:1051D000FB1E8091B70480FF04C060E081E00E9464
:1051E000830580918104882331F180918004882394
:1051F00011F16AE070E080E090E00E94E405109216
:10520000810480E00E94FA04892B09F4CBC581E077
:105210000E94FA04892B09F4C5C561E087E00E9469
:1052200023056EE170E080E090E00E94E40560E01C
:1052300087E00E9423058091B70480FF04C061E0ED
:1052400081E00E94830561E080E00E94920F8091DE
:1052500083048823E1F08091BB0483FF04C060E0F5
:1052600087E00E9423058091BB0420E040E06DE5CB
:1052700072E086FFA4C5CB010E947A15182F81E049
:1052800081270E9456181093080110939104809171
:10529000BD04882321F08091BC04811102C00E94CA
:1052A000F41A8091BB0483FF04C061E087E00E9490
:1052B000230580E090E0892B09F46ACE0E942E0439
:1052C000882309F465CE0E94000062CE8091070118
:1052D000882309F4C2CD87E1EDE3F3E0D601019024
:1052E0000D928A95E1F76091C404FAEFEF2E04E085
:1052F00027E1C7CD222351F08091B60480FF06C07C
:1053000068EE73E080E090E00E94E4050E941706DA
:1053100060939F047093A0048093A1049093A204CF
:105320008091BD04882319F081E00E947319809157
:10533000B60480FF2CC180916304811182C0E0918A
:105340001506F091160613861586148612861186A8
:105350001086178216821582148213821092140608
:1053600001E0BE01615D7F4F8091150690911606A8
:105370000E944113882309F45BC067E0CE018F9639
:105380000E94340A9EA98913ECCF809110068111E6
:1053900028C080911506909116060E94E60ABE016B
:1053A000615D7F4F80911506909116060E94C70A95
:1053B00040E064EB80911506909116060E94930AD6
:1053C00080911506909116060E94400A182F809130
:1053D0001506909116060E94E60A111102C000936C
:1053E0001006BE016F5F7F4FCE018F960E941E0B8D
:1053F000109111068FA5803109F4EDC4CE018F966E
:105400000E94730B811750F480911106809311064E
:10541000809114068F5F80931406A3CF8FA58031EF
:1054200011F48CE0F3CFCE018F960E94730BEECF78
:1054300081E0809363046CED75E080E090E00E9471
:10544000E40580911506909116060E94E60A40E058
:105450006CEC80911506909116060E94930A40917B
:10546000100664E480911506909116060E94930A36
:10547000809112068823A1F0E0911106E9506EEEAA
:1054800072E0E33038F4F0E0EE0FFF1FEA55FE4F14
:1054900060817181072E000C880B990B0E94E40536
:1054A000F12C4EE0E42E80911406F81608F061C04D
:1054B00083E0E8E2F1E0DE01119601900D928A9519
:1054C000E1F76296AEADBFAD6297EE2D1D92EA9503
:1054D000E9F76F2DCE01805C9F4F0E94BF138111B1
:1054E00009C460E070E08EEF92EC8E01015D1F4F09
:1054F00021E043E00E94EF2E6F2DCE01885B9F4F8D
:105500000E94BF13075E1F4FD12CD8018D918D01D2
:105510004AE0BE01605C7F4F90E00E94362F43E07E
:1055200050E0BE01605C7F4FCE0101960E9477364D
:10553000B2E0DB1631F065EA72E0CE0101960E941E
:105540005136D394E3E0DE12E0CF20E040E0BE012C
:10555000615D7F4FCE0101960E947A15F5E6FF123C
:105560001BC420E040E067EA72E08EE692E00E9411
:105570007A158091140681110AC01092630420E00C
:1055800040E063EB72E08EE692E00E947A15809133
:10559000B60481FF08C020E041E063EC72E08DECCE
:1055A00092E00E947A158091B60482FF48C30E945F
:1055B000BF128E010F5F1F4F21E043E00E94EF2ECC
:1055C00020E040E0B80182ED92E00E947A150E944E
:1055D000BF1287EF0E943912AB966CAF7DAF8EAFD2
:1055E0009FAFAB978091E7059091E805A091E90501
:1055F000B091EA056C017D01FF0CCC08DC2C760132
:105600009C01AD016C2D7C2D8C2D9C2D345F414077
:105610005109610971098109910963962FAF639757
:1056200064963FAF649765964FAF659766965FAF98
:10563000669767966FAF679768967FAF689769962A
:105640008FAF69976A969FAF6A9759016A017B018C
:105650008C010E94C0346B962FAF6B976C963FAF56
:105660006C976D964FAF6D97A3965FAFA397A49677
:105670006FAFA497A5967FAFA597A6968FAFA69775
:10568000A7969FAFA7973091F8052091F705932F24
:10569000990F990B492F592F692F792F892F0E9424
:1056A000C0340CE00E94B83519012A013B014C01BD
:1056B0003091FA052091F905932F990F990B6B966C
:1056C000AFAC6B976C96BFAC6C976D96CFAC6D978B
:1056D000A396DFACA397A496EFACA497A596FFACD6
:1056E000A597A6960FADA697A7961FADA797492F8A
:1056F000592F692F792F892F0E94C03408E00E940A
:10570000D13551016201730184010E94EE35705858
:105710008F4F9F4F2090F5053090F6055101C12C19
:10572000D12CE12CF12C00E010E00E94C03401E209
:105730000E94D1356E962FAF6E976F963FAF6F97E1
:10574000A0964FAFA097A1965FAFA197A2966FAF1B
:10575000A297272E382E492EA0E00E94003609F489
:105760001DC3309100062091FF05932F990F990BCF
:105770006B96AFAC6B976C96BFAC6C976D96CFACDD
:105780006D97A396DFACA397A496EFACA497A596CC
:10579000FFACA597A6960FADA697A7961FADA797A6
:1057A000492F592F692F792F892F0E94C0346B966A
:1057B0002FAF6B976C963FAF6C976D964FAF6D9711
:1057C000552E3B014C013091FE052091FD05932F94
:1057D000990F990B6396AFAC63976496BFAC6497CF
:1057E0006596CFAC65976696DFAC66976796EFAC2B
:1057F00067976896FFAC689769960FAD69976A9648
:105800001FAD6A97492F592F692F792F892F0E9431
:10581000C03401E10E94B8356B96AFAC6B976C96C3
:10582000BFAC6C976D96CFAC6D97D52C730184018E
:105830000E94EE3559016A017B01582E192FAB9653
:105840008CAD9DADAEADBFADAB97F4E0B595A79572
:1058500097958795FA95D1F720E030E040E150E048
:10586000281B390B4A0B5B0B39014A01990C66085E
:10587000762C4301662D762D862D962D0FE10E9404
:10588000B83539014A01B62FA72FF82FE92F3091EB
:10589000FC052091FB05932F990F990B492F592F48
:1058A000692F792F892F03E20E94B835052D0E94B8
:1058B000EE3559016A017B018C019301A4016B2F24
:1058C0007A2F8F2F9E2F0E94F735E5E3AE2EFCE056
:1058D000BF2EC12CD12CE12CF12C00E010E00E9455
:1058E000C0346E96AFAC6E976F96BFAC6F97A096B4
:1058F000CFACA097A196DFACA197A296EFACA297F0
:10590000F22C032D142D0E941A3563962FAF639746
:1059100064963FAF649765964FAF659766965FAFA5
:10592000669767966FAF679768967FAF6897699637
:105930008FAF69976A969FAF6A970DE00E94D13545
:10594000922E832E742E652E562E472E382E292EFB
:105950003091060620910506932F990F990BA92CDB
:10596000B82CC72CD62CE52CF42C032D122D492F46
:10597000592F692F792F892F0E94C0340E94C0347B
:1059800009E10E94D1356396AFAC63976496BFACD2
:1059900064976596CFAC65976696DFAC6697679619
:1059A000EFAC67976896FFAC689769960FAD6997FB
:1059B0006A961FAD6A970E94EE3519012A013B01D4
:1059C0004C013091040620910306932F990F990BF7
:1059D000492F592F692F792F892F0E94C03403E155
:1059E0000E94D13559016A017B018C019101A2010C
:1059F000B301C4010E94EE3508E00E94D13559017F
:105A00006A017B01E82F192F3091020620910106CF
:105A1000932F990F990B492F592F692F792F892F80
:105A200004E00E94B8350E2F0E94EE350E94E83245
:105A300020E030E040E85BE30E94EE3320E030E01D
:105A400048EC52E40E9447326B017C0120E030E0D8
:105A5000A9010E944232811102C00E9468118E0188
:105A60000F5F1F4F21E043E0C701B6010E94EF2EF8
:105A700020E040E0B80185ED92E00E947A150E9496
:105A8000BF128DEF0E9413114090E7055090E8057A
:105A90006090E9057090EA053CE2531A31E0630A30
:105AA0007108B0E0A0E06C017D013EE0CC0CDD1C93
:105AB000EE1CFF1C3A95D1F740910B0650910C0655
:105AC000052E000C660B770BE4E1440F551F661F93
:105AD000771FEA95D1F7C41AD50AE60AF70AA0910A
