:100000000C94E0020C945E1A0C94371A0C94080BB2
:100010000C94CB0A0C948E0A0C94BB050C94080328
:100020000C9408030C9408030C9408030C94080324
:100030000C9408030C9408030C9408030C94080314
:100040000C94ED190C9408030C9476180C94501829
:100050000C9408030C9408030C9408030C940803F4
:100060000C943A1C0C94080300407A10F35A00A038
:10007000724E18090010A5D4E80000E87648170071
:1000800000E40B54020000CA9A3B000000E1F505B1
:10009000000080969800000040420F000000A086FB
:1000A00001000000102700000000E803000000002D
:1000B0006400000000000A000000000001000000D1
:1000C00000002C76D888DC674F0823DFC1DFAE59EB
:1000D000E1B1B796E5E3E453C63AE651997696E87E
:1000E000E6C28426EB898C9B62ED407C6FFCEFBC02
:1000F0009C9F40F2BAA56FA5F490055A2AF75C932D
:100100006B6CF9676DC11BFCE0E40D47FEF520E662
:10011000B500D0ED902E0300943577050080841E45
:10012000080000204E0A000000C80C333333330FA0
:10013000986E12831141EF8D2114893BE65516CF3D
:10014000FEE6DB18D1844B381BF77C1D901DA4BB49
:10015000E424203284725E228100C9F124ECA1E5FE
:100160003D27207F000000000000000000065F5FC8
:10017000060000000007070007070000147F7F1437
:100180007F7F1400242E6B6B3A12000046663018F5
:100190000C666200307A4F5D377A4800040703002E
:1001A00000000000001C3E63410000000041633E6F
:1001B0001C000000082A3E1C1C3E2A0808083E3E7F
:1001C000080800000080E06000000000080808083F
:1001D0000808000000006060000000006030180C9B
:1001E000060301003E7F71594D7F3E0040427F7FF4
:1001F00040400000627359494F660000226349493C
:100200007F360000181C16537F7F50002767454536
:100210007D3900003C7E4B49793000000303717941
:100220000F070000367F49497F360000064F4969B5
:100230003F1E0000000066660000000000407636A9
:1002400000000000081C3663410000002424242420
:1002500024240000004163361C08000002035159A9
:100260000F0600003E7F415D5D1F1E007C7E131364
:100270007E7C0000417F7F49497F36001C3E634100
:1002800041632200417F7F41633E1C00417F7F49E3
:100290005D416300417F7F491D0103001C3E6341B6
:1002A000517372007F7F08087F7F000000417F7FCD
:1002B00041000000307040417F3F0100417F7F08D6
:1002C0001C776300417F7F41406070007F7F0E1C80
:1002D0000E7F7F007F7F060C187F7F001C3E6341EE
:1002E000633E1C00417F7F49090F06001E3F2171BC
:1002F0007F5E0000417F7F09197F660022674D59AC
:100300007322000003417F7F410300007F7F404054
:100310007F7F00001F3F60603F1F00007F7F30181D
:10032000307F7F0043673C183C674300074F787875
:100330004F070000476371594D677300007F7F418D
:10034000410000000103060C183060000041417FAD
:100350007F000000080C0603060C080080808080E7
:100360008080808000000307040000002074545443
:100370003C784000417F3F4848783000387C444416
:100380006C280000307848493F7F4000387C545446
:100390005C180000487E7F490302000098BCA4A4BA
:1003A000F87C0400417F7F08047C780000447D7D58
:1003B0004000000060E08080FD7D0000417F7F10F4
:1003C000386C440000417F7F400000007C7C18387E
:1003D0001C7C78007C7C04047C780000387C4444DD
:1003E0007C38000084FCF8A4243C1800183C24A4A9
:1003F000F8FC8400447C784C041C1800485C54547D
:100400007424000000043E7F442400003C7C4040F3
:100410003C7C40001C3C60603C1C00003C7C703814
:10042000707C3C00446C3810386C44009CBCA0A02C
:10043000FC7C00004C64745C4C64000008083E774F
:100440004141000000000077770000004141773E05
:1004500008080000020301030203010070784C4603
:100460004C787000005EBCE2613FDD83C29C7E2060
:10047000A3FD1F419DC3217FFCA2401E5F01E3BD80
:100480003E6082DC237D9FC1421CFEA0E1BF5D0374
:1004900080DE3C62BEE0025CDF81633D7C22C09E68
:1004A0001D43A1FF4618FAA427799BC584DA386654
:1004B000E5BB5907DB856739BAE406581947A5FB40
:1004C0007826C49A653BD987045AB8E6A7F91B4534
:1004D000C6987A24F8A6441A99C7257B3A6486D828
:1004E0005B05E7B98CD2306EEDB3510F4E10F2AC14
:1004F0002F7193CD114FADF3702ECC92D38D6F3100
:10050000B2EC0E50AFF1134DCE90722C6D33D18FF3
:100510000C52B0EE326C8ED0530DEFB1F0AE4C12E7
:1005200091CF2D73CA947628ABF517490856B4EAD3
:100530006937D58B5709EBB536688AD495CB2977BF
:10054000F4AA4816E9B7550B88D6346A2B7597C9B3
:100550004A14F6A8742AC896154BA9F7B6E80A54A7
:10056000D7896B3500000000230026002900040411
:10057000040404040404020202020202030303034B
:100580000303010204081020408001020408102027
:1005900001020408102000000000240027002A00A7
:1005A00000000000250028002B00000000080002C9
:1005B0000100000304070000000000000000412DBE
:1005C00011241FBECFEFD8E0DEBFCDBF12E0A0E008
:1005D000B1E0EEE2FCE602C005900D92A63EB10746
:1005E000D9F725E0A6EEB2E001C01D92A63FB20702
:1005F000E1F712E0C0EED2E004C02197FE010E94B4
:10060000B835CF3DD107C9F70E94D4200C941536D8
:100610000C9400000895282F883038F08E3040F078
:10062000863148F4ECE6F0E008C0EDE6F0E005C005
:10063000EBE6F0E002C0E0E0F0E03081283060F46A
:1006400081E090E0A0E0B0E004C0880F991FAA1FED
:10065000BB1F2A95D2F715C0822F90E0AC012E3037
:1006600018F44850510902C04E50510981E090E001
:10067000A0E0B0E004C0880F991FAA1FBB1F4A95D5
:10068000D2F78095832380830895CF92DF92EF92F3
:10069000FF920F931F93CF93DF936C01EB017B01CC
:1006A000E40EF51E00E010E0CE15DF0561F0699163
:1006B000D601ED91FC910190F081E02DC6010995E4
:1006C000080F191FF1CFC801DF91CF911F910F9132
:1006D000FF90EF90DF90CF900895089580E090E034
:1006E0000895CF93DF93EC01603208F06FE16F83E0
:1006F0008885882311F066956F8361E1CE010E94A1
:100700008B1E807E9F81482F492B61E1CE01DF91B6
:10071000CF910C94491E1F93CF93DF9320914605F0
:10072000621709F45DC0162FEC016230E9F168F43C
:10073000662309F440C0613009F052C061E00E94B4
:100740008B1E837E482F44603BC06330B9F0643019
:1007500009F046C061E00E948B1E837E482F4C60EA
:1007600061E0CE010E94491E8885882369F1E881F5
:10077000F9810688F789E02D61E013C061E00E94ED
:100780008B1E837E482F406161E0CE010E94491E8E
:1007900088858823C9F0E881F9810688F789E02DEA
:1007A00060E0CE01099510C061E00E948B1E837E3F
:1007B000482F486005C061E00E948B1E482F437E91
:1007C00061E0CE010E94491E80914605811106C05C
:1007D00067E2CE010E948B1E87FFF6CF109346057D
:1007E000DF91CF911F9108953F924F925F926F9248
:1007F0007F928F929F92AF92BF92CF92DF92EF92B1
:10080000FF920F931F93CF93DF93EC01162F5A01A2
:10081000922E302E812CCE2CD12CE12CF12C61E0AB
:1008200070E080E090E00E943D19E881F98101903C
:10083000F081E02D01E0292DA501612FCE01099560
:100840000E94E1192B013C010E94E119DC01CB015E
:1008500084199509A609B7098C159D05AE05BF0534
:10086000A0F4E881F9810480F581E02DCE0109959D
:10087000882351F39091AB05911711F01F3F21F799
:100880009091A805911105C0DFCF8394381438F6F4
:1008900080E0DF91CF911F910F91FF90EF90DF905B
:1008A000CF90BF90AF909F908F907F906F905F9010
:1008B0004F903F900895CF93DF93209146052330CA
:1008C000C9F42091AD05211115C0EC0164E20E942C
:1008D0008B1E90E09195819591098C349F4F54F433
:1008E000E881F9810488F589E02D61E0CE01099560
:1008F00081E001C080E0DF91CF9108954F925F9237
:100900006F927F92AF92BF92CF92DF92EF92FF925F
:100910000F931F93CF93DF93EC015B01F42E1092A2
:10092000A9051091AB05C090A605D090A7056DE371
:100930000E948B1E482F44606DE3CE010E94491E29
:100940000E94E1192B013C01CE010E945B04882327
:1009500011F11093AB05E881F9810088F189E02D50
:10096000EE24E39400E02F2DA501612FCE0109951F
:10097000D092A705C092A605DF91CF911F910F914C
:10098000FF90EF90DF90CF90BF90AF907F906F90EF
:100990005F904F9008950E94E119DC01CB0184190A
:1009A0009509A609B709883E9340A105B10588F6C7
:1009B000E881F9810480F581E02DCE010995C4CF4D
:1009C0008F929F92AF92BF92CF92DF92EF92FF925F
:1009D0000F931F93CF93DF93EC01162F6A01F22E32
:1009E0006DE30E948B1E482F44606DE3CE010E9490
:1009F000491E0E94E1194B015C01CE010E945B047B
:100A00008823C1F0E881F9810088F189E02DE12C8B
:100A10002F2DA601612FCE010995DF91CF911F9156
:100A20000F91FF90EF90DF90CF90BF90AF909F908D
:100A30008F9008950E94E119DC01CB018819990972
:100A4000AA09BB09883E9340A105B105D8F6E88103
:100A5000F9810480F581E02DCE010995CECF8EBDC0
:100A600000000DB407FEFDCF8EB50895CF92DF9242
:100A7000EF92FF920F931F93CF93DF93EC01F62E2B
:100A8000D42EC52E122FE881F9810488F589E02D36
:100A900061E0099567E2CE010E948B1E87FFFACFC5
:100AA00040E065E2CE010E94491E1E3308F01DE3BE
:100AB000E11004C0002321F000E403C000E801C0FD
:100AC00000E0E881F981008CF18DE02DCE010995DF
:100AD00080E80E942F0583E0810F0E942F058F2D53
:100AE0000E942F058D810E942F05802F0E942F05C7
:100AF0000D2DED2CFC2C8E2D801B811730F4F70171
:100B000081917F010E942F05F6CFE881F981028C47
:100B1000F38DE02DCE010995E881F9810488F589EE
:100B2000E02D64E0CE0109950E94E1196B017C0182
:100B30008B810E94A818892B81F0E881F9810488B3
:100B4000F589E02D61E0CE01DF91CF911F910F91EA
:100B5000FF90EF90DF90CF9009940E94E119DC01A3
:100B6000CB018C199D09AE09BF09883E9340A105B0
:100B7000B105F0F2E2CF1F920F920FB60F9211243F
:100B80008F9383B78E7F83BF8F910F900FBE0F908F
:100B90001F901895CF93DF93C0E1D7E261E085E025
:100BA0000E94D11860E085E00E94D1182197B1F72A
:100BB000DF91CF9108953F924F925F926F927F9213
:100BC0008F929F92AF92BF92CF92DF92EF92FF925D
:100BD0000F931F93CF93DF93CDB7DEB76F970FB609
:100BE000F894DEBF0FBECDBF2C013B01342E6DE368
:100BF00070E02F8F0E947F2EF82EF30101900020CD
:100C0000E9F731976F01C618D7082F8D211110927F
:100C10005103311002C014E001C016E00E94E11936
:100C200080904D0390904E03A0904F03B0905003DE
:100C3000DC01CB0188199909AA09BB0980319742C7
:100C4000A105B10568F00E94E11960934D0370930E
:100C50004E0380934F039093500381E080930601ED
:100C6000460199248F0C911CA12EB12CC4018A0D30
:100C70009B1DCD970CF02CC1FC2C8091060120917E
:100C80005103882309F451C0822F90E0A401480F3A
:100C9000591F4A0D5B1D4D3351052CF4C11049C03D
:100CA000222309F446C0FC01E15FFC4F3DE730839D
:100CB0002F5F93E2E92E05E04FE053E060919B0344
:100CC00087E495E00E94F40381112CC060919903A0
:100CD00070E080E090E00E943C3226E636E646EA8C
:100CE0005FE30E943A330E9405320E943D19209131
:100CF00051032F5F4FE053E060919B0387E495E041
:100D00000E94F403182F81110DC00E94E119609315
:100D10004D0370934E0380934F03909350031092B2
:100D20000601EFC01092510304C0C11002C021118E
:100D3000E5C080915103E82FF0E08E0E9F1EA80CB5
:100D4000B91C9CE3A916B1040CF0D8C0FF2009F42B
:100D5000D7C0E15FFC4F882331F08F5F8093510350
:100D60008CE280835BC081E0809351038BE78083BA
:100D700086E0EAEDF1E0DE01599601900D928A9548
:100D8000E1F72091510380E0E82FE20FA9E1B0E004
:100D9000AC0FBD1FA80FB11D9C91992331F0F0E05D
:100DA000E15FFC4F90838F5FEFCFE0935103809121
:100DB0000B0390910C03A0910D03B0910E030196CB
:100DC000A11DB11D80930B0390930C03A0930D0301
:100DD000B0930E034AE0BE016F5F7F4F0E948A2EE0
:100DE0005091510330E0232F250FE1E0F0E0EC0FAC
:100DF000FD1FE30FF11D4081822F90E0442331F06D
:100E0000FC01E15FFC4F40833F5FEDCF2F5F2093FC
:100E10005103FC01E15FFC4F2CE22083E091510380
:100E200051E05E0F50935103F0E0E15FFC4F82E22E
:100E3000808390E0892F850FF201E90FF11D408139
:100E4000282F30E0F901E15FFC4F442319F0408383
:100E50009F5FF0CF92E29083E2E0E80FE0935103CE
:100E6000A1E0A80FB0E0A15FBC4F2AE32C93332090
:100E700039F08D5F80935103F0E0E15FFC4F908388
:100E800050915103262DD301452F4619842F8A0FE7
:100E900090E03D91815F9C4FFC0130838A2F821B43
:100EA0008F15A0F3C50EC0925103332051F081E09D
:100EB0008C0D80935103EC2DF0E0E15FFC4F82E25A
:100EC0008083E0915103F0E0E15FFC4F108218C095
:100ED00088E1E0EEF1E0DE01119601900D928A9535
:100EE000E1F783E2E82E05E028E1AE014F5F5F4FB6
:100EF00060919B0387E495E00E94F40310E001C039
:100F000011E0812F6F960FB6F894DEBF0FBECDBFF4
:100F1000DF91CF911F910F91FF90EF90DF90CF90D5
:100F2000BF90AF909F908F907F906F905F904F9009
:100F30003F900895CF92DF92EF92FF921F93CF934D
:100F4000DF93CDB7DEB72A970FB6F894DEBF0FBE9A
:100F5000CDBF182F8EE480937C0062E070E080E0CB
:100F600090E00E943D1990917A00906490937A00ED
:100F700080917A0086FDFCCF2091780080917900E5
:100F800030E0382B40E050E06CE374EF80E190E01B
:100F90000E94CB3369017A01112381F04AE0BE013E
:100FA0006F5F7F4FC6010E948A2E20E040E0BE01A5
:100FB0006F5F7F4F88EF91E00E94DB05C6012A96A4
:100FC0000FB6F894DEBF0FBECDBFDF91CF911F915A
:100FD000FF90EF90DF90CF9008950F931F93CF93E2
:100FE000DF9300D000D01F92CDB7DEB78C01862FE3
:100FF0004AE0BE016F5F7F4F90E00E948A2E20E0A2
:1010000040E0BE016F5F7F4FC8010E94DB0520E01A
:1010100040E06CE272E0CB010E94DB050F900F9084
:101020000F900F900F90DF91CF911F910F91089526
:1010300084B7877F84BFE0E6F0E0808188618083A9
:1010400010820895FF920F931F93CF93DF93D82FB1
:1010500010925503109256038091920383FF04C0AF
:1010600060E086E00E94D1188091920382FD04C066
:1010700060E086E00E94D11860E087E495E00E947D
:101080008B0380918D0382FF08C084EF0E940E12B3
:10109000682F6C7F84EF0E947E118091920385FF00
:1010A00007C021E040E06CE272E0CB010E94DB056A
:1010B00090918E03987149F08091920384FD05C050
:1010C00061E083E195E00E94851A10917C00109206
:1010D0007C0000917A0010927A00F09064001092E7
:1010E000640090919403C09193039F3F11F4CF3F0C
:1010F00059F081E628E130E00FB6F894A8952093E6
:1011000060000FBE80936000DD2329F09C9FE0010A
:10111000112421972CC0C0E0D0E029C08091920317
:101120008670863049F461E00E94D1180E94CA0599
:1011300060E086E00E94D11883B7817F846083BF1E
:1011400083B7816083BF789483B7816083BF8895BC
:1011500083B78E7F83BF80915503811112C0809128
:101160005603882319F010925603219721968091F7
:10117000940390919303899FC0011124C817D90744
:1011800068F20E941808F092640010937C000093AB
:101190007A0081E08093060180918D0382FF08C070
:1011A00084EF0E940E12682F636084EF0E947E110C
:1011B0008091920380FF04C061E086E00E94D11814
:1011C00080918E03887129F060E083E195E00E94B0
:1011D000851A8091920383FF09C061E086E0DF9168
:1011E000CF911F910F91FF900C94D118DF91CF9167
:1011F0001F910F91FF900895883038F08E3040F0A5
:10120000863148F4ECE6F0E008C0EDE6F0E005C019
:10121000EBE6F0E002C0E0E0F0E09081883068F4B6
:1012200041E050E060E070E0082E04C0440F551F1C
:10123000661F771F0A94D2F714C0282F30E08E3033
:1012400018F42850310902C02E50310941E050E015
:1012500060E070E004C0440F551F661F771F2A9599
:10126000D2F7492B40832BB3883050F031E08E30D9
:1012700008F430E091E001C0990F3A95EAF701C017
:1012800094E0922B9BBB90916800883050F021E055
:101290008E3008F420E081E001C0880F2A95EAF73B
:1012A00001C084E0892B8093680008952F923F92BB
:1012B0004F925F926F927F928F929F92AF92BF9266
:1012C000CF92DF92EF92FF920F931F93CF93DF9312
:1012D000CDB7DEB72E970FB6F894DEBF0FBECDBFE9
:1012E00090910001892B8093000106E111E08EE7C7
:1012F000A82E83E0B82E9AE5892E93E0992EC12C72
:10130000D12CEE24E394F12C30E7232E3FE5332E4D
:10131000412C512CF8018081DD86CE860E94A818D0
:10132000F1E0FC872D853E85019709F01C86F501CB
:101330009081892F8C708C3029F497FD03C0F1E0E7
:10134000F09355034C85642E712C80915403482FE3
:1013500050E0032E02C0559547950A94E2F741707C
:1013600055276416750629F440910001442309F4B9
:10137000A9C096FF47C029823A824B825C821D82B7
:101380004AE0BE01675F7F4F832F922F3E870E9406
:101390008A2E42E050E0BE01675F7F4FCE0101968A
:1013A0000E94F6354AE0BE016A5F7F4FC3010E948A
:1013B0008A2E20E041E0BE016A5F7F4FCE01019698
:1013C0000E94DB053E858823C9F0209154038C855B
:1013D000882351F0A701032E01C0440F0A94EAF7B5
:1013E000422B409354030AC0C701032E01C0880F4B
:1013F0000A94EAF7809582238093540391E09093B6
:1014000055030FC0EC85A701032E01C0440F0A94B9
:10141000EAF7EE2311F0842B02C0409584238093D9
:1014200054038091760381112BC0F5018081FC85E6
:10143000FF23D9F0F80183FF04C080810E94FC08DB
:1014400003C080810E940B03F501808187FF3AC0B1
:10145000F40180819181A281B3810196A11DB11D0A
:1014600080839183A283B3832DC0F80182FF04C0DF
:1014700080810E94FC0826C080810E940B0322C04C
:10148000F1E0F093550380910001811102C0F093C7
:101490007703409154038C85882359F0F70102C0EB
:1014A000EE0FFF1F3A95E2F79F01242B2093540380
:1014B00009C0C70101C0880F3A95EAF780958423D7
:1014C00080935403FFEFCF1ADF0A0F5F1F4F4FEFD8
:1014D000A41AB40A84E0880E911C97E0C916D104BE
:1014E00009F018CF1092000180E02E960FB6F89404
:1014F000DEBF0FBECDBFDF91CF911F910F91FF9047
:10150000EF90DF90CF90BF90AF909F908F907F90A3
:101510006F905F904F903F902F9008951F920F9281
:101520000FB60F9211242F933F934F935F936F93B6
:101530007F938F939F93AF93BF93CF93EF93FF933B
:10154000F89462E070E080E090E00E943D197894A9
:1015500083B78E7F83BFC09106011092060180E0A1
:101560000E94560981E080937D03C0930601809319
:101570005603FF91EF91CF91BF91AF919F918F91C2
:101580007F916F915F914F913F912F910F900FBE7F
:101590000F901F9018951F920F920FB60F92112463
:1015A0002F933F934F935F936F937F938F939F936B
:1015B000AF93BF93CF93EF93FF93F89462E070E003
:1015C00080E090E00E943D19789483B78E7F83BFBE
:1015D000C09106011092060180E00E94560981E048
:1015E00080937D03C093060180935603FF91EF9192
:1015F000CF91BF91AF919F918F917F916F915F91AB
:101600004F913F912F910F900FBE0F901F90189503
:101610001F920F920FB60F9211242F933F934F9367
:101620005F936F937F938F939F93AF93BF93CF936A
:10163000EF93FF93F89462E070E080E090E00E9406
:101640003D19789483B78E7F83BFC09106011092B5
:10165000060180E00E94560981E080937D03C093DB
:10166000060180935603FF91EF91CF91BF91AF9107
:101670009F918F917F916F915F914F913F912F91AA
:101680000F900FBE0F901F901895CF93DF93662396
:1016900009F48FC0D091530380915203D81709F4F5
:1016A000AAC080E00E940B0381E00E940B0360E06F
:1016B00080E00E94D11860E081E00E94D118809102
:1016C0008E0380FF04C060E081E00E94011965E0A4
:1016D00070E080E090E00E943D1980E00E94A81830
:1016E000892B09F49CC081E00E94A818892B09F479
:1016F00096C0CCE361E080E00E94011965E070E0F3
:1017000080E090E00E943D1961E081E00E940119B3
:1017100064E170E080E090E00E943D1960E080E0CC
:101720000E94011965E070E080E090E00E943D19A0
:1017300060E081E00E94011964E170E080E090E0E7
:101740000E943D19C150B1F66AE070E080E090E07F
:101750000E943D19CD1751F161E081E00E9401190D
:1017600065E070E080E090E00E943D1961E080E07B
:101770000E94011964E170E080E090E00E943D1950
:1017800060E081E00E94011965E070E080E090E097
:101790000E943D1960E080E00E94011964E170E060
:1017A00080E090E00E943D19CF5FD4CFC0935203F8
:1017B00021C0853028F0880F89508093530302C0E0
:1017C0001092530380918E0380FF04C060E081E09B
:1017D0000E94011965E070E080E090E00E943D19F0
:1017E00080E00E94A818892BE1F081E00E94A818EF
:1017F000892BB9F0C1E080918E0380FF04C061E0C5
:1018000081E00E94011980917603882331F080E005
:101810000E94FC0881E00E94FC088C2F04C080E03C
:1018200002C0C0E0E8CFDF91CF9108952F923F92A0
:101830004F925F926F927F928F929F92AF92BF92E0
:10184000CF92DF92EF92FF920F931F93CF93DF938C
:10185000CDB7DEB7CE5ED1090FB6F894DEBF0FBEAE
:10186000CDBF87E495E00E94DE1B282E882309F473
:10187000F2C38091920383FF04C061E085E00E947F
:10188000D118E090AB058091A6059091A705F09046
:10189000AC050F2D10E0A80169E675E0CE018F556B
:1018A0009F4F0E94D2358091A905882329F080910D
:1018B000AA058F3F09F0D4C387E495E00E94DE1BA0
:1018C00060919B03E612B3C3E1EAF0E0EC0FFD1F69
:1018D000E00FF11F1082312C8E010F551F4FF4E1E4
:1018E0008F2EA4E19A2E62E27FE2C8010E94DB35CE
:1018F000009709F08C016FE570E0C8010E94DB35AC
:101900005C01232D30E0009709F48BC07C01E01AC4
:10191000F10A81E0E81AF108B8016F5F7F4F829EFB
:101920006001839ED00C1124A70181E090E08C0F10
:101930009D1F8C0D9D1D0E940636EC0CFD1CE1E0E8
:10194000F0E0EC0FFD1FEE0DFF1D1082CC24C394C0
:10195000C30C85010F5F1F4F62E27FE2C8010E9446
:10196000DB355C01009711F43C2CBDCF7C01E01A03
:10197000F10A9C9C60011124A701B80181E090E06C
:101980008C0F9D1F8C0D9D1D0E940636EC0CFD1CBE
:10199000E1E0F0E0EC0FFD1FEE0DFF1D1082E2E034
:1019A000EE2EE30C85010F5F1F4F62E27FE2C8015C
:1019B0000E94DB35009711F43E2C95CF8C010F5F10
:1019C0001F4F62E27FE2C8010E94DB355C01009795
:1019D00099F36C01C01AD10A9E9C70011124A601D2
:1019E000B80181E090E08C0F9D1F8E0D9F1D0E941D
:1019F0000636EC0CFD1CE1E0F0E0EC0FFD1FEE0DF7
:101A0000FF1D108273E0E72EE30C85010F5F1F4F6F
:101A100062E27FE2C8010E94DB35009769F28C0127
:101A2000CBCF44E1429FC001439F900D112444E17C
:101A300050E0B801E1E0F0E0EC0FFD1F8E0F9F1FBA
:101A40000E940636C451DF4F1882CC5ED04010E0B1
:101A500004E167E7462E6FE5562E612C712C2EEDC2
:101A600030E02C0F3D1F2C5F3F4FC351DF4F3983B8
:101A70002883CD5ED040C12ED12C6DEF71E081E086
:101A800090E08C0F9D1F019F800D911D11240E94DD
:101A9000E635892B09F061C096012F5F3F4F029F09
:101AA000C001039F900D1124E1E0F0E0EC0FFD1F59
:101AB0008E0F9F1F0E94612E7C014F970CF04DC02E
:101AC00022E0C20ED11C0C9DC0010D9D900D112471
:101AD000E1E0F0E0EC0FFD1F8E0F9F1F0E94612ED2
:101AE0006701DD249601205030405901682FC9015B
:101AF0000E948031C5010E946E31F82EF601E25835
:101B0000FC4F8083C252DF4F488259826A827B82B7
:101B1000CE5DD040C351DF4FE881F981CD5ED0402A
:101B200026E011922A95E9F742E050E0B601CE0195
:101B300082529F4F0E94F6356F2DCE0182529F4FE9
:101B40000E94ED071E5F8CEE8E0D853030F031E087
:101B5000C451DF4F3883CC5ED040E12EF12C61E3DD
:101B600072E081E090E08C0F9D1F019F800D911D20
:101B700011240E94E635892BA1F5C252DF4F48821D
:101B800059826A827B82CE5DD040C351DF4FE881AB
:101B9000F981CD5ED04026E011922A95E9F7C70180
:101BA0000196089F7001099FF00C112481E090E0DC
:101BB0008C0F9D1FE80EF91E42E050E0B701CE01E8
:101BC00082529F4F0E94F635C7010E94612E8258B3
:101BD0009C4FFC016081CE0182529F4F0E94ED0715
:101BE0001E5F812E912CCC24C394D12CCC0EDD1EF3
:101BF000019FC00CD11C11246FEF71E0C6010E943F
:101C0000E635892B49F06AE872E0C6010E94E635A4
:101C1000892B09F447C08BC04EE7A42E43E0B42EB5
:101C2000E12CF12CF5018081882389F1C252DF4F2C
:101C3000488259826A827B82CE5DD040CE51DF4F8E
:101C40001882C25ED0404AE0BE0168517F4FC70192
:101C50000E948A2E44E050E0BE0168517F4FCE01C1
:101C600082529F4F0E94F635F50180814AE0BE0105
:101C700068517F4F90E00E948A2E20E041E0BE0133
:101C800068517F4FCE0182529F4F0E94DB05FFEFCC
:101C9000EF1AFF0A2FEFA21AB20A3FE1E316F1048E
:101CA00009F6B1CFC4010196089F7001099FF00C9D
:101CB000112481E090E08C0F9D1FE80EF91EC701F2
:101CC0000E94612E82589C4FFC01808185FD1092FC
:101CD0007803F2E08F0E911C089D6001099DD00CE5
:101CE000112421E030E02C0F3D1FC20ED31E64E012
:101CF00072E0C6010E94E635892B39F4C7010E94C3
:101D0000612E8A5E9E4F61E00DC065E372E0C60100
:101D10000E94E635892B51F4C7010E94612E8A5E2C
:101D20009E4F60E0FC0180810E94D1181E5FE12E71
:101D3000F12CAA24A394B12CAC0EBD1E019FA00CC3
:101D4000B11C112466E072E0C5010E94E635892BC2
:101D500009F060C0C7010296089F6001099FD00C7E
:101D6000112421E030E02C0F3D1FC20ED31E6AE08B
:101D700072E0C6010E94E635F70131964F01892BCA
:101D8000E9F40E9F60010F9FD00C112421E030E098
:101D90002C0F3D1FC20ED31EC6010E94612E875F0D
:101DA0009E4F61E0FC0180810E94D11864E670E0E2
:101DB00080E090E00E943D19C60123C064E072E01B
:101DC000C6010E94E635892B89F4089DC001099D52
:101DD000900D112421E030E02C0F3D1F820F931F46
:101DE0000E94612E875F9E4F61E010C0089DC00178
:101DF000099D900D112421E030E02C0F3D1F820F32
:101E0000931F0E94612E875F9E4F60E0FC018081DE
:101E10000E94D11860E172E0C5010E94E635892B6D
:101E2000D1F497012E5F3F4F029FC001039F900D99
:101E3000112441E150E061E270E021E030E02C0F3C
:101E40003D1F820F931F0E94763131E0C451DF4F56
:101E50003883CC5ED0406FE772E0C5010E94E63562
:101E6000892B09F05EC080918E0383FF2CC0C701CF
:101E70000196089F6001099FD00C112481E090E039
:101E80008C0F9D1FC80ED91EC6010E94612E62E0F4
:101E9000680F40E252E084E00E948C13C6010E9469
:101EA000612E92E0E90EF11C0E9DA0010F9D500DD8
:101EB0001124E1E0F0E0EC0FFD1F4E0F5F1F62E028
:101EC000680F84E02BC084FF2BC0C7010196089FD8
:101ED0006001099FD00C112421E030E02C0F3D1F40
:101EE000C20ED31EC6010E94612E44E152E0682F4B
:101EF00080E00E948C13C6010E94612E32E0E30E46
:101F0000F11C0E9DA0010F9D500D1124E1E0F0E0A9
:101F1000EC0FFD1F4E0F5F1F682F80E00E948C1397
:101F20001E5FE12EF12CCC24C394D12CCC0EDD1EEF
:101F3000019FC00CD11C112467E872E0C6010E9409
:101F4000E635892B19F5F1E0F093760322E0E20EF5
:101F5000F11C0E9DC0010F9D900D1124E1E0F0E0F9
:101F6000EC0FFD1F8E0F9F1F0E94612E60E00E94EC
:101F7000450B20E041E0811103C06DE272E002C038
:101F800067E372E083E392E00E94DB056AE372E0BC
:101F9000C6010E94E635892B69F40E94E11960931D
:101FA000790370937A0380937B0390937C03109260
:101FB00078031E5F1F5F311608F05DCDC451DF4FFF
:101FC0003881CC5ED040332309F43CC082E1C25258
:101FD000DF4F8883CE5DD04080910601882369F071
:101FE00093E2E92E05E021E0AE0142525F4F60919D
:101FF0009B0387E495E00E94F40320E041E06DE359
:1020000072E08AE492E00E94DB0520E040E06CE2AE
:1020100072E0CB010E94DB0598E088E10FB6F894EE
:10202000A895809360000FBE90936000FFCF83E27D
:10203000E82E05E02F2DAE014F555F4F87E495E068
:102040000E94F4038091920383FF12C060E085E058
:102050000E94D1180DC087E495E00E94DE1B08C0E5
:1020600040E06CE272E087E495E00E947E0424CCBC
:10207000822DC251DF4F0FB6F894DEBF0FBECDBF29
:10208000DF91CF911F910F91FF90EF90DF90CF9054
:10209000BF90AF909F908F907F906F905F904F9088
:1020A0003F902F900895AF92BF92CF92DF92EF9220
:1020B000FF920F931F93CF93DF93CDB7DEB72D978A
:1020C0000FB6F894DEBF0FBECDBFE82EA62E10923D
:1020D00028058A01F12CCE0101966C01BB24B39432
:1020E000F80161918F01E0911505F091160583E1EA
:1020F00095E009958F3FFFEF9F07F1F08E3F2FEF9F
:10210000920771F3A601682F83E195E00E948F1A70
:10211000EC86AD86BB86DA86C986E0911705F0911C
:1021200018059E01275F3F4F41E06FE083E195E096
:102130000995E394F394D4CF8F2D2D960FB6F89490
:10214000DEBF0FBECDBFDF91CF911F910F91FF90EA
:10215000EF90DF90CF90BF90AF9008951F93CF93F3
:10216000DF9300D000D01F92CDB7DEB71C8221E0F4
:102170002B839A838983E0911305F09114051189CB
:102180001D82A0911305B0911405E0911705F091FF
:1021900018059E012F5F3F4F50964C916FE083E1F1
:1021A00095E009958D818F5F8D83811750F30F9096
:1021B0000F900F900F900F90DF91CF911F91089586
:1021C000EF92FF920F931F93CF93DF939091DA04D6
:1021D0009F3F41F4DF91CF911F910F91FF90EF90BE
:1021E0000C942F05D82F07E010E0C0E0EE24E39414
:1021F000F12CCC0F60E08091DA040E94D118B70175
:10220000002E01C0660F0A94EAF76D238091D8046E
:102210000E94D11861E08091DA040E94D118809167
:10222000D9040E94A818892B09F0C1600150110936
:1022300000F78C2FDF91CF911F910F91FF90EF90BE
:1022400008952091240490912304213208F04AC07B
:10225000809100048111FCCF32E03093000431E022
:102260003093FF033FEF3093FE031092FD03209362
:10227000FC03A3E0B4E04CED53E0FA013E2F341B25
:10228000321718F43D913193F9CF1092DB0320916E
:10229000DB03990F922B9093DB039091DA0391303B
:1022A00061F41092DA039091DB039093BB0090915C
:1022B000BC0093FDF8CF95EC01C095EE9093BC0067
:1022C000909100049230E1F39091FE039F3F79F0EA
:1022D0008091FE03803241F08091FE03803331F023
:1022E00084E005C081E003C082E001C083E0109279
:1022F000020410922404109201040895CF93DF93F6
:10230000D82FC62F8091D7048F3FC9F48091CE0477
:1023100091E09093010480932304109202041092A0
:1023200024046D2F82EC94E00E94AE1B6C2F82EC93
:1023300094E00E94AE1BDF91CF910C94211180910B
:10234000DA048F3F21F482E591E00E94871D60E06E
:102350008091D7040E94D1188D2F8F770E94E010B2
:102360008C2F0E94E01061E08091D7040E94D11868
:102370008091DA048F3F21F4DF91CF910C94861D78
:10238000DF91CF910895909100049111FCCF6132BB
:1023900008F060E291E0909300049093FF032FEF28
:1023A0002093FE031092FD03260F2093FC039093CD
:1023B000DB039091DB03880F892B8093DB038091F3
:1023C000DA03813061F41092DA038091DB038093A9
:1023D000BB008091BC0083FDF8CF85EC01C085EE89
:1023E0008093BC00809100048130E1F38091FD0373
:1023F000861710F46091FD03ACEDB3E02AEB33E0F7
:10240000F9018E2F821B861718F48D918193F9CFD5
:102410001092B9036093B803862F0895CF93C82F05
:102420008091D7048F3FE9F48091CE0491E090939E
:1024300001048093230410920204109224046C2F50
:1024400082EC94E00E94AE1B0E94211161E0809119
:10245000CE040E94C31182EC94E00E94621BC82F3C
:1024600020C08091DA048F3F21F482E591E00E9440
:10247000871D60E08091D7040E94D1188C2F80685E
:102480000E94E01080E00E94E010C82F61E080917F
:10249000D7040E94D1188091DA048F3F11F40E9472
:1024A000861D8C2FCF910895CF93DF93C82F8091F5
:1024B000D7048F3F39F58091CE0491E090930104C9
:1024C0008093230410920204109224046C2F82EC57
:1024D00094E00E94AE1B0E94211162E08091CE0424
:1024E0000E94C31182EC94E00E94621BC82F82EC10
:1024F00094E00E94621B20E030E03C2FE901C82BF1
:10250000D92B29C08091DA048F3F21F482E591E034
:102510000E94871D60E08091D7040E94D1188C2F03
:1025200080680E94E01080E00E94E010C82F80E0E8
:102530000E94E0102C2F30E0322F2227E901C82B17
:1025400061E08091D7040E94D1188091DA048F3F16
:1025500011F40E94861DCE01DF91CF9108950E9453
:1025600054129827892798270895CF9386E7809358
:10257000CE048091D7048F3F59F41092B903109282
:10258000B80310920204109224040E94681D1CC01B
:1025900061E00E94D11861E08091D7040E94011986
:1025A0008091DA048F3F19F40E94131E0DC061E080
:1025B0000E94011961E08091D8040E94011960E035
:1025C0008091D9040E94011980ED0E940E12883575
:1025D00019F0803609F09DC088E80E94AF129093F0
:1025E000DC048093DB048AE80E94AF129093DE043F
:1025F0008093DD048CE80E94AF129093E0048093F6
:10260000DF048EE80E94AF129093E2048093E1040D
:1026100080E90E94AF129093E4048093E30482E97E
:102620000E94AF129093E6048093E50484E90E942F
:10263000AF129093E8048093E70486E90E94AF12FA
:102640009093EA048093E90488E90E94AF12909382
:10265000EC048093EB048AE90E94AF129093EE049D
:102660008093ED048CE90E94AF129093F004809364
:10267000EF048EE90E94AF129093F2048093F1046C
:1026800081EA0E940E128093F30481EE0E94AF1241
:102690009093F5048093F40483EE0E940E128093CD
:1026A000F60484EE0E940E12C82F85EE0E940E12D0
:1026B000282F2F7030E1C39FC0011124822B9093EB
:1026C000F8048093F70486EE0E940E12C82F85EE60
:1026D0000E940E1290E024E0959587952A95E1F7E7
:1026E00040E1C49F90011124822B932B9093FA0414
:1026F0008093F90487EE0E940E128093FB0465E03C
:1027000082EF0E947E1167EB84EF0E947E1181E0D0
:1027100001C080E0CF9108952FE737E1309316058F
:10272000209315050C945310EF92FF920F931F9373
:10273000CF93DF93EC0161E087E495E00E948B0387
:102740002097C1F087E495E00E94241C8EEB0E9444
:102750002F058E017E0180E1E80EF11CF8018191C8
:102760008F010E942F050E151F05C1F787E495E024
:102770000E94111C6DE387E495E00E948B1E8E7F02
:1027800041E0CD2B09F440E0482B6DE387E495E070
:10279000DF91CF911F910F91FF90EF900C94491E04
:1027A000EF92FF920F931F93CF93DF93EC01E62EEE
:1027B00008E010E0FF24F39461E08F2D8E2109F4EE
:1027C00060E0CE010E94AE1DFF0C01501109A1F77F
:1027D000F894E981FA8191818881809589238183A8
:1027E000E981FA8192818881809589238283789416
:1027F000DF91CF911F910F91FF90EF9008956F920D
:102800007F929F92AF92BF92CF92DF92EF92FF9210
:102810000F931F93CF93DF931F92CDB7DEB78C0139
:10282000D62EE0910105F0910205138615861486D7
:10283000DF011B9633961E92AE17BF07E1F7C12C3E
:10284000BB24B3946090010570900205F301858567
:10285000811169C0C3010E94DD1D81110AC0D3012D
:102860001B961C921B971D961C921D971C961C92E2
:1028700075C060EFC3010E94D013EE24E394A12C35
:10288000912CFF24F394C3010E948A1D682FC30179
:1028900069830E948A1D6981613019F48130C9F40D
:1028A00036C02A2D30E068131DC0F3018385F81669
:1028B00030F4E20FF31F83818E2159F402C0F81621
:1028C00041F060E0F8E0FF1560F0D3011C96FC9247
:1028D00008C0F301EA0DF11D83818E29838361E035
:1028E00009C09F2CF301E20FF31F93818E2D809579
:1028F00089238383C3010E94AE1DF394EE0C19F467
:10290000A394EE24E394B7E0BA1508F0BCCFE0E45A
:10291000EF1548F4D3011B969C921B97911008C0A9
:102920001D96BC9205C0F30113861586148616C049
:10293000F30183818823B9F33396A8018BE0680EF5
:10294000711CC8012191DC012D93CD01E615F7051D
:10295000C9F706C0C394DC1408F074CF80E015C03A
:10296000CD10F8CF88E0E0E0815049F0DA019D9188
:10297000AD01E927F0E0EC59FB4FE491F5CFD80128
:1029800017968C91E813E6CF81E00F90DF91CF91FD
:102990001F910F91FF90EF90DF90CF90BF90AF907D
:1029A0009F907F906F900895CF92DF92EF92FF9269
:1029B0000F931F93CF93DF936C017A018B01C0E0DB
:1029C000D0E0CE15DF0589F0D8016D918D01D601DB
:1029D000ED91FC910190F081E02DC6010995892BC4
:1029E00011F47E0102C02196ECCFC701DF91CF9197
:1029F0001F910F91FF90EF90DF90CF900895FC0111
:102A0000538D448D252F30E0842F90E0821B930B53
:102A1000541710F0CF96089501970895FC01918DF9
:102A2000828D981761F0828DDF01A80FB11D5D9630
:102A30008C91928D9F5F9F73928F90E008958FEF9E
:102A40009FEF0895FC01918D828D981731F0828D52
:102A5000E80FF11D858D90E008958FEF9FEF0895A9
:102A6000FC01918D228D892F90E0805C9F4F821B0D
:102A700091098F739927089585E294E00E9430159B
:102A800021E0892B09F420E0822F0895FC01848D38
:102A9000DF01A80FB11DA35ABF4F2C91848D90E088
:102AA00001968F739927848FA689B7892C93A08963
:102AB000B1898C9180648C93938D848D981306C01A
:102AC0000288F389E02D80818F7D80830895EF92C5
:102AD000FF920F931F93CF93DF93EC0181E0888FD8
:102AE0009B8D8C8D981305C0E889F989808185FDBF
:102AF00024C0F62E0B8D10E00F5F1F4F0F731127B0
:102B0000E02E8C8DE8120CC00FB607FCFACFE889D6
:102B1000F989808185FFF5CFCE010E944615F1CF5E
:102B20008B8DFE01E80FF11DE35AFF4FF0820B8FF2
:102B3000EA89FB898081806207C0EE89FF89608312
:102B4000E889F98980818064808381E090E0DF9169
:102B5000CF911F910F91FF90EF900895CF93DF9346
:102B6000EC01888D8823C9F0EA89FB89808185FD85
:102B700005C0A889B9898C9186FD0FC00FB607FCE6
:102B8000F5CF808185FFF2CFA889B9898C9185FF27
:102B9000EDCFCE010E944615E7CFDF91CF9108958A
:102BA00080E090E0892B29F00E943C1581110C9463
:102BB00000000895833081F028F4813099F082304C
:102BC000A1F008958730A9F08830B9F08430D1F4AD
:102BD000809180008F7D03C0809180008F778093EB
:102BE0008000089584B58F7702C084B58F7D84BD41
:102BF00008958091B0008F7703C08091B0008F7DE1
:102C00008093B00008953FB7F89480916505909146
:102C10006605A0916705B091680526B5A89B05C01B
:102C20002F3F19F00196A11DB11D3FBFBA2FA92F4B
:102C3000982F8827820F911DA11DB11DBC01CD01C8
:102C400042E0660F771F881F991F4A95D1F70895B4
:102C5000089580E00895DC011A96ED91FC911B9790
:102C600020E030E00994DC011696ED91FC91179775
:102C700020E030E040E069E10994DC011696ED9136
:102C8000FC91179720E030E040E068E109949A0158
:102C9000DC011696ED91FC911797462F67E1099498
:102CA000EF92FF920F931F93CF93DF931F92CDB7B5
:102CB000DEB77C018B01D8016C916731E1F078F4CB
:102CC0006531A0F1F80141814983D7011696ED9154
:102CD000FC91179720E030E0C701099524C06A31C4
:102CE000A8F06E3F19F5F8014181498369E2C701F7
:102CF0000E942B1618C0F80181818983AE014F5FB5
:102D00005F4F61E0C7010E9447160DC00F5F1F4F64
:102D1000D7011696ED91FC91179720E030E040E046
:102D2000C7010995C8CF0E5F1F4FC5CF0F90DF9128
:102D3000CF911F910F91FF90EF900895462FDC01E6
:102D40001696ED91FC91179720E030E066E109942A
:102D5000462FDC011696ED91FC91179720E030E0AC
:102D600065E10994EF92FF920F931F93CF93DF9346
:102D7000EC01142F79016D30A9F118F46B3039F1A1
:102D80005FC06E3009F441C06F3009F059C00E9435
:102D90003D16F70183810889F8E08F9F000D11240B
:102DA00060E4CE010E94A816602F62956F7060618A
:102DB000CE010E94A816602F6F70CE010E949E1651
:102DC000F7016481606BCE010E949E1629C04111FB
:102DD00003C068E871E002C063E871E0CE010E94C0
:102DE000501671C0411108C06CE771E00E94501686
:102DF000E881F981828907C065E771E00E94501679
:102E0000E881F9818389888B5EC00E943D1661E864
:102E1000CE010E94A816612FCE010E949E160CC002
:102E2000F701408151816281660F660F660FCE0106
:102E30000E9447161150A1F7CE010E94331643C0DD
:102E4000693031F482EC91E099838883188A3BC021
:102E50006A30B9F5EA85FB8520E030E040E068E2C1
:102E6000CE010995EE81FF8120E030E040E064E191
:102E7000CE01099541E06BE4CE010E942B16E8815A
:102E8000F981448169E2CE010E942B1640E06BE497
:102E9000CE010E942B16E881F981448169E2CE01BE
:102EA0000E942B1641E06BE4CE010E942B16E881B4
:102EB000F981458169E2CE010E942B166DE871E02F
:102EC0008DCF80E001C081E0DF91CF911F910F9104
:102ED000FF90EF900895DC011896ED91FC91199701
:102EE00020E030E040E069E10994DC011896ED91C2
:102EF000FC91199720E030E040E068E109946623F6
:102F000029F06A3019F0862F90E008958FEF9FEF37
:102F100008950E94CD35CF93DF931F92CDB7DEB7D2
:102F20006983BE016F5F7F4F0E94CB200F90DF91BE
:102F3000CF910895EF92FF921F93CF93DF93EC010F
:102F4000162F7A010E94751760E4CE010E948B173C
:102F5000E885F9859701412F67E1CE010995CE01FA
:102F6000DF91CF911F91FF90EF900C946B17EF9230
:102F7000FF921F93CF93DF9300D0CDB7DEB77C01D4
:102F8000142F673128F4653140F4643149F141C0B0
:102F9000673191F06A3170F03CC00E94751760E0B3
:102FA000C7010E948B17612FC7010E948B17C701B1
:102FB0000E946B1781E02EC0A901193160F068E111
:102FC000C70129833A830E949A17185129813A81AF
:102FD000285E3F4FF1CF612FC7010E949A17EACFB9
:102FE000DC0152968C9152978F3F19F488E75296E4
:102FF0008C93D7011896ED91FC911997412F64E1BC
:10300000C7010F900F90DF91CF911F91FF90EF902C
:10301000099480E00F900F90DF91CF911F91FF9066
:10302000EF900895FC01962F6831F1F0B9019931C4
:1030300050F4943169F0973189F550E082EC94E0D6
:103040000E947E1B0FC0993131F1903259F026C099
:103050001092B9031092B803109202041092240443
:103060000E94681D81E00895A081B1811D968C9118
:10307000843018F08CE08093B800828990E09595B8
:10308000879591E0909301048093230410920204A9
:1030900010922404E7CF0E942111E4CF80E008952C
:1030A0001F920F920FB60F9211242F933F934F93BD
:1030B0005F936F937F938F939F93AF93BF93EF93A0
:1030C000FF9385E294E00E944615FF91EF91BF9136
:1030D000AF919F918F917F916F915F914F913F91B0
:1030E0002F910F900FBE0F901F9018951F920F9267
:1030F0000FB60F9211242F938F939F93EF93FF930B
:10310000E0913504F09136048081E0913B04F09128
:103110003C0482FD12C0908180913E048F5F8F73CA
:1031200020913F04821751F0E0913E04F0E0EB5D06
:10313000FB4F958F80933E0401C08081FF91EF91FA
:103140009F918F912F910F900FBE0F901F90189508
:10315000CF93DF93282F30E0F901E655FA4F8491A1
:10316000F901EE57FA4FD491F901E259FA4FC4919F
:10317000CC2391F081110E94DA15EC2FF0E0EE0FD4
:10318000FF1FEC59FA4FA591B491EC91ED2381E02A
:1031900090E021F480E002C080E090E0DF91CF91E8
:1031A00008951F93CF93DF93282F30E0F901E65560
:1031B000FA4F8491F901EE57FA4FD491F901E2598F
:1031C000FA4FC491CC23C9F0162F81110E94DA1551
:1031D000EC2FF0E0EE0FFF1FE056FA4FA591B491EF
:1031E0008FB7F894111105C09C91ED2FE095E9235C
:1031F00002C0EC91ED2BEC938FBFDF91CF911F912B
:103200000895CF93DF9390E0FC01EE57FA4F24919D
:10321000FC01E259FA4F8491882361F190E0880F14
:10322000991FFC01EA56FA4FC591D491FC01E05672
:10323000FA4FA591B491611109C09FB7F8948881A4
:10324000209582238883EC912E230BC0623061F499
:103250009FB7F8943881822F809583238883EC91DF
:103260002E2B2C939FBF06C08FB7F894E8812E2B8E
:1032700028838FBFDF91CF9108958F929F92AF9255
:10328000BF92CF92DF92EF92FF926B017C010E947E
:1032900003164B015C01C114D104E104F104F1F007
:1032A0000E940316DC01CB0188199909AA09BB0900
:1032B000883E9340A105B10570F321E0C21AD10800
:1032C000E108F10888EE880E83E0981EA11CB11C6D
:1032D000C114D104E104F10419F7DDCFFF90EF90A0
:1032E000DF90CF90BF90AF909F908F9008951F93E5
:1032F000CF93DF93EC01962F642F9C3270F49A32B7
:1033000008F058C0983289F0993209F03EC070E058
:1033100080E090E00E943D194DC09D32B1F0A8F1CF
:1033200084EB890F823000F130C06B9610E08991F8
:103330008F3F39F0103110F461E001C062E00E946B
:1033400001191F5F163199F735C0433018F082E03C
:1033500090E002C085E090E0880F991F880F991FC8
:1033600005970197F1F726C09F73C90FD11D411131
:1033700007C061E08B8D0E94011960E08B8D10C049
:1033800062E08B8D0E94011915C09034A8F09F73E4
:10339000FE01E90FF11D838D8F3F61F0903118F42C
:1033A0000E94D11807C00E94A81821E0892B09F4B7
:1033B00020E02E8B81E001C080E0DF91CF911F9152
:1033C00008952FB7F894609161057091620580911E
:1033D0006305909164052FBF08951F920F920FB659
:1033E0000F9211242F933F938F939F93AF93BF938B
:1033F0008091610590916205A0916305B09164058B
:103400003091600523E0230F2D3720F40196A11D94
:10341000B11D05C026E8230F0296A11DB11D209302
:1034200060058093610590936205A0936305B09356
:1034300064058091650590916605A0916705B0913E
:1034400068050196A11DB11D8093650590936605E1
:10345000A0936705B0936805BF91AF919F918F913D
:103460003F912F910F900FBE0F901F9018951F92B4
:103470000F920FB60F9211242F933F934F935F93A8
:103480006F937F938F939F93AF93BF93EF93FF932C
:10349000E0910301F09104010995FF91EF91BF9133
:1034A000AF919F918F917F916F915F914F913F91DC
:1034B0002F910F900FBE0F901F9018951F920F9293
:1034C0000FB60F9211242F933F934F935F936F93F7
:1034D0007F938F939F93AF93BF93EF93FF93E0916D
:1034E0000101F09102010995FF91EF91BF91AF9118
:1034F0009F918F917F916F915F914F913F912F910C
:103500000F900FBE0F901F901895462FDC01149658
:10351000ED91FC91159720E030E06BE00994CF939A
:10352000DF93DC011C96ED91FC911D9784913196FF
:10353000E491681720F1E61710F170E0681B71093B
:1035400083E0660F771F8A95E1F7CB010296EA01C7
:10355000665F7F4F1C96ED91FC911D97E80FF91F58
:10356000E491E993019686179707A1F751968C91FC
:10357000882399F0FA019A01285F3F4F08C0FA01A9
:10358000CA0108961192E817F907E1F7EFCF808199
:1035900080958193E217F307D1F7DF91CF910895DA
:1035A000AF92BF92CF92DF92EF92FF920F931F9351
:1035B000CF93DF93CDB7DEB72D970FB6F894DEBF6C
:1035C0000FBECDBFFC01F6A86A3021F4F394F6AA31
:1035D00015AA23C08C01E5A86C0184E0C80ED11C9B
:1035E000DE0111965D01AD01C6010E948F1AEC86C5
:1035F000FD8681E08B87BA86A986D8011896ED9161
:10360000FC9119979E01275F3F4F41E06FE0C60193
:103610000995F80185A98F5F85AB81E090E02D9633
:103620000FB6F894DEBF0FBECDBFDF91CF911F91D3
:103630000F91FF90EF90DF90CF90BF90AF900895E3
:1036400085ED8093BC008091BC0084FDFCCF10927E
:10365000000408954091D105262F30E0240F311D3C
:1036600021323105DCF4209100042430C9F4FC013E
:1036700080E090E0861758F43091D1052191DC016B
:10368000A155BA4FA30FB11D2C930196F3CF809192
:10369000D105680F6093D10580E0089581E0089519
:1036A00082E008950895E091B9038091B803E81786
:1036B00030F4F0E0E654FC4F808190E008958FEF05
:1036C0009FEF08959091B9038091B803981750F433
:1036D000E92FF0E0E654FC4F208130E09F5F9093AB
:1036E000B90302C02FEF3FEFC90108958091B803DD
:1036F00090E02091B903821B91090895CF92DF9247
:10370000EF92FF920F931F93CF93DF937C01262FAD
:10371000972F8A0180910104882391F0C62FD72F1B
:103720006E01C40ED51ECC15DD0571F06991D7016F
:10373000ED91FC910190F081E02DC7010995F3CF47
:10374000642F822F0E942A1BC801DF91CF911F9105
:103750000F91FF90EF90DF90CF900895CF93DF937C
:103760001F92CDB7DEB76983209101042223D1F0E7
:1037700020912404203240F021E030E0FC0133832A
:10378000228380E090E015C080910204E82FF0E0F1
:10379000ED5FFB4F998190838F5F8093020480934C
:1037A000240405C061E0CE0101960E942A1B81E03D
:1037B00090E00F90DF91CF9108950895F8942091B3
:1037C0004605233021F42091AD0521110FC0209131
:1037D0004605233011F4789407C0DC01ED91FC918B
:1037E0000288F389E02D099580E00895DC01ED91D0
:1037F000FC910488F589E02D61E0099581E0089548
:1038000081E0809359038091570390915803DC0124
:10381000ED91FC910484F585E02D099510925903F2
:103820000895CF93DF93EC0161E08A810E94D11863
:1038300089858CBD8A858DBD80915903811101C018
:103840007894DF91CF910895FC01F8948CB581872D
:103850008DB582878CB5837F8CBD8CB58F7D8CBDFB
:103860008CB58C7F8CBD8DB58E7F8DBD60E08281E7
:103870000C94D1181F920F920FB60F9211242F9310
:103880003F934F935F936F937F938F939F93AF93E8
:10389000BF93EF93FF938091B900887F803609F43E
:1038A0009CC068F5883209F45BC090F4803109F45B
:1038B00054C038F4882309F4F6C0883009F44DC0A8
:1038C000F6C0883109F44CC0803209F45DC0EFC005
:1038D000803409F468C048F4803309F455C0883353
:1038E00009F0E5C08093FE03D8C0803509F44FC0CD
:1038F000883509F45DC0883409F0D9C0D6C088394C
:1039000009F4C7C0A8F4883709F467C038F48836CA
:1039100009F463C0803709F460C0C9C0883809F46D
:10392000B8C0803909F45FC0803809F0C0C05BC0FE
:10393000803B09F486C038F4803A09F466C0883ABE
:1039400009F47FC0B4C0803C09F4A7C0883C09F4E6
:10395000A4C0883B09F48AC0AAC08091DB0310C0D0
:103960009091FD038091FC03981770F5E091FD03A1
:1039700081E08E0F8093FD03F0E0E452FC4F8081E4
:103980008093BB0085EC86C08093FE038EC0E091DF
:10399000FD0381E08E0F8093FD038091BB00F0E07A
:1039A000E452FC4F80839091FD038091FC036EC034
:1039B000E091FD0381E08E0F8093FD038091BB00B9
:1039C000F0E0E452FC4F80838091FF0381116DC0D1
:1039D00081E08093DA0384EA61C083E0809300048D
:1039E0001092F505CFCF8091F505803208F051C0D7
:1039F000E091F50581E08E0F8093F5058091BB0085
:103A0000F0E0EB52FA4F8083BDCF85EC8093BC0091
:103A1000109200048091F505803230F4E091F505B4
:103A2000F0E0EB52FA4F10826091F50570E0E09102
:103A3000D305F091D40585ED95E009951092F50533
:103A400036C084E0809300041092D2051092D10514
:103A5000E091CF05F091D00509958091D1058111B4
:103A600005C081E08093D1051092AF05E091D205A9
:103A700081E08E0F8093D205F0E0E155FA4F80810E
:103A80008093BB009091D2058091D105981708F4DE
:103A900079CF85E88093BC000AC085EC8093BC0098
:103AA0001092000404C01092FE030E94201BFF919C
:103AB000EF91BF91AF919F918F917F916F915F91A6
:103AC0004F913F912F910F900FBE0F901F9018951F
:103AD0001092000481E08093FF031092DA0361E00A
:103AE00082E10E94D11861E083E10E94D118E9EBE4
:103AF000F0E080818E7F808380818D7F808388E469
:103B00008093B80085E48093BC00089508958CBD2F
:103B10009DBD0895FC0190810180F281E02DF89413
:103B20008181892B81832281892F8095282322837B
:103B3000A7E0B0E01197F1F7218182238183A3E20E
:103B4000B0E01197F1F780817894EFECF0E03197D5
:103B5000F1F7982381E009F480E00895FC01908159
:103B60000180F281E02D892F809560FF12C0F894CA
:103B70002281822382838181892B8183A3E2B0E029
:103B80001197F1F78281982B9283789487ED90E0DA
:103B900011C0F8942281822382838181892B8183C1
:103BA000AFEFB0E01197F1F78281982B9283789470
:103BB0008FE090E00197F1F70895FC01908101807A
:103BC000F281E02DF8948181292F20958223818331
:103BD00078948DE743E050E0815021F1DA011197AC
:103BE000F1F730813923C1F3F894828182238283F3
:103BF0008181892B81837894ABE7B7E01197F1F746
:103C0000F894818128232183A3E1B1E01197F1F792
:103C10008081982381E009F080E07894E3E6F6E083
:103C20003197F1F70895CF93CFB7F8948091AE050F
:103C3000811127C0E8E7F5E08491ECE8F5E0949184
:103C4000E82FF0E0EE0FFF1FEA56FA4FA591B4916E
:103C5000EC91E92321F461E08AE00E94D11861E04F
:103C60008AE00E9401198CB580618CBD8CB580649E
:103C70008CBD61E08DE00E94011961E08BE00E9443
:103C800001198091AE058F5F8093AE05CFBFCF91B4
:103C900008950F931F93CF93DF9300D0CDB7DEB776
:103CA0008C01DC01ED91FC91008CF18DE02D4A83BB
:103CB000698309956981862F80680E942F054A8152
:103CC000842F0E942F05D801ED91FC91028CF38D79
:103CD000E02DC8010F900F90DF91CF911F910F91B0
:103CE00009941F93CF93DF93EC01162F611102C04B
:103CF00045E501C04DE56AE5CE010E94491E11115E
:103D000002C040E701C04CE76CE5CE01DF91CF91E6
:103D10001F910C94491EEF92FF921F93CF93DF9354
:103D20001F92CDB7DEB77C01DC01ED91FC91008CD8
:103D3000F18DE02D698309956981862F8F770E9427
:103D40002F0580E00E942F05182FD701ED91FC91DF
:103D5000028CF38DE02DC7010995812F0F90DF9123
:103D6000CF911F91FF90EF900895CF93DF93EC01D7
:103D70006887611102C04AE101C04FE063E1CE01F2
:103D80000E94491E8885882341F061E1CE010E948E
:103D90008B1E8F71482F406602C04F81406861E1E1
:103DA000CE01DF91CF910C94491ECF93DF93EC01AC
:103DB0001092AC051092AB051092AA051092AD05B9
:103DC0001092A9051092A8051092A7051092A605B9
:103DD00068E20E948B1E82FF0AC06DE3CE010E9442
:103DE0008B1E482F44606DE3CE010E94491E40E4C3
:103DF00065E2CE010E94491EE881F9810488F589B7
:103E0000E02D63E0CE01DF91CF910994EF92FF9214
:103E10001F93CF93DF93EC0180914605833001F52A
:103E200068E2CE010E948B1E82FD2EC019C08091D7
:103E3000AC058D3330F4E091AC05F0E0E759FA4F72
:103E40001082E881F981028CF38DE02DCE01099575
:103E5000E881F9810488F589E02D63E0CE010995B8
:103E600064E2CE010E948B1E90E0919581959109AC
:103E7000959587959093A7058093A605DF91CF919F
:103E80001F91FF90EF900895E881F9810488F589EA
:103E9000E02D61E0CE010995E881F981008CF18D7A
:103EA000E02DCE01099580E00E942F0580E00E9460
:103EB0002F058093AD058091AD058334D0F48091BA
:103EC000AD058093AD0580E00E942F058093AA0583
:103ED0008E81811109C09091AA058D81981721F0DA
:103EE0008091AA058F3F39F48091AD05833018F099
:103EF00017C082E4E6CF1092AD05E881F981028C0B
:103F0000F38DE02DCE010995E881F9810288F389CE
:103F1000E02DCE01DF91CF911F91FF90EF9009949A
:103F20008091AD0583508093AC0580E00E942F0501
:103F30008093AB0580E00E942F05982F9078909396
:103F4000A805982F90749093A905E881F9810684BB
:103F5000F785E02D682FCE01099510E08091AC0522
:103F6000181708F064CFE12EF12C80E00E942F0595
:103F7000F701E759FA4F80831F5FF0CFCF92DF92AE
:103F8000EF92FF92CF93C82F8091D7048F3F09F013
:103F900040C08091CE0491E090930104809323046B
:103FA00010920204109224046C2F82EC94E00E9480
:103FB000AE1B0E94211163E08091CE040E94C311C8
:103FC00082EC94E00E94621B6C01990FEE08FF08DE
:103FD000FE2CED2CDC2CCC2482EC94E00E94621BA5
:103FE000AC01990F660B770BC42AD52AE62AF72A6B
:103FF000FE2CED2CDC2CCC2482EC94E00E94621B85
:10400000AC01990F660B770BC42AD52AE62AF72A4A
:1040100033C08091DA048F3F21F482E591E00E9461
:10402000871D60E08091D7040E94D1188C2F806892
:104030000E94E01080E00E94E010C82ED12CE12CFC
:10404000F12CFE2CED2CDC2CCC2480E00E94E01026
:10405000C82AFE2CED2CDC2CCC2480E00E94E01041
:10406000C82A61E08091D7040E94D1188091DA04B7
:104070008F3F11F40E94861DC701B601CF91FF90BA
:10408000EF90DF90CF9008958F929F92AF92BF9262
:10409000CF92DF92EF92FF928AEF0E94BE1FEEEC6A
:1040A000F4E0458556854A01A12CB12CC72ED82EA7
:1040B000E92EFF24E7FCFA94C818D908EA08FB089F
:1040C000DC01CB0137E0B595A795979587953A9593
:1040D000D1F7B501A401440F551F661F771F4C018E
:1040E0005D01841A950AA60AB70AA5019401A7855D
:1040F000B0890E94F5334B015C013BE0B594A79475
:10410000979487943A95D1F7A7019601C701B60114
:104110000E94A7339B01AC016CE0559547953795FC
:1041200027956A95D1F7A189B2890E94F533DC0100
:10413000CB017EE0B595A795979587957A95D1F7B0
:10414000A5019401280F391F4A1F5B1F2583368361
:1041500047835087A5E0B0E00E94EA33DC01CB0141
:1041600080589F4FAF4FBF4F692F7A2F8B2F9927C2
:1041700087FD9A950E943C3220E030E048EC52E402
:104180000E949331FF90EF90DF90CF90BF90AF905F
:104190009F908F9008959B01DC011896ED91FC9102
:1041A000199741E067E10994CF93DF93CDB7DEB76C
:1041B000CC56D1090FB6F894DEBF0FBECDBF7894B0
:1041C00084B5826084BD84B5816084BD85B582601C
:1041D00085BD85B5816085BD80916E0081608093CD
:1041E0006E00109281008091810082608093810036
:1041F0008091810081608093810080918000816046
:10420000809380008091B10084608093B1008091A0
:10421000B00081608093B00080917A0084608093C8
:104220007A0080917A00826080937A0080917A008F
:10423000816080937A0080917A00806880937A0010
:104240001092C1000E94180880E090E00E946E3138
:104250008F3F31F400E010E04CE1F42EF00E16C078
:104260008FE190E00E946E318F3AA1F762E08FE01B
:104270000E94011961E070E080E090E00E943D1929
:104280008FE00E94A818892B29F333C060E0C80191
:104290000E9480310F5F1F4FF012F8CF6FEF8AE15D
:1042A00090E00E9480316EEF8BE190E00E948031BF
:1042B00061E08CE190E00E94803161E08DE190E06E
:1042C0000E94803162E08EE190E00E9480316FEACE
:1042D0008FE190E00E94803160E080E290E00E94F7
:1042E000803141E150E061E270E080E592E00E94BF
:1042F000763120E0C22E20E0D22E0EE713E0F02E21
:1043000031E2E32EE00EC6010E946E31D8018D939A
:104310008D01BFEFCB1ADB0AE012F5CFEAE5F3E03F
:10432000119211921192119223E0E637F207C1F730
:1043300040919C0320E137E2429FC001439F900DD2
:104340001124092E000CAA0BBB0B8093AC03909395
:10435000AD03A093AE03B093AF034091960328E85A
:1043600033E1429FC001439F900D1124092E000CA0
:10437000AA0BBB0B8093A4039093A503A093A60361
:10438000B093A70340919503429FC001439F900DB6
:104390001124AC01092E000C660B770B40939F0390
:1043A0005093A0036093A1037093A203892B19F08B
:1043B0001092780303C081E08093780361E085E088
:1043C0000E94011961E086E00E94011961E087E026
:1043D0000E94011961E082E00E94011961E087E01A
:1043E0000E94D11861E082E00E94D11865E070E07F
:1043F00080E090E00E943D1960E082E00E94D118C8
:104400006AE070E080E090E00E943D1940919A03DC
:10441000009199039EE2DE0111966D01FD01292FA5
:1044200011922A95E9F781E0898384E08A8332E05A
:104430003B8323E02D833E838F8380E4888735E0B0
:1044400039872A8726E02B8723E32C8737E03D87AF
:1044500028E02F8729E0298B29E12B8B22E42C8B64
:1044600055E25D8B8E8B56E25F8B388F38E2398F49
:1044700030E13A8F39E23B8F3CED3C8F9D8F98E8DD
:104480009E8F9FE29F8F9DE298A390E399A337E3CD
:104490003BA330E93CA338E33DA32EA32CE32FA399
:1044A0002FE828A72DE329A722E12AA72FE62BA78B
:1044B0009CA79FEF9DA79CE69E87888B4AA361E0FF
:1044C000809149050E94D11861E0809149050E94C0
:1044D00001190E94131E0E94E1194B015C014AEA76
:1044E0006FE287E495E00E94491E6FE287E495E061
:1044F0000E948B1E8A3A61F00E94E119DC01CB0117
:1045000088199909AA09BB09C297A105B10538F311
:104510000E94E1194B015C0145E56FE287E495E0FB
:104520000E94491E6FE287E495E00E948B1E85354C
:1045300061F00E94E119DC01CB0188199909AA09EF
:10454000BB09C297A105B10538F310E0F601E10FF0
:10455000F11DE10FF11D60816F3F39F0418187E46A
:1045600095E00E94491E1F5FF1CF80E090E00E941D
:10457000941360914F0587E495E00E94B51E61E0B9
:1045800087E495E00E948B030E94E1194B015C01D6
:1045900067E287E495E00E948B1E87FD0CC00E94B5
:1045A000E119DC01CB0188199909AA09BB09C29755
:1045B000A105B10568F30E94E119DC01CB0188195E
:1045C0009909AA09BB09C297A105B10508F054C011
:1045D0001092590380914B058230C8F4E82FF0E027
:1045E000EE0FFF1FEF5FFE4F20E03CE131832083A1
:1045F000813039F080916900836080936900E89A86
:1046000006C0809169008C6080936900E99A87E414
:1046100095E0909358038093570300934C0567E00F
:104620000E948B1E182F67E087E495E00E948B1E86
:1046300021E0811101C020E091E01F3F09F490E0EA
:104640009223D1F06FE187E495E00E94710341E18C
:1046500050E061E270E0CE018F960E945E31CE01A3
:104660008F960E94941387E495E00E94DE1B809150
:1046700088038823C9F023C015E060E087E00E942A
:10468000D11864E670E080E090E00E943D1961E09E
:1046900087E00E94D11864E670E080E090E00E941C
:1046A0003D19115051F7CECF80918903811107C078
:1046B00080918A03811103C080918B038111109234
:1046C00005010EE713E086E1A82E81E0B82E37E061
:1046D000F30ED501ED905D01BAE0EB1691F0F80113
:1046E0009081692F61708E2DAD969FAFAD970E941E
:1046F0000119AD969FADAD97692F62708E2D0E9406
:10470000D118D8018D918D0182FF03C08E2D0E949A
:10471000FC08F012DECF8091920380FF04C061E0BC
:1047200086E00E94D11880918D0381FF08C060E06F
:1047300080E00E94011961E081E00E9401198091EE
:104740008E03887109F46CC0E0911705F09118058B
:1047500020E030E040E06AE083E195E0099588E000
:10476000F60111928A95E9F7C6010E94AE1060E049
:1047700083E195E00E94851A60E083E195E00E9464
:10478000851AE0911705F091180520E030E040917E
:1047900098036EE083E195E0099582E691E09093BD
:1047A000200580931F0586E0ECE0F1E0D601019042
:1047B0000D928A95E1F71F82188619861A868091D4
:1047C00099034AE0BE01605C7F4F90E00E948A2E10
:1047D00043E050E0BE01605C7F4FC6010E94F635A9
:1047E000A60162E084E00E948C1361E672E0C601DB
:1047F0000E94EF3580919A034AE0BE01605C7F4FD2
:1048000090E00E948A2E43E050E0BE01605C7F4F42
:10481000C6010E94F635A60163E084E00E948C1375
:1048200080E290E00E946E318111CAC061E080E2B6
:1048300090E00E94803199E288E10FB6F894A89543
:10484000809360000FBE90936000F89421E030E008
:1048500080E80FB6F89480936100209361000FBE4A
:1048600000916600F0908000E0908100B09082009E
:10487000A0906F009090B0008090B1007090700098
:104880006090B60010928000109281001092820019
:1048900010926F001092B0001092B1001092700050
:1048A0001092B60066E287E495E00E948B1E582EB7
:1048B00045E066E287E495E00E94491E1092700090
:1048C00083B5826883BD80E48093B6008091B60092
:1048D00080628093B60081E08093B1001092B000B6
:1048E00093B59F7793BDB89BFECF87E087BB81E0F0
:1048F0008093810080E88093660011E021E837E032
:10490000112311F1B89BFCCF23BD37BB80918400EC
:104910009091850010FD15C0AC014D5F53404730AC
:10492000510590F08115944010F00C94DF2C90917B
:1049300066009F5F9093660010928500109284003D
:1049400001C013BC1F5FDCCF7894452D66E287E47D
:1049500095E00E94491EF0928000E0928100B092A2
:104960008200A0926F009092B0008092B10070928D
:1049700070006092B60087E286BB87E087BB13BCFD
:10498000111115C00093660081E1E6E9F2E0D6015D
:1049900001900D928A95E1F703E2E02E05E021E116
:1049A000A60160919B0387E495E00E94F40360E018
:1049B00080E290E00E9480310E94180811E014C04B
:1049C00088E1E7EAF2E0D60101900D928A95E1F7DD
:1049D00013E2E12E05E028E1A60160919B0387E444
:1049E00095E00E94F40310E080918E0381FF35C0B2
:1049F000E0913504F091360482E08083E091310447
:104A0000F09132041082E0913304F09134048FEC81
:104A1000808310923D04E0913904F0913A0486E0DD
:104A20008083E0913704F091380480818061808335
:104A3000E0913704F0913804808188608083E091B0
:104A40003704F0913804808180688083E0913704D6
:104A5000F091380480818F7D808380918D0382FF67
:104A600018C00E94B512811114C089E1EFEBF2E089
:104A7000D60101900D928A95E1F7B3E2EB2E05E0A5
:104A800029E1A60160919B0387E495E00E94F4036D
:104A900010E060E080E290E00E948031112399F004
:104AA0008DE0E8EDF2E0D60101900D928A95E1F7F4
:104AB000A3E2EA2E05E02DE0A60160919B0387E4C6
:104AC00095E00E94F40360E087E00E94D1189E0107
:104AD0002F5F3F4F29963FAF2EAF2997285FAC96A7
:104AE0002FAFAC971091920313FF04C060E087E0F2
:104AF0000E94D11811FF21C00E94E1190091B40356
:104B00001091B5032091B6033091B703DC01CB01BE
:104B1000801B910BA20BB30B893B9B40A105B105F8
:104B200064F00E94E1196093B4037093B50380931D
:104B3000B6039093B7030E94CA0561E080E00E942B
:104B4000450B0E94E1190091B0031091B10320912F
:104B5000B2033091B303DC01CB01801B910BA20B9C
:104B6000B30BC090AC03D090AD03E090AE03F090D7
:104B7000AF0320910801C816D906EA06FB0618F013
:104B8000222309F40BC6222351F080918D0380FF6C
:104B900006C068EE73E080E090E00E943D190E943C
:104BA000E1196093B0037093B1038093B2039093C3
:104BB000B30380919403882319F081E00E949A073F
:104BC00080918D0380FFEFC0F12C6E018FE2C80E43
:104BD000D11C08E0E02EEC0C80910005F81608F0DE
:104BE000D8C084E494E7A0E0B0E024968CAF9DAFF9
:104BF000AEAFBFAF249727961DAE1EAE1FAE279750
:104C00006F2DC6010E94FF13811105C060E070E0A6
:104C10008EEF92EC9DC080910105909102050E945B
:104C2000DD1D811103C060E874EE81C000910105B3
:104C30001091020565E5C8010E94D0135601D50107
:104C40006D915D01C8010E94D013EA10F8CF6EEBA0
:104C500080910105909102050E94D0138E010F5F93
:104C60001F4F580128963FAC2897F9E03F0E6090FF
:104C7000010570900205F8E08F2E912C4424439496
:104C8000512CC3010E948A1D81115428440C21E03B
:104C9000821A9108B1F7D5015D925D013A12E7CF12
:104CA00080910105909102050E94DD1D813009F07F
:104CB000BACFE0E0AC96BFADAC97B01749F0D801E1
:104CC0008D918D01E827F0E0EC59FB4FE491F2CF94
:104CD0008985E813A8CF6981E8E06E9FB0011124AF
:104CE0008A81282F30E0322F2227330F330F330FE2
:104CF000262B372B8FA58031C9F4688570E08F8112
:104D0000AB01481B5109CA019695982F88279795A2
:104D100087950E94B73360517109207F53E0220FBD
:104D2000331F5A95E1F7620F731F01C0B901613853
:104D300054EE75070CF46ACF072E000C880B990B04
:104D40000E943C3220E030E040E05CE30E943A33D5
:104D50008E010F5F1F4F21E043E00E94412E6F2D17
:104D600000E010E0C8010E94FF1343E050E0B801EA
:104D7000CE01805C9F4F0E94F63520E040E0BE01EE
:104D80006F5F7F4FCE01805C9F4F0E94DB05F394E5
:104D900023CF811108C020E040E067E672E08AE49A
:104DA00092E00E94DB0580918D0381FF08C020E026
:104DB00041E067E772E081E892E00E94DB058091C4
:104DC0008D0382FF0BC40E9444208E010F5F1F4F92
:104DD00021E043E00E94412E20E040E0B80186E857
:104DE00092E00E94DB050E94442087EF0E94BE1FD4
:104DF000A8966CAF7DAF8EAF9FAFA8978091D3047C
:104E00009091D404A091D504B091D6046C017D0199
:104E1000FF0CCC08DC2C76019C01AD016C2D7C2DA7
:104E20008C2D9C2D345F4140510961097109810924
:104E300091092A962FAF2A972B963FAF2B972C9646
:104E40004FAF2C972D965FAF2D972E966FAF2E9765
:104E50002F967FAF2F9760968FAF609761969FAF29
:104E6000619759016A017B018C010E94FD336D96A7
:104E70002FAF6D976E963FAF6E976F964FAF6F9750
:104E8000A0965FAFA097A1966FAFA197A2967FAFB4
:104E9000A297A3968FAFA397A4969FAFA497909144
:104EA000EB04A9969FAFA997A091EC046296AFAFCF
:104EB0006297B091E904AA96BFAFAA97E091EA047D
:104EC0006396EFAF6397F091E704AB96FFAFAB97B4
:104ED0002091E80464962FAF6497B090E404A0900A
:104EE000E3041B2D110F110BC12ED12EE12EF12E3B
:104EF000012F2A962FAD2A972B963FAD2B972C96F4
:104F00004FAD2C972D965FAD2D972E966FAD2E97AA
:104F10002F967FAD2F9760968FAD609761969FAD6E
:104F200061970E94FD330CE00E942D3519012A0182
:104F30003B014C01B090E604A090E5041B2D110F3D
:104F4000110BC12ED12EE12EF12E012F6D962FAD1A
:104F50006D976E963FAD6E976F964FAD6F97A0961B
:104F60005FADA097A1966FADA197A2967FADA297D6
:104F7000A3968FADA397A4969FADA4970E94FD33EF
:104F800008E00E94463551016201730184010E94CC
:104F9000643570588F4F9F4F2090E1043090E204A9
:104FA0005101C12CD12CE12CF12C00E010E00E9429
:104FB000FD3301E20E94463565962FAF65976696F0
:104FC0003FAF669767964FAF679768965FAF6897F2
:104FD00069966FAF69976A967FAF6A976B968FAF46
:104FE0006B976C969FAF6C97A0E00E94763509F4A2
:104FF000E3C1A996AFACA99762961FAD6297110F56
:10500000110B6296BFAC6297C12ED12EE12EF12E0C
:10501000012F6D962FAD6D976E963FAD6E976F9683
:105020004FAD6F97A0965FADA097A1966FADA1977A
:10503000A2967FADA297A3968FADA397A4969FAD9E
:10504000A4970E94FD3319012A013B014C01AA9645
:10505000AFACAA9763961FAD6397110F110B6396C0
:10506000BFAC6397C12ED12EE12EF12E012F2A96CF
:105070002FAD2A972B963FAD2B972C964FAD2C97A3
:105080002D965FAD2D972E966FAD2E972F967FADF7
:105090002F9760968FAD609761969FAD61970E9444
:1050A000FD3301E10E942D3559016A017B018C011C
:1050B0009101A201B301C4010E94643519012A01C2
:1050C0003B014C01A8964CAD5DAD6EAD7FADA89790
:1050D000E4E07595679557954795EA95D1F780E097
:1050E00090E0A0E1B0E0841B950BA60BB70B6C0120
:1050F0007D01FF0CCC08DC2C76019C01AD016C2DF0
:105100007C2D8C2D9C2D0FE10E942D35B22FA32FCD
:10511000F42FE52F2A966FAF2A972B967FAF2B9708
:105120002C968FAF2C972D969FAF2D97AB962FADCA
:10513000AB9764969FAD6497990F990B64963FADBA
:105140006497492F592F692F792F892F03E20E94E5
:105150002D3559016A017B018C019101A201B30136
:10516000C4010E94643559016A017B018C012B2F17
:105170003A2F4F2F5E2F2A966FAD2A972B967FAD31
:105180002B972C968FAD2C972D969FAD2D970E9427
:105190006D35722E832E942EB52FA62FF72FE82F64
:1051A000592E03E00E942D35A72CB82CC92CDB2EDC
:1051B000EA2EFF2E0E2F152D0E946D3559016A0122
:1051C0007B01682E192F03E00E942D35062D0E94C9
:1051D0006D3503E00E942D35A72CB82CC92CDB2E91
:1051E000EA2EFF2E0E2F152D0E946D3502E00E9433
:1051F0002D350E2F0E946D3501E00E942D350E2FAA
:105200000E946D356596AFAC65976696BFAC6697A4
:105210006796CFAC67976896DFAC68976996EFACF6
:1052200069976A96FFAC6A976B960FAD6B976C9611
:105230001FAD6C970E9458342A962FAF2A972B9651
:105240003FAF2B972C964FAF2C972D965FAF2D9796
:105250002E966FAF2E972F967FAF2F9760968FAFBA
:10526000609761969FAF61970DE00E944635322EA0
:10527000432E542E652E762E872E982E292E309171
:10528000F2042091F104932F990F990BA32CB42CC5
:10529000C52CD62CE72CF82C092D122D492F592F6F
:1052A000692F792F892F0E94FD330E94FD3309E178
:1052B0000E94463559016A017B018C012A962FAD67
:1052C0002A972B963FAD2B972C964FAD2C972D966A
:1052D0005FAD2D972E966FAD2E972F967FAD2F97A2
:1052E00060968FAD609761969FAD61970E9464351F
:1052F00019012A013B014C013091F0042091EF0487
:10530000932F990F990B2A96AFAC2A972B96BFAC87
:105310002B972C96CFAC2C972D96DFAC2D972E96F5
:10532000EFAC2E972F96FFAC2F9760960FAD60973E
:1053300061961FAD6197492F592F692F792F892FBA
:105340000E94FD3303E10E94463559016A017B0149
:105350008C019101A201B301C4010E94643508E0EF
:105360000E94463539014A01B62FA72FF82FE92FA1
:105370003091EE042091ED04932F990F990B492F52
:10538000592F692F792F892F04E00E942D3559015B
:105390006A017B018C019301A4016B2F7A2F8F2F5F
:1053A0009E2F0E9464350E94343220E030E040E8B5
:1053B0005BE30E943A3303C060E070E0CB0120E081
:1053C00030E048EC52E40E9493316B017C0120E014
:1053D00030E0A9010E948E31811102C00E94B512F5
:1053E0008E010F5F1F4F21E043E0C701B6010E940D
:1053F000412E20E040E0B80189E892E00E94DB0500
:105400000E9444208DEF0E9454128090D30490900B
:10541000D404A090D504B090D6043CE2931A31E0B5
:10542000A30AB1086C01E12CF12CFEE0CC0CDD1CD0
:10543000EE1CFF1CFA95D1F74091F7045091F80447
:10544000052E000C660B770BA4E1440F551F661F59
:10545000771FAA95D1F7C41AD50AE60AF70AA091D0
:10546000F904B091FA04A50194010E94F533C61A1B
:10547000D70AE80AF90A40E4D40EE11CF11CBFE0A7
:10548000F594E794D794C794BA95D1F7A091FB040B
:105490000A2E000CBB0BA50194010E94F5332B01D1
:1054A0003C011AE075946794579447941A95D1F784
:1054B000A091F604B0E00E94EA33DC01CB010BE0DE
:1054C000B595A795979587950A95D1F7BC01CD011C
:1054D00070588F4F9F4FA30192010E94A733DC01A8
:1054E000CB012AE0B595A795979587952A95D1F791
:1054F0009C01AD01405E5F4FA091F404B091F504B2
:105500000E94F533DC01CB01905EAF4FBF4FBC0171
:10551000CD013EE095958795779567953A95D1F7BA
:10552000A70196010E94A7336B017C014FE095957E
:105530008795779567954A95D1F79B01AC010E94B5
:10554000A7339B01AC0167E05595479537952795A3
:105550006A95D1F7A091F304B0E00E94EA33DC0130
:10556000CB0174E0B595A795979587957A95D1F776
:10557000A7019601281B390B4A0B5B0BDA01C90105
:1055800057FF03C080E090E0DC0181309105A10568
:1055900039E1B30724F080E090E0A0E0B9E1BC017C
:1055A000CD01ECE09595879577956795EA95D1F7CC
:1055B0000E943C3220E030E040E85AE30E943A3357
:1055C0008E010F5F1F4F21E043E00E94412E20E03B
:1055D00040E0B8018CE892E00E94DB0578E8E72E15
:1055E00073E0F72EC12CD12CD7018C91882309F4BC
:1055F0007CC021E439E640E050E02FA738AB49AB4E
:105600005AAB1CAA1BAAF601EA5EFE4F12854AE0BD
:10561000BE01605C7F4F812F90E00E948A2E42E0A5
:1056200050E0BE01605C7F4FCE018F960E94F63540
:105630001E3008F01E5017708091050130E4839FE2
:10564000C0011124182B10937C0080917A00806493
:1056500080937A0080917A0086FDFCCF00917800DB
:105660008091790010E0182BD7018C91982F9F70B2
:1056700001F584FF1EC080E00E949A07BC0180E013
:1056800090E00E943A3220E030EC4FE754E40E9470
:1056900093314B015C01B80180E090E00E943A3206
:1056A0009B01AC01C501B4010E943A330E9405324E
:1056B0008B01F701808186FF02C0000F111F87FF59
:1056C00004C0000F111F000F111F4AE0BE016F5FE1
:1056D0007F4FC8010E948A2E20E040E0BE016F5F2C
:1056E0007F4FCE018F960E94DB05FFEFCF1ADF0AB6
:1056F0002FEFE21AF20A34E0C316D10409F074CF96
:105700003AE5E32E33E0F32E4EE7C42E43E0D42EE9
:1057100000E010E0D6018D916D0187FF2DC023E6DA
:105720003FE540E050E02FA738AB49AB5AAB1BAA8E
:105730004AE0BE01605C7F4FC8010E948A2E42E0B1
:1057400050E0BE01605C7F4FCE018F960E94F6351F
:10575000D7016D917D918D919C912AE0AE014F5FB3
:105760005F4F0E94952E20E040E0BE016F5F7F4FAB
:10577000CE018F960E94DB050F5F1F4FB4E0EB0E4A
:10578000F11C0730110531F690917D0381E08927E6
:105790000E94560910927D031092080180E00E9439
:1057A00056090E94E1190091A4031091A5032091CC
:1057B000A6033091A703C090A803D090A903E0905E
:1057C000AA03F090AB03DC01CB018C199D09AE0953
:1057D000BF09081719072A073B0720F08091A30388
:1057E0008823B1F0012B022B032B91F00E94E119C9
:1057F0006093A8037093A9038093AA039093AB03CB
:1058000020E041E06FE872E08AE392E00E94DB056D
:1058100020E040E06CE272E0CB010E94DB050E94D8
:10582000E1190091790310917A0320917B03309163
:105830007C03DC01CB01801B910BA20BB30B00910D
:105840009F031091A0032091A1033091A203081798
:1058500019072A073B0708F506E111E02EE7E22EBB
:1058600023E0F22EF80127E0E20FDE2ED7018D9122
:105870007D0185FF0BC084FF04C061E0F8018081D9
:1058800003C060E0D8018C910E94D1180F5F1F4FB8
:10589000D012ECCF81E08093780390910701809142
:1058A000940391110DC0882309F474C0909193035F
:1058B000992309F46FC090917803992309F46AC081
:1058C00010920701882309F47FC0809193038823F5
:1058D00009F47AC081E1898380910601882369F007
:1058E00093E2E92E05E021E0AE014F5F5F4F60914A
:1058F0009B0387E495E00E94F40300E010E00E941F
:10590000160C882311F000E010E061E070E080E008
:1059100090E00E943D190F5F1F4F033CB1E01B0751
:1059200070F380919403882309F450C0809193030D
:10593000882309F44BC082E1898380910601882382
:1059400069F083E2E82E05E021E0AE014F5F5F4F92
:1059500060919B0387E495E00E94F40380918E039D
:10596000182F117080FF04C060E081E00E940119CF
:105970008091770381112CC0112321F061E081E037
:105980000E94011961E080E00E94450B809178033C
:10599000811135C080919403882321F08091930375
:1059A000811102C00E94160C8091920383FF04C0F3
:1059B00061E087E00E94D1180E94D01593C89091B1
:1059C000660091500C949A2483E185CF84E1B4CF92
:1059D00080917603882381F26AE070E080E090E0B5
:1059E0000E943D191092770380E00E94A818892B2D
:1059F00061F181E00E94A818892B39F133C0109120
:105A0000920313FF04C060E087E00E94D11820E0F9
:105A100040E06CE272E0CB0116FF0CC00E94DB0597
:105A2000182F81E081270E9422081093080110930B
:105A3000A303B0CF0E94DB0580E00E94220881E032
:105A4000809308018093A303A5CF61E085E00E94C5
:105A5000D1186EE170E080E090E00E943D1960E0B6
:105A600085E00CC061E087E00E94D1186EE170E033
:105A700080E090E00E943D1960E087E00E94D1182C
:105A80007BCFCF93109228041092270488EE93E0E6
:105A9000A0E0B0E08093290490932A04A0932B0403
:105AA000B0932C0429E231E030932604209325049E
:105AB00025EC30E0309332042093310424EC30E0C4
:105AC000309334042093330420EC30E030933604D8
:105AD0002093350421EC30E03093380420933704D0
