:100000000C94E0020C94DD170C94B6170C942F128C
:100010000C94FC110C94C9110C94550A0C9408030F
:100020000C9408030C9408030C9408030C94080324
:100030000C9408030C9408030C9408030C94080314
:100040000C946C170C9408030C94F5150C94CF15B4
:100050000C9408030C9408030C9408030C940803F4
:100060000C9424040C940803207F0000000000007E
:10007000000000065F5F060000000007070007079A
:100080000000147F7F147F7F1400242E6B6B3A12C4
:100090000000466630180C666200307A4F5D377A91
:1000A00048000407030000000000001C3E634100FC
:1000B00000000041633E1C000000082A3E1C1C3E5C
:1000C0002A0808083E3E080800000080E0600000A2
:1000D0000000080808080808000000006060000030
:1000E00000006030180C060301003E7F71594D7FFF
:1000F0003E0040427F7F40400000627359494F6696
:100100000000226349497F360000181C16537F7F88
:100110005000276745457D3900003C7E4B497930CA
:100120000000030371790F070000367F49497F36CD
:100130000000064F49693F1E00000000666600008F
:1001400000000040763600000000081C36634100C5
:1001500000002424242424240000004163361C08C9
:100160000000020351590F0600003E7F415D5D1FF4
:100170001E007C7E13137E7C0000417F7F49497FF7
:1001800036001C3E634141632200417F7F41633E54
:100190001C00417F7F495D416300417F7F491D0114
:1001A00003001C3E6341517372007F7F08087F7F0C
:1001B000000000417F7F41000000307040417F3FE0
:1001C0000100417F7F081C776300417F7F414060D1
:1001D00070007F7F0E1C0E7F7F007F7F060C187FD4
:1001E0007F001C3E6341633E1C00417F7F49090F35
:1001F00006001E3F21717F5E0000417F7F09197F4D
:10020000660022674D597322000003417F7F41033E
:1002100000007F7F40407F7F00001F3F60603F1FE6
:1002200000007F7F3018307F7F0043673C183C67B9
:100230004300074F78784F070000476371594D67B7
:100240007300007F7F41410000000103060C18305D
:1002500060000041417F7F000000080C0603060C8F
:100260000800808080808080808000000307040078
:100270000000207454543C784000417F3F48487847
:100280003000387C44446C280000307848493F7F77
:100290004000387C54545C180000487E7F490302BB
:1002A000000098BCA4A4F87C0400417F7F08047C73
:1002B000780000447D7D4000000060E08080FD7D8E
:1002C0000000417F7F10386C440000417F7F400078
:1002D00000007C7C18381C7C78007C7C04047C78D2
:1002E0000000387C44447C38000084FCF8A4243CA2
:1002F0001800183C24A4F8FC8400447C784C041CAE
:100300001800485C54547424000000043E7F4424C8
:1003100000003C7C40403C7C40001C3C60603C1C3D
:1003200000003C7C7038707C3C00446C3810386CA9
:1003300044009CBCA0A0FC7C00004C64745C4C6439
:10034000000008083E774141000000000077770078
:1003500000004141773E0808000002030103020348
:10036000010070784C464C787000000000002400BA
:1003700027002A0000000000250028002B000000B4
:100380000008000201000003040700000000000054
:100390000000005EBCE2613FDD83C29C7E20A3FDC5
:1003A0001F419DC3217FFCA2401E5F01E3BD3E6053
:1003B00082DC237D9FC1421CFEA0E1BF5D0380DE85
:1003C0003C62BEE0025CDF81633D7C22C09E1D4337
:1003D000A1FF4618FAA427799BC584DA3866E5BBE5
:1003E0005907DB856739BAE406581947A5FB782613
:1003F000C49A653BD987045AB8E6A7F91B45C69845
:100400007A24F8A6441A99C7257B3A6486D85B05F6
:10041000E7B98CD2306EEDB3510F4E10F2AC2F71A4
:1004200093CD114FADF3702ECC92D38D6F31B2ECD2
:100430000E50AFF1134DCE90722C6D33D18F0C5204
:10044000B0EE326C8ED0530DEFB1F0AE4C1291CFB6
:100450002D73CA947628ABF517490856B4EA693764
:10046000D58B5709EBB536688AD495CB2977F4AA92
:100470004816E9B7550B88D6346A2B7597C94A14C4
:10048000F6A8742AC896154BA9F7B6E80A54D78976
:100490006B3500000000230026002900040404043A
:1004A000040404040202020202020303030303031E
:1004B00001020408102040800102040810200102FB
:1004C0000408102000407A10F35A00A0724E180958
:1004D0000010A5D4E80000E87648170000E40B54AB
:1004E000020000CA9A3B000000E1F505000080967A
:1004F0009800000040420F000000A08601000000AC
:10050000102700000000E803000000006400000065
:1005100000000A00000000000100000000002C762E
:10052000D888DC674F0823DFC1DFAE59E1B1B79649
:10053000E5E3E453C63AE651997696E8E6C28426A6
:10054000EB898C9B62ED407C6FFCEFBC9C9F40F282
:10055000BAA56FA5F490055A2AF75C936B6CF967FE
:100560006DC11BFCE0E40D47FEF520E6B500D0EDC3
:10057000902E0300943577050080841E080000202B
:100580004E0A000000C80C333333330F986E1283C9
:100590001141EF8D2114893BE65516CFFEE6DB189D
:1005A000D1844B381BF77C1D901DA4BBE424203262
:1005B00084725E228100C9F124ECA1E53D27A62AC0
:1005C00011241FBECFEFD8E0DEBFCDBF12E0A0E008
:1005D000B1E0E8EFF6E602C005900D92A43CB10749
:1005E000D9F725E0A4ECB2E001C01D92AD3CB20702
:1005F000E1F712E0C0EED2E004C02197FE010E94B4
:10060000B72DCF3DD107C9F70E94361E0C947A331F
:100610000C94000085ED8093BC008091BC0084FDAB
:10062000FCCF10926D04089540918C03262F30E08A
:10063000240F311D21323105DCF420916D0424306A
:10064000C9F4FC0180E090E0861758F430918C03E7
:100650002191DC01A659BC4FA30FB11D2C9301962B
:10066000F3CF80918C03680F60938C0380E0089532
:1006700081E0089582E008950895E0912604809134
:100680002504E81730F4F0E0E95DFB4F808190E04D
:1006900008958FEF9FEF089590912604809125048F
:1006A000981750F4E92FF0E0E95DFB4F208130E02E
:1006B0009F5F9093260402C02FEF3FEFC90108957A
:1006C0008091250490E020912604821B91090895D1
:1006D000CF92DF92EF92FF920F931F93CF93DF930E
:1006E0007C01262F972F8A0180916E04882391F038
:1006F000C62FD72F6E01C40ED51ECC15DD0571F0A7
:100700006991D701ED91FC910190F081E02DC70135
:100710000995F3CF642F822F0E941403C801DF9143
:10072000CF911F910F91FF90EF90DF90CF900895A0
:10073000CF93DF931F92CDB7DEB7698320916E040C
:100740002223D1F020919104203240F021E030E0CA
:10075000FC013383228380E090E015C080916F0418
:10076000E82FF0E0E059FB4F998190838F5F8093F1
:100770006F048093910405C061E0CE0101960E9450
:10078000140381E090E00F90DF91CF9108950895D8
:10079000F8942091B305233021F4209168032111AE
:1007A0000FC02091B305233011F4789407C0DC0109
:1007B000ED91FC910288F389E02D099580E0089580
:1007C000DC01ED91FC910488F589E02D61E009954B
:1007D00081E0089581E08093C6028091C4029091E7
:1007E000C502DC01ED91FC910484F585E02D0995AD
:1007F0001092C6020895CF93DF93EC0161E08A81E5
:100800000E94501689858CBD8A858DBD8091C60257
:10081000811101C07894DF91CF910895FC01F89483
:100820008CB581878DB582878CB5837F8CBD8CB567
:100830008F7D8CBD8CB58C7F8CBD8DB58E7F8DBD35
:1008400060E082810C9450161F920F920FB60F92A7
:1008500011242F933F934F935F936F937F938F93C5
:100860009F93AF93BF93EF93FF938091B900887FDD
:10087000803609F49CC068F5883209F45BC090F4B6
:10088000803109F454C038F4882309F4F6C0883064
:1008900009F44DC0F6C0883109F44CC0803209F427
:1008A0005DC0EFC0803409F468C048F4803309F4B7
:1008B00055C0883309F0E5C080936B04D8C08035FB
:1008C00009F44FC0883509F45DC0883409F0D9C0F7
:1008D000D6C0883909F4C7C0A8F4883709F467C0BE
:1008E00038F4883609F463C0803709F460C0C9C0A1
:1008F000883809F4B8C0803909F45FC0803809F03D
:10090000C0C05BC0803B09F486C038F4803A09F46B
:1009100066C0883A09F47FC0B4C0803C09F4A7C01F
:10092000883C09F4A4C0883B09F48AC0AAC080911D
:10093000480410C090916A0480916904981770F57A
:10094000E0916A0481E08E0F80936A04F0E0E75B37
:10095000FB4F80818093BB0085EC86C080936B0445
:100960008EC0E0916A0481E08E0F80936A048091CA
:10097000BB00F0E0E75BFB4F808390916A048091BD
:1009800069046EC0E0916A0481E08E0F80936A046E
:100990008091BB00F0E0E75BFB4F808380916C04AB
:1009A00081116DC081E08093470484EA61C083E0D7
:1009B00080936D041092B003CFCF8091B00380324A
:1009C00008F051C0E091B00381E08E0F8093B00336
:1009D0008091BB00F0E0E057FC4F8083BDCF85ECF9
:1009E0008093BC0010926D048091B003803230F48B
:1009F000E091B003F0E0E057FC4F10826091B0034B
:100A000070E0E0918E03F0918F0380E993E0099507
:100A10001092B00336C084E080936D0410928D0371
:100A200010928C03E0918A03F0918B0309958091D9
:100A30008C03811105C081E080938C0310926A03BE
:100A4000E0918D0381E08E0F80938D03F0E0E659F5
:100A5000FC4F80818093BB0090918D0380918C032B
:100A6000981708F479CF85E88093BC000AC085EC1C
:100A70008093BC0010926D0404C010926B040E941D
:100A80000A03FF91EF91BF91AF919F918F917F9159
:100A90006F915F914F913F912F910F900FBE0F90EB
:100AA0001F90189510926D0481E080936C04109251
:100AB000470461E082E10E94501661E083E10E94F8
:100AC0005016E9EBF0E080818E7F808380818D7FFE
:100AD000808388E48093B80085E48093BC00089507
:100AE00008958CBD9DBD0895FC0190810180F28127
:100AF000E02DF8948181892B81832281892F809533
:100B000028232283A7E0B0E01197F1F72181822307
:100B10008183A3E2B0E01197F1F780817894EFEC44
:100B2000F0E03197F1F7982381E009F480E008952F
:100B3000FC0190810180F281E02D892F809560FF7A
:100B400012C0F8942281822382838181892B818340
:100B5000A3E2B0E01197F1F78281982B9283789409
:100B600087ED90E011C0F8942281822382838181F5
:100B7000892B8183AFEFB0E01197F1F78281982B39
:100B8000928378948FE090E00197F1F70895FC014B
:100B900090810180F281E02DF8948181292F2095A8
:100BA0008223818378948DE743E050E0815021F1E6
:100BB000DA011197F1F730813923C1F3F89482817A
:100BC000822382838181892B81837894ABE7B7E08C
:100BD0001197F1F7F894818128232183A3E1B1E0F3
:100BE0001197F1F78081982381E009F080E07894F3
:100BF000E3E6F6E03197F1F70895CF93CFB7F89495
:100C000080916903811127C0E6EAF4E08491EAEB60
:100C1000F4E09491E82FF0E0EE0FFF1FE659FC4F4F
:100C2000A591B491EC91E92321F461E08AE00E945E
:100C3000501661E08AE00E9480168CB580618CBD00
:100C40008CB580648CBD61E08DE00E94801661E00F
:100C50008BE00E948016809169038F5F8093690307
:100C6000CFBFCF9108950F931F93CF93DF9300D001
:100C7000CDB7DEB78C01DC01ED91FC91008CF18DDC
:100C8000E02D4A83698309956981862F80680E94D7
:100C90004E0A4A81842F0E944E0AD801ED91FC91A0
:100CA000028CF38DE02DC8010F900F90DF91CF9152
:100CB0001F910F9109941F93CF93DF93EC01162F8F
:100CC000611102C045E501C04DE56AE5CE010E9413
:100CD0003306111102C040E701C04CE76CE5CE01BC
:100CE000DF91CF911F910C943306EF92FF921F93E7
:100CF000CF93DF931F92CDB7DEB77C01DC01ED917E
:100D0000FC91008CF18DE02D698309956981862F16
:100D10008F770E944E0A80E00E944E0A182FD7015A
:100D2000ED91FC91028CF38DE02DC7010995812F87
:100D30000F90DF91CF911F91FF90EF900895CF9387
:100D4000DF93EC016887611102C04AE101C04FE006
:100D500063E1CE010E9433068885882341F061E17A
:100D6000CE010E9475068F71482F406602C04F81E8
:100D7000406861E1CE01DF91CF910C943306CF93AF
:100D8000DF93EC01109267031092660310926503E3
:100D9000109268031092640310926303109262032E
:100DA0001092610368E20E94750682FF0AC06DE33B
:100DB000CE010E947506482F44606DE3CE010E946B
:100DC000330640E465E2CE010E943306E881F981F2
:100DD0000488F589E02D63E0CE01DF91CF9109947D
:100DE000EF92FF921F93CF93DF93EC018091B305B5
:100DF000833001F568E2CE010E94750682FD2EC0A7
:100E000019C0809167038D3330F4E0916703F0E0FF
:100E1000EC5DFC4F1082E881F981028CF38DE02DAE
:100E2000CE010995E881F9810488F589E02D63E018
:100E3000CE01099564E2CE010E94750690E091957D
:100E400081959109959587959093620380936103AD
:100E5000DF91CF911F91FF90EF900895E881F98184
:100E60000488F589E02D61E0CE010995E881F981DA
:100E7000008CF18DE02DCE01099580E00E944E0A94
:100E800080E00E944E0A8093680380916803833457
:100E9000D0F4809168038093680380E00E944E0A3A
:100EA000809365038E81811109C0909165038D81C6
:100EB000981721F0809165038F3F39F48091680382
:100EC000833018F017C082E4E6CF10926803E881FF
:100ED000F981028CF38DE02DCE010995E881F9812D
:100EE0000288F389E02DCE01DF91CF911F91FF9011
:100EF000EF9009948091680383508093670380E0AA
:100F00000E944E0A8093660380E00E944E0A982F4A
:100F1000907890936303982F907490936403E88182
:100F2000F9810684F785E02D682FCE01099510E040
:100F300080916703181708F064CFE12EF12C80E050
:100F40000E944E0AF701EC5DFC4F80831F5FF0CFDB
:100F5000CF92DF92EF92FF920F931F93CF93DF9385
:100F6000EC01F62ED42EC52E122FE881F9810488CB
:100F7000F589E02D61E0099567E2CE010E947506D2
:100F800087FFFACF40E065E2CE010E9433061E33B0
:100F900008F01DE3E11004C0002321F000E403C0C9
:100FA00000E801C000E0E881F981008CF18DE02DBE
:100FB000CE01099580E80E944E0A83E0810F0E94CD
:100FC0004E0A8F2D0E944E0A8D810E944E0A802F5C
:100FD0000E944E0A0D2DED2CFC2C8E2D801B8117AE
:100FE00030F4F70181917F010E944E0AF6CFE8812B
:100FF000F981028CF38DE02DCE010995E881F9810C
:101000000488F589E02D64E0CE0109950E946017FF
:101010006B017C018B810E942716892B81F0E8816E
:10102000F9810488F589E02D61E0CE01DF91CF914F
:101030001F910F91FF90EF90DF90CF9009940E9445
:101040006017DC01CB018C199D09AE09BF09883EF0
:101050009340A105B105F0F2E2CF4F925F926F92FB
:101060007F92AF92BF92CF92DF92EF92FF920F9357
:101070001F93CF93DF93EC015B01F42E1092640376
:1010800010916603C0906103D09062036DE30E94EB
:101090007506482F44606DE3CE010E9433060E941E
:1010A00060172B013C01CE010E94DC09882311F15D
:1010B00010936603E881F9810088F189E02DEE2420
:1010C000E39400E02F2DA501612FCE010995D09268
:1010D0006203C0926103DF91CF911F910F91FF9046
:1010E000EF90DF90CF90BF90AF907F906F905F9028
:1010F0004F9008950E946017DC01CB018419950977
:10110000A609B709883E9340A105B10588F6E88194
:10111000F9810480F581E02DCE010995C4CF0895B1
:10112000282F883038F08E3040F0863148F4ECE6D5
:10113000F0E008C0EDE6F0E005C0EBE6F0E002C04C
:10114000E0E0F0E03081283060F481E090E0A0E061
:10115000B0E004C0880F991FAA1FBB1F2A95D2F7C1
:1011600015C0822F90E0AC012E3018F44850510980
:1011700002C04E50510981E090E0A0E0B0E004C010
:10118000880F991FAA1FBB1F4A95D2F7809583230A
:1011900080830895CF92DF92EF92FF920F931F9377
:1011A000CF93DF936C01EB017B01E40EF51E00E0B1
:1011B00010E0CE15DF0561F06991D601ED91FC914B
:1011C0000190F081E02DC6010995080F191FF1CF9C
:1011D000C801DF91CF911F910F91FF90EF90DF90A9
:1011E000CF9008953F924F925F926F927F928F922D
:1011F0009F92AF92BF92CF92DF92EF92FF920F93A6
:101200001F93CF93DF93EC01162F5A01922E302EAD
:10121000812CCE2CD12CE12CF12C61E070E080E00F
:1012200090E00E94BC16E881F9810190F081E02DE8
:1012300001E0292DA501612FCE0109950E946017BB
:101240002B013C010E946017DC01CB018419950938
:10125000A609B7098C159D05AE05BF05A0F4E88168
:10126000F9810480F581E02DCE010995882351F3A1
:1012700090916603911711F01F3F21F7909163033E
:10128000911105C0DFCF8394381438F680E0DF91E8
:10129000CF911F910F91FF90EF90DF90CF90BF9073
:1012A000AF909F908F907F906F905F904F903F9006
:1012B0000895CF93DF93EC01603208F06FE16F8304
:1012C0008885882311F066956F8361E1CE010E94C5
:1012D0007506807E9F81482F492B61E1CE01DF9109
:1012E000CF910C9433061F93CF93DF932091B305D6
:1012F000621709F45DC0162FEC016230E9F168F461
:10130000662309F440C0613009F052C061E00E94D8
:101310007506837E482F44603BC06330B9F064306B
:1013200009F046C061E00E947506837E482F4C603C
:1013300061E0CE010E9433068885882369F1E88147
:10134000F9810688F789E02D61E013C061E00E9411
:101350007506837E482F406161E0CE010E9433060E
:1013600088858823C9F0E881F9810688F789E02D0E
:1013700060E0CE01099510C061E00E947506837E91
:10138000482F486005C061E00E947506482F437EE3
:1013900061E0CE010E9433068091B305811106C041
:1013A00067E2CE010E94750687FFF6CF1093B30562
:1013B000DF91CF911F910895CF93DF932091B305D3
:1013C0002330C9F420916803211115C0EC0164E2B7
:1013D0000E94750690E09195819591098C349F4FFC
:1013E00054F4E881F9810488F589E02D61E0CE01AB
:1013F000099581E001C080E0DF91CF9108958F923F
:101400009F92AF92BF92CF92DF92EF92FF920F9393
:101410001F93CF93DF93EC01162F6A01F22E6DE339
:101420000E947506482F44606DE3CE010E9433068A
:101430000E9460174B015C01CE010E94DC098823E9
:10144000C1F0E881F9810088F189E02DE12C2F2D90
:10145000A601612FCE010995DF91CF911F910F91C8
:10146000FF90EF90DF90CF90BF90AF909F908F90C4
:1014700008950E946017DC01CB0188199909AA0917
:10148000BB09883E9340A105B105D8F6E881F981F2
:101490000480F581E02DCE010995CECF8EBD0000F0
:1014A0000DB407FEFDCF8EB508951F920F920FB6B3
:1014B0000F9211248F9383B78E7F83BF8F910F90EC
:1014C0000FBE0F901F901895CF93DF93C0E1D7E226
:1014D00061E085E00E94501660E085E00E945016B1
:1014E0002197B1F7DF91CF910895CF93DF93C82F64
:1014F000D62F60E080E00E94501660E081E00E94FC
:10150000501680E00E942716892B29F081E00E9466
:101510002716892B11F480E071C0DD2309F467C020
:10152000D0911A0480911904D81709F466C0CCE34D
:1015300061E080E00E94801665E070E080E090E06D
:101540000E94BC1661E081E00E94801664E170E0B8
:1015500080E090E00E94BC1660E080E00E9480166F
:1015600065E070E080E090E00E94BC1660E081E001
:101570000E94801664E170E080E090E00E94BC165A
:10158000C150B1F66AE070E080E090E00E94BC16C5
:10159000CD1751F161E081E00E94801665E070E0B6
:1015A00080E090E00E94BC1661E080E00E9480161E
:1015B00064E170E080E090E00E94BC1660E081E0B1
:1015C0000E94801665E070E080E090E00E94BC160A
:1015D00060E080E00E94801664E170E080E090E0CE
:1015E0000E94BC16CF5FD4CFC093190406C0C6308A
:1015F00020F0CC0FC950C0931A0481E0DF91CF9145
:1016000008954F925F926F927F928F929F92AF92C6
:10161000BF92CF92DF92EF92FF920F931F93CF93DF
:10162000DF93CDB7DEB768970FB6F894DEBF0FBE75
:10163000CDBF2C013B01142F6DE370E00E946B3095
:10164000B82EF30101900020E9F731976F01C61819
:10165000D708FC2C111102C004E001C006E00E9472
:101660006017209115043091160440911704509191
:101670001804DC01CB01821B930BA40BB50B80314A
:101680009742A105B10568F00E94601760931504A8
:1016900070931604809317049093180481E080934C
:1016A0000501460199248B0C911CA02EB12CC4017C
:1016B0008A0D9B1DCE970CF0C2C080910501882336
:1016C00009F449C020911404C401820F911D8A0DB0
:1016D0009B1DCE9724F4F1103EC02223E1F198EC3B
:1016E000E92E05E046ED53E06091070384EB95E0B9
:1016F0000E94F20881112DC06091050370E080E026
:1017000090E00E947A2E26E636E646EA5FE30E94E3
:10171000782F0E94432E0E94BC162091140446ED9F
:1017200053E06091070384EB95E00E94F208082FD4
:1017300081110FC00E947E0C0E94601760931504F7
:101740007093160480931704909318041092050167
:1017500094C01092140480911404282F30E0820E5B
:10176000931EA80CB91C9DE3A916B1040CF084C00B
:10177000FF2009F47DC0882341F08F5F809314041B
:10178000F901EA52FC4F8CE28083E091140451E0AD
:101790005E0F50931404F0E0EA52FC4F82E2808323
:1017A00090E0892F850FF201E90FF11D4081282F6C
:1017B00030E0F901EA52FC4F442319F040839F5F67
:1017C000F0CF92E29083E2E0E80FE0931404A1E00E
:1017D000A80FB0E0AA52BC4F2AE32C93112339F092
:1017E0008D5F80931404F0E0EA52FC4F9083509197
:1017F0001404262DD301452F4619842F8A0F90E01B
:101800003D918A529C4FFC0130838A2F821B8F1599
:10181000A0F3C50EC0921404112351F081E08C0D89
:1018200080931404EC2DF0E0EA52FC4F82E28083B6
:10183000E0911404F0E0EA52FC4F108219C088E1F4
:10184000EFE5F2E0DE01119601900D928A95E1F745
:1018500088ECE82E05E028E1AE014F5F5F4F609114
:10186000070384EB95E00E94F2080E947E0C04C0FE
:101870000E947E0C01E001C000E0802F68960FB648
:10188000F894DEBF0FBECDBFDF91CF911F910F91B6
:10189000FF90EF90DF90CF90BF90AF909F908F9090
:1018A0007F906F905F904F9008950F931F93CF9309
:1018B000DF9300D000D01F92CDB7DEB78C01862F0A
:1018C0004AE0BE016F5F7F4F90E00E94763040E0BB
:1018D000BE016F5F7F4FC8010E94010B40E068EAC4
:1018E00072E0CB010E94010B0F900F900F900F90B0
:1018F0000F90DF91CF911F910F9108952F923F92FA
:101900004F925F926F927F928F929F92AF92BF920F
:10191000CF92DF92EF92FF920F931F93CF93DF93BB
:10192000CDB7DEB7CE5ED1090FB6F894DEBF0FBEDD
:10193000CDBF84EB95E00E94C803882E882309F46C
:1019400095C38091FE0283FF04C061E085E00E94A0
:101950005016E09066038091610390916203F090CD
:1019600067030F2D10E0A80164E273E0CE018F55EC
:101970009F4F0E94EA2F80916403882329F0809171
:1019800065038F3F09F077C384EB95E00E94C8039D
:1019900060910703E61256C3E1EAF0E0EC0FFD1F89
:1019A000E00FF11F1082912C8E010F551F4FE4E1C3
:1019B0006E2EF4E17F2E62E27FE2C8010E94F32FD7
:1019C000009709F08C016FE570E0C8010E94F32FC9
:1019D0005C01292D30E0009709F48BC07C01E01AEE
:1019E000F10A81E0E81AF108B8016F5F7F4F629E4B
:1019F0006001639ED00C1124A70181E090E08C0F60
:101A00009D1F8C0D9D1D0E941E30EC0CFD1CE1E005
:101A1000F0E0EC0FFD1FEE0DFF1D1082CC24C394EF
:101A2000C90C85010F5F1F4F62E27FE2C8010E946F
:101A3000F32F5C01009711F49C2CBDCF7C01E01AC0
:101A4000F10A7C9C60011124A701B80181E090E0BB
:101A50008C0F9D1F8C0D9D1D0E941E30EC0CFD1CDB
:101A6000E1E0F0E0EC0FFD1FEE0DFF1D108272E0D3
:101A7000E72EE90C85010F5F1F4F62E27FE2C8018C
:101A80000E94F32F009711F49E2C95CF8C010F5FCD
:101A90001F4F62E27FE2C8010E94F32F5C010097B2
:101AA00099F36C01C01AD10A7E9C70011124A60121
:101AB000B80181E090E08C0F9D1F8E0D9F1D0E944C
:101AC0001E30EC0CFD1CE1E0F0E0EC0FFD1FEE0D14
:101AD000FF1D108263E0E62EE90C85010F5F1F4FAA
:101AE00062E27FE2C8010E94F32F009769F28C0145
:101AF000CBCF44E1429FC001439F900D112444E1AC
:101B000050E0B801E1E0F0E0EC0FFD1F8E0F9F1FE9
:101B10000E941E30C451DF4F1882CC5ED04010E0CE
:101B200004E157E7452E5FE5552E612C712C2EED13
:101B300030E02C0F3D1F2C5F3F4FC351DF4F3983E7
:101B40002883CD5ED040A12EB12C67E772E081E002
:101B500090E08C0F9D1F019F800D911D11240E940C
:101B6000FE2F892B09F065C0C5010196089F700101
:101B7000099FF00C112481E090E08C0F9D1FE80E6E
:101B8000F91EC7010E944D306C019FE1C916D104B6
:101B90000CF04FC0E2E0AE0EB11C0A9DC0010B9DDF
:101BA000900D112421E030E02C0F3D1F820F931F78
:101BB0000E944D30682FC601805090400E946C33C7
:101BC000C7010E944D306C01805090400E945A33F2
:101BD000F601E651FD4F8083C252DF4F48825982A1
:101BE0006A827B82CE5DD040C351DF4FE881F981AC
:101BF000CD5ED04026E011922A95E9F742E050E010
:101C0000B701CE0182529F4F0E940E30C7010E9441
:101C10004D3086519D4FFC016081CE0182529F4F15
:101C20000E94550C1E5F21E0C451DF4F2883CC5E1B
:101C3000D040E12EF12C61EF71E081E090E08C0F5B
:101C40009D1F019F800D911D11240E94FE2F892B45
:101C5000A1F5C252DF4F488259826A827B82CE5DF3
:101C6000D040C351DF4FE881F981CD5ED04026E0FE
:101C700011922A95E9F7C7010196089F7001099F03
:101C8000F00C112481E090E08C0F9D1FE80EF91EEE
:101C900042E050E0B701CE0182529F4F0E940E30C9
:101CA000C7010E944D3086519D4FFC016081CE01DD
:101CB00082529F4F0E94550C1E5F212E312CAA2468
:101CC000A394B12CAC0EBD1E019FA00CB11C11241D
:101CD00069E772E0C5010E94FE2F892B49F066E09A
:101CE00072E0C5010E94FE2F892B09F446C08AC00C
:101CF0003AEEC32E32E0D32EE12CF12CF601808196
:101D0000882381F1C252DF4F488259826A827B82E6
:101D1000CE5DD040CE51DF4F1882C25ED0404AE047
:101D2000BE0168517F4FC7010E94763044E050E009
:101D3000BE0168517F4FCE0182529F4F0E940E30EC
:101D4000F60180814AE0BE0168517F4F90E00E9419
:101D5000763041E0BE0168517F4FCE0182529F4FE5
:101D60000E94010BFFEFEF1AFF0A2FEFC21AD20AEF
:101D70003FE1E316F10411F6B2CFC1010196089FCD
:101D80007001099FF00C112481E090E08C0F9D1FE1
:101D9000E80EF91EC7010E944D3086519D4FFC018F
:101DA000808185FD1092E502F2E02F0E311C029D2C
:101DB0006001039DD00C112421E030E02C0F3D1F69
:101DC000C20ED31E6EE772E0C6010E94FE2F892B61
:101DD00039F4C7010E944D308E5E9E4F61E00DC008
:101DE00060E872E0C6010E94FE2F892B51F4C70102
:101DF0000E944D308E5E9E4F60E0FC0180810E940B
:101E000050161E5FE12EF12CCC24C394D12CCC0EA5
:101E1000DD1E019FC00CD11C112462E872E0C601D6
:101E20000E94FE2F892B11F597012E5F3F4F029FD5
:101E3000C001039F900D112466E872E021E030E0BC
:101E40002C0F3D1F820F931F0E94FE2F892B71F4D0
:101E500061E087E00E94501664E670E080E090E068
:101E60000E94BC1660E087E00E9450166CE872E0A9
:101E7000C6010E94FE2F892BD1F497012E5F3F4FA0
:101E8000029FC001039F900D112441E150E061E2E7
:101E900070E0E1E0F0E0EC0FFD1F8E0F9F1F0E944D
:101EA000623321E0C451DF4F2883CC5ED0406BEF1A
:101EB00071E0C6010E94FE2F892B09F05EC080915F
:101EC000FA0283FF2CC0C7010196089F6001099F99
:101ED000D00C112481E090E08C0F9D1FC80ED91EFC
:101EE000C6010E944D3062E0680F4CE952E084E088
:101EF0000E94321AC6010E944D3092E0E90EF11C98
:101F00000E9DA0010F9D500D1124E1E0F0E0EC0FBB
:101F1000FD1F4E0F5F1F62E0680F84E02BC084FF3F
:101F20002BC0C7010196089F6001099FD00C1124A6
:101F300021E030E02C0F3D1FC20ED31EC6010E94CF
:101F40004D3040E952E0682F80E00E94321AC6010D
:101F50000E944D3032E0E30EF11C0E9DA0010F9D5A
:101F6000500D1124E1E0F0E0EC0FFD1F4E0F5F1F5C
:101F7000682F80E00E94321A1E5FE12EF12CCC24E3
:101F8000C394D12CCC0EDD1E019FC00CD11C11249A
:101F900063E072E0C6010E94FE2F892BE1F4F2E0BB
:101FA000EF0EF11C0E9DC0010F9D900D112421E03C
:101FB00030E02C0F3D1F820F931F0E944D3060E0D8
:101FC0000E94750A811107C041E069EA72E08FEE54
:101FD00091E00E94010B62E172E0C6010E94FE2FB7
:101FE000892B69F40E9460176093E6027093E70200
:101FF0008093E8029093E9021092E5021E5F1F5F52
:10200000911608F0A0CDC451DF4F3881CC5ED0408E
:10201000332319F141E061EB72E08EEB92E00E9414
:10202000010B40E068EA72E0CB010E94010B98E0EE
:1020300088E10FB6F894A895809360000FBE909346
:102040006000FFCF88ECE82E05E02F2DAE014F5544
:102050005F4F84EB95E00E94F2088091FE0283FFBF
:1020600012C060E085E00E9450160DC084EB95E040
:102070000E94C80308C040E068EA72E084EB95E083
:102080000E942D0881CC882DC251DF4F0FB6F894E5
:10209000DEBF0FBECDBFDF91CF911F910F91FF909B
:1020A000EF90DF90CF90BF90AF909F908F907F90F8
:1020B0006F905F904F903F902F90089584B7877FE7
:1020C00084BFE0E6F0E0808188618083108208951B
:1020D000883038F08E3040F0863148F4ECE6F0E09D
:1020E00008C0EDE6F0E005C0EBE6F0E002C0E0E09D
:1020F000F0E09081883068F441E050E060E070E00A
:10210000082E04C0440F551F661F771F0A94D2F78C
:1021100014C0282F30E08E3018F42850310902C046
:102120002E50310941E050E060E070E004C0440FFF
:10213000551F661F771F2A95D2F7492B40832BB373
:10214000883050F031E08E3008F430E091E001C08A
:10215000990F3A95EAF701C094E0922B9BBB9091BE
:102160006800883050F021E08E3008F420E081E0F3
:1021700001C0880F2A95EAF701C084E0892B80937B
:10218000680008952F923F924F925F926F927F92D4
:102190008F929F92AF92BF92CF92DF92EF92FF9277
:1021A0000F931F93CF93DF93CDB7DEB72E970FB664
:1021B000F894DEBF0FBECDBF90910701892B8093AD
:1021C000070182E191E09D878C8787ECA82E82E051
:1021D000B82E0AEE12E0C12CD12C88248394912CC5
:1021E00020E7222E2FE5322E412C512CFC2CEC85A1
:1021F000FD85E190FD87EC878E2DDE860E942716F7
:1022000021E03E85019709F020E0622E712C80913B
:102210001B04482F50E00F2C02C0559547950A9497
:10222000E2F7417055276416750629F4909107016D
:10223000992309F485C0F801908196FF45C0298251
:102240003A824B825C821D824AE0BE01675F7F4F0B
:102250008F2D932F2E870E94763042E050E0BE01F2
:10226000675F7F4FCE0101960E940E304AE0BE01AB
:102270006A5F7F4FC3010E94763041E0BE016A5F12
:102280007F4FCE0101960E94010B2E858823B1F06D
:1022900030911B04222349F0A40101C0440FFA9499
:1022A000EAF7432B40931B0409C0C40101C0880F07
:1022B000FA94EAF78095832380931B04F1E0F0936E
:1022C000E402222391F115C0222349F0940101C0B8
:1022D000220FFA94EAF7822B80931B040AC0940120
:1022E00001C0220FFA94EAF72095822380931B0401
:1022F0001CC0F801808183FF04C08E2D0E946810ED
:1023000003C08E2D0E949008F801808187FF18C0BD
:10231000F50180819181A281B3810196A11DB11D3A
:1023200080839183A283B3830BC0F801808182FFF5
:1023300004C08E2D0E94681003C08E2D0E9490084C
:10234000FFEFCF1ADF0A84E0A80EB11C0F5F1F4F0A
:1023500097E0C916D10409F049CF1092070180E037
:102360002E960FB6F894DEBF0FBECDBFDF91CF9192
:102370001F910F91FF90EF90DF90CF90BF90AF90A3
:102380009F908F907F906F905F904F903F902F9095
:1023900008951F920F920FB60F9211242F933F931F
:1023A0004F935F936F937F938F939F93AF93BF935D
:1023B000CF93EF93FF9383B78E7F83BFC0910501C7
:1023C0001092050180E00E94C210C093050181E0D7
:1023D0008093E302FF91EF91CF91BF91AF919F91D5
:1023E0008F917F916F915F914F913F912F910F90BE
:1023F0000FBE0F901F9018951F920F920FB60F925D
:1024000011242F933F934F935F936F937F938F93F9
:102410009F93AF93BF93CF93EF93FF9383B78E7F39
:1024200083BFC09105011092050180E00E94C21097
:10243000C093050181E08093E302FF91EF91CF917A
:10244000BF91AF919F918F917F916F915F914F91CC
:102450003F912F910F900FBE0F901F9018951F92D4
:102460000F920FB60F9211242F933F934F935F93C8
:102470006F937F938F939F93AF93BF93CF93EF937C
:10248000FF9383B78E7F83BFC09105011092050132
:1024900080E00E94C210C093050181E08093E302B6
:1024A000FF91EF91CF91BF91AF919F918F917F91CC
:1024B0006F915F914F913F912F910F900FBE0F90B1
:1024C0001F901895CF92DF92EF92FF920F931F9378
:1024D000CF93DF936C017A018B01C0E0D0E0CE1581
:1024E000DF0589F0D8016D918D01D601ED91FC9148
:1024F0000190F081E02DC6010995892B11F47E0130
:1025000002C02196ECCFC701DF91CF911F910F91AF
:10251000FF90EF90DF90CF900895FC01918D828D18
:10252000981761F0828DDF01A80FB11D5D968C9127
:10253000928D9F5F9F73928F90E008958FEF9FEF32
:102540000895FC01918D828D981731F0828DE80FEE
:10255000F11D858D90E008958FEF9FEF0895FC01A8
:10256000918D228D892F90E0805C9F4F821B910975
:102570008F739927089582E994E00E94AF1221E0B9
:10258000892B09F420E0822F0895FC01848DDF015E
:10259000A80FB11DA35ABF4F2C91848D90E00196D6
:1025A0008F739927848FA689B7892C93A089B189C5
:1025B0008C9180648C93938D848D981306C00288CF
:1025C000F389E02D80818F7D80830895EF92FF92C3
:1025D0000F931F93CF93DF93EC0181E0888F9B8D46
:1025E0008C8D981305C0E889F989808185FD24C008
:1025F000F62E0B8D10E00F5F1F4F0F731127E02E8B
:102600008C8DE8120CC00FB607FCFACFE889F98967
:10261000808185FFF5CFCE010E94C512F1CF8B8D51
:10262000FE01E80FF11DE35AFF4FF0820B8FEA899C
:10263000FB898081806207C0EE89FF896083E88919
:10264000F98980818064808381E090E0DF91CF917F
:102650001F910F91FF90EF900895CF93DF93EC01BE
:10266000888D8823C9F0EA89FB89808185FD05C0B2
:10267000A889B9898C9186FD0FC00FB607FCF5CFEC
:10268000808185FFF2CFA889B9898C9185FFEDCF34
:10269000CE010E94C512E7CFDF91CF91089580E06F
:1026A00090E0892B29F00E94BB1281110C9400004C
:1026B0000895833081F028F4813099F08230A1F0C0
:1026C00008958730A9F08830B9F08430D1F4809132
:1026D00080008F7D03C0809180008F778093800081
:1026E000089584B58F7702C084B58F7D84BD089529
:1026F0008091B0008F7703C08091B0008F7D809370
:10270000B00008953FB7F89480912104909122047D
:10271000A0912304B091240426B5A89B05C02F3FA7
:1027200019F00196A11DB11D3FBFBA2FA92F982FF7
:102730008827820F911DA11DB11DBC01CD0142E072
:10274000660F771F881F991F4A95D1F7089508953E
:1027500080E00895DC011A96ED91FC911B9720E032
:1027600030E00994DC011696ED91FC91179720E07A
:1027700030E040E069E10994DC011696ED91FC91AE
:10278000179720E030E040E068E109949A01DC010D
:102790001696ED91FC911797462F67E10994EF92F9
:1027A000FF920F931F93CF93DF931F92CDB7DEB7A6
:1027B0007C018B01D8016C916731E1F078F46531CF
:1027C000A0F1F80141814983D7011696ED91FC9162
:1027D000179720E030E0C701099524C06A31A8F0BE
:1027E0006E3F19F5F8014181498369E2C7010E94F2
:1027F000AA1318C0F80181818983AE014F5F5F4F32
:1028000061E0C7010E94C6130DC00F5F1F4FD701C3
:102810001696ED91FC91179720E030E040E0C7015B
:102820000995C8CF0E5F1F4FC5CF0F90DF91CF9195
:102830001F910F91FF90EF900895462FDC0116969F
:10284000ED91FC91179720E030E066E10994462F66
:10285000DC011696ED91FC91179720E030E065E1E0
:102860000994EF92FF920F931F93CF93DF93EC01A4
:10287000142F79016D30A9F118F46B3039F15FC074
:102880006E3009F441C06F3009F059C00E94BC138A
:10289000F70183810889F8E08F9F000D112460E41F
:1028A000CE010E942714602F62956F706061CE0187
:1028B0000E942714602F6F70CE010E941D14F70133
:1028C0006481606BCE010E941D1429C0411103C0B8
:1028D00064E371E002C06FE271E0CE010E94CF13A9
:1028E00071C0411108C068E271E00E94CF13E88115
:1028F000F981828907C061E271E00E94CF13E8810B
:10290000F9818389888B5EC00E94BC1361E8CE0187
:102910000E942714612FCE010E941D140CC0F701E4
:10292000408151816281660F660F660FCE010E9461
:10293000C6131150A1F7CE010E94B21343C06930F3
:1029400031F48EE691E099838883188A3BC06A301F
:10295000B9F5EA85FB8520E030E040E068E2CE0191
:102960000995EE81FF8120E030E040E064E1CE0196
:10297000099541E06BE4CE010E94AA13E881F98138
:10298000448169E2CE010E94AA1340E06BE4CE01CB
:102990000E94AA13E881F981448169E2CE010E9474
:1029A000AA1341E06BE4CE010E94AA13E881F981E9
:1029B000458169E2CE010E94AA1369E371E08DCFDF
:1029C00080E001C081E0DF91CF911F910F91FF90D6
:1029D000EF900895DC011896ED91FC91199720E095
:1029E00030E040E069E10994DC011896ED91FC913A
:1029F000199720E030E040E068E10994662329F06F
:102A00006A3019F0862F90E008958FEF9FEF0895B8
:102A10000E94E52FCF93DF931F92CDB7DEB7698376
:102A2000BE016F5F7F4F0E94871C0F90DF91CF9197
:102A30000895EF92FF921F93CF93DF93EC01162F2F
:102A40007A010E94F41460E4CE010E940A15E88520
:102A5000F9859701412F67E1CE010995CE01DF91FC
:102A6000CF911F91FF90EF900C94EA14EF92FF9298
:102A70001F93CF93DF9300D0CDB7DEB77C01142F27
:102A8000673128F4653140F4643149F141C0673160
:102A900091F06A3170F03CC00E94F41460E0C7010C
:102AA0000E940A15612FC7010E940A15C7010E94E2
:102AB000EA1481E02EC0A901193160F068E1C70174
:102AC00029833A830E941915185129813A81285E79
:102AD0003F4FF1CF612FC7010E941915EACFDC01EA
:102AE00052968C9152978F3F19F488E752968C93A7
:102AF000D7011896ED91FC911997412F64E1C70118
:102B00000F900F90DF91CF911F91FF90EF9009945C
:102B100080E00F900F90DF91CF911F91FF90EF9089
:102B20000895FC01962F6831F1F0B901993150F404
:102B3000943169F0973189F550E08FE295E00E9479
:102B400068030FC0993131F1903259F026C01092CC
:102B500026041092250410926F04109291040E9492
:102B6000520581E00895A081B1811D968C91843039
:102B700018F08CE08093B800828990E09595879555
:102B800091E090936E048093900410926F041092E1
:102B90009104E7CF0E94031DE4CF80E008951F92C7
:102BA0000F920FB60F9211242F933F934F935F9381
:102BB0006F937F938F939F93AF93BF93EF93FF9305
:102BC00082E994E00E94C512FF91EF91BF91AF910D
:102BD0009F918F917F916F915F914F913F912F9135
:102BE0000F900FBE0F901F9018951F920F920FB667
:102BF0000F9211242F938F939F93EF93FF93E09164
:102C0000A204F091A3048081E091A804F091A904AA
:102C100082FD12C090818091AB048F5F8F732091F1
:102C2000AC04821751F0E091AB04F0E0EE56FB4F9C
:102C3000958F8093AB0401C08081FF91EF919F91AC
:102C40008F912F910F900FBE0F901F901895CF93DB
:102C5000DF93282F30E0F901E258FC4F8491F9010D
:102C6000E055FB4FD491F901E456FB4FC491CC23BE
:102C700091F081110E945913EC2FF0E0EE0FFF1F2D
:102C8000EE56FB4FA591B491EC91ED2381E090E0DD
:102C900021F480E002C080E090E0DF91CF910895C0
:102CA0001F93CF93DF93282F30E0F901E258FC4FB8
:102CB0008491F901E055FB4FD491F901E456FB4FA3
:102CC000C491CC23C9F0162F81110E945913EC2F07
:102CD000F0E0EE0FFF1FEC58FC4FA591B4918FB7B9
:102CE000F894111105C09C91ED2FE095E92302C0E5
:102CF000EC91ED2BEC938FBFDF91CF911F91089555
:102D0000CF93DF9390E0FC01E055FB4F2491FC0151
:102D1000E456FB4F8491882361F190E0880F991F5E
:102D2000FC01E659FC4FC591D491FC01EC58FC4FD5
:102D3000A591B491611109C09FB7F894888120953D
:102D400082238883EC912E230BC0623061F49FB7FD
:102D5000F8943881822F809583238883EC912E2BE1
:102D60002C939FBF06C08FB7F894E8812E2B288341
:102D70008FBFDF91CF9108958F929F92AF92BF92B4
:102D8000CF92DF92EF92FF926B017C010E9482133F
:102D90004B015C01C114D104E104F104F1F00E9483
:102DA0008213DC01CB0188199909AA09BB09883E65
:102DB0009340A105B10570F321E0C21AD108E108E2
:102DC000F10888EE880E83E0981EA11CB11CC11486
:102DD000D104E104F10419F7DDCFFF90EF90DF900B
:102DE000CF90BF90AF909F908F9008951F93CF93F7
:102DF000DF93EC01962F642F9C3270F49A3208F026
:102E000058C0983289F0993209F03EC070E080E0F5
:102E100090E00E94BC164DC09D32B1F0A8F184EB49
:102E2000890F823000F130C06B9610E089918F3F9E
:102E300039F0103110F461E001C062E00E948016A8
:102E40001F5F163199F735C0433018F082E090E0EB
:102E500002C085E090E0880F991F880F991F0597A1
:102E60000197F1F726C09F73C90FD11D411107C00B
:102E700061E08B8D0E94801660E08B8D10C062E057
:102E80008B8D0E94801615C09034A8F09F73FE01B0
:102E9000E90FF11D838D8F3F61F0903118F40E948E
:102EA000501607C00E94271621E0892B09F420E064
:102EB0002E8B81E001C080E0DF91CF911F910895BA
:102EC0002FB7F89460911D0470911E0480911F0427
:102ED000909120042FBF08951F920F920FB60F926A
:102EE00011242F933F938F939F93AF93BF93809120
:102EF0001D0490911E04A0911F04B09120043091F4
:102F00001C0423E0230F2D3720F40196A11DB11DD1
:102F100005C026E8230F0296A11DB11D20931C04B5
:102F200080931D0490931E04A0931F04B09320046B
:102F30008091210490912204A0912304B091240453
:102F40000196A11DB11D8093210490932204A093AA
:102F50002304B0932404BF91AF919F918F913F912F
:102F60002F910F900FBE0F901F9018951F920F92E8
:102F70000FB60F9211242F933F934F935F936F934C
:102F80007F938F939F93AF93BF93EF93FF93E091C2
:102F90000201F09103010995FF91EF91BF91AF916B
:102FA0009F918F917F916F915F914F913F912F9161
:102FB0000F900FBE0F901F9018951F920F920FB693
:102FC0000F9211242F933F934F935F936F937F93AF
:102FD0008F939F93AF93BF93EF93FF93E091000183
:102FE000F09101010995FF91EF91BF91AF919F91F0
:102FF0008F917F916F915F914F913F912F910F90A2
:103000000FBE0F901F901895462FDC011496ED917E
:10301000FC91159720E030E06BE00994CF93DF93AB
:10302000DC011C96ED91FC911D9784913196E49101
:10303000681720F1E61710F170E0681B710983E052
:10304000660F771F8A95E1F7CB010296EA01665F6A
:103050007F4F1C96ED91FC911D97E80FF91FE491AD
:10306000E993019686179707A1F751968C918823CB
:1030700099F0FA019A01285F3F4F08C0FA01CA018E
:1030800008961192E817F907E1F7EFCF8081809554
:103090008193E217F307D1F7DF91CF910895AF92B3
:1030A000BF92CF92DF92EF92FF920F931F93CF9335
:1030B000DF93CDB7DEB72D970FB6F894DEBF0FBE06
:1030C000CDBFFC01F6A86A3021F4F394F6AA15AA44
:1030D00023C08C01E5A86C0184E0C80ED11CDE0180
:1030E00011965D01AD01C6010E940E18EC86FD86A9
:1030F00081E08B87BA86A986D8011896ED91FC915C
:1031000019979E01275F3F4F41E06FE0C601099587
:10311000F80185A98F5F85AB81E090E02D960FB611
:10312000F894DEBF0FBECDBFDF91CF911F910F91FD
:10313000FF90EF90DF90CF90BF90AF900895AF9247
:10314000BF92CF92DF92EF92FF920F931F93CF9394
:10315000DF93CDB7DEB72D970FB6F894DEBF0FBE65
:10316000CDBFE82EA62E109295058A01F12CCE0136
:1031700001966C01BB24B394F80161918F01E09139
:103180008205F091830580E895E009958F3FFFEF78
:103190009F07F1F08E3F2FEF920771F3A601682F82
:1031A00080E895E00E940E18EC86AD86BB86DA8634
:1031B000C986E0918405F09185059E01275F3F4F08
:1031C00041E06FE080E895E00995E394F394D4CF73
:1031D0008F2D2D960FB6F894DEBF0FBECDBFDF91B9
:1031E000CF911F910F91FF90EF90DF90CF90BF9004
:1031F000AF900895CF93DF93C82F809144058F3F00
:1032000039F580913B0591E090936E048093900492
:1032100010926F04109291046C2F8FE295E00E943F
:1032200098030E94031D62E080913B050E94A51D4A
:103230008FE295E00E944C03C82F8FE295E00E9438
:103240004C0320E030E03C2FE901C82BD92B29C0EA
:10325000809147058F3F21F482E591E00E9471053E
:1032600060E0809144050E9450168C2F80680E9477
:10327000C21C80E00E94C21CC82F80E00E94C21CB9
:103280002C2F30E0322F2227E901C82B61E08091FA
:1032900044050E945016809147058F3F11F40E940B
:1032A0007005CE01DF91CF9108950E94FA189827FA
:1032B000892798270895CF9386E780933B058091CF
:1032C00044058F3F59F41092260410922504109261
:1032D0006F04109291040E9452051CC061E00E948C
:1032E000501661E0809144050E9480168091470548
:1032F0008F3F19F40E94FD050DC061E00E94801609
:1033000061E0809145050E94801660E0809146054D
:103310000E94801680ED0E94F01D883519F08036DD
:1033200009F09DC088E80E94551990934905809343
:1033300048058AE80E94551990934B0580934A05E9
:103340008CE80E94551990934D0580934C058EE8AA
:103350000E94551990934F0580934E0580E90E9475
:103360005519909351058093500582E90E94551993
:10337000909353058093520584E90E9455199093C8
:1033800055058093540586E90E9455199093570579
:103390008093560588E90E945519909359058093AA
:1033A00058058AE90E94551990935B0580935A0548
:1033B0008CE90E94551990935D0580935C058EE918
:1033C0000E94551990935F0580935E0581EA0E94E3
:1033D000F01D8093600581EE0E945519909362055F
:1033E0008093610583EE0E94F01D8093630584EE57
:1033F0000E94F01DC82F85EE0E94F01D282F2F700F
:1034000030E1C39FC0011124822B90936505809306
:10341000640586EE0E94F01DC82F85EE0E94F01D07
:1034200090E024E0959587952A95E1F740E1C49FC7
:1034300090011124822B932B90936705809366054E
:1034400087EE0E94F01D8093680565E082EF0E9480
:10345000601D67EB84EF0E94601D81E001C080E089
:10346000CF9108952EEF34E13093830520938205A8
:103470000C949F18EF92FF920F931F93CF93DF93BB
:10348000EC0161E084EB95E00E9473092097C1F0A4
:1034900084EB95E00E940E048EEB0E944E0A8E0192
:1034A0007E0180E1E80EF11CF80181918F010E94FC
:1034B0004E0A0E151F05C1F784EB95E00E94FB0331
:1034C0006DE384EB95E00E9475068E7F41E0CD2B85
:1034D00009F440E0482B6DE384EB95E0DF91CF9158
:1034E0001F910F91FF90EF900C943306CF92DF92D3
:1034F000EF92FF92CF93C82F809144058F3F09F040
:1035000040C080913B0591E090936E0480939004BD
:1035100010926F04109291046C2F8FE295E00E943C
:1035200098030E94031D63E080913B050E94A51D46
:103530008FE295E00E944C036C01990FEE08FF08A2
:10354000FE2CED2CDC2CCC248FE295E00E944C0369
:10355000AC01990F660B770BC42AD52AE62AF72A05
:10356000FE2CED2CDC2CCC248FE295E00E944C0349
:10357000AC01990F660B770BC42AD52AE62AF72AE5
:1035800033C0809147058F3F21F482E591E00E948E
:10359000710560E0809144050E9450168C2F806870
:1035A0000E94C21C80E00E94C21CC82ED12CE12CBB
:1035B000F12CFE2CED2CDC2CCC2480E00E94C21CD3
:1035C000C82AFE2CED2CDC2CCC2480E00E94C21CEE
:1035D000C82A61E0809144050E94501680914705F9
:1035E0008F3F11F40E947005C701B601CF91FF9083
:1035F000EF90DF90CF9008958F929F92AF92BF92FD
:10360000CF92DF92EF92FF928AEF0E94761AEBE35D
:10361000F5E0458556854A01A12CB12CC72ED82E40
:10362000E92EFF24E7FCFA94C818D908EA08FB0839
:10363000DC01CB0137E0B595A795979587953A952D
:10364000D1F7B501A401440F551F661F771F4C0128
:103650005D01841A950AA60AB70AA5019401A785F7
:10366000B0890E94F42B4B015C013BE0B594A79418
:10367000979487943A95D1F7A7019601C701B601AF
:103680000E94A62B9B01AC016CE0559547953795A0
:1036900027956A95D1F7A189B2890E94F42BDC01A4
:1036A000CB017EE0B595A795979587957A95D1F74B
:1036B000A5019401280F391F4A1F5B1F25833683FC
:1036C00047835087A5E0B0E00E94E92BDC01CB01E5
:1036D00080589F4FAF4FBF4F692F7A2F8B2F99275D
:1036E00087FD9A950E947A2E20E030E048EC52E463
:1036F0000E94D12DFF90EF90DF90CF90BF90AF90C0
:103700009F908F900895EF92FF920F931F93CF9306
:10371000DF93EC01E62E08E010E0FF24F39461E073
:103720008F2D8E2109F460E0CE010E949805FF0CD8
:1037300001501109A1F7F894E981FA8191818881FA
:10374000809589238183E981FA819281888180959E
:10375000892382837894DF91CF911F910F91FF90FD
:10376000EF9008956F927F929F92AF92BF92CF9207
:10377000DF92EF92FF920F931F93CF93DF931F92ED
:10378000CDB7DEB78C01D62EE0916E05F0916F05B6
:10379000138615861486DF011B9633961E92AE178C
:1037A000BF07E1F7C12CBB24B39460906E05709005
:1037B0006F05F3018585811169C0C3010E94C705AA
:1037C00081110AC0D3011B961C921B971D961C9257
:1037D0001D971C961C9275C060EFC3010E94831B4D
:1037E000EE24E394A12C912CFF24F394C3010E94B6
:1037F0007405682FC30169830E9474056981613073
:1038000019F48130C9F436C02A2D30E068131DC088
:10381000F3018385F81630F4E20FF31F83818E21C4
:1038200059F402C0F81641F060E0F8E0FF1560F0CE
:10383000D3011C96FC9208C0F301EA0DF11D8381AF
:103840008E29838361E009C09F2CF301E20FF31FEF
:1038500093818E2D809589238383C3010E949805CF
:10386000F394EE0C19F4A394EE24E394B7E0BA15A4
:1038700008F0BCCFE0E4EF1548F4D3011B969C920E
:103880001B97911008C01D96BC9205C0F3011386CA
:103890001586148616C0F30183818823B9F3339605
:1038A000A8018BE0680E711CC8012191DC012D93E9
:1038B000CD01E615F705C9F706C0C394DC1408F07E
:1038C00074CF80E015C0CD10F8CF88E0E0E08150E3
:1038D00049F0DA019D91AD01E927F0E0EE56FC4F89
:1038E000E491F5CFD80117968C91E813E6CF81E0EB
:1038F0000F90DF91CF911F910F91FF90EF90DF908C
:10390000CF90BF90AF909F907F906F9008959B0154
:10391000DC011896ED91FC91199741E067E109945B
:103920001F93CF93DF9300D000D01F92CDB7DEB7A7
:103930001C8221E02B839A838983E0918005F0919A
:10394000810511891D82A0918005B0918105E091CA
:103950008405F09185059E012F5F3F4F50964C9155
:103960006FE080E895E009958D818F5F8D838117E9
:1039700050F30F900F900F900F900F90DF91CF9119
:103980001F910895EF92FF920F931F93CF93DF93B0
:10399000909147059F3F41F4DF91CF911F910F9187
:1039A000FF90EF900C944E0AD82F07E010E0C0E093
:1039B000EE24E394F12CCC0F60E0809147050E9447
:1039C0005016B701002E01C0660F0A94EAF76D2366
:1039D000809145050E94501661E0809147050E9444
:1039E0005016809146050E942716892B09F0C16068
:1039F0000150110900F78C2FDF91CF911F910F918A
:103A0000FF90EF90089520919104909190042132BD
:103A100008F04AC080916D048111FCCF32E03093F0
:103A20006D0431E030936C043FEF30936B041092DF
:103A30006A0420936904A0E7B4E049E454E0FA0181
:103A40003E2F341B321718F43D913193F9CF109269
:103A5000480420914804990F922B90934804909128
:103A60004704913061F41092470490914804909378
:103A7000BB009091BC0093FDF8CF95EC01C095EE92
:103A80009093BC0090916D049230E1F390916B049F
:103A90009F3F79F080916B04803241F080916B04FC
:103AA000803331F084E005C081E003C082E001C0D2
:103AB00083E010926F041092910410926E040895A6
:103AC000CF93DF93D82FC62F809144058F3FC9F441
:103AD00080913B0591E090936E0480939004109246
:103AE0006F04109291046D2F8FE295E00E9498036D
:103AF0006C2F8FE295E00E949803DF91CF910C9498
:103B0000031D809147058F3F21F482E591E00E94DB
:103B1000710560E0809144050E9450168D2F8F77CB
:103B20000E94C21C8C2F0E94C21C61E0809144053F
:103B30000E945016809147058F3F21F4DF91CF916D
:103B40000C947005DF91CF91089590916D049111BF
:103B5000FCCF613208F060E291E090936D049093A5
:103B60006C042FEF20936B0410926A04260F2093AD
:103B700069049093480490914804880F892B80939E
:103B8000480480914704813061F410924704809189
:103B900048048093BB008091BC0083FDF8CF85EC86
:103BA00001C085EE8093BC0080916D048130E1F30B
:103BB00080916A04861710F460916A04A9E4B4E065
:103BC00027E234E0F9018E2F821B861718F48D91BD
:103BD0008193F9CF1092260460932504862F0895CF
:103BE000CF93C82F809144058F3FE9F480913B0526
:103BF00091E090936E048093900410926F04109261
:103C000091046C2F8FE295E00E9498030E94031D9F
:103C100061E080913B050E94A51D8FE295E00E9426
:103C20004C03C82F20C0809147058F3F21F482E5C7
:103C300091E00E94710560E0809144050E94501659
:103C40008C2F80680E94C21C80E00E94C21CC82F7A
:103C500061E0809144050E945016809147058F3F96
:103C600011F40E9470058C2FCF910895CF93DF93AC
:103C7000CDB7DEB7CC56D1090FB6F894DEBF0FBE74
:103C8000CDBF789484B5826084BD84B5816084BDE5
:103C900085B5826085BD85B5816085BD80916E00EA
:103CA000816080936E00109281008091810082601B
:103CB0008093810080918100816080938100809158
:103CC00080008160809380008091B1008460809347
:103CD000B1008091B00081608093B00080917A0043
:103CE000846080937A0080917A00826080937A0069
:103CF00080917A00816080937A0080917A00806858
:103D000080937A001092C1000E945E1080E090E0E3
:103D10000E945A338F3F31F400E010E05CE1F52E51
:103D2000F00E16C08FE190E00E945A338F3AA1F74F
:103D300062E08FE00E94801661E070E080E090E039
:103D40000E94BC168FE00E942716892B29F333C0EE
:103D500060E0C8010E946C330F5F1F4FF012F8CF74
:103D60006FEF8AE190E00E946C336EEF8BE190E0A0
:103D70000E946C3361E08CE190E00E946C3361E062
:103D80008DE190E00E946C3362E08EE190E00E9451
:103D90006C336FEA8FE190E00E946C3360E080E268
:103DA00090E00E946C3341E150E061E270E08EEC03
:103DB00091E00E94623330E0C32E30E0D32E0AEE51
:103DC00012E0F02E41E2E42EE00EC6010E945A33CA
:103DD000D8018D938D01BFEFCB1ADB0AE012F5CF2E
:103DE000E7ECF2E0119211921192119222E0E33E7F
:103DF000F207C1F74091080320E137E2429FC0017A
:103E0000439F900D1124092E000CAA0BBB0B80932D
:103E1000180390931903A0931A03B0931B034091C6
:103E2000020328E833E1429FC001439F900D112413
:103E3000092E000CAA0BBB0B809310039093110367
:103E4000A0931203B093130340910103429FC0015A
:103E5000439F900D1124AC01092E000C660B770BCB
:103E600040930B0350930C0360930D0370930E0368
:103E7000892B19F01092E50203C081E08093E502DE
:103E800061E085E00E94801661E086E00E94801675
:103E900061E087E00E94801661E082E00E94801667
:103EA00061E087E00E94501661E082E00E945016B7
:103EB00065E070E080E090E00E94BC1660E082E087
:103EC0000E9450166AE070E080E090E00E94BC160C
:103ED00040910603009105039EE2DE0111966D01FB
:103EE000FD01292F11922A95E9F781E0898384E069
:103EF0008A8332E03B8323E02D833E838F8380E4FB
:103F0000888735E039872A8726E02B8723E32C87AB
:103F100037E03D8728E02F8729E0298B29E12B8B8B
:103F200022E42C8B55E25D8B8E8B56E25F8B388FB3
:103F300038E2398F30E13A8F39E23B8F3CED3C8FEC
:103F40009D8F98E89E8F9FE29F8F9DE298A390E3BC
:103F500099A337E33BA330E93CA338E33DA32EA369
:103F60002CE32FA32FE828A72DE329A722E12AA7D6
:103F70002FE62BA79CA79FEF9DA79CE69E87888B8B
:103F80004AA361E08091B6050E94501661E08091DD
:103F9000B6050E9480160E94FD050E9460174B0125
:103FA0005C014AEA6FE284EB95E00E9433066FE21F
:103FB00084EB95E00E9475068A3A61F00E946017D2
:103FC000DC01CB0188199909AA09BB09C297A1058F
:103FD000B10538F30E9460174B015C0145E56FE2C3
:103FE00084EB95E00E9433066FE284EB95E00E943B
:103FF0007506853561F00E946017DC01CB018819D8
:104000009909AA09BB09C297A105B10538F310E0C7
:10401000F601E10FF11DE10FF11D60816F3F39F0F5
:10402000418184EB95E00E9433061F5FF1CF80E071
:1040300090E00E943A1A6091BC0584EB95E00E94E2
:104040009F0661E084EB95E00E9473090E9460176F
:104050004B015C0167E284EB95E00E94750687FDE9
:104060000CC00E946017DC01CB0188199909AA09CC
:10407000BB09C297A105B10568F30E946017DC0176
:10408000CB0188199909AA09BB09C297A105B105F5
:1040900078F51092C6028091B8058230C8F4E82FF6
:1040A000F0E0EE0FFF1FE050FF4F2AEE33E03183C8
:1040B0002083813039F080916900836080936900AA
:1040C000E89A06C0809169008C6080936900E99A43
:1040D00084EB95E09093C5028093C4020093B905E8
:1040E00067E00E94750667E084EB95E00E94750624
:1040F0006FE184EB95E00E94590941E150E061E2F3
:1041000070E0CE018F960E944A33CE018F960E94B6
:104110003A1A84EB95E00E94C8038091F402811161
:104120000BC08091F502811107C08091F6028111C8
:1041300003C08091F7028111109204010AEE12E08F
:1041400092E1A92E91E0B92E37E0F30ED501ED9062
:104150005D01BAE0EB1691F0F8019081692F617072
:104160008E2DAD969FAFAD970E948016AD969FADF8
:10417000AD97692F62708E2D0E945016D8018D91D7
:104180008D0182FF03C08E2D0E946810F012DECFD9
:104190008091FE0280FF04C061E086E00E9450161C
:1041A0008091F90281FF08C060E080E00E948016E3
:1041B00061E081E00E9480168091FA02887109F422
:1041C0006CC0E0918405F091850520E030E040E08E
:1041D0006AE080E895E0099588E0F60111928A95F9
:1041E000E9F7C6010E94901C60E080E895E00E941B
:1041F000041860E080E895E00E940418E0918405CE
:10420000F091850520E030E0409104036EE080E805
:1042100095E0099588E690E090938D0580938C0554
:1042200086E0E8E0F1E0D60101900D928A95E1F791
:104230001F82188619861A86809105034AE0BE01FE
:10424000605C7F4F90E00E94763043E050E0BE011A
:10425000605C7F4FC6010E940E30A60162E084E0E0
:104260000E94321A6FED71E0C6010E940730809102
:1042700006034AE0BE01605C7F4F90E00E9476300A
:1042800043E050E0BE01605C7F4FC6010E940E30EB
:10429000A60163E084E00E94321A80E290E00E946E
:1042A0005A338111C9C061E080E290E00E946C3312
:1042B00099E288E10FB6F894A895809360000FBE4C
:1042C00090936000F89421E030E080E80FB6F89415
:1042D00080936100209361000FBE00916600F09012
:1042E0008000E0908100B0908200A0906F009090DC
:1042F000B0008090B100709070006090B600109295
:104300008000109281001092820010926F00109233
:10431000B0001092B100109270001092B60066E2E8
:1043200084EB95E00E947506582E45E066E284EB2A
:1043300095E00E9433061092700083B5826883BDB9
:1043400080E48093B6008091B60080628093B600CE
:1043500081E08093B1001092B00093B59F7793BD38
:10436000B89BFECF87E087BB81E08093810080E827
:104370008093660011E021E837E0112311F1B89B2A
:10438000FCCF23BD37BB809184009091850010FD48
:1043900015C0AC014D5F53404730510590F0811579
:1043A000944010F00C94DD29909166009F5F9093EB
:1043B0006600109285001092840001C013BC1F5F3C
:1043C000DCCF7894452D66E284EB95E00E943306BD
:1043D000F0928000E0928100B0928200A0926F0083
:1043E0009092B0008092B100709270006092B6001E
:1043F00087E286BB87E087BB13BC111115C0009311
:1044000066008FE0E5E1F2E0D60101900D928A9519
:10441000E1F788ECE82E05E02FE0A60160910703A4
:1044200084EB95E00E94F20860E080E290E00E9458
:104430006C330E945E1013C086E1E4E2F2E0D60124
:1044400001900D928A95E1F708ECE02E05E026E157
:10445000A6016091070384EB95E00E94F208809129
:10446000FA0281FF35C0E091A204F091A30482E03A
:104470008083E0919E04F0919F041082E091A0045B
:10448000F091A1048FEC80831092AA04E091A6041D
:10449000F091A70486E08083E091A404F091A50444
:1044A000808180618083E091A404F091A5048081E3
:1044B00088608083E091A404F091A50480818068E5
:1044C0008083E091A404F091A50480818F7D808396
:1044D0008091F90282FF17C00E945B19811113C0FD
:1044E00081E1EAE3F2E0D60101900D928A95E1F7CD
:1044F00018ECE12E05E021E1A6016091070384EBB1
:1045000095E00E94F20880910003811111C083E1BF
:10451000898380910501882359F0B8ECEB2E05E0E2
:1045200021E0A6016091070384EB95E00E94F20868
:1045300060E080E290E00E946C3384E1EBE4F2E022
:10454000D60101900D928A95E1F7A8ECEA2E05E0DC
:1045500024E1A6016091070384EB95E00E94F20834
:1045600060E087E00E9450169E012F5F3F4F299622
:104570003FAF2EAF2997285FAC962FAFAC97109125
:10458000FE0213FF04C060E087E00E94501611FF96
:1045900021C00E94601700912003109121032091F7
:1045A000220330912303DC01CB01801B910BA20B72
:1045B000B30B893B9B40A105B10564F00E946017D5
:1045C000609320037093210380932203909323032D
:1045D0000E94640A61E080E00E94750A0E946017F0
:1045E00000911C0310911D0320911E0330911F03A5
:1045F000DC01CB01801B910BA20BB30BC090180305
:10460000D0901903E0901A03F0901B03209106014B
:10461000C816D906EA06FB0618F0222309F4F4C5E9
:10462000222351F08091F90280FF06C068EE73E00A
:1046300080E090E00E94BC16109206010E94601774
:1046400060931C0370931D0380931E0390931F03BC
:1046500080910003882381F18EE480937C0062E0E6
:1046600070E080E090E00E94BC1680917A00806447
:1046700080937A0080917A0086FDFCCF20917800AB
:104680008091790030E0382B40E050E060E070E34A
:1046900081E190E00E94CA2BDA01C9014AE0BE0123
:1046A0006F5F7F4F0E94763040E0BE016F5F7F4FAB
:1046B00085EE91E00E94010B8091F90280FFEDC030
:1046C000F12C6E018FE2C80ED11C08E0E02EEC0C3C
:1046D00080916D05F81608F0D7C084E494E7A0E057
:1046E000B0E024968CAF9DAFAEAFBFAF24972796B6
:1046F0001DAE1EAE1FAE27976F2DC6010E94B21BC6
:10470000811105C060E070E08EEF92EC9DC0809159
:104710006E0590916F050E94C705811103C060E886
:1047200074EE81C000916E0510916F0565E5C801BA
:104730000E94831B5601D5016D915D01C8010E9445
:10474000831BEA10F8CF6EEB80916E0590916F0598
:104750000E94831B8E010F5F1F4F580128963FACAC
:104760002897F9E03F0E60906E0570906F05F8E0B5
:104770008F2E912C44244394512CC3010E94740524
:1047800081115428440C21E0821A9108B1F7D50117
:104790005D925D013A12E7CF80916E0590916F05B1
:1047A0000E94C705813009F0BACFE0E0AC96BFADFA
:1047B000AC97B01749F0D8018D918D01E827F0E052
:1047C000EE56FC4FE491F2CF8985E813A8CF6981BA
:1047D000E8E06E9FB00111248A81282F30E0322F4B
:1047E0002227330F330F330F262B372B8FA5803122
:1047F000C9F4688570E08F81AB01481B5109CA017B
:104800009695982F8827979587950E94B62B60518B
:104810007109207F53E0220F331F5A95E1F7620F91
:10482000731F01C0B901613854EE75070CF46ACFEB
:10483000072E000C880B990B0E947A2E20E030E0A6
:1048400040E05CE30E94782F8E010F5F1F4F21E054
:1048500043E00E942D306F2D00E010E0C8010E945F
:10486000B21B43E050E0B801CE01805C9F4F0E9434
:104870000E3040E0BE016F5F7F4FCE01805C9F4FE6
:104880000E94010BF39424CF811107C040E06AEE2F
:1048900071E08FEE91E00E94010B8091F90281FF9F
:1048A00007C041E063EF71E08DEF91E00E94010BE2
:1048B0008091F90282FF08C40E94FC1A8E010F5FEA
:1048C0001F4F21E043E00E942D3040E0B80182E01C
:1048D00092E00E94010B0E94FC1A87EF0E94761A58
:1048E000A8966CAF7DAF8EAF9FAFA8978091400523
:1048F00090914105A0914205B09143056C017D0165
:10490000FF0CCC08DC2C76019C01AD016C2D7C2DBC
:104910008C2D9C2D345F4140510961097109810939
:1049200091092A962FAF2A972B963FAF2B972C965B
:104930004FAF2C972D965FAF2D972E966FAF2E977A
:104940002F967FAF2F9760968FAF609761969FAF3E
:10495000619759016A017B018C010E94FC2B6D96C5
:104960002FAF6D976E963FAF6E976F964FAF6F9765
:10497000A0965FAFA097A1966FAFA197A2967FAFC9
:10498000A297A3968FAFA397A4969FAFA497909159
:104990005805A9969FAFA997A09159056296AFAF08
:1049A0006297B0915605AA96BFAFAA97E0915705B6
:1049B0006396EFAF6397F0915405AB96FFAFAB975B
:1049C0002091550564962FAF6497B0905105A09043
:1049D00050051B2D110F110BC12ED12EE12EF12EE2
:1049E000012F2A962FAD2A972B963FAD2B972C9609
:1049F0004FAD2C972D965FAD2D972E966FAD2E97C0
:104A00002F967FAD2F9760968FAD609761969FAD83
:104A100061970E94FC2B0CE00E942C2D19012A01A9
:104A20003B014C01B0905305A09052051B2D110F76
:104A3000110BC12ED12EE12EF12E012F6D962FAD2F
:104A40006D976E963FAD6E976F964FAD6F97A09630
:104A50005FADA097A1966FADA197A2967FADA297EB
:104A6000A3968FADA397A4969FADA4970E94FC2B0D
:104A700008E00E94452D51016201730184010E94EA
:104A8000632D70588F4F9F4F20904E0530904F05EB
:104A90005101C12CD12CE12CF12C00E010E00E943E
:104AA000FC2B01E20E94452D65962FAF6597669617
:104AB0003FAF669767964FAF679768965FAF689707
:104AC00069966FAF69976A967FAF6A976B968FAF5B
:104AD0006B976C969FAF6C97A0E00E94752D09F4C0
:104AE000E3C1A996AFACA99762961FAD6297110F6B
:104AF000110B6296BFAC6297C12ED12EE12EF12E22
:104B0000012F6D962FAD6D976E963FAD6E976F9698
:104B10004FAD6F97A0965FADA097A1966FADA1978F
:104B2000A2967FADA297A3968FADA397A4969FADB3
:104B3000A4970E94FC2B19012A013B014C01AA9663
:104B4000AFACAA9763961FAD6397110F110B6396D5
:104B5000BFAC6397C12ED12EE12EF12E012F2A96E4
:104B60002FAD2A972B963FAD2B972C964FAD2C97B8
:104B70002D965FAD2D972E966FAD2E972F967FAD0C
:104B80002F9760968FAD609761969FAD61970E9459
:104B9000FC2B01E10E942C2D59016A017B018C0143
:104BA0009101A201B301C4010E94632D19012A01E0
:104BB0003B014C01A8964CAD5DAD6EAD7FADA897A5
:104BC000E4E07595679557954795EA95D1F780E0AC
:104BD00090E0A0E1B0E0841B950BA60BB70B6C0135
:104BE0007D01FF0CCC08DC2C76019C01AD016C2D05
:104BF0007C2D8C2D9C2D0FE10E942C2DB22FA32FEC
:104C0000F42FE52F2A966FAF2A972B967FAF2B971D
:104C10002C968FAF2C972D969FAF2D97AB962FADDF
:104C2000AB9764969FAD6497990F990B64963FADCF
:104C30006497492F592F692F792F892F03E20E94FA
:104C40002C2D59016A017B018C019101A201B30154
:104C5000C4010E94632D59016A017B018C012B2F35
:104C60003A2F4F2F5E2F2A966FAD2A972B967FAD46
:104C70002B972C968FAD2C972D969FAD2D970E943C
:104C80006C2D722E832E942EB52FA62FF72FE82F82
:104C9000592E03E00E942C2DA72CB82CC92CDB2EFA
:104CA000EA2EFF2E0E2F152D0E946C2D59016A0140
:104CB0007B01682E192F03E00E942C2D062D0E94E7
:104CC0006C2D03E00E942C2DA72CB82CC92CDB2EB8
:104CD000EA2EFF2E0E2F152D0E946C2D02E00E9451
:104CE0002C2D0E2F0E946C2D01E00E942C2D0E2FDA
:104CF0000E946C2D6596AFAC65976696BFAC6697C3
:104D00006796CFAC67976896DFAC68976996EFAC0B
:104D100069976A96FFAC6A976B960FAD6B976C9626
:104D20001FAD6C970E94572C2A962FAF2A972B966F
:104D30003FAF2B972C964FAF2C972D965FAF2D97AB
:104D40002E966FAF2E972F967FAF2F9760968FAFCF
:104D5000609761969FAF61970DE00E94452D322EBE
:104D6000432E542E652E762E872E982E292E309186
:104D70005F0520915E05932F990F990BA32CB42CFE
:104D8000C52CD62CE72CF82C092D122D492F592F84
:104D9000692F792F892F0E94FC2B0E94FC2B09E19F
:104DA0000E94452D59016A017B018C012A962FAD85
:104DB0002A972B963FAD2B972C964FAD2C972D967F
:104DC0005FAD2D972E966FAD2E972F967FAD2F97B7
:104DD00060968FAD609761969FAD61970E94632D3D
:104DE00019012A013B014C0130915D0520915C05C0
:104DF000932F990F990B2A96AFAC2A972B96BFAC9D
:104E00002B972C96CFAC2C972D96DFAC2D972E960A
:104E1000EFAC2E972F96FFAC2F9760960FAD609753
:104E200061961FAD6197492F592F692F792F892FCF
:104E30000E94FC2B03E10E94452D59016A017B0170
:104E40008C019101A201B301C4010E94632D08E00D
:104E50000E94452D39014A01B62FA72FF82FE92FBF
:104E600030915B0520915A05932F990F990B492F8B
:104E7000592F692F792F892F04E00E942C2D590179
:104E80006A017B018C019301A4016B2F7A2F8F2F74
:104E90009E2F0E94632D0E94722E20E030E040E899
:104EA0005BE30E94782F03C060E070E0CB0120E05C
:104EB00030E048EC52E40E94D12D6B017C0120E0EF
:104EC00030E0A9010E94CC2D811102C00E945B1923
:104ED0008E010F5F1F4F21E043E0C701B6010E9422
:104EE0002D3040E0B80185E092E00E94010B0E9465
:104EF000FC1A8DEF0E94FA188090400590904105B1
:104F0000A0904205B09043053CE2931A31E0A30A19
:104F1000B1086C01E12CF12C6EE0CC0CDD1CEE1C18
:104F2000FF1C6A95D1F74091640550916505052EE7
:104F3000000C660B770BE4E1440F551F661F771FCB
:104F4000EA95D1F7C41AD50AE60AF70AA0916605D0
:104F5000B0916705A50194010E94F42BC61AD70AE7
:104F6000E80AF90A40E4D40EE11CF11CFFE0F594D4
:104F7000E794D794C794FA95D1F7A09168050A2EC3
:104F8000000CBB0BA50194010E94F42B2B013C01EA
:104F9000AAE07594679457944794AA95D1F7A09185
:104FA0006305B0E00E94E92BDC01CB011BE0B59565
:104FB000A795979587951A95D1F7BC01CD017058A3
:104FC0008F4F9F4FA30192010E94A62BDC01CB01C2
:104FD0000AE0B595A795979587950A95D1F79C0115
:104FE000AD01405E5F4FA0916105B09162050E94E6
:104FF000F42BDC01CB01905EAF4FBF4FBC01CD0164
:105000002EE095958795779567952A95D1F7A70115
:1050100096010E94A62B6B017C013FE09595879538
:10502000779567953A95D1F79B01AC010E94A62B25
:105030009B01AC0167E055954795379527956A9593
:10504000D1F7A0916005B0E00E94E92BDC01CB0113
:1050500074E0B595A795979587957A95D1F7A701AF
:105060009601281B390B4A0B5B0BDA01C90157FF6C
:1050700003C080E090E0DC0181309105A10539E1B9
:10508000B30724F080E090E0A0E0B9E1BC01CD01DD
:105090005CE095958795779567955A95D1F70E942D
:1050A0007A2E20E030E040E85AE30E94782F8E010B
:1050B0000F5F1F4F21E043E00E942D3040E0B80118
:1050C00088E092E00E94010BE12CF12CF701E651FF
:1050D000FD4F8285882309F449C081E499E6A0E068
:1050E000B0E08FA798ABA9ABBAAB1CAA1BAAF7017B
:1050F000EE5EFE4F12854AE0BE01605C7F4F812F5D
:1051000090E00E94763042E050E0BE01605C7F4F4C
:10511000CE018F960E940E301E3008F01E50177080
:1051200080910401A0E48A9FC0011124182B1093E0
:105130007C0080917A00806480937A0080917A006C
:1051400086FDFCCF809178002091790090E04AE0C4
:10515000BE016F5F7F4F922B0E94763040E0BE0110
:105160006F5F7F4FCE018F960E94010BBFEFEB1A4E
:10517000FB0AE4E0EE16F10409F0A8CF37ECE32EC9
:1051800032E0F32E4AEEC42E42E0D42E00E010E0CE
:10519000D6018D916D0187FF2CC023E63FE540E0ED
:1051A00050E02FA738AB49AB5AAB1BAA4AE0BE016F
:1051B000605C7F4FC8010E94763042E050E0BE0143
:1051C000605C7F4FCE018F960E940E30D7016D91AB
:1051D0007D918D919C912AE0AE014F5F5F4F0E94BF
:1051E000813040E0BE016F5F7F4FCE018F960E94FD
:1051F000010B0F5F1F4FB4E0EB0EF11C07301105E0
:1052000039F681E00E94C21080E00E94C2100E9424
:105210006017009110031091110320911203309137
:105220001303C0901403D0901503E0901603F09080
:105230001703DC01CB018C199D09AE09BF090817C2
:1052400019072A073B0720F080910F038823A9F054
:10525000012B022B032B89F00E946017609314032B
:1052600070931503809316039093170341E06BE04E
:1052700072E082E192E00E94010B40E068EA72E095
:10528000CB010E94010B0E9460170091E602109171
:10529000E7022091E8023091E902DC01CB01801B9A
:1052A000910BA20BB30B00910B0310910C032091F7
:1052B0000D0330910E03081719072A073B0708F55D
:1052C00002E111E02AEEE22E22E0F22EF80127E0C0
:1052D000E20FDE2ED7018D917D0185FF0BC084FF8B
:1052E00004C061E0F801808103C060E0D8018C91C6
:1052F0000E9450160F5F1F4FD012ECCF81E08093B9
:10530000E50280910003882309F44CC08091FF02DC
:10531000882309F447C08091E502882309F442C03C
:1053200081E18FA780910501882369F098ECE92E2F
:1053300005E021E0AE01415D5F4F6091070384EB22
:1053400095E00E94F20800E010E00E947E0C8823A5
:1053500011F000E010E061E070E080E090E00E9479
:10536000BC160F5F1F4F033CB1E01B0770F382E1D7
:10537000898380910501882369F088ECE82E05E097
:1053800021E0AE014F5F5F4F6091070384EB95E032
:105390000E94F20861E080E00E94750A8091E502B7
:1053A000811110C08091FE0283FF04C061E087E09C
:1053B0000E9450160E944F13E2C8909166009150CF
:1053C0000C94D72140E068EA72E0CB010E94010B07
:1053D0001091FE02012F087013FF04C060E087E007
:1053E0000E9450161092E4021092E302002321F072
:1053F00060E086E00E94501612FD04C060E086E086
:105400000E94501660E084EB95E00E947309809141
:10541000F90282FF08C084EF0E94F01D682F6C7FA4
:1054200084EF0E94601D8091FA02887149F080919A
:10543000FE0284FD05C061E080E895E00E9404184A
:10544000F0907C0010927C00E0907A0010927A003C
:10545000D09064001092640021E688E190E00FB6DD
:10546000F894A895809360000FBE2093600000E040
:1054700010E0809100039091FF02899FC0011124E8
:105480000817190708F58091FE028670863049F4E6
:1054900061E00E9450160E94640A60E086E00E946B
:1054A000501683B7817F846083BF83B7816083BFD9
:1054B000789483B7816083BF889583B78E7F83BFDD
:1054C0008091E4028823C1F00E945E10D0926400B3
:1054D000F0927C00E0927A0081E080930501809157
:1054E000F90282FF14C084EF0E94F01D682F6360F0
:1054F00084EF0E94601D0BC08091E302882321F09D
:105500001092E302015011090F5F1F4FB2CF80913B
:10551000FE0280FF04C061E086E00E945016809188
:10552000FA02887129F060E080E895E00E94041892
:105530008091FE0283FF04C061E086E00E94501665
:1055400081E08093060180930F032CCFCF931092BC
:1055500095041092940488EE93E0A0E0B0E080936C
:10556000960490939704A0939804B09399042AE822
:1055700031E0309393042093920425EC30E0309393
:105580009F0420939E0424EC30E03093A1042093E8
:10559000A00420EC30E03093A3042093A20421EC7B
:1055A00030E03093A5042093A40422EC30E0309343
:1055B000A7042093A60426EC30E03093A90420939E
:1055C000A8041092AB041092AC041092AD04109297
:1055D000AE041092320510923105809333059093FA
:1055E0003405A0933505B09336058AE991E0909390
:1055F000300580932F0582EB91E09093B505809361
:10560000B40588E08093B60583E08093B70581E018
:105610008093B8058093B3051092BA058FE180930B
:10562000BB051092BC0510927F0510927E0510926A
:10563000B1051092B2058AEA91E090937D058093BE
:105640007C051092810510928005109291051092B0
:105650009405109295058FEF80939205809397059E
:10566000EBE9F5E09FEF86E18E0FCFEF91938E137C
:10567000FCCF81E394E1909385058093840586E3D4
:1056800095E1909387058093860581E995E1909354
:1056900089058093880586EF96E190938B0580932A
:1056A0008A0520E030E040E069E080E895E00E9473
:1056B0003114C093A605C093A705C093A80560E068
:1056C00089E00E948016E9EBF4E0E491E093BF05E5
:1056D000E5EAF4E0E491F0E0EE0FFF1FEE56FB4F39
:1056E000859194919093C1058093C0051092CA054D
:1056F0001092CC051092CB05EAECF5E0129285E011
:10570000E23CF807D9F787EC93E090937B05809310
:105710007A058FEB95E090936F0580936E0510925C
:105720006D051092690589E080936A0581E0809398
:105730006B0580936C058FEF80934405809345053E
:105740008093460580934705CF910895DB018F93A1
:105750009F930E94E92BBF91AF91A29F800D911D55
:10576000A39F900DB29F900D1124089597FB072ED3
:1057700016F4009407D077FD09D00E94812D07FC14
:1057800005D03EF4909581959F4F08957095619551
:105790007F4F0895052E97FB1EF400940E94E12B85
:1057A00057FD07D00E94952D07FC03D04EF40C94B2
:1057B000E12B50954095309521953F4F4F4F5F4FCE
:1057C000089590958095709561957F4F8F4F9F4F6D
:1057D00008950E94BD2DA59F900DB49F900DA49F8C
:1057E000800D911D11240895B7FF0C94E92B0E94A0
:1057F000E92B821B930B0895DF93CF931F930F9395
:105800009A9DF02D219FF00D8B9DF00D8A9DE02D2E
:10581000F10D039FF00D029FE00DF11D4E9DE00D77
:10582000F11D5E9DF00D4F9DF00D7F936F93BF9224
:10583000AF925F934F93D5010E94BD2D8B01AC01B8
:10584000D7010E94BD2DEB01E80FF91FD6010E9480
:105850004C2C2F913F91D6010E94BD2DC60FD71F12
:10586000E81FF91FAF91BF910E944C2C2F913F91DF
:105870000E94BD2DC60FD71FE81FF91FD6010E9439
:10588000BD2DE60FF71F9801BE01CF0111240F9126
:105890001F91CF91DF9108950E94BD2D460F571F94
:1058A000C81FD91F08F431960895689401C0E89480
:1058B000F92FF12B12F00C94892CA0E0B0E0E3E674
:1058C000FCE20C94FB2C092E059422F40E94E52C9A
:1058D000112392F4F0E80F26FFEFE094F094009586
:1058E0001095B094C094D094A194BF0ACF0ADF0A57
:1058F000EF0AFF0A0F0B1F0B0E94942C07FC0E945B
:10590000E52CCDB7DEB7ECE00C94172D689401C000
:10591000E8948F929F92CF93DF930E94942CDF9113
:10592000CF919F908F90089588249924F401E401E9
:10593000B0E49F93AA279A158B049C04ED05FE05FD
:10594000CF05D007A10798F4AD2FDC2FCF2FFE2F66
:10595000E92D982C892E982F872F762F652F542F7D
:10596000432F322F2227B85031F7BF9127C01B2E6B
:10597000BF91BB27220F331F441F551F661F771F80
:10598000881F991F881C991CEE1FFF1FCC1FDD1F4D
:10599000AA1FBB1F8A149B04EC05FD05CE05DF057D
:1059A000A007B10748F08A189B08EC09FD09CE0949
:1059B000DF09A00BB10B21601A94E1F62EF49401DB
:1059C000AF01BE01CD01000C0895609570958095E2
:1059D000909530954095509521953F4F4F4F5F4F93
:1059E0006F4F7F4F8F4F9F4F08952F923F924F924F
:1059F0005F926F927F928F929F92AF92BF92CF925F
:105A0000DF92EF92FF920F931F93CF93DF93CDB767
:105A1000DEB7CA1BDB0B0FB6F894DEBF0FBECDBFDF
:105A200009942A88398848885F846E847D848C84B0
:105A30009B84AA84B984C884DF80EE80FD800C81B9
:105A40001B81AA81B981CE0FD11D0FB6F894DEBF9C
:105A50000FBECDBFED0108950F93083090F0982F41
:105A6000872F762F652F542F432F322F2227085050
:105A7000F4CF220F331F441F551F661F771F881F47
:105A8000991F0A95B2F70F91089597FB10F8169495
:105A900000080F93083098F00850232F342F452F1B
:105AA000562F672F782F892F902DF4CF0594979537
:105AB00087957795679557954795379527950A95D3
:105AC000AAF70F9108952A0D3B1D4C1D5D1D6E1DFB
:105AD0007F1D801F911F08952A193B094C095D09FC
