:100000000C9471020C9443200C941C200C949821A5
:100010000C94F9210C94D5210C9489210C9499020B
:100020000C9499020C9499020C9499020C949902E4
:100030000C9499020C9499020C9499020C949902D4
:100040000C94D21F0C9499020C94A01F0C947A1F4C
:100050000C9499020C9499020C9499020C949902B4
:100060000C946A200C94990200407A10F35A00A074
:10007000724E18090010A5D4E80000E87648170071
:1000800000E40B54020000CA9A3B000000E1F505B1
:10009000000080969800000040420F000000A086FB
:1000A00001000000102700000000E803000000002D
:1000B0006400000000000A000000000001000000D1
:1000C00000002C76D888DC674F0823DFC1DFAE59EB
:1000D000E1B1B796E5E3E453C63AE651997696E87E
:1000E000E6C28426EB898C9B62ED407C6FFCEFBC02
:1000F0009C9F40F2BAA56FA5F490055A2AF75C932D
:100100006B6CF9676DC11BFCE0E40D47FEF520E662
:10011000B500D0ED902E0300943577050080841E45
:10012000080000204E0A000000C80C333333330FA0
:10013000986E12831141EF8D2114893BE65516CF3D
:10014000FEE6DB18D1844B381BF77C1D901DA4BB49
:10015000E424203284725E228100C9F124ECA1E5FE
:100160003D27005EBCE2613FDD83C29C7E20A3FD93
:100170001F41009D23BE46DB65F88C11AF32CA5784
:10018000E97400000000240027002A00000000009D
:10019000250028002B0000000008000201000003D9
:1001A0000407000000000000000000000000230021
:1001B00026002900040404040404040402020202C8
:1001C000020203030303030301020408102040801A
:1001D000010204081020010204081020207F010100
:1001E000000000000000000000065F5F0600000045
:1001F0000007070007070000147F7F147F7F1400AB
:10020000242E6B6B3A120000466630180C666200B2
:10021000307A4F5D377A4800040703000000000081
:10022000001C3E63410000000041633E1C000000D2
:10023000082A3E1C1C3E2A0808083E3E080800000A
:100240000080E060000000000808080808080000BE
:1002500000006060000000006030180C0603010020
:100260003E7F71594D7F3E0040427F7F40400000FD
:10027000627359494F660000226349497F36000086
:10028000181C16537F7F5000276745457D390000B5
:100290003C7E4B4979300000030371790F07000061
:1002A000367F49497F360000064F49693F1E0000EE
:1002B0000000666600000000004076360000000086
:1002C000081C366341000000242424242424000058
:1002D000004163361C080000020351590F0600005C
:1002E0003E7F415D5D1F1E007C7E13137E7C0000FF
:1002F000417F7F49497F36001C3E634141632200B4
:10030000417F7F41633E1C00417F7F495D41630027
:10031000417F7F491D0103001C3E63415173720000
:100320007F7F08087F7F000000417F7F4100000041
:10033000307040417F3F0100417F7F081C776300A0
:10034000417F7F41406070007F7F0E1C0E7F7F00E9
:100350007F7F060C187F7F001C3E6341633E1C00BC
:10036000417F7F49090F06001E3F21717F5E00001B
:10037000417F7F09197F660022674D597322000073
:1003800003417F7F410300007F7F40407F7F00006B
:100390001F3F60603F1F00007F7F3018307F7F006D
:1003A00043673C183C674300074F78784F070000CD
:1003B000476371594D677300007F7F414100000022
:1003C0000103060C183060000041417F7F000000EF
:1003D000080C0603060C08008080808080808080E6
:1003E0000000030704000000207454543C784000CF
:1003F000417F3F4848783000387C44446C280000F6
:10040000307848493F7F4000387C54545C180000E5
:10041000487E7F490302000098BCA4A4F87C040035
:10042000417F7F08047C780000447D7D400000000F
:1004300060E08080FD7D0000417F7F10386C4400CB
:1004400000417F7F400000007C7C18381C7C7800D5
:100450007C7C04047C780000387C44447C380000B8
:1004600084FCF8A4243C1800183C24A4F8FC840064
:10047000447C784C041C1800485C545474240000DC
:1004800000043E7F442400003C7C40403C7C400013
:100490001C3C60603C1C00003C7C7038707C3C0064
:1004A000446C3810386C44009CBCA0A0FC7C00005C
:1004B0004C64745C4C64000008083E7741410000C5
:1004C00000000077770000004141773E08080000F7
:1004D000020301030203010070784C464C7870005F
:1004E0001D2211241FBECFEFD8E0DEBFCDBF13E029
:1004F000A0E0B1E0E8EDFDE602C005900D92A43564
:10050000B107D9F726E0A4E5B3E001C01D92A937F1
:10051000B207E1F712E0C1E7D2E004C02197FE0183
:100520000E949636C037D107C9F70E942C230C943D
:10053000EA360C94000080E008958CBD9DBD0895BE
:100540002091380581E0213208F044C080911405E3
:100550008111FCCF8091370592E09093140591E0D2
:10056000909313059FEF909312051092110520931D
:100570001005A7E1B5E0E0EFF4E090E0291331C009
:100580001092EF049091EF04880F892B8093EF0471
:100590008091EE04813049F51092EE048091EF04D1
:1005A0008093BB008091BC0083FDF8CF85EC8093E5
:1005B000BC00809114058230E1F3809112058F3FD9
:1005C000B1F0809112058032A1F080911205803344
:1005D00091F084E0109216051092380510921505DE
:1005E00008953D9131939F5FC9CF85EEE0CF80E0C4
:1005F000F1CF82E0EFCF83E0EDCF089508951F9310
:10060000CF93DF9300D000D01F92CDB7DEB71C820E
:1006100021E02B839A838983E0913606F091370697
:1006200011891D82A0913606B0913706E0913A06F5
:10063000F0913B069E012F5F3F4F50964C916FE02B
:1006400086E396E009958D818F5F8D83811750F346
:100650000F900F900F900F900F90DF91CF911F91FF
:100660000895662329F06A3019F0862F90E00895E6
:100670008FEF9FEF08959B01DC011896ED91FC919F
:1006800041E067E1099481E0809362048091600415
:1006900090916104DC01ED91FC910484F585E02DDD
:1006A0000995109262040895AF92BF92CF92DF92A3
:1006B000EF92FF920F931F93CF93DF936C017B0117
:1006C0008B01040F151FEB015E01AE18BF08C017A8
:1006D000D10759F06991D601ED91FC910190F0811B
:1006E000E02DC6010995892B79F7C501DF91CF91DE
:1006F0001F910F91FF90EF90DF90CF90BF90AF9040
:100700000895FC01538D448D252F30E0842F90E017
:10071000821B930B541710F0CF96089501970895FC
:10072000FC01918D828D981761F0A28DAE0FBF2FC5
:10073000B11D5D968C91928D9F5F9F73928F90E01B
:1007400008958FEF9FEF0895FC01918D828D98178A
:1007500031F0828DE80FF11D858D90E008958FEFC7
:100760009FEF0895FC01918D228D892F90E0805C90
:100770009F4F821B91098F739927089589E395E014
:100780000E94B20321E0892B09F420E0822F089512
:1007900080E090E0892B29F00E94BE0381110C9427
:1007A00000000895FC01A48DA80FB92FB11DA35A14
:1007B000BF4F2C91848D90E001968F739927848F81
:1007C000A689B7892C93A089B1898C9183708064A4
:1007D0008C93938D848D981306C00288F389E02D45
:1007E00080818F7D80830895EF92FF920F931F93F6
:1007F000CF93DF93EC0181E0888F9B8D8C8D9813D4
:100800001AC0E889F989808185FF15C09FB7F894DF
:10081000EE89FF896083E889F9898081837080642B
:1008200080839FBF81E090E0DF91CF911F910F9176
:10083000FF90EF900895F62E0B8D10E00F5F1F4F85
:100840000F731127E02E8C8D8E110CC00FB607FC94
:10085000FACFE889F989808185FFF5CFCE010E9422
:10086000D203F1CFEB8DEC0FFD2FF11DE35AFF4FBB
:10087000F0829FB7F8940B8FEA89FB8980818062B0
:10088000CFCFCF93DF93EC01888D8823B9F0AA896D
:10089000BB89E889F9898C9185FD03C0808186FD3B
:1008A0000DC00FB607FCF7CF8C9185FFF2CF80818A
:1008B00085FFEDCFCE010E94D203E9CFDF91CF912A
:1008C0000895833081F028F4813099F08230A9F0C6
:1008D00008958730A9F08830C9F08430B1F4809150
:1008E00080008F7D03C0809180008F77809380008F
:1008F000089584B58F7784BD089584B58F7DFBCF2F
:100900008091B0008F778093B00008958091B000FF
:100910008F7DF9CFCF93DF93282F30E0F901EA568E
:10092000FE4F8491F901E853FE4FD491F901EC5444
:10093000FE4FC491CC23A1F081110E946104EC2FE1
:10094000F0E0EE0FFF1FE655FE4FA591B491EC913C
:10095000ED2381E090E009F480E0DF91CF910895EC
:1009600080E090E0FACF1F93CF93DF93282F30E001
:10097000F901EA56FE4F8491F901E853FE4FD491F4
:10098000F901EC54FE4FC491CC23A9F0162F81112C
:100990000E946104EC2FF0E0EE0FFF1FE457FE4FC2
:1009A000A591B4918FB7F894EC91111108C0D0952E
:1009B000DE23DC938FBFDF91CF911F910895DE2B53
:1009C000F8CF1092CD041092CC041092160510921C
:1009D00038051092140581E0809313051092EE04FF
:1009E00061E082E10E94B30461E083E10E94B3040C
:1009F000E9EBF0E080818E7F808380818D7F808332
:100A000088E48093B80085E48093BC008DEF92E089
:100A10009093CB048093CA048EEF92E09093C90424
:100A20008093C8040895CF93DF9390E0FC01E853CE
:100A3000FE4F24918C549E4FFC0184918823C9F071
:100A400090E0880F991FFC01EE57FE4FA591B491DD
:100A5000FC01E457FE4FC591D49161110DC09FB7C1
:100A6000F8948C91209582238C9388812823288365
:100A70009FBFDF91CF910895623051F49FB7F894F2
:100A80003C91822F809583238C93E8812E2BEFCF8E
:100A90008FB7F894EC912E2B2C938FBFEACF3FB7F2
:100AA000F89480915C0490915D04A0915E04B091F3
:100AB0005F0426B5A89B05C02F3F19F00196A11D24
:100AC000B11D3FBFBA2FA92F982F8827BC01CD0198
:100AD000620F711D811D911D42E0660F771F881FF7
:100AE000991F4A95D1F708958F929F92AF92BF9226
:100AF000CF92DF92EF92FF926B017C010E944F0533
:100B00004B015C01C114D104E104F104B9F00E946D
:100B10004F05681979098A099B09683E7340810568
:100B2000910580F321E0C21AD108E108F10888EEAE
:100B3000880E83E0981EA11CB11CE4CFFF90EF90BB
:100B4000DF90CF90BF90AF909F908F9008952FB778
:100B5000F894609158047091590480915A049091CE
:100B60005B042FBF08950895DC011A96ED91FC9166
:100B700030E020E00994462FDC011496ED91FC91C1
:100B800030E020E06BE00994DC011696ED91FC91D9
:100B900030E020E040E069E10994DC011696ED9137
:100BA000FC9130E020E040E068E109949A01DC012A
:100BB0001696ED91FC91462F67E10994EF92FF9212
:100BC0000F931F93CF93DF931F92CDB7DEB77C01B6
:100BD0008B01D8016C91673129F150F46531A0F493
:100BE0000F90DF91CF911F910F91FF90EF9008959B
:100BF0006A3118F16E3FA1F7F8014181498369E23A
:100C0000C7010E94B4050BC0F80141814983D70197
:100C10001696ED91FC9130E020E0C70109950E5F3A
:100C20001F4FD7CFF80181818983AE014F5F5F4F9E
:100C300061E0C7010E94D605F2CF0F5F1F4FD701B9
:100C40001696ED91FC9130E020E040E0C701099557
:100C5000C0CF462FDC011696ED91FC9130E020E0EC
:100C600066E10994462FDC011696ED91FC9130E087
:100C700020E065E10994EF92FF920F931F93CF93C9
:100C8000DF93EC01042F79016D3009F446C050F474
:100C90006B30C9F1693009F49FC06A3009F465C04E
:100CA00080E046C06E3009F452C06F3099F70E9460
:100CB000CD05F7011381110F110F110F6C89160F5C
:100CC00060E4CE010E943206612F62956F70606110
:100CD000CE010E943206612F6F70CE010E9429065C
:100CE000F7016481606BCE010E942906F701408103
:100CF00051816281660F660F660FCE010E94D60594
:100D00000150A1F72EC064E571E0442311F06FE4B7
:100D100071E0CE010E94DE050AC0411110C068E4F6
:100D200071E00E94DE05E881F98182898C8B81E087
:100D3000DF91CF911F910F91FF90EF90089561E4A3
:100D400071E00E94DE05E881F9818389EFCF0E947E
:100D5000CD0561E8CE010E943206602FCE010E94CF
:100D60002906CE010E94C405E2CFEA85FB8530E06A
:100D700020E040E068E2CE010995EE81FF8130E09D
:100D800020E040E064E1CE01099541E06BE4CE0152
:100D90000E94B405E881F981448169E2CE010E9494
:100DA000B40540E06BE4CE010E94B405E881F9810E
:100DB000448169E2CE010E94B40541E06BE4CE01BA
:100DC0000E94B405E881F981458169E2CE010E9463
:100DD000B40569E571E09DCF8EE891E09983888341
:100DE0001C8AA5CFDC011896ED91FC9130E020E043
:100DF00040E069E10994DC011896ED91FC9130E046
:100E000020E040E068E10994CF93DF931F92CDB7D3
:100E1000DEB76983BE016F5F7F4F0E943B030F9077
:100E2000DF91CF910895EF92FF921F93CF93DF93BD
:100E3000EC01162F7A010E94FB0660E4CE010E94AD
:100E40000407E885F9859701412F67E1CE010995EF
:100E5000CE01DF91CF911F91FF90EF900C94F2069D
:100E6000EF92FF921F93CF93DF93EC01142F790140
:100E7000663181F138F4643109F44BC0653179F0A1
:100E800080E022C06831C9F150F16931C9F7809121
:100E90005604882391F1CE010E94F2062EC0809163
:100EA0005604882319F0CE010E94F206CE010E945A
:100EB000FB0660E0CE010E940407612FCE010E9474
:100EC000040781E080935604DF91CF911F91FF903A
:100ED000EF900895642F0E94040781E0F5CF809180
:100EE0005604882319F0CE010E94F206A701193199
:100EF00038F4612FCE010E94130710925604EDCFF3
:100F000068E1CE010E941307185188E1E80EF11C38
:100F1000EDCF8E898F3F11F488E78E8BE885F985B8
:100F20009701412F64E1CE01DF91CF911F91FF9096
:100F3000EF900994CF93DF93EC01A889B989FD0163
:100F4000349131969491319684911396FD01A49138
:100F50006317A8F1961798F1631B770B8A9FE02D12
:100F60001124E69FC001E79F900D1124280F392F0F
:100F7000311D83E0220F331F8A95E1F7C9010496E2
:100F8000DA01245F3F4FE889F989E80FF91FE491FE
:100F9000ED93019682179307B1F78D89882361F04D
:100FA000FA019A01285F3F4F8191DF0111978095E7
:100FB0008C932E173F07C1F7DF91CF910895FA0167
:100FC000CA0108961192E817F907E1F7E6CF4F92A8
:100FD0005F926F927F928F929F92AF92BF92CF92C9
:100FE000DF92EF92FF920F931F93CF93DF93CDB7D2
:100FF000DEB72D970FB6F894DEBF0FBECDBF7C01D4
:10100000C62ED42EB22EDC0150968D919C91FC01FF
:101010003296149131960491512E560E040F81E0B0
:10102000860F581608F411E0712CFE0131964F011D
:1010300044244394672CAC2C262DA4016B2DC701AE
:101040000E949A07AC86DD864B869A868986D701F0
:101050001496ED91FC919E01275F3F4F41E06FE0B8
:10106000C70109956394A394A51430F3D394710E2A
:10107000D01600F32D960FB6F894DEBF0FBECDBF8D
:10108000DF91CF911F910F91FF90EF90DF90CF9064
:10109000BF90AF909F908F907F906F905F904F9098
:1010A0000895EF92FF920F931F93CF93DF93F82E43
:1010B000E62EE0914606F09147063296C4911092D2
:1010C0004F068A01D0E0F80161918F01E091380666
:1010D000F091390686E396E009958F3F980771F005
:1010E0008E3F2FEF920779F3282F4E2D6F2D86E339
:1010F00096E00E94E707FC0EDF5FE5CF8D2FDF91C2
:10110000CF911F910F91FF90EF90089521E333E06D
:1011100030933906209338060C9451080F931F938F
:10112000CF93DF938C01C62F642FCC32E8F4CA3200
:1011300008F041C0C83271F1C93209F442C080E000
:10114000C034D0F1CF73F801EC0FF11D878D8F3FC4
:1011500091F1C031E0F00E948A0421E0892B09F46A
:1011600020E0F801228F27C0CD3289F140F384EBD3
:101170008C0F823020F7CF73C00FD12FD11D8F8DF0
:10118000411133C061E00E94130560E08F8D0E9421
:10119000B30411C0015E1F4FD0E0F80181918F01AF
:1011A0008F3F31F061E0D03108F062E00E9413051A
:1011B000DF5FD63191F781E0DF91CF911F910F91E1
:1011C000089570E090E080E00E947405F4CF85E01F
:1011D00090E0433010F082E090E0880F991F880F74
:1011E000991F05970197F1F7E6CF62E00E9413057A
:1011F000E2CF1F93CF93DF93EC01EC89FD894AADD9
:101200006A3059F43396E491E40FEAAF19AE81E005
:1012100090E0DF91CF911F910895262F329614917F
:1012200069AD04960E94E707E9ADE10FE9AFEFCFA2
:1012300085ED8093BC008091BC0084FDFCCF1092B2
:101240001405089520913304260F3327331F2132CC
:101250003105ECF420911405FC0190E080E024308D
:1012600069F082E00895A09133042191AC014D5EB4
:101270005B4FA40FB52FB11D2C930196861798F3E1
:1012800080913304680F6093330480E0089581E017
:1012900008950895E091CD048091CC04E81730F4CE
:1012A000F0E0E253FB4F808190E008958FEF9FEFD5
:1012B00008959091CD048091CC042FEF3FEF9817C3
:1012C00048F4E92FF0E0E253FB4F208130E09F5FCC
:1012D0009093CD04C90108958091CC049091CD04E0
:1012E000891B990B0895CF92DF92EF92FF920F9393
:1012F0001F93CF93DF937C01CB018A0120911505C9
:10130000222389F0EB016B01C40ED51ECC15DD053F
:1013100069F06991D701ED91FC910190F081E02D88
:10132000C7010995F3CF642F0E942209C801DF91FC
:10133000CF911F910F91FF90EF90DF90CF90089584
:10134000CF93DF93EC01962F683189F1B901993180
:1013500030F4943199F0973159F080E006C099311A
:1013600009F447C09032C9F781E0DF91CF91089529
:1013700050E086ED95E00E947309F6CF8C859D853F
:10138000AE85BF85892B8A2B8B2B71F4E881F9817F
:10139000A585B0E020EA36E841E050E00E94233520
:1013A0006C877D878E879F870E94E104DDCF2C8527
:1013B0003D854E855F8560E074E284EF90E00E9499
:1013C000D334205131094109510956954795379534
:1013D00027952093B8008E8990E09595879591E0A8
:1013E00090931505809337051092160510923805D5
:1013F000BBCF0E94A002B8CFCF93DF931F92CDB78F
:10140000DEB76983209115052223F9F02091380574
:10141000203258F021E030E0FC013383228390E059
:1014200080E00F90DF91CF91089580911605E82F0D
:10143000F0E0E95EFA4F998190838F5F8093160503
:101440008093380581E090E0ECCF61E0CE01019619
:101450000E942209F7CFDC0180E0615090F09D915D
:101460009827E92FEF70F0E0EE59FE4F2491E92F15
:10147000E295EF70F0E0EE58FE4FE491822F8E2758
:10148000ECCF0895DC012C911196ED91FC91F8942C
:101490008181822B81839281322F30959323928395
:1014A00087E090E00197F1F781818323818383E2D4
:1014B00090E00197F1F790817894EFECF0E03197AC
:1014C000F1F7922381E009F480E00895FC01908116
:1014D0000180F281E02D292F209560FF14C0F8943F
:1014E0008281822382838181892B8183A3E2B0E080
:1014F0001197F1F78281982B9283789487ED90E091
:101500000197F1F70895F894828182238283818183
:10151000892B8183AFEFB0E01197F1F78281982B8F
:10152000928378948FE090E0EBCFDF92EF92FF927E
:101530000F931F93CF93DF93EC01D62EE42E08E098
:1015400010E0FF24F39461E08D2D8F2109F460E019
:10155000CE010E94660AFF0C01501109A1F7E110AB
:1015600010C0F894E981FA8191818881809589235E
:101570008183E981FA8192818881809589238283A0
:101580007894DF91CF911F910F91FF90EF90DF90B2
:101590000895EF92FF920F931F93CF93DF938C01E7
:1015A0007B0140E065E50E94950AE70188E0E80ECE
:1015B000F11C699140E0C8010E94950ACE15DF0533
:1015C000C1F7DF91CF911F910F91FF90EF90089598
:1015D000FC0190810180F281E02DF8948181292F16
:1015E00020958223818378943DE743E050E0315099
:1015F00029F1DA011197F1F780818923C1F3F89479
:101600008281822382838181892B81837894ABE7D5
:10161000B7E01197F1F7F894818182238183A3E1E8
:10162000B1E01197F1F78081982381E009F080E023
:101630007894E3E6F6E03197F1F7089580E00895B5
:10164000AF92BF92CF92DF92EF92FF920F931F93D0
:10165000CF93DF938B01BC01809116069091170602
:101660000E94C90A40E06EEB809116069091170621
:101670000E94950AE801680189E0C80ED11CA0907B
:101680001606B090170688E0E82EF12C10E001E075
:10169000C5010E94420A8111102B000F81E0E81A57
:1016A000F108B1F71993CC16DD0649F780911606BB
:1016B000909117060E94E80A91E0813009F090E0CD
:1016C000892FDF91CF911F910F91FF90EF90DF90C5
:1016D000CF90BF90AF9008950F931F93CF93DF9358
:1016E000CDB7DEB729970FB6F894DEBF0FBECDBFDA
:1016F0008C0180911606909117060E94E80A8111CC
:1017000002C080E01FC0BE016F5F7F4FC8010E9412
:10171000200B8823B1F368E0CE0101960E942B0ACA
:1017200099858913EECF8D818F33B9F020F48F31F5
:1017300041F789E007C08F3521F08F3711F78CE032
:1017400001C08BE029960FB6F894DEBF0FBECDBF67
:10175000DF91CF911F910F9108958AE0F3CFCF933E
:10176000CFB7F89480911204811127C0EEEBF1E01D
:101770008491E2EDF1E09491E82FF0E0EE0FFF1F8D
:10178000EE57FE4FA591B491EC91E92321F461E06D
:101790008AE00E94B30461E08AE00E9413058CB5E0
:1017A00080618CBD8CB580648CBD61E08DE00E9451
:1017B000130561E08BE00E941305809112048F5F96
:1017C00080931204CFBFCF910895CF93DF93EC01A4
:1017D00061E08A810E94B30489858CBD8A858DBDB4
:1017E00080916204811101C07894DF91CF910895B6
:1017F000FC01F8948CB581878DB582878CB5837F89
:101800008CBD8CB58F7D8CBD8CB58C7F8CBD8DB522
:101810008E7F8DBD60E082810C94B304F89420919A
:101820006D06233071F420911104222351F0DC0164
:10183000ED91FC910488F589E02D61E0099581E046
:10184000089520916D06233019F4789480E008956E
:10185000DC01ED91FC910288F389E02D0995F6CF2A
:101860003F924F925F926F927F928F929F92AF9230
:10187000BF92CF92DF92EF92FF920F931F93CF937D
:10188000DF93EC01162F5A01922E802E312CCE2C94
:10189000D12CF12CE12C61E070E080E090E00E941E
:1018A0007405E881F9810190F081E02D01E0292D96
:1018B000A501612FCE0109950E94A7052B013C01CE
:1018C0000E94A70564197509860997096C157D059D
:1018D0008E059F0528F5E881F9810480F581E02DCA
:1018E000CE010995882361F390910F04191711F027
:1018F0001F3F31F790910C04992311F3DF91CF91A1
:101900001F910F91FF90EF90DF90CF90BF90AF901D
:101910009F908F907F906F905F904F903F90089531
:101920003394831408F0B7CF80E0E8CFCF93DF93F0
:10193000C0E1D7E261E085E00E94B30460E085E0A9
:101940000E94B3042197B1F7DF91CF91089584B736
:10195000877F84BFE0E6F0E0808188618083108229
:101960000895282FEDE6F0E0883050F0EBE6F0E047
:101970008E3030F0ECE6F0E0863110F0F0E0E0E0A0
:101980003081422F50E0283078F481E090E0A0E0F0
:10199000B0E004C0880F991FAA1FBB1F2A95D2F779
:1019A00080958323808308952E3070F44850510928
:1019B00081E090E0A0E0B0E004C0880F991FAA1F6A
:1019C000BB1F4A95D2F7ECCF4E505109F1CFEDE64F
:1019D000F0E0883050F0EBE6F0E08E3030F0ECE6EE
:1019E000F0E0863110F0F0E0E0E09081282F30E068
:1019F000883010F541E050E060E070E0082E04C04F
:101A0000440F551F661F771F0A94D2F7492B408356
:101A10009BB3883020F121E08E3008F420E081E093
:101A200001C0880F2A95EAF7982B9BBB909168001C
:101A3000892B8093680008958E3070F42850310906
:101A400041E050E060E070E004C0440F551F661FA5
:101A5000771F2A95D2F7DACF2E503109F1CF84E0E3
:101A6000E3CFCF93DF93662309F4A6C0D091C803D8
:101A70008091C703D81709F48BC080E00E94B10C95
:101A800081E00E94B10C60E080E00E94B30460E05D
:101A900081E00E94B3048091B70480FF04C060E03D
:101AA00081E00E94130565E070E080E090E00E9414
:101AB000740580E00E948A04892B29F4C0E08C2FF1
:101AC000DF91CF91089581E00E948A04892BB1F3C0
:101AD000CCE361E080E00E94130565E070E080E007
:101AE00090E00E94740561E081E00E94130564E1CA
:101AF00070E080E090E00E94740560E080E00E9469
:101B0000130565E070E080E090E00E94740560E0FD
:101B100081E00E94130564E170E080E090E00E94A3
:101B20007405C150B1F66AE070E080E090E00E9478
:101B30007405DC1751F161E081E00E94130565E056
:101B400070E080E090E00E94740561E080E00E9417
:101B5000130564E170E080E090E00E94740560E0AD
:101B600081E00E94130565E070E080E090E00E9453
:101B7000740560E080E00E94130564E170E080E09D
:101B800090E00E947405CF5FD4CFD093C703C1E02B
:101B90008091B70480FF04C061E081E00E941305DA
:101BA00080918004882309F48ACF80E00E94E70CAA
:101BB00081E00E94E70C83CF1092C7038530F8F0D4
:101BC000880F89508093C8038091B70480FF04C0B8
:101BD00060E081E00E94130565E070E080E090E045
:101BE0000E94740580E00E948A04892B31F081E014
:101BF0000E948A04C1E0892B59F6C0E0C9CF109237
:101C0000C803E2CFCF92DF92EF92FF920F931F9320
:101C1000CF93DF936C01EB017B01E40EF51E10E026
:101C200000E0CE15DF0561F06991D601ED91FC91E0
:101C30000190F081E02DC6010995080F191FF1CF21
:101C4000C801DF91CF911F910F91FF90EF90DF902E
:101C5000CF9008950895089590E080E00895089544
:101C60008EBD00000DB407FEFDCF8EB50895EF9236
:101C7000FF920F931F93CF93DF939091EE059F3FB9
:101C800041F4DF91CF911F910F91FF90EF900C9451
:101C9000300ED82FC0E007E010E0EE24E394F12CE2
:101CA000CC0F60E08091EE050E94B304B701002ED6
:101CB00001C0660F0A94EAF76D238091EC050E943B
:101CC000B30461E08091EE050E94B3048091ED05BC
:101CD0000E948A04892B09F0C1600150110900F7A4
:101CE0008C2FDF91CF911F910F91FF90EF9008956E
:101CF000CF93DF93D82FC62F8091EB058F3FC9F488
:101D00008091E20591E0909315058093370510923C
:101D10001605109238056D2F86ED95E00E94FC099E
:101D20006C2F86ED95E00E94FC09DF91CF910C9419
:101D3000A0028091EE058F3F21F482E591E00E94A0
:101D40009D0260E08091EB050E94B3048D2F8F7798
:101D50000E94370E8C2F0E94370E61E08091EB05B8
:101D6000DF91CF910C94B3040F931F93CF93DF9324
:101D7000EC01062F142FE881F981008CF18DE02D04
:101D80000995802F80680E94300E812F0E94300EAE
:101D9000E881F981028CF38DE02DCE01DF91CF91A6
:101DA0001F910F9109941F93CF93DF93EC01162F8E
:101DB00045E561114DE56AE5CE010E94B40E40E7AC
:101DC00011114CE76CE5CE01DF91CF911F910C947E
:101DD000B40E1F93CF93DF93EC01162FE881F981A6
:101DE000008CF18DE02D0995812F0E94300E80E04E
:101DF0000E94300E182FE881F981028CF38DE02DBE
:101E0000CE010995812FDF91CF911F910895CF9336
:101E1000DF93EC0168874AE161114FE063E1CE0195
:101E20000E94B40E8885882369F061E1CE010E948A
:101E3000E90E8F71482F406661E1CE01DF91CF91AD
:101E40000C94B40E4F814068F7CFCF93DF93EC0131
:101E50001092100410920F0410920E0410921104AC
:101E600010920D0410920C0410920B0410920A04AC
:101E700068E20E94E90E82FF0AC06DE3CE010E9473
:101E8000E90E482F44606DE3CE010E94B40E40E499
:101E900065E2CE010E94B40EE881F9810488F589DB
:101EA000E02D63E0CE01DF91CF910994CF93DF93D2
:101EB000EC01603208F06FE16F838885882311F0B0
:101EC00066956F8361E1CE010E94E90E807E4F81AD
:101ED000482B61E1CE01DF91CF910C94B40E1F939A
:101EE000CF93DF9320916D06261761F0162FEC013A
:101EF000623009F445C050F4662309F453C06130E0
:101F000009F449C0DF91CF911F910895633021F109
:101F10006430C1F761E00E94E90E837E482F4C6077
:101F200061E0CE010E94B40E8885882341F0E881EB
:101F3000F9810688F789E02D61E0CE01099580914D
:101F40006D06811106C067E2CE010E94E90E87FF8F
:101F5000F6CF10936D06D6CF61E00E94E90E837E26
:101F6000482F406161E0CE010E94B40E888588232D
:101F700031F3E881F9810688F789E02D60E0DDCF53
:101F800061E00E94E90E837E482F486061E0CE0147
:101F90000E94B40ED4CF61E00E94E90E837E482FE8
:101FA0004460F4CF61E00E94E90E482F437EEECFFB
:101FB000EF92FF920F931F93CF93DF93EC0161E0B9
:101FC0008EE696E00E946F0F2097C1F08EE696E0B5
:101FD0000E94F80B8EEB0E94300E8E017E0180E194
:101FE000E80EF11CF80181918F010E94300E0E1550
:101FF0001F05C1F78EE696E00E94E50B6DE38EE6C5
:1020000096E00E94E90E8E7F41E0CD2B09F440E07E
:10201000482B6DE38EE696E0DF91CF911F910F91F3
:10202000FF90EF900C94B40ECF92DF92EF92FF925C
:102030000F931F93CF93DF93EC01F62ED42EC52E72
:10204000122FE881F9810488F589E02D61E0099576
:1020500067E2CE010E94E90E87FFFACF40E065E219
:10206000CE010E94B40E1E3308F01DE3E11027C01C
:10207000002339F100E4E881F981008CF18DE02D35
:10208000CE01099580E80E94300E83E0810F0E9406
:10209000300E8F2D0E94300E8D810E94300E802FC9
:1020A0000E94300E0D2DED2CFC2C8E2D801B8117E7
:1020B00050F4F70181917F010E94300EF6CF00E8C5
:1020C000DACF00E0D8CFE881F981028CF38DE02DE2
:1020D000CE010995E881F9810488F589E02D64E055
:1020E000CE0109950E94A7056B017C018B810E949E
:1020F0008A04892B59F40E94A7056C197D098E0961
:102100009F09683E73408105910580F3E881F9815C
:102110000488F589E02D61E0CE01DF91CF911F9118
:102120000F91FF90EF90DF90CF900994909114055C
:102130009111FCCF91E090931405909313052FEF2C
:102140002093120510921105260F209310059093ED
:10215000EF049091EF04880F892B8093EF04809116
:10216000EE04813019F51092EE048091EF04809313
:10217000BB008091BC0083FDF8CF85EC8093BC0050
:10218000809114058130E1F380911105861710F4D8
:1021900060911105A0EFB4E0EEECF4E080E086136E
:1021A00007C01092CD048093CC04089585EEE6CF4D
:1021B0009D9191938F5FF3CFCF93C82F8091EB05C3
:1021C0008F3FF9F48091E20591E09093150580939B
:1021D000370510921605109238056C2F86ED95E0A4
:1021E0000E94FC090E94A00261E08091E2050E9429
:1021F000961086ED95E00E945909C82F8C2FCF913B
:1022000008958091EE058F3F21F482E591E00E94D0
:102210009D0260E08091EB050E94B3048C2F0E9428
:10222000370E80E00E94370EC82F61E08091EB05E9
:102230000E94B304E3CFCF93DF93C82F8091EB05C7
:102240008F3F49F58091E20591E0909315058093C9
:10225000370510921605109238056C2F86ED95E023
:102260000E94FC090E94A00262E08091E2050E94A7
:10227000961086ED95E00E945909C82F86ED95E0ED
:102280000E94590920E03C2FE901C82BD92BCE012F
:10229000DF91CF9108958091EE058F3F21F482E583
:1022A00091E00E949D0260E08091EB050E94B304E2
:1022B0008C2F0E94370E80E00E94370EC82F80E0DE
:1022C0000E94370EDC2FC82F61E08091EB050E9441
:1022D000B304DDCF0E941B11982789279827089502
:1022E000CF93DF9386E78093E2058091EB058F3FE4
:1022F00009F0A8C00E94E10480ED0E94DC1088353E
:1023000019F0803609F0BBC088E80E946A119093EA
:10231000F0058093EF058AE80E946A119093F20518
:102320008093F1058CE80E946A119093F4058093E4
:10233000F3058EE80E946A119093F6058093F505E7
:1023400080E90E946A119093F8058093F70582E96D
:102350000E946A119093FA058093F90584E90E941E
:102360006A119093FC058093FB0586E90E946A112F
:102370009093FE058093FD0588E90E946A11909371
:1023800000068093FF058AE90E946A119093020675
:10239000809301068CE90E946A1190930406809351
:1023A00003068EE90E946A11909306068093050643
:1023B00081EA0E94DC108093070681EE0E946A1178
:1023C000909309068093080683EE0E94DC108093A8
:1023D0000A0684EE0E94DC10C82F85EE0E94DC10F5
:1023E00090E1C99F900111248F70282B30930C0627
:1023F00020930B0686EE0E94DC10C82F85EE0E940B
:10240000DC1090E1C99FE001112490E024E0959553
:1024100087952A95E1F78C2B9D2B90930E06809340
:102420000D0687EE0E94DC1080930F0665E082EFB8
:102430000E94780E67EB84EF0E94780E81E0DF91B6
:10244000CF91089561E00E94B30461E08091EB05B3
:102450000E9413058091EE058F3F19F40E94AF0B87
:102460004BCF61E00E94130561E08091EC050E9472
:10247000130560E08091ED050E9413053DCF80E0DB
:10248000DECF8F929F92AF92BF92CF92DF92EF9268
:10249000FF92F82E8091EB058F3F09F04CC08091A0
:1024A000E20591E09093150580933705109216058B
:1024B000109238056F2D86ED95E00E94FC090E9470
:1024C000A00263E08091E2050E94961086ED95E0FF
:1024D0000E9459094C01990FAA08BB08BA2CA92CD3
:1024E000982C882486ED95E00E945909092E000C4D
:1024F000AA0BBB0B882A992AAA2ABB2ABA2CA92C78
:10250000982C882486ED95E00E945909092E000C2C
:10251000AA0BBB0B6C017D01C828D928EA28FB282F
:10252000C701B601FF90EF90DF90CF90BF90AF90C2
:102530009F908F9008958091EE058F3F21F482E562
:1025400091E00E949D0260E08091EB050E94B3043F
:102550008F2D0E94370E80E00E94370E90E0B0E091
:10256000A0E0CC24D82EE92EFA2E80E00E94370E6F
:10257000C82AFE2CED2CDC2CCC2480E00E94370EE7
:10258000C82A61E08091EB050E94B304C9CF8F9205
:102590009F92AF92BF92CF92DF92EF92FF920F93F2
:1025A0001F938AEF0E944112E2EEF5E00585168541
:1025B00030E020E0C72ED82EE92EFF24E7FCFA9465
:1025C000C01AD10AE20AF30A57E0959587957795E4
:1025D00067955A95D1F7000F111F221F331F4B012A
:1025E0005C01801A910AA20AB30AA5019401A78589
:1025F000B0890E942E354B015C01BBE0B594A794D5
:1026000097948794BA95D1F7A7019601C701B601AF
:102610000E94AF349B01AC011CE05595479537955E
:1026200027951A95D1F7A189B2890E942E359B0171
:10263000AC010EE055954795379527950A95D1F74A
:10264000280D391D4A1D5B1D25833683478350871E
:10265000A5E0B0E00E94233560587F4F8F4F9F4F19
:10266000672F782F892F992787FD9A950E944433E9
:1026700020E030E048EC52E40E949B321F910F9121
:10268000FF90EF90DF90CF90BF90AF909F908F9092
:102690000895BF92CF92DF92EF92FF920F931F9314
:1026A000CF93DF93EC01B62EC72E8D85811105C027
:1026B000CE010E94E80A81110EC01B861D861C8671
:1026C00080E0DF91CF911F910F91FF90EF90DF900D
:1026D000CF90BF90089540E060EFCE010E94950A30
:1026E00001E0E12CD12C11E0CE010E94420AF82E2B
:1026F000CE010E94420A91E0F91218C0813099F58A
:102700001134D8F2DB86D11002C081E08D878B8135
:10271000882399F22396EB2DFC2DCF010896299161
:102720002193E817F907D9F781E0CBCFEE2DF0E040
:10273000F8120FC08B851817A0F4DE01AE0FBF1F73
:1027400013968C91802379F4F12C193008F41C87AE
:10275000D12EEC0FFD1F8381902F909589238383C9
:102760000AC08113F1CFFE01EE0DF11D8381802B94
:102770008383FF24F3946F2DCE010E94660A1F5FAE
:10278000000F11F4E39401E087E08E1508F0ACCF60
:10279000B7CFFF920F931F93CF93DF938C01F62E49
:1027A000E0911606F0911706138615861486128698
:1027B0001186108617821682158214821382C0E059
:1027C000B80180911606909117060E944913D82FE0
:1027D000882329F0FC1629F0CF5FFC1688F7D0E09B
:1027E00008C067E0C8010E942B0AF801978189138D
:1027F000F3CF8D2FDF91CF911F910F91FF9008950F
:10280000EF92FF921F93CF93DF93EC0180916D06BF
:10281000833009F098C068E2CE010E94E90E82FF81
:1028200092C0E881F9810488F589E02D61E0CE014C
:102830000995E881F981008CF18DE02DCE01099593
:1028400080E00E94300E80E00E94300E80931104E0
:1028500080911104833408F046C080911104809364
:10286000110480E00E94300E80930E048E8181114D
:1028700009C080910E049D81981721F080910E046B
:102880008F3F99F580911104833078F18091110484
:1028900083508093100480E00E94300E80930F04D8
:1028A00080E00E94300E982F907890930C04982F1F
:1028B000907490930D04E881F9810684F785E02DEA
:1028C000682FCE01099510E080911004181710F5BB
:1028D000E12EF12C80E00E94300EF701E353FC4F13
:1028E00080831F5FF1CF82E4BACF10921104E88198
:1028F000F981028CF38DE02DCE010995E881F981F3
:102900000288F389E02DCE01DF91CF911F91FF90D6
:10291000EF900994809110048D3330F4E09110040D
:10292000F0E0E353FC4F1082E881F981028CF38DD3
:10293000E02DCE010995E881F9810488F589E02D23
:1029400063E0CE01099564E2CE010E94E90E90E0B9
:102950009195819591099595879590930B04809316
:102960000A04DF91CF911F91FF90EF900895CF93CC
:10297000DF9320916D06233021F080E0DF91CF912D
:102980000895209111042111F8CFEC0164E20E9416
:10299000E90E90E091958195910980379F4F6CF7F2
:1029A000E881F9810488F589E02D61E0CE0109957F
:1029B00081E0E4CF4F925F926F927F92AF92BF928D
:1029C000CF92DF92EF92FF920F931F93CF93DF93FB
:1029D000EC015B01F42E10920D0410910F04C090D5
:1029E0000A04D0900B046DE30E94E90E482F446066
:1029F0006DE3CE010E94B40E0E94A7052B013C019D
:102A0000CE010E94B714811113C00E94A70564195A
:102A1000750986099709683E73408105910540F460
:102A2000E881F9810480F581E02DCE010995E8CF98
:102A300010930F04E881F9810088F189E02DEE24DC
:102A4000E39400E02F2DA501612FCE010995D092CE
:102A50000B04C0920A04DF91CF911F910F91FF9058
:102A6000EF90DF90CF90BF90AF907F906F905F908E
:102A70004F9008958F929F92AF92BF92CF92DF9224
:102A8000EF92FF920F931F93CF93DF93EC01162FDA
:102A90006A01F22E6DE30E94E90E482F44606DE357
:102AA000CE010E94B40E0E94A7054B015C01CE012D
:102AB0000E94B714811113C00E94A70568197909F3
:102AC0008A099B09683E73408105910540F4E881BD
:102AD000F9810480F581E02DCE010995E8CFE881E8
:102AE000F9810088F189E02DE12C2F2DA601612FBD
:102AF000CE010995DF91CF911F910F91FF90EF903B
:102B0000DF90CF90BF90AF909F908F9008954F929D
:102B10005F926F927F928F929F92AF92BF92CF926D
:102B2000DF92EF92FF920F931F93CF93DF93CDB776
:102B3000DEB76E970FB6F894DEBF0FBECDBF3C0177
:102B40004B01F42E122F6DE370E00E947F2F082FAF
:102B5000F40101900020E9F731976F01C818D908F6
:102B600011111092BE0316E0F11001C014E00E9492
:102B7000A7052091BA033091BB034091BC0350914B
:102B8000BD03621B730B840B950B603D7740810581
:102B9000910568F00E94A7056093BA037093BB0388
:102BA0008093BC039093BD0381E0809307018C2D3B
:102BB000800F9927991F5C01412E512C840D951D82
:102BC000CD970CF03FC11C2D809107012091BE03D1
:102BD000882309F49BC0822F90E0A501480F591F5C
:102BE000440D551D4D3351052CF4C11055C0222301
:102BF00009F452C084589C4F2DE7FC01208364E205
:102C00008EE696E00E94E90E90E0919581959109FB
:102C100080379F4F14F000E021C06091C4042091E0
:102C2000BE032F5F94E6E92E02E04CE753E08EE608
:102C300096E00E94300C082F811128C00E94A70541
:102C40006093BA037093BB038093BC039093BD035E
:102C5000109207018EE696E00E940E0C802F6E9671
:102C60000FB6F894DEBF0FBECDBFDF91CF911F919D
:102C70000F91FF90EF90DF90CF90BF90AF909F901B
:102C80008F907F906F905F904F9008951092BE0349
:102C90008EE696E00E940E0C8091BE03282F30E055
:102CA000A20EB31E4A0C5B1C9CE3491651040CF0A7
:102CB000B2CF112309F4BBC0882399F1E1E0E80FFA
:102CC000E093BE0324583C4F8CE2F901808390913D
:102CD000BE0381E0890F8093BE03E92FF0E0E45842
:102CE000FC4F22E220839095E92FE80FE60DF72DA7
:102CF000F11D2081A1E0A80FE82FF0E0E458FC4F7F
:102D0000222309F465C020838A2FEECFC110C4CFDF
:102D100080910701222309F4BFCF813009F07BCFD6
:102D2000BBCF91E09093BE039BE790937C0396E02A
:102D3000EBE0F2E0DE01599601900D929A95E1F7F1
:102D400091E0980FE9E1F0E0EC0FFD1FE80FF11DB5
:102D50008081882339F0E92FF0E0E458FC4F80832C
:102D6000892FEECF9093BE038091780390917903E1
:102D7000A0917A03B0917B030196A11DB11D8093B0
:102D8000780390937903A0937A03B0937B034AE08E
:102D9000BE016F5F7F4F0E948A2F2091BE03E22FFA
:102DA000AE2FA21B81E090E08C0F9D1F8A0F911D1A
:102DB000DC019C9181E08E0FF0E0E458FC4F9923F8
:102DC00019F09083E82FECCF8093BE038CE27ECF86
:102DD00092E29083E2E0E80FE093BE03B0E0A458F3
:102DE000BC4F2AE32C93FF2039F08D5F8093BE0304
:102DF000F0E0E458FC4F90838091BE03F40190E032
:102E00002191A82FA90FB0E0A458BC4F2C939F5F2D
:102E10009117B0F3E82FEC0D8F5FF1100AC0E0932B
:102E2000BE03E091BE03F0E0E458FC4F108201E0E5
:102E300015CFC80EC092BE03F0E0E458FC4F82E20A
:102E40008083EFCF88E1E1E1F2E0DE0111960190AD
:102E50000D928A95E1F780910701882309F4DBCE72
:102E60006091C4048AEFE82E04E028E1AE014F5FD0
:102E70005F4F8EE696E00E94300CCDCE4F925F926F
:102E80006F927F928F929F92AF92BF92CF92DF927A
:102E9000EF92FF920F931F93CF93DF93CDB7DEB7DF
:102EA0002B970FB6F894DEBF0FBECDBF90910101F6
:102EB000892B809301019CEA892E91E0992EF12CB7
:102EC000E12C5524539466246394712CF401819170
:102ED0004F010E948A045C0144244394019709F045
:102EE000412CC70189559B4F6C01FC01808183FFF8
:102EF00007C0808182FF04C0808187FF5092CB038E
:102F000083010E2C02C0000F111F0A94E2F780917A
:102F1000C9039091CA03A8014823592321E0452BF6
:102F200009F420E0241105C020910101222309F4B5
:102F300097C0F601208126FF5FC083E0E9E0F1E061
:102F4000DE01119601900D928A95E1F71D821C8297
:102F50004AE0BE01675F7F4FC7010E948A2F42E0AF
:102F600050E0BE01675F7F4FCE0101960E94CB36D5
:102F70004AE0BE016A5F7F4F842D90E00E948A2F55
:102F800020E041E0BE016A5F7F4FCE0101960E94C2
:102F90008715882371F08091C9039091CA03F1E0ED
:102FA000AF16B10419F5802B912B9093CA0380932F
:102FB000C9035092CB0380918004882371F1509211
:102FC000CB0380910101811102C050928104809154
:102FD000C9039091CA03AA94AB2809F06FC0082BCB
:102FE000192B1093CA030093C9033AC09801209586
:102FF000309582239323D9CF21E0A216B10439F46E
:10300000802B912B9093CA038093C903D4CF98014E
:103010002095309582239323F5CFF4013197808159
:10302000F601AA94AB2809F040C0908193FF3AC002
:103030000E94E70CF601808187FF12C0F701EE0FB6
:10304000FF1FEE0FFF1FEC59FB4F80819181A28182
:10305000B3810196A11DB11D80839183A283B383A7
:103060002FEFE21AF20A87E0E816F10409F02ECFFA
:103070001092010180E02B960FB6F894DEBF0FBED0
:10308000CDBFDF91CF911F910F91FF90EF90DF9017
:10309000CF90BF90AF909F908F907F906F905F90F8
:1030A0004F9008950E94B10CC5CF908192FF03C04C
:1030B0000E94E70CD5CF0E94B10CD2CF009510959D
:1030C000082319238ECFDF92EF92FF920F931F9365
:1030D000CF93DF93C82F1092CC031092CB030E94A2
:1030E000A70C8091BB0483FF04C060E086E00E94CF
:1030F000B3048091BB0482FD04C060E081E10E94C2
:10310000B3048091B60482FF08C084EF0E94DC10F3
:10311000682F6C7F84EF0E94780E8091BB0485FF3E
:1031200007C021E040E06DE572E0CB010E94871509
:103130008091B70484FD04C08091B70483FF0DC063
:103140008091BB0484FD09C08091BB0487FD05C04C
:1031500061E086E396E00E94BB05D0907C0010926F
:103160007C00E0907A0010927A00F0906400109257
:1031700064008091BD048F3F21F48091BC048F3F97
:1031800059F088E190E021E60FB6F894A895809375
:1031900060000FBE20936000CC2309F468C0C0918A
:1031A000BD048091BC04C89FE001112421970091C7
:1031B000BD048091BC04089F8001112460E08EE66C
:1031C00096E00E946F0FC017D10708F053C080919E
:1031D000BB0481FF0EC08091BB0482FF0AC061E086
:1031E00081E10E94B3040E94960C60E081E10E949C
:1031F000B30483B7817F846083BF83B7816083BF5B
:10320000789483B7816083BF889583B78E7F83BFAF
:10321000C430D105A9F48091B70484FD04C0809125
:10322000B70483FF0DC08091BB0487FF09C0F092F3
:10323000640061E086E396E00E94BB0510926400A2
:103240008091B60483FF06C062E370E080E090E006
:103250000E9474058091CB0381110CC08091CC0336
:10326000882319F01092CC0321972196ACCFD0E09F
:10327000C0E09DCF0E94A70CF0926400D0927C0029
:10328000E0927A0081E0809307018091B60482FF8A
:1032900008C084EF0E94DC10682F636084EF0E94F6
:1032A000780E8091BB0480FF04C061E081E10E9440
:1032B000B3048091B70484FD04C08091B70483FFF8
:1032C00005C060E086E396E00E94BB058091BB04E8
:1032D00083FF04C061E086E00E94B30488E199E2C4
:1032E0000FB6F894A895809360000FBE909360008D
:1032F000DF91CF911F910F91FF90EF90DF90089594
:10330000CF92DF92EF92FF921F93CF93DF93CDB7CF
:10331000DEB72A970FB6F894DEBF0FBECDBF182FC9
:103320008EE480937C0062E070E080E090E00E9498
:10333000740580917A00806480937A0080917A008D
:1033400086FDFCCF8091780020917900322F282FC4
:1033500050E040E06CE374EF80E190E00E94F534CF
:103360006901112381F04AE0BE016F5F7F4FC60102
:103370000E948A2F20E040E0BE016F5F7F4F89E20C
:1033800092E00E948715C6012A960FB6F894DEBF18
:103390000FBECDBFDF91CF911F91FF90EF90DF90D7
:1033A000CF9008952F923F924F925F926F927F92AB
:1033B0008F929F92AF92BF92CF92DF92EF92FF9245
:1033C0000F931F93CF93DF93CDB7DEB762970FB6FE
:1033D000F894DEBF0FBECDBF382E3FEBA32E33E0F7
:1033E000B32E4AE0C42ED12CCE010B969A8B898B3A
:1033F00052E2852E912C62E0262EF601E955FB4F14
:103400007F018081882309F4BDC0808182FF07C0CD
:1034100080910001815009F4D9C08093000183E0BC
:10342000EEE0F1E0DE01189601900D928A95E1F749
:10343000E989FA8923E011922A95E9F7F601E45522
:10344000FE4F10814AE0BE01625F7F4F812F90E006
:103450000E948A2F42E050E0BE01625F7F4FCE01A2
:1034600008960E94CB361E3008F01E50809106014F
:10347000E0E48E9FC00111241770182B10937C007C
:1034800080917A00806480937A0080917A0086FD32
:10349000FCCF6091780000917900102F062FF50184
:1034A000808191819C018233910510F02253310972
:1034B000C2968017910730F00217130718F03320D7
:1034C00009F460C0F50111830083F701808180FD5C
:1034D00028C0808181FD25C0808183FD22C080813C
:1034E00084FD03C0808182FF1CC080E00E9480199F
:1034F000BC0190E080E00E94423320E030EC4FE7D6
:1035000054E40E949B322B013C01B80190E080E022
:103510000E944233A30192010E9442340E940D3363
:103520008B01F701808182FF0FC0045F114017FFFC
:1035300002C010E000E0C801880F991F800F911FA2
:10354000B4010E94BF348B01F701808186FF02C065
:10355000000F111FF701808187FF04C0000F111FAA
:10356000000F111F4AE0BE016F5F7F4FC8010E942C
:103570008A2F20E040E0BE016F5F7F4FCE010896AA
:103580000E948715FFEFCF1ADF0A22E0A20EB11CBE
:103590008EE0C816D10409F030CF62960FB6F894C9
:1035A000DEBF0FBECDBFDF91CF911F910F91FF9076
:1035B000EF90DF90CF90BF90AF909F908F907F90D3
:1035C0006F905F904F903F902F9008952092000150
:1035D00061E080E00E94130561E080E00E94B30496
:1035E00060E177E280E090E00E94740560E080E0B6
:1035F0000E94B30464EF71E080E090E00E947405E3
:103600000ECF2F923F924F925F926F927F928F9246
:103610009F92AF92BF92CF92DF92EF92FF920F9361
:103620001F93CF93DF93CDB7DEB7CE5ED1090FB630
:10363000F894DEBF0FBECDBF8EE696E00E940E0C62
:10364000782E882309F4DFC38091BB0483FF04C074
:1036500061E085E00E94B304E0900F0480910A04C9
:1036600090910B04F09010040F2D10E0A8016DEC68
:1036700073E0CE018F559F4F0E949C3680910D04C0
:10368000882359F080910E048F3F39F040E06DE5BA
:1036900072E08EE696E00E94DA148EE696E00E94D2
:1036A0000E0C8091C404E812A0C3E1EAF0E0EC0F34
:1036B000FD1FE00FF11F108200E09E012F553F4FCC
:1036C000790114E162E27FE2C7010E94B0366C0129
:1036D000892B09F467016FE570E0C6010E94B036DE
:1036E0007C01802E912C81E090E08C0F9D1F019F2A
:1036F000800D911D1124E114F10409F481C05701DA
:10370000AC18BD0831E0A31AB108B6016F5F7F4F56
:10371000A5010E94DB36189DC001199D900D112452
:10372000E1E0F0E0EC0FFD1F8E0F9F1FA80EB91E09
:10373000F5011082DD24D394D00EFFEFEF1AFF0ABB
:1037400062E27FE2C7010E94B0365C01009709F493
:1037500055C04C018E189F0821E030E02C0F3D1F12
:10376000D19E200D311D11246901A401B701C901A9
:103770000E94DB36C80CD91CF601108272E0672E5D
:10378000600E7501FFEFEF1AFF0A62E27FE2C701E8
:103790000E94B036009781F17C012FEFE21AF20A05
:1037A00062E27FE2C7010E94B0366C01009721F10E
:1037B0004C018E189F08AA24A394B12CAC0EBD1EF8
:1037C000619EA00CB11C1124A401B701C5010E9487
:1037D000DB36A80CB91CF501108263E0662E600E82
:1037E000FFEFCF1ADF0A62E27FE2C6010E94B03625
:1037F0007C01892B09F47601062D64CF0D2D62CF53
:1038000044E150E0B6010E94DB36212C10E044E197
:10381000642E2EED30E02C0F3D1F2D5F3F4FC35126
:10382000DF4F39832883CD5ED040169D600111247F
:103830006EE272E081E090E08C0F9D1F8C0D9D1D6B
:103840000E94BB36892B09F08FC0560134E1A30ECC
:10385000B11C81E090E08C0F9D1FA80EB91EC50120
:103860000E94612F7C019FE1E916F1040CF07CC0FD
:10387000C6018896E1E0F0E0EC0FFD1F8E0F9F1F60
:103880000E94612F6701DD249601205030404901DC
:10389000682FC9010E945132C4010E943F32F601D3
:1038A000E955FB4F6F0180832091C50430E0A0E112
:1038B000B7E20E94143560939B0470939C0480933C
:1038C0009D0490939E042091BF0430E0A8E8B3E1EA
:1038D0000E9414356093920470939304809394042F
:1038E000909395042091BE0430E00E9414356093BB
:1038F000850470938604809387049093880483E002
:10390000E4E1F1E0DE01A252BF4F01900D928A95F1
:10391000E1F7C351DF4FE881F981CD5ED04027E068
:1039200011922A95E9F742E050E0B501CE018252AA
:103930009F4F0E94CB36F60180814AE0BE0168515C
:103940007F4F90E00E948A2F20E040E0BE01685146
:103950007F4FCE0182529F4F0E9487151E5F8CEED3
:103960008E0D853008F0272C169D7001112462E61B
:1039700072E081E090E08C0F9D1F8E0D9F1D0E94D4
:10398000BB36892BE9F583E0E4E1F1E0DE01A252E8
:10399000BF4F01900D928A95E1F7C351DF4FE88147
:1039A000F981CD5ED04027E011922A95E9F734E104
:1039B000E30EF11C81E090E08C0F9D1FE80EF91ED4
:1039C00042E050E0B70183529F4F0E94CB36C701BF
:1039D0000E94612F89559B4FFC0180814AE0BE0106
:1039E00068517F4F90E00E948A2F20E040E0BE01A6
:1039F00068517F4FCE0182529F4F0E9487151E5FF4
:103A0000169D40011124CC24C394D12CCC0EDD1E74
:103A1000C80CD91C60E372E0C6010E94BB36892B3A
:103A200009F046C0F12CE12C970129553B4F590173
:103A3000F90180818823A1F183E0E4E1F1E0DE0176
:103A4000A252BF4F01900D928A95E1F7CF51DF4FFF
:103A500019821882C15ED0404AE0BE0168517F4F92
:103A6000C7010E948A2F44E050E0BE0168517F4F99
:103A7000CE0182529F4F0E94CB36F50180814AE0F1
:103A8000BE0168517F4F90E00E948A2F20E041E004
:103A9000BE0168517F4FCE0182529F4F0E94871511
:103AA000FFEFEF1AFF0A2FE1E216F10409F0BCCF95
:103AB00066ED72E0C6010E94BB36892B81F5740168
:103AC00034E1E30EF11C81E090E08C0F9D1FE80EC5
:103AD000F91EC7010E94612F89559B4FFC0180810F
:103AE00085FD10928304F8E28F0E911C21E030E0F6
:103AF0002C0F3D1F820E931E65E372E0C4010E94ED
:103B0000BB36892B09F031C1C7010E94612F845552
:103B10009E4F61E0FC0180810E94B3041E5F169DF0
:103B20007001112488248394912C8C0E9D1E8E0C80
:103B30009F1C67E372E0C4010E94BB36892BC1F56C
:103B40006701F8E2CF0ED11C21E030E02C0F3D1FC1
:103B5000C20ED31E6BE372E0C6010E94BB362C017D
:103B6000570134E1A30EB11C81E090E08C0F9D1F42
:103B7000A80EB91EC5010E94612F825C9E4FFC01F8
:103B80003080452809F000C161E0832D0E94B30414
:103B900064E670E080E090E00E947405C5010E9438
:103BA000612F825C9E4F60E0FC0180810E94B30423
:103BB00061E472E0C4010E94BB36892B79F441E1D3
:103BC00050E061E270E0C701889621E030E02C0F00
:103BD0003D1F820F931F0E944732272C6BEC72E02F
:103BE000C4010E94BB36892B51F58091B70483FF35
:103BF000D6C0670134E1C30ED11C81E090E08C0F88
:103C00009D1FC80ED91EC6010E94612F62E0680F79
:103C100041E552E084E00E948608C6010E94612FBF
:103C2000A701485D5F4FE1E0F0E0EC0FFD1F4E0F94
:103C30005F1F62E0680F84E00E9486081E5F169D89
:103C400070011124CC24C394D12CCC0EDD1ECE0CDB
:103C5000DF1C63ED72E0C6010E94BB36892BE1F4E4
:103C600081E080938004C701889621E030E02C0F2A
:103C70003D1F820F931F0E94612F60E00E94310D53
:103C800020E041E06EE572E0882311F068E672E022
:103C900084E692E00E9487156BE672E0C6010E94FE
:103CA000BB36892B31F50E94A70560938904709378
:103CB0008A0480938B0490938C04609189047091A2
:103CC0008A0480918B0490918C042AE0AE014252C8
:103CD0005F4F0E94952F20E040E0BE0162527F4F6F
:103CE0008EE692E00E94871510928404109283045D
:103CF0001E5F1F5F011708F098CD222099F020E089
:103D000040E063E772E088E892E00E948715A8959A
:103D100088E199E20FB6F894A895809360000FBEF1
:103D2000909360008091BB0483FF04C060E085E055
:103D30000E94B304872DC251DF4F0FB6F894DEBF47
:103D40000FBECDBFDF91CF911F910F91FF90EF90EC
:103D5000DF90CF90BF90AF909F908F907F906F90AB
:103D60005F904F903F902F90089566E672E0C401F7
:103D70000E94BB36892B09F0D1CEC7010E94612F6A
:103D800084559E4F60E0C6CE65E372E0C6010E9496
:103D9000BB3661E0892B09F060E0832D07CF80916D
:103DA000B70484FF4BCF6701F4E1CF0ED11C21E0B3
:103DB00030E02C0F3D1FC20ED31EC6010E94612FA2
:103DC00045E452E0682F80E00E948608C6010E9408
:103DD000612FA701485D5F4FE1E0F0E0EC0FFD1FB0
:103DE0004E0F5F1F682F80E027CF6091C4048AEFD9
:103DF000E82E04E02F2DAE014F555F4F8EE696E082
:103E00000E94300C8FCF8EE696E00E940E0C92CF6F
:103E1000CF92DF92EF92FF920F931F93CF93DF9396
:103E20001F92CDB7DEB7C82EDD24D39410E08823CF
:103E300049F083E1898382E0D82E10E006C032E0A9
:103E4000D32E11E081E18983C12C80910701882361
:103E500069F06091C4042AEFE22E04E021E0AE0193
:103E60004F5F5F4F8EE696E00E94300CF12CE12C04
:103E70000E94011B882311F0F12CE12C61E070E01D
:103E800080E090E00E9474058FEFE81AF80A83EC56
:103E9000E81681E0F80661F7C1102AC08091BD04E0
:103EA000811104C08091BC04882311F182E18983CF
:103EB00080910701882369F06091C4049AEFE92E8C
:103EC00004E021E0AE014F5F5F4F8EE696E00E9476
:103ED000300C1F5F1D1508F4B2CF81E00F90DF9109
:103EE000CF911F910F91FF90EF90DF90CF900895A9
:103EF00084E1DDCF1F920F920FB60F9211242F9302
:103F00003F934F935F936F937F938F939F93AF9361
:103F1000BF93EF93FF9389E395E00E94D203FF9153
:103F2000EF91BF91AF919F918F917F916F915F9131
:103F30004F913F912F910F900FBE0F901F901895AA
:103F40001F920F920FB60F9211242F938F939F936E
:103F5000EF93FF93E0914905F0914A058081E0914C
:103F60004F05F091500582FD1BC090818091520554
:103F70008F5F8F7320915305821741F0E0915205B6
:103F8000F0E0E75CFA4F958F80935205FF91EF9137
:103F90009F918F912F910F900FBE0F901F901895AA
:103FA0008081F4CF1F920F920FB60F9211242F939E
:103FB0003F938F939F93AF93BF93809158049091B9
:103FC0005904A0915A04B0915B043091570423E046
:103FD000230F2D3758F50196A11DB11D20935704CD
:103FE0008093580490935904A0935A04B0935B04AF
:103FF00080915C0490915D04A0915E04B0915F0497
:104000000196A11DB11D80935C0490935D04A09363
:104010005E04B0935F04BF91AF919F918F913F91E8
:104020002F910F900FBE0F901F90189526E8230F29
:104030000296A11DB11DD2CF1F920F920FB60F9203
:1040400011242F933F934F935F936F937F938F939D
:104050009F93AF93BF93EF93FF93E0910401F0918F
:1040600005010995FF91EF91BF91AF919F918F91BC
:104070007F916F915F914F913F912F910F900FBE64
:104080000F901F9018951F920F920FB60F92112448
:104090002F933F934F935F936F937F938F939F9350
:1040A000AF93BF93EF93FF93E0910201F09103016F
:1040B0000995FF91EF91BF91AF919F918F917F9162
:1040C0006F915F914F913F912F910F900FBE0F9085
:1040D0001F9018951F920F920FB60F9211242F93D5
:1040E0003F934F935F936F937F938F939F93AF9380
:1040F000BF93EF93FF938091B900887F803609F4D6
:104100004AC0F0F5883209F4A7C018F5803109F4E7
:104110009BC0B8F4882309F4F9C0883009F494C02E
:10412000FF91EF91BF91AF919F918F917F916F918F
:104130005F914F913F912F910F900FBE0F901F9065
:104140001895883109F488C0803251F780931205A0
:1041500014C0803409F49DC040F48033B9F388332F
:10416000F9F68093120585ECB0C0803509F485C05E
:10417000883509F496C0883499F60E941809D0CF82
:10418000883909F48CC038F5883729F050F488361E
:1041900011F0803729F683E08093140510925504BE
:1041A00057C0883809F47BC0803919F0803809F08D
:1041B000B7CF80915504803208F071C0E09155046A
:1041C00081E08E0F809355048091BB00F0E0EB5CA2
:1041D000FB4F80833DC0803B39F0E0F4803A09F426
:1041E00079C0883A09F09CCF84E08093140510923E
:1041F000340410923304E091CA04F091CB04099581
:104200008091330481110FC081E0809333041092B8
:10421000130409C0803C09F4A6CF883C09F4A3CF5D
:10422000883B09F07DCFE091340481E08E0F8093CC
:104230003404F0E0ED5EFB4F80818093BB009091F1
:1042400034048091330429C08091EF048093BB0033
:1042500085EC8093BC0064CF90911105809110058E
:10426000981758F5E091110581E08E0F80931105A4
:10427000F0E0E051FB4F8081E9CFE091110581E052
:104280008E0F809311058091BB00F0E0E051FB4F51
:10429000808390911105809110059817C8F285E8E8
:1042A000D8CFE091110581E08E0F809311058091A8
:1042B000BB00F0E0E051FB4F80838091130581113A
:1042C0005CCF81E08093EE0484EA8093BC0010927E
:1042D000140526CF85EC8093BC00109214058091C4
:1042E0005504803230F4E0915504F0E0EB5CFB4F74
:1042F00010826091550470E0E091C804F091C90407
:1043000085E394E00995109255040ACF10921205A6
:1043100034CF1F920F920FB60F9211248F9383B751
:104320008E7F83BF8F910F900FBE0F901F901895B7
:104330001F920F920FB60F9211242F933F934F931A
:104340005F936F937F938F939F93AF93BF93CF931D
:10435000EF93FF93F89462E070E080E090E00E94B9
:104360007405789483B78E7F83BFC0910701109244
:10437000070180E00E943E1781E080939A04C09379
:1043800007018093CC03FF91EF91CF91BF91AF9143
:104390009F918F917F916F915F914F913F912F915D
:1043A0000F900FBE0F901F9018951F920F920FB68F
:1043B0000F9211242F933F934F935F936F937F93AB
:1043C0008F939F93AF93BF93EF93FF930E94982196
:1043D000FF91EF91BF91AF919F918F917F916F91DD
:1043E0005F914F913F912F910F900FBE0F901F90B3
:1043F00018951F920F920FB60F9211242F933F938F
:104400004F935F936F937F938F939F93AF93BF93DC
:10441000EF93FF930E949821FF91EF91BF91AF918D
:104420009F918F917F916F915F914F913F912F91CC
:104430000F900FBE0F901F901895CF9310923C05D0
:1044400010923B0588EE93E0A0E0B0E080933D053C
:1044500090933E05A0933F05B09340052FEB31E0CC
:1044600030933A052093390525EC30E0309346052A
:104470002093450524EC30E0309348052093470510
:1044800020EC30E030934A052093490521EC30E0E0
:1044900030934C0520934B0522EC30E030934E05D1
:1044A00020934D0526EC30E03093500520934F05C6
:1044B0001092520510925305109254051092550512
:1044C0001092D9051092D8058093DA059093DB05F8
:1044D000A093DC05B093DD0581ED91E09093D705C5
:1044E0008093D6058FEE91E090936F0680936E06D1
:1044F00088E08093700683E08093710681E080936A
:10450000720680936D06109274068FE18093750693
:1045100010927606109235061092340610926B06B1
:1045200010926C0683EE91E09093330680933206EE
:10453000109237061092360610924B0610924E06D5
:1045400010924F06109242061092430610924406B3
:10455000109245068FEF80934C0680935106E5E557
:10456000F6E0CFEFC19386E0EB36F807D9F78BE39F
:1045700096E090933B0680933A0680E397E0909311
:104580003D0680933C0680EA99E090933F06809335
:104590003E068EE898E0909341068093400630E016
:1045A00020E040E069E086E396E00E943B06C0938D
:1045B0006006C0936106C093620660E089E00E94D5
:1045C0001305E1EDF1E0E491E0932406EDEBF1E079
:1045D000E491F0E0EE0FFF1FE655FE4F85919491B8
:1045E000909326068093250610922F06109231068E
:1045F0001092300610922E0610922D0610922C0664
:1046000010922B0610922A06109229061092280664
:104610001092270684E296E0909317068093160680
:1046200010921406109215061092100689E08093DD
:10463000110681E0809312068093130610922306E0
:1046400010922206C093EB05C093EC05C093ED05D4
:10465000C093EE05CF910895CF93DF93CDB7DEB72A
:10466000CA56D1090FB6F894DEBF0FBECDBF7894FD
:1046700084B5826084BD84B5816084BD85B5826067
:1046800085BD85B5816085BD80916E008160809318
:104690006E00109281008091810082608093810081
:1046A0008091810081608093810080918000816091
:1046B000809380008091B10084608093B1008091EC
:1046C000B00081608093B00080917A008460809314
:1046D0007A0080917A00826080937A0080917A00DB
:1046E000816080937A0080917A00806880937A005C
:1046F0001092C1000E94A70C80E090E00E943F321F
:104700008F3FC1F500E010E060E0C8010E94513227
:104710000F5F1F4F20E00C311207B1F76FEF8AE1F6
:1047200090E00E9451326EEF8BE190E00E94513296
:1047300061E08CE190E00E94513261E08DE190E017
:104740000E94513262E08EE190E00E9451326FEAA5
:104750008FE190E00E94513260E080E290E00E94A0
:10476000513241E150E061E270E08EE892E00E9457
:10477000473216C08FE190E00E943F328F3A11F627
:1047800062E08FE00E94130561E070E080E090E05D
:104790000E9474058FE00E948A04892B09F4B2CF2D
:1047A00010E000E0C801805090400E943F32F801C4
:1047B000E955FB4F80830F5F1F4F0132110591F7C1
:1047C000E4E6F4E080E894E01192119211921192E3
:1047D0008E179F07C9F72091C50430E0A0E1B7E22A
:1047E0000E94143560939B0470939C0480939D04F5
:1047F00090939E042091BF0430E0A8E8B3E10E94AA
:10480000143560939204709393048093940490936E
:1048100095042091BE0430E00E9414356B017C01A8
:10482000C0928504D0928604E0928704F0928804B6
:104830000E94A7056C197D098E099F096093890460
:1048400070938A0480938B0490938C04CD28CE2897
:10485000CF2809F4E4C0109283048091C30481300E
:1048600031F48091C2048E3F11F41092070161E08F
:1048700085E00E94130561E086E00E94130561E077
:1048800087E00E94130561E082E00E94130561E069
:1048900087E00E94B30461E082E00E94B30465E017
:1048A00070E080E090E00E94740560E082E00E9489
:1048B000B3046AE070E080E090E00E9474053091FB
:1048C000C3041091C204FE0133968CE2DF011D92F5
:1048D0008A95E9F781E0898384E08A8322E02B834B
:1048E00093E09D832E838F8380E4888725E029874A
:1048F0009A8796E09B8793E39C8797E09D8728E0C3
:104900002F8729E0298B29E12B8B22E42C8B45E290
:104910004D8B8E8B46E24F8B988F98E2998F90E16A
:104920009A8F99E29B8F9CED9C8F9EE29D8F98E8D9
:104930009E8F9FE29F8F9DE298A390E399A347E308
:104940004BA340E94CA348E34DA32EA32CE32FA394
:104950002FE828A72DE329A722E12AA72FE62BA7D6
:104960009CA79FEF9DA79CE69E87888B3AA361E05A
:10497000809170060E94B30461E0809170060E94ED
:1049800013050E94AF0B0E94A7056B017C014AEA48
:104990006FE28EE696E00E94B40E6FE28EE696E03D
:1049A0000E94E90E8A3A59F00E94A7056C197D0908
:1049B0008E099F09623371058105910540F30E94BC
:1049C000A7056B017C0145E56FE28EE696E00E944B
:1049D000B40E6FE28EE696E00E94E90E853559F03E
:1049E0000E94A7056C197D098E099F096233710524
:1049F0008105910540F300E0FE0131966F01E02F43
:104A0000F0E0EE0FFF1FEC0DFD1D60816F3F59F0D0
:104A100041818EE696E00E94B40E0F5FF0CF81E0F8
:104A2000809383041ACF90E080E00E94D80F6091B9
:104A300076068EE696E00E94070F61E08EE696E02D
:104A40000E946F0F0E94A7054B015C0167E28EE692
:104A500096E00E94E90E87FD0BC00E94A705681929
:104A600079098A099B09623371058105910570F303
:104A70000E94A705681979098A099B0962337105A3
:104A80008105910570F51092620480917206823062
:104A900098F4E82FF0E0EE0FFF1FEE5FFE4F23E4E7
:104AA00033E031832083813009F4A1C18091690012
:104AB000836080936900E89A8EE696E090936104A3
:104AC000809360041093730667E00E94E90E182F2C
:104AD00067E08EE696E00E94E90E1F3F11F081111B
:104AE00017C014E160E087E00E94B30464E670E060
:104AF00080E090E00E94740561E087E00E94B304CA
:104B000064E670E080E090E00E947405115051F777
:104B10006FE18EE696E00E94560F41E150E061E2BF
:104B200070E0CE018F960E942F32CE018F960E94A8
:104B3000D80F8EE696E00E940E0C8091B104811190
:104B40000BC08091B204811107C08091B304811120
:104B500003C08091B4048111109206011CEA812ED9
:104B600011E0912E10E000E0D401FD904D01F8011C
:104B7000E955FB4F5F01FAE0FF1661F0D5016C913A
:104B800061708F2D0E941305F501608162708F2D79
:104B90000E94B304D5018C9182FF03C08F2D0E9427
:104BA000E70C0F5F1F4F07301105F1F68091BB0432
:104BB00080FF04C061E081E10E94B3048091B604EB
:104BC00081FF08C060E080E00E94130561E081E0A1
:104BD0000E9413058091B70484FD04C08091B7043E
:104BE00083FF6FC0E0913A06F0913B0630E020E091
:104BF00040E06AE086E396E0099588E0F6011192CC
:104C00008A95E9F7C6010E94FF0260E086E396E01C
:104C10000E94BB0560E086E396E00E94BB054091E0
:104C2000C104E0913A06F0913B0630E020E06EE0EE
:104C300086E396E009958CED91E09093470680938A
:104C4000460686E0EEE1F1E0D60101900D928A95EC
:104C5000E1F7FE01379684E0DF011D928A95E9F7BE
:104C60008091C2044AE0BE01605C7F4F90E00E94E8
:104C70008A2F43E050E0BE01605C7F4FC6010E9476
:104C8000CB36A60162E084E00E9486086FE972E0FC
:104C9000C6010E94C4368091C3044AE0BE01605C34
:104CA0007F4F90E00E948A2F43E050E0BE01605C9D
:104CB0007F4FC6010E94CB36A60163E084E00E94CC
:104CC00086088091BA0480FD16C380E290E00E94BD
:104CD0003F328111D9C061E080E290E00E94513200
:104CE00088E199E20FB6F894A895809360000FBE12
:104CF00090936000F89480E821E030E00FB6F894DB
:104D000080936100209361000FBE00916600609067
:104D10008000709081008090820090906F00A09041
:104D2000B000B090B100E0907000F090B60010922A
:104D30008000109281001092820010926F001092F9
:104D4000B0001092B100109270001092B60066E2AE
:104D50008EE696E00E94E90E582E45E066E28EE669
:104D600096E00E94B40E1092700083B5826883BDF5
:104D700080E48093B6008091B60080628093B60094
:104D800081E08093B1001092B00083B58F7783BD2E
:104D900087B3182F117080FFFBCF87E087BB81E0BE
:104DA0008093810080E88093660021E837E011233A
:104DB00059F1B89BFCCF23BD37BB80918400909103
:104DC000850010FD1FC0AC014D5F534047305105B9
:104DD000D8F08115944090F4809166008F5F8093A5
:104DE000660010928500109284001F5FE0CF8091D2
:104DF00069008C6080936900E99A5ECE80916600BC
:104E00008150EDCF13BCF1CF7894452D66E28EE64C
:104E100096E00E94B40E60928000709281008092B1
:104E2000820090926F00A092B000B092B100E09228
:104E30007000F092B60087E286BB87E087BB13BCA8
:104E4000111119C00093660080910701882399F021
:104E500081E1EEEEF2E0D60101900D928A95E1F744
:104E60006091C404BAEFEB2E04E021E1A6018EE6C6
:104E700096E00E94300C60E080E290E00E945132A7
:104E80000E94A70C11E018C0809107018823D1F37C
:104E900088E1EFEFF2E0D60101900D928A95E1F7FB
:104EA0006091C404AAEFEA2E04E028E1A6018EE690
:104EB00096E00E94300C10E08091B70481FF35C06D
:104EC000E0914905F0914A0582E08083E091450533
:104ED000F09146051082E0914705F09148058FEC6E
:104EE000808310925105E0914D05F0914E0586E0CA
:104EF0008083E0914B05F0914C0580818061808337
:104F0000E0914B05F0914C05808188608083E091B1
:104F10004B05F0914C05808180688083E0914B05C2
:104F2000F0914C0580818F7D80838091B60482FF53
:104F30001CC00E947011811118C080910701882344
:104F4000A1F089E1E7E1F3E0D60101900D928A95A5
:104F5000E1F76091C404EAEFEE2E04E029E1A60136
:104F60008EE696E00E94300C10E060E080E290E077
:104F70000E9451321123B9F080910701882399F0E2
:104F80008DE0E0E3F3E0D60101900D928A95E1F720
:104F90006091C4047AEFE72E04E02DE0A6018EE6CE
:104FA00096E00E94300C60E087E00E94B304FE01AE
:104FB00034966296FFAFEEAF62978091BB0483FF99
:104FC00004C060E087E00E94B3048091BB0481FFCD
:104FD0001FC00E94A7050091A3041091A404209172
:104FE000A5043091A604601B710B820B930B693BE7
:104FF0007B408105910560F00E94A7056093A304A2
:105000007093A4048093A5049093A6040E94960C28
:1050100061E080E00E94310D0E94A7052091080107
:10502000C0909F04D090A004E090A104F090A2044E
:105030006C197D098E099F09C0909B04D0909C0437
:10504000E0909D04F0909E04C616D706E806F90687
:1050500008F465C1211165C180E00E943E1780E01F
:105060000E94D2190E94A705009192041091930406
:105070002091940430919504C0909604D0909704A8
:10508000E0909804F09099046C197D098E099F09AD
:10509000061717072807390720F080919104882305
:1050A000B1F0012B022B032B91F00E94A705609316
:1050B000960470939704809398049093990420E049
:1050C00041E06BED72E08BE692E00E9487150E9452
:1050D000A705E091C20400918D0410918E042091E7
:1050E0008F0430919004AB01BC01401B510B620B4B
:1050F000730B8E2F90E088519C4F092E000CAA0B49
:10510000BB0B84179507A607B70788F40E94A7056D
:1051100060938D0470938E0480938F049093900419
:1051200020E040E06DE572E0CB010E9487150E940F
:10513000A7050091890410918A0420918B04309175
:105140008C04601B710B820B930B009185041091F2
:1051500086042091870430918804061717072807D2
:10516000390748F58091840481110BC020E041E0AB
:1051700062EE72E08EE692E00E94871581E08093F5
:10518000840410E000E0F801E955FB4F808185FFC1
:105190000AC09081F801E455FE4F808161E091FFE3
:1051A00060E00E94B3040F5F1F4F0730110559F7ED
:1051B00081E08093830480918204811109C08091F1
:1051C0000701882319F081E00E94081F8093820460
:1051D0008091BD04882309F46FC08091BC048823AA
:1051E00009F46AC080918304882309F465C0809122
:1051F0000701882319F080E00E94081F8091B704FE
:1052000080FF04C060E081E00E941305809181046A
:10521000882331F180918004882311F16AE070E0E5
:1052200080E090E00E9474051092810480E00E946A
:105230008A04892B09F40AC681E00E948A04892B1A
:1052400009F404C661E087E00E94B3046EE170E0F7
:1052500080E090E00E94740560E087E00E94B30463
:105260008091B70480FF04C061E081E00E941305D3
:1052700061E080E00E94310D809183048823E1F099
:105280008091BB0483FF04C060E087E00E94B30408
:105290008091BB0420E040E06DE572E086FFE3C54D
:1052A000CB010E948715182F81E081270E94631887
:1052B00010930801109391048091BD04882321F07C
:1052C0008091BC04811102C00E94011B8091BB042B
:1052D00083FF04C061E087E00E94B30480E090E0B7
:1052E000892B09F46ACE0E94BE03882309F465CE97
:1052F0000E94000062CE80910701882309F4C2CD8C
:1053000087E1EDE3F3E0D60101900D928A95E1F794
:105310006091C404FAEFEF2E04E027E1C7CD222309
:1053200051F08091B60480FF06C068EE73E080E023
:1053300090E00E9474050E94A70560939F047093FB
:10534000A0048093A1049093A2048091BD048823BB
:1053500019F081E00E9480198091B60480FF5BC142
:1053600080916304811191C0E0911606F0911706B7
:105370001386158614861286118610861782168269
:10538000158214821382109214061092150601E001
:10539000BE016F5F7F4F80911606909117060E94A5
:1053A0004913882309F468C067E0CE0101960E9482
:1053B0002B0A98858913ECCF80911006811128C0A3
:1053C00080911606909117060E94E80ABE016F5F51
:1053D0007F4F80911606909117060E94C90A40E0FF
:1053E00064EB80911606909117060E94950A8091B1
:1053F0001606909117060E94420A182F80911606F1
:10540000909117060E94E80A111102C0009310063D
:10541000109111068981803109F431C5CE010196C0
:105420000E946C0B8117C0F48091110680931106C5
:10543000809114068F5F809314068981883231F041
:10544000A8F4803119F0823209F0A2CF80911506BC
:105450008F5F809315069CCF8981803111F48CE099
:10546000E5CFCE0101960E946C0BE0CF8B3371F338
:10547000823409F08DCFEACF81E0809363046CED34
:1054800075E080E090E00E9474058091160690918E
:1054900017060E94E80A40E06CEC80911606909195
:1054A00017060E94950A4091100664E48091160642
:1054B000909117060E94950A809112068823A1F107
:1054C000E0911106E9505EEEC52E52E0D52EE33094
:1054D00038F4F0E0EE0FFF1FEA55FE4FC080D18098
:1054E00080911306882309F449C480911006811124
:1054F00045C40E94A7054B015C010D2C000CEE0871
:10550000FF0880911606909117060E94420A81308A
:1055100059F00E94A7056C197D098E099F0968152D
:1055200079058A059B0568F3F12C4EE0E42E809105
:105530001406F81608F061C083E0E8E2F1E0DE014D
:10554000119601900D928A95E1F76296AEADBFADCE
:105550006297EE2D1D92EA95E9F76F2DCE01805CE2
:105560009F4F0E94C913811110C460E070E08EEF5C
:1055700092EC8E01015D1F4F21E043E00E94432F1A
:105580006F2DCE01885B9F4F0E94C913075E1F4F8E
:10559000D12CD8018D918D014AE0BE01605C7F4F16
:1055A00090E00E948A2F43E050E0BE01605C7F4F94
:1055B000CE0101960E94CB36B2E0DB1631F065EAEF
:1055C00072E0CE0101960E94A536D394E3E0DE128C
:1055D000E0CF20E040E0BE01615D7F4FCE0101964B
:1055E0000E948715F5E6FF122BC420E040E067EA31
:1055F00072E08EE692E00E94871580911406811178
:105600000AC01092630420E040E063EB72E08EE693
:1056100092E00E9487158091B60481FF08C020E0C7
:1056200041E063EC72E08DEC92E00E94871580917E
:10563000B60482FF48C30E94C7128E010F5F1F4F3E
:1056400021E043E00E94432F20E040E0B80182EDDA
:1056500092E00E9487150E94C71287EF0E944112B4
:10566000AB966CAF7DAF8EAF9FAFAB978091E705E8
:105670009091E805A091E905B091EA056C017D01E2
:10568000FF0CCC08DC2C76019C01AD016C2D7C2D2F
:105690008C2D9C2D345F41405109610971098109AC
:1056A000910963962FAF639764963FAF64976596B1
:1056B0004FAF659766965FAF669767966FAF6797D0
:1056C00068967FAF689769968FAF69976A969FAF24
:1056D0006A9759016A017B018C010E9436356B96ED
:1056E0002FAF6B976C963FAF6C976D964FAF6D97E2
:1056F000A3965FAFA397A4966FAFA497A5967FAF2D
:10570000A597A6968FAFA697A7969FAFA79730911C
:10571000F8052091F705932F990F990B492F592FD1
:10572000692F792F892F0E9436350CE00E942E3682
:1057300019012A013B014C013091FA052091F9052C
:10574000932F990F990B6B96AFAC6B976C96BFAC80
:105750006C976D96CFAC6D97A396DFACA397A4968C
:10576000EFACA497A596FFACA597A6960FADA6970C
:10577000A7961FADA797492F592F692F792F892FEA
:105780000E94363508E00E944736510162017301DC
:1057900084010E94643670588F4F9F4F2090F5050A
:1057A0003090F6055101C12CD12CE12CF12C00E0F8
:1057B00010E00E94363501E20E9447366E962FAF08
:1057C0006E976F963FAF6F97A0964FAFA097A19639
:1057D0005FAFA197A2966FAFA297272E382E492EC2
:1057E000A0E00E94763609F42DC330910006209186
:1057F000FF05932F990F990B6B96AFAC6B976C9637
:10580000BFAC6C976D96CFAC6D97A396DFACA397AA
:10581000A496EFACA497A596FFACA597A6960FAD5E
:10582000A697A7961FADA797492F592F692F792FB4
:10583000892F0E9436356B962FAF6B976C963FAFD2
:105840006C976D964FAF6D97552E3B014C01309183
:10585000FE052091FD05932F990F990B6396AFAC30
:1058600063976496BFAC64976596CFAC6597669670
:10587000DFAC66976796EFAC67976896FFAC689762
:1058800069960FAD69976A961FAD6A97492F592F90
:10589000692F792F892F0E94363501E10E942E361B
:1058A0006B96AFAC6B976C96BFAC6C976D96CFACAC
:1058B0006D97D52C730184010E94643659016A01E9
:1058C0007B01582E192FAB968CAD9DADAEADBFAD03
:1058D000AB97F4E0B595A79597958795FA95D1F78D
:1058E00020E030E040E150E0281B390B4A0B5B0B15
:1058F00039014A01990C6608762C4301662D762DF4
:10590000862D962D0FE10E942E3639014A01B62FC1
:10591000A72FF82FE92F3091FC052091FB05932F3D
:10592000990F990B492F592F692F792F892F03E24E
:105930000E942E36052D0E94643659016A017B01B2
:105940008C019301A4016B2F7A2F8F2F9E2F0E9421
:105950006D36E5E3AE2EFCE0BF2EC12CD12CE12C40
:10596000F12C00E010E00E9436356E96AFAC6E97D9
:105970006F96BFAC6F97A096CFACA097A196DFAC07
:10598000A197A296EFACA297F22C032D142D0E94A2
:10599000903563962FAF639764963FAF6497659693
:1059A0004FAF659766965FAF669767966FAF6797DD
:1059B00068967FAF689769968FAF69976A969FAF31
:1059C0006A970DE00E944736922E832E742E652E24
:1059D000562E472E382E292E309106062091050688
:1059E000932F990F990BA92CB82CC72CD62CE52CEA
:1059F000F42C032D122D492F592F692F792F892F20
:105A00000E9436350E94363509E10E94473663967A
:105A1000AFAC63976496BFAC64976596CFAC65975F
:105A20006696DFAC66976796EFAC67976896FFACB3
:105A3000689769960FAD69976A961FAD6A970E943D
:105A4000643619012A013B014C0130910406209172
:105A50000306932F990F990B492F592F692F792FEF
:105A6000892F0E94363503E10E94473659016A01A9
:105A70007B018C019101A201B301C4010E94643633
:105A800008E00E94473659016A017B01E82F192F6F
:105A90003091020620910106932F990F990B492FFF
:105AA000592F692F792F892F04E00E942E360E2F4F
:105AB0000E9464360E943C3320E030E040E85BE323
:105AC0000E94423420E030E048EC52E40E949B32D5
:105AD0006B017C0120E030E0A9010E949632811127
