:100000000C94E0020C94E21B0C94BB1B0C942D0B83
:100010000C94F00A0C94B30A0C94BB050C940803DE
:100020000C9408030C9408030C9408030C94080324
:100030000C9408030C9408030C9408030C94080314
:100040000C94711B0C9408030C94FA190C94D41999
:100050000C9408030C9408030C9408030C940803F4
:100060000C9458120C94080300407A10F35A00A024
:10007000724E18090010A5D4E80000E87648170071
:1000800000E40B54020000CA9A3B000000E1F505B1
:10009000000080969800000040420F000000A086FB
:1000A00001000000102700000000E803000000002D
:1000B0006400000000000A000000000001000000D1
:1000C00000002C76D888DC674F0823DFC1DFAE59EB
:1000D000E1B1B796E5E3E453C63AE651997696E87E
:1000E000E6C28426EB898C9B62ED407C6FFCEFBC02
:1000F0009C9F40F2BAA56FA5F490055A2AF75C932D
:100100006B6CF9676DC11BFCE0E40D47FEF520E662
:10011000B500D0ED902E0300943577050080841E45
:10012000080000204E0A000000C80C333333330FA0
:10013000986E12831141EF8D2114893BE65516CF3D
:10014000FEE6DB18D1844B381BF77C1D901DA4BB49
:10015000E424203284725E228100C9F124ECA1E5FE
:100160003D27207F000000000000000000065F5FC8
:10017000060000000007070007070000147F7F1437
:100180007F7F1400242E6B6B3A12000046663018F5
:100190000C666200307A4F5D377A4800040703002E
:1001A00000000000001C3E63410000000041633E6F
:1001B0001C000000082A3E1C1C3E2A0808083E3E7F
:1001C000080800000080E06000000000080808083F
:1001D0000808000000006060000000006030180C9B
:1001E000060301003E7F71594D7F3E0040427F7FF4
:1001F00040400000627359494F660000226349493C
:100200007F360000181C16537F7F50002767454536
:100210007D3900003C7E4B49793000000303717941
:100220000F070000367F49497F360000064F4969B5
:100230003F1E0000000066660000000000407636A9
:1002400000000000081C3663410000002424242420
:1002500024240000004163361C08000002035159A9
:100260000F0600003E7F415D5D1F1E007C7E131364
:100270007E7C0000417F7F49497F36001C3E634100
:1002800041632200417F7F41633E1C00417F7F49E3
:100290005D416300417F7F491D0103001C3E6341B6
:1002A000517372007F7F08087F7F000000417F7FCD
:1002B00041000000307040417F3F0100417F7F08D6
:1002C0001C776300417F7F41406070007F7F0E1C80
:1002D0000E7F7F007F7F060C187F7F001C3E6341EE
:1002E000633E1C00417F7F49090F06001E3F2171BC
:1002F0007F5E0000417F7F09197F660022674D59AC
:100300007322000003417F7F410300007F7F404054
:100310007F7F00001F3F60603F1F00007F7F30181D
:10032000307F7F0043673C183C674300074F787875
:100330004F070000476371594D677300007F7F418D
:10034000410000000103060C183060000041417FAD
:100350007F000000080C0603060C080080808080E7
:100360008080808000000307040000002074545443
:100370003C784000417F3F4848783000387C444416
:100380006C280000307848493F7F4000387C545446
:100390005C180000487E7F490302000098BCA4A4BA
:1003A000F87C0400417F7F08047C780000447D7D58
:1003B0004000000060E08080FD7D0000417F7F10F4
:1003C000386C440000417F7F400000007C7C18387E
:1003D0001C7C78007C7C04047C780000387C4444DD
:1003E0007C38000084FCF8A4243C1800183C24A4A9
:1003F000F8FC8400447C784C041C1800485C54547D
:100400007424000000043E7F442400003C7C4040F3
:100410003C7C40001C3C60603C1C00003C7C703814
:10042000707C3C00446C3810386C44009CBCA0A02C
:10043000FC7C00004C64745C4C64000008083E774F
:100440004141000000000077770000004141773E05
:1004500008080000020301030203010070784C4603
:100460004C787000005EBCE2613FDD83C29C7E2060
:10047000A3FD1F419DC3217FFCA2401E5F01E3BD80
:100480003E6082DC237D9FC1421CFEA0E1BF5D0374
:1004900080DE3C62BEE0025CDF81633D7C22C09E68
:1004A0001D43A1FF4618FAA427799BC584DA386654
:1004B000E5BB5907DB856739BAE406581947A5FB40
:1004C0007826C49A653BD987045AB8E6A7F91B4534
:1004D000C6987A24F8A6441A99C7257B3A6486D828
:1004E0005B05E7B98CD2306EEDB3510F4E10F2AC14
:1004F0002F7193CD114FADF3702ECC92D38D6F3100
:10050000B2EC0E50AFF1134DCE90722C6D33D18FF3
:100510000C52B0EE326C8ED0530DEFB1F0AE4C12E7
:1005200091CF2D73CA947628ABF517490856B4EAD3
:100530006937D58B5709EBB536688AD495CB2977BF
:10054000F4AA4816E9B7550B88D6346A2B7597C9B3
:100550004A14F6A8742AC896154BA9F7B6E80A54A7
:10056000D7896B3500000000240027002A00000016
:100570000000250028002B000000000800020100F8
:10058000000304070000000000000000000000005D
:1005900023002600290004040404040404040202C5
:1005A00002020202030303030303010204081020F2
:1005B00040800102040810200102040810200730C6
:1005C00011241FBECFEFD8E0DEBFCDBF13E0A0E007
:1005D000B1E0E0EDF1E702C005900D92A232B10763
:1005E000D9F726E0A2E2B3E001C01D92A533B2071D
:1005F000E1F712E0C0EED2E004C02197FE010E94B4
:100600008D38CF3DD107C9F70E94B6220C94E63849
:100610000C9400000895282F883038F08E3040F078
:10062000863148F4ECE6F0E008C0EDE6F0E005C005
:10063000EBE6F0E002C0E0E0F0E03081283060F46A
:1006400081E090E0A0E0B0E004C0880F991FAA1FED
:10065000BB1F2A95D2F715C0822F90E0AC012E3037
:1006600018F44850510902C04E50510981E090E001
:10067000A0E0B0E004C0880F991FAA1FBB1F4A95D5
:10068000D2F78095832380830895CF92DF92EF92F3
:10069000FF920F931F93CF93DF936C01EB017B01CC
:1006A000E40EF51E00E010E0CE15DF0561F0699163
:1006B000D601ED91FC910190F081E02DC6010995E4
:1006C000080F191FF1CFC801DF91CF911F910F9132
:1006D000FF90EF90DF90CF900895089580E090E034
:1006E0000895CF93DF93EC01603208F06FE16F83E0
:1006F0008885882311F066956F8361E1CE010E94A1
:100700002515807E9F81482F492B61E1CE01DF9125
:10071000CF910C94E3141F93CF93DF9320911B068A
:10072000621709F45DC0162FEC016230E9F168F43C
:10073000662309F440C0613009F052C061E00E94B4
:100740002515837E482F44603BC06330B9F0643088
:1007500009F046C061E00E942515837E482F4C6059
:1007600061E0CE010E94E3148885882369F1E88165
:10077000F9810688F789E02D61E013C061E00E94ED
:100780002515837E482F406161E0CE010E94E3146D
:1007900088858823C9F0E881F9810688F789E02DEA
:1007A00060E0CE01099510C061E00E942515837EAE
:1007B000482F486005C061E00E942515482F437E00
:1007C00061E0CE010E94E31480911B06811106C0F6
:1007D00067E2CE010E94251587FFF6CF10931B0616
:1007E000DF91CF911F9108953F924F925F926F9248
:1007F0007F928F929F92AF92BF92CF92DF92EF92B1
:10080000FF920F931F93CF93DF93EC01162F5A01A2
:10081000922E302E812CCE2CD12CE12CF12C61E0AB
:1008200070E080E090E00E94C11AE881F9810190B7
:10083000F081E02D01E0292DA501612FCE01099560
:100840000E94651B2B013C010E94651BDC01CB0152
:1008500084199509A609B7098C159D05AE05BF0534
:10086000A0F4E881F9810480F581E02DCE0109959D
:10087000882351F390913904911711F01F3F21F70C
:1008800090913604911105C0DFCF8394381438F667
:1008900080E0DF91CF911F910F91FF90EF90DF905B
:1008A000CF90BF90AF909F908F907F906F905F9010
:1008B0004F903F900895CF93DF9320911B062330F4
:1008C000C9F420913B04211115C0EC0164E20E949F
:1008D000251590E09195819591098C349F4F54F4A2
:1008E000E881F9810488F589E02D61E0CE01099560
:1008F00081E001C080E0DF91CF9108954F925F9237
:100900006F927F92AF92BF92CF92DF92EF92FF925F
:100910000F931F93CF93DF93EC015B01F42E1092A2
:10092000370410913904C0903404D09035046DE33D
:100930000E942515482F44606DE3CE010E94E31408
:100940000E94651B2B013C01CE010E945B048823A1
:1009500011F110933904E881F9810088F189E02DC3
:10096000EE24E39400E02F2DA501612FCE0109951F
:10097000D0923504C0923404DF91CF911F910F9132
:10098000FF90EF90DF90CF90BF90AF907F906F90EF
:100990005F904F9008950E94651BDC01CB01841984
:1009A0009509A609B709883E9340A105B10588F6C7
:1009B000E881F9810480F581E02DCE010995C4CF4D
:1009C0008F929F92AF92BF92CF92DF92EF92FF925F
:1009D0000F931F93CF93DF93EC01162F6A01F22E32
:1009E0006DE30E942515482F44606DE3CE010E94FF
:1009F000E3140E94651B4B015C01CE010E945B0465
:100A00008823C1F0E881F9810088F189E02DE12C8B
:100A10002F2DA601612FCE010995DF91CF911F9156
:100A20000F91FF90EF90DF90CF90BF90AF909F908D
:100A30008F9008950E94651BDC01CB0188199909EC
:100A4000AA09BB09883E9340A105B105D8F6E88103
:100A5000F9810480F581E02DCE010995CECF8EBDC0
:100A600000000DB407FEFDCF8EB50895CF92DF9242
:100A7000EF92FF920F931F93CF93DF93EC01F62E2B
:100A8000D42EC52E122FE881F9810488F589E02D36
:100A900061E0099567E2CE010E94251587FFFACF34
:100AA00040E065E2CE010E94E3141E3308F01DE32E
:100AB000E11004C0002321F000E403C000E801C0FD
:100AC00000E0E881F981008CF18DE02DCE010995DF
:100AD00080E80E942F0583E0810F0E942F058F2D53
:100AE0000E942F058D810E942F05802F0E942F05C7
:100AF0000D2DED2CFC2C8E2D801B811730F4F70171
:100B000081917F010E942F05F6CFE881F981028C47
:100B1000F38DE02DCE010995E881F9810488F589EE
:100B2000E02D64E0CE0109950E94651B6B017C01FC
:100B30008B810E942C1A892B81F0E881F98104882D
:100B4000F589E02D61E0CE01DF91CF911F910F91EA
:100B5000FF90EF90DF90CF9009940E94651BDC011D
:100B6000CB018C199D09AE09BF09883E9340A105B0
:100B7000B105F0F2E2CF1F920F920FB60F9211243F
:100B80008F9383B78E7F83BF8F910F900FBE0F908F
:100B90001F901895CF93DF93C0E1D7E261E085E025
:100BA0000E94551A60E085E00E94551A2197B1F71E
:100BB000DF91CF9108953F924F925F926F927F9213
:100BC0008F929F92AF92BF92CF92DF92EF92FF925D
:100BD0000F931F93CF93DF93CDB7DEB76F970FB609
:100BE000F894DEBF0FBECDBF2C013B01342E6DE368
:100BF00070E02F8F0E944531F82EF3010190002004
:100C0000E9F731976F01C618D7082F8D211110927F
:100C10008D03311002C014E001C016E00E94651B74
:100C20008090890390908A03A0908B03B0908C03EE
:100C3000DC01CB0188199909AA09BB0980319742C7
:100C4000A105B10568F00E94651B6093890370934C
:100C50008A0380938B0390938C0381E08093070138
:100C6000460199248F0C911CA12EB12CC4018A0D30
:100C70009B1DCD970CF031C1FC2C80910701209178
:100C80008D03882309F451C0822F90E0A401480FFE
:100C9000591F4A0D5B1D4D3351052CF4C1104EC038
:100CA000222309F44BC0FC01E55BFC4F3DE7308398
:100CB0006091E4032F5F93E2E92E05E04BE453E0FB
:100CC0008CE196E00E94F40381112CC06091E20354
:100CD00070E080E090E00E94023526E636E646EAC3
:100CE0005FE30E9400360E94CB340E94C11A6091DB
:100CF000E40320918D032F5F4BE453E08CE196E0F9
:100D00000E94F403182F81110DC00E94651B60938F
:100D1000890370938A0380938B0390938C031092C2
:100D20000701F8C010928D0309C0C11007C080915F
:100D30000701222319F0813008F4E9C080918D0366
:100D4000E82FF0E08E0E9F1EA80CB91C9CE3A9169C
:100D5000B1040CF0DCC0FF2009F4DBC0E55BFC4F04
:100D6000882331F08F5F80938D038CE280835BC09A
:100D700081E080938D038BE7808386E0E0EEF1E0F5
:100D8000DE01599601900D928A95E1F720918D032D
:100D900080E0E82FE20FA9E1B0E0AC0FBD1FA80F83
:100DA000B11D9C91992331F0F0E0E55BFC4F9083FD
:100DB0008F5FEFCFE0938D038091470390914803BD
:100DC000A0914903B0914A030196A11DB11D8093E2
:100DD000470390934803A0934903B0934A034AE022
:100DE000BE016F5F7F4F0E94503150918D0330E004
:100DF000232F250FE1E0F0E0EC0FFD1FE30FF11DC5
:100E00004081822F90E0442331F0FC01E55BFC4FF0
:100E100040833F5FEDCF2F5F20938D03FC01E55BA7
:100E2000FC4F2CE22083E0918D0351E05E0F509344
:100E30008D03F0E0E55BFC4F82E2808390E0892F38
:100E4000850FF201E90FF11D4081282F30E0F901F3
:100E5000E55BFC4F442319F040839F5FF0CF92E2A3
:100E60009083E2E0E80FE0938D03A1E0A80FB0E0EB
:100E7000A55BBC4F2AE32C93332039F08D5F809320
:100E80008D03F0E0E55BFC4F908350918D03262DA0
:100E9000D301452F4619842F8A0F90E03D91855B41
:100EA0009C4FFC0130838A2F821B8F15A0F3C50E47
:100EB000C0928D03332051F081E08C0D80938D031F
:100EC000EC2DF0E0E55BFC4F82E28083E0918D0346
:100ED000F0E0E55BFC4F10821CC088E1E6EEF1E03B
:100EE000DE01119601900D928A95E1F7809107013C
:100EF000882369F06091E40383E2E82E05E028E1AD
:100F0000AE014F5F5F4F8CE196E00E94F40310E06A
:100F100001C011E0812F6F960FB6F894DEBF0FBEAF
:100F2000CDBFDF91CF911F910F91FF90EF90DF9098
:100F3000CF90BF90AF909F908F907F906F905F9079
:100F40004F903F900895CF92DF92EF92FF921F93C0
:100F5000CF93DF93CDB7DEB72A970FB6F894DEBFF5
:100F60000FBECDBF182F8EE480937C0062E070E04E
:100F700080E090E00E94C11A90917A009064909372
:100F80007A0080917A0086FDFCCF209178008091D4
:100F9000790030E0382B40E050E06CE374EF80E102
:100FA00090E00E94913669017A01112381F04AE0B4
:100FB000BE016F5F7F4FC6010E94503120E040E0CC
:100FC000BE016F5F7F4F8EEF91E00E94DB05C6018F
:100FD0002A960FB6F894DEBF0FBECDBFDF91CF913A
:100FE0001F91FF90EF90DF90CF9008950FB6F89487
:100FF000A8958091600088618093600010926000E5
:101000000FBE0895DF92EF92FF920F931F93CF933D
:10101000DF93C82F10929203109291030E94F6075B
:101020008091DB0383FF04C060E086E00E94551AD4
:101030008091DB0382FD04C060E086E00E94551AC7
:101040008091D60382FF08C084EF0E94D721682FC9
:101050006C7F84EF0E9447218091DB0385FF07C0EE
:1010600021E040E062E372E0CB010E94DB05809169
:10107000D70384FD04C08091D70383FF04C080910F
:10108000DB0384FFBBC0E0907C0010927C00D0901A
:101090007A0010927A00F0906400109264008091BF
:1010A000DD038F3F09F0B4C08091DC038F3F09F06E
:1010B000AFC0CC2349F08091DD03C091DC038C9F4D
:1010C000E0011124219702C0C0E0D0E00091DD03CF
:1010D0008091DC03089F8001112460E08CE196E0A0
:1010E0000E948B03C017D10708F03DC08091DB033D
:1010F00081FF04C08091DB0382FD96C083B7817FAE
:10110000846083BF83B7816083BF789483B7816035
:1011100083BF889583B78E7F83BFC430D105A9F480
:101120008091D70384FD04C08091D70383FF0DC055
:101130008091DB0387FF09C0F092640061E088EED4
:1011400095E00E94091C109264008091D60383FFF1
:1011500006C064E670E080E090E00E94C11A8091D1
:1011600091038823C1F00E94F607F0926400E09298
:101170007C00D0927A0081E0809307018091D603B1
:1011800082FF12C084EF0E94D721682F636084EF32
:101190000E94472109C080919203882319F0109280
:1011A0009203219721969ECF8091DB0380FF04C09C
:1011B00061E086E00E94551A8091D70384FD3FC00C
:1011C0008091D70383FD3BC08091DB0383FF04C084
:1011D00061E086E00E94551A99E288E10FB6F89422
:1011E000A895809360000FBE90936000DF91CF912F
:1011F0001F910F91FF90EF90DF9008958091DB0396
:1012000087FD41CF61E088EE95E00E94091C3BCF4D
:1012100091E628E130E00FB6F894A895209360009D
:101220000FBE9093600045CF61E086E00E94551AA2
:101230000E94CA0560E086E00E94551A5FCF60E018
:1012400088EE95E00E94091CBFCF883038F08E30C0
:1012500040F0863148F4ECE6F0E008C0EDE6F0E05E
:1012600005C0EBE6F0E002C0E0E0F0E090818830FD
:1012700068F441E050E060E070E0082E04C0440FE4
:10128000551F661F771F0A94D2F714C0282F30E02D
:101290008E3018F42850310902C02E50310941E037
:1012A00050E060E070E004C0440F551F661F771FD8
:1012B0002A95D2F7492B40832BB3883050F031E088
:1012C0008E3008F430E091E001C0990F3A95EAF7CA
:1012D00001C094E0922B9BBB90916800883050F045
:1012E00021E08E3008F420E081E001C0880F2A95CB
:1012F000EAF701C084E0892B8093680008952F925B
:101300003F924F925F926F927F928F929F92AF9295
:10131000BF92CF92DF92EF92FF920F931F93CF93E2
:10132000DF93CDB7DEB72C970FB6F894DEBF0FBEB4
:10133000CDBF90910001892B809300018CE1E82EB4
:1013400081E0F82E96E9892E93E0992E00E010E0D6
:10135000AA24A394B12C30E7232E3FE5332E412C51
:10136000512CF70180810E942C1A31E0019709F07D
:1013700030E0C80189539C4F6C01FC01808183FFE0
:1013800006C0808182FF03C0808187FFB4C0632EC6
:10139000712C80919003482F50E0002E02C055958B
:1013A00047950A94E2F7417055276416750629F4AB
:1013B00090910001992309F476C0F601908196FF7F
:1013C00045C029823A824B825C821D824AE0BE017E
:1013D000675F7F4FC8013C870E94503142E050E078
:1013E000BE01675F7F4FCE0101960E94C7384AE079
:1013F000BE016A5F7F4FC3010E94503120E041E08F
:10140000BE016A5F7F4FCE0101960E94DB053C85DD
:101410008823C1F020919003332351F0A501002EC1
:1014200001C0440F0A94EAF7422B409390030AC08C
:10143000C501002E01C0880F0A94EAF78095822327
:1014400080939003F1E0F09391030EC0A501002E6C
:1014500001C0440F0A94EAF7332311F0842B02C031
:1014600040958423809390038091B203811158C0EA
:10147000332309F448C0F6018081F70183FF3FC0A0
:1014800080810E942509F601808187FF0CC0F4014C
:1014900080819181A281B3810196A11DB11D8083BC
:1014A0009183A283B3830F5F1F4F8FEFE81AF80A6F
:1014B00094E0890E911C0730110509F052CF10926B
:1014C000000180E02C960FB6F894DEBF0FBECDBFB2
:1014D000DF91CF911F910F91FF90EF90DF90CF9010
:1014E000BF90AF909F908F907F906F905F904F9044
:1014F0003F902F900895E1E0E093910348CF8081E1
:101500000E940B03C0CFF6018081F70182FF04C067
:1015100080810E942509C7CF80810E940B03C3CF21
:10152000F1E0F093910380910001811103C0F1E09B
:10153000F093B30340919003332351F09501002EB3
:1015400001C0220F0A94EAF7242B20939003ABCF1B
:10155000C501002E01C0880F0A94EAF78095842304
:1015600080939003A0CF1F920F920FB60F92112479
:101570002F933F934F935F936F937F938F939F939B
:10158000AF93BF93CF93EF93FF93F89462E070E033
:1015900080E090E00E94C11A789483B78E7F83BF69
:1015A000C09107011092070180E00E947F0981E04D
:1015B0008093C203C093070180939203FF91EF9140
:1015C000CF91BF91AF919F918F917F916F915F91DB
:1015D0004F913F912F910F900FBE0F901F90189534
:1015E0001F920F920FB60F9211242F933F934F9398
:1015F0005F936F937F938F939F93AF93BF93CF939B
:10160000EF93FF93F89462E070E080E090E00E9436
:10161000C11A789483B78E7F83BFC091070110925F
:10162000070180E00E947F0981E08093C203C0939C
:10163000070180939203FF91EF91CF91BF91AF91FA
:101640009F918F917F916F915F914F913F912F91DA
:101650000F900FBE0F901F9018951F920F920FB60C
:101660000F9211242F933F934F935F936F937F9328
:101670008F939F93AF93BF93CF93EF93FF93F89480
:1016800062E070E080E090E00E94C11A789483B735
:101690008E7F83BFC09107011092070180E00E94F6
:1016A0007F0981E08093C203C09307018093920376
:1016B000FF91EF91CF91BF91AF919F918F917F91CA
:1016C0006F915F914F913F912F910F900FBE0F90AF
:1016D0001F901895CF93DF93662309F48FC0D091A4
:1016E0008F0380918E03D81709F4AAC080E00E946E
:1016F0000B0381E00E940B0360E080E00E94551A1A
:1017000060E081E00E94551A8091D70380FF04C0F9
:1017100060E081E00E94851A65E070E080E090E082
:101720000E94C11A80E00E942C1A892B09F49CC0E7
:1017300081E00E942C1A892B09F496C0CCE361E069
:1017400080E00E94851A65E070E080E090E00E94F1
:10175000C11A61E081E00E94851A64E170E080E0D6
:1017600090E00E94C11A60E080E00E94851A65E066
:1017700070E080E090E00E94C11A60E081E00E9489
:10178000851A64E170E080E090E00E94C11AC150C7
:10179000B1F66AE070E080E090E00E94C11ACD17D7
:1017A00051F161E081E00E94851A65E070E080E01F
:1017B00090E00E94C11A61E080E00E94851A64E115
:1017C00070E080E090E00E94C11A60E081E00E9439
:1017D000851A65E070E080E090E00E94C11A60E048
:1017E00080E00E94851A64E170E080E090E00E9451
:1017F000C11ACF5FD4CFC0938E0321C0853028F0AB
:10180000880F895080938F0302C010928F038091BC
:10181000D70380FF04C060E081E00E94851A65E084
:1018200070E080E090E00E94C11A80E00E942C1AD3
:10183000892BE1F081E00E942C1A892BB9F0C1E0DC
:101840008091D70380FF04C061E081E00E94851A87
:101850008091B203882331F080E00E94250981E065
:101860000E9425098C2F04C080E002C0C0E0E8CFB0
:10187000DF91CF9108952F923F924F925F926F9296
:101880007F928F929F92AF92BF92CF92DF92EF9210
:10189000FF920F931F93CF93DF93CDB7DEB7CE5E4A
:1018A000D1090FB6F894DEBF0FBECDBF8CE196E034
:1018B0000E94FC11282E882309F43EC48091DB038A
:1018C00083FF04C061E085E00E94551AE09039046E
:1018D0008091340490913504F0903A040F2D10E07B
:1018E000A80167EF73E0CE018F559F4F0E94983893
:1018F00080913704882329F0809138048F3F09F0C4
:1019000020C48CE196E00E94FC118091E403E8126F
:10191000FDC3E1EAF0E0EC0FFD1FE00FF11F1082C4
:10192000312C8E010F551F4FE4E18E2EF4E19F2ED6
:1019300062E27FE2C8010E94AC38009709F08C0196
:101940006FE570E0C8010E94AC385C01232D30E0E7
:10195000009709F48BC07C01E01AF10A81E0E81AD3
:10196000F108B8016F5F7F4F829E6001839ED00CAB
:101970001124A70181E090E08C0F9D1F8C0D9D1D0F
:101980000E94D738EC0CFD1CE1E0F0E0EC0FFD1FED
:10199000EE0DFF1D1082CC24C394C30C85010F5F94
:1019A0001F4F62E27FE2C8010E94AC385C010097E1
:1019B00011F43C2CBDCF7C01E01AF10A9C9C600123
:1019C0001124A701B80181E090E08C0F9D1F8C0DC0
:1019D0009D1D0E94D738EC0CFD1CE1E0F0E0EC0FFF
:1019E000FD1FEE0DFF1D108272E0E72EE30C850156
:1019F0000F5F1F4F62E27FE2C8010E94AC38009780
:101A000011F43E2C95CF8C010F5F1F4F62E27FE2F5
:101A1000C8010E94AC385C01009799F36C01C01AB0
:101A2000D10A9E9C70011124A601B80181E090E0CA
:101A30008C0F9D1F8E0D9F1D0E94D738EC0CFD1C36
:101A4000E1E0F0E0EC0FFD1FEE0DFF1D108263E002
:101A5000E62EE30C85010F5F1F4F62E27FE2C801B3
:101A60000E94AC38009769F28C01CBCF44E1429FD1
:101A7000C001439F900D112444E150E0B801E1E022
:101A8000F0E0EC0FFD1F8E0F9F1F0E94D738C4514E
:101A9000DF4F1882CC5ED04010E004E157E7452EBE
:101AA0005FE5552E612C712C2EED30E02C0F3D1F83
:101AB0002C5F3F4FC351DF4F39832883CD5ED04029
:101AC000A12EB12C63E072E081E090E08C0F9D1FAD
:101AD000019F800D911D11240E94B738892B09F0B8
:101AE00091C0C5010196089F6001099FD00C112487
:101AF00081E090E08C0F9D1FC80ED91EC6010E9488
:101B000027317C019FE1E916F1040CF07BC0E2E093
:101B1000AE0EB11C0A9DC0010B9D900D112421E059
:101B200030E02C0F3D1F820F931F0E942731570179
:101B3000BB24F501E050F0404F01682FCF010E9417
:101B40004634C4010E943434950129533C4F590155
:101B5000F90180832091E50330E0A0E1B7E20E9423
:101B6000B0366093C3037093C4038093C50390930E
:101B7000C6032091DF0330E0A8E8B3E10E94B0364D
:101B80006093BE037093BF038093C0039093C1031F
:101B90002091DE0330E00E94B0366093B60370936C
:101BA000B7038093B8039093B903C252DF4F4882C2
:101BB00059826A827B82CE5DD040C351DF4FE8817B
:101BC000F981CD5ED04026E011922A95E9F742E0F6
:101BD00050E0B601CE0182529F4F0E94C738F501F6
:101BE000608170E0CE0182529F4F0E947B1E1E5F7B
:101BF0008CEE8E0D853030F0F1E0C451DF4FF8836C
:101C0000CC5ED040E12EF12C67E372E081E090E001
:101C10008C0F9D1F019F800D911D11240E94B738CC
:101C2000892BA9F5C252DF4F488259826A827B8292
:101C3000CE5DD040C351DF4FE881F981CD5ED04009
:101C400026E011922A95E9F7C7010196089F7001D5
:101C5000099FF00C112481E090E08C0F9D1FE80E8D
:101C6000F91E42E050E0B701CE0182529F4F0E9420
:101C7000C738C7010E94273189539C4FFC016081FE
:101C800070E0CE0182529F4F0E947B1E1E5F812E0C
:101C9000912CAA24A394B12CAC0EBD1E019FA00CC4
:101CA000B11C112465E072E0C5010E94B738892B90
:101CB00049F06DE972E0C5010E94B738892B09F43B
:101CC00045C089C0E12CF12C970129533C4F690193
:101CD000F9018081882389F1C252DF4F48825982FD
:101CE0006A827B82CE5DD040CE51DF4F1882C25EC9
:101CF000D0404AE0BE0168517F4FC7010E94503179
:101D000044E050E0BE0168517F4FCE0182529F4FA8
:101D10000E94C738F60180814AE0BE0168517F4FBA
:101D200090E00E94503120E041E0BE0168517F4FB9
:101D3000CE0182529F4F0E94DB05FFEFEF1AFF0A90
:101D40002FE1E216F10409F0BFCFB3CFC401019631
:101D5000089F7001099FF00C112481E090E08C0F26
:101D60009D1FE80EF91EC7010E94273189539C4F21
:101D7000FC01808185FD1092B403F2E08F0E911C6E
:101D8000089D6001099DD00C112421E030E02C0F4A
:101D90003D1FC20ED31E6AE072E0C6010E94B73832
:101DA000892B39F4C7010E942731845E9E4F61E080
:101DB0000DC06BE372E0C6010E94B738892B51F465
:101DC000C7010E942731845E9E4F60E0FC01808144
:101DD0000E94551A1E5FE12EF12CAA24A394B12C67
:101DE000AC0EBD1E019FA00CB11C11246CE072E072
:101DF000C5010E94B738892B09F060C0C70102965F
:101E0000089F6001099FD00C112421E030E02C0FC5
:101E10003D1FC20ED31E60E172E0C6010E94B738BA
:101E2000F70131964F01892BE9F40E9F60010F9F56
:101E3000D00C112421E030E02C0F3D1FC20ED31E28
:101E4000C6010E942731875F9E4F61E0FC018081BF
:101E50000E94551A64E670E080E090E00E94C11A8A
:101E6000C60123C06AE072E0C6010E94B738892B20
:101E700089F4089DC001099D900D112421E030E0F6
:101E80002C0F3D1F820F931F0E942731875F9E4FAB
:101E900061E010C0089DC001099D900D112421E052
:101EA00030E02C0F3D1F820F931F0E942731875F68
:101EB0009E4F60E0FC0180810E94551A66E172E04D
:101EC000C5010E94B738892BD1F497012E5F3F4F8F
:101ED000029FC001039F900D112441E150E061E297
:101EE00070E021E030E02C0F3D1F820F931F0E9415
:101EF0003C3431E0C451DF4F3883CC5ED04062E9DE
:101F000072E0C5010E94B738892B09F060C080914A
:101F1000D70383FF2CC0C7010196089F6001099F6A
:101F2000D00C112481E090E08C0F9D1FC80ED91EAB
:101F3000C6010E94273162E0680F46E252E084E069
:101F40000E94371EC6010E94273192E0E90EF11C63
:101F50000E9DA0010F9D500D1124E1E0F0E0EC0F6B
:101F6000FD1F4E0F5F1F62E0680F84E02DC080915F
:101F7000D70384FF2BC0C7010196089F6001099F0A
:101F8000D00C112421E030E02C0F3D1FC20ED31ED7
:101F9000C6010E9427314AE152E0682F80E00E948A
:101FA000371EC6010E94273132E0E30EF11C0E9D60
:101FB000A0010F9D500D1124E1E0F0E0EC0FFD1F9A
:101FC0004E0F5F1F682F80E00E94371E1E5FE12EBC
:101FD000F12CCC24C394D12CCC0EDD1E019FC00C5F
:101FE000D11C11246AE972E0C6010E94B738892B1E
:101FF00019F5F1E0F093B20322E0E20EF11C0E9D20
:10200000C0010F9D900D1124E1E0F0E0EC0FFD1FE9
:102010008E0F9F1F0E94273160E00E946A0B20E014
:1020200041E0811103C063E372E002C06DE372E03E
:1020300089E392E00E94DB0560E472E0C6010E9441
:10204000B738892B31F50E94651B6093BA037093F2
:10205000BB038093BC039093BD036091BA0370915E
:10206000BB038091BC039091BD032AE0AE014252B4
:102070005F4F0E945B3120E040E0BE0162527F4F23
:1020800083E492E00E94DB051092B5031092B40342
:102090001E5F1F5F311608F013CDC451DF4FF8816A
:1020A000CC5ED040FF2309F43EC082E1C252DF4F34
:1020B0008883CE5DD04080910701882369F06091CC
:1020C000E40393E2E92E05E021E0AE0142525F4FC6
:1020D0008CE196E00E94F40320E041E068E472E0C5
:1020E00085E592E00E94DB0520E040E062E372E0DB
:1020F000CB010E94DB0598E088E10FB6F894A89523
:10210000809360000FBE90936000FFCF6091E40366
:1021100083E2E82E05E02F2DAE014F555F4F8CE195
:1021200096E00E94F4038091DB0383FF12C060E01D
:1021300085E00E94551A0DC08CE196E00E94FC11CA
:1021400008C040E062E372E08CE196E00E947E0409
:10215000D8CB822DC251DF4F0FB6F894DEBF0FBE31
:10216000CDBFDF91CF911F910F91FF90EF90DF9046
:10217000CF90BF90AF909F908F907F906F905F9027
:102180004F903F902F9008959F92AF92BF92CF9221
:10219000DF92EF92FF920F931F93CF93DF931F92E3
:1021A000CDB7DEB7182F882319F052E0C52E02C034
:1021B000CC24C394D12C21E1A22E34E1B32E42E1F0
:1021C000942E112319F083E1898301C0A9828091A3
:1021D0000701882369F06091E40393E2E92E05E0AA
:1021E00021E0AE014F5F5F4F8CE196E00E94F40367
:1021F000E12CF12C0E943B0C882311F0E12CF12CF6
:1022000061E070E080E090E00E94C11A8FEFE81A70
:10221000F80A83ECE81681E0F80660F311112CC08F
:102220008091DD03811104C08091DC03882321F1BA
:10223000998280910701882369F06091E40383E229
:10224000E82E05E021E0AE014F5F5F4F8CE196E0A4
:102250000E94F403D39410E0DC10B8CF81E00F901B
:10226000DF91CF911F910F91FF90EF90DF90CF9072
:10227000BF90AF909F900895B982DBCF85ED80939A
:10228000BC008091BC0084FDFCCF1092D504089561
:1022900040915F04262F30E0240F311D213231059B
:1022A000DCF42091D5042430C9F4FC0180E090E0F6
:1022B000861758F430915F042191DC01A35CBB4F79
:1022C000A30FB11D2C930196F3CF80915F04680F8B
:1022D00060935F0480E0089581E0089582E00895AE
:1022E0000895E0918E0480918D04E81730F4F0E0B9
:1022F000E157FB4F808190E008958FEF9FEF0895A5
:1023000090918E0480918D04981750F4E92FF0E09D
:10231000E157FB4F208130E09F5F90938E0402C015
:102320002FEF3FEFC901089580918D0490E0209137
:102330008E04821B91090895CF92DF92EF92FF9253
:102340000F931F93CF93DF937C01262F972F8A0142
:102350008091D604882391F0C62FD72F6E01C40E2A
:10236000D51ECC15DD0571F06991D701ED91FC9179
:102370000190F081E02DC7010995F3CF642F822FE2
:102380000E944811C801DF91CF911F910F91FF90DA
:10239000EF90DF90CF900895CF93DF931F92CDB74A
:1023A000DEB769832091D6042223D1F02091F9046D
:1023B000203240F021E030E0FC013383228380E0D2
:1023C00090E015C08091D704E82FF0E0E852FB4F71
:1023D000998190838F5F8093D7048093F90405C01F
:1023E00061E0CE0101960E94481181E090E00F90DB
:1023F000DF91CF9108950895F89420911B06233022
:1024000021F420913B0421110FC020911B062330A1
:1024100011F4789407C0DC01ED91FC910288F389F6
:10242000E02D099580E00895DC01ED91FC91048890
:10243000F589E02D61E0099581E0089581E08093C0
:1024400095038091930390919403DC01ED91FC91AD
:102450000484F585E02D0995109295030895CF9396
:10246000DF93EC0161E08A810E94551A89858CBD59
:102470008A858DBD80919503811101C07894DF918B
:10248000CF910895FC01F8948CB581878DB5828732
:102490008CB5837F8CBD8CB58F7D8CBD8CB58C7FCE
:1024A0008CBD8DB58E7F8DBD60E082810C94551AF8
:1024B0001F920F920FB60F9211242F933F934F93B9
:1024C0005F936F937F938F939F93AF93BF93EF939C
:1024D000FF938091B900887F803609F49CC068F52D
:1024E000883209F45BC090F4803109F454C038F4A8
:1024F000882309F4F6C0883009F44DC0F6C088314D
:1025000009F44CC0803209F45DC0EFC0803409F496
:1025100068C048F4803309F455C0883309F0E5C039
:102520008093D304D8C0803509F44FC0883509F4AE
:102530005DC0883409F0D9C0D6C0883909F4C7C055
:10254000A8F4883709F467C038F4883609F463C002
:10255000803709F460C0C9C0883809F4B8C0803930
:1025600009F45FC0803809F0C0C05BC0803B09F44B
:1025700086C038F4803A09F466C0883A09F47FC00E
:10258000B4C0803C09F4A7C0883C09F4A4C0883BCF
:1025900009F48AC0AAC08091B00410C09091D204FE
:1025A0008091D104981770F5E091D20481E08E0FEC
:1025B0008093D204F0E0EF54FB4F80818093BB0006
:1025C00085EC86C08093D3048EC0E091D20481E074
:1025D0008E0F8093D2048091BB00F0E0EF54FB4F4C
:1025E00080839091D2048091D1046EC0E091D20496
:1025F00081E08E0F8093D2048091BB00F0E0EF5415
:10260000FB4F80838091D40481116DC081E0809361
:10261000AF0484EA61C083E08093D5041092830400
:10262000CFCF80918304803208F051C0E0918304C1
:1026300081E08E0F809383048091BB00F0E0ED5920
:10264000FB4F8083BDCF85EC8093BC001092D504F6
:1026500080918304803230F4E0918304F0E0ED59FE
:10266000FB4F10826091830470E0E0916104F0916F
:10267000620483E694E009951092830436C084E0F6
:102680008093D5041092600410925F04E0915D0481
:10269000F0915E04099580915F04811105C081E08D
:1026A00080935F0410923D04E091600481E08E0FFE
:1026B00080936004F0E0E35CFB4F80818093BB007B
:1026C0009091600480915F04981708F479CF85E8B1
:1026D0008093BC000AC085EC8093BC001092D504A6
:1026E00004C01092D3040E943E11FF91EF91BF915C
:1026F000AF919F918F917F916F915F914F913F919A
:102700002F910F900FBE0F901F9018951092D50427
:1027100081E08093D4041092AF0461E082E10E94D2
:10272000551A61E083E10E94551AE9EBF0E08081DF
:102730008E7F808380818D7F808388E48093B80042
:1027400085E48093BC00089508958CBD9DBD0895D7
:10275000DC01E0E0615038F08D91E827F0E0EC59C1
:10276000FB4FE491F7CF8E2F0895FC0190810180FB
:10277000F281E02DF8948181892B81832281892F38
:10278000809528232283A7E0B0E01197F1F72181FB
:1027900082238183A3E2B0E01197F1F780817894DE
:1027A000EFECF0E03197F1F7982381E009F480E055
:1027B0000895FC0190810180F281E02D892F8095A0
:1027C00060FF12C0F8942281822382838181892B49
:1027D0008183A3E2B0E01197F1F78281982B928375
:1027E000789487ED90E011C0F8942281822382834F
:1027F0008181892B8183AFEFB0E01197F1F782815E
:10280000982B928378948FE090E00197F1F70895E8
:10281000CF92DF92EF92FF920F931F93CF93DF93AC
:102820001F92CDB7DEB76C01E62E08E010E0FF2462
:10283000F39461E08F2D8E2109F460E0C601498395
:102840000E94D913FF0C015011094981011511058E
:1028500081F7411115C0F894D6011196ED91FC91C4
:10286000129791818C918095892381831196ED91A6
:10287000FC91129792818C91809589238283789420
:102880000F90DF91CF911F910F91FF90EF90DF900C
:10289000CF900895CF92DF92EF92FF920F931F9304
:1028A000CF93DF931F92CDB7DEB78C01F62E40E0B9
:1028B00065E579830E940814CF2C7981D72E7601A3
:1028C00088E0E80EF11CF60161916F0140E0C8015B
:1028D0000E940814CE14DF04B1F70F90DF91CF915E
:1028E0001F910F91FF90EF90DF90CF900895FC0122
:1028F00090810180F281E02DF8948181292F20952B
:102900008223818378948DE743E050E0815021F168
:10291000DA011197F1F730813923C1F3F8948281FC
:10292000822382838181892B81837894ABE7B7E00E
:102930001197F1F7F894818128232183A3E1B1E075
:102940001197F1F78081982381E009F080E0789475
:10295000E3E6F6E03197F1F70895CF93CFB7F89417
:1029600080913C04811127C0E0EAF5E08491E4EB1A
:10297000F5E09491E82FF0E0EE0FFF1FEC59FA4FCD
:10298000A591B491EC91E92321F461E08AE00E94E1
:10299000551A61E08AE00E94851A8CB580618CBD71
:1029A0008CB580648CBD61E08DE00E94851A61E089
:1029B0008BE00E94851A80913C048F5F80933C04D9
:1029C000CFBFCF9108950F931F93CF93DF9300D084
:1029D000CDB7DEB78C01DC01ED91FC91008CF18D5F
:1029E000E02D4A83698309956981862F80680E945A
:1029F0002F054A81842F0E942F05D801ED91FC916B
:102A0000028CF38DE02DC8010F900F90DF91CF91D4
:102A10001F910F9109941F93CF93DF93EC01162F11
:102A2000611102C045E501C04DE56AE5CE010E9495
:102A3000E314111102C040E701C04CE76CE5CE0180
:102A4000DF91CF911F910C94E314EF92FF921F93AB
:102A5000CF93DF931F92CDB7DEB77C01DC01ED9100
:102A6000FC91008CF18DE02D698309956981862F99
:102A70008F770E942F0580E00E942F05182FD70125
:102A8000ED91FC91028CF38DE02DC7010995812F0A
:102A90000F90DF91CF911F91FF90EF900895CF930A
:102AA000DF93EC016887611102C04AE101C04FE089
:102AB00063E1CE010E94E3148885882341F061E13F
:102AC000CE010E9425158F71482F406602C04F81AC
:102AD000406861E1CE01DF91CF910C94E314CF9374
:102AE000DF93EC0110923A041092390410923804EA
:102AF00010923B0410923704109236041092350461
:102B00001092340468E20E94251582FF0AC06DE32A
:102B1000CE010E942515482F44606DE3CE010E942E
:102B2000E31440E465E2CE010E94E314E881F981F8
:102B30000488F589E02D63E0CE01DF91CF910994FF
:102B4000EF92FF921F93CF93DF93EC0180911B06CE
:102B5000833001F568E2CE010E94251582FD2EC06A
:102B600019C080913A048D3330F4E0913A04F0E0DA
:102B7000E950FC4F1082E881F981028CF38DE02D41
:102B8000CE010995E881F9810488F589E02D63E09B
:102B9000CE01099564E2CE010E94251590E0919541
:102BA0008195910995958795909335048093340488
:102BB000DF91CF911F91FF90EF900895E881F98107
:102BC0000488F589E02D61E0CE010995E881F9815D
:102BD000008CF18DE02DCE01099580E00E942F053B
:102BE00080E00E942F0580933B0480913B04833456
:102BF000D0F480913B0480933B0480E00E942F0539
:102C0000809338048E81811109C0909138048D81A0
:102C1000981721F0809138048F3F39F480913B045C
:102C2000833018F017C082E4E6CF10923B04E881AD
:102C3000F981028CF38DE02DCE010995E881F981AF
:102C40000288F389E02DCE01DF91CF911F91FF9093
:102C5000EF90099480913B04835080933A0480E084
:102C60000E942F058093390480E00E942F05982F41
:102C7000907890933604982F907490933704E8815D
:102C8000F9810684F785E02D682FCE01099510E0C3
:102C900080913A04181708F064CFE12EF12C80E0FF
:102CA0000E942F05F701E950FC4F80831F5FF0CF92
:102CB000CF92DF92EF92FF920F931F93CF93DF9308
:102CC0006C017A018B01C0E0D0E0CE15DF0589F000
:102CD000D8016D918D01D601ED91FC910190F081AB
:102CE000E02DC6010995892B11F47E0102C02196C1
:102CF000ECCFC701DF91CF911F910F91FF90EF9023
:102D0000DF90CF900895FC01538D448D252F30E046
:102D1000842F90E0821B930B541710F0CF960895E8
:102D200001970895FC01918D828D981761F0828D35
:102D3000DF01A80FB11D5D968C91928D9F5F9F73EF
:102D4000928F90E008958FEF9FEF0895FC01918D91
:102D5000828D981731F0828DE80FF11D858D90E0FE
:102D600008958FEF9FEF0895FC01918D228D892F9B
:102D700090E0805C9F4F821B91098F739927089583
:102D80008AEF94E00E94B41621E0892B09F420E038
:102D9000822F0895FC01848DDF01A80FB11DA35A75
:102DA000BF4F2C91848D90E001968F739927848F6B
:102DB000A689B7892C93A089B1898C9180648C9362
:102DC000938D848D981306C00288F389E02D80814D
:102DD0008F7D80830895EF92FF920F931F93CF937F
:102DE000DF93EC0181E0888F9B8D8C8D981305C05B
:102DF000E889F989808185FD24C0F62E0B8D10E0CD
:102E00000F5F1F4F0F731127E02E8C8DE8120CC03F
:102E10000FB607FCFACFE889F989808185FFF5CFE5
:102E2000CE010E94CA16F1CF8B8DFE01E80FF11D75
:102E3000E35AFF4FF0820B8FEA89FB898081806221
:102E400007C0EE89FF896083E889F9898081806401
:102E5000808381E090E0DF91CF911F910F91FF90EF
:102E6000EF900895CF93DF93EC01888D8823C9F00C
:102E7000EA89FB89808185FD05C0A889B9898C9183
:102E800086FD0FC00FB607FCF5CF808185FFF2CF1E
:102E9000A889B9898C9185FFEDCFCE010E94CA1611
:102EA000E7CFDF91CF91089580E090E0892B29F062
:102EB0000E94C01681110C9400000895833081F0A7
:102EC00028F4813099F08230A1F008958730A9F07C
:102ED0008830B9F08430D1F4809180008F7D03C0B8
:102EE000809180008F7780938000089584B58F77DC
:102EF00002C084B58F7D84BD08958091B0008F7726
:102F000003C08091B0008F7D8093B00008953FB7DB
:102F1000F8948091890490918A04A0918B04B091D7
:102F20008C0426B5A89B05C02F3F19F00196A11D62
:102F3000B11D3FBFBA2FA92F982F8827820F911D4F
:102F4000A11DB11DBC01CD0142E0660F771F881F96
:102F5000991F4A95D1F70895089580E00895DC01FE
:102F60001A96ED91FC911B9720E030E00994DC016A
:102F70001696ED91FC91179720E030E040E069E172
:102F80000994DC011696ED91FC91179720E030E052
:102F900040E068E109949A01DC011696ED91FC91FC
:102FA0001797462F67E10994EF92FF920F931F93B3
:102FB000CF93DF931F92CDB7DEB77C018B01D80191
:102FC0006C916731E1F078F46531A0F1F80141814D
:102FD0004983D7011696ED91FC91179720E030E0D8
:102FE000C701099524C06A31A8F06E3F19F5F801B0
:102FF0004181498369E2C7010E94AF1718C0F801F7
:1030000081818983AE014F5F5F4F61E0C7010E94FC
:10301000CB170DC00F5F1F4FD7011696ED91FC9196
:10302000179720E030E040E0C7010995C8CF0E5F58
:103030001F4FC5CF0F90DF91CF911F910F91FF9040
:10304000EF900895462FDC011696ED91FC911797AD
:1030500020E030E066E10994462FDC011696ED9100
:10306000FC91179720E030E065E10994EF92FF9220
:103070000F931F93CF93DF93EC01142F79016D30E1
:10308000A9F118F46B3039F15FC06E3009F441C01A
:103090006F3009F059C00E94C117F7018381088978
:1030A000F8E08F9F000D112460E4CE010E942C18DF
:1030B000602F62956F706061CE010E942C18602FA6
:1030C0006F70CE010E942218F7016481606BCE01FF
:1030D0000E94221829C0411103C06EE371E002C0B2
:1030E00069E371E0CE010E94D41771C0411108C09C
:1030F00062E371E00E94D417E881F981828907C0F8
:103100006BE271E00E94D417E881F9818389888B92
:103110005EC00E94C11761E8CE010E942C18612F89
:10312000CE010E9422180CC0F701408151816281BA
:10313000660F660F660FCE010E94CB171150A1F7E4
:10314000CE010E94B71743C0693031F488E791E09F
:1031500099838883188A3BC06A30B9F5EA85FB8574
:1031600020E030E040E068E2CE010995EE81FF8189
:1031700020E030E040E064E1CE01099541E06BE4FD
:10318000CE010E94AF17E881F981448169E2CE0146
:103190000E94AF1740E06BE4CE010E94AF17E881B8
:1031A000F981448169E2CE010E94AF1741E06BE4EE
:1031B000CE010E94AF17E881F981458169E2CE0115
:1031C0000E94AF1763E471E08DCF80E001C081E021
:1031D000DF91CF911F910F91FF90EF900895DC0147
:1031E0001896ED91FC91199720E030E040E069E1FC
:1031F0000994DC011896ED91FC91199720E030E0DC
:1032000040E068E10994662329F06A3019F0862FBE
:1032100090E008958FEF9FEF08950E949338CF9329
:10322000DF931F92CDB7DEB76983BE016F5F7F4F1B
:103230000E94AD220F90DF91CF910895EF92FF92FF
:103240001F93CF93DF93EC01162F7A010E94F91898
:1032500060E4CE010E940F19E885F9859701412F9E
:1032600067E1CE010995CE01DF91CF911F91FF90CB
:10327000EF900C94EF18EF92FF921F93CF93DF9390
:1032800000D0CDB7DEB77C01142F673128F465314B
:1032900040F4643149F141C0673191F06A3170F016
:1032A0003CC00E94F91860E0C7010E940F19612F0D
:1032B000C7010E940F19C7010E94EF1881E02EC0BC
:1032C000A901193160F068E1C70129833A830E949E
:1032D0001E19185129813A81285E3F4FF1CF612F85
:1032E000C7010E941E19EACFDC0152968C915297B9
:1032F0008F3F19F488E752968C93D7011896ED9179
:10330000FC911997412F64E1C7010F900F90DF9155
:10331000CF911F91FF90EF90099480E00F900F9054
:10332000DF91CF911F91FF90EF900895FC01962FB0
:103330006831F1F0B901993150F4943169F0973165
:1033400089F550E087E995E00E949C110FC0993102
:1033500031F1903259F026C010928E0410928D04F3
:103360001092D7041092F9040E94861381E0089508
:10337000A081B1811D968C91843018F08CE08093EF
:10338000B800828990E09595879591E09093D60456
:103390008093F8041092D7041092F904E7CF0E94AA
:1033A000EA20E4CF80E008951F920F920FB60F92AB
:1033B00011242F933F934F935F936F937F938F933A
:1033C0009F93AF93BF93EF93FF938AEF94E00E9494
:1033D000CA16FF91EF91BF91AF919F918F917F910D
:1033E0006F915F914F913F912F910F900FBE0F9072
:1033F0001F9018951F920F920FB60F9211242F93C2
:103400008F939F93EF93FF93E0910A05F0910B0543
:103410008081E0911005F091110582FD12C090812C
:10342000809113058F5F8F7320911405821751F0DF
:10343000E0911305F0E0E650FB4F958F8093130564
:1034400001C08081FF91EF919F918F912F910F90FB
:103450000FBE0F901F901895CF93DF93282F30E069
:10346000F901E858FA4F8491F901E655FA4FD491E1
:10347000F901EA56FA4FC491CC2391F081110E94D0
:103480005E17EC2FF0E0EE0FFF1FE457FA4FA59107
:10349000B491EC91ED2381E090E021F480E002C052
:1034A00080E090E0DF91CF9108951F93CF93DF9359
:1034B000282F30E0F901E858FA4F8491F901E655D8
:1034C000FA4FD491F901EA56FA4FC491CC23C9F0CE
:1034D000162F81110E945E17EC2FF0E0EE0FFF1FF8
:1034E000E259FA4FA591B4918FB7F894111105C024
:1034F0009C91ED2FE095E92302C0EC91ED2BEC932C
:103500008FBFDF91CF911F910895CF93DF9390E00C
:10351000FC01E655FA4F2491FC01EA56FA4F8491DA
:10352000882361F190E0880F991FFC01EC59FA4F54
:10353000C591D491FC01E259FA4FA591B491611162
:1035400009C09FB7F8948881209582238883EC91E5
:103550002E230BC0623061F49FB7F8943881822F1C
:10356000809583238883EC912E2B2C939FBF06C0DC
:103570008FB7F894E8812E2B28838FBFDF91CF91EE
:1035800008958F929F92AF92BF92CF92DF92EF9267
:10359000FF926B017C010E9487174B015C01C114F3
:1035A000D104E104F104F1F00E948717DC01CB01A2
:1035B00088199909AA09BB09883E9340A105B1055C
:1035C00070F321E0C21AD108E108F10888EE880EF4
:1035D00083E0981EA11CB11CC114D104E104F104C4
:1035E00019F7DDCFFF90EF90DF90CF90BF90AF90B5
:1035F0009F908F9008951F93CF93DF93EC01962FA8
:10360000642F9C3270F49A3208F058C0983289F0D6
:10361000993209F03EC070E080E090E00E94C11A4B
:103620004DC09D32B1F0A8F184EB890F823000F1DA
:1036300030C06B9610E089918F3F39F0103110F453
:1036400061E001C062E00E94851A1F5F163199F7A0
:1036500035C0433018F082E090E002C085E090E091
:10366000880F991F880F991F05970197F1F726C0BA
:103670009F73C90FD11D411107C061E08B8D0E945E
:10368000851A60E08B8D10C062E08B8D0E94851AD8
:1036900015C09034A8F09F73FE01E90FF11D838DD2
:1036A0008F3F61F0903118F40E94551A07C00E94B4
:1036B0002C1A21E0892B09F420E02E8B81E001C037
:1036C00080E0DF91CF911F9108952FB7F89460911A
:1036D00085047091860480918704909188042FBF9F
:1036E00008951F920F920FB60F9211242F933F93BC
:1036F0008F939F93AF93BF9380918504909186049D
:10370000A0918704B09188043091840423E0230FB2
:103710002D3720F40196A11DB11D05C026E8230F09
:103720000296A11DB11D209384048093850490937B
:103730008604A0938704B0938804809189049091B3
:103740008A04A0918B04B0918C040196A11DB11D37
:103750008093890490938A04A0938B04B0938C0483
:10376000BF91AF919F918F913F912F910F900FBE7D
:103770000F901F9018951F920F920FB60F92112461
:103780002F933F934F935F936F937F938F939F9369
:10379000AF93BF93EF93FF93E0910301F091040186
:1037A0000995FF91EF91BF91AF919F918F917F917B
:1037B0006F915F914F913F912F910F900FBE0F909E
:1037C0001F9018951F920F920FB60F9211242F93EE
:1037D0003F934F935F936F937F938F939F93AF9399
:1037E000BF93EF93FF93E0910101F09102010995DE
:1037F000FF91EF91BF91AF919F918F917F916F91C9
:103800005F914F913F912F910F900FBE0F901F909E
:103810001895462FDC011496ED91FC91159720E048
:1038200030E06BE00994CF93DF93DC011C96ED91BF
:10383000FC911D9784913196E491681720F1E61769
:1038400010F170E0681B710983E0660F771F8A959D
:10385000E1F7CB010296EA01665F7F4F1C96ED917E
:10386000FC911D97E80FF91FE491E99301968617E3
:103870009707A1F751968C91882399F0FA019A0144
:10388000285F3F4F08C0FA01CA0108961192E81755
:10389000F907E1F7EFCF808180958193E217F30775
:1038A000D1F7DF91CF910895AF92BF92CF92DF927F
:1038B000EF92FF920F931F93CF93DF93CDB7DEB7B5
:1038C0002D970FB6F894DEBF0FBECDBFFC01F6A852
:1038D0006A3021F4F394F6AA15AA23C08C01E5A856
:1038E0006C0184E0C80ED11CDE0111965D01AD01B2
:1038F000C6010E94131CEC86FD8681E08B87BA8688
:10390000A986D8011896ED91FC9119979E01275F21
:103910003F4F41E06FE0C6010995F80185A98F5F2F
:1039200085AB81E090E02D960FB6F894DEBF0FBE18
:10393000CDBFDF91CF911F910F91FF90EF90DF905E
:10394000CF90BF90AF900895AF92BF92CF92DF9289
:10395000EF92FF920F931F93CF93DF93CDB7DEB714
:103960002D970FB6F894DEBF0FBECDBFE82EA62E62
:103970001092FD058A01F12CCE0101966C01BB2449
:10398000B394F80161918F01E091EA05F091EB05A4
:1039900088EE95E009958F3FFFEF9F07F1F08E3F8E
:1039A0002FEF920771F3A601682F88EE95E00E9431
:1039B000131CEC86AD86BB86DA86C986E091EC05E1
:1039C000F091ED059E01275F3F4F41E06FE088EEEB
:1039D00095E00995E394F394D4CF8F2D2D960FB6EF
:1039E000F894DEBF0FBECDBFDF91CF911F910F9135
:1039F000FF90EF90DF90CF90BF90AF900895CF935E
:103A0000DF93C82F8091AC058F3F39F58091A305D6
:103A100091E09093D6048093F8041092D70410920A
:103A2000F9046C2F87E995E00E94CC110E94EA20EE
:103A300062E08091A3050E948C2187E995E00E94B5
:103A40008011C82F87E995E00E94801120E030E0C6
:103A50003C2FE901C82BD92B29C08091AF058F3F9E
:103A600021F482E591E00E94A51360E08091AC050D
:103A70000E94551A8C2F80680E94A92080E00E9425
:103A8000A920C82F80E00E94A9202C2F30E0322FDF
:103A90002227E901C82B61E08091AC050E94551AEC
:103AA0008091AF058F3F11F40E94A413CE01DF91E6
:103AB000CF9108950E94FF1C982789279827089581
:103AC000CF9386E78093A3058091AC058F3F59F48F
:103AD00010928E0410928D041092D7041092F90463
:103AE0000E9486131CC061E00E94551A61E080911B
:103AF000AC050E94851A8091AF058F3F19F40E9492
:103B0000AD140DC061E00E94851A61E08091AD05A1
:103B10000E94851A60E08091AE050E94851A80EDB2
:103B20000E94D721883519F0803609F09DC088E8B9
:103B30000E945A1D9093B1058093B0058AE80E94B7
:103B40005A1D9093B3058093B2058CE80E945A1DCC
:103B50009093B5058093B4058EE80E945A1D90930A
:103B6000B7058093B60580E90E945A1D9093B90568
:103B70008093B80582E90E945A1D9093BB058093FB
:103B8000BA0584E90E945A1D9093BD058093BC0537
:103B900086E90E945A1D9093BF058093BE0588E96F
:103BA0000E945A1D9093C1058093C0058AE90E9426
:103BB0005A1D9093C3058093C2058CE90E945A1D3B
:103BC0009093C5058093C4058EE90E945A1D909379
:103BD000C7058093C60581EA0E94D7218093C80556
:103BE00081EE0E945A1D9093CA058093C90583EE09
:103BF0000E94D7218093CB0584EE0E94D721C82F45
:103C000085EE0E94D721282F2F7030E1C39FC0017D
:103C10001124822B9093CD058093CC0586EE0E94D3
:103C2000D721C82F85EE0E94D72190E024E09595FA
:103C300087952A95E1F740E1C49F90011124822BDA
:103C4000932B9093CF058093CE0587EE0E94D721CA
:103C50008093D00565E082EF0E94472167EB84EFF7
:103C60000E94472181E001C080E0CF91089523E0C8
:103C700039E13093EB052093EA050C94A41CEF92F4
:103C8000FF920F931F93CF93DF93EC0161E08CE1E0
:103C900096E00E948B032097C1F08CE196E00E9491
:103CA00042128EEB0E942F058E017E0180E1E80E0C
:103CB000F11CF80181918F010E942F050E151F053F
:103CC000C1F78CE196E00E942F126DE38CE196E043
:103CD0000E9425158E7F41E0CD2B09F440E0482B52
:103CE0006DE38CE196E0DF91CF911F910F91FF90F2
:103CF000EF900C94E3140F931F93CF93DF9300D0B6
:103D000000D01F92CDB7DEB78C01CB014AE0BE01D7
:103D10006F5F7F4F0E94503120E040E0BE016F5F37
:103D20007F4FC8010E94DB0520E040E062E372E0C3
:103D3000CB010E94DB050F900F900F900F900F901A
:103D4000DF91CF911F910F910895CF92DF92EF9263
:103D5000FF92CF93C82F8091AC058F3F09F040C0F0
:103D60008091A30591E09093D6048093F80410927B
:103D7000D7041092F9046C2F87E995E00E94CC11CA
:103D80000E94EA2063E08091A3050E948C2187E9CC
:103D900095E00E9480116C01990FEE08FF08FE2C3F
:103DA000ED2CDC2CCC2487E995E00E948011AC013D
:103DB000990F660B770BC42AD52AE62AF72AFE2C20
:103DC000ED2CDC2CCC2487E995E00E948011AC011D
:103DD000990F660B770BC42AD52AE62AF72A33C037
:103DE0008091AF058F3F21F482E591E00E94A513F9
:103DF00060E08091AC050E94551A8C2F80680E946B
:103E0000A92080E00E94A920C82ED12CE12CF12C01
:103E1000FE2CED2CDC2CCC2480E00E94A920C82AAA
:103E2000FE2CED2CDC2CCC2480E00E94A920C82A9A
:103E300061E08091AC050E94551A8091AF058F3FDB
:103E400011F40E94A413C701B601CF91FF90EF9027
:103E5000DF90CF9008958F929F92AF92BF92CF92B2
:103E6000DF92EF92FF928AEF0E94A51EE3EAF5E04F
:103E7000458556854A01A12CB12CC72ED82EE92E96
:103E8000FF24E7FCFA94C818D908EA08FB08DC010B
:103E9000CB0137E0B595A795979587953A95D1F7DA
:103EA000B501A401440F551F661F771F4C015D012A
:103EB000841A950AA60AB70AA5019401A785B089B4
:103EC0000E94CA364B015C013BE0B594A7949794DD
:103ED00087943A95D1F7A7019601C701B6010E94D0
:103EE0006D369B01AC016CE055954795379527954C
:103EF0006A95D1F7A189B2890E94CA36DC01CB014B
:103F00007EE0B595A795979587957A95D1F7A50108
:103F10009401280F391F4A1F5B1F2583368347836F
:103F20005087A5E0B0E00E94BF36DC01CB0180588D
:103F30009F4FAF4FBF4F692F7A2F8B2F992787FD48
:103F40009A950E94023520E030E048EC52E40E944D
:103F50005934FF90EF90DF90CF90BF90AF909F903B
:103F60008F900895AF92BF92CF92DF92EF92FF921F
:103F70000F931F93CF93DF931F92CDB7DEB75C01F2
:103F8000D62EE72EFC018585811105C0C5010E9452
:103F90007714811106C0F50113861586148680E01A
:103FA00065C040E060EFC5010E94081401E0F12CFB
:103FB000C12C11E0C5010E94B513682FC5016983AA
:103FC0000E94B5136981613019F48130B9F433C0AE
:103FD0004F2D50E068131BC0F5018385181730F48E
:103FE000E40FF51F8381802349F402C0181731F0D4
:103FF00060E0193058F4F501148708C0F501EF0DA1
:10400000F11D8381802B838361E009C0C12EF501FE
:10401000E40FF51F9381802F809589238383C50149
:104020000E94D9131F5F000F11F4F39401E0F7E031
:10403000FF1508F0BFCF113408F4ADCFF501C386EA
:10404000C11002C081E08587F5018381882309F4CE
:10405000A2CFD5011396ED2DFE2D9501255F3F4F83
:104060008D918193A217B307D9F781E00F90DF916B
:10407000CF911F910F91FF90EF90DF90CF90BF9065
:10408000AF9008950F931F93CF93DF938C01D62F9A
:10409000E091D605F091D705138615861486DF01C9
:1040A0001B9633961E92AE17BF07E1F7C0E0B8012A
:1040B0008091D6059091D7050E94B21F811102C050
:1040C00080E010C0CD130AC067E0C8010E94A813A9
:1040D000F8019781891302C081E004C0CF5FDC172B
:1040E00078F3E5CFDF91CF911F910F9108951F9342
:1040F000CF93DF9300D000D01F92CDB7DEB71C82E4
:1041000021E02B839A838983E091E805F091E9050A
:1041100011891D82A091E805B091E905E091EC05B7
:10412000F091ED059E012F5F3F4F50964C916FE04F
:1041300088EE95E009958D818F5F8D83811750F30F
:104140000F900F900F900F900F90DF91CF911F91D4
:104150000895EF92FF920F931F93CF93DF93909167
:10416000AF059F3F41F4DF91CF911F910F91FF90D9
:10417000EF900C942F05D82F07E010E0C0E0EE245C
:10418000E394F12CCC0F60E08091AF050E94551AAA
:10419000B701002E01C0660F0A94EAF76D238091E3
:1041A000AD050E94551A61E08091AF050E94551A35
:1041B0008091AE050E942C1A892B09F0C160015034
:1041C000110900F78C2FDF91CF911F910F91FF9074
:1041D000EF9008952091F9049091F804213208F0AD
:1041E0004AC08091D5048111FCCF32E03093D504D0
:1041F00031E03093D4043FEF3093D3041092D204D3
:104200002093D104A8EDB4E041EB54E0FA013E2F35
:10421000341B321718F43D913193F9CF1092B0044A
:104220002091B004990F922B9093B0049091AF0419
:10423000913061F41092AF049091B0049093BB0060
:104240009091BC0093FDF8CF95EC01C095EE909352
:10425000BC009091D5049230E1F39091D3049F3F3C
:1042600079F08091D304803241F08091D30480337F
:1042700031F084E005C081E003C082E001C083E04A
:104280001092D7041092F9041092D6040895CF9397
:10429000DF93D82FC62F8091AC058F3FC9F4809152
:1042A000A30591E09093D6048093F8041092D7046C
:1042B0001092F9046D2F87E995E00E94CC116C2FC4
:1042C00087E995E00E94CC11DF91CF910C94EA2010
:1042D0008091AF058F3F21F482E591E00E94A51304
:1042E00060E08091AC050E94551A8D2F8F770E9457
:1042F000A9208C2F0E94A92061E08091AC050E942A
:10430000551A8091AF058F3F21F4DF91CF910C9426
:10431000A413DF91CF9108959091D5049111FCCF12
:10432000613208F060E291E09093D5049093D40458
:104330002FEF2093D3041092D204260F2093D104A0
:104340009093B0049091B004880F892B8093B004AF
:104350008091AF04813061F41092AF048091B00479
:104360008093BB008091BC0083FDF8CF85EC01C039
:1043700085EE8093BC008091D5048130E1F380917B
:10438000D204861710F46091D204A1EBB4E02FE8B8
:1043900034E0F9018E2F821B861718F48D918193DA
:1043A000F9CF10928E0460938D04862F0895CF93D9
:1043B000C82F8091AC058F3FE9F48091A30591E06F
:1043C0009093D6048093F8041092D7041092F904C5
:1043D0006C2F87E995E00E94CC110E94EA2061E0F1
:1043E0008091A3050E948C2187E995E00E948011AD
:1043F000C82F20C08091AF058F3F21F482E591E066
:104400000E94A51360E08091AC050E94551A8C2F84
:1044100080680E94A92080E00E94A920C82F61E046
:104420008091AC050E94551A8091AF058F3F11F421
:104430000E94A4138C2FCF910895AF92BF92CF9278
:10444000DF92EF92FF920F931F93CF93DF93EC01D4
:104450008B018091D6059091D7050E94771488230F
:10446000A1F1BE018091D6059091D7050E944A1412
:1044700040E06EEB8091D6059091D7050E9408141C
:10448000E801680189E0C80ED11CA090D605B09063
:10449000D70588E0E82EF12C01E010E0C5010E946C
:1044A000B5138111102B000F81E0E81AF108B1F764
:1044B0001993CC15DD0549F78091D6059091D70564
:1044C0000E94771491E0813009F090E0892FDF910C
:1044D000CF911F910F91FF90EF90DF90CF90BF9001
:1044E000AF900895CF93DF93CDB7DEB729970FB67E
:1044F000F894DEBF0FBECDBFFC012081203119F141
:10450000BE016F5F7F4F0E941D22882379F068E013
:10451000CE0101960E94A8139985891307C008C08F
:10452000803458F08F3569F08F3769F080E00CC027
:104530008D818F33A9F78AE007C08F31B9F789E001
:1045400003C08BE001C08CE029960FB6F894DEBF63
:104550000FBECDBFDF91CF9108959B01DC0118966E
:10456000ED91FC91199741E067E10994CF93DF93B6
:10457000CDB7DEB7C157D1090FB6F894DEBF0FBE75
:10458000CDBF789484B5826084BD84B5816084BDDC
:1045900085B5826085BD85B5816085BD80916E00E1
:1045A000816080936E001092810080918100826012
:1045B000809381008091810081608093810080914F
:1045C00080008160809380008091B100846080933E
:1045D000B1008091B00081608093B00080917A003A
:1045E000846080937A0080917A00826080937A0060
:1045F00080917A00816080937A0080917A0080684F
:1046000080937A001092C1000E94F60780E090E04B
:104610000E9434348F3F31F400E010E08CE1F82E3A
:10462000F00E16C08FE190E00E9434348F3AA1F76B
:1046300062E08FE00E94851A61E070E080E090E027
:104640000E94C11A8FE00E942C1A892B29F333C0D3
:1046500060E0C8010E9446340F5F1F4FF012F8CF90
:104660006FEF8AE190E00E9446346EEF8BE190E0BC
:104670000E94463461E08CE190E00E94463461E0A3
:104680008DE190E00E94463462E08EE190E00E946D
:1046900046346FEA8FE190E00E94463460E080E2A9
:1046A00090E00E94463441E150E061E270E08BE529
:1046B00092E00E943C3400E010E0C801805090403D
:1046C0000E943434F801E953FC4F80830F5F1F4F81
:1046D0000132110591F7E6E9F3E01192119211927E
:1046E000119223E0E23BF207C1F72091E50330E0AD
:1046F000A0E1B7E20E94B0366093C3037093C40395
:104700008093C5039093C6032091DF0330E0A8E8AF
:10471000B3E10E94B0366093BE037093BF038093F1
:10472000C0039093C1032091DE0330E00E94B036B5
:104730006B017C016093B6037093B7038093B80359
:104740009093B9030E94651BDC01CB018C199D0974
:10475000AE09BF098093BA039093BB03A093BC0337
:10476000B093BD03CD28CE28CF2819F01092B40302
:1047700003C081E08093B4038091E303813029F486
:104780008091E2038E3F09F4ABC061E085E00E94B6
:10479000851A61E086E00E94851A61E087E00E9448
:1047A000851A61E082E00E94851A61E087E00E943C
:1047B000551A61E082E00E94551A65E070E080E0E1
:1047C00090E00E94C11A60E082E00E94551A6AE0FF
:1047D00070E080E090E00E94C11A4091E3030091F4
:1047E000E2039EE2DE0111966D01FD01292F119277
:1047F0002A95E9F781E0898384E08A8332E03B836C
:1048000023E02D833E838F8380E4888735E03987DA
:104810002A8726E02B8723E32C8737E03D8728E093
:104820002F8729E0298B29E12B8B22E42C8B55E261
:104830005D8B8E8B56E25F8B388F38E2398F30E19B
:104840003A8F39E23B8F3CED3C8F9D8F98E89E8FED
:104850009FE29F8F9DE298A390E399A337E33BA348
:1048600030E93CA338E33DA32EA32CE32FA32FE88C
:1048700028A72DE329A722E12AA72FE62BA79CA78B
:104880009FEF9DA79CE69E87888B4AA361E080915D
:104890001E060E94551A61E080911E060E94851A2C
:1048A0000E94AD140E94651B4B015C014AEA6FE255
:1048B0008CE196E00E94E3146FE28CE196E00E94A6
:1048C00025158A3A81F00E94651BDC01CB0188190D
:1048D0009909AA09BB09C297A105B10538F303C01C
:1048E0001092070152CF0E94651B4B015C0145E508
:1048F0006FE28CE196E00E94E3146FE28CE196E0B7
:104900000E942515853561F00E94651BDC01CB01F5
:1049100088199909AA09BB09C297A105B10538F3FD
:1049200010E0F601E10FF11DE10FF11D60816F3F15
:1049300039F041818CE196E00E94E3141F5FF1CFD2
:1049400080E090E00E943F1E609124068CE196E09A
:104950000E944F1561E08CE196E00E948B030E945B
:10496000651B4B015C0167E28CE196E00E94251516
:1049700087FD0CC00E94651BDC01CB0188199909D9
:10498000AA09BB09C297A105B10568F30E94651B7E
:10499000DC01CB0188199909AA09BB09C297A105B5
:1049A000B10508F055C01092950380912006823021
:1049B000C8F4E82FF0E0EE0FFF1FEF5FFE4F2EE18F
:1049C00032E131832083813039F080916900836046
:1049D00080936900E89A06C0809169008C6080939A
:1049E0006900E99A8CE196E0909394038093930395
:1049F0000093210667E00E942515182F67E08CE1DF
:104A000096E00E94251521E0811101C020E091E08F
:104A10001F3F09F490E09223D9F06FE18CE196E01A
:104A20000E94710341E150E061E270E0CE018F9697
:104A30000E942434CE018F960E943F1E8CE196E0A6
:104A40000E94FC118091D10381110C94D72E18C0C3
:104A500015E060E087E00E94551A64E670E080E0AF
:104A600090E00E94C11A61E087E00E94551A64E656
:104A700070E080E090E00E94C11A115051F7CDCF54
:104A80008091D20381110C94D72E8091D303811190
:104A90000C94D72E8091D40381110C94D72EBCE1B5
:104AA0008B2EB1E09B2E00E010E0D401FD904D0173
:104AB000F801E953FC4F5F01FAE0FF1661F0D50100
:104AC0006C9161708F2D0E94851AF5016081627072
:104AD0008F2D0E94551AD5018C9182FF03C08F2D16
:104AE0000E9425090F5F1F4F07301105F1F68091D5
:104AF000DB0380FF04C061E086E00E94551A8091CC
:104B0000D60381FF08C060E080E00E94851A61E062
:104B100081E00E94851A8091D70384FF02C00C9423
:104B2000DB2E8091D70383FF02C00C94DB2E809193
:104B3000DA0380FDE6C080E290E00E943434811107
:104B4000CDC061E080E290E00E94463499E288E1C5
:104B50000FB6F894A895809360000FBE9093600004
:104B6000F89421E030E080E80FB6F894809361007B
:104B7000209361000FBE00916600F0908000E090ED
:104B80008100B0908200A0906F009090B000809063
:104B9000B100709070006090B6001092800010928A
:104BA00081001092820010926F001092B00010925B
:104BB000B100109270001092B60066E28CE196E0AF
:104BC0000E942515582E45E066E28CE196E00E9491
:104BD000E3141092700083B5826883BD80E48093F3
:104BE000B6009091B60090629093B60081E08093F9
:104BF000B1001092B00093B59F7793BDB89BFECFE4
:104C000087E087BB81E08093810080E88093660025
:104C100011E021E837E0112311F1B89BFCCF23BD4F
:104C200037BB809184009091850010FD15C0AC01C8
:104C30004D5F53404730510590F08115944010F07E
:104C40000C94492F909166009F5F9093660010929C
:104C500085001092840001C013BC1F5FDCCF7894E4
:104C6000452D66E28CE196E00E94E314F09280000C
:104C7000E0928100B0928200A0926F009092B0000A
:104C80008092B100709270006092B60087E286BB9D
:104C900087E087BB13BC111119C000936600809197
:104CA0000701882399F081E1EBEBF2E0D601019056
:104CB0000D928A95E1F76091E403A3E2EA2E05E004
:104CC00021E1A6018CE196E00E94F40360E080E21D
:104CD00090E00E9446340E94F6072CC080910701A4
:104CE000882341F188E1ECECF2E0D60101900D92CD
:104CF0008A95E1F76091E403F3E2EF2E05E028E105
:104D000012C0809107018823A9F087E1E4EEF2E068
:104D1000D60101900D928A95E1F76091E403E3E2F8
:104D2000EE2E05E027E1A6018CE196E00E94F40357
:104D300010E001C011E08091D70381FF35C0E09100
:104D40000A05F0910B0582E08083E0910605F09161
:104D500007051082E0910805F09109058FEC80832A
:104D600010921205E0910E05F0910F0586E0808308
:104D7000E0910C05F0910D05808180618083E091C8
:104D80000C05F0910D05808188608083E0910C0511
:104D9000F0910D05808180688083E0910C05F09191
:104DA0000D0580818F7D80838091D60382FF09C0AD
:104DB0000E94601D811105C08091070181110C9432
:104DC0004E2F60E080E290E00E944634112329F0EB
:104DD0008091070181110C94642F60E087E00E94AC
:104DE000551A8091DB0383FF04C060E087E00E94D6
:104DF000551A8091DB0381FF21C00E94651B009141
:104E0000F3031091F4032091F5033091F603DC01D4
:104E1000CB01801B910BA20BB30B893B9B40A105DF
:104E2000B10560F00E94651B6093F3037093F40377
:104E30008093F5039093F6030E94CA0561E080E039
:104E40000E946A0B0E94651B0091EF031091F00312
:104E50002091F1033091F203DC01CB01801B910B17
:104E6000A20BB30BC090C303D090C403E090C50362
:104E7000F090C60320910801C816D906EA06FB0681
:104E800018F0222309F4B2C6222331F08091D60310
:104E900080FF02C00C94792F0E94651B6093EF0382
:104EA0007093F0038093F1039093F2038091DD03FC
:104EB000882319F081E00E94A3078091D60380FF28
:104EC00077C18091E803811177C0E091D605F09118
:104ED000D705138615861486DF011B9633961E921E
:104EE000AE17BF07E1F71092D50511E0BE01615D75
:104EF0007F4F8091D6059091D7050E94B21F8823DD
:104F000009F451C067E0CE018F960E94A8139EA9B4
:104F10008913ECCF8091D105811127C08091D605EE
:104F20009091D7050E947714BE01615D7F4F8091FB
:104F3000D6059091D7050E944A1440E064EB809119
:104F4000D6059091D7050E9408148091D6059091BE
:104F5000D7050E94B513082F8091D6059091D705EB
:104F60000E947714002309F4CCC7BE016F5F7F4F06
:104F7000CE018F960E941D220091D205CE018F9600
:104F80000E947222801718F48091D20504C0CE01CD
:104F90008F960E9472228093D2058091D5058F5FF3
:104FA0008093D505A3CF81E08093E8036CED75E095
:104FB00080E090E00E94C11A8091D6059091D705BB
:104FC0000E94771440E06CEC8091D6059091D70553
:104FD0000E9408144091D10564E48091D605909117
:104FE000D7050E9408148091D3058823A9F0E09189
:104FF000D205E950E33040F4F0E0EE0FFF1FEA5E27
:10500000FE4F6081718102C06EEE72E0072E000CCF
:10501000880B990B0E94C11AF12C6DE0E62E6E01EF
:10502000F5E0CF0ED11C8091D505F81608F0B2C07E
:1050300024E434E740E050E029833A834B835C83E7
:10504000D601EE2D1D92EA95E9F76F2DCE01805C19
:105050009F4F0E944220811105C060E070E08EEFFA
:1050600092EC51C0BE01615D7F4FCE01805C9F4FCD
:105070000E941D22882309F449C768E0CE018F965B
:105080000E94A8139FA9891341C76FA5F8E06F9FDD
:10509000B001112488A9282F30E0322F2227330FA6
:1050A000330F330F262B372B21968FAD219780316D
:1050B00009F02AC76EA970E08DA9AB01481B510900
:1050C000CA019695982F8827979587950E947D36D7
:1050D00060517109207F53E0220F331F5A95E1F789
:1050E000620F731F613854EE75070CF4B6CF072EAC
:1050F000000C880B990B0E94023520E030E040E064
:105100005CE30E9400368E01015D1F4F21E043E009
:105110000E9407316F2DCE01885B9F4F0E94422075
:10512000075E1F4FB12CD8018D918D014AE0BE0161
:10513000605C7F4F90E00E94503143E050E0BE0140
:10514000605C7F4FCE0101960E94C738B2E0BB166B
:1051500031F06CE672E0CE0101960E94A138B39462
:10516000E3E0BE12E0CF20E040E0BE01615D7F4F92
:10517000CE0101960E94DB05F5E6FF1209C020E092
:1051800040E06EE672E083E492E00E94DB0502C03C
:10519000F39449CF8091D50581110AC01092E8039C
:1051A00020E040E06AE772E083E492E00E94DB05E1
:1051B0008091D60381FF08C020E041E06AE872E0F8
:1051C00084E992E00E94DB058091D60382FF09C446
:1051D0000E942B1F8E010F5F1F4F21E043E00E94B2
:1051E000073120E040E0B80189E992E00E94DB0548
:1051F0000E942B1F87EF0E94A51EAF966CAF7DAF5C
:105200008EAF9FAFAF978091A8059091A905A0910F
:10521000AA05B091AB056C017D01FF0CCC08DC2C1C
:1052200076019C01AD016C2D7C2D8C2D9C2D345F65
:1052300041405109610971098109910961962FAFB6
:10524000619762963FAF629763964FAF639764969C
:105250005FAF649765966FAF659766967FAF669709
:1052600067968FAF679768969FAF689759016A01F5
:105270007B018C010E94D236A4962FAFA497A596ED
:105280003FAFA597A6964FAFA697A7965FAFA797F4
:10529000A8966FAFA897A9967FAFA997AA968FAF48
:1052A000AA97AB969FAFAB972091C005E0962FAF22
:1052B000E0973091C10569963FAF69974091BE056F
:1052C000E1964FAFE1975091BF056A965FAF6A973D
:1052D0008091BC05E2968FAFE2979091BD056B96E9
:1052E0009FAF6B97B090B905A090B8051B2D110F1B
:1052F000110BC12ED12EE12EF12E012F61962FAD73
:10530000619762963FAD629763964FAD63976496DF
:105310005FAD649765966FAD659766967FAD66974E
:1053200067968FAD679768969FAD68970E94D23653
:105330000CE00E94023819012A013B014C01B09097
:10534000BB05A090BA051B2D110F110BC12ED12E3C
:10535000E12EF12E012FA4962FADA497A5963FAD77
:10536000A597A6964FADA697A7965FADA797A896C7
:105370006FADA897A9967FADA997AA968FADAA976A
:10538000AB969FADAB970E94D23608E00E941B38C7
:1053900051016201730184010E94393870588F4FA6
:1053A0009F4F2090B6053090B7055101C12CD12CEC
:1053B000E12CF12C00E010E00E94D23601E20E94C4
:1053C0001B386C962FAF6C976D963FAF6D976E96AE
:1053D0004FAF6E976F965FAF6F97A0966FAFA09726
:1053E000A1967FAFA197A2968FAFA297A3969FAFEA
:1053F000A397A0E00E944B3809F4E3C1E096AFAC5C
:10540000E09769961FAD6997110F110B6996BFACB4
:105410006997C12ED12EE12EF12E012FA4962FAD2A
:10542000A497A5963FADA597A6964FADA697A7962C
:105430005FADA797A8966FADA897A9967FADA997DE
:10544000AA968FADAA97AB969FADAB970E94D23626
:1054500019012A013B014C01E196AFACE1976A9634
:105460001FAD6A97110F110B6A96BFAC6A97C12ED8
:10547000D12EE12EF12E012F61962FAD619762960C
:105480003FAD629763964FAD639764965FAD649747
:1054900065966FAD659766967FAD669767968FAD9B
:1054A000679768969FAD68970E94D23601E10E9487
:1054B000023859016A017B018C019101A201B301FB
:1054C000C4010E94393819012A013B014C01AF96F1
:1054D0004CAD5DAD6EAD7FADAF9704E07595679552
:1054E000579547950A95D1F780E090E0A0E1B0E0AC
:1054F000841B950BA60BB70B6C017D01FF0CCC0830
:10550000DC2C76019C01AD016C2D7C2D8C2D9C2D0D
:105510000FE10E940238B22FA32FF42FE52F6196DE
:105520006FAF619762967FAF629763968FAF639715
:1055300064969FAF6497E2962FADE2976B969FAD0E
:105540006B97990F990B6B963FAD6B97492F592F1E
:10555000692F792F892F03E20E94023859016A01CD
:105560007B018C019101A201B301C4010E94393871
:1055700059016A017B018C012B2F3A2F4F2F5E2F8F
:1055800061966FAD619762967FAD629763968FADBE
:10559000639764969FAD64970E944238722E832E63
:1055A000942EB52FA62FF72FE82F592E03E00E9437
:1055B0000238A72CB82CC92CDB2EEA2EFF2E0E2F7A
:1055C000152D0E94423859016A017B01682E192F5E
:1055D00003E00E940238062D0E94423803E00E9438
:1055E0000238A72CB82CC92CDB2EEA2EFF2E0E2F4A
:1055F000152D0E94423802E00E9402380E2F0E94B0
:10560000423801E00E9402380E2F0E9442386C9608
:10561000AFAC6C976D96BFAC6D976E96CFAC6E9736
:105620006F96DFAC6F97A096EFACA097A196FFACFA
:10563000A197A2960FADA297A3961FADA3970E9424
:105640002D3761962FAF619762963FAF6297639651
:105650004FAF639764965FAF649765966FAF65973A
:1056600066967FAF669767968FAF679768969FAF8E
:1056700068970DE00E941B38322E432E542E652E63
:10568000762E872E982E292E3091C7052091C6059B
:10569000932F990F990BA32CB42CC52CD62CE72C47
:1056A000F82C092D122D492F592F692F792F892F69
:1056B0000E94D2360E94D23609E10E941B3859015D
:1056C0006A017B018C0161962FAD619762963FADB7
:1056D000629763964FAD639764965FAD64976596E6
:1056E0006FAD659766967FAD669767968FAD679746
:1056F00068969FAD68970E94393819012A013B01CD
:105700004C013091C5052091C405932F990F990B39
:105710006196AFAC61976296BFAC62976396CFAC6F
:1057200063976496DFAC64976596EFAC6597669671
:10573000FFAC669767960FAD679768961FAD689741
:10574000492F592F692F792F892F0E94D23603E1D3
:105750000E941B3859016A017B018C019101A20151
:10576000B301C4010E94393808E00E941B38390196
:105770004A01B62FA72FF82FE92F3091C3052091AA
:10578000C205932F990F990B492F592F692F792F04
:10579000892F04E00E94023859016A017B018C01C3
:1057A0009301A4016B2F7A2F8F2F9E2F0E943938DF
:1057B0000E94FA3420E030E040E85BE30E940036CB
:1057C00003C060E070E0CB0120E030E048EC52E440
:1057D0000E9459346B017C0120E030E0A9010E9455
:1057E0005434811102C00E94601D8E010F5F1F4F53
:1057F00021E043E0C701B6010E94073120E040E00C
:10580000B8018CE992E00E94DB050E942B1F8DEF0E
:105810000E94FF1C8090A8059090A905A090AA0561
:10582000B090AB05ACE29A1AA1E0AA0AB1086C01EB
:10583000E12CF12C0EE0CC0CDD1CEE1CFF1C0A95BB
:10584000D1F74091CC055091CD05052E000C660B8B
:10585000770B84E1440F551F661F771F8A95D1F798
:10586000C41AD50AE60AF70AA091CE05B091CF0571
:10587000A50194010E94CA36C61AD70AE80AF90A95
:10588000B0E4DB0EE11CF11C9FE0F594E794D794A3
:10589000C7949A95D1F7A091D0050A2E000CBB0BA6
:1058A0000E94CA362B013C016AE0759467945794B4
:1058B00047946A95D1F7A091CB05B0E00E94BF361E
:1058C000DC01CB017BE0B595A795979587957A95F7
:1058D000D1F7BC01CD0170588F4F9F4FA3019201AA
:1058E0000E946D36DC01CB01EAE0B595A79597954E
:1058F0008795EA95D1F79C01AD01405E5F4FA0917D
:10590000C905B091CA050E94CA36DC01CB01905E80
:10591000AF4FBF4FBC01CD01FEE0959587957795C0
:105920006795FA95D1F7A70196010E946D366B0134
:105930007C01AFE09595879577956795AA95D1F706
:105940009B01AC010E946D369B01AC01B7E05595FF
:10595000479537952795BA95D1F7A091C805B0E03E
:105960000E94BF36DC01CB0114E0B595A795979551
:1059700087951A95D1F7A7019601281B390B4A0B79
:105980005B0BDA01C90157FF03C080E090E0DC0146
:1059900081309105A10539E1B30724F080E090E062
:1059A000A0E0B9E1BC01CD011CE095958795779504
:1059B00067951A95D1F70E94023520E030E040E863
:1059C0005AE30E9400368E010F5F1F4F21E043E033
:1059D0000E94073120E040E0B8018FE992E00E9488
:1059E000DB05FAE0CF2ED12CA2E2AA2EB12CB2E038
:1059F0009B2EA60149535C4F7A01DA018C918823D2
:105A000009F4A1C08C9182FF21C0809106018150D0
:105A100019F0809306011AC09092060161E080E0BF
:105A20000E94851A61E080E00E94551A60E177E2E9
:105A300080E090E00E94C11A60E080E00E94551A68
:105A400064EF71E080E090E00E94C11A21E439E641
:105A500040E050E02FA738AB49AB5AAB1CAA1BAAB9
:105A6000F601E45EFE4F10814AE0BE01605C7F4FAC
:105A7000812F90E00E94503142E050E0BE01605C16
:105A80007F4FCE018F960E94C7381E3008F01E50FF
:105A900017708091050130E4839FC0011124182BF9
:105AA00010937C0080917A00806480937A008091CA
:105AB0007A0086FDFCCF009178008091790010E09B
:105AC000182BD7018C9180FD0CC08C9181FD09C0F1
:105AD0008C9183FD06C08C9184FD1BC28C9182FD4C
